:0400000012EF2BF0E0
:020006001200E6
:1000080000C019F001C018F004C017F008C016F0BD
:100018000CC015F0F2A42AD05B2A8186010E436E2B
:100028004050FF0A03E1406A416A01D0402A0101B9
:100038000651FF0A03E1066B5A6A01D0062B190E16
:100048005B5C0FE35B6A010E1C26000E1D221E225C
:100058001F222252010ED8A4000E226E8196010E94
:10006800426EF30ED76ECA0ED66EF294F0A016D07A
:100078004150000A03E1412A406A01D0412A050E95
:10008800415C0BE3130E405C07E34050150804E3A2
:10009800010E3F6E416A01D0416AF090F0A218D07B
:1000A8005A50000A04E101015A2A066B01D05A2A63
:1000B800050E5A5C0CE30101130E065D07E30651B9
:1000C800150804E3010E3E6E5A6A01D05A6AF0928E
:1000D800F2A22ED05E2A5E50FF0A01E15E6A030E8C
:1000E800046E5EC000F066D808C000F00050010A37
:1000F8000EE1275205E0605202E0828201D082922E
:10010800285205E05F5202E0828001D08290030EFF
:10011800046E5EC000F04ED808C000F00050000A1F
:1001280006E1275201E08282285201E08280F292A1
:1001380019C000F018C001F017C004F016C008F08C
:0601480015C00CF01100CF
:10014E003AC4C9FFC7B002D00000FCD7C9CF00F037
:02015E0012008D
:0E016000ACB202D00000FCD73AC4ADFF1200D2
:10016E00086A096A100E0C6E0134083609360450FE
:10017E00085E0550D8A0053C095ED8B007D00450E3
:10018E0008260550D8B0053C0926D8900036013611
:06019E000C2EEAD712004E
:1001A400F250026EF29E0500FF6A0150FE6E00508E
:0801B400FD6E02BEF28E120086
:1001BC00086A080E0C6E003408360450085ED8B07D
:0E01CC0002D00826D89000360C2EF5D712006F
:1001DA000401366B030E365D0AE236513425E16EB0
:1001EA00000E3521E26E200EE66E362BF3D736511D
:1001FA003425E16E000E3521E26EE66A3607365185
:10020A003425376F000E3521386F0A0E046E33C459
:10021A0000F0CFDF08C000F0300E002637C4E1FF3F
:10022A0038C4E2FF00C0E6FF0A0E046E33C400F0D1
:10023A00C0DF00C033F40050000A01E102D03607E3
:04024A00DED71200E9
:10024E0035C404F036C405F033C402F034C403F0F0
:10025E0037C400F038C401F0010E0401375F000E00
:10026E00385B005001100FE004C0E9FF05C0EAFF43
:10027E0002C0E1FF03C0E2FFEECFE6FF024A032A0F
:10028E00044A052AE5D733C400F034C401F0120045
:0A029E00030E0D6E0D2EFED71200A8
:1002A8000B6A0A6A096A086A0E6A03340836045037
:1002B800085E0550D8A0053C095E0650D8A0063C4B
:1002C8000A5E0750D8A0073C0B5EE86AD8A0010E6A
:1002D8000E5E0336070E0C6E0334083609360A36EE
:1002E8000B360E36045003A012D0085E0550D8A075
:1002F800053C095E0650D8A0063C0A5E0750D8A007
:10030800073C0B5EE86AD8A0010E0E5E11D00826E5
:100318000550D8B0053C09260650D8B0063C0A2638
:100328000750D8B0073C0B26E86AD8B0010E0E2655
:1003380003360C2ED1D70234083609360A360B3666
:100348000E36045003A012D0085E0550D8A0053C14
:10035800095E0650D8A0063C0A5E0750D8A0073CA4
:100368000B5EE86AD8A0010E0E5E11D00826055073
:10037800D8B0053C09260650D8B0063C0A260750D6
:10038800D8B0073C0B26E86AD8B0010E0E26023614
:10039800070E0C6E0234083609360A360B360E364E
:1003A800045002A012D0085E0550D8A0053C095E92
:1003B8000650D8A0063C0A5E0750D8A0073C0B5E42
:1003C800E86AD8A0010E0E5E11D008260550D8B0F4
:1003D800053C09260650D8B0063C0A260750D8B076
:1003E800073C0B26E86AD8B0010E0E2602360C2E02
:1003F800D1D70134083609360A360B360E36045082
:1004080002A012D0085E0550D8A0053C095E06502F
:10041800D8A0063C0A5E0750D8A0073C0B5EE86AE5
:10042800D8A0010E0E5E11D008260550D8B0053CA4
:1004380009260650D8B0063C0A260750D8B0073C13
:100448000B26E86AD8B0010E0E260136070E0C6E90
:100458000134083609360A360B360E36045001A028
:1004680012D0085E0550D8A0053C095E0650D8A0F9
:10047800063C0A5E0750D8A0073C0B5EE86AD8A085
:10048800010E0E5E11D008260550D8B0053C09268D
:100498000650D8B0063C0A260750D8B0073C0B26B1
:1004A800E86AD8B0010E0E2601360C2ED1D70034DA
:1004B800083609360A360B360E36045001A012D01B
:1004C800085E0550D8A0053C095E0650D8A0063C39
:1004D8000A5E0750D8A0073C0B5EE86AD8A0010E58
:1004E8000E5E11D008260550D8B0053C09260650E6
:1004F800D8B0063C0A260750D8B0073C0B26E86A55
:10050800D8B0010E0E260036070E0C6E00340836E1
:1005180009360A360B360E36045000A012D0085E93
:100528000550D8A0053C095E0650D8A0063C0A5ED6
:100538000750D8A0073C0B5EE86AD8A0010E0E5EF3
:1005480011D008260550D8B0053C09260650D8B069
:10055800063C0A260750D8B0073C0B26E86AD8B0F4
:10056800010E0E2600360C2ED1D700B00ED0045046
:1005780008260550D8B0053C09260650D8B0063CD8
:0C0588000A260750D8B0073C0B261200D2
:0C059400A60E0D6E0D2EFED7000012000A
:1005A00028C1E1FF29C1E2FF33C4E6FF26C100F004
:0805B00027C101F0F7DD120084
:1005B8004ED00101086B096BFF0E076F67D0010170
:1005C800900E086F010E096FC80E076F5FD001010A
:1005D800C20E086F010E096F960E076F57D0010102
:1005E800F40E086F010E096F640E076F4FD00101FA
:1005F800260E086F020E096F500E076F47D00101D3
:10060800580E086F020E096F960E076F3FD0010152
:10061800580E086F020E096F640E076F37D001017C
:10062800580E086F020E096F320E076F2FD00101A6
:10063800BC0E086F020E096F640E076F27D0010108
:10064800BC0E086F020E096F320E076F1FD004012F
:100658003351000AAEE03351010AB1E03351020AC6
:10066800B6E03351030ABBE03351040AC0E033510A
:10067800050AC5E03351060ACAE03351070ACFE03C
:0E0688003351080AD4E03351090AD9E01200B8
:10069600A6A202D00000FCD7A69C33C4A9FF34C48E
:1006A600A8FFA69EA684F2CF00F0F29E550EA76E76
:1006B600AA0EA76EA68200BE02D0F29E01D0F28ECE
:0406C600A6941200E4
:1006CA00480E0C6E6C0E0D6E0D2EFED70C2EFCD73E
:0406DA00000012000A
:1006DE000401376B050E375D0AE237513525E16EA1
:1006EE00000E3621E26E200EE66E372BF3D7375111
:1006FE003525E16E000E3621E26EE66A3707375178
:10070E003525386F000E3621396F0A0E046E000E35
:10071E00056E33C400F034C401F022DD08C000F0D1
:10072E0009C001F0300E002638C4E1FF39C4E2FFE3
:10073E0000C0E6FF0A0E046E000E056E33C400F014
:10074E0034C401F00DDD00C033F401C034F4000EEA
:10075E00011802E1000E001801E102D03707CFD7D1
:02076E00120077
:100770000B6A0A6A096A00500402F4CF09F0F3CF49
:1007800008F001500502F4CF0BF0F3CF0AF000504F
:100790000502F3500926F4500A22E86A0B220150A0
:1007A0000402F3500926F4500A22E86A0B2208C01A
:1007B00000F009C001F00AC002F00BC003F0120003
:1007C00004012D6B0A0E2D5D0AE22D512B25E16EE1
:1007D000000E2C21E26E300EE66E2D2BF3D72D513C
:1007E0002B25E16E000E2C21E26EE66A2D07000E2D
:1007F000006E2A1908E10050291905E10050281956
:1008000002E12751000A3EE02D512B252E6F000EEC
:100810002C212F6F0A0E046E000E056E066E076EF9
:1008200027C400F028C401F029C402F02AC403F050
:100830003BDD08C000F009C001F00AC002F00BC0A7
:1008400003F0300E00262EC4E1FF2FC4E2FF00C0EB
:10085000E6FF2D070A0E046E000E056E066E076E8B
:1008600027C400F028C401F029C402F02AC403F010
:100870001BDD00C027F401C028F402C029F403C026
:060880002AF4B5D71200B6
:1008860027C433F428C434F4040134333333349F97
:1008960029C435F42AC436F41FDF010E2715016E6C
:1008A60028C402F0000E0216000E021802E1010E24
:1008B600011817E1050E2925336F000E2A21346F22
:1008C6002E0E2B6F350E2C6F730E2D6F2E6B2B0E7F
:1008D600356F040E366F040E376F000E386FB4DCBA
:1008E60016D0050E2925336F000E2A21346F730E9C
:1008F6002F6F200E306F200E316F326B2F0E356F3B
:10090600040E366F040E376F000E386F9DDC120032
:1009160004012A6B27C4E9FF28C4EAFFEECF29F4B5
:100926002951000A0EE029C433F437DE04012A2BCC
:100936002A512725E96E000E2821EA6EEECF29F40A
:04094600EFD71200D5
:0A094A00490E0D6E0D2EFED71200AF
:10095400A69C27C4A9FFA69EA680A8CF00F01200DB
:10096400040127BF02D0819E01D0818E27BD02D011
:10097400819C01D0818C27BB02D0819A01D0818ACD
:1009840027B902D0819801D0818801010AB102D02F
:10099400848401D08494848280DC8492040127B707
:1009A40002D0819E01D0818E27B502D0819C01D0D6
:1009B400818C27B302D0819A01D0818A27B102D0D9
:1009C400819801D0818801010AB102D0848401D0C8
:1009D4008494848262DC84920AA102D074DE01D001
:0409E400D7DD120049
:1009E800010E0401336F17C134F451DE020E040105
:1009F800336F0DC134F44BDE030E0401336F0CC1A9
:100A080034F445DE040E0401336F0BC134F43FDEC9
:100A1800050E0401336F10C134F439DE060E0401EB
:100A2800336F0FC134F433DE070E0401336F0EC188
:100A380034F42DDE080E0401336F20C134F427DEB0
:100A4800090E0401336F2BC134F421DE0A0E0401B0
:100A5800336F2DC134F41BDE0B0E0401336F2CC130
:100A680034F415DE0C0E0401336F61C034F40FDE6C
:100A7800615009080401336F9BDD0D0E0401336FCB
:100A88002AC134F404DE0E0E0401336F2EC134F48F
:100A9800FEDD0F0E0401336F2FC134F4F8DD100EA4
:0C0AA8000401336F25C134F4F2DD1200AC
:100AB40004012A6B27C4E9FF28C4EAFFEECF29F416
:100AC4002951000A0FE029C43AF4B0EC00F0040103
:100AD4002A2B2A512725E96E000E2821EA6EEECF33
:060AE40029F4EED7120018
:100AEA000900F5CFE6FF0006FBE10106F9E1120075
:100AFA0027C433F404013333339F28C434F429C49C
:100B0A0035F4EDEC00F0010E2715016E0150010AD3
:100B1A0018E1030E2825336F000E2921346F2E0E9B
:100B2A002A6F350E2B6F730E2C6F2D6B2A0E356FB5
:100B3A00040E366F040E376F000E386F27EC01F083
:100B4A0017D0030E2825336F000E2921346F730E38
:100B5A002E6F200E2F6F200E306F316B2E0E356FD9
:100B6A00040E366F040E376F000E386F27EC01F053
:020B7A00120067
:100B7C000001FE5102017E1905E10001FE6B010E20
:100B8C00006E12000001FF5102017E1905E1000107
:100B9C00FF6B010E006E12000101005102017E1963
:100BAC0005E10101006B010E006E1200006A1200DB
:100BBC0002017E51010A03E1456A01010291020121
:0E0BCC007E51020A03E1466A01010293120003
:100BDA0002017F6B140E7F5D41E27FC200F0000EBE
:100BEA00016E070E046E000E056EBDDD710E002645
:100BFA00000E0122050E0024E96E000E0120EA6EA5
:100C0A00EE50000A29E17FC200F0000E016E070EC5
:100C1A00046E000E056EA7DD710E0024E96E000E4B
:100C2A000120EA6EEECF01F001507E1915E07FC275
:100C3A0000F0000E016E070E046E000E056E93DDC5
:100C4A00710E0026000E0122050E0024E16E000E30
:0E0C5A000120E26E010EE66E7F2BBCD7120069
:100C6800C26AC00EC212C18CC18E7EC200F00036AC
:100C7800009000360090003600900050C212C280EA
:100C880060DEC284C2A401D0FDD7C4CF01F0006ADF
:0C0C9800C3500012000E0112C2901200A6
:100CA40002017E51010A08E1010E276E7FB102D0D4
:100CB400829801D0828882827E51020A08E1010E64
:100CC400286E7FB102D0829601D082868280120083
:100CD400480E0401336F000E346F880EF66E560E04
:100CE400F76E000EF86E7E0EE16E020EE26E110ECD
:100CF400006E010E016EF7DE7E0E356F020E366F4A
:100D0400100E376F000E386F27EC01F02050000AE8
:100D14005FE12D0E336F000E346F990EF66E560E92
:100D2400F76E000EF86E8F0EE16E020EE26E110E7B
:100D3400006E010E016ED7DE8F0E356F020E366F18
:100D4400100E376F000E386F27EC01F0010E596E4C
:100D54002150000A1DE1480E336F000E346FAA0EB5
:100D6400F66E560EF76E000EF86EA00EE16E020ED1
:100D7400E26E110E006E010E016EB5DEA00E356F2F
:100D8400020E366F100E376F000E386F27EC01F02D
:100D94002150010A1DE1480E336F000E346FBB0E63
:100DA400F66E560EF76E000EF86EB10EE16E020E80
:100DB400E26E110E006E010E016E95DEB10E356FFE
:100DC400020E366F100E376F000E386F27EC01F0ED
:100DD4002050010A26E12D0E336F000E346FCC0E25
:100DE400F66E560EF76E000EF86EC20EE16E020E2F
:100DF400E26E110E006E010E016E75DEC20E356FCD
:100E0400020E366F100E376F000E386F27EC01F0AC
:100E1400010E596E17C127F44E0E286F000E296F6C
:100E24006ADE2050020A26E12D0E336F000E346F65
:100E3400DD0EF66E560EF76E000EF86ED30EE16EF2
:100E4400020EE26E110E006E010E016E4CDED30E28
:100E5400356F020E366F100E376F000E386F27ECA9
:100E640001F0010E596E0DC127F44E0E286F000ECD
:100E7400296F41DE2050030A26E12D0E336F000E48
:100E8400346FEE0EF66E560EF76E000EF86EE40E2C
:100E9400E16E020EE26E110E006E010E016E23DE93
:100EA400E40E356F020E366F100E376F000E386F7A
:100EB40027EC01F0010E596E0CC127F44E0E286F79
:100EC400000E296F18DE2050040A26E12D0E336F20
:100ED400000E346FFF0EF66E560EF76E000EF86EAF
:100EE400F50EE16E020EE26E110E006E010E016E41
:100EF400FADDF50E356F020E366F100E376F000EE9
:100F0400386F27EC01F0010E596E0BC127F44E0E19
:100F1400286F000E296FEFDD2050050A26E12D0E03
:100F2400336F000E346F100EF66E570EF76E000E10
:100F3400F86E060EE16E030EE26E110E006E010EE7
:100F4400016ED1DD060E356F030E366F100E376F4E
:100F5400000E386F27EC01F0010E596E0FC127F413
:100F64004E0E286F000E296FC6DD2050060A26E1BA
:100F74002D0E336F000E346F210EF66E570EF76E82
:100F8400000EF86E170EE16E030EE26E110E006E87
:100F9400010E016EA8DD170E356F030E366F100EAD
:100FA400376F000E386F27EC01F0010E596E0EC139
:100FB40027F44E0E286F000E296F9DDD2050070A7E
:100FC40026E12D0E336F000E346F320EF66E570E7F
:100FD400F76E000EF86E280EE16E030EE26E110E2F
:100FE400006E010E016E7FDD280E356F030E366F25
:100FF400100E376F000E386F27EC01F0010E596E9A
:1010040020C127F44E0E286F000E296F74DD205086
:10101400080A26E12D0E336F000E346F430EF66E70
:10102400570EF76E000EF86E390EE16E030EE26E87
:10103400110E006E010E016E56DD390E356F030E72
:10104400366F100E376F000E386F27EC01F0010E6B
:10105400596E2BC127F44E0E286F000E296F4BDDFD
:101064002050090A29E12D0E336F000E346F540EFF
:10107400F66E570EF76E000EF86E4A0EE16E030E12
:10108400E26E110E006E010E016E2DDD4A0E356FFB
:10109400030E366F100E376F000E386F27EC01F019
:1010A400010E596E61C033F44E0E346F000E356F6D
:1010B400EDEC00F0200E516E20500A0A26E12D0EB0
:1010C400336F000E346F650EF66E570EF76E000E1A
:1010D400F86E5B0EE16E030EE26E110E006E010EF1
:1010E400016E01DD5B0E356F030E366F100E376F28
:1010F400000E386F27EC01F0010E596E10C127F471
:101104004E0E286F000E296FF6DC20500B0A29E1E1
:101114002D0E336F000E346F760EF66E570EF76E8B
:10112400000EF86E6C0EE16E030EE26E110E006E90
:10113400010E016ED8DC6C0E356F030E366F100E87
:10114400376F000E386F27EC01F0010E596E2CC179
:1011540027F42DC128F44C0E296F000E2A6F43EC9E
:1011640004F020500C0A1FE12D0E336F000E346F73
:10117400870EF66E570EF76E000EF86E7D0EE16E5A
:10118400030EE26E110E006E010E016EACDC7D0EDC
:10119400356F030E366F100E376F000E386F27EC65
:1011A40001F0010E596E20500D0A66E12D0E336FC9
:1011B400000E346F980EF66E570EF76E000EF86E32
:1011C4008E0EE16E030EE26E110E006E010E016EC4
:1011D4008ADC8E0E356F030E366F100E376F000EDD
:1011E400386F27EC01F0010E596E01012F51000AEE
:1011F40021E14E0E0401336F000E346F4E0E0301D5
:101204009F6F6F0EA06F200EA16F200EA26F200E95
:10121400A36F200EA46F200EA56FA66B9F0E040172
:10122400356F030E366F070E376F000E386F27ECDD
:1012340001F022D004014E0E336F000E346F590EAC
:101244000301A76F650EA86F730EA96F200EAA6F16
:10125400200EAB6F200EAC6F200EAD6F200EAE6F64
:10126400AF6BA70E0401356F030E366F080E376F90
:10127400000E386F27EC01F020500E0A66E12D0EA7
:10128400336F000E346FBA0EF66E570EF76E000E03
:10129400F86EB00EE16E030EE26E110E006E010EDA
:1012A400016E21DCB00E356F030E366F100E376FF2
:1012B400000E386F27EC01F0010E596E0101255123
:1012C400000A21E14E0E0401336F000E346F4E0EFE
:1012D4000301C16F6F0EC26F200EC36F200EC46F67
:1012E400200EC56F200EC66F200EC76FC86BC10ECF
:1012F4000401356F030E366F070E376F000E386F1B
:1013040027EC01F022D004014E0E336F000E346F2F
:10131400590E0301C96F650ECA6F730ECB6F200E91
:10132400CC6F200ECD6F200ECE6F200ECF6F200E0F
:10133400D06FD16BC90E0401356F030E366F080EE2
:10134400376F000E386F27EC01F020500F0A67E169
:101354002D0E336F000E346FDC0EF66E570EF76EE3
:10136400000EF86ED20EE16E030EE26E110E006EE8
:10137400010E016E75EC05F0D20E356F030E366F5B
:10138400100E376F000E386F27EC01F0010E596E06
:1013940001012E51000A21E14E0E0401336F000EAB
:1013A400346F4E0E0301E36F6F0EE46F200EE56F92
:1013B400200EE66F200EE76F200EE86F200EE96F17
:1013C400EA6BE30E0401356F030E366F070E376FB9
:1013D400000E386F27EC01F022D004014E0E336F5B
:1013E400000E346F590E0301EB6F650EEC6F730E34
:1013F400ED6F200EEE6F200EEF6F200EF06F200EBB
:10140400F16F200EF26FF36BEB0E0401356F030ED8
:10141400366F080E376F000E386F27EC01F020503E
:10142400100A28E12D0E336F000E346FFE0EF66E97
:10143400570EF76E000EF86EF40EE16E030EE26EB8
:10144400110E006E010E016E75EC05F0F40E356F91
:10145400030E366F100E376F000E386F27EC01F055
:10146400010E596E2AC127F44E0E286F000E296F03
:101474007DEC05F02050110A20E12D0E336F000E93
:10148400346F0F0EF66E580EF76E000EF86E050EE2
:10149400E16E040EE26E110E006E010E016E75EC2B
:1014A40005F0050E356F040E366F100E376F000E03
:1014B400386F27EC01F0010E596E2050120A20E11A
:1014C4002D0E336F000E346F200EF66E580EF76E2D
:1014D400000EF86E160EE16E040EE26E110E006E32
:1014E400010E016E75EC05F0160E356F040E366FA5
:1014F400100E376F000E386F27EC01F0010E596E95
:06150400650E296E1200C5
:10150A00140E0101176F140E0C6F140E0D6F140ECA
:10151A000B6F050E616E040E0401336FDCEC02F0F2
:10152A000A0E01010E6F040E0F6F0A0E2B6F040EC6
:10153A00206F0C0E106F2C6B2D6B2E6B2F6B256B87
:08154A002A6BF4EC04F012001E
:1015520002017E51000A04E07F51000A01E002D03C
:10156200F28801D0F2987EC260F07FC25FF0120072
:1015720002017E51010A02E1276A82927E51020A29
:0815820002E1286A82901200C8
:10158A001CC027F41DC028F41EC029F41FC02AF469
:10159A00800E04012B6F020E2C6FE0EC03F0800E1C
:1015AA00276F020E286F8BEC04F03A0E02018B6F44
:1015BA00200E8C6F8D6B8B0E0401276F020E286F25
:1015CA005AEC05F07EC227F47FC228F45AEC05F0E3
:1015DA000A0E3A6FB0EC00F00D0E04013A6FB0EC4F
:0415EA0000F01200FB
:1015EE000201836B140E835D72E283C200F0000E63
:1015FE00016E070E046E000E056EB8EC03F0710E50
:10160E000026000E0122050E0024E96E000E0120B8
:10161E00EA6EEE50010A59E183C200F0000E016E2F
:10162E00070E046E000E056EB8EC03F0710E00246A
:10163E00E16E000E0120E26E82C2E6FF83C200F070
:10164E00000E016E070E046E000E056EB8EC03F070
:10165E00710E0026000E0122010E0024E16E000E16
:10166E000120E26E7EC2E6FF7FC2E6FF80C2E6FF89
:10167E0081C2E6FF83C200F0000E016E070E046EFB
:10168E00000E056EB8EC03F0710E0026000E01225E
:10169E00050E0024E16E000E0120E26EE66A83C2A2
:1016AE0000F0000E016E070E046E000E056EB8EC13
:1016BE0003F0710E0026000E0122060E0024E16ECC
:1016CE00000E0120E26EE66A02D0832B8BD7120049
:1016DE0002017E6B140E7E5D60E27EC200F0000E93
:1016EE00016E070E046E000E056EB8EC03F0710E5F
:1016FE000026000E0122050E0024E96E000E0120C8
:10170E00EA6EEE50000A31E17EC200F0000E016E6C
:10171E00070E046E000E056EB8EC03F0710E002479
:10172E00E96E000E0120EA6EEECF01F00150090ABB
:10173E001CE17EC200F0000E016E070E046E000E5C
:10174E00056EB8EC03F0710E0026000E0122010E9C
:10175E000024E96E000E0120EA6EEECF7FF2EECF8E
:10176E0080F2EECF81F2EECF82F27EC200F0000E5A
:10177E00016E070E046E000E056EB8EC03F0710ECE
:10178E000026000E0122050E0024E16E000E01203F
:10179E00E26E010EE66E7E2B9DD71C507F5D006EB5
:0617AE0000C07EF21200F3
:1017B400010E0401276FAAEC04F000C017F1020E19
:1017C400276FAAEC04F000C00DF1030E276FAAECFA
:1017D40004F000C00CF1040E276FAAEC04F000C062
:1017E4000BF1050E276FAAEC04F000C010F1060EF1
:1017F400276FAAEC04F000C00FF1070E276FAAECC4
:1018040004F000C00EF1080E276FAAEC04F000C02B
:1018140020F1090E276FAAEC04F000C02BF10A0E88
:10182400276FAAEC04F000C02CF1000E01012D6F0B
:101834002CC12DF12C6B0B0E0401276FAAEC04F0C4
:10184400005001012C13000E2D130C0E0401276F00
:10185400AAEC04F000C061F000500908336FDCEC1E
:1018640002F00D0E0401276FAAEC04F000C02AF167
:101874000E0E276FAAEC04F000C02EF10F0E276F96
:10188400AAEC04F000C02FF1100E276FAAEC04F0AC
:0618940000C025F1120066
:10189A0001010A917EC227F4B2EC04F00A81120017
:1018AA0083A203D083A401D003D0010E006E1200DC
:0418BA00006A1200AE
:1018BE0001014B6B4C6B4D6B050E02017E6F34ECD0
:1018CE0006F000C04BF101C04CF100C002F001C0A7
:1018DE0003F003320232039E03320232039E000EE5
:1018EE00006E0350005C02E10250A00812E24BC1F0
:1018FE0001F04CC102F002320132029E023201327C
:10190E00029E000E025C02E1B90E015C02E20101D0
:10191E004D854BC101F04CC102F002320132029EE4
:10192E0002320132029E000E006E0250005C02E195
:10193E000150640812E24BC101F04CC102F00232B8
:10194E000132029E02320132029E000E025C02E160
:10195E00A00E015C02E201014D834BC101F04CC1AE
:10196E0002F002320132029E02320132029E000E5B
:10197E00025C02E1320E015C02E201014D810101C5
:10198E004D51000A11E15C50000A04E1116B5C6AD2
:10199E004A6B126B5C50010A07E1050E5D5C04E3B5
:1019AE00116B5C6A4A6B126B4D51000A20E05C5061
:1019BE00010A1DE11151000A1AE1030E1C25016EE8
:1019CE00000E1D21026E000E1E21036E000E1F2141
:1019DE00046E1F50041808E11E50031805E11D5037
:1019EE00021802E11C50011802E1010E116F4D5157
:1019FE00000A07E05C50010A04E11151000A01E1FE
:101A0E004A6B4D51000A0BE05C50010A08E111517E
:101A1E00010A05E14D511203F3CF4AF1126B4D51FC
:101A2E00000A10E05C50000A0DE14DC14AF1010EB2
:101A3E005C6E1CC01CF11DC01DF11EC01EF11FC02E
:101A4E001FF15D6A1151010A0DE10A0E046E5BC0B1
:101A5E0000F0DEEC00F008C000F00050000A02E1D9
:0A1A6E00010E126F4AC100F01200D1
:101A780001014A6B83B601D04A8183B801D04A83F9
:061A88004AC100F012004B
:101A8E00010E236E0001FDA311D0236A226A650E9A
:101A9E00296E2050000A0AE12150000A02E1C80E08
:101AAE00296E2150010A02E1C90E296E2050000A4A
:101ABE0016E10001FDA108D02150000805E2210623
:101ACE006AEC06F0660E296E0001FDA508D0010E27
:101ADE00215C05E2212A6AEC06F0660E296E205082
:101AEE00010A18E10001FDA109D0010117510008FA
:101AFE0005E217076AEC06F0660E296E0001FDA5D9
:101B0E0009D0FF0E0101175D05E2172B6AEC06F0F6
:101B1E00660E296E2050020A18E10001FDA109D0BF
:101B2E0001010D51000805E20D076AEC06F0660E84
:101B3E00296E0001FDA509D0FF0E01010D5D05E224
:101B4E000D2B6AEC06F0660E296E2050030A18E182
:101B5E000001FDA109D001010C51000805E20C079E
:101B6E006AEC06F0660E296E0001FDA509D0FF0E87
:101B7E0001010C5D05E20C2B6AEC06F0660E296E77
:101B8E002050040A18E10001FDA109D001010B51FA
:101B9E00000805E20B076AEC06F0660E296E0001DE
:101BAE00FDA509D0FF0E01010B5D05E20B2B6AECC2
:101BBE0006F0660E296E2050050A18E10001FDA1FF
:101BCE0009D001010F51000805E20F076AEC06F07B
:101BDE00660E296E0001FDA509D0FF0E01010F5DF5
:101BEE0005E20F2B6AEC06F0660E296E2050060AEF
:101BFE0018E10001FDA109D001010E51000805E216
:101C0E000E076AEC06F0660E296E0001FDA509D0DE
:101C1E00FF0E01010E5D05E20E2B6AEC06F0660E5C
:101C2E00296E2050070A18E10001FDA109D001011B
:101C3E002051000805E220076AEC06F0660E296EB8
:101C4E000001FDA509D0FF0E0101205D05E2202B4C
:101C5E006AEC06F0660E296E2050080A18E10001A3
:101C6E00FDA109D001012B51000805E22B076AECFA
:101C7E0006F0660E296E0001FDA509D0FF0E0101CA
:101C8E002B5D05E22B2B6AEC06F0660E296E2050BA
:101C9E00090A16E10001FDA108D06150000805E215
:101CAE0061066AEC06F0660E296E0001FDA508D0ED
:101CBE00090E615C05E2612A6AEC06F0660E296E79
:101CCE0020500A0A18E10001FDA109D001011051AE
:101CDE00000805E210076AEC06F0660E296E000198
:101CEE00FDA509D0FF0E0101105D05E2102B6AEC77
:101CFE0006F0660E296E20500B0A24E10001FDA1AC
:101D0E0011D0000E006E01012D51005C02E12C512C
:101D1E00000808E2010E2C5F000E2D5B6AEC06F047
:101D2E00660E296E0001FDA50DD0FD0E01012D5D83
:101D3E0002E1E80E2C5D06E22C4B2D2B6AEC06F030
:101D4E00660E296E20500C0A46E10401296A2D0EFA
:101D5E00336F000E346F1E0EF66E5C0EF76E000EB5
:101D6E00F86E4A0EE16E010EE26E110E006E010E5D
:101D7E00016E75EC05F04A0E356F010E366F100EC2
:101D8E00376F000E386F27EC01F0480E336F000EE0
:101D9E00346F2F0EF66E5C0EF76E000EF86E5B0E45
:101DAE00E16E010EE26E110E006E010E016E75EC0B
:101DBE0005F05B0E356F010E366F100E376F000E8D
:101DCE00386F27EC01F0236A226A010E596E85ECFA
:101DDE000AF0F4EC04F020500D0A18E10001FDA108
:101DEE0009D001012F51000805E22F076AEC06F019
:101DFE00660E296E0001FDA509D0010E01012F5DB1
:101E0E0005E22F2B6AEC06F0660E296E20500E0AA4
:101E1E0018E10001FDA109D001012551000805E2DC
:101E2E0025076AEC06F0660E296E0001FDA509D0A5
:101E3E00010E0101255D05E2252B6AEC06F0660E0A
:101E4E00296E20500F0A18E10001FDA109D00101F1
:101E5E002E51000805E22E076AEC06F0660E296E7A
:101E6E000001FDA509D0010E01012E5D05E22E2B0C
:101E7E006AEC06F0660E296E2050100A21E1000170
:101E8E00FDA10DD001012A51000809E22A072A51AD
:101E9E00090A01E12A6B6AEC06F0660E296E000152
:101EAE00FDA50ED0FF0E01012A5D0AE22A2B2A5152
:101EBE00010A02E10A0E2A6F6AEC06F0660E296E1E
:101ECE002050110A42E10401670E296E2D0E336F68
:101EDE00000E346F400EF66E5C0EF76E000EF86E4E
:101EEE006C0EE16E010EE26E110E006E010E016EB1
:101EFE0075EC05F06C0E356F010E366F100E376FE8
:101F0E00000E386F27EC01F0480E336F000E346F61
:101F1E00510EF66E5C0EF76E000EF86E7D0EE16ED3
:101F2E00010EE26E110E006E010E016E75EC05F0E3
:101F3E007D0E356F010E366F100E376F000E386F37
:101F4E0027EC01F0236A010E596E2050120A43E16C
:101F5E000401296A2D0E336F000E346F620EF66E79
:101F6E005C0EF76E000EF86E8E0EE16E010EE26ED6
:101F7E00110E006E010E016E75EC05F08E0E356FB2
:101F8E00010E366F100E376F000E386F27EC01F012
:101F9E00480E336F000E346F730EF66E5C0EF76ED6
:101FAE00000EF86E9F0EE16E010EE26E110E006EC7
:101FBE00010E016E75EC05F09F0E356F010E366F3A
:101FCE00100E376F000E386F27EC01F0236A010EEA
:081FDE00596EDAEC0BF0120061
:101FE60010D0800E01014A6F1AD0C00E4A6F17D06A
:101FF600940E4A6F14D0D40E4A6F11D0800E4A6FD9
:102006000ED001014A51010AECE04A51020AEDE004
:102016004A51030AEDE04A51040AEDE0EFD74B05B9
:10202600006E4A51002600C04AF100C027F4B2EC07
:1020360004F00A914E6B4E514C25E96E000E4D216F
:10204600EA6EEE520BE04E514C25E96E000E4D2124
:10205600EA6EEECF7EF21EDC4E2BEDD70A81120021
:10206600969296949398939A939C939E8492849432
:10207600819E819C819A819865EC03F065EC03F062
:1020860065EC03F0818A818884824FEC01F08492AA
:1020960065EC03F084824FEC01F0849265EC03F06A
:1020A60084824FEC01F0849265EC03F0819884827F
:1020B6004FEC01F0849265EC03F084824FEC01F062
:1020C6008492819A818E84824FEC01F0849265EC31
:1020D60003F0819E818884824FEC01F0849281987E
:1020E60084824FEC01F0849265EC03F084824FEC1D
:1020F60001F08492818884824FEC01F0849265EC31
:1021060003F0819884824FEC01F08492818E818C59
:10211600818A818884824FEC01F0849265EC03F019
:0621260001010A81120014
:08212C00F4EC04F0296A120032
:10213400600E0101266F010E276F3A0E286F040E00
:10214400296FFF0E216FFF0E226F000E236F000E0A
:10215400246FFF0E186FFF0E196F000E1A6F000E1A
:102164001B6FFF0E136FFF0E146F000E156F000E22
:10217400166FAC8A900EAB6E948E949C9EAA03D07C
:08218400AECF00F0FBD7120002
:02218C0012003F
:10218E008284010E02017E6FBEEC05F000522BE040
:10219E00010E02017E6F7F6B52EC06F0530E0101B1
:1021AE004A6F370E4B6F200E4C6F4D0E4D6F6F0EEC
:1021BE004E6F740E4F6F6F0E506F720E516F310E59
:1021CE00526F530E536F740E546F610E556F720E25
:1021DE00566F740E576F586B4A0E02017E6F010ECA
:1021EE007F6FC5EC0AF0020E02017E6FBEEC05F0A9
:1021FE0000522BE0020E02017E6F7F6B52EC06F056
:10220E00530E0101596F370E5A6F200E5B6F4D0E34
:10221E005C6F6F0E5D6F740E5E6F6F0E5F6F720E82
:10222E00606F320E616F530E626F740E636F610ECC
:10223E00646F720E656F740E666F676B590E0201D6
:10224E007E6F010E7F6FC5EC0AF00A0E02017E6FE3
:10225E00BEEC05F000521EE0010E266E010E0201CC
:10226E007E6FDEEC05F06F0EF66E5B0EF76E000EF7
:10227E00F86E680EE16E010EE26E150E006E010E26
:10228E00016E75EC05F0680E02017E6F010E7F6F18
:10229E00C5EC0AF00B0E02017E6FBEEC05F000528B
:1022AE001EE0010E256E020E02017E6FDEEC05F0C1
:1022BE00840EF66E5B0EF76E000EF86E7D0EE16EFE
:1022CE00010EE26E150E006E010E016E75EC05F03C
:1022DE007D0E02017E6F010E7F6FC5EC0AF0050EBA
:1022EE0002017E6FBEEC05F000522DE0010E0201E0
:1022FE007E6F5FC07FF2A9EC0AF0246A530E0101D3
:10230E00926F370E936F200E946F4D0E956F310EA8
:10231E00966F200E976F530E986F700E996F650E15
:10232E009A6F650E9B6F640E9C6F200E9D6F550EFF
:10233E009E6F500E9F6FA06B920E02017E6F010E6C
:10234E007F6FC5EC0AF0060E02017E6FBEEC05F043
:10235E0000522DE060C07EF2010E02017F6FA9ECEB
:10236E000AF02B6A530E0101A16F370EA26F200ED9
:10237E00A36F4D0EA46F320EA56F200EA66F530ED7
:10238E00A76F700EA86F650EA96F650EAA6F640E0B
:10239E00AB6F200EAC6F550EAD6F500EAE6FAF6BB8
:1023AE00A10E02017E6F010E7F6FC5EC0AF0030EC7
:1023BE0002017E6FBEEC05F0005208E12650010AC4
:1023CE0004E1010102A101D001D029D01BA027D028
:1023DE001B90010E02017E6FB9EC0AF0530E010143
:1023EE00B06F370EB16F200EB26F4D0EB36F310E50
:1023FE00B46F200EB56F530EB66F740EB76F6F0EAF
:10240E00B86F700EB96F650EBA6F640EBB6FBC6B92
:10241E00B00E02017E6F010E7F6FC5EC0AF0040E46
:10242E0002017E6FBEEC05F0005208E12550010A54
:10243E0004E1010102A301D001D029D01BA227D0B3
:10244E001B92020E02017E6FB9EC0AF0530E0101CF
:10245E00BD6F370EBE6F200EBF6F4D0EC06F320EAA
:10246E00C16F200EC26F530EC36F740EC46F6F0E0A
:10247E00C56F700EC66F650EC76F640EC86FC96BE1
:10248E00BD0E02017E6F010E7F6FC5EC0AF00101D9
:10249E000D51000A01E11B9203A12AD0010E020187
:1024AE007E6FB9EC0AF0020E7E6FB9EC0AF0266A66
:1024BE00256A060E296E010E476ED10EF66E5B0E64
:1024CE00F76E000EF86ECA0EE16E010EE26E110E80
:1024DE00006E010E016E75EC05F0CA0E7E6F010ED8
:1024EE007F6FC5EC0AF0090E02017E6FEDEC05F070
:1024FE00010101A128D0010E02017E6FB9EC0AF094
:10250E00020E7E6FB9EC0AF0060E296E266A256A57
:10251E00E20EF66E5B0EF76E000EF86EDB0EE16EDF
:10252E00010EE26E120E006E010E016E75EC05F0DC
:10253E00DB0E7E6F010E7F6FC5EC0AF0090E0201F5
:10254E007E6FEDEC05F001010451010A2AE12553DD
:10255E0028E0010E02017E6FB9EC0AF0020E7E6FCA
:10256E00B9EC0AF0060E296E266A256AF40EF66E8E
:10257E005B0EF76E000EF86EED0EE16E010EE26E62
:10258E00150E006E010E016E75EC05F0ED0E7E6FF0
:10259E00010E7F6FC5EC0AF0090E02017E6FEDECA5
:1025AE0005F01B50000A08E10201010E296E2A6A8D
:1025BE00090E7E6FEDEC05F02950050A04E0295056
:1025CE00060A01E034D002017E6BEDEC05F0000E40
:1025DE0001012D1902E1000E2C1929E02C511C24A9
:1025EE0002017E6F01012D511D2002017F6F000E31
:1025FE001E20806F000E1F20816F090E826FF7EC78
:10260E000AF0090EF66E5C0EF76E000EF86E020EF4
:10261E00E16E020EE26E150E006E010E016E75EC8D
:10262E0005F0020E7E6F020E7F6FC5EC0AF01200EF
:10263E0001014A6B3FB002D04A9101D04A813EB0AF
:10264E0002D04A9301D04A833F6A3E6A83B602D0D3
:10265E00D88001D0D8904AB103D002E24A9101D07D
:10266E004A8183B802D0D88001D0D8904AB303D023
:0E267E0002E24A9301D04A834AC100F01200E2
:10268C00020E0101806F829401B109D0090E020182
:10269C007E6FBEEC05F00050010A01E088D3090EF4
:1026AC0002017E6FEDEC05F001010B51000AD8A47C
:1026BC002ED180511C24006E000E1D20016E000EC8
:1026CC001E20026E000E1F20036E00C06DF001C0B4
:1026DC006EF002C06FF003C070F000C07EF201C05B
:1026EC007FF202C080F203C081F2010E0201826F00
:1026FC00F7EC0AF001012051000A10E06DC07EF2E7
:10270C006EC07FF26FC080F270C081F2070E0201C2
:10271C00826FF7EC0AF0010E246E0ED002016DC030
:10272C007EF26EC07FF26FC080F270C081F2050E37
:10273C00826FF7EC0AF0246A010120511C24006E10
:10274C00000E1D20016E000E1E20026E000E1F20BA
:10275C00036E020E0026000E01220222032280517B
:10276C000026000E01220222032200C06DF001C0DF
:10277C006EF002C06FF003C070F000C07EF201C0BA
:10278C007FF202C080F203C081F20A0E0201826F56
:10279C00F7EC0AF0010120511C24006E000E1D20E4
:1027AC00016E000E1E20026E000E1F20036E805163
:1027BC000026000E01220222032200C06DF001C08F
:1027CC006EF002C06FF003C070F000C07EF201C06A
:1027DC007FF202C080F203C081F2050E0201826F0B
:1027EC00F7EC0AF001012B51000A2DE00C511C24CE
:1027FC00006E000E1D20016E000E1E20026E000EDB
:10280C001F20036E2B51005E000E015A025A035A10
:10281C0080510026000E01220222032200C06DF01E
:10282C0001C06EF002C06FF003C070F000C07EF209
:10283C0001C07FF202C080F203C081F2070E0201D8
:10284C00826FF7EC0AF001012E51000A38E00C51AE
:10285C001C24006E000E1D20016E000E1E20026E48
:10286C00000E1F20036E80510026000E0122022252
:10287C00032200C06DF001C06EF002C06FF003C007
:10288C0070F000C07EF201C07FF202C080F203C083
:10289C0081F2050E0201826FF7EC0AF0030E6D2433
:1028AC007E6F000E6E207F6F000E6F20806F000E0B
:1028BC007020816F030E826FF7EC0AF028D00101B3
:1028CC000C511C24006E000E1D20016E000E1E20EB
:1028DC00026E000E1F20036E80510026000E012296
:1028EC000222032200C06DF001C06EF002C06FF036
:1028FC0003C070F000C07EF201C07FF202C080F213
:10290C0003C081F2030E0201826FF7EC0AF00101A1
:10291C000B51000AD8B445D280511C24006E000E15
:10292C001D20016E000E1E20026E000E1F20036E75
:10293C0000C06DF001C06EF002C06FF003C070F00B
:10294C0000C07EF201C07FF202C080F203C081F2AF
:10295C00020E0201826FF7EC0AF001012051000A0D
:10296C0010E06DC07EF26EC07FF26FC080F270C05E
:10297C0081F2080E0201826FF7EC0AF0010E2B6E49
:10298C000ED002016DC07EF26EC07FF26FC080F27D
:10299C0070C081F2060E826FF7EC0AF02B6A01010F
:1029AC0020511C24006E000E1D20016E000E1E20F6
:1029BC00026E000E1F20036E020E0026000E012276
:1029CC000222032280510026000E01220222032241
:1029DC0000C06DF001C06EF002C06FF003C070F06B
:1029EC0000C07EF201C07FF202C080F203C081F20F
:1029FC000B0E0201826FF7EC0AF0010120511C242E
:102A0C00006E000E1D20016E000E1E20026E000EC8
:102A1C001F20036E80510026000E01220222032289
:102A2C0000C06DF001C06EF002C06FF003C070F01A
:102A3C0000C07EF201C07FF202C080F203C081F2BE
:102A4C00060E0201826FF7EC0AF001012B51000A0D
:102A5C002DE00B511C24006E000E1D20016E000E8B
:102A6C001E20026E000E1F20036E2B51005E000E06
:102A7C00015A025A035A80510026000E01220222EA
:102A8C00032200C06DF001C06EF002C06FF003C0F5
:102A9C0070F000C07EF201C07FF202C080F203C071
:102AAC0081F2080E0201826FF7EC0AF001010B5162
:102ABC001C24006E000E1D20016E000E1E20026EE6
:102ACC00000E1F20036E80510026000E01220222F0
:102ADC00032200C06DF001C06EF002C06FF003C0A5
:102AEC0070F000C07EF201C07FF202C080F203C021
:102AFC0081F2040E0201826FF7EC0AF00101105111
:102B0C001C24006E000E1D20016E000E1E20026E95
:102B1C00000E1F20036E80510026000E012202229F
:102B2C00032200C06DF001C06EF002C06FF003C054
:102B3C0070F000C07EF201C07FF202C080F203C0D0
:102B4C0081F2010E0201826FF7EC0AF001012051B3
:102B5C00000A10E06DC07EF26EC07FF26FC080F292
:102B6C0070C081F2070E0201826FF7EC0AF0010EC1
:102B7C00246E0ED002016DC07EF26EC07FF26FC06B
:102B8C0080F270C081F2050E826FF7EC0AF0246AB5
:102B9C00010110511C24006E000E1D20016E000E50
:102BAC001E20026E000E1F20036E20510026000E08
:102BBC00012202220322020E0026000E0122022212
:102BCC00032280510026000E01220222032200C0A3
:102BDC006DF001C06EF002C06FF003C070F000C069
:102BEC007EF201C07FF202C080F203C081F20A0EB5
:102BFC000201826FF7EC0AF0010110511C24006EE7
:102C0C00000E1D20016E000E1E20026E000E1F20F5
:102C1C00036E20510026000E012202220322805155
:102C2C000026000E01220222032200C06DF001C01A
:102C3C006EF002C06FF003C070F000C07EF201C0F5
:102C4C007FF202C080F203C081F2050E0201826F96
:102C5C00F7EC0AF001012B51000A33E010511C244F
:102C6C00006E000E1D20016E000E1E20026E000E66
:102C7C001F20036E0C510026000E0122022203229B
:102C8C002B51005E000E015A025A035A8051002645
:102C9C00000E01220222032200C06DF001C06EF072
:102CAC0002C06FF003C070F000C07EF201C07FF272
:102CBC0002C080F203C081F2070E0201826FF7ECB2
:102CCC000AF001012E51000A3EE00C511C24006E4A
:102CDC00000E1D20016E000E1E20026E000E1F2025
:102CEC00036E10510026000E012202220322805195
:102CFC000026000E01220222032200C06DF001C04A
:102D0C006EF002C06FF003C070F000C07EF201C024
:102D1C007FF202C080F203C081F2050E0201826FC5
:102D2C00F7EC0AF0030E6D247E6F000E6E207F6FA1
:102D3C00000E6F20806F000E7020816F030E826F6B
:102D4C00F7EC0AF02ED001010C511C24006E000E81
:102D5C001D20016E000E1E20026E000E1F20036E41
:102D6C0010510026000E012202220322805100265F
:102D7C00000E01220222032200C06DF001C06EF091
:102D8C0002C06FF003C070F000C07EF201C07FF291
:102D9C0002C080F203C081F2030E0201826FF7ECD5
:102DAC000AF0030E1B6E266A256A040E296E0101B9
:102DBC0003A125D0000E2D1902E1000E2C191FE0E5
:102DCC002A50000A1CE1010E2A6E6FEC0BF000C0B9
:102DDC001AF03A0EF66E5D0EF76E000EF86E4A0E95
:102DEC00E16E010EE26E160E006E010E016E75ECB8
:102DFC0005F04A0E7E6F010E7F6FC5EC0AF02A506B
:102E0C00010AD8A4ADD0010103B1AAD0000E2D192E
:102E1C0002E1000E2C19D8B4A3D02A51000A50E1BB
:102E2C001A501C24006E000E1D20016E000E1E2078
:102E3C00026E000E1F20036E00C06DF001C06EF01C
:102E4C0002C06FF003C070F000C07EF201C07FF2D0
:102E5C0002C080F203C081F2090E0201826FF7EC0E
:102E6C000AF02A6A6DC027F46EC028F46FC029F4EA
:102E7C0070C02AF4620E04012B6F000E2C6FE0EC74
:102E8C0003F0500EF66E5D0EF76E000EF86E600ECF
:102E9C00E16E010EE26E100E006E010E016E75EC0D
:102EAC0005F0600E02017E6F010E7F6FC5EC0AF01B
:102EBC00620E02017E6F000E7F6FC5EC0AF050D0DF
:102ECC0001012A511C24006E000E1D20016E000E03
:102EDC001E20026E000E1F20036E00C06DF001C09C
:102EEC006EF002C06FF003C070F000C07EF201C043
:102EFC007FF202C080F203C081F2090E0201826FE0
:102F0C00F7EC0AF02A6A6DC027F46EC028F46FC083
:102F1C0029F470C02AF4620E04012B6F000E2C6F82
:102F2C00E0EC03F0600EF66E5D0EF76E000EF86EC0
:102F3C00700EE16E010EE26E100E006E010E016E4F
:102F4C0075EC05F0700E02017E6F010E7F6FC5EC03
:102F5C000AF0620E02017E6F000E7F6FC5EC0AF064
:022F6C00120051
:102F6E008284010E02017E6FBEEC05F000522DE050
:102F7E00010E02017E6F010E7F6F52EC06F0530EB2
:102F8E0001014A6F380E4B6F200E4C6F4D0E4D6F78
:102F9E006F0E4E6F740E4F6F6F0E506F720E516F2D
:102FAE00310E526F530E536F740E546F610E556F78
:102FBE00720E566F740E576F586B4A0E02017E6F6B
:102FCE00010E7F6FC5EC0AF0839E020E02017E6F2A
:102FDE00BEEC05F000522DE0020E02017E6F010ED6
:102FEE007F6F52EC06F0530E0101596F380E5A6F77
:102FFE00200E5B6F4D0E5C6F6F0E5D6F740E5E6F0D
:10300E006F0E5F6F720E606F320E616F530E626FD6
:10301E00740E636F610E646F720E656F740E666F61
:10302E00676B590E02017E6F010E7F6FC5EC0AF0C1
:10303E00839E0A0E02017E6FBEEC05F000521EE06A
:10304E00010E266E010E02017E6FDEEC05F0940E6F
:10305E00F66E5A0EF76E000EF86E680EE16E010EE9
:10306E00E26E160E006E010E016E75EC05F0680E26
:10307E0002017E6F010E7F6FC5EC0AF00B0E02018E
:10308E007E6FBEEC05F000521EE0010E256E020EA4
:10309E0002017E6FDEEC05F0AA0EF66E5A0EF76E8A
:1030AE00000EF86E7E0EE16E010EE26E160E006ED2
:1030BE00010E016E75EC05F07E0E02017E6F010EA3
:1030CE007F6FC5EC0AF0050E02017E6FBEEC05F0B7
:1030DE0000522DE0010E02017E6F5FC07FF2A9EC5F
:1030EE000AF0246A530E0101946F380E956F200E6C
:1030FE00966F4D0E976F6F0E986F740E996F6F0ED1
:10310E009A6F720E9B6F310E9C6F200E9D6F460E46
:10311E009E6F610E9F6F730EA06F740EA16FA26BE8
:10312E00940E02017E6F010E7F6FC5EC0AF0060E43
:10313E0002017E6FBEEC05F000522DE060C07EF203
:10314E00010E02017F6FA9EC0AF02B6A530E0101EA
:10315E00A36F380EA46F200EA56F4D0EA66F6F0EC7
:10316E00A76F740EA86F6F0EA96F720EAA6F320E34
:10317E00AB6F200EAC6F460EAD6F610EAE6F730E61
:10318E00AF6F740EB06FB16BA30E02017E6F010EA6
:10319E007F6FC5EC0AF0030E02017E6FBEEC05F0E8
:1031AE00005208E12650010A04E1010102A101D0FA
:1031BE0001D02DD02CA02BD02C90010E02017E6FB1
:1031CE00B9EC0AF0530E0101B26F380EB36F200E38
:1031DE00B46F4D0EB56F6F0EB66F740EB76F6F0E78
:1031EE00B86F720EB96F310EBA6F200EBB6F530EE1
:1031FE00BC6F740EBD6F6F0EBE6F700EBF6FC06B67
:10320E00B20E02017E6F010E7F6FC5EC0AF0040E46
:10321E0002017E6FBEEC05F0005208E12550010A56
:10322E0004E1010102A301D001D02DD02CA22BD09C
:10323E002C92020E02017E6FB9EC0AF0530E0101C0
:10324E00C16F380EC26F200EC36F4D0EC46F6F0E5E
:10325E00C56F740EC66F6F0EC76F720EC86F320ECB
:10326E00C96F200ECA6F530ECB6F740ECC6F6F0EDC
:10327E00CD6F700ECE6FCF6BC10E02017E6F010E41
:10328E007F6FC5EC0AF00C0E02017E6FBEEC05F0EE
:10329E00005201E0838E01010D51000A01E12C92D2
:1032AE0003A12AD02F5328E0010E02017E6FB9EC44
:1032BE000AF0020E7E6FB9EC0AF0266A256A050E38
:1032CE00296EFC0EF66E5A0EF76E000EF86ED00ECC
:1032DE00E16E010EE26E110E006E010E016E75ECC6
:1032EE0005F0D00E7E6F010E7F6FC5EC0AF0090E51
:1032FE0002017E6FEDEC05F0010101A128D0010E57
:10330E0002017E6FB9EC0AF0020E7E6FB9EC0AF084
:10331E00050E296E266A256A0D0EF66E5B0EF76E89
:10332E00000EF86EE10EE16E010EE26E1A0E006EE8
:10333E00010E016E75EC05F0E10E7E6F010E7F6FD2
:10334E00C5EC0AF0090E02017E6FEDEC05F00101ED
:10335E000451010A2AE1255328E0010E02017E6F75
:10336E00B9EC0AF0020E7E6FB9EC0AF0050E296E6A
:10337E00266A256A270EF66E5B0EF76E000EF86E45
:10338E00FB0EE16E010EE26E150E006E010E016E69
:10339E0075EC05F0FB0E7E6F010E7F6FC5EC0AF02B
:1033AE00090E02017E6FEDEC05F02C50000A08E1CB
:1033BE000201020E296E2A6A090E7E6FEDEC05F0EF
:1033CE002950050A04E02950060A01E034D0020112
:1033DE007E6BEDEC05F0000E01012D1902E1000EE1
:1033EE002C1929E02C511C2402017E6F01012D5154
:1033FE001D2002017F6F000E1E20806F000E1F2009
:10340E00816F090E826FF7EC0AF03C0EF66E5B0EC2
:10341E00F76E000EF86E100EE16E020EE26E150ED5
:10342E00006E010E016E75EC05F0100E7E6F020E31
:08343E007F6FC5EC0AF01200DB
:10344600030E0101806F829401B103D0475201E15E
:103456000FD1476A8284090E02017E6FEDEC05F0FA
:10346600010E1C247E6F000E1D207F6F000E1E2095
:10347600806F000E1F20816F0C0E826FF7EC0AF032
:10348600010180511C24006E000E1D20016E000EED
:103496001E20026E000E1F20036E00C06DF001C0DC
:1034A6006EF002C06FF003C070F000C07EF201C083
:1034B6007FF202C080F203C081F2010E0201826F28
:1034C600F7EC0AF06DC07EF26EC07FF26FC080F23C
:1034D60070C081F2050E826FF7EC0AF0246A020EC4
:1034E6001C24006E000E1D20016E000E1E20026EB2
:1034F600000E1F20036E010180510026000E0122DE
:103506000222032200C06DF001C06EF002C06FF00F
:1035160003C070F000C07EF201C07FF202C080F2EC
:1035260003C081F20A0E0201826FF7EC0AF0010174
:1035360017511C24006E000E1D20016E000E1E2069
:10354600026E000E1F20036E80510026000E01221F
:103556000222032200C06DF001C06EF002C06FF0BF
:1035660003C070F000C07EF201C07FF202C080F29C
:1035760003C081F2030E0201826FF7EC0AF001012B
:103586000D51000A6EE010511C2402017E6F000EE0
:103596001D207F6F000E1E20806F000E1F20816F82
:1035A6000101805102017E27000E7F2380238123A3
:1035B600020E826FF7EC0AF0010110511C24020181
:1035C6007E6F000E1D207F6F000E1E20806F000E86
:1035D6001F20816F0101805102017E27000E7F238B
:1035E60080238123060E826FF7EC0AF02B6A010115
:1035F60010511C2402017E6F000E1D207F6F000EED
:103606001E20806F000E1F20816F020E7E27000E87
:103616007F23802381230101805102017E27000E32
:103626007F23802381230B0E826FF7EC0AF00101C2
:103636000D511C2402017E6F000E1D207F6F000EAF
:103646001E20806F000E1F20816F01018051020134
:103656007E27000E7F2380238123040E826FF7ECE2
:103666000AF0030E2C6E266A256A2A6A080E296E4F
:103676000201090E7E6FBEEC05F00050010AD8A4C7
:10368600FDD0090E02017E6FEDEC05F001018051BF
:103696001C24006E000E1D20016E000E1E20026E00
:1036A600000E1F20036E00C06DF001C06EF002C058
:1036B6006FF003C070F000C07EF201C07FF202C05E
:1036C60080F203C081F2010E0201826FF7EC0AF06C
:1036D6006DC07EF26EC07FF26FC080F270C081F264
:1036E600050E826FF7EC0AF0246A020E1C24006EA7
:1036F600000E1D20016E000E1E20026E000E1F2001
:10370600036E010180510026000E012202220322CF
:1037160000C06DF001C06EF002C06FF003C070F023
:1037260000C07EF201C07FF202C080F203C081F2C7
:103736000A0E0201826FF7EC0AF001010C511C24FB
:10374600006E000E1D20016E000E1E20026E000E81
:103756001F20036E80510026000E01220222032242
:1037660000C06DF001C06EF002C06FF003C070F0D3
:1037760000C07EF201C07FF202C080F203C081F277
:10378600030E0201826FF7EC0AF001010B51000AE9
:103796006EE010511C2402017E6F000E1D207F6F0B
:1037A600000E1E20806F000E1F20816F01018051C8
:1037B60002017E27000E7F2380238123020E826F63
:1037C600F7EC0AF0010110511C2402017E6F000E75
:1037D6001D207F6F000E1E20806F000E1F20816F40
:1037E6000101805102017E27000E7F238023812361
:1037F600060E826FF7EC0AF02B6A010110511C24A9
:1038060002017E6F000E1D207F6F000E1E20806F4E
:10381600000E1F20816F020E7E27000E7F2380235D
:1038260081230101805102017E27000E7F23802320
:1038360081230B0E826FF7EC0AF001010C511C2458
:1038460002017E6F000E1D207F6F000E1E20806F0E
:10385600000E1F20816F0101805102017E27000E9C
:103866007F2380238123040E826FF7EC0AF0030E78
:103876001B6E266A256A2A6A070E296E010103A1B4
:1038860025D0000E2D1902E1000E2C191FE02A503A
:10389600000A1CE1010E2A6E6FEC0BF000C01AF054
:1038A600030EF66E5D0EF76E000EF86E4A0EE16EB2
:1038B600010EE26E160E006E010E016E75EC05F03D
:1038C6004A0E7E6F010E7F6FC5EC0AF02A50010A80
:1038D60058E1010103B155D0000E2D1902E1000E89
:1038E6002C194FE01A501C24006E000E1D20016E8C
:1038F600000E1E20026E000E1F20036E00C06DF02B
:1039060001C06EF002C06FF003C070F000C07EF21E
:1039160001C07FF202C080F203C081F2090E0201EB
:10392600826FF7EC0AF02A6A6DC027F46EC028F49D
:103936006FC029F470C02AF4620E04012B6F000ECA
:103946002C6FE0EC03F0190EF66E5D0EF76E000EAE
:10395600F86E600EE16E010EE26E100E006E010E44
:10396600016E75EC05F0600E02017E6F010E7F6F31
:10397600C5EC0AF0620E02017E6F000E7F6FC5EC89
:043986000AF0120031
:10398A008284010E02017E6FBEEC05F000522DE02A
:10399A00010E02017E6F010E7F6F52EC06F0530E8C
:1039AA0001014A6F330E4B6F200E4C6F4D0E4D6F57
:1039BA006F0E4E6F740E4F6F6F0E506F720E516F07
:1039CA00310E526F530E536F740E546F610E556F52
:1039DA00720E566F740E576F586B4A0E02017E6F45
:1039EA00010E7F6FC5EC0AF0839E020E02017E6F04
:1039FA00BEEC05F000522DE0020E02017E6F010EB0
:103A0A007F6F52EC06F0530E0101596F330E5A6F55
:103A1A00200E5B6F4D0E5C6F6F0E5D6F740E5E6FE6
:103A2A006F0E5F6F720E606F320E616F530E626FB0
:103A3A00740E636F610E646F720E656F740E666F3B
:103A4A00676B590E02017E6F010E7F6FC5EC0AF09B
:103A5A00839E050E02017E6FBEEC05F000522EE039
:103A6A00010E02017E6F5FC07FF2A9EC0AF0266A9E
:103A7A00246A530E0101686F330E696F200E6A6F54
:103A8A004D0E6B6F6F0E6C6F740E6D6F6F0E6E6FE7
:103A9A00720E6F6F310E706F200E716F460E726F5D
:103AAA00610E736F730E746F740E756F766B680E9A
:103ABA0002017E6F010E7F6FC5EC0AF0070E02014C
:103ACA007E6FBEEC05F000522DE002017E6B5FC0F6
:103ADA007FF2A9EC0AF0010E246E530E0101776FF2
:103AEA00330E786F200E796F4D0E7A6F6F0E7B6FE3
:103AFA00740E7C6F6F0E7D6F720E7E6F310E7F6F4C
:103B0A00200E806F530E816F6C0E826F6F0E836F63
:103B1A00770E846F856B770E02017E6F010E7F6FC1
:103B2A00C5EC0AF0060E02017E6FBEEC05F00052EB
:103B3A002EE060C07EF2010E02017F6FA9EC0AF04E
:103B4A00256A2B6A530E0101866F330E876F200E8A
:103B5A00886F4D0E896F6F0E8A6F740E8B6F6F0EA2
:103B6A008C6F720E8D6F320E8E6F200E8F6F460E17
:103B7A00906F610E916F730E926F740E936F946BC8
:103B8A00860E02017E6F010E7F6FC5EC0AF0080EE9
:103B9A0002017E6FBEEC05F000522DE060C07EF29D
:103BAA0002017F6BA9EC0AF0010E2B6E530E010184
:103BBA00956F330E966F200E976F4D0E986F6F0E9E
:103BCA00996F740E9A6F6F0E9B6F720E9C6F320E06
:103BDA009D6F200E9E6F530E9F6F6C0EA06F6F0E1F
:103BEA00A16F770EA26FA36B950E02017E6F010E75
:103BFA007F6FC5EC0AF00A0E02017E6FBEEC05F07B
:103C0A0000521EE0010E266E010E02017E6FDEECEE
:103C1A0005F08B0EF66E580EF76E000EF86EA40EB7
:103C2A00E16E010EE26E160E006E010E016E75EC6B
:103C3A0005F0A40E02017E6F010E7F6FC5EC0AF03B
:103C4A000B0E02017E6FBEEC05F000521EE0010E63
:103C5A00256E020E02017E6FDEEC05F0A10EF66EF5
:103C6A00580EF76E000EF86EBA0EE16E010EE26E95
:103C7A00160E006E010E016E75EC05F0BA0E020109
:103C8A007E6F010E7F6FC5EC0AF0030E02017E6F94
:103C9A00BEEC05F000522BE02C90010E02017E6F63
:103CAA00B9EC0AF0530E0101D06F330ED16F200E1A
:103CBA00D26F4D0ED36F6F0ED46F740ED56F6F0E19
:103CCA00D66F720ED76F310ED86F200ED96F530E82
:103CDA00DA6F740EDB6F6F0EDC6F700EDD6FDE6BEA
:103CEA00D00E02017E6F010E7F6FC5EC0AF0040E42
:103CFA0002017E6FBEEC05F000522BE02C92020E00
:103D0A0002017E6FB9EC0AF0530E0101DF6F330E28
:103D1A00E06F200EE16F4D0EE26F6F0EE36F740ECF
:103D2A00E46F6F0EE56F720EE66F320EE76F200ECC
:103D3A00E86F530EE96F740EEA6F6F0EEB6F700E39
:103D4A00EC6FED6BDF0E02017E6F010E7F6FC5EC2B
:103D5A000AF00C0E02017E6FBEEC05F0005201E083
:103D6A00838E2650010A2EE1010102A12BD0245094
:103D7A00000A28E1010E02017E6FB9EC0AF0020E78
:103D8A007E6FB9EC0AF0050E296E266A256AD50EF1
:103D9A00F66E580EF76E000EF86EEE0EE16E010E1C
:103DAA00E26E140E006E010E016E75EC05F0EE0E59
:103DBA007E6F010E7F6FC5EC0AF0090E02017E6F5D
:103DCA00EDEC05F02550010A2EE1010102A32BD0EA
:103DDA002B50000A28E1010E02017E6FB9EC0AF0AD
:103DEA00020E7E6FB9EC0AF0050E296E266A256A64
:103DFA00E90EF66E580EF76E000EF86E020EE16EC0
:103E0A00020EE26E140E006E010E016E75EC05F0E4
:103E1A00020E7E6F020E7F6FC5EC0AF0090E0201D8
:103E2A007E6FEDEC05F001010D51000A01E12C92C3
:103E3A0003A12AD02F5328E0010E02017E6FB9ECAC
:103E4A000AF0020E7E6FB9EC0AF0266A256A050EA0
:103E5A00296EFD0EF66E580EF76E000EF86E160EEF
:103E6A00E16E020EE26E110E006E010E016E75EC2D
:103E7A0005F0160E7E6F020E7F6FC5EC0AF0090E72
:103E8A0002017E6FEDEC05F0010101A128D0010EBF
:103E9A0002017E6FB9EC0AF0020E7E6FB9EC0AF0ED
:103EAA00266A256A050E296E0E0EF66E590EF76EF3
:103EBA00000EF86E270EE16E020EE26E110E006E13
:103ECA00010E016E75EC05F0270E7E6F020E7F6FF4
:103EDA00C5EC0AF0090E02017E6FEDEC05F0010156
:103EEA000451010A2AE1255328E0010E02017E6FDE
:103EFA00B9EC0AF0020E7E6FB9EC0AF0266A256A5E
:103F0A00050E296E1F0EF66E590EF76E000EF86E2C
:103F1A00380EE16E020EE26E170E006E010E016E91
:103F2A0075EC05F0380E7E6F020E7F6FC5EC0AF055
:103F3A00090E02017E6FEDEC05F0010101A128D006
:103F4A00010E02017E6FB9EC0AF0020E7E6FB9EC27
:103F5A000AF0050E296E266A256A360EF66E590E85
:103F6A00F76E000EF86E4F0EE16E020EE26E1A0E3A
:103F7A00006E010E016E75EC05F04F0E7E6F020E9B
:103F8A007F6FC5EC0AF0090E02017E6FEDEC05F0B9
:103F9A002C50000A08E10201020E296E2A6A090E53
:103FAA007E6FEDEC05F02950050A04E02950060A57
:103FBA0001E034D002017E6BEDEC05F0000E010148
:103FCA002D1902E1000E2C1929E02C511C240201A2
:103FDA007E6F01012D511D2002017F6F000E1E20F0
:103FEA00806F000E1F20816F090E826FF7EC0AF0B6
:103FFA00500EF66E590EF76E000EF86E690EE16EEF
:10400A00020EE26E150E006E010E016E75EC05F0E1
:0E401A00690E7E6F020E7F6FC5EC0AF0120079
:104028008284FEC033F42D0E0401346F000E356F08
:10403800EDEC00F0FFC033F4480E346F000E356F1E
:10404800EDEC00F0010E596E010E02017E6FBEEC20
:1040580005F000522BE0010E02017E6F7F6B52ECDF
:1040680006F0530E01014A6F340E4B6F200E4C6F51
:104078004D0E4D6F6F0E4E6F740E4F6F6F0E506F6B
:10408800720E516F310E526F530E536F740E546F80
:10409800610E556F720E566F740E576F586B4A0E3D
:1040A80002017E6F010E7F6FC5EC0AF0020E02015D
:1040B8007E6FBEEC05F000522BE0020E02017E6F0F
:1040C8007F6B52EC06F0530E0101596F340E5A6F94
:1040D800200E5B6F4D0E5C6F6F0E5D6F740E5E6F22
:1040E8006F0E5F6F720E606F320E616F530E626FEC
:1040F800740E636F610E646F720E656F740E666F77
:10410800676B590E02017E6F010E7F6FC5EC0AF0D6
:104118000A0E02017E6FBEEC05F000521EE0010E91
:10412800266E010E02017E6FDEEC05F0830EF66E40
:10413800590EF76E000EF86E680EE16E010EE26E13
:10414800150E006E010E016E75EC05F0680E020189
:104158007E6F010E7F6FC5EC0AF00B0E02017E6FB9
:10416800BEEC05F000521EE0010E256E020E0201A3
:104178007E6FDEEC05F0980EF66E590EF76E000EA7
:10418800F86E7D0EE16E010EE26E150E006E010EE8
:10419800016E75EC05F07D0E02017E6F010E7F6FDA
:1041A800C5EC0AF0050E02017E6FBEEC05F0005268
:1041B8002EE0010E02017E6F5FC07FF2A9EC0AF0CB
:1041C800266A246A530E0101926F340E936F200EF3
:1041D800946F4D0E956F310E966F200E976F530E9C
:1041E800986F700E996F650E9A6F650E9B6F640ECF
:1041F8009C6F200E9D6F550E9E6F500E9F6FA06B8B
:10420800920E02017E6F010E7F6FC5EC0AF0070E59
:1042180002017E6FBEEC05F000521FE002017E6BCA
:104228005FC07FF2A9EC0AF0256A010E246EBC0E6D
:10423800F66E590EF76E000EF86EA10EE16E010EC5
:10424800E26E110E006E010E016E75EC05F0A10E06
:104258007E6F010E7F6FC5EC0AF0060E02017E6FBD
:10426800BEEC05F000522DE060C07EF2010E0201A6
:104278007F6FA9EC0AF02B6A530E0101B26F340E5E
:10428800B36F200EB46F4D0EB56F320EB66F200EA1
:10429800B76F530EB86F700EB96F650EBA6F650EB3
:1042A800BB6F640EBC6F200EBD6F550EBE6F500EF7
:1042B800BF6FC06BB20E02017E6F010E7F6FC5EC3F
:1042C8000AF0080E02017E6FBEEC05F000521EE0F7
:1042D80060C07EF202017F6BA9EC0AF0010E2B6E22
:1042E800DC0EF66E590EF76E000EF86EC10EE16E1A
:1042F800010EE26E110E006E010E016E75EC05F0F6
:10430800C10E7E6F010E7F6FC5EC0AF0030E02012D
:104318007E6FBEEC05F0005227E01B90010E0201F3
:104328007E6FB9EC0AF0530E0101D26F340ED36FD1
:10433800200ED46F4D0ED56F310ED66F200ED76F6D
:10434800530ED86F740ED96F6F0EDA6F700EDB6F65
:10435800650EDC6F640EDD6FDE6BD20E02017E6FC0
:10436800010E7F6FC5EC0AF0040E02017E6FBEECF1
:1043780005F0005227E01B92020E02017E6FB9EC95
:104388000AF0530E0101DF6F340EE06F200EE16F6B
:104398004D0EE26F320EE36F200EE46F530EE56FA1
:1043A800740EE66F6F0EE76F700EE86F650EE96FBB
:1043B800640EEA6FEB6BDF0E02017E6F010E7F6FFA
:1043C800C5EC0AF02650010A2EE1010102A12BD00A
:1043D8002450000A28E1010E02017E6FB9EC0AF0B0
:1043E800020E7E6FB9EC0AF0060E296E266A256A5F
:1043F800070EF66E5A0EF76E000EF86EEC0EE16EB2
:10440800010EE26E110E006E010E016E75EC05F0E4
:10441800EC0E7E6F010E7F6FC5EC0AF0090E0201EB
:104428007E6FEDEC05F02550010A2EE1010102A393
:104438002BD02B50000A28E1010E02017E6FB9EC47
:104448000AF0020E7E6FB9EC0AF0060E296E266A93
:10445800256A180EF66E5A0EF76E000EF86EFD0EEF
:10446800E16E010EE26E110E006E010E016E75EC2A
:1044780005F0FD0E7E6F010E7F6FC5EC0AF0090E88
:1044880002017E6FEDEC05F001010D51000A01E11A
:104498001B9203A12AD0010E02017E6FB9EC0AF02B
:1044A800020E7E6FB9EC0AF0266A256A060E296E9E
:1044B800010E476E290EF66E5A0EF76E000EF86E54
:1044C8000E0EE16E020EE26E110E006E010E016E0E
:1044D80075EC05F00E0E7E6F020E7F6FC5EC0AF0CC
:1044E800090E02017E6FEDEC05F001010451010A8D
:1044F8002AE1255328E0010E02017E6FB9EC0AF08B
:10450800020E7E6FB9EC0AF0060E296E266A256A3D
:104518003A0EF66E5A0EF76E000EF86E1F0EE16E2A
:10452800020EE26E150E006E010E016E75EC05F0BE
:104538001F0E7E6F020E7F6FC5EC0AF0090E020196
:104548007E6FEDEC05F0010101A128D0010E0201FA
:104558007E6FB9EC0AF0020E7E6FB9EC0AF0060E17
:10456800296E266A256A4F0EF66E5A0EF76E000EF1
:10457800F86E340EE16E020EE26E120E006E010E3F
:10458800016E75EC05F0340E7E6F020E7F6FC5EC80
:104598000AF0090E02017E6FEDEC05F01B50000ACF
:1045A80008E10201010E296E2A6A090E7E6FEDEC00
:1045B80005F02950050A04E02950060A01E034D024
:1045C80002017E6BEDEC05F0000E01012D1902E1F0
:1045D800000E2C1929E02C511C2402017E6F0101C8
:1045E8002D511D2002017F6F000E1E20806F000ECE
:1045F8001F20816F090E826FF7EC0AF0610EF66ECC
:104608005A0EF76E000EF86E460EE16E020EE26E5E
:10461800150E006E010E016E75EC05F0460E7E6FEC
:0A462800020E7F6FC5EC0AF01200CD
:10463200020E0101806F829401B109D0090E0201BC
:104642007E6FBEEC05F00050010A01E0BFD101010E
:104652000B51000AD8A484D0090E02017E6FEDEC42
:1046620005F0010180511C24006E000E1D20016E18
:10467200000E1E20026E000E1F20036E00C06DF0A1
:1046820001C06EF002C06FF003C070F000C07EF295
:1046920001C07FF202C080F203C081F2010E02016A
:1046A200826FF7EC0AF06DC07EF26EC07FF26FC0CF
:1046B20080F270C081F2050E826FF7EC0AF0246A74
:1046C200020E1C24006E000E1D20016E000E1E2024
:1046D200026E000E1F20036E010180510026000EA3
:1046E20001220222032200C06DF001C06EF002C05E
:1046F2006FF003C070F000C07EF201C07FF202C012
:1047020080F203C081F20A0E0201826FF7EC0AF016
:1047120001010C511C24006E000E1D20016E000EC2
:104722001E20026E000E1F20036E80510026000E16
:1047320001220222032200C06DF001C06EF002C00D
:104742006FF003C070F000C07EF201C07FF202C0C1
:1047520080F203C081F2030E0201826FF7EC0AF0CD
:1047620001010B51000AD8B42BD1090E02017E6F50
:10477200EDEC05F0010180511C24006E000E1D209D
:10478200016E000E1E20026E000E1F20036E00C07E
:104792006DF001C06EF002C06FF003C070F000C097
:1047A2007EF201C07FF202C080F203C081F2020EEB
:1047B2000201826FF7EC0AF06DC07EF26EC07FF2EA
:1047C2006FC080F270C081F2060E826FF7EC0AF0C1
:1047D200246A020E1C24006E000E1D20016E000EC3
:1047E2001E20026E000E1F20036E01018051002662
:1047F200000E01220222032200C06DF001C06EF001
:1048020002C06FF003C070F000C07EF201C07FF200
:1048120002C080F203C081F20B0E0201826FF7EC3C
:104822000AF001010C511C24006E000E1D20016EC5
:10483200000E1E20026E000E1F20036E8051002605
:10484200000E01220222032200C06DF001C06EF0B0
:1048520002C06FF003C070F000C07EF201C07FF2B0
:1048620002C080F203C081F2040E0201826FF7ECF3
:104872000AF0010110511C24006E000E1D20016E71
:10488200000E1E20026E000E1F20036E80510026B5
:10489200000E01220222032200C06DF001C06EF060
:1048A20002C06FF003C070F000C07EF201C07FF260
:1048B20002C080F203C081F2010E0201826FF7ECA6
:1048C2000AF0010110511C24006E000E1D20016E21
:1048D200000E1E20026E000E1F20036E8051002665
:1048E200000E01220222032200C06DF001C06EF010
:1048F20002C06FF003C070F000C07EF201C07FF210
:1049020002C080F203C081F2050E0201826FF7EC51
:104912000AF02B6A010110511C24006E000E1D20AA
:10492200016E000E1E20026E000E1F20036E020E8C
:104932000026000E01220222032280510026000ED0
:1049420001220222032200C06DF001C06EF002C0FB
:104952006FF003C070F000C07EF201C07FF202C0AF
:1049620080F203C081F20A0E0201826FF7EC0AF0B4
:1049720001010B511C24006E000E1D20016E000E61
:104982001E20026E000E1F20036E80510026000EB4
:1049920001220222032200C06DF001C06EF002C0AB
:1049A2006FF003C070F000C07EF201C07FF202C05F
:1049B20080F203C081F2030E0201826FF7EC0AF06B
:1049C200030E1B6E266A256A070E296E010103A1DA
:1049D20025D0000E2D1902E1000E2C191FE02A50DD
:1049E200000A1CE1010E2A6E6FEC0BF000C01AF0F7
:1049F200CC0EF66E5C0EF76E000EF86E4A0EE16E8D
:104A0200010EE26E160E006E010E016E75EC05F0DF
:104A12004A0E7E6F010E7F6FC5EC0AF02A50010A22
:104A220058E1010103B155D0000E2D1902E1000E2B
:104A32002C194FE01A501C24006E000E1D20016E2E
:104A4200000E1E20026E000E1F20036E00C06DF0CD
:104A520001C06EF002C06FF003C070F000C07EF2C1
:104A620001C07FF202C080F203C081F2090E02018E
:104A7200826FF7EC0AF02A6A6DC027F46EC028F440
:104A82006FC029F470C02AF4620E04012B6F000E6D
:104A92002C6FE0EC03F0E20EF66E5C0EF76E000E89
:104AA200F86E600EE16E010EE26E100E006E010EE7
:104AB200016E75EC05F0600E02017E6F010E7F6FD4
:104AC200C5EC0AF0620E02017E6F000E7F6FC5EC2C
:044AD2000AF01200D4
:104AD6008284010E02017E6F7F6B52EC06F0020E9D
:104AE6007E6F7F6B52EC06F0010101A10CD082941F
:104AF600010E02017E6FB9EC0AF0020E7E6FB9EC70
:084B06000AF0010E296E1200F5
:104B0E000001FDA109D02050000A03E1120E206E13
:104B1E0001D02006640E296E0001FDA508D020509C
:104B2E00120A02E1206A01D0202A640E296E0001C9
:0A4B3E00FDA302D0660E296E1200DE
:104B4800030E01014A6F82940001FD51020A03E13C
:104B5800640E296E206A010101A302D00A0E296E93
:104B680001A188D2090E02017E6FEDEC05F0828466
:104B7800010E1C247E6F000E1D207F6F000E1E206C
:104B8800806F000E1F20816F0C0E826FF7EC0AF009
:104B980001014A511C24006E000E1D20016E000EFA
:104BA8001E20026E000E1F20036E00C06DF001C0B3
:104BB8006EF002C06FF003C070F000C07EF201C05A
:104BC8007FF202C080F203C081F2010E0201826FFF
:104BD800F7EC0AF001010F51000A10E06DC07EF2F7
:104BE8006EC07FF26FC080F270C081F2070E0201C2
:104BF800826FF7EC0AF0010E246E0ED002016DC030
:104C08007EF26EC07FF26FC080F270C081F2050E36
:104C1800826FF7EC0AF0246A01010F511C24006E20
:104C2800000E1D20016E000E1E20026E000E1F20B9
:104C3800036E020E0026000E0122022203224A51B0
:104C48000026000E01220222032200C06DF001C0DE
:104C58006EF002C06FF003C070F000C07EF201C0B9
:104C68007FF202C080F203C081F20A0E0201826F55
:104C7800F7EC0AF001010F511C24006E000E1D20F4
:104C8800016E000E1E20026E000E1F20036E4A5198
:104C98000026000E01220222032200C06DF001C08E
:104CA8006EF002C06FF003C070F000C07EF201C069
:104CB8007FF202C080F203C081F2050E0201826F0A
:104CC800F7EC0AF001010E51000A2DE017511C24DF
:104CD800006E000E1D20016E000E1E20026E000EDA
:104CE8001F20036E0E51005E000E015A025A035A2D
:104CF8004A510026000E01220222032200C06DF054
:104D080001C06EF002C06FF003C070F000C07EF208
:104D180001C07FF202C080F203C081F2070E0201D7
:104D2800826FF7EC0AF0010117511C24006E000E87
:104D38001D20016E000E1E20026E000E1F20036E45
:104D48004A510026000E01220222032200C06DF003
:104D580001C06EF002C06FF003C070F000C07EF2B8
:104D680001C07FF202C080F203C081F2030E02018B
:104D7800826FF7EC0AF001010D51000AD8B445D151
:104D880010511C24006E000E1D20016E000E1E2006
:104D9800026E000E1F20036E4A510026000E0122EB
:104DA8000222032200C06DF001C06EF002C06FF055
:104DB80003C070F000C07EF201C07FF202C080F232
:104DC80003C081F2020E0201826FF7EC0AF00101C2
:104DD8000F51000A2AE010511C24006E000E1D20FD
:104DE800016E000E1E20026E000E1F20036E4A5137
:104DF8000026000E01220222032200C06DF001C02D
:104E08006EF002C06FF003C070F000C07EF201C007
:104E18007FF202C080F203C081F2080E0201826FA5
:104E2800F7EC0AF0010E2B6E29D0010110511C2459
:104E3800006E000E1D20016E000E1E20026E000E78
:104E48001F20036E4A510026000E0122022203226F
:104E580000C06DF001C06EF002C06FF003C070F0CA
:104E680000C07EF201C07FF202C080F203C081F26E
:104E7800060E0201826FF7EC0AF02B6A010110514D
:104E88001C24006E000E1D20016E000E1E20026EF6
:104E9800000E1F20036E0F510026000E0122022271
:104EA8000322020E0026000E0122022203224A518A
:104EB8000026000E01220222032200C06DF001C06C
:104EC8006EF002C06FF003C070F000C07EF201C047
:104ED8007FF202C080F203C081F20B0E0201826FE2
:104EE800F7EC0AF0010110511C24006E000E1D2081
:104EF800016E000E1E20026E000E1F20036E0F5161
:104F08000026000E0122022203224A510026000E2A
:104F180001220222032200C06DF001C06EF002C01F
:104F28006FF003C070F000C07EF201C07FF202C0D3
:104F380080F203C081F2060E0201826FF7EC0AF0DC
:104F480001010E51000A33E010511C24006E000EBE
:104F58001D20016E000E1E20026E000E1F20036E23
:104F68000D510026000E0122022203220E51005E7E
:104F7800000E015A025A035A4A510026000E012215
:104F88000222032200C06DF001C06EF002C06FF073
:104F980003C070F000C07EF201C07FF202C080F250
:104FA80003C081F2080E0201826FF7EC0AF00101DA
:104FB8000D511C24006E000E1D20016E000E1E20D7
:104FC800026E000E1F20036E10510026000E0122F3
:104FD800022203224A510026000E01220222032245
:104FE80000C06DF001C06EF002C06FF003C070F039
:104FF80000C07EF201C07FF202C080F203C081F2DD
:10500800040E0201826FF7EC0AF0000E01012D195F
:1050180002E1000E2C1927E02C511C24006E2D51A2
:105028001D20016E000E1E20026E000E1F20036E52
:105038004A510026000E01220222032200C06DF010
:1050480001C06EF002C06FF003C070F000C07EF2C5
:1050580001C07FF202C080F203C081F2090E020192
:10506800826FF7EC0AF0030E2C6E266A256A030E8F
:06507800296E2A6A1200F5
:10507E0001014E6B02017E6B34EC06F000C04AF16A
:10508E0001C04BF1010E02017E6F34EC06F000C040
:10509E004CF101C04DF16050000A11E001010951BF
:1050AE004B5D02E108514A5D05E2FF0E455C01E2EF
:1050BE00452A04D04550000801E2450601D0456A54
:1050CE0001014550075D01E24E815F50000A10E07C
:1050DE0009514D5D02E108514C5D05E2FF0E465C43
:1050EE0001E2462A04D04650000801E2460601D0ED
:1050FE00466A01014650075D01E24E834EC100F043
:02510E0012008D
:1051100083B005D04450140801E3442A01D0446A06
:10512000140E445C03E3010E006E1200006A1200CC
:105130005950010A16E1010E01014A6F010E4B6F31
:105140002D0E4C6F000E4D6FF3EC0FF0020E4A6FF8
:10515000010E4B6F480E4C6F000E4D6FF3EC0FF0CD
:10516000596A235229E022521CE00101020E4A6FC3
:10517000010E4B6F710EF66E5D0EF76E000EF86E3F
:105180003A0EE16E010EE26E100E006E010E016E1F
:1051900075EC05F03A0E4C6F010E4D6FF3EC0FF00D
:1051A0000BD00101020E4A6F010E4B6F480E4C6F7F
:0A51B000000E4D6FF3EC0FF012003B
:1051BA0001013A6B806A816A826A836A846A3F0E55
:1051CA00926E070E936E800E946E7F0E956E010E90
:1051DA00966E090EC16E33EC10F00C0E0401276FA7
:1051EA00B2EC04F01C6A1D6A1E6A1F6A850ED56E2F
:1051FA00F28EF28AF294F30ED76ECA0ED66EF08C45
:10520A00F086F090F08EF088F092F18AF188F292AE
:10521A00F2983A6B140E3A5D18E23AC100F0000EA9
:10522A00016E070E046E000E056EB8EC03F0710EE7
:10523A000026000E0122050E0024E16E000E012058
:10524A00E26E010EE66E3A2BE5D70001FD6BFE6BAE
:10525A00FF6B0101006B016B026B036B296A150E70
:0E526A00AF6EAC849AEC10F0DAEC0BF0120090
:105278002CD066DC5AD064DC58D046EC13F055D0FC
:10528800C5EC1CF052D014EC20F04FD019EC23F0F0
:105298004CD023EC1AF049D0C7EC10F046D0B7EC4C
:1052A80017F043D014DC41D06AEC06F03ED02BDC7A
:1052B8003CD047EC0DF039D096EC10F036D003EC2A
:1052C80000F033D0C6EC10F030D02950000AD1E0FD
:1052D8002950010AD0E02950020ACFE02950030AD8
:1052E800CFE02950040ACFE02950050ACFE0295021
:1052F800060ACFE02950070ACFE02950080ACFE074
:1053080029500A0ACFE02950640ACEE02950650ADC
:10531800CEE02950660ACDE02950670ACDE0295031
:0C532800C80ACDE02950C90ACDE01200EF
:1053340001013A6B3A6B140E3A5D6FE23AC100F028
:10534400000E016E070E046E000E056EB8EC03F03D
:10535400710E0026000E0122050E0024E96E000ED7
:105364000120EA6EEE50000A55E13AC100F0000E49
:10537400016E070E046E000E056EB8EC03F0710E9C
:105384000026000E0122010E0024E96E000E012009
:10539400EA6EEECF01F0EECF02F0EECF03F0EECFE7
:1053A40004F004501F1808E103501E1805E10250D0
:1053B4001D1802E101501C182DE13AC100F0000E45
:1053C400016E070E046E000E056EB8EC03F0710E4C
:1053D4000026000E0122060E0024E96E000E0120B4
:1053E400EA6EEE50000A16E13AC100F0000E016EBA
:1053F400070E046E000E056EB8EC03F0710E002665
:10540400000E0122060E0024E16E000E0120E26E61
:0C541400010EE66E01013A2B8ED712004B
:105420003CEC0DF000C005F155EC0CF000C004F1AF
:105430005FEC0CF000C0FDF01FEC13F000C001F1B8
:105440001EDE00C002F164DE00C003F101013A6B10
:10545000140E3A5DD8B0DFD03AC100F0000E016EF4
:10546000070E046E000E056EB8EC03F0710E0026F8
:10547000000E0122050E0024E96E000E0120EA6EE6
:10548000EE50000AD8A4C4D03AC100F0000E016E5C
:10549000070E046E000E056EB8EC03F0710E0026C8
:1054A000000E0122060E0024E96E000E0120EA6EB5
:1054B000EE50010AD8A4ACD00001FE51000A36E13A
:1054C0003AC100F0000E016E070E046E000E056E6C
:1054D000B8EC03F0710E0024026E000E0120036E82
:1054E00002C0E9FF03C0EAFFEECF00F000C0FEF00B
:1054F000050E0224E16E000E0320E26E010EE66E40
:105500003AC100F0000E016E070E046E000E056E2B
:10551000B8EC03F0710E0026000E0122060E0024E6
:10552000E16E000E0120E26EE66A72D0FF51000AC1
:1055300036E13AC100F0000E016E070E046E000E57
:10554000056EB8EC03F0710E0024026E000E01200F
:10555000036E02C0E9FF03C0EAFFEECF00F000C017
:10556000FFF0050E0224E16E000E0320E26E010E34
:10557000E66E3AC100F0000E016E070E046E000EDA
:10558000056EB8EC03F0710E0026000E0122060E27
:105590000024E16E000E0120E26EE66A39D00101BE
:1055A0000051000A35E13AC100F0000E016E070E0D
:1055B000046E000E056EB8EC03F0710E0024026E4E
:1055C000000E0120036E02C0E9FF03C0EAFFEECF28
:1055D00000F000C000F1050E0224E16E000E032071
:1055E000E26E010EE66E3AC100F0000E016E070E8B
:1055F000046E000E056EB8EC03F0710E0026000E6E
:105600000122060E0024E16E000E0120E26EE66A21
:0856100001013A2B1DD7120025
:0C5618000001FE6BFF6B0101006B120033
:10562400C1EC2EF0828AC7DD530E0101306F740E77
:10563400316F610E326F720E336F740E346F200E41
:10564400356F2E0E366F2E0E376F2E0E386F396B68
:10565400300E02017E6F010E7F6FC5EC0AF04350DD
:10566400010A06E1050E5D5C01E25D2A5FDD436A25
:105674004250010A03E1CEDF5BDE426ACFDEFADD8F
:04568400EED7FFD787
:105D820010EE1AF0480E006E010E016E840EF66ED1
:0E5D92005C0EF76E000EF86E75EC05F0120058
:105688002020202020202020202020202020202012
:015698000011
:105699003030204C6561726E696E67204D6F6465AC
:0156A9000000
:1056AA002020202020204175746F202020202020D7
:0156BA0000EF
:1056BB0020202020204D616E75616C202020202041
:0156CB0000DE
:1056CC003031204431204F70656E2054696D652057
:0156DC0000CD
:1056DD003032204432204F70656E2054696D652044
:0156ED0000BC
:1056EE00303320443120436C6F73652054696D65EF
:0156FE0000AB
:1056FF00303420443220436C6F73652054696D65DC
:01570F000099
:105710003035204F7020536F66742053746172745B
:015720000088
:105721003036204F7020536F66742053746F702091
:015731000077
:10573200303720436C20536F667420537461727447
:015742000066
:10574300303820436C20536F66742053746F70207D
:015753000055
:10575400303920506F7765722020202020202020AF
:015764000044
:10576500313020496E74657276616C2054696D65BF
:015775000033
:105776003131204175746F2D636C6F736520542031
:015786000022
:10578700313220466163746F727920526573657494
:015797000011
:105798003133204F70656E2050686F746F20456EEE
:0157A8000000
:0857A9004E6F2020202020009B
:0957B1005965732020202020001E
:1057BA003134204C696D697420456E61626C6520D4
:0157CA0000DE
:0857CB004E6F20202020200079
:0957D300596573202020202000FC
:1057DC003135204C6F636B20466F7263652020203F
:0157EC0000BC
:0857ED004E6F20202020200057
:0957F500596573202020202000DA
:1057FE0031362041752D436C20506173732020206B
:01580E000099
:10580F0031372053617665204368616E6765732079
:01581F000088
:10582000313820446973636172642045786974205B
:015830000077
:0F5831005333204D6F746F723153746172740072
:0F5840005333204D6F746F723253746172740062
:0F584F005333204D6F746F7231204661737400B4
:0F585E005333204D6F746F723120536C6F77008E
:0F586D005333204D6F746F723220466173740095
:0F587C005333204D6F746F723220536C6F77006F
:10588B005333204F766572666C6F7720466C616779
:06589B003120536574008A
:1058A1005333204F766572666C6F7720466C616763
:0658B10032205365740073
:0F58B7005333204D6F746F72312053746F700034
:0F58C6005333204D6F746F72322053746F700024
:1058D5005333204D6F746F723120436F6C6C697355
:0458E500696F6E0079
:1058E9005333204D6F746F723220436F6C6C697340
:0458F900696F6E0065
:1058FD0053332050686F746F63656C6C20496E7400
:01590D000099
:10590E0053332052656D6F74652053746F706564E8
:01591E000088
:10591F005333204C696D6974205377697463682021
:07592F0053746F7065640002
:105936005333204D6F746F72732053746F706564A8
:0A594600202852656D6F746529007A
:105950005333204175746F636C6F73652052656EAD
:0559600065776564009D
:0F5965005334204D6F746F72315374617274003C
:0F5974005334204D6F746F72325374617274002C
:105983005334204D31204F7665726C6F6164204330
:055993006865636B0074
:105998005334204D32204F7665726C6F616420431A
:0559A8006865636B005F
:0F59AD005334204D3120537065656420555000F0
