:04000000ACEF36F03B
:1000080000C019F001C018F004C017F008C016F0BD
:100018000CC015F0F2A42ED00001E52B8088010E4B
:10002800E86FF051FF0A03E1F06BEF6B01D0F02BA2
:1000380001012351FF0A04E1236B0001E36B02D0A5
:100048000101232B190E0001E55D0FE3E56B010E9D
:10005800EA27000EEB23EC23ED23F753010ED8A477
:10006800000EF76F8098010EE16FF30ED76ECA0E7F
:10007800D66EF294F0A017D00001EF51000A03E108
:10008800EF2BF06B01D0EF2B050EEF5D0BE3130E9A
:10009800F05D07E3F051150804E3010EE66FEF6B1E
:1000A80001D0EF6BF090F0A21DD00001E351000ADF
:1000B80004E1E32B0101236B02D00001E32B0001D3
:1000C800050EE35D0EE3130E0101235D08E32351E2
:1000D800150805E3010E0001E46FE36B02D000018F
:1000E800E36BF092F2A22FD00001E72BE751FF0A51
:1000F80001E1E76B030E046EE7C000F066D808C0A4
:1001080000F00050010A0EE1825305E0A95302E015
:10011800818601D08196805305E0BB5302E0818837
:1001280001D08198030E046EE7C000F04ED808C0D5
:1001380000F00050000A06E1825301E081868053F6
:1001480001E08188F29219C000F018C001F017C0D0
:0C01580004F016C008F015C00CF01100F7
:0E016400ACB202D00000FCD72CC5ADFF1200DB
:100172002CC5C9FFC7B002D00000FCD7C9CF00F020
:02018200120069
:10018400F250026EF29E0500FF6A0150FE6E0050AE
:08019400FD6E02BEF28E1200A6
:10019C00086A096A100E0C6E0134083609360450D0
:1001AC00085E0550D8A0053C095ED8B007D00450B5
:1001BC0008260550D8B0053C0926D89000360136E3
:0601CC000C2EEAD7120020
:1001D200086A080E0C6E003408360450085ED8B067
:0E01E20002D00826D89000360C2EF5D7120059
:1001F00027C504F028C505F025C502F026C503F083
:1002000029C500F02AC501F0010E0501295F000E85
:100210002A5B005001100FE004C0E9FF05C0EAFFAF
:1002200002C0E1FF03C0E2FFEECFE6FF024A032A6D
:10023000044A052AE5D725C500F026C501F01200BD
:100240005AC1E1FF5BC1E2FF25C5E6FF58C100F0DE
:0802500059C101F097DF120013
:100258000B6A0A6A096A086A0E6A03340836045087
:10026800085E0550D8A0053C095E0650D8A0063C9B
:100278000A5E0750D8A0073C0B5EE86AD8A0010EBA
:100288000E5E0336070E0C6E0334083609360A363E
:100298000B360E36045003A012D0085E0550D8A0C5
:1002A800053C095E0650D8A0063C0A5E0750D8A057
:1002B800073C0B5EE86AD8A0010E0E5E11D0082636
:1002C8000550D8B0053C09260650D8B0063C0A2689
:1002D8000750D8B0073C0B26E86AD8B0010E0E26A6
:1002E80003360C2ED1D70234083609360A360B36B7
:1002F8000E36045003A012D0085E0550D8A0053C65
:10030800095E0650D8A0063C0A5E0750D8A0073CF4
:100318000B5EE86AD8A0010E0E5E11D008260550C3
:10032800D8B0053C09260650D8B0063C0A26075026
:10033800D8B0073C0B26E86AD8B0010E0E26023664
:10034800070E0C6E0234083609360A360B360E369E
:10035800045002A012D0085E0550D8A0053C095EE2
:100368000650D8A0063C0A5E0750D8A0073C0B5E92
:10037800E86AD8A0010E0E5E11D008260550D8B044
:10038800053C09260650D8B0063C0A260750D8B0C6
:10039800073C0B26E86AD8B0010E0E2602360C2E52
:1003A800D1D70134083609360A360B360E360450D2
:1003B80002A012D0085E0550D8A0053C095E065080
:1003C800D8A0063C0A5E0750D8A0073C0B5EE86A36
:1003D800D8A0010E0E5E11D008260550D8B0053CF5
:1003E80009260650D8B0063C0A260750D8B0073C64
:1003F8000B26E86AD8B0010E0E260136070E0C6EE1
:100408000134083609360A360B360E36045001A078
:1004180012D0085E0550D8A0053C095E0650D8A049
:10042800063C0A5E0750D8A0073C0B5EE86AD8A0D5
:10043800010E0E5E11D008260550D8B0053C0926DD
:100448000650D8B0063C0A260750D8B0073C0B2601
:10045800E86AD8B0010E0E2601360C2ED1D700342A
:10046800083609360A360B360E36045001A012D06B
:10047800085E0550D8A0053C095E0650D8A0063C89
:100488000A5E0750D8A0073C0B5EE86AD8A0010EA8
:100498000E5E11D008260550D8B0053C0926065036
:1004A800D8B0063C0A260750D8B0073C0B26E86AA5
:1004B800D8B0010E0E260036070E0C6E0034083632
:1004C80009360A360B360E36045000A012D0085EE4
:1004D8000550D8A0053C095E0650D8A0063C0A5E27
:1004E8000750D8A0073C0B5EE86AD8A0010E0E5E44
:1004F80011D008260550D8B0053C09260650D8B0BA
:10050800063C0A260750D8B0073C0B26E86AD8B044
:10051800010E0E2600360C2ED1D700B00ED0045096
:1005280008260550D8B0053C09260650D8B0063C28
:0C0538000A260750D8B0073C0B26120022
:100544000501296B050E295D0AE229512725E16E73
:10055400000E2821E26E200EE66E292BF3D72951D6
:100564002725E16E000E2821E26EE66A290729514B
:1005740027252A6F000E28212B6F0A0E046E000E09
:10058400056E25C500F026C501F006DE08C000F0A2
:1005940009C001F0300E00262AC5E1FF2BC5E2FF99
:1005A40000C0E6FF0A0E046E000E056E25C500F0BD
:1005B40026C501F0F1DD00C025F501C026F5000EC9
:1005C400011802E1000E001801E102D02907CFD77B
:0205D400120013
:1005D6000501286B030E285D0AE228512625E16EE7
:1005E600000E2721E26E200EE66E282BF3D7285147
:1005F6002625E16E000E2721E26EE66A28072851BD
:100606002625296F000E27212A6F0A0E046E25C59E
:1006160000F0DCDD08C000F0300E002629C5E1FF41
:100626002AC5E2FF00C0E6FF0A0E046E25C500F0EB
:10063600CDDD00C025F50050000A01E102D02807F3
:04064600DED71200E9
:10064A00A6A202D00000FCD7A69C25C5A9FF26C5F4
:10065A00A8FFA69EA684F2CF00F0F29E550EA76EC2
:10066A00AA0EA76EA68200BE02D0F29E01D0F28E1A
:04067A00A694120030
:10067E004ED00101206B216BFF0E226F67D001015E
:10068E00440E206F020E216FC80E226F5FD0010143
:10069E00580E206F020E216F960E226F57D0010159
:1006AE008A0E206F020E216F640E226F4FD0010151
:1006BE008A0E206F020E216F500E226F47D001015D
:1006CE00A80E206F020E216F960E226F3FD00101F1
:1006DE00A80E206F020E216F640E226F37D001011B
:1006EE00A80E206F020E216F320E226F2FD0010145
:1006FE00D00E206F020E216F640E226F27D00101E3
:10070E00EE0E206F020E216F320E226F1FD00501EA
:10071E002551000AAEE02551010AB1E02551020A29
:10072E00B6E02551030ABBE02551040AC0E025516D
:10073E00050AC5E02551060ACAE02551070ACFE091
:0E074E002551080AD4E02551090AD9E012000D
:10075C000B6A0A6A096A00500402F4CF09F0F3CF5D
:10076C0008F001500502F4CF0BF0F3CF0AF0005063
:10077C000502F3500926F4500A22E86A0B220150B4
:10078C000402F3500926F4500A22E86A0B2208C02E
:10079C0000F009C001F00AC002F00BC003F0120017
:1007AC000900F5CFE6FF0006FBE10106F9E11200B6
:1007BC0005011F6B0A0E1F5D0AE21F511D25E16E1C
:1007CC00000E1E21E26E300EE66E1F2BF3D71F516A
:1007DC001D25E16E000E1E21E26EE66A1F07000E5B
:1007EC00006E1C1908E100501B1905E100501A1984
:1007FC0002E11951000A3EE01F511D25206F000E29
:10080C001E21216F0A0E046E000E056E066E076E19
:10081C0019C500F01AC501F01BC502F01CC503F088
:10082C0015DD08C000F009C001F00AC002F00BC0D1
:10083C0003F0300E002620C5E1FF21C5E2FF00C009
:10084C00E6FF1F070A0E046E000E056E066E076E9D
:10085C0019C500F01AC501F01BC502F01CC503F048
:10086C00F5DC00C019F501C01AF502C01BF503C078
:06087C001CF5B5D71200C7
:1008820005011C6B19C5E9FF1AC5EAFFEECF1BF57E
:100892001B51000A0EE01BC52CF563DC05011C2B65
:1008A2001C511925E96E000E1A21EA6EEECF1BF5D6
:0408B200EFD712006A
:1008B60005011C6B19C5E9FF1AC5EAFFEECF1BF54A
:1008C6001B51000A0EE01BC525F5B7DC05011C2BE4
:1008D6001C511925E96E000E1A21EA6EEECF1BF5A2
:0408E600EFD7120036
:0A08EA00490E0D6E0D2EFED7120010
:1008F40019C525F505012533259F1AC526F51BC500
:1009040027F567DE010E1915016E0150010A17E182
:10091400030E1A25256F000E1B21266F2E0E1C6F49
:10092400350E1D6F730E1E6F1F6B1C0E276F050E89
:10093400286F040E296F000E2A6F58DC16D0030EA0
:100944001A25256F000E1B21266F730E206F200EB3
:10095400216F200E226F236B200E276F050E286F48
:0C096400040E296F000E2A6F41DC120007
:10097000C7B409D01F0EC514016E0150000A03E16F
:0A098000010E006E01D0006A1200A3
:10098A0019C525F51AC526F5050126332533269FEF
:10099A001BC527F51CC528F5D0DD010E1915016EFA
:1009AA001AC502F0000E0216000E021802E1010E2C
:1009BA00011817E1050E1B25256F000E1C21266F55
:1009CA002E0E1D6F350E1E6F730E1F6F206B1D0EC0
:1009DA00276F050E286F040E296F000E2A6F03DC9D
:1009EA0017D0050E1B25256F000E1C21266F730ECE
:1009FA00216F200E226F200E236F246B210E276F8A
:100A0A00050E286F040E296F000E2A6FF8EC00F00D
:020A1A001200C8
:100A1C00A69C19C5A9FFA69EA680A8CF00F012001F
:100A2C00010E0501256F6CC126F509DE020E0501CC
:100A3C00256F69C126F503DE030E0501256F6BC119
:100A4C0026F5FDDD040E0501256F6AC126F5F7DDDF
:100A5C00050E0501256F7AC126F5F1DD060E05019F
:100A6C00256F6DC126F5EBDD070E0501256F78C1ED
:100A7C0026F5E5DD080E0501256F79C126F5DFDDCC
:100A8C00090E0501256F77C126F5D9DD0A0E050182
:100A9C00256F7CC126F5D3DD0B0E0501256F7BC1BF
:100AAC0026F5CDDD0C0E0501256FA7C026F5C7DD9B
:100ABC000001A75109080501256FDBDD0D0E0501AD
:100ACC00256F0AC226F5BBDD0E0E0501256F7DC113
:100ADC0026F5B5DD0F0E0501256F1FC126F5AFDD1F
:0E0AEC00100E0501256F1EC126F5A9DD1200B2
:100AFA000301706B716B7151120802E170518E081B
:100B0A0008E331DF005201E004D00301704B712B7E
:100B1A00F2D70301120E715D02E18F0E705D03E3DD
:100B2A007B0E006E05D0C580C5A001D0FDD7006A36
:020B3A001200A7
:100B3C000301756B140E755D6DE275C300F0000E4C
:100B4C00016E070E046E000E056E02DE7E0E002690
:100B5C00010E0122050E0024E96E000E0120EA6E42
:100B6C00EE50010A55E175C300F0000E016E070E40
:100B7C00046E000E056EECDD7E0E0024E16E010E9F
:100B8C000120E26E74C3E6FF75C300F0000E016E27
:100B9C00070E046E000E056EDBDD7E0E0026010EC8
:100BAC000122010E0024E16E000E0120E26E70C3E2
:100BBC00E6FF71C3E6FF72C3E6FF73C3E6FF75C3BE
:100BCC0000F0000E016E070E046E000E056EC0DD07
:100BDC007E0E0026010E0122050E0024E16E000E91
:100BEC000120E26EE66A75C300F0000E016E070E7E
:100BFC00046E000E056EACDD7E0E0026010E012289
:100C0C00060E0024E16E000E0120E26EE66A02D0B0
:060C1C00752B90D71200B9
:100C2200010E0501196FF9DE00C06CF1020E196F99
:100C3200F4DE00C069F1030E196FEFDE00C06BF144
:100C4200040E196FEADE00C06AF1050E196FE5DEC7
:100C520000C07AF1060E196FE0DE00C06DF1070EDA
:100C6200196FDBDE00C078F1080E196FD6DE00C006
:100C720079F1090E196FD1DE00C077F10A0E196FF2
:100C8200CCDE00C07BF1000E01017C6F7BC17CF1E8
:100C92007B6B0B0E0501196FC0DE005001017B1347
:100CA200000E7C130C0E0501196FB7DE00C0A7F011
:100CB20000500908256FE2DC0D0E0501196FADDE4B
:100CC20000C00AF20E0E196FA8DE00C07DF10F0EF1
:100CD200196FA3DE00C01FF1100E196F9EDE00C057
:040CE2001EF11200ED
:100CE600010E03017025E96E000E7121EA6EEECF4A
:100CF6006CF170C3E9FF71C3EAFFEECF6BF172517D
:100D0600020AD8A485D0030E7025E96E000E712163
:100D1600EA6EEECF69F1020E7025E96E000E7121C2
:100D2600EA6EEECF6AF1040E7025E96E000E7121AF
:100D3600EA6E080E7025D96E000E7121DA6EDE504D
:100D4600EE24036E046A000E042203C000F004C001
:100D560001F001320032019E01BC018E00C06DF12E
:100D6600050E7025E96E000E7121EA6E090E7025DA
:100D7600D96E000E7121DA6EDE50EE24036E046A1F
:100D8600000E042203C000F004C001F0013200325C
:100D9600019E01BC018E00C078F1060E7025E96E39
:100DA600000E7121EA6E0A0E7025D96E000E7121B1
:100DB600DA6EDE50EE24036E046A000E042203C0CF
:100DC60000F004C001F001320032019E01BC018E28
:100DD60000C079F1070E7025E96E000E7121EA6EEA
:100DE6000B0E7025D96E000E7121DA6EDE50EE24E0
:100DF600036E046A000E042203C000F004C001F072
:100E060001320032019E01BC018E00C077F124D070
:100E16000101696B6A6B040E03017025E96E000E11
:100E26007121EA6EEECF6DF1050E7025E96E000EAA
:100E36007121EA6EEECF78F1060E7025E96E000E8E
:100E46007121EA6EEECF79F1070E7025E96E000E7C
:0C0E56007121EA6EEECF77F1E6DD1200AC
:100E6200EAC019F5EBC01AF5ECC01BF5EDC01CF594
:100E7200720E05011D6F030E1E6F9FDC720E196F3D
:100E8200030E1A6F17DD3A0E03017D6F200E7E6F7F
:100E92007F6B7D0E0501196F030E1A6FF1DC70C3B3
:100EA20019F571C31AF5ECDC0A0E2C6FB2EC00F0E6
:0C0EB2000D0E05012C6FB2EC00F01200D8
:100EBE00010E03017025016E000E7121026E01C03C
:100ECE00E9FF02C0EAFF100EEE24006E01C0E1FF42
:100EDE0002C0E2FF00C0E6FF030E7025016E000E99
:100EEE007121026E01C0E9FF02C0EAFF100EEE246E
:100EFE00006E01C0E1FF02C0E2FF00C0E6FF040E7B
:100F0E007025E16E000E7121E26E040EE66E060E85
:100F1E007025E16E000E7121E26E040EE66E080E73
:100F2E007025E16E000E7121E26E040EE66E0A0E61
:100F3E007025E16E000E7121E26E040EE66E050E56
:100F4E007025E16E000E7121E26E0A0EE66E090E3C
:100F5E007025E16E000E7121E26E0A0EE66E070E2E
:100F6E007025E16E000E7121E26E0A0EE66E0B0E1A
:100F7E007025E16E000E7121E26E0A0EE66E120011
:100F8E0003017051010A03E10001826B8196030196
:0E0F9E007051020A03E10001806B819812007D
:100FAC000301716B140E715D44E271C300F0000E0D
:100FBC00016E070E046E000E056EAEEC03F07E0E95
:100FCC000026010E0122050E0024E96E000E012000
:100FDC00EA6EEE50000A2BE171C300F0000E016EB8
:100FEC00070E046E000E056EAEEC03F07E0E0024B0
:100FFC00E96E010E0120EA6EEECF01F0015070197E
:10100C0016E071C300F0000E016E070E046E000EA8
:10101C00056EAEEC03F07E0E0026010E0122050ECD
:10102C000024E16E000E0120E26E010EE66E712BC3
:04103C00B9D712000E
:10104000F90E0501256F000E266F460EF66E6E0E28
:10105000F76E000EF86E700EE16E030EE26E110E6A
:10106000006E010E016ED6EC03F0700E276F030EBA
:10107000286F100E296F000E2A6FF8EC00F00001A7
:10108000E951000A68E10C0E0501256F010E266F7B
:10109000570EF66E6E0EF76E000EF86E810EE16E54
:1010A000030EE26E110E006E010E016ED6EC03F01F
:1010B000810E276F030E286F100E296F000E2A6F06
:1010C000F8EC00F0010E01010A6F0001A651000AC0
:1010D0001FE1F90E0501256F000E266F680EF66EF2
:1010E0006E0EF76E000EF86E920EE16E030EE26E5B
:1010F000110E006E010E016ED6EC03F0920E276FFA
:10110000030E286F100E296F000E2A6FF8EC00F006
:101110000001A651010A1FE1F90E0501256F000E1D
:10112000266F790EF66E6E0EF76E000EF86EA30E39
:10113000E16E030EE26E110E006E010E016ED6EC32
:1011400003F0A30E276F030E286F100E296F000EF9
:101150002A6FF8EC00F00001E951010A2BE10C0EB6
:101160000501256F010E266F8A0EF66E6E0EF76E64
:10117000000EF86EB40EE16E030EE26E110E006EFC
:10118000010E016ED6EC03F0B40E276F030E286F2C
:10119000100E296F000E2A6FF8EC00F0010E01010D
:1011A0000A6F6CC119F5FF0E05011A6F000E1B6F57
:1011B0007AEC04F00001E951020A2BE10C0E050162
:1011C000256F010E266F9B0EF66E6E0EF76E000EEB
:1011D000F86EC50EE16E030EE26E110E006E010E8A
:1011E000016ED6EC03F0C50E276F030E286F100EAC
:1011F000296F000E2A6FF8EC00F0010E01010A6F52
:1012000069C119F5FF0E05011A6F000E1B6F7AEC0C
:1012100004F00001E951030A2BE10C0E0501256FD2
:10122000010E266FAC0EF66E6E0EF76E000EF86EA7
:10123000D60EE16E030EE26E110E006E010E016E0F
:10124000D6EC03F0D60E276F030E286F100E296F11
:10125000000E2A6FF8EC00F0010E01010A6F6BC15D
:1012600019F5FF0E05011A6F000E1B6F7AEC04F0E2
:101270000001E951040A2BE10C0E0501256F010E56
:10128000266FBD0EF66E6E0EF76E000EF86EE70E50
:10129000E16E030EE26E110E006E010E016ED6ECD1
:1012A00003F0E70E276F030E286F100E296F000E54
:1012B0002A6FF8EC00F0010E01010A6F6AC119F5FE
:1012C000FF0E05011A6F000E1B6F7AEC04F000018F
:1012D000E951050A2BE10C0E0501256F010E266F61
:1012E000CE0EF66E6E0EF76E000EF86EF80EE16E14
:1012F000030EE26E110E006E010E016ED6EC03F0CD
:10130000F80E276F030E286F100E296F000E2A6F3C
:10131000F8EC00F0010E01010A6F6DC119F5FF0E26
:1013200005011A6F000E1B6F7AEC04F00001E95101
:10133000060A2BE10C0E0501256F010E266FDF0E4C
:10134000F66E6E0EF76E000EF86E090EE16E040E6C
:10135000E26E110E006E010E016ED6EC03F0090E66
:10136000276F040E286F100E296F000E2A6FF8ECFD
:1013700000F0010E01010A6F78C119F5FF0E050199
:101380001A6F000E1B6F7AEC04F00001E951070A96
:101390002BE10C0E0501256F010E266FF00EF66E87
:1013A0006E0EF76E000EF86E1A0EE16E040EE26E0F
:1013B000110E006E010E016ED6EC03F01A0E276FAF
:1013C000040E286F100E296F000E2A6FF8EC00F043
:1013D000010E01010A6F79C119F5FF0E05011A6F9F
:1013E000000E1B6F7AEC04F00001E951080A2BE1B2
:1013F0000C0E0501256F010E266F010EF66E6F0EA5
:10140000F76E000EF86E2B0EE16E040EE26E110EFA
:10141000006E010E016ED6EC03F02B0E276F040E4A
:10142000286F100E296F000E2A6FF8EC00F0010EE5
:1014300001010A6F77C119F5FF0E05011A6F000E41
:101440001B6F7AEC04F00001E951090A2EE10C0E41
:101450000501256F010E266F120EF66E6F0EF76EE8
:10146000000EF86E3C0EE16E040EE26E110E006E80
:10147000010E016ED6EC03F03C0E276F040E286FB0
:10148000100E296F000E2A6FF8EC00F0010E01011A
:101490000A6FA7C025F5FF0E0501266F000E276F06
:1014A000EBEC02F0200E0101026F0001E9510A0A83
:1014B0002BE10C0E0501256F010E266F230EF66E33
:1014C0006F0EF76E000EF86E4D0EE16E040EE26EBA
:1014D000110E006E010E016ED6EC03F04D0E276F5B
:1014E000040E286F100E296F000E2A6FF8EC00F022
:1014F000010E01010A6F7AC119F5FF0E05011A6F7D
:10150000000E1B6F7AEC04F00001E9510B0A2DE18B
:101510000C0E0501256F010E266F340EF66E6F0E50
:10152000F76E000EF86E5E0EE16E040EE26E110EA6
:10153000006E010E016ED6EC03F05E0E276F040EF6
:10154000286F100E296F000E2A6FF8EC00F0010EC4
:1015500001010A6F7BC119F57CC11AF5FD0E050169
:101560001B6F000E1C6FC5EC04F00001E9510C0A62
:1015700022E10C0E0501256F010E266F450EF66E59
:101580006F0EF76E000EF86E6F0EE16E040EE26ED7
:10159000110E006E010E016ED6EC03F06F0E276F78
:1015A000040E286F100E296F000E2A6FF8EC00F061
:1015B000010E01010A6F0001E9510D0A68E10C0EEC
:1015C0000501256F010E266F560EF66E6F0EF76E33
:1015D000000EF86E800EE16E040EE26E110E006ECB
:1015E000010E016ED6EC03F0800E276F040E286FFB
:1015F000100E296F000E2A6FF8EC00F0010E0101A9
:101600000A6F1F51000A21E1FF0E0501256F000E30
:10161000266F4E0E0401916F6F0E926F200E936F26
:10162000200E946F200E956F200E966F200E976FF0
:10163000986B910E0501276F040E286F070E296F16
:10164000000E2A6FF8EC00F022D00501FF0E256F86
:10165000000E266F590E0401996F650E9A6F730E76
:101660009B6F200E9C6F200E9D6F200E9E6F200E94
:101670009F6F200EA06FA16B990E0501276F040EBE
:10168000286F080E296F000E2A6FF8EC00F0000199
:10169000E9510E0A68E10C0E0501256F010E266F57
:1016A000780EF66E6F0EF76E000EF86EA20EE16EFB
:1016B000040EE26E110E006E010E016ED6EC03F008
:1016C000A20E276F040E286F100E296F000E2A6FCE
:1016D000F8EC00F0010E01010A6F1E51000A21E131
:1016E000FF0E0501256F000E266F4E0E0401B36F2D
:1016F0006F0EB46F200EB56F200EB66F200EB76F51
:10170000200EB86F200EB96FBA6BB30E0501276FAC
:10171000040E286F070E296F000E2A6FF8EC00F0F8
:1017200022D00501FF0E256F000E266F590E040111
:10173000BB6F650EBC6F730EBD6F200EBE6F200EAB
:10174000BF6F200EC06F200EC16F200EC26FC36B23
:10175000BB0E0501276F040E286F080E296F000EBF
:101760002A6FF8EC00F00001E9510F0A68E10C0E55
:101770000501256F010E266F9A0EF66E6F0EF76E3D
:10178000000EF86EC40EE16E040EE26E110E006ED5
:10179000010E016ED6EC03F0C40E276F040E286F05
:1017A000100E296F000E2A6FF8EC00F0010E0101F7
:1017B0000A6F7D51000A21E1FF0E0501256F000E21
:1017C000266F4E0E0401D56F6F0ED66F200ED76FA9
:1017D000200ED86F200ED96F200EDA6F200EDB6F2F
:1017E000DC6BD50E0501276F040E286F070E296FDD
:1017F000000E2A6FF8EC00F022D00501FF0E256FD5
:10180000000E266F590E0401DD6F650EDE6F730E3C
:10181000DF6F200EE06F200EE16F200EE26F200ED2
:10182000E36F200EE46FE56BDD0E0501276F040EFC
:10183000286F080E296F000E2A6FF8EC00F00001E7
:10184000E951100A2BE10C0E0501256F010E266FE0
:10185000BC0EF66E6F0EF76E000EF86EE60EE16EC1
:10186000040EE26E110E006E010E016ED6EC03F056
:10187000E60E276F040E286F100E296F000E2A6FD8
:10188000F8EC00F0010E01010A6F0AC219F5FF0E13
:1018900005011A6F000E1B6F7AEC04F00001E9518C
:1018A000110A22E10C0E0501256F010E266FCD0EE7
:1018B000F66E6F0EF76E000EF86EF70EE16E040E08
:1018C000E26E110E006E010E016ED6EC03F0F70E03
:1018D000276F040E286F100E296F000E2A6FF8EC88
:1018E00000F0010E01010A6F0001E951120A22E124
:1018F0000C0E0501256F010E266FDE0EF66E6F0EC3
:10190000F76E000EF86E080EE16E050EE26E110E17
:10191000006E010E016ED6EC03F0080E276F050E67
:10192000286F100E296F000E2A6FF8EC00F0010EE0
:0C19300001010A6F650E0001EE6F12004D
:10193C0003017051000A04E07151000A01E002D069
:10194C00F28801D0F29870C3A9F071C3BBF01200F9
:10195C00140E01016C6F140E6B6F140E696F140E64
:10196C006A6F050E0001A76F040E0501256F3FEC91
:10197C0003F00A0E0101786F040E6D6F0A0E776F7B
:10198C00040E796F0C0E7A6F7B6B7C6B7D6B1F6B0F
:0C199C001E6B02010A6B16EC05F0120035
:1019A80003017051010A0AE1010E0001826F03016F
:1019B80071B102D0829201D0828281867051020A6E
:1019C8000AE1010E0001806F030171B102D082901B
:0819D80001D082808188120019
:1019E00003017051010A04E10001816B010173914F
:1019F00003017051020A04E10001DE6B01017393DF
:021A00001200D2
:101A02000301706B140E705D60E270C300F0000E93
:101A1200016E070E046E000E056EAEEC03F07E0E34
:101A22000026010E0122050E0024E96E000E01209F
:101A3200EA6EEE50000A31E170C300F0000E016E52
:101A4200070E046E000E056EAEEC03F07E0E00244F
:101A5200E96E010E0120EA6EEECF01F00150090A93
:101A62001CE170C300F0000E016E070E046E000E42
:101A7200056EAEEC03F07E0E0026010E0122010E71
:101A82000024E96E000E0120EA6EEECF71F3EECF74
:101A920072F3EECF73F3EECF74F370C300F0000E67
:101AA200016E070E046E000E056EAEEC03F07E0EA4
:101AB2000026010E0122050E0024E16E000E012017
:101AC200E26E010EE66E702B9DD70001EA51030112
:0A1AD200715D006E00C070F3120099
:101ADC009E9670C3C9FFC7A401D0FDD79EB601D096
:101AEC00FDD7C5BC02D0006A03D0C584020E006EBF
:021AFC001200D6
:101AFE00C26AC00EC212C18CC18E70C300F0003615
:101B0E00009000360090003600900050C212C28045
:101B1E0075EC04F0C284C2A401D0FDD7C4CF01F08D
:0E1B2E00006AC3500012000E0112C290120095
:041B3C00C58412004A
:101B400001016F510301701905E101016F6B010E75
:101B5000006E1200010170510301701905E10101CD
:101B6000706B010E006E12000101715103017019BA
:101B700005E10101716B010E006E1200006A120096
:101B800083A003D083A201D003D0010E006E120007
:041B9000006A1200D5
:101B94000201566B0001E6B103D00201569102D056
:101BA400020156810001E4B103D00201569302D030
:101BB400020156830001E66BE46B56C200F012008A
:101BC4007DEC05F07C0E0301706F86DF800E03014F
:101BD400706F82DF02015651020A04E1380E0301DC
:101BE400706F7ADF02015651010A04E1340E0301D9
:101BF400706F72DF800E0301706F6EDF0201565149
:101C0400020A04E1390E0301706F66DF02015651C6
:101C1400010A04E1350E0301706F5EDF800E0301DB
:101C2400706F5ADF1C0E0301706F56DF800E0301C4
:101C3400706F52DF720E0301706F4EDF800E03016E
:101C4400706F4ADF550E0301706F46DF800E03018B
:101C5400706F42DF6C0E0301706F3EDF800E030174
:101C6400706F3ADF0C0E0301706F36DF800E0301D4
:101C7400706F32DF010E0301706F2EDF800E0301DF
:101C8400706F2ADF060E0301706F26DF800E0301DA
:101C9400706F22DF020E0301706F1EDF4DDF120032
:101CA400010E0001F66F01016EA315D00001F66B61
:101CB400F76B650EEE6FE951000A0DE10101606BEF
:101CC4000001A651000A02E1C80EEE6FA651010AF6
:101CD40002E1C90EEE6F0001E951000A18E10101A9
:101CE4006EA109D00001A651000805E2A60720EC68
:101CF40008F0660EEE6F01016EA509D0010E000119
:101D0400A65D05E2A62B20EC08F0660EEE6F00013E
:101D1400E951010A16E101016EA108D06C510008D5
:101D240005E26C0720EC08F0660EEE6F01016EA56B
:101D340008D0FF0E6C5D05E26C2B20EC08F0660EFB
:101D4400EE6F0001E951020A16E101016EA108D00B
:101D54006951000805E2690720EC08F0660EEE6F91
:101D640001016EA508D0FF0E695D05E2692B20EC28
:101D740008F0660EEE6F0001E951030A16E1010155
:101D84006EA108D06B51000805E26B0720EC08F047
:101D9400660EEE6F01016EA508D0FF0E6B5D05E2C5
:101DA4006B2B20EC08F0660EEE6F0001E951040A7B
:101DB40016E101016EA108D06A51000805E26A0724
:101DC40020EC08F0660EEE6F01016EA508D0FF0E40
:101DD4006A5D05E26A2B20EC08F0660EEE6F0001E6
:101DE400E951050A16E101016EA108D06D51000800
:101DF40005E26D0720EC08F0660EEE6F01016EA59A
:101E040008D0FF0E6D5D05E26D2B20EC08F0660E28
:101E1400EE6F0001E951060A16E101016EA108D036
:101E24007851000805E2780720EC08F0660EEE6FA2
:101E340001016EA508D0FF0E785D05E2782B20EC39
:101E440008F0660EEE6F0001E951070A16E1010180
:101E54006EA108D07951000805E2790720EC08F05A
:101E6400660EEE6F01016EA508D0FF0E795D05E2E6
:101E7400792B20EC08F0660EEE6F0001E951080A98
:101E840016E101016EA108D07751000805E2770739
:101E940020EC08F0660EEE6F01016EA508D0FF0E6F
:101EA400775D05E2772B20EC08F0660EEE6F0001FB
:101EB400E951090A18E101016EA109D00001A751F5
:101EC400000805E2A70720EC08F0660EEE6F01019A
:101ED4006EA509D0090E0001A75D05E2A72B20EC31
:101EE40008F0660EEE6F0001E9510A0A16E10101DD
:101EF4006EA108D07A51000805E27A0720EC08F0B8
:101F0400660EEE6F01016EA508D0FF0E7A5D05E244
:101F14007A2B20EC08F0660EEE6F0001E9510B0AF3
:101F240022E101016EA110D0000E006E7C51005C14
:101F340002E17B51000808E2010E7B5F000E7C5B2E
:101F440020EC08F0660EEE6F01016EA50CD0FD0EBC
:101F54007C5D02E1E80E7B5D06E27B4B7C2B20EC92
:101F640008F0660EEE6F0001E9510C0A47E1EE6BD2
:101F74000C0E0501256F010E266FC60EF66E740E4B
:101F8400F76E000EF86E560EE16E020EE26E110E42
:101F9400006E010E016ED6EC03F0560E276F020E92
:101FA400286F100E296F000E2A6FF8EC00F0F90E5E
:101FB400256F000E266FD70EF66E740EF76E000EA8
:101FC400F86E670EE16E020EE26E110E006E010EE7
:101FD400016ED6EC03F0670E276F020E286F100E09
:101FE400296F000E2A6FF8EC00F00001F66BF76B16
:101FF400010E01010A6FB0DC16EC05F00001E95195
:102004000D0A16E101016EA108D01F51000805E276
:102014001F0720EC08F0660EEE6F01016EA508D0D4
:10202400010E1F5D05E21F2B20EC08F0660EEE6F1B
:102034000001E9510E0A16E101016EA108D01E51FA
:10204400000805E21E0720EC08F0660EEE6F0101A1
:102054006EA508D0010E1E5D05E21E2B20EC08F0D3
:10206400660EEE6F0001E9510F0A16E101016EA13F
:1020740008D07D51000805E27D0720EC08F0660ECB
:10208400EE6F01016EA508D0010E7D5D05E27D2B8A
:1020940020EC08F0660EEE6F0001E951100A21E110
:1020A40001016EA10DD002010A51000809E20A07DC
:1020B4000A51090A01E10A6B20EC08F0660EEE6F82
:1020C40001016EA50ED0FF0E02010A5D0AE20A2B81
:1020D4000A51010A02E10A0E0A6F20EC08F0660EAA
:1020E400EE6F0001E951110A44E1670EEE6F0C0E28
:1020F4000501256F010E266FE80EF66E740EF76E5D
:10210400000EF86E780EE16E020EE26E110E006E95
:10211400010E016ED6EC03F0780E276F020E286FC5
:10212400100E296F000E2A6FF8EC00F0F90E256FDF
:10213400000E266FF90EF66E740EF76E000EF86E32
:10214400890EE16E020EE26E110E006E010E016E3A
:10215400D6EC03F0890E276F020E286F100E296F3C
:10216400000E2A6FF8EC00F00001F66B010E01017D
:102174000A6F0001E951120A45E1EE6B0C0E0501EC
:10218400256F010E266F0A0EF66E750EF76E000EA1
:10219400F86E9A0EE16E020EE26E110E006E010EE2
:1021A400016ED6EC03F09A0E276F020E286F100E04
:1021B400296F000E2A6FF8EC00F0F90E256F000E5F
:1021C400266F1B0EF66E750EF76E000EF86EAB0ED4
:1021D400E16E020EE26E110E006E010E016ED6EC7F
:1021E40003F0AB0E276F020E286F100E296F000E3E
:1021F4002A6FF8EC00F00001F66B010E01010A6F82
:0622040011EC06F01200CF
:10220A000201566B83B801D0568183BA01D0568336
:06221A0056C200F01200A4
:102220000201576B586B596B83BA02D0598101D0A8
:10223000599184B002D0598301D0599383B802D008
:10224000598501D059955951000A1BE10001E2510D
:10225000000A08E101014E6B0001E26B0201566BBE
:1022600001014D6B0001E251010A0BE1050EE05D39
:1022700008E301014E6B0001E26B0201566B0101A4
:102280004D6B02015951000A24E00001E251010A9C
:1022900020E101014E51000A1CE1030E4925016EA7
:1022A000000E4A21026E000E4B21036E000E4C21DF
:1022B000046E0001ED51041808E1EC51031805E12A
:1022C000EB51021802E1EA51011803E1010E01018C
:1022D0004E6F02015951000A0AE00001E251010A61
:1022E00006E101014E51000A02E10201566B0201B2
:1022F0005951000A0FE00001E251010A0BE101010E
:102300004E51010A07E10201595101014D03F3CF7A
:1023100056F24D6B02015951000A11E00001E251E1
:10232000000A0DE159C256F2010EE26FEAC049F10E
:10233000EBC04AF1ECC04BF1EDC04CF1E06B010198
:102340004E51010A0DE10A0E046EE5C000F0E9EC01
:1023500000F008C000F00050000A02E1010E4D6FCD
:0623600056C200F012005D
:10236600949894968B988B9694889486C79EC79CCF
:06237600380EC66E1200D5
:10237C000201576B586B3F0E5615026E02C056F297
:10238C00540E576F02C000F00032009E0032009EC7
:10239C000032009E0032009E540E0010576F700EDB
:1023AC00586F0F0E0214006E700E0010586F7DECFB
:1023BC0005F07C0E0301706F6EEC0DF0800E0301C6
:1023CC00706F6EEC0DF057C270F36EEC0DF0800E6A
:1023DC000301706F6EEC0DF058C270F36EEC0DF0E3
:1023EC009EEC0DF00D0E0C6EFB0E0D6E0D2EFED731
:0A23FC000C2EFCD7000000001200B8
:1024060002015A6B5B6B5651010A03E15751800F6B
:102416005B6F5651020A03E15751C00F5B6F7DECAB
:1024260005F07C0E0301706F6EEC0DF0800E03015B
:10243600706F6EEC0DF05BC270F36EEC0DF0400E3B
:102446000301706F6EEC0DF002015A515825E96ECA
:10245600000E5921EA6EEE500A0A10E05A51100891
:102466000DE35A515825E96E000E5921EA6EEECF5A
:1024760070F36EEC0DF002015A2BE6D79EEC0DF0D0
:102486000D0E0C6EFB0E0D6E0D2EFED70C2EFCD710
:062496000000000012002E
:10249C00640E0101586F010E596F2C0E5A6F050E08
:1024AC005B6FFF0E656FFF0E666F000E676F000EA1
:1024BC00686FFF0E5C6FFF0E5D6F000E5E6F000E9F
:1024CC005F6FFF0E616FFF0E626F000E636F000E89
:1024DC00646FAC8A900EAB6E948E949C9EAA03D0C3
:0824EC00AECF00F0FBD7120097
:1024F40001016EA10AD00001E951000A03E1120EA4
:10250400E96F01D0E907640EEE6F01016EA509D0F1
:102514000001E951120A02E1E96B01D0E92B640ED2
:10252400EE6F01016EA303D0660E0001EE6F120080
:10253400020E02018C6F839E01017251000A09E1AF
:10254400090E0301706FA0EC0DF00050010A01E0C8
:10255400CFD3090E0301706FD6EC07F001016A5165
:10256400000A04E01D51010A01E045D102018C5129
:102574000001EA25006E000EEB21016E000EEC2135
:10258400026E000EED21036E00C016F201C017F2B8
:1025940002C018F203C019F200C070F301C071F355
:1025A40002C072F303C073F3010E0301746F9EEC57
:1025B40005F001017951000A11E016C270F317C247
:1025C40071F318C272F319C273F3070E0301746F27
:1025D4009EEC05F0010E0001F36F0FD016C270F3EC
:1025E40017C271F318C272F319C273F3050E030113
:1025F400746F9EEC05F00001F36B01017951000149
:10260400EA25006E000EEB21016E000EEC21026E35
:10261400000EED21036E020E0026000E012202229E
:10262400032202018C510026000E01220222032201
:1026340000C016F201C017F202C018F203C019F26A
:1026440000C070F301C071F302C072F303C073F3EE
:102654000A0E0301746F9EEC05F00101795100012B
:10266400EA25006E000EEB21016E000EEC21026ED5
:10267400000EED21036E02018C510026000E012292
:102684000222032200C016F201C017F202C018F29F
:1026940003C019F200C070F301C071F302C072F3F9
:1026A40003C073F3050E0301746F9EEC05F0010182
:1026B4007751000A30E06B510001EA25006E000EEC
:1026C400EB21016E000EEC21026E000EED21036E73
:1026D40001017751005E000E015A025A035A0201A9
:1026E4008C510026000E01220222032200C016F2A1
:1026F40001C017F202C018F203C019F200C070F34F
:1027040001C071F302C072F303C073F3070E030137
:10271400746F9EEC05F001017D51000A42E06B519B
:102724000001EA25006E000EEB21016E000EEC2183
:10273400026E000EED21036E02018C510026000E84
:1027440001220222032200C016F201C017F202C0C5
:1027540018F203C019F200C070F301C071F302C093
:1027640072F303C073F3050E0301746F9EEC05F05E
:10277400030E020116250301706F000E02011721DA
:102784000301716F000E020118210301726F000E24
:10279400020119210301736F030E746F9EEC05F09F
:1027A4002AD001016B510001EA25006E000EEB21D5
:1027B400016E000EEC21026E000EED21036E02018B
:1027C4008C510026000E01220222032200C016F2C0
:1027D40001C017F202C018F203C019F200C070F36E
:1027E40001C071F302C072F303C073F3030E03015B
:1027F400746F9EEC05F001016A51000AD8B46FD2DF
:10280400020E1D6F02018C510001EA25006E000EBC
:10281400EB21016E000EEC21026E000EED21036E21
:1028240000C016F201C017F202C018F203C019F278
:1028340000C070F301C071F302C072F303C073F3FC
:10284400020E0301746F9EEC05F001017951000A38
:1028540011E016C270F317C271F318C272F319C2F1
:1028640073F3080E0301746F9EEC05F0010E000172
:10287400F46F0FD016C270F317C271F318C272F35B
:1028840019C273F3060E0301746F9EEC05F0000188
:10289400F46B010179510001EA25006E000EEB2171
:1028A400016E000EEC21026E000EED21036E020E8D
:1028B4000026000E01220222032202018C5100266E
:1028C400000E01220222032200C016F201C017F2F8
:1028D40002C018F203C019F200C070F301C071F312
:1028E40002C072F303C073F30B0E0301746F9EEC0A
:1028F40005F0010179510001EA25006E000EEB217B
:10290400016E000EEC21026E000EED21036E020139
:102914008C510026000E01220222032200C016F26E
:1029240001C017F202C018F203C019F200C070F31C
:1029340001C071F302C072F303C073F3060E030106
:10294400746F9EEC05F001017751000A30E06A5182
:102954000001EA25006E000EEB21016E000EEC2151
:10296400026E000EED21036E01017751005E000E30
:10297400015A025A035A02018C510026000E012208
:102984000222032200C016F201C017F202C018F29C
:1029940003C019F200C070F301C071F302C072F3F6
:1029A40003C073F3080E0301746F9EEC05F001017C
:1029B4006A510001EA25006E000EEB21016E000E43
:1029C400EC21026E000EED21036E02018C510026F3
:1029D400000E01220222032200C016F201C017F2E7
:1029E40002C018F203C019F200C070F301C071F301
:1029F40002C072F303C073F3040E0301746F9EEC00
:102A040005F001017A510001EA25006E000EEB2168
:102A1400016E000EEC21026E000EED21036E020128
:102A24008C510026000E01220222032200C016F25D
:102A340001C017F202C018F203C019F200C070F30B
:102A440001C071F302C072F303C073F3010E0301FA
:102A5400746F9EEC05F001017951000A11E016C271
:102A640070F317C271F318C272F319C273F3070E2D
:102A74000301746F9EEC05F0010E0001F36F0FD09B
:102A840016C270F317C271F318C272F319C273F34A
:102A9400050E0301746F9EEC05F00001F36B010158
:102AA4007A510001EA25006E000EEB21016E000E42
:102AB400EC21026E000EED21036E01017951002616
:102AC400000E012202220322020E0026000E012221
:102AD4000222032202018C510026000E012202224E
:102AE400032200C016F201C017F202C018F203C09C
:102AF40019F200C070F301C071F302C072F303C095
:102B040073F30A0E0301746F9EEC05F001017A5110
:102B14000001EA25006E000EEB21016E000EEC218F
:102B2400026E000EED21036E010179510026000EA4
:102B340001220222032202018C510026000E0122EE
:102B44000222032200C016F201C017F202C018F2DA
:102B540003C019F200C070F301C071F302C072F334
:102B640003C073F3050E0301746F9EEC05F00101BD
:102B74007751000A36E07A510001EA25006E000E12
:102B8400EB21016E000EEC21026E000EED21036EAE
:102B940001016B510026000E01220222032277510B
:102BA400005E000E015A025A035A02018C5100269B
:102BB400000E01220222032200C016F201C017F205
:102BC40002C018F203C019F200C070F301C071F31F
:102BD40002C072F303C073F3070E0301746F9EEC1B
:102BE40005F001017D51000A49E06B510001EA251D
:102BF400006E000EEB21016E000EEC21026E000E41
:102C0400ED21036E01017A510026000E01220222F9
:102C1400032202018C510026000E0122022203220B
:102C240000C016F201C017F202C018F203C019F274
:102C340000C070F301C071F302C072F303C073F3F8
:102C4400050E0301746F9EEC05F0030E02011625B8
:102C54000301706F000E020117210301716F000E52
:102C6400020118210301726F000E020119210301F0
:102C7400736F030E746F9EEC05F031D001016B513C
:102C84000001EA25006E000EEB21016E000EEC211E
:102C9400026E000EED21036E01017A510026000E32
:102CA40001220222032202018C510026000E01227D
:102CB4000222032200C016F201C017F202C018F269
:102CC40003C019F200C070F301C071F302C072F3C3
:102CD40003C073F3030E0301746F9EEC05F0030E3F
:102CE4000001F26F01010B6B0001F16B040EEE6F3A
:102CF400010174A126D0000E7C1902E1000E7B199B
:102D040020E00001F551000A1CE1010EF56F01EC11
:102D14000DF000C0F8F09A0EF66E750EF76E000E08
:102D2400F86E560EE16E020EE26E160E006E010E85
:102D3400016ED6EC03F0560E706F020E716F31EC1B
:102D440007F00001F551010AD8A4B2D0010174B111
:102D5400AFD0000E7C1902E1000E7B19D8B4A8D0C4
:102D640002010A51000A52E10001F851EA25006EFD
:102D7400000EEB21016E000EEC21026E000EED211F
:102D8400036E00C016F201C017F202C018F203C0AD
:102D940019F200C070F301C071F302C072F303C0F2
:102DA40073F3090E0301746F9EEC05F00001F56BDB
:102DB40016C219F517C21AF518C21BF519C21CF56B
:102DC4000B0E05011D6F020E1E6FDEEC03F0B00E3C
:102DD400F66E750EF76E000EF86E6C0EE16E020E56
:102DE400E26E100E006E010E016ED6EC03F06C0E56
:102DF4000301706F020E716F31EC07F00B0E0301CB
:102E0400706F020E716F31EC07F052D002010A515B
:102E14000001EA25006E000EEB21016E000EEC218C
:102E2400026E000EED21036E00C016F201C017F20F
:102E340002C018F203C019F200C070F301C071F3AC
:102E440002C072F303C073F3090E0301746F9EECA6
:102E540005F00001F56B16C219F517C21AF518C270
:102E64001BF519C21CF50B0E05011D6F020E1E6F1A
:102E7400DEEC03F0C00EF66E750EF76E000EF86E03
:102E84007C0EE16E020EE26E100E006E010E016EFB
:102E9400D6EC03F07C0E0301706F020E716F31ECFF
:102EA40007F00B0E0301706F020E716F31EC07F027
:022EB40012000A
:102EB60002015A6B0301706B7FEC0DF000C056F2F5
:102EC60001C057F2010E0301706F7FEC0DF000C0D8
:102ED60058F201C059F2010E01010A6F0001A95111
:102EE600000A16E0010121510201575D04E10101CA
:102EF60020510201565D06E2FF0E0001815D01E2EE
:102F0600812B05D000018151000801E2810701D023
:102F1600816B81510101225D02E202015A810001A9
:102F2600BB51000A16E0010121510201595D04E17D
:102F3600010120510201585D06E2FF0E0001DE5D2F
:102F460001E2DE2B05D00001DE51000801E2DE07BA
:102F560001D0DE6BDE510101225D02E202015A83DD
:062F66005AC200F0120047
:102F6C007ED2010172A103D0602B020E536F72A3AB
:102F7C0004D0030E606F010E536FCAD2020E030110
:102F8C00706F716BD4EC0CF0020E0001EA2503019A
:102F9C00706F000E0001EB210301716F000E000138
:102FAC00EC210301726F000E0001ED210301736F20
:102FBC00150E746F9EEC05F00101602BA9D273A362
:102FCC0009D00001F16B020E0301706FC7EC07F022
:102FDC000101602B150E0301706FA0EC0DF0005277
:102FEC0003E0010E0001F16F93D2010E0301706F2B
:102FFC00716BD4EC0CF0020E0001EA250301706F2A
:10300C00000E0001EB210301716F000E0001EC2199
:10301C000301726F000E0001ED210301736F140E9A
:10302C00746F9EEC05F00101602B73A108D00B6B43
:10303C00010E0301706FC7EC07F00101602B140E39
:10304C000301706FA0EC0DF0005203E0010E0101C2
:10305C000B6F5ED201017251000A19E0EAC041F116
:10306C00EBC042F1ECC043F1EDC044F1010E0301A1
:10307C00706F010E716FD4EC0CF0706BBBC071F300
:10308C009EEC0CF0010E0001F36F0101602B40D29D
:10309C007251000A12E0602BEAC03DF1EBC03EF128
:1030AC00ECC03FF1EDC040F1010E0301706FBBC0ED
:1030BC0071F39EEC0CF00001F36B2AD201017251FA
:1030CC00000A12E0602BEAC054F1EBC055F1ECC0E1
:1030DC0056F1EDC057F10301706BBBC071F39EEC60
:1030EC000CF0010E0001F36F13D201017251000AB2
:1030FC0024E05351020A02E1602B02D0110E606FE2
:10310C00EAC04FF1EBC050F1ECC051F1EDC052F1FF
:10311C00010E0301706FC7EC07F0010141514F5DC7
:10312C00006E00C032F141513D5D006E00C035F1C2
:10313C0054514F5D006E00C036F1EAD17251000A55
:10314C0019E0EAC041F1EBC042F1ECC043F1EDC033
:10315C0044F1020E0301706F010E716FD4EC0CF090
:10316C00A9C070F3716B9EEC0CF0010E0001F46FB2
:10317C000101602BCDD17251000A12E0602BEAC024
:10318C003DF1EBC03EF1ECC03FF1EDC040F1A9C008
:10319C0070F3010E0301716F9EEC0CF00001F46BE7
:1031AC00B7D101017251000A12E0602BEAC054F150
:1031BC00EBC055F1ECC056F1EDC057F1A9C070F35E
:1031CC000301716B9EEC0CF0010E0001F46FA0D1A9
:1031DC0001017251000A1EE0602BEAC04FF1EBC0F6
:1031EC0050F1ECC051F1EDC052F1020E0301706FC1
:1031FC00C7EC07F0010141514F5D006E00C034F186
:10320C0041513D5D006E00C039F154514F5D006E6F
:10321C0000C03AF17DD17251000A18E0EAC041F1C8
:10322C00EBC042F1ECC043F1EDC044F1020E0301DE
:10323C00706F716BD4EC0CF0A9C070F3716B9EECD9
:10324C000CF0010E0001F46F0101602B61D1725181
:10325C00000A12E0602BEAC03DF1EBC03EF1ECC07D
:10326C003FF1EDC040F1A9C070F3010E0301716F85
:10327C009EEC0CF00001F46B4BD101017251000A71
:10328C0012E0602BEAC054F1EBC055F1ECC056F1E2
:10329C00EDC057F1A9C070F30301716B9EEC0CF0FB
:1032AC00010E0001F46F34D101017251000A1EE0CD
:1032BC00602BEAC04FF1EBC050F1ECC051F1EDC006
:1032CC0052F1020E0301706FC7EC07F0010141517E
:1032DC004F5D006E00C033F141513D5D006E00C08A
:1032EC003BF154514F5D006E00C03CF111D1725155
:1032FC00000A18E0EAC041F1EBC042F1ECC043F126
:10330C00EDC044F1010E0301706F716BD4EC0CF045
:10331C00706BBBC071F39EEC0CF0010E0001F36FEF
:10332C000101602BF5D07251000A12E0602BEAC04B
:10333C003DF1EBC03EF1ECC03FF1EDC040F1010EB0
:10334C000301706FBBC071F39EEC0CF00001F36BCA
:10335C00DFD001017251000A12E0602BEAC054F177
:10336C00EBC055F1ECC056F1EDC057F10301706B99
:10337C00BBC071F39EEC0CF0010E0001F36FC8D0D2
:10338C0001017251000A1EE0602BEAC04FF1EBC044
:10339C0050F1ECC051F1EDC052F1010E0301706F10
:1033AC00C7EC07F0010141514F5D006E00C031F1D7
:1033BC0041513D5D006E00C037F154514F5D006EC0
:1033CC0000C038F1A5D0310E0301706F010E716F82
:1033DC0053C172F373EC06F00C0E0501256F010E50
:1033EC00266FFD0EF66E750EF76E000EF86E560E0D
:1033FC00E16E020EE26E110E006E010E016ED6EC45
:10340C0003F0560E276F020E286F100E296F000E58
:10341C002A6FF8EC00F0F90E256F000E266F0E0ED9
:10342C00F66E760EF76E000EF86E670EE16E020EFB
:10343C00E26E110E006E010E016ED6EC03F0670EFB
:10344C00276F020E286F100E296F000E2A6FF8ECF2
:10345C0000F0010E01010A6F0001EE6B59D0010161
:10346C006051000AD8B47DD56051010AD8B486D514
:10347C006051020AD8B4A3D56051030AD8B4B5D5AB
:10348C006051040AD8B4D1D56051050AD8B4E2D53C
:10349C006051060AD8B4FCD56051070AD8B40ED6D0
:1034AC006051080AD8B421D66051090AD8B446D65E
:1034BC0060510A0AD8B45FD660510B0AD8B471D6E1
:1034CC0060510C0AD8B484D660510D0AD8B4A3D676
:1034DC0060510E0AD8B4BBD660510F0AD8B4CDD601
:1034EC006051100AD8B4E0D66051110AD8B4FFD696
:1034FC006051120AD8B417D76051130AD8B429D71F
:10350C006051140AD8B43CD76051150AD8B45BD7B3
:02351C0012009B
:0A351E0016EC05F00001EE6B120040
:10352800E5D1010172A103D0020E246F602B72A3B2
:1035380004D0010E246F030E606F11D2020E030136
:10354800706F716BD4EC0CF0020E0001EA250301D8
:10355800706F000E0001EB210301716F000E000176
:10356800EC210301726F000E0001ED210301736F5E
:10357800150E746F9EEC05F00101602BF0D173A35A
:1035880009D00001F16B020E0301706FC7EC07F060
:103598000101602B150E0301706FA0EC0DF00052B5
:1035A80003E0010E0001F16FDAD1010E0301706F23
:1035B800716BD4EC0CF0020E0001EA250301706F68
:1035C800000E0001EB210301716F000E0001EC21D8
:1035D8000301726F000E0001ED210301736F140ED9
:1035E800746F9EEC05F00101602B73A108D00B6B82
:1035F800010E0301706FC7EC07F00101602B140E78
:103608000301706FA0EC0DF0005203E0010E010100
:103618000B6FA5D1EAC045F1EBC046F1ECC047F10C
:10362800EDC048F1010E0301706F010E716FD4EC0B
:103638000CF0020E0001EA250301706F000E000174
:10364800EB210301716F000E0001EC210301726F81
:10365800000E0001ED210301736F140E746F9EECD0
:1036680005F00101602B7BD173A114D00B6B010E07
:103678000301706FC7EC07F001012451010A03E14F
:103688000B0E606F01D0602B45510001EA5D006EA2
:1036980000C026F1140E0301706FA0EC0DF000526B
:1036A80003E0010E01010B6F5AD1EAC045F1EBC0EE
:1036B80046F1ECC047F1EDC048F1020E0301706F0E
:1036C800010E716FD4EC0CF0020E0001EA25030123
:1036D800706F000E0001EB210301716F000E0001F5
:1036E800EC210301726F000E0001ED210301736FDD
:1036F800150E746F9EEC05F00101602B30D173A399
:103708000FD00001F16B020E0301706FC7EC07F0D8
:103718000101602B45510001EA5D006E00C028F1EF
:10372800150E0301706FA0EC0DF0005203E0010EBE
:1037380001010B6F14D1EAC045F1EBC046F1ECC0B2
:1037480047F1EDC048F1020E0301706F716BD4ECC4
:103758000CF0020E0001EA250301706F000E000153
:10376800EB210301716F000E0001EC210301726F60
:10377800000E0001ED210301736F150E746F9EECAE
:1037880005F00101602BEBD073A30FD00001F16BA2
:10379800020E0301706FC7EC07F00101602B455161
:1037A8000001EA5D006E00C027F1150E0301706F7D
:1037B800A0EC0DF0005203E0010E01010B6FCFD019
:1037C800EAC045F1EBC046F1ECC047F1EDC048F165
:1037D800010E0301706F716BD4EC0CF0020E000146
:1037E800EA250301706F000E0001EB210301716FE0
:1037F800000E0001EC210301726F000E0001ED21A3
:103808000301736F140E746F9EEC05F00101602BB9
:10381800A6D073A10ED00B6B010E0301706FC7EC1D
:1038280007F00101602B45510001EA5D006E00C000
:1038380025F1140E0301706FA0EC0DF0005203E0A7
:10384800010E01010B6F8BD0250E0301706F010E65
:10385800716F5FEC07F0250E706F010E716F24C158
:1038680072F373EC06F00C0E0501256F010E266F3E
:103878001F0EF66E760EF76E000EF86E560EE16E9F
:10388800020EE26E110E006E010E016ED6EC03F010
:10389800560E276F020E286F100E296F000E2A6F22
:1038A800F8EC00F0F90E256F000E266F300EF66E5C
:1038B800760EF76E000EF86E670EE16E020EE26E7F
:1038C800110E006E010E016ED6EC03F0670E276F25
:1038D800020E286F100E296F000E2A6FF8EC00F008
:1038E800010E01010A6F0001EE6B39D00101605130
:1038F800000AD8B416D66051010AD8B41FD6605150
:10390800020AD8B43CD66051030AD8B44ED66051E6
:10391800040AD8B46AD66051050AD8B47BD6605177
:10392800060AD8B4A1D66051070AD8B4BED66051E9
:10393800080AD8B4E4D66051090AD8B4FCD6605154
:103948000A0AD8B421D760510B0AD8B439D76051C4
:103958000C0AD8B45ED760510D0AD8B475D71200D6
:10396800838E6FC125F50C0E0501266F010E276F9A
:10397800EBEC02F070C125F5F90E266F000E276FEB
:10398800EBEC02F0010E01010A6F010E0301706FEA
:10399800A0EC0DF000524BE0010E0301706F716B4B
:1039A800D4EC0CF0530E0201566F340E576F200EF4
:1039B800586F4D0E596F6F0E5A6F740E5B6F6F0E06
:1039C8005C6F720E5D6F310E5E6F530E5F6F740E1B
:1039D800606F610E616F720E626F740E636F646B5D
:1039E800560E0301706F020E716F31EC07F00C0E6A
:1039F8000501256F010E266FBC0E276F000E286F7C
:103A0800100E296F000E2A6FF8EC00F0F90E256FE2
:103A1800000E266FCD0E276F000E286F100E296F2F
:103A2800000E2A6FF8EC00F0010E01010A6F020E79
:103A38000301706FA0EC0DF000522BE0020E0301A1
:103A4800706F716BD4EC0CF0530E0201656F340E7D
:103A5800666F200E676F4D0E686F6F0E696F740E7C
:103A68006A6F6F0E6B6F720E6C6F320E6D6F530E46
:103A78006E6F740E6F6F610E706F720E716F740ED1
:103A8800726F736B650E0301706F020E716F31EC0C
:103A980007F00A0E0301706FA0EC0DF000521FE052
:103AA800010E01010B6F010E0301706FF0EC0CF0B9
:103AB800270EF66E710EF76E000EF86E740EE16E3C
:103AC800020EE26E150E006E010E016ED6EC03F0CA
:103AD800740E0301706F020E716F31EC07F00B0E5C
:103AE8000301706FA0EC0DF000521FE0010E000101
:103AF800F16F020E0301706FF0EC0CF03C0EF66EE5
:103B0800710EF76E000EF86E890EE16E020EE26E0F
:103B1800150E006E010E016ED6EC03F0890E03013E
:103B2800706F020E716F31EC07F0050E0301706FB4
:103B3800A0EC0DF0005230E0010E0301706FBBC025
:103B480071F39EEC0CF001010B6B0001F36B530E4B
:103B580002019E6F340E9F6F200EA06F4D0EA16F55
:103B6800310EA26F200EA36F530EA46F700EA56FB7
:103B7800650EA66F650EA76F640EA86F200EA96F5D
:103B8800550EAA6F500EAB6FAC6B9E0E0301706F93
:103B9800020E716F31EC07F0070E0301706FA0EC95
:103BA8000DF0005221E00301706BBBC071F39EEC75
:103BB8000CF00001F16B010EF36F600EF66E710EE2
:103BC800F76E000EF86EAD0EE16E020EE26E110E8B
:103BD800006E010E016ED6EC03F0AD0E0301706F9E
:103BE800020E716F31EC07F0060E0301706FA0EC46
:103BF8000DF000522EE0A9C070F3010E0301716FA1
:103C08009EEC0CF00001F46B530E0201BE6F340EF3
:103C1800BF6F200EC06F4D0EC16F320EC26F200EE7
:103C2800C36F530EC46F700EC56F650EC66F650EF9
:103C3800C76F640EC86F200EC96F550ECA6F500E3D
:103C4800CB6FCC6BBE0E0301706F020E716F31EC3F
:103C580007F0080E0301706FA0EC0DF0005220E091
:103C6800A9C070F30301716B9EEC0CF0010E00010A
:103C7800F46F800EF66E710EF76E000EF86ECD0EB4
:103C8800E16E020EE26E110E006E010E016ED6ECB0
:103C980003F0CD0E0301706F020E716F31EC07F067
:103CA800030E0301706FA0EC0DF0005228E0000134
:103CB800F291010E0301706FC7EC07F0530E020179
:103CC800DE6F340EDF6F200EE06F4D0EE16F310EA8
:103CD800E26F200EE36F530EE46F740EE56F6F0E04
:103CE800E66F700EE76F650EE86F640EE96FEA6BBA
:103CF800DE0E0301706F020E716F31EC07F0040ED7
:103D08000301706FA0EC0DF0005228E00001F2935F
:103D1800020E0301706FC7EC07F0530E0201EB6F40
:103D2800340EEC6F200EED6F4D0EEE6F320EEF6F0E
:103D3800200EF06F530EF16F740EF26F6F0EF36F6B
:103D4800700EF46F650EF56F640EF66FF76BEB0E81
:103D58000301706F020E716F31EC07F001010B5116
:103D6800010A53E173A151D00001F351000A4DE15A
:103D7800010E0301706FC7EC07F0020E0301706FAC
:103D8800C7EC07F0060E0001EE6F01010B6B000196
:103D9800F16BAB0EF66E710EF76E000EF86EF80E44
:103DA800E16E020EE26E110E006E010E016ED6EC8F
:103DB80003F0F80E0301706F020E716F31EC07F01B
:103DC800090E0301706FD6EC07F00C0E0501256F84
:103DD800010E266FAA0E276F000E286F100E296F8E
:103DE800000E2A6FF8EC00F0F90E256F000E266F12
:103DF8004D0E276F000E286F100E296F000E2A6FC8
:103E0800F8EC00F0010E01010A6F0001F151010AFE
:103E180054E1010173A351D00001F451000A4DE1AE
:103E2800010E0301706FC7EC07F0020E0301706FFB
:103E3800C7EC07F0060E0001EE6F01010B6B0001E5
:103E4800F16BBC0EF66E710EF76E000EF86E090E71
:103E5800E16E030EE26E110E006E010E016ED6ECDD
:103E680003F0090E0301706F030E716F31EC07F058
:103E7800090E0301706FD6EC07F00C0E0501256FD3
:103E8800010E266FAA0E276F000E286F100E296FDD
:103E9800000E2A6FF8EC00F0F90E256F000E266F61
:103EA8004D0E276F000E286F100E296F000E2A6F17
:103EB800F8EC00F0010E01010A6F01016951000AD6
:103EC80004E01D51010A01E002D00001F293010152
:103ED80074A14ED0010E0301706FC7EC07F0020EFB
:103EE8000301706FC7EC07F001010B6B0001F16B68
:103EF800060EEE6F010EA56FCD0EF66E710EF76E03
:103F0800000EF86E1A0EE16E030EE26E110E006ED0
:103F1800010E016ED6EC03F01A0E0301706F030E4A
:103F2800716F31EC07F0090E0301706FD6EC07F0E2
:103F38000C0E0501256F010E266FAA0E276F000EC5
:103F4800286F100E296F000E2A6FF8EC00F0F90E9A
:103F5800256F000E266F5E0E276F000E286F100E5D
:103F6800296F000E2A6FF8EC00F0010E01010A6FAC
:103F78007551010A4FE11E534DE0010E0301706FA8
:103F8800C7EC07F0020E0301706FC7EC07F0060ECE
:103F98000001EE6F01010B6B0001F16BDE0EF66E96
:103FA800710EF76E000EF86E2B0EE16E030EE26EC8
:103FB800150E006E010E016ED6EC03F02B0E0301F8
:103FC800706F030E716F31EC07F0090E0301706F0B
:103FD800D6EC07F00C0E0501256F010E266FAA0E10
:103FE800276F000E286F100E296F000E2A6FF8EC4D
:103FF80000F0F90E256F000E266F3C0E276F000E9D
:10400800286F100E296F000E2A6FF8EC00F0010ED1
:1040180001010A6F7251000A4DE0010E0301706F31
:10402800C7EC07F0020E0301706FC7EC07F0060E2D
:104038000001EE6F01010B6B0001F16BF30EF66EE0
:10404800710EF76E000EF86E400EE16E030EE26E12
:10405800120E006E010E016ED6EC03F0400E030145
:10406800706F030E716F31EC07F0090E0301706F6A
:10407800D6EC07F00C0E0501256F010E266FAA0E6F
:10408800276F000E286F100E296F000E2A6FF8ECAC
:1040980000F0F90E256F000E266F1A0E276F000E1E
:1040A800286F100E296F000E2A6FF8EC00F0010E31
:1040B80001010A6F0001F251000A28E1010EEE6FBA
:1040C800F56B090E0301706FD6EC07F00C0E0501B5
:1040D800256F010E266F2B0E276F000E286F100E0E
:1040E800296F000E2A6FF8EC00F0F90E256F000E0C
:1040F800266FCD0E276F000E286F100E296F000E49
:104108002A6FF8EC00F0010E01010A6F0001EE5170
:10411800050A04E0EE51060A01E04CD00301706B79
:10412800D6EC07F0000E01017C1902E1000E7B19A4
:1041380041E07B510001EA250301706F01017C51C8
:104148000001EB210301716F000E0001EC21030156
:10415800726F000E0001ED210301736F090E746F79
:104168009EEC05F0050EF66E720EF76E000EF86EF8
:10417800520EE16E030EE26E150E006E010E016E18
:10418800D6EC03F0520E706F030E716F31EC07F02E
:10419800F90E0501256F000E266F6F0E276F000EB2
:1041A800286F100E296F000E2A6FF8EC00F0010E30
:0641B80001010A6F120074
:1041BE00020E02018C6F839E01017251000A09E109
:1041CE00090E0301706FA0EC0DF00050010A01E022
:1041DE00DAD101016A51000A04E01D51010A01E021
:1041EE0088D0090E0301706FD6EC07F002018C51D6
:1041FE000001EA25006E000EEB21016E000EEC218F
:10420E00026E000EED21036E00C016F201C017F211
:10421E0002C018F203C019F200C070F301C071F3AE
:10422E0002C072F303C073F3010E0301746F9EECB0
:10423E0005F016C270F317C271F318C272F319C2E9
:10424E0073F3050E746F9EEC05F00001F36B020E16
:10425E00EA25006E000EEB21016E000EEC21026EBF
:10426E00000EED21036E02018C510026000E01227C
:10427E000222032200C016F201C017F202C018F289
:10428E0003C019F200C070F301C071F302C072F3E3
:10429E0003C073F30A0E0301746F9EEC05F0010167
:1042AE006B510001EA25006E000EEB21016E000E2F
:1042BE00EC21026E000EED21036E02018C510026E0
:1042CE00000E01220222032200C016F201C017F2D4
:1042DE0002C018F203C019F200C070F301C071F3EE
:1042EE0002C072F303C073F3030E0301746F9EECEE
:1042FE0005F001016A51000AD8B43CD11D51020AE1
:10430E00D8A438D1090E0301706FD6EC07F0020164
:10431E008C510001EA25006E000EEB21016E000E9D
:10432E00EC21026E000EED21036E00C016F201C0EC
:10433E0017F202C018F203C019F200C070F301C0E8
:10434E0071F302C072F303C073F3020E0301746FB4
:10435E009EEC05F016C270F317C271F318C272F319
:10436E0019C273F3060E746F9EEC05F00001F36B29
:10437E00020EEA25006E000EEB21016E000EEC21FE
:10438E00026E000EED21036E02018C510026000E0E
:10439E0001220222032200C016F201C017F202C04F
:1043AE0018F203C019F200C070F301C071F302C01D
:1043BE0072F303C073F30B0E0301746F9EEC05F0E2
:1043CE0001016B510001EA25006E000EEB21016E1A
:1043DE00000EEC21026E000EED21036E02018C51D7
:1043EE000026000E01220222032200C016F201C096
:1043FE0017F202C018F203C019F200C070F301C028
:10440E0071F302C072F303C073F3040E0301746FF1
:10441E009EEC05F001017A510001EA25006E000EB6
:10442E00EB21016E000EEC21026E000EED21036EEB
:10443E0002018C510026000E01220222032200C02E
:10444E0016F201C017F202C018F203C019F200C032
:10445E0070F301C071F302C072F303C073F3010E67
:10446E000301746F9EEC05F001017A510001EA25FB
:10447E00006E000EEB21016E000EEC21026E000E9E
:10448E00ED21036E02018C510026000E0122022244
:10449E00032200C016F201C017F202C018F203C0C8
:1044AE0019F200C070F301C071F302C072F303C0C1
:1044BE0073F3050E0301746F9EEC05F00001F46BAF
:1044CE0001017A510001EA25006E000EEB21016E0A
:1044DE00000EEC21026E000EED21036E020E002680
:1044EE00000E01220222032202018C510026000E30
:1044FE0001220222032200C016F201C017F202C0EE
:10450E0018F203C019F200C070F301C071F302C0BB
:10451E0072F303C073F30A0E0301746F9EEC05F081
:10452E0001016A510001EA25006E000EEB21016EB9
:10453E00000EEC21026E000EED21036E02018C5175
:10454E000026000E01220222032200C016F201C034
:10455E0017F202C018F203C019F200C070F301C0C6
:10456E0071F302C072F303C073F3030E0301746F91
:10457E009EEC05F0030E0001F26F01010B6B0001C2
:10458E00F16B070EEE6F010174A126D0000E7C199F
:10459E0002E1000E7B1920E00001F551000A1CE13A
:1045AE00010EF56F01EC0DF000C0F8F02C0EF66E5A
:1045BE00750EF76E000EF86E560EE16E020EE26E7E
:1045CE00160E006E010E016ED6EC03F0560E706FD5
:1045DE00020E716F31EC07F00001F551010A5AE13C
:1045EE00010174B157D0000E7C1902E1000E7B1947
:1045FE0051E00001F851EA25006E000EEB21016E2C
:10460E00000EEC21026E000EED21036E00C016F2BC
:10461E0001C017F202C018F203C019F200C070F305
:10462E0001C071F302C072F303C073F3090E0301EC
:10463E00746F9EEC05F00001F56B16C219F517C2EA
:10464E001AF518C21BF519C21CF50B0E05011D6FCC
:10465E00020E1E6FDEEC03F0420EF66E750EF76E56
:10466E00000EF86E6C0EE16E020EE26E100E006E13
:10467E00010E016ED6EC03F06C0E0301706F020E8C
:10468E00716F31EC07F00B0E0301706F020E716F3C
:06469E0031EC07F01200F0
:1046A400030E02018C6F839E01017251000A04E122
:1046B4000001A55301E141D10001A56B838E090ED0
:1046C4000301706FD6EC07F0010E0001EA25030127
:1046D400706F000E0001EB210301716F000E0001E9
:1046E400EC210301726F000E0001ED210301736FD1
:1046F4000C0E746F9EEC05F002018C510001EA254A
:10470400006E000EEB21016E000EEC21026E000E15
:10471400ED21036E00C016F201C017F202C018F2B8
:1047240003C019F200C070F301C071F302C072F348
:1047340003C073F3010E0301746F9EEC05F016C2FF
:1047440070F317C271F318C272F319C273F3050E32
:10475400746F9EEC05F00001F36B020EEA25006E07
:10476400000EEB21016E000EEC21026E000EED2115
:10477400036E02018C510026000E01220222032244
:1047840000C016F201C017F202C018F203C019F2F9
:1047940000C070F301C071F302C072F303C073F37D
:1047A4000A0E0301746F9EEC05F001016C510001C7
:1047B400EA25006E000EEB21016E000EEC21026E64
:1047C400000EED21036E02018C510026000E012221
:1047D4000222032200C016F201C017F202C018F22E
:1047E40003C019F200C070F301C071F302C072F388
:1047F40003C073F3030E0301746F9EEC05F0010113
:104804006951000AD8B48FD01D51020AD8A48BD0A4
:104814007A510001EA250301706F000E0001EB21BB
:104824000301716F000E0001EC210301726F000E91
:104834000001ED210301736F02018C510301702704
:10484400000E712372237323020E746F9EEC05F025
:1048540001017A510001EA250301706F000E000185
:10486400EB210301716F000E0001EC210301726F53
:10487400000E0001ED210301736F02018C5103014D
:104884007027000E712372237323060E746F9EEC3F
:1048940005F00001F46B01017A510001EA250301DE
:1048A400706F000E0001EB210301716F000E000117
:1048B400EC210301726F000E0001ED210301736FFF
:1048C400020E7027000E71237223732302018C5190
:1048D40003017027000E7123722373230B0E746F70
:1048E4009EEC05F0010169510001EA250301706F96
:1048F400000E0001EB210301716F000E0001EC2199
:104904000301726F000E0001ED210301736F0201B8
:104914008C5103017027000E712372237323040E3C
:10492400746F9EEC05F0030E0001A86F01010B6B80
:104934000001F16BF56B080EEE6F090E0301706F49
:10494400A0EC0DF00050010AD8A426D1090E0301F1
:10495400706FD6EC07F002018C510001EA25006E5D
:10496400000EEB21016E000EEC21026E000EED2113
:10497400036E00C016F201C017F202C018F203C0A1
:1049840019F200C070F301C071F302C072F303C0E6
:1049940073F3010E0301746F9EEC05F016C270F3FD
:1049A40017C271F318C272F319C273F3050E746F50
:1049B4009EEC05F00001F36B020EEA25006E000E7A
:1049C400EB21016E000EEC21026E000EED21036E50
:1049D40002018C510026000E01220222032200C093
:1049E40016F201C017F202C018F203C019F200C097
:1049F40070F301C071F302C072F303C073F30A0EC3
:104A04000301746F9EEC05F001016B510001EA256E
:104A1400006E000EEB21016E000EEC21026E000E02
:104A2400ED21036E02018C510026000E01220222A8
:104A3400032200C016F201C017F202C018F203C02C
:104A440019F200C070F301C071F302C072F303C025
:104A540073F3030E0301746F9EEC05F001016A51B8
:104A6400000AD8B48FD01D51020AD8A48BD07A5131
:104A74000001EA250301706F000E0001EB21030120
:104A8400716F000E0001EC210301726F000E000132
:104A9400ED210301736F02018C5103017027000E95
:104AA400712372237323020E746F9EEC05F00101CF
:104AB4007A510001EA250301706F000E0001EB2119
:104AC4000301716F000E0001EC210301726F000EEF
:104AD4000001ED210301736F02018C510301702762
:104AE400000E712372237323060E746F9EEC05F07F
:104AF4000001F46B01017A510001EA250301706F92
:104B0400000E0001EB210301716F000E0001EC2186
:104B14000301726F000E0001ED210301736F020E99
:104B24007027000E71237223732302018C51030139
:104B34007027000E7123722373230B0E746F9EEC87
:104B440005F001016B510001EA250301706F000EAD
:104B54000001EB210301716F000E0001EC21030140
:104B6400726F000E0001ED210301736F02018C517D
:104B740003017027000E712372237323040E746FD4
:104B84009EEC05F0030E0001F26F01010B6B0001B6
:104B9400F16BF56B070EEE6F010174A126D0000EC8
:104BA4007C1902E1000E7B1920E00001F551000A96
:104BB4001CE1010EF56F01EC0DF000C0F8F0630E7E
:104BC400F66E750EF76E000EF86E560EE16E020E5E
:104BD400E26E160E006E010E016ED6EC03F0560E58
:104BE400706F020E716F31EC07F00001F551010A8C
:104BF4005AE1010174B157D0000E7C1902E1000E94
:104C04007B1951E00001F851EA25006E000EEB21FA
:104C1400016E000EEC21026E000EED21036E00C049
:104C240016F201C017F202C018F203C019F200C054
:104C340070F301C071F302C072F303C073F3090E81
:104C44000301746F9EEC05F00001F56B16C219F5B3
:104C540017C21AF518C21BF519C21CF50B0E050173
:104C64001D6F020E1E6FDEEC03F0790EF66E750EEC
:104C7400F76E000EF86E6C0EE16E020EE26E100E10
:104C8400006E010E016ED6EC03F06C0E0301706F22
:104C9400020E716F31EC07F00B0E0301706F020E00
:084CA400716F31EC07F0120002
:104CAC00838E010E0301706F716BD4EC0CF0020E4D
:104CBC00706F716BD4EC0CF0010172A10ED0839E5D
:104CCC00010E0301706FC7EC07F0020E0301706F49
:0C4CDC00C7EC07F0010E0001EE6F1200A3
:104CE800030E0201566F839E01016E51020A04E110
:104CF800640E0001EE6FE96B0101725103081D6F2C
:104D08007251000AD8B4BBD2090E0301706FD6ECF9
:104D180007F0838E010E0001EA250301706F000E73
:104D28000001EB210301716F000E0001EC2103016A
:104D3800726F000E0001ED210301736F0C0E746F8A
:104D48009EEC05F0020156510001EA25006E000EA6
:104D5800EB21016E000EEC21026E000EED21036EB8
:104D680000C016F201C017F202C018F203C019F20F
:104D780000C070F301C071F302C072F303C073F393
:104D8800010E0301746F9EEC05F001016D51000ADC
:104D980011E016C270F317C271F318C272F319C288
:104DA80073F3070E0301746F9EEC05F0010E00010A
:104DB800F36F0FD016C270F317C271F318C272F3F3
:104DC80019C273F3050E0301746F9EEC05F0000120
:104DD800F36B01016D510001EA25006E000EEB2115
:104DE800016E000EEC21026E000EED21036E020E24
:104DF8000026000E0122022203220201565100263B
:104E0800000E01220222032200C016F201C017F28E
:104E180002C018F203C019F200C070F301C071F3A8
:104E280002C072F303C073F30A0E0301746F9EECA1
:104E380005F001016D510001EA25006E000EEB211D
:104E4800016E000EEC21026E000EED21036E0201D0
:104E580056510026000E01220222032200C016F23B
:104E680001C017F202C018F203C019F200C070F3B3
:104E780001C071F302C072F303C073F3050E03019E
:104E8800746F9EEC05F001017851000A30E06C5116
:104E98000001EA25006E000EEB21016E000EEC21E8
:104EA800026E000EED21036E01017851005E000EC6
:104EB800015A025A035A020156510026000E0122D5
:104EC8000222032200C016F201C017F202C018F233
:104ED80003C019F200C070F301C071F302C072F38D
:104EE80003C073F3070E0301746F9EEC05F0010114
:104EF8006C510001EA25006E000EEB21016E000ED8
:104F0800EC21026E000EED21036E020156510026BF
:104F1800000E01220222032200C016F201C017F27D
:104F280002C018F203C019F200C070F301C071F397
:104F380002C072F303C073F3030E0301746F9EEC97
:104F480005F001016951000AD8B45DD11D51020A6A
:104F5800D8A459D17A510001EA25006E000EEB2140
:104F6800016E000EEC21026E000EED21036E0201AF
:104F780056510026000E01220222032200C016F21A
:104F880001C017F202C018F203C019F200C070F392
:104F980001C071F302C072F303C073F3020E030180
:104FA800746F9EEC05F001016D51000A2DE07A51F5
:104FB8000001EA25006E000EEB21016E000EEC21C7
:104FC800026E000EED21036E020156510026000EFE
:104FD80001220222032200C016F201C017F202C009
:104FE80018F203C019F200C070F301C071F302C0D7
:104FF80072F303C073F3080E0301746F9EEC05F09F
:10500800010E0001F46F2CD001017A510001EA254C
:10501800006E000EEB21016E000EEC21026E000EF8
:10502800ED21036E020156510026000E01220222D4
:10503800032200C016F201C017F202C018F203C022
:1050480019F200C070F301C071F302C072F303C01B
:1050580073F3060E0301746F9EEC05F00001F46B08
:1050680001017A510001EA25006E000EEB21016E64
:10507800000EEC21026E000EED21036E01016D5150
:105088000026000E012202220322020E0026000E34
:10509800012202220322020156510026000E01229B
:1050A8000222032200C016F201C017F202C018F251
:1050B80003C019F200C070F301C071F302C072F3AB
:1050C80003C073F30B0E0301746F9EEC05F001012E
:1050D8007A510001EA25006E000EEB21016E000EE8
:1050E800EC21026E000EED21036E01016D510026C8
:1050F800000E012202220322020156510026000E50
:1051080001220222032200C016F201C017F202C0D7
:1051180018F203C019F200C070F301C071F302C0A5
:1051280072F303C073F3060E0301746F9EEC05F06F
:1051380001017851000A36E07A510001EA25006E33
:10514800000EEB21016E000EEC21026E000EED2127
:10515800036E010169510026000E0122022203227A
:105168007851005E000E015A025A035A0201565144
:105178000026000E01220222032200C016F201C0FE
:1051880017F202C018F203C019F200C070F301C090
:1051980071F302C072F303C073F3080E0301746F56
:1051A8009EEC05F0010169510001EA25006E000E30
:1051B800EB21016E000EEC21026E000EED21036E54
:1051C80001017A510026000E012202220322020167
:1051D80056510026000E01220222032200C016F2B8
:1051E80001C017F202C018F203C019F200C070F330
:1051F80001C071F302C072F303C073F3040E03011C
:10520800746F9EEC05F0000E01017C1902E1000E9E
:105218007B192BE07B510001EA25006E01017C51CE
:105228000001EB21016E000EEC21026E000EED2153
:10523800036E020156510026000E012202220322AB
:1052480000C016F201C017F202C018F203C019F22A
:1052580000C070F301C071F302C072F303C073F3AE
:10526800090E0301746F9EEC05F0030E0001A86F90
:1052780001010B6B0001F16B030EEE6FF56B120071
:1052880083B606D00001DF51140801E3DF2B02D0FA
:105298000001DF6B140EDF5D03E3010E006E1200E8
:0452A800006A120086
:1052AC00838E010E0301706FA0EC0DF000524DE0E7
:1052BC00010E0301706F010E716FD4EC0CF0530EE4
:1052CC000201566F330E576F200E586F4D0E596FEB
:1052DC006F0E5A6F740E5B6F6F0E5C6F720E5D6F9C
:1052EC00310E5E6F530E5F6F740E606F610E616FE7
:1052FC00720E626F740E636F646B560E0301706FE7
:10530C00020E716F31EC07F0839C0C0E0501256FBA
:10531C00010E266F830E276F000E286F100E296F5B
:10532C00000E2A6FF8EC00F0F90E256F000E266FB8
:10533C00CD0E276F000E286F100E296F000E2A6FEE
:10534C00F8EC00F0010E01010A6F020E0301706F00
:10535C00A0EC0DF000522DE0020E0301706F010E57
:10536C00716FD4EC0CF0530E0201656F330E666F47
:10537C00200E676F4D0E686F6F0E696F740E6A6F3B
:10538C006F0E6B6F720E6C6F320E6D6F530E6E6F05
:10539C00740E6F6F610E706F720E716F740E726F90
:1053AC00736B650E0301706F020E716F31EC07F0B9
:1053BC00839C050E0301706FA0EC0DF0005230E0E1
:1053CC00010E0301706FBBC071F39EEC0CF0010178
:1053DC000B6B0001F36B530E0201746F330E756F80
:1053EC00200E766F4D0E776F6F0E786F740E796F8F
:1053FC006F0E7A6F720E7B6F310E7C6F200E7D6F8D
:10540C00460E7E6F610E7F6F730E806F740E816F10
:10541C00826B740E0301706F020E716F31EC07F02A
:10542C00070E0301706FA0EC0DF000522EE003018B
:10543C00706BBBC071F39EEC0CF0010E0001F36FAE
:10544C00530E0201836F330E846F200E856F4D0E49
:10545C00866F6F0E876F740E886F6F0E896F720E6A
:10546C008A6F310E8B6F200E8C6F530E8D6F6C0EFE
:10547C008E6F6F0E8F6F770E906F916B830E030193
:10548C00706F020E716F31EC07F0060E0301706F36
:10549C00A0EC0DF000522FE0A9C070F3010E030137
:1054AC00716F9EEC0CF00001F16BF46B530E02016A
:1054BC00926F330E936F200E946F4D0E956F6F0E8F
:1054CC00966F740E976F6F0E986F720E996F320EF7
:1054DC009A6F200E9B6F460E9C6F610E9D6F730E24
:1054EC009E6F740E9F6FA06B920E0301706F020E75
:1054FC00716F31EC07F0080E0301706FA0EC0DF02A
:10550C0000522EE0A9C070F30301716B9EEC0CF0FD
:10551C00010E0001F46F530E0201A16F330EA26F46
:10552C00200EA36F4D0EA46F6F0EA56F740EA66F99
:10553C006F0EA76F720EA86F320EA96F200EAA6F96
:10554C00530EAB6F6C0EAC6F6F0EAD6F770EAE6F04
:10555C00AF6BA10E0301706F020E716F31EC07F08F
:10556C000A0E0301706FA0EC0DF000521FE0010E4B
:10557C0001010B6F010E0301706FF0EC0CF0490E82
:10558C00F66E700EF76E000EF86EB00EE16E020E37
:10559C00E26E160E006E010E016ED6EC03F0B00E2C
:1055AC000301706F020E716F31EC07F00B0E0301EB
:1055BC00706FA0EC0DF000521FE0010E0001F16FB6
:1055CC00020E0301706FF0EC0CF05F0EF66E700EB5
:1055DC00F76E000EF86EC60EE16E020EE26E160E3F
:1055EC00006E010E016ED6EC03F0C60E0301706F57
:1055FC00020E716F31EC07F0030E0301706FA0EC1B
:10560C000DF000522CE00001A891010E0301706F07
:10561C00C7EC07F0530E0201DC6F330EDD6F200E6A
:10562C00DE6F4D0EDF6F6F0EE06F740EE16F6F0E5D
:10563C00E26F720EE36F310EE46F200EE56F530EC6
:10564C00E66F740EE76F6F0EE86F700EE96FEA6B22
:10565C00DC0E0301706F020E716F31EC07F0040E5B
:10566C000301706FA0EC0DF000522CE00001A89328
:10567C00020E0301706FC7EC07F0530E0201EB6FC3
:10568C00330EEC6F200EED6F4D0EEE6F6F0EEF6F55
:10569C00740EF06F6F0EF16F720EF26F320EF36FBD
:1056AC00200EF46F530EF56F740EF66F6F0EF76FCE
:1056BC00700EF86FF96BEB0E0301706F020E716FC9
:1056CC0031EC07F00C0E0301706FA0EC0DF00052E2
:1056DC0001E0838C01010B51010A53E173A151D0FC
:1056EC000001F351000A4DE1010E0301706FC7EC8C
:1056FC0007F0020E0301706FC7EC07F0050E0001F6
:10570C00EE6F01010B6B0001F16B930EF66E700ED8
:10571C00F76E000EF86EFA0EE16E020EE26E140ECB
:10572C00006E010E016ED6EC03F0FA0E0301706FE1
:10573C00020E716F31EC07F0090E0301706FD6EC9D
:10574C0007F00C0E0501256F010E266FAA0E276FB0
:10575C00000E286F100E296F000E2A6FF8EC00F067
:10576C00F90E256F000E266F4D0E276F000E286F59
:10577C00100E296F000E2A6FF8EC00F0010E0101DB
:10578C000A6F0001F151010A54E1010173A351D0D8
:10579C000001F451000A4DE1010E0301706FC7ECDA
:1057AC0007F0020E0301706FC7EC07F0050E000145
:1057BC00EE6F01010B6B0001F16BA70EF66E700E14
:1057CC00F76E000EF86E0E0EE16E030EE26E140E06
:1057DC00006E010E016ED6EC03F00E0E0301706F1D
:1057EC00030E716F31EC07F0090E0301706FD6ECEC
:1057FC0007F00C0E0501256F010E266FAA0E276F00
:10580C00000E286F100E296F000E2A6FF8EC00F0B6
:10581C00F90E256F000E266F4D0E276F000E286FA8
:10582C00100E296F000E2A6FF8EC00F0010E01012A
:10583C000A6F01016951000A04E01D51010A01E0DF
:10584C0002D00001A893010174A14ED01F534CE06B
:10585C00010E0301706FC7EC07F0020E0301706FAD
:10586C00C7EC07F001010B6B0001F16B050EEE6F3D
:10587C00BB0EF66E700EF76E000EF86E220EE16E19
:10588C00030EE26E110E006E010E016ED6EC03F0EB
:10589C00220E0301706F030E716F31EC07F0090ECD
:1058AC000301706FD6EC07F00C0E0501256F010E8D
:1058BC00266FAA0E276F000E286F100E296F000E90
:1058CC002A6FF8EC00F0F90E256F000E266F5E0EB5
:1058DC00276F000E286F100E296F000E2A6FF8EC40
:1058EC0000F0010E01010A6F7251000A4CE0010E2A
:1058FC000301706FC7EC07F0020E0301706FC7EC69
:10590C0007F001010B6B0001F16B050EEE6FCC0E75
:10591C00F66E700EF76E000EF86E330EE16E030E1F
:10592C00E26E110E006E010E016ED6EC03F0330E1A
:10593C000301706F030E716F31EC07F0090E030158
:10594C00706FD6EC07F00C0E0501256F010E266F5B
:10595C00AA0E276F000E286F100E296F000E2A6FEB
:10596C00F8EC00F0F90E256F000E266F1A0E276F5B
:10597C00000E286F100E296F000E2A6FF8EC00F045
:10598C00010E01010A6F7551010A4EE11E534CE0E4
:10599C00010E0301706FC7EC07F0020E0301706F6C
:1059AC00C7EC07F001010B6B0001F16B050EEE6FFC
:1059BC00DD0EF66E700EF76E000EF86E440EE16E94
:1059CC00030EE26E170E006E010E016ED6EC03F0A4
:1059DC00440E0301706F030E716F31EC07F0090E6A
:1059EC000301706FD6EC07F00C0E0501256F010E4C
:1059FC00266FAA0E276F000E286F100E296F000E4F
:105A0C002A6FF8EC00F0F90E256F000E266F3C0E95
:105A1C00276F000E286F100E296F000E2A6FF8ECFE
:105A2C0000F0010E01010A6F0001A851000A28E1E3
:105A3C00020EEE6FF56B090E0301706FD6EC07F0DA
:105A4C000C0E0501256F010E266F940E276F000EAC
:105A5C00286F100E296F000E2A6FF8EC00F0F90E6B
