:0400000029EF38F0BC
:1000080000C019F001C018F004C017F008C016F0BD
:100018000CC015F0F2A42AD00101702B8088010EC3
:10002800416F8251FF0A03E1826B836B01D0822BFF
:10003800C951FF0A03E1C96B466B01D0C92B190EE0
:10004800705D0FE3706B010E7427000E7523762325
:1000580077237253010ED8A4000E726F8098010E98
:10006800406FF30ED76ECA0ED66EF294F0A017D07A
:1000780001018351000A03E1832B826B01D0832B9A
:10008800050E835D0BE3130E825D07E382511508AD
:1000980004E3010E446F836B01D0836BF090F0A2F0
:1000A80017D001014651000A03E1462BC96B01D064
:1000B800462B050E465D0BE3130EC95D07E3C951D8
:1000C800150804E3010E456F466B01D0466BF092AC
:1000D800F2A231D0522A5250FF0A02E1020E526EA9
:1000E800030E046E52C000F068D808C000F000503B
:1000F800010A10E11A5206E00101795302E08186F3
:1001080001D081961B5206E001017A5302E08188F2
:1001180001D08198030E046E52C000F04ED808C07A
:1001280000F00050000A06E11A5201E081861B52D5
:1001380001E08188F29219C000F018C001F017C0E0
:0C01480004F016C008F015C00CF0110007
:1001540084C5C9FFC7B002D00000FCD7C9CF00F0E6
:02016400120087
:0E016600ACB202D00000FCD784C5ADFF120081
:10017400086A096A100E0C6E0134083609360450F8
:10018400085E0550D8A0053C095ED8B007D00450DD
:1001940008260550D8B0053C0926D890003601360B
:0601A4000C2EEAD7120048
:1001AA00F250026EF29E0500FF6A0150FE6E005088
:0801BA00FD6E02BEF28E120080
:1001C200086A080E0C6E003408360450085ED8B077
:0E01D20002D00826D89000360C2EF5D7120069
:1001E0000501816B050E815D0AE281517F25E16E7B
:1001F000000E8021E26E200EE66E812BF3D7815136
:100200007F25E16E000E8021E26EE66A8107815152
:100210007F25826F000E8021836F0A0E046E000E10
:10022000056E7DC500F07EC501F0A4DF08C000F0BA
:1002300009C001F0300E002682C5E1FF83C5E2FF50
:1002400000C0E6FF0A0E046E000E056E7DC500F0CC
:100250007EC501F08FDF00C07DF501C07EF5000E88
:10026000011802E1000E001801E102D08107CFD78A
:0202700012007A
:100272009BC1E1FF9CC1E2FF7DC5E6FF99C100F091
:080282009AC101F091DF1200A6
:10028A007FC504F080C505F07DC502F07EC503F088
:10029A0081C500F082C501F0010E0501815F000EE3
:1002AA00825B005001100FE004C0E9FF05C0EAFFBD
:1002BA0002C0E1FF03C0E2FFEECFE6FF024A032AD3
:1002CA00044A052AE5D77DC500F07EC501F0120073
:1002DA000B6A0A6A096A086A0E6A03340836045005
:1002EA00085E0550D8A0053C095E0650D8A0063C19
:1002FA000A5E0750D8A0073C0B5EE86AD8A0010E38
:10030A000E5E0336070E0C6E0334083609360A36BB
:10031A000B360E36045003A012D0085E0550D8A042
:10032A00053C095E0650D8A0063C0A5E0750D8A0D4
:10033A00073C0B5EE86AD8A0010E0E5E11D00826B3
:10034A000550D8B0053C09260650D8B0063C0A2606
:10035A000750D8B0073C0B26E86AD8B0010E0E2623
:10036A0003360C2ED1D70234083609360A360B3634
:10037A000E36045003A012D0085E0550D8A0053CE2
:10038A00095E0650D8A0063C0A5E0750D8A0073C72
:10039A000B5EE86AD8A0010E0E5E11D00826055041
:1003AA00D8B0053C09260650D8B0063C0A260750A4
:1003BA00D8B0073C0B26E86AD8B0010E0E260236E2
:1003CA00070E0C6E0234083609360A360B360E361C
:1003DA00045002A012D0085E0550D8A0053C095E60
:1003EA000650D8A0063C0A5E0750D8A0073C0B5E10
:1003FA00E86AD8A0010E0E5E11D008260550D8B0C2
:10040A00053C09260650D8B0063C0A260750D8B043
:10041A00073C0B26E86AD8B0010E0E2602360C2ECF
:10042A00D1D70134083609360A360B360E3604504F
:10043A0002A012D0085E0550D8A0053C095E0650FD
:10044A00D8A0063C0A5E0750D8A0073C0B5EE86AB3
:10045A00D8A0010E0E5E11D008260550D8B0053C72
:10046A0009260650D8B0063C0A260750D8B0073CE1
:10047A000B26E86AD8B0010E0E260136070E0C6E5E
:10048A000134083609360A360B360E36045001A0F6
:10049A0012D0085E0550D8A0053C095E0650D8A0C7
:1004AA00063C0A5E0750D8A0073C0B5EE86AD8A053
:1004BA00010E0E5E11D008260550D8B0053C09265B
:1004CA000650D8B0063C0A260750D8B0073C0B267F
:1004DA00E86AD8B0010E0E2601360C2ED1D70034A8
:1004EA00083609360A360B360E36045001A012D0E9
:1004FA00085E0550D8A0053C095E0650D8A0063C07
:10050A000A5E0750D8A0073C0B5EE86AD8A0010E25
:10051A000E5E11D008260550D8B0053C09260650B3
:10052A00D8B0063C0A260750D8B0073C0B26E86A22
:10053A00D8B0010E0E260036070E0C6E00340836AF
:10054A0009360A360B360E36045000A012D0085E61
:10055A000550D8A0053C095E0650D8A0063C0A5EA4
:10056A000750D8A0073C0B5EE86AD8A0010E0E5EC1
:10057A0011D008260550D8B0053C09260650D8B037
:10058A00063C0A260750D8B0073C0B26E86AD8B0C2
:10059A00010E0E2600360C2ED1D700B00ED0045014
:1005AA0008260550D8B0053C09260650D8B0063CA6
:0C05BA000A260750D8B0073C0B261200A0
:1005C6000501806B030E805D0AE280517E25E16E97
:1005D600000E7F21E26E200EE66E802BF3D780514F
:1005E6007E25E16E000E7F21E26EE66A800780516D
:1005F6007E25816F000E7F21826F0A0E046E7DC5F7
:1006060000F0DCDD08C000F0300E002681C5E1FFF9
:1006160082C5E2FF00C0E6FF0A0E046E7DC500F04B
:10062600CDDD00C07DF50050000A01E102D0800753
:04063600DED71200F9
:10063A00A6A202D00000FCD7A69C7DC5A9FF7EC554
:10064A00A8FFA69EA684F2CF00F0F29E550EA76ED2
:10065A00AA0EA76EA68200BE02D0F29E01D0F28E2A
:04066A00A694120040
:10066E004ED00101966B976BFF0E986F67D001010C
:10067E00440E966F020E976FC80E986F5FD00101F1
:10068E00580E966F020E976F960E986F57D0010107
:10069E008A0E966F020E976F640E986F4FD00101FF
:1006AE008A0E966F020E976F500E986F47D001010B
:1006BE00A80E966F020E976F960E986F3FD001019F
:1006CE00A80E966F020E976F640E986F37D00101C9
:1006DE00A80E966F020E976F320E986F2FD00101F3
:1006EE00D00E966F020E976F640E986F27D0010191
:1006FE00EE0E966F020E976F320E986F1FD0050199
:10070E007D51000AAEE07D51010AB1E07D51020A31
:10071E00B6E07D51030ABBE07D51040AC0E07D5175
:10072E00050AC5E07D51060ACAE07D51070ACFE0F1
:0E073E007D51080AD4E07D51090AD9E012006D
:10074C000501746B71C5E9FF72C5EAFFEECF73F555
:10075C007351000A0EE073C57DF585DD0501742B20
:10076C0074517125E96E000E7221EA6EEECF73F5AD
:04077C00EFD71200A1
:1007800071C57DF505017D337D9F72C57EF573C50D
:100790007FF519DF010E7115016E0150010A17E195
:1007A000030E72257D6F000E73217E6F2E0E746F07
:1007B000350E756F730E766F776B740E7F6F050E47
:1007C000806F040E816F000E826F5FDD16D0030E06
:1007D00072257D6F000E73217E6F730E786F200E71
:1007E000796F200E7A6F7B6B780E7F6F050E806FAE
:0C07F000040E816F000E826F48DD1200C5
:0A07FC00490E0D6E0D2EFED71200FF
:100806000B6A0A6A096A00500402F4CF09F0F3CFB2
:1008160008F001500502F4CF0BF0F3CF0AF00050B8
:100826000502F3500926F4500A22E86A0B22015009
:100836000402F3500926F4500A22E86A0B2208C083
:1008460000F009C001F00AC002F00BC003F012006C
:100856000501776B0A0E775D0AE277517525E16E21
:10086600000E7621E26E300EE66E772BF3D77751C7
:100876007525E16E000E7621E26EE66A7707000EB8
:10088600006E741908E10050731905E100507219E1
:1008960002E17151000A3EE077517525786F000E2E
:1008A6007621796F0A0E046E000E056E066E076ECF
:1008B60071C500F072C501F073C502F074C503F08E
:1008C60009DD08C000F009C001F00AC002F00BC043
:1008D60003F0300E002678C5E1FF79C5E2FF00C0BF
:1008E600E6FF77070A0E046E000E056E066E076EAB
:1008F60071C500F072C501F073C502F074C503F04E
:10090600E9DC00C071F501C072F502C073F503C0E1
:0609160074F5B5D71200D4
:10091C000900F5CFE6FF0006FBE10106F9E1120044
:10092C00C7B409D01F0EC514016E0150000A03E1B3
:0A093C00010E006E01D0006A1200E7
:100946000501746B71C5E9FF72C5EAFFEECF73F559
:100956007351000A0EE073C584F502DC0501742BA1
:1009660074517125E96E000E7221EA6EEECF73F5B1
:04097600EFD71200A5
:10097A00010E05017D6F8CC27EF55ADE020E05015D
:10098A007D6F8EC27EF554DE030E05017D6F8FC228
:10099A007EF54EDE040E05017D6F8DC27EF548DEC2
:1009AA00050E05017D6FF7C17EF542DE060E0501D3
:1009BA007D6F93C27EF53CDE070E05017D6F92C204
:1009CA007EF536DE080E05017D6F90C27EF530DEBB
:1009DA00090E05017D6F91C27EF52ADE0A0E050118
:1009EA007D6FF9C17EF524DE0B0E05017D6FF8C11E
:1009FA007EF51EDE0C0E05017D6F7EC17EF518DECA
:100A0A0001017E51090805017D6F2CDE0D0E0501DD
:100A1A007D6FFFC17EF50CDE0E0E05017D6FFAC1FA
:100A2A007EF506DE0F0E05017D6FF5C17EF500DE4F
:0E0A3A00100E05017D6FF6C17EF5FADD12008B
:100A480071C57DF572C57EF505017E337D337E9FC8
:100A580073C57FF574C580F5F0EC00F0010E7115D3
:100A6800016E72C502F0000E0216000E021802E1B5
:100A7800010E011818E1050E73257D6F000E742113
:100A88007E6F2E0E756F350E766F730E776F786BDF
:100A9800750E7F6F050E806F040E816F000E826FDA
:100AA80045EC01F017D0050E73257D6F000E7421FB
:100AB8007E6F730E796F200E7A6F200E7B6F7C6BC2
:100AC800790E7F6F050E806F040E816F000E826FA6
:060AD80045EC01F01200E4
:100ADE00A69C71C5A9FFA69EA680A8CF00F0120005
:100AEE00010E0301C825016E000EC921026E01C060
:100AFE00E9FF02C0EAFF0A0EEE24006E01C0E1FF1C
:100B0E0002C0E2FF00C0E6FF030EC825016E000E14
:100B1E00C921026E01C0E9FF02C0EAFF0A0EEE24EF
:100B2E00006E01C0E1FF02C0E2FF00C0E6FFC8C3D5
:100B3E00E9FFC9C3EAFFEECF00F0C8C3E1FFC9C3A6
:100B4E00E2FF0A0E0024E66E020EC825016E000EAC
:100B5E00C921026E01C0E9FF02C0EAFF0A0EEE24AF
:100B6E00006E01C0E1FF02C0E2FF00C0E6FF040E0E
:100B7E00C825E16E000EC921E26E040EE66E060E69
:100B8E00C825E16E000EC921E26E040EE66E080E57
:100B9E00C825E16E000EC921E26E040EE66E0A0E45
:100BAE00C825E16E000EC921E26E040EE66E050E3A
:100BBE00C825E16E000EC921E26E0A0EE66E090E20
:100BCE00C825E16E000EC921E26E0A0EE66E070E12
:100BDE00C825E16E000EC921E26E0A0EE66E0B0EFE
:100BEE00C825E16E000EC921E26E0A0EE66E1200F5
:100BFE00C8C37DF505017D337D9FC9C37EF5CAC38C
:100C0E007FF5DADC030E0301C92505017D6F000EA9
:100C1E000301CA2105017E6F730E0301CB6F200EF7
:100C2E00CC6F200ECD6FCE6BCB0E05017F6F030EFA
:100C3E00806F040E816F000E826F45EC01F0120082
:100C4E00020E01014B6F5D0E05017D6F010E7E6F71
:100C5E00340EF66E710EF76E000EF86EC80EE16E63
:100C6E00030EE26E110E006E010E016E50DEC80E06
:100C7E007F6F030E806F100E816F000E826F45EC3A
:100C8E0001F001017151000A64E14C0E05017D6F06
:100C9E00010E7E6F450EF66E710EF76E000EF86E3B
:100CAE00D90EE16E030EE26E110E006E010E016E94
:100CBE002EDED90E7F6F030E806F100E816F000E29
:100CCE00826F45EC01F0010E0101496F6F51000A70
:100CDE001EE15D0E05017D6F010E7E6F560EF66EE6
:100CEE00710EF76E000EF86EEA0EE16E030EE26EF6
:100CFE00110E006E010E016E0ADEEA0E7F6F030EFC
:100D0E00806F100E816F000E826F45EC01F00101B5
:100D1E006F51010A1EE15D0E05017D6F010E7E6FA2
:100D2E00670EF66E710EF76E000EF86EFB0EE16E2C
:100D3E00030EE26E110E006E010E016EE8DDFB0E6B
:100D4E007F6F030E806F100E816F000E826F45EC69
:100D5E0001F001017151010A29E14C0E05017D6F6F
:100D6E00010E7E6F780EF66E710EF76E000EF86E37
:100D7E000C0EE16E040EE26E110E006E010E016E8F
:100D8E00C6DD0C0E7F6F040E806F100E816F000E8D
:100D9E00826F45EC01F0010E0101496F8CC271F5B5
:100DAE00630E0501726F010E736FE3DC0101715169
:100DBE00020A29E14C0E05017D6F010E7E6F890E30
:100DCE00F66E710EF76E000EF86E1D0EE16E040ECD
:100DDE00E26E110E006E010E016E99DD1D0E7F6F1B
:100DEE00040E806F100E816F000E826F45EC01F0C5
:100DFE00010E0101496F8EC271F5630E0501726F0E
:100E0E00010E736FB6DC01017151030A29E14C0E1C
:100E1E0005017D6F010E7E6F9A0EF66E710EF76EE6
:100E2E00000EF86E2E0EE16E040EE26E110E006EC6
:100E3E00010E016E6CDD2E0E7F6F040E806F100E94
:100E4E00816F000E826F45EC01F0010E0101496FBA
:100E5E008FC271F5630E0501726F010E736F89DC1F
:100E6E0001017151040A29E14C0E05017D6F010E3D
:100E7E007E6FAB0EF66E710EF76E000EF86E3F0EB5
:100E8E00E16E040EE26E110E006E010E016E3FDD7C
:100E9E003F0E7F6F040E806F100E816F000E826FFB
:100EAE0045EC01F0010E0101496F8DC271F5630E23
:100EBE000501726F010E736F5CDC01017151050A41
:100ECE0029E14C0E05017D6F010E7E6FBC0EF66E94
:100EDE00710EF76E000EF86E500EE16E040EE26E9D
:100EEE00110E006E010E016E12DD500E7F6F040E9C
:100EFE00806F100E816F000E826F45EC01F0010EB7
:100F0E000101496F93C271F5630E0501726F010EF7
:100F1E00736F2FDC01017151060A29E14C0E050198
:100F2E007D6F010E7E6FCD0EF66E710EF76E000E9A
:100F3E00F86E610EE16E040EE26E110E006E010E81
:100F4E00016EE5DC610E7F6F040E806F100E816FF7
:100F5E00000E826F45EC01F0010E0101496F92C245
:100F6E0071F5630E0501726F010E736F02DC0101E4
:100F7E007151070A2AE14C0E05017D6F010E7E6F3D
:100F8E00DE0EF66E710EF76E000EF86E720EE16EDC
:100F9E00040EE26E110E006E010E016EB8DC720EC2
:100FAE007F6F040E806F100E816F000E826F45EC06
:100FBE0001F0010E0101496F90C271F5630E05013A
:100FCE00726F010E736FC0EC03F001017151080ACC
:100FDE002AE14C0E05017D6F010E7E6FEF0EF66E4F
:100FEE00710EF76E000EF86E830EE16E040EE26E59
:100FFE00110E006E010E016E8ADC830E7F6F040EE1
:10100E00806F100E816F000E826F45EC01F0010EA5
:10101E000101496F91C271F5630E0501726F010EE8
:10102E00736FC0EC03F001017151090A2DE14C0EF2
:10103E0005017D6F010E7E6F000EF66E720EF76E5D
:10104E00000EF86E940EE16E040EE26E110E006E3E
:10105E00010E016E5CDC940E7F6F040E806F100E1D
:10106E00816F000E826F45EC01F0010E0101496F98
:10107E007EC17DF5630E05017E6F010E7F6FE3EC81
:10108E0002F0200E0101666F71510A0A2AE14C0E20
:10109E0005017D6F010E7E6F110EF66E720EF76EEC
:1010AE00000EF86EA50EE16E040EE26E110E006ECD
:1010BE00010E016E2CDCA50E7F6F040E806F100EDC
:1010CE00816F000E826F45EC01F0010E0101496F38
:1010DE00F7C171F5630E0501726F010E736FC0ECEF
:1010EE0003F0010171510B0A2CE14C0E05017D6FCD
:1010FE00010E7E6F220EF66E720EF76E000EF86EF9
:10110E00B60EE16E040EE26E110E006E010E016E51
:10111E008EEC04F0B60E7F6F040E806F100E816F92
:10112E00000E826F45EC01F0010E0101496FF8C10E
:10113E0071F5F9C172F5610E0501736F010E746FD1
:10114E007CDC010171510C0A22E14C0E05017D6F10
:10115E00010E7E6F330EF66E720EF76E000EF86E87
:10116E00C70EE16E040EE26E110E006E010E016EE0
:10117E008EEC04F0C70E7F6F040E806F100E816F21
:10118E00000E826F45EC01F0010E0101496F7151A5
:10119E000D0A68E14C0E05017D6F010E7E6F440E47
:1011AE00F66E720EF76E000EF86ED80EE16E040E2D
:1011BE00E26E110E006E010E016E8EEC04F0D80E72
:1011CE007F6F040E806F100E816F000E826F45ECE4
:1011DE0001F0010E0101496FF551000A21E1630E84
:1011EE0005017D6F010E7E6F4E0E0401E96F6F0ECD
:1011FE00EA6F200EEB6F200EEC6F200EED6F200EBF
:10120E00EE6F200EEF6FF06BE90E05017F6F040E8F
:10121E00806F070E816F000E826F45EC01F022D0B9
:10122E000501630E7D6F010E7E6F590E0401F16F85
:10123E00650EF26F730EF36F200EF46F200EF56FC6
:10124E00200EF66F200EF76F200EF86FF96BF10E71
:10125E0005017F6F040E806F080E816F000E826F86
:10126E0045EC01F0010171510E0A64E14C0E0501CD
:10127E007D6F010E7E6F660EF66E720EF76E000EAD
:10128E00F86EFA0EE16E040EE26E110E006E010E95
:10129E00016E8EEC04F0FA0E7F6F040E806F100E4E
:1012AE00816F000E826F45EC01F0010E0101496F56
:1012BE00F651000A1FE1630E05017D6F010E7E6F70
:1012CE004E0E0B6F6F0E0C6F200E0D6F200E0E6FED
:1012DE00200E0F6F200E106F200E116F126B0B0E63
:1012EE007F6F050E806F070E816F000E826F45ECCB
:1012FE0001F020D00501630E7D6F010E7E6F590E39
:10130E00136F650E146F730E156F200E166F200E71
:10131E00176F200E186F200E196F200E1A6F1B6B91
:10132E00130E7F6F050E806F080E816F000E826F99
:10133E0045EC01F0010171510F0A64E14C0E0501FB
:10134E007D6F010E7E6F880EF66E720EF76E000EBA
:10135E00F86E1C0EE16E050EE26E110E006E010EA1
:10136E00016E8EEC04F01C0E7F6F050E806F100E5A
:10137E00816F000E826F45EC01F0010E0101496F85
:10138E00FA51000A1FE1630E05017D6F010E7E6F9B
:10139E004E0E2D6F6F0E2E6F200E2F6F200E306F94
:1013AE00200E316F200E326F200E336F346B2D0EE8
:1013BE007F6F050E806F070E816F000E826F45ECFA
:1013CE0001F020D00501630E7D6F010E7E6F590E68
:1013DE00356F650E366F730E376F200E386F200E19
:1013EE00396F200E3A6F200E3B6F200E3C6F3D6B17
:1013FE00350E7F6F050E806F080E816F000E826FA7
:10140E0045EC01F001017151100A2BE14C0E050162
:10141E007D6F010E7E6FAA0EF66E720EF76E000EC7
:10142E00F86E3E0EE16E050EE26E110E006E010EAE
:10143E00016E8EEC04F03E0E7F6F050E806F100E67
:10144E00816F000E826F45EC01F0010E0101496FB4
:10145E00FFC171F5630E0501726F010E736FC0EC63
:10146E0003F001017151110A22E14C0E05017D6F4D
:10147E00010E7E6FBB0EF66E720EF76E000EF86EDC
:10148E004F0EE16E050EE26E110E006E010E016E34
:10149E008EEC04F04F0E7F6F050E806F100E816F75
:1014AE00000E826F45EC01F0010E0101496F715182
:1014BE00120A22E14C0E05017D6F010E7E6FCC0EDD
:1014CE00F66E720EF76E000EF86E600EE16E050E81
:1014DE00E26E110E006E010E016E8EEC04F0600EC7
:1014EE007F6F050E806F100E816F000E826F45ECC0
:0E14FE0001F0010E0101496F650E4A6F1200E8
:10150C00010E0301C825E96E000EC921EA6EEECF6B
:10151C008CF2C8C3E9FFC9C3EAFFEECF8FF2CA5100
:10152C00020AD8A485D0030EC825E96E000EC92185
:10153C00EA6EEECF8EF2020EC825E96E000EC921BE
:10154C00EA6EEECF8DF2040EC825E96E000EC921AD
:10155C00EA6E080EC825D96E000EC921DA6EDE506F
:10156C00EE24036E046A000E042203C000F004C0D3
:10157C0001F001320032019E01BC018E00C093F2D9
:10158C00050EC825E96E000EC921EA6E090EC825A4
:10159C00D96E000EC921DA6EDE50EE24036E046A99
:1015AC00000E042203C000F004C001F0013200322E
:1015BC00019E01BC018E00C092F2060EC825E96E98
:1015CC00000EC921EA6E0A0EC825D96E000EC9217B
:1015DC00DA6EDE50EE24036E046A000E042203C0A1
:1015EC0000F004C001F001320032019E01BC018EFA
:1015FC0000C090F2070EC825E96E000EC921EA6EF4
:10160C000B0EC825D96E000EC921DA6EDE50EE2401
:10161C00036E046A000E042203C000F004C001F043
:10162C0001320032019E01BC018E00C091F224D027
:10163C0002018E6B8D6B040E0301C825E96E000E42
:10164C00C921EA6EEECF93F2050EC825E96E000EA5
:10165C00C921EA6EEECF92F2060EC825E96E000E95
:10166C00C921EA6EEECF90F2070EC825E96E000E86
:0E167C00C921EA6EEECF91F2BDEC04F012002F
:10168A000101CC510301C81905E10101CC6B010E1E
:10169A00006E12000101CD510301C81905E10101D3
:1016AA00CD6B010E006E12000101CE510301C81963
:1016BA0005E10101CE6B010E006E1200006A1200F4
:1016CA000301C86B140EC85D53E2C8C300F0000ED4
:1016DA00016E070E046E000E056E03EC04F0000E98
:1016EA000026020E0122050E0024E96E000E0120DA
:1016FA00EA6EEE50000A3AE1C8C300F0000E016E2D
:10170A00070E046E000E056E03EC04F0000E0024B2
:10171A00E96E020E0120EA6EEECF01F00150090ACD
:10172A0025E1C8C300F0000E016E070E046E000E1C
:10173A00056E03EC04F0000E0026020E0122010ED3
:10174A000024E96E000E0120EA6EEECFC9F3EECF57
:10175A00CAF3EECFCBF3EECFCCF3050E0024E16E45
:10176A00000E0120E26E010EE66E02D0C82BAAD747
:10177A00010174510301C95D016E01C0C8F3140E61
:0C178A00015C01E3C86BC8C300F0120052
:1017960074C171F575C172F576C173F577C174F5CB
:1017A600CA0E0501756F030E766F2BEC04F0CA0E98
:1017B600716F030E726FA6EC03F03A0E0301D56F3C
:1017C600200ED66FD76BD50E0501716F030E726FA3
:1017D600A3EC04F0C8C371F5C9C372F5A3EC04F019
:1017E6000A0E846FB3EC00F00D0E0501846FB3ECA6
:0417F60000F01200ED
:1017FA000301C851010A03E1506A0101D0910301B2
:0E180A00C851020A03E1516A0101D093120095
:101818000301C96B140EC95D44E2C9C300F0000E90
:10182800016E070E046E000E056E03EC04F0000E48
:101838000026020E0122050E0024E96E000E01208A
:10184800EA6EEE50000A2BE1C9C300F0000E016EEB
:10185800070E046E000E056E03EC04F0000E002463
:10186800E96E020E0120EA6EEECF01F00150C819B0
:1018780016E0C9C300F0000E016E070E046E000EDC
:10188800056E03EC04F0000E0026020E0122050E80
:101898000024E16E000E0120E26E010EE66EC92BF7
:0418A800B9D712009A
:1018AC000301C851000A04E0C951000A01E002D04A
:1018BC00F28801D0F298C8C379F1C9C37AF1120049
:1018CC00010E0501716F6FEC05F000C08CF2020E79
:1018DC00716F6FEC05F000C08EF2030E716F6FEC40
:1018EC0005F000C08FF2040E716F6FEC05F000C0B4
:1018FC008DF2050E716F6FEC05F000C0F7F1060E5E
:10190C00716F6FEC05F000C093F2070E716F6FEC06
:10191C0005F000C092F2080E716F6FEC05F000C07C
:10192C0090F2090E716F6FEC05F000C091F20A0E87
:10193C00716F6FEC05F000C0F8F1000E0101F96F4A
:10194C00F8C1F9F1F86B0B0E0501716F6FEC05F036
:10195C0000500101F813000EF9130C0E0501716F04
:10196C006FEC05F000C07EF1005009087D6F37EC7C
:10197C0003F00D0E0501716F6FEC05F000C0FFF167
:10198C000E0E716F6FEC05F000C0FAF10F0E716F57
:10199C006FEC05F000C0F5F1100E716F6FEC05F0F7
:0619AC0000C0F6F112007C
:1019B2000301CD6B140ECD5D72E2CDC300F0000EBB
:1019C200016E070E046E000E056E03EC04F0000EAD
:1019D2000026020E0122050E0024E96E000E0120EF
:1019E200EA6EEE50010A59E1CDC300F0000E016E1D
:1019F200070E046E000E056E03EC04F0000E0024C8
:101A0200E16E020E0120E26ECCC3E6FFCDC300F010
:101A1200000E016E070E046E000E056E03EC04F05C
:101A2200000E0026020E0122010E0024E16E000EBD
:101A32000120E26EC8C3E6FFC9C3E6FFCAC3E6FFE0
:101A4200CBC3E6FFCDC300F0000E016E070E046E9D
:101A5200000E056E03EC04F0000E0026020E0122B9
:101A6200050E0024E16E000E0120E26EE66ACDC38F
:101A720000F0000E016E070E046E000E056E03EC00
:101A820004F0000E0026020E0122060E0024E16E72
:101A9200000E0120E26EE66A02D0CD2B8BD7120037
:101AA200140E02018C6F140E8F6F140E8E6F140EB3
:101AB2008D6F050E01017E6F040E05017D6F37ECFF
:101AC20003F00A0E0201926F040E936F0A0E916FD9
:101AD200040E906F0C0E0101F76FF86BF96BFA6B45
:0C1AE200F56BF66BFF6BBDEC04F012001E
:101AEE000301C851010A16E1C9B102D0829201D098
:101AFE008282060E0B6E130E0C6EAD0E0D6E0D2E3B
:101B0E00FED70C2EFCD70B2EFAD700000000010ECC
:101B1E001A6E8186C851020A16E1C9B102D08290AE
:101B2E0001D08280060E0B6E130E0C6EAD0E0D6E76
:101B3E000D2EFED70C2EFCD70B2EFAD70000000070
:081B4E00010E1B6E81881200DC
:101B56000301C851010A02E11A6A8196C851020AB4
:081B660002E11B6A81981200E4
:101B6E009E96C8C3C9FFC7A401D0FDD79EB601D0AB
:101B7E00FDD7C5BC02D0006A03D0C584020E006E2C
:021B8E00120043
:041B9000C5841200F6
:101B9400C26AC00EC212C18CC18EC8C300F0003626
:101BA400009000360090003600900050C212C280AF
:101BB400FEEC03F0C284C2A401D0FDD7C4CF01F06F
:0E1BC400006AC3500012000E0112C2901200FF
:101BD2000301C86B140EC85D4BE2C8C300F0000ECF
:101BE200016E070E046E000E056E03EC04F0000E8B
:101BF2000026020E0122050E0024E96E000E0120CD
:101C0200EA6EEE50000A32E1C8C300F0000E016E27
:101C1200070E046E000E056E03EC04F0000E0024A5
:101C2200E96E020E0120EA6EEECF01F00150090AC0
:101C32001DE1C8C300F0000E016E070E046E000E17
:101C4200056E03EC04F0000E0026020E0122010EC6
:101C52000024E96E000E0120EA6EEECFC9F3EECF4A
:101C6200CAF3EECFCBF3EECFCCF302D0C82BB2D770
:101C7200140EC85D02E3C86B05D001017451030163
:0A1C8200C95DC86FC8C300F012006E
:101C8C000301C86BC96BC951120802E1C8518E0817
:101C9C0009E396EC04F0005201E004D00301C84BB8
:101CAC00C92BF1D70301120EC95D02E18F0EC85D7D
:101CBC0003E37B0E006E05D0C580C5A001D0FDD717
:041CCC00006A120098
:101CD0000201AF6BB06BB16B83BA02D0B18101D09E
:101CE000B19184B002D0B18301D0B19383B802D056
:101CF000B18501D0B195B151000A18E101014851F7
:101D0000000A07E1B66BC86B486B0201AE6B0101BC
:101D1000B56B4851010A0AE1050E3E5D07E3B66B5B
:101D2000C86B486B0201AE6B0101B56B0101C85174
:101D3000060802E3140EC76FC851060805E2C85131
:101D4000140802E30A0EC76FC851140802E2050E18
:101D5000C76FB651010A0AE1C7513F5D07E3010EA3
:101D6000B56F3F6B190EC85D01E2C82B0201B1517E
:101D7000000A22E001014851010A1EE1B651000AA1
:101D80001BE1020EB725016E000EB821026E000E97
:101D9000B921036E000EBA21046E7751041808E1D0
:101DA0007651031805E17551021802E174510118CA
:101DB00003E1010EB66F3F6B0201B151000A09E069
:101DC00001014851010A05E1B651000A02E1020190
:101DD000AE6B0201B151000A0EE001014851010A47
:101DE0000AE1B651010A07E10201B1510101B5034F
:101DF000F3CFAEF2B56B0201B151000A11E001015F
:101E00004851000A0DE1B1C2AEF2010E486F74C133
:101E1000B7F175C1B8F176C1B9F177C1BAF13E6BCE
:101E20000201AE51000A03E0010E0101436FAEC290
:041E300000F01200AC
:101E340083A003D083A201D003D0010E006E120050
:041E4400006A12001E
:101E48000201AE6B010144B103D00201AE9102D090
:101E58000201AE81010145B103D00201AE9302D067
:101E68000201AE830101446B456B140E4A5D15E215
:101E78000201AEB106D00101CBB503D00201AE918B
:101E880002D00201AE81AEB306D00101CBB103D0BE
:101E98000201AE9302D00201AE83AEC200F012007E
:101EA800010E01016E6FCBA316D06E6B726B650EBF
:101EB8004A6F7151000A0FE1E06B6F51000A04E1AB
:101EC800C80E4A6F010E7D6F6F51010A04E1C90EF9
:101ED8004A6F010E7D6F7151000A14E1CBA108D041
:101EE8006F51000805E26F0727EC06F0660E4A6F8F
:101EF800CBA508D0010E6F5D05E26F2B27EC06F02D
:101F0800660E4A6F7151010A17E1CBA109D002018F
:101F18008C51000805E28C0727EC06F0660E4A6F24
:101F28000101CBA509D0FF0E02018C5D05E28C2BC7
:101F380027EC06F0660E4A6F01017151020A17E19B
:101F4800CBA109D002018E51000805E28E0727ECCB
:101F580006F0660E4A6F0101CBA509D0FF0E0201FB
:101F68008E5D05E28E2B27EC06F0660E4A6F0101A6
:101F78007151030A17E1CBA109D002018F51000862
:101F880005E28F0727EC06F0660E4A6F0101CBA524
:101F980009D0FF0E02018F5D05E28F2B27EC06F0BA
:101FA800660E4A6F01017151040A17E1CBA109D0ED
:101FB80002018D51000805E28D0727EC06F0660E38
:101FC8004A6F0101CBA509D0FF0E02018D5D05E224
:101FD8008D2B27EC06F0660E4A6F01017151050A38
:101FE80017E1CBA109D002019351000805E293073C
:101FF80027EC06F0660E4A6F0101CBA509D0FF0E4B
:102008000201935D05E2932B27EC06F0660E4A6FFA
:1020180001017151060A17E1CBA109D002019251C1
:10202800000805E2920727EC06F0660E4A6F0101E8
:10203800CBA509D0FF0E0201925D05E2922B27EC99
:1020480006F0660E4A6F01017151070A17E1CBA12C
:1020580009D002019051000805E2900727EC06F02C
:10206800660E4A6F0101CBA509D0FF0E0201905DF3
:1020780005E2902B27EC06F0660E4A6F01017151BC
:10208800080A17E1CBA109D002019151000805E225
:10209800910727EC06F0660E4A6F0101CBA509D01F
:1020A800FF0E0201915D05E2912B27EC06F0660E0A
:1020B8004A6F01017151090A14E1CBA108D07E5180
:1020C800000805E27E0727EC06F0660E4A6FCBA5EE
:1020D80008D0090E7E5D05E27E2B27EC06F0660E21
:1020E8004A6F71510A0A14E1CBA108D0F7510008D0
:1020F80005E2F70727EC06F0660E4A6FCBA508D075
:10210800FF0EF75D05E2F72B27EC06F0660E4A6F27
:1021180071510B0A20E1CBA110D0000E006EF951CD
:10212800005C02E1F851000808E2010EF85F000EB9
:10213800F95B27EC06F0660E4A6FCBA50CD0FD0EB6
:10214800F95D02E1E80EF85D06E2F84BF92B27ECA1
:1021580006F0660E4A6F71510C0A1CE14A6B4C0E70
:1021680005017D6F010E7E6FE50E7F6F010E806F9A
:10217800100E816F000E826F45EC01F0010E010117
:102188004B6F6E6B726B010E496F010E7D6F85DCB4
:10219800BDEC04F0010171510D0A14E1CBA108D086
:1021A800F551000805E2F50727EC06F0660E4A6FC0
:1021B800CBA508D0010EF55D05E2F52B27EC06F05E
:1021C800660E4A6F71510E0A14E1CBA108D0F65180
:1021D800000805E2F60727EC06F0660E4A6FCBA565
:1021E80008D0010EF65D05E2F62B27EC06F0660E28
:1021F8004A6F71510F0A14E1CBA108D0FA510008B7
:1022080005E2FA0727EC06F0660E4A6FCBA508D060
:10221800010EFA5D05E2FA2B27EC06F0660E4A6F0E
:102228007151100A1DE1CBA10CD0FF51000809E241
:10223800FF07FF51090A01E1FF6B27EC06F0660E64
:102248004A6FCBA50DD0FF0EFF5D0AE2FF2BFF51B1
:10225800010A02E10A0EFF6F27EC06F0660E4A6FCC
:102268007151110A19E1670E4A6F4C0E05017D6F15
:10227800010E7E6FE50E7F6F010E806F100E816F6D
:10228800000E826F45EC01F001016E6B010E4B6F81
:10229800010E496F010E7D6F7151120A1BE14A6BE5
:1022A8004C0E05017D6F010E7E6FE50E7F6F010EEE
:1022B800806F100E816F000E826F45EC01F00101F6
:1022C8006E6B010E4B6F010E496F66EC0CF0010E40
:0622D80001017D6F120000
:1022DE000201B26B0301C86B56DC00C0AEF201C046
:1022EE00AFF2010E0301C86F4EDC00C0B0F201C0A8
:1022FE00B1F201017951000A13E097510201AF5D6D
:10230E0004E1010196510201AE5D05E2FF0E505C43
:10231E0001E2502A04D05050000801E2500601D0CC
:10232E00506A50500101985D02E20201B281010132
:10233E007A51000A13E097510201B15D04E10101E7
:10234E0096510201B05D05E2FF0E515C01E2512A89
:10235E0004D05150000801E2510601D0516A51508B
:10236E000101985D02E20201B283B2C200F01200D6
:10237E000201AE6B83B801D0AE8183BA01D0AE83B9
:06238E00AEC200F01200D7
:0A239400BDEC04F001014A6B1200D9
:10239E0076DC7C0E0301C86FB7EC0DF0800E0301E6
:1023AE00C86FB7EC0DF00201AE51020A05E1380E0E
:1023BE000301C86FB7EC0DF00201AE51010A05E141
:1023CE00340E0301C86FB7EC0DF0800E0301C86F19
:1023DE00B7EC0DF00201AE51020A05E1390E030110
:1023EE00C86FB7EC0DF00201AE51010A05E1350ED2
:1023FE000301C86FB7EC0DF0800E0301C86FB7EC88
:10240E000DF01C0E0301C86FB7EC0DF0800E03012A
:10241E00C86FB7EC0DF0720E0301C86FB7EC0DF07C
:10242E00800E0301C86FB7EC0DF0550E0301C86F97
:10243E00B7EC0DF0800E0301C86FB7EC0DF06C0E0B
:10244E000301C86FB7EC0DF0800E0301C86FB7EC37
:10245E000DF00C0E0301C86FB7EC0DF0800E0301EA
:10246E00C86FB7EC0DF0010E0301C86FB7EC0DF09D
:10247E00800E0301C86FB7EC0DF0060E0301C86F96
:10248E00B7EC0DF0800E0301C86FB7EC0DF0020E25
:0E249E000301C86FB7EC0DF0C8EC0DF0120092
:1024AC00949894968B988B9694889486C79EC79C88
:0624BC00380EC66E12008E
:1024C2000201B26BB36BAE51010A03E1AF51800F4F
:1024D200B36FAE51020A03E1AF51C00FB36F46ECC6
:1024E2000EF07C0E0301C86FB7EC0DF0800E0301F5
:1024F200C86FB7EC0DF0B3C2C8F3B7EC0DF0400EE5
:102502000301C86FB7EC0DF00201B251B025E96EBC
:10251200000EB121EA6EEE500A0A10E0B251100824
:102522000DE3B251B025E96E000EB121EA6EEECF95
:10253200C8F3B7EC0DF00201B22BE6D7C8EC0DF0F0
:102542000D0E0C6EFB0E0D6E0D2EFED70C2EFCD753
:0625520000000000120071
:10255800660E0101996F010E9A6F840E9B6F050E2E
:102568009C6FFF0EAD6FFF0EAE6F000EAF6F000ECB
:10257800B06FFF0EA56FFF0EA66F000EA76F000EBF
:10258800A86FFF0E876FFF0E886F000E896F000E11
:102598008A6FAC8A900EAB6E948E949C9EAA03D0E0
:0825A800AECF00F0FBD71200DA
:1025B0000201AF6BB06B3F0EAE15026E02C0AEF201
:1025C000540EAF6F02C000F00032009E0032009E39
:1025D0000032009E0032009E540E0010AF6F700E4D
:1025E000B06F0F0E0214006E700E0010B06F46EC4C
:1025F0000EF07C0E0301C86FB7EC0DF0800E0301E6
:10260000C86FB7EC0DF0AFC2C8F3B7EC0DF0800E99
:102610000301C86FB7EC0DF0B0C2C8F3B7EC0DF012
:10262000C8EC0DF00D0E0C6EFB0E0D6E0D2EFED7D0
:0A2630000C2EFCD700000000120081
:10263A00838E010E0301C86F45EC0BF000522BE0AC
:10264A00010E0301C86FC96B77EC0DF0530E02013E
:10265A00AE6F370EAF6F200EB06F4D0EB16F6F0EAB
:10266A00B26F740EB36F6F0EB46F720EB56F310E18
:10267A00B66F530EB76F740EB86F610EB96F720EE4
:10268A00BA6F740EBB6FBC6BAE0E0301C86F020E3D
:10269A00C96FCBEC0BF0020E0301C86F45EC0BF0CF
:1026AA0000524DE0020E0301C86FC96B77EC0DF0C2
:1026BA00530E0201BD6F370EBE6F200EBF6F4D0E57
:1026CA00C06F6F0EC16F740EC26F6F0EC36F720E42
:1026DA00C46F320EC56F530EC66F740EC76F610E8C
:1026EA00C86F720EC96F740ECA6FCB6BBD0E030131
:1026FA00C86F020EC96FCBEC0BF04C0E05017D6F53
:10270A00010E7E6F770E7F6F000E806F100E816F45
:10271A00000E826F45EC01F05D0E7D6F010E7E6F3B
:10272A00530E7F6F000E806F100E816F000E826F46
:10273A0045EC01F0010E0101496F010E4B6F0A0EC3
:10274A000301C86F45EC0BF000521FE0010E0101B6
:10275A007C6F010E0301C86FFDEC0BF06B0EF66E79
:10276A00770EF76E000EF86ECC0EE16E020EE26E78
:10277A00150E006E010E016E8EEC04F0CC0E0301F4
:10278A00C86F020EC96FCBEC0BF00B0E0301C86FBA
:10279A0045EC0BF000521FE0010E01017B6F020EA7
:1027AA000301C86FFDEC0BF0800EF66E770EF76E24
:1027BA00000EF86EE10EE16E020EE26E150E006E6C
:1027CA00010E016E8EEC04F0E10E0301C86F020ED9
:1027DA00C96FCBEC0BF0050E0301C86F45EC0BF08B
:1027EA0000522EE0010E0301C86F7AC1C9F356ECFC
:1027FA000CF00101786B530E0201F66F370EF76F7A
:10280A00200EF86F4D0EF96F310EFA6F200EFB6F26
:10281A00530EFC6F700EFD6F650EFE6F650EFF6F37
:10282A00640E0301006F200E016F550E026F500EE9
:10283A00036F046BF60EC86F020EC96FCBEC0BF078
:10284A00060E0301C86F45EC0BF000522DE079C16A
:10285A00C8F3010E0301C96F56EC0CF00101736B4A
:10286A00530E0301056F370E066F200E076F4D0ECC
:10287A00086F320E096F200E0A6F530E0B6F700E1F
:10288A000C6F650E0D6F650E0E6F640E0F6F200EC6
:10289A00106F550E116F500E126F136B050EC86F25
:1028AA00030EC96FCBEC0BF0030E0301C86F45ECA6
:1028BA000BF0005208E101017C51010A03E1D0A1A9
:1028CA0001D001D028D001017FA125D07F91010E2E
:1028DA000301C86FABEC0DF0530E146F370E156F72
:1028EA00200E166F4D0E176F310E186F200E196FCE
:1028FA00530E1A6F740E1B6F6F0E1C6F700E1D6FC6
:10290A00650E1E6F640E1F6F206B140EC86F030EC8
:10291A00C96FCBEC0BF0040E0301C86F45EC0BF04A
:10292A00005208E101017B51010A03E1D0A301D061
:10293A0001D028D001017FA325D07F93020E030185
:10294A00C86FABEC0DF0530E216F370E226F200EBD
:10295A00236F4D0E246F320E256F200E266F530EF5
:10296A00276F740E286F6F0E296F700E2A6F650E0F
:10297A002B6F640E2C6F2D6B210EC86F030EC96F5F
:10298A00CBEC0BF002018E51000A05E001018151E6
:10299A00010A01E002D001017F93D1A14ED0010EBC
:1029AA000301C86FABEC0DF0020EC86FABEC0DF073
:1029BA0001017C6B7B6B060E4A6F010E646ECD0EB5
:1029CA00F66E770EF76E000EF86E2E0EE16E030E9F
:1029DA00E26E110E006E010E016E8EEC04F02E0EE8
:1029EA000301C86F030EC96FCBEC0BF0090E03018C
:1029FA00C86F0CEC0CF04C0E05017D6F010E7E6F5A
:102A0A00650E7F6F000E806F100E816F000E826F51
:102A1A0045EC01F05D0E7D6F010E7E6F880E7F6FB3
:102A2A00000E806F100E816F000E826F45EC01F070
:102A3A00010E0101496F020E4B6FCF51000A4CE0A3
:102A4A00010E0301C86FABEC0DF0020EC86FABECC0
:102A5A000DF0060E01014A6F7C6B7B6BDE0EF66E83
:102A6A00770EF76E000EF86E3F0EE16E030EE26E01
:102A7A00120E006E010E016E8EEC04F03F0E030181
:102A8A00C86F030EC96FCBEC0BF0090E0301C86FB8
:102A9A000CEC0CF04C0E05017D6F010E7E6F650E7D
:102AAA007F6F000E806F100E816F000E826F45ECF3
:102ABA0001F05D0E7D6F010E7E6F0B0E7F6F010EB2
:102ACA00806F100E816F000E826F45EC01F0010ECF
:102ADA000101496F020E4B6FD251010A4EE1F653C2
:102AEA004CE0010E0301C86FABEC0DF0020EC86F8B
:102AFA00ABEC0DF0060E01014A6F7C6B7B6BF00E9E
:102B0A00F66E770EF76E000EF86E510EE16E030E3A
:102B1A00E26E150E006E010E016E8EEC04F0510E7F
:102B2A000301C86F030EC96FCBEC0BF0090E03014A
:102B3A00C86F0CEC0CF04C0E05017D6F010E7E6F18
:102B4A00650E7F6F000E806F100E816F000E826F10
:102B5A0045EC01F05D0E7D6F010E7E6F1C0E7F6FDE
:102B6A00010E806F100E816F000E826F45EC01F02E
:102B7A00010E0101496F020E4B6F7F51000A2AE1D3
:102B8A00010E4A6F806B090E0301C86F0CEC0CF042
:102B9A004C0E05017D6F010E7E6F2D0E7F6F010EAB
:102BAA00806F100E816F000E826F45EC01F05D0E92
:102BBA007D6F010E7E6F530E7F6F000E806F100EB9
:102BCA00816F000E826F45EC01F0010E0101496F21
:102BDA00010E4B6F4A51050A04E04A51060A01E008
:102BEA004CD00301C86B0CEC0CF0000E0101F91972
:102BFA0002E1000EF81941E0F85174250301C86F8B
:102C0A000101F95175210301C96F000E01017621F5
:102C1A000301CA6F000E010177210301CB6F090E70
:102C2A00CC6FD9EC0CF0050EF66E780EF76E000E2E
:102C3A00F86E660EE16E030EE26E150E006E010E60
:102C4A00016E8EEC04F0660EC86F030EC96FCBECF2
:102C5A000BF05D0E05017D6F010E7E6F990E7F6F81
:102C6A00000E806F100E816F000E826F45EC01F02E
:0C2C7A00010E0101496F020E4B6F1200A9
:102C8600838E010E0301C86F45EC0BF000524FE036
:102C9600010E0301C86F010EC96F77EC0DF0530EDC
:102CA6000201AE6F330EAF6F200EB06F4D0EB16FD7
:102CB6006F0EB26F740EB36F6F0EB46F720EB56F88
:102CC600310EB66F530EB76F740EB86F610EB96FD3
:102CD600720EBA6F740EBB6FBC6BAE0E0301C86F7B
:102CE600020EC96FCBEC0BF0839C4C0E05017D6F79
:102CF600010E7E6F1D0E7F6F000E806F100E816FAE
:102D0600000E826F45EC01F05D0E7D6F010E7E6F49
:102D1600530E7F6F000E806F100E816F000E826F54
:102D260045EC01F0010E0101496F010E4B6F020ED9
:102D36000301C86F45EC0BF000522DE0020E0301B3
:102D4600C86F010EC96F77EC0DF0530E0201BD6F0F
:102D5600330EBE6F200EBF6F4D0EC06F6F0EC16F6C
:102D6600740EC26F6F0EC36F720EC46F320EC56FD4
:102D7600530EC66F740EC76F610EC86F720EC96FA1
:102D8600740ECA6FCB6BBD0E0301C86F020EC96FFE
:102D9600CBEC0BF0839C050E0301C86F45EC0BF0E2
:102DA60000522FE0010E0301C86F7AC1C9F356EC39
:102DB6000CF001017C6B786B530E0201CC6F330E65
:102DC600CD6F200ECE6F4D0ECF6F6F0ED06F740E7F
:102DD600D16F6F0ED26F720ED36F310ED46F200E7D
:102DE600D56F460ED66F610ED76F730ED86F740E01
:102DF600D96FDA6BCC0E0301C86F020EC96FCBEC2C
:102E06000BF0070E0301C86F45EC0BF000522EE0E5
:102E16000301C86B7AC1C9F356EC0CF0010E01012F
:102E2600786F530E0201DB6F330EDC6F200EDD6F01
:102E36004D0EDE6F6F0EDF6F740EE06F6F0EE16F7B
:102E4600720EE26F310EE36F200EE46F530EE56FE4
:102E56006C0EE66F6F0EE76F770EE86FE96BDB0EB1
:102E66000301C86F020EC96FCBEC0BF0060E03010F
:102E7600C86F45EC0BF000522FE079C1C8F3010E84
:102E86000301C96F56EC0CF001017B6B736B530E9B
:102E96000201EA6F330EEB6F200EEC6F4D0EED6FF5
:102EA6006F0EEE6F740EEF6F6F0EF06F720EF16FA6
:102EB600320EF26F200EF36F460EF46F610EF56F51
:102EC600730EF66F740EF76FF86BEA0E0301C86F98
:102ED600020EC96FCBEC0BF0080E0301C86F45EC70
:102EE6000BF000522EE079C1C8F30301C96B56EC12
:102EF6000CF0010E0101736F530E0201F96F330ED0
:102F0600FA6F200EFB6F4D0EFC6F6F0EFD6F740E89
:102F1600FE6F6F0EFF6F720E0301006F320E016FB0
:102F2600200E026F530E036F6C0E046F6F0E056F4B
:102F3600770E066F076BF90EC86F020EC96FCBECE2
:102F46000BF00A0E0301C86F45EC0BF000521FE0B0
:102F5600010E01017C6F010E0301C86FFDEC0BF041
:102F6600A10EF66E740EF76E000EF86E080EE16E88
:102F7600030EE26E160E006E010E016E8EEC04F06C
:102F8600080E0301C86F030EC96FCBEC0BF00B0ED6
:102F96000301C86F45EC0BF000521FE0010E010162
:102FA6007B6F020E0301C86FFDEC0BF0B70EF66ED9
:102FB600740EF76E000EF86E1E0EE16E030EE26ED4
:102FC600160E006E010E016E8EEC04F01E0E03014D
:102FD600C86F030EC96FCBEC0BF0030E0301C86F6D
:102FE60045EC0BF000522AE00001AA91010E030104
:102FF600C86FABEC0DF0530E346F330E356F200EE9
:10300600366F4D0E376F6F0E386F740E396F6F0E49
:103016003A6F720E3B6F310E3C6F200E3D6F530EB2
:103026003E6F740E3F6F6F0E406F700E416F426BB6
:10303600340EC86F030EC96FCBEC0BF0040E030100
:10304600C86F45EC0BF000522AE00001AA93020E6D
:103056000301C86FABEC0DF0530E436F330E446F94
:10306600200E456F4D0E466F6F0E476F740E486FFC
:103076006F0E496F720E4A6F320E4B6F200E4C6FF9
:10308600530E4D6F740E4E6F6F0E4F6F700E506F66
:10309600516B430EC86F030EC96FCBEC0BF00C0ED1
:1030A6000301C86F45EC0BF0005201E0838C01016F
:1030B6007C51010A51E1D0A14FD07851000A4CE170
:1030C600010E0301C86FABEC0DF0020EC86FABEC3E
:1030D6000DF0050E01014A6F7C6B7B6BEB0EF66EF5
:1030E600740EF76E000EF86E520EE16E030EE26E6F
:1030F600140E006E010E016E8EEC04F0520E0301EA
:10310600C86F030EC96FCBEC0BF0090E0301C86F35
:103116000CEC0CF04C0E05017D6F010E7E6F650EFA
:103126007F6F000E806F100E816F000E826F45EC70
:1031360001F05D0E7D6F010E7E6F3F0E7F6F000EFC
:10314600806F100E816F000E826F45EC01F0010E4C
:103156000101496F020E4B6F7B51010A51E1D0A369
:103166004FD07351000A4CE1010E0301C86FABEC5E
:103176000DF0020EC86FABEC0DF0050E01014A6FA3
:103186007C6B7B6BFF0EF66E740EF76E000EF86EA0
:10319600660EE16E030EE26E140E006E010E016EF7
:1031A6008EEC04F0660E0301C86F030EC96FCBECFC
:1031B6000BF0090E0301C86F0CEC0CF04C0E050168
:1031C6007D6F010E7E6F650E7F6F000E806F100E95
:1031D600816F000E826F45EC01F05D0E7D6F010E72
:1031E6007E6F3F0E7F6F000E806F100E816F000E98
:1031F600826F45EC01F0010E0101496F020E4B6F23
:1032060002018E51000A05E001018151010A01E027
:1032160002D00001AA930101D1A14ED0F5534CE092
:10322600010E0301C86FABEC0DF0020EC86FABECDC
:103236000DF001017C6B7B6B050E4A6F130EF66E6B
:10324600750EF76E000EF86E7A0EE16E030EE26EE4
:10325600110E006E010E016E8EEC04F07A0E030163
:10326600C86F030EC96FCBEC0BF0090E0301C86FD4
:103276000CEC0CF04C0E05017D6F010E7E6F650E99
:103286007F6F000E806F100E816F000E826F45EC0F
:1032960001F05D0E7D6F010E7E6F880E7F6F000E52
:1032A600806F100E816F000E826F45EC01F0010EEB
:1032B6000101496F020E4B6FCF51000A4CE0010E1F
:1032C6000301C86FABEC0DF0020EC86FABEC0DF04E
:1032D60001017C6B7B6B050E4A6F240EF66E750E34
:1032E600F76E000EF86E8B0EE16E030EE26E110E97
:1032F600006E010E016E8EEC04F08B0E0301C86F9A
:10330600030EC96FCBEC0BF0090E0301C86F0CEC72
:103316000CF04C0E05017D6F010E7E6F650E7F6F02
:10332600000E806F100E816F000E826F45EC01F06B
:103336005D0E7D6F010E7E6F0B0E7F6F010E806F2F
:10334600100E816F000E826F45EC01F0010E010137
:10335600496F020E4B6FD251010A4EE1F6534CE013
:10336600010E0301C86FABEC0DF0020EC86FABEC9B
:103376000DF001017C6B7B6B050E4A6F350EF66E08
:10338600750EF76E000EF86E9C0EE16E030EE26E81
:10339600170E006E010E016E8EEC04F09C0E0301FA
:1033A600C86F030EC96FCBEC0BF0090E0301C86F93
:1033B6000CEC0CF04C0E05017D6F010E7E6F650E58
:1033C6007F6F000E806F100E816F000E826F45ECCE
:1033D60001F05D0E7D6F010E7E6F1C0E7F6F010E7C
:1033E600806F100E816F000E826F45EC01F0010EAA
:1033F6000101496F020E4B6F0001AA51000A2BE131
:10340600020E01014A6F806B090E0301C86F0CECB6
:103416000CF04C0E05017D6F010E7E6F2E0E7F6F38
:10342600000E806F100E816F000E826F45EC01F06A
:103436005D0E7D6F010E7E6F530E7F6F000E806FE7
:10344600100E816F000E826F45EC01F0010E010136
:10345600496F020E4B6F01014A51050A04E04A51B9
:10346600060A01E04CD00301C86B0CEC0CF0000E10
:103476000101F91902E1000EF81941E0F85174252D
:103486000301C86F0101F95175210301C96F000ECF
:10349600010176210301CA6F000E010177210301A4
:1034A600CB6F090ECC6FD9EC0CF04C0EF66E750E88
:1034B600F76E000EF86EB30EE16E030EE26E150E99
:1034C600006E010E016E8EEC04F0B30EC86F030E93
:1034D600C96FCBEC0BF05D0E05017D6F010E7E6FA3
:1034E600990E7F6F000E806F100E816F000E826F37
:1034F60045EC01F0010E0101496F020E4B6F1200FF
:103506000101CBA301D01C2A1C50010A20E14C0E5C
:1035160005017D6F010E7E6FCB0E7F6F000E806FF3
:10352600100E816F000E826F45EC01F05D0E7D6F0F
:10353600010E7E6FDB0E7F6F000E806F100E816FA7
:10354600000E826F45EC01F0010E0101496F1C501F
:10355600020A20E14C0E05017D6F010E7E6FEB0E17
:103566007F6F000E806F100E816F000E826F45EC2C
:1035760001F05D0E7D6F010E7E6FFB0E7F6F000EFC
:10358600806F100E816F000E826F45EC01F0010E08
:103596000101496F1C50030A02E1640E4A6F1200D2
:1035A600838E010E0301C86F45EC0BF000522BE031
:1035B600010E0301C86FC96B77EC0DF0530E0201C3
:1035C600AE6F340EAF6F200EB06F4D0EB16F6F0E33
:1035D600B26F740EB36F6F0EB46F720EB56F310E9D
:1035E600B66F530EB76F740EB86F610EB96F720E69
:1035F600BA6F740EBB6FBC6BAE0E0301C86F020EC2
:10360600C96FCBEC0BF0020E0301C86F45EC0BF053
:1036160000524DE0020E0301C86FC96B77EC0DF046
:10362600530E0201BD6F340EBE6F200EBF6F4D0EDE
:10363600C06F6F0EC16F740EC26F6F0EC36F720EC6
:10364600C46F320EC56F530EC66F740EC76F610E10
:10365600C86F720EC96F740ECA6FCB6BBD0E0301B5
:10366600C86F020EC96FCBEC0BF04C0E05017D6FD7
:10367600010E7E6F770E7F6F000E806F100E816FCA
:10368600000E826F45EC01F05D0E7D6F010E7E6FC0
:10369600530E7F6F000E806F100E816F000E826FCB
:1036A60045EC01F0010E0101496F010E4B6F0A0E48
:1036B6000301C86F45EC0BF000521FE0010E01013B
:1036C6007C6F010E0301C86FFDEC0BF07F0EF66EEA
:1036D600750EF76E000EF86ECC0EE16E020EE26EFF
:1036E600150E006E010E016E8EEC04F0CC0E030179
:1036F600C86F020EC96FCBEC0BF00B0E0301C86F3F
:1037060045EC0BF000521FE0010E01017B6F020E2B
:103716000301C86FFDEC0BF0940EF66E750EF76E96
:10372600000EF86EE10EE16E020EE26E150E006EF0
:10373600010E016E8EEC04F0E10E0301C86F020E5D
:10374600C96FCBEC0BF0050E0301C86F45EC0BF00F
:1037560000522FE0010E0301C86F7AC1C9F356EC7F
:103766000CF001017C6B786B530E0201F66F340E80
:10377600F76F200EF86F4D0EF96F310EFA6F200EAF
:10378600FB6F530EFC6F700EFD6F650EFE6F650EC0
:10379600FF6F640E0301006F200E016F550E026F5E
:1037A600500E036F046BF60EC86F020EC96FCBEC9A
:1037B6000BF0070E0301C86F45EC0BF0005221E039
:1037C6000301C86B7AC1C9F356EC0CF001017C6B9E
:1037D600010E786FB80EF66E750EF76E000EF86E67
:1037E600050EE16E030EE26E110E006E010E016E05
:1037F6008EEC04F0050E0301C86F030EC96FCBEC07
:103806000BF0060E0301C86F45EC0BF000522DE0DD
:1038160079C1C8F3010E0301C96F56EC0CF0010122
:10382600736B530E0301166F340E176F200E186F4D
:103836004D0E196F320E1A6F200E1B6F530E1C6F32
:10384600700E1D6F650E1E6F650E1F6F640E206F66
:10385600200E216F550E226F500E236F246B160E0D
:10386600C86F030EC96FCBEC0BF0080E0301C86FCF
:1038760045EC0BF0005220E079C1C8F30301C96B97
:1038860056EC0CF0010E0101736FD80EF66E750E34
:10389600F76E000EF86E250EE16E030EE26E110E47
:1038A600006E010E016E8EEC04F0250E0301C86F4A
:1038B600030EC96FCBEC0BF0030E0301C86F45EC8A
:1038C6000BF0005226E001017F91010E0301C86F43
:1038D600ABEC0DF0530E366F340E376F200E386F8B
:1038E6004D0E396F310E3A6F200E3B6F530E3C6F03
:1038F600740E3D6F6F0E3E6F700E3F6F650E406F1C
:10390600640E416F426B360EC86F030EC96FCBEC67
:103916000BF0040E0301C86F45EC0BF0005226E0D5
:1039260001017F93020E0301C86FABEC0DF0530E3D
:10393600436F340E446F200E456F4D0E466F320EA8
:10394600476F200E486F530E496F740E4A6F6F0E05
:103956004B6F700E4C6F650E4D6F640E4E6F4F6B56
:10396600430EC86F030EC96FCBEC0BF001017C51FF
:10397600010A51E1D0A14FD07851000A4CE1010E65
:103986000301C86FABEC0DF0020EC86FABEC0DF087
:10399600060E01014A6F7C6B7B6B030EF66E760E8C
:1039A600F76E000EF86E500EE16E030EE26E110E0B
:1039B600006E010E016E8EEC04F0500E0301C86F0E
:1039C600030EC96FCBEC0BF0090E0301C86F0CECAC
:1039D6000CF04C0E05017D6F010E7E6F650E7F6F3C
:1039E600000E806F100E816F000E826F45EC01F0A5
:1039F6005D0E7D6F010E7E6F3F0E7F6F000E806F36
:103A0600100E816F000E826F45EC01F0010E010170
:103A1600496F020E4B6F7B51010A51E1D0A34FD083
:103A26007351000A4CE1010E0301C86FABEC0DF0B7
:103A3600020EC86FABEC0DF0060E01014A6F7C6BEF
:103A46007B6B140EF66E760EF76E000EF86E610E38
:103A5600E16E030EE26E110E006E010E016E8EEC2B
:103A660004F0610E0301C86F030EC96FCBEC0BF0B7
:103A7600090E0301C86F0CEC0CF04C0E05017D6FAE
:103A8600010E7E6F650E7F6F000E806F100E816FC8
:103A9600000E826F45EC01F05D0E7D6F010E7E6FAC
:103AA6003F0E7F6F000E806F100E816F000E826FCB
:103AB60045EC01F0010E0101496F020E4B6F020148
:103AC6008E51000A05E001018151010A01E002D090
:103AD60001017F93D1A14ED0010E0301C86FABEC5B
:103AE6000DF0020EC86FABEC0DF001017C6B7B6B29
:103AF600060E4A6F010E646E250EF66E760EF76E92
:103B0600000EF86E720EE16E030EE26E110E006E7E
:103B1600010E016E8EEC04F0720E0301C86F030EE7
:103B2600C96FCBEC0BF0090E0301C86F0CEC0CF05F
:103B36004C0E05017D6F010E7E6F650E7F6F000EC8
:103B4600806F100E816F000E826F45EC01F05D0EE6
:103B56007D6F010E7E6F880E7F6F000E806F100ED8
:103B6600816F000E826F45EC01F0010E0101496F75
:103B7600020E4B6FD251010A4EE1F6534CE0010E94
:103B86000301C86FABEC0DF0020EC86FABEC0DF085
:103B9600060E01014A6F7C6B7B6B360EF66E760E57
:103BA600F76E000EF86E830EE16E030EE26E150ED2
:103BB600006E010E016E8EEC04F0830E0301C86FD9
:103BC600030EC96FCBEC0BF0090E0301C86F0CECAA
:103BD6000CF04C0E05017D6F010E7E6F650E7F6F3A
:103BE600000E806F100E816F000E826F45EC01F0A3
:103BF6005D0E7D6F010E7E6F1C0E7F6F010E806F56
:103C0600100E816F000E826F45EC01F0010E01016E
:103C1600496F020E4B6FCF51000A4CE0010E0301B3
:103C2600C86FABEC0DF0020EC86FABEC0DF0060ED4
:103C360001014A6F7C6B7B6B4B0EF66E760EF76E50
:103C4600000EF86E980EE16E030EE26E120E006E16
:103C5600010E016E8EEC04F0980E0301C86F030E80
:103C6600C96FCBEC0BF0090E0301C86F0CEC0CF01E
:103C76004C0E05017D6F010E7E6F650E7F6F000E87
:103C8600806F100E816F000E826F45EC01F05D0EA5
:103C96007D6F010E7E6F0B0E7F6F010E806F100E13
:103CA600816F000E826F45EC01F0010E0101496F34
:103CB600020E4B6F7F51000A2AE1010E4A6F806B9C
:103CC600090E0301C86F0CEC0CF04C0E05017D6F5C
:103CD600010E7E6F2D0E7F6F010E806F100E816FAD
:103CE600000E826F45EC01F05D0E7D6F010E7E6F5A
:103CF600530E7F6F000E806F100E816F000E826F65
:103D060045EC01F0010E0101496F010E4B6F4A515E
:103D1600050A04E04A51060A01E04CD00301C86BCB
:103D26000CEC0CF0000E0101F91902E1000EF81975
:103D360041E0F85174250301C86F0101F95175215D
:103D46000301C96F000E010176210301CA6F000E3F
:103D5600010177210301CB6F090ECC6FD9EC0CF072
:103D66005D0EF66E760EF76E000EF86EAA0EE16E1A
:103D7600030EE26E150E006E010E016E8EEC04F05F
:103D8600AA0EC86F030EC96FCBEC0BF05D0E0501D2
:103D96007D6F010E7E6F990E7F6F000E806F100E85
:103DA600816F000E826F45EC01F0010E0101496F33
:063DB600020E4B6F12002B
:103DBC00020E0201E46F839E0101CF51000A09E15A
:103DCC00090E0301C86F45EC0BF00050010A01E02D
:103DDC00DDD102018D51000A05E001018151010A7A
:103DEC0001E088D0090E0301C86F0CEC0CF0020145
:103DFC00E45101017425006E000E7521016E000E58
:103E0C007621026E000E7721036E00C0FBF101C01B
:103E1C00FCF102C0FDF103C0FEF100C0C8F301C00B
:103E2C00C9F302C0CAF303C0CBF3010E0301CC6F7C
:103E3C00D9EC0CF0FBC1C8F3FCC1C9F3FDC1CAF34A
:103E4C00FEC1CBF3050ECC6FD9EC0CF00101786BF5
:103E5C00020E7425006E000E7521016E000E762187
:103E6C00026E000E7721036E0201E4510026000E53
:103E7C0001220222032200C0FBF101C0FCF102C0AE
:103E8C00FDF103C0FEF100C0C8F301C0C9F302C0CC
:103E9C00CAF303C0CBF30A0E0301CC6FD9EC0CF0C0
:103EAC0002018F5101017425006E000E7521016E07
:103EBC00000E7621026E000E7721036E0201E45192
:103ECC000026000E01220222032200C0FBF101C0D9
:103EDC00FCF102C0FDF103C0FEF100C0C8F301C04B
:103EEC00C9F302C0CAF303C0CBF3030E0301CC6FBA
:103EFC00D9EC0CF002018D51000AD8B440D101016B
:103F0C008151020AD8A43BD1090E0301C86F0CECF5
:103F1C000CF00201E45101017425006E000E7521B4
:103F2C00016E000E7621026E000E7721036E00C02A
:103F3C00FBF101C0FCF102C0FDF103C0FEF100C0B9
:103F4C00C8F301C0C9F302C0CAF303C0CBF3020E1D
:103F5C000301CC6FD9EC0CF0FBC1C8F3FCC1C9F365
:103F6C00FDC1CAF3FEC1CBF3060ECC6FD9EC0CF03D
:103F7C000101786B020E7425006E000E7521016E26
:103F8C00000E7621026E000E7721036E0201E451C1
:103F9C000026000E01220222032200C0FBF101C008
:103FAC00FCF102C0FDF103C0FEF100C0C8F301C07A
:103FBC00C9F302C0CAF303C0CBF30B0E0301CC6FE1
:103FCC00D9EC0CF002018F5101017425006E000E2A
:103FDC007521016E000E7621026E000E7721036EA4
:103FEC000201E4510026000E01220222032200C02D
:103FFC00FBF101C0FCF102C0FDF103C0FEF100C0F9
:10400C00C8F301C0C9F302C0CAF303C0CBF3040E5A
:10401C000301CC6FD9EC0CF00101F7517425006E43
:10402C00000E7521016E000E7621026E000E7721B6
:10403C00036E0201E4510026000E0122022203222B
:10404C0000C0FBF101C0FCF102C0FDF103C0FEF1A8
:10405C0000C0C8F301C0C9F302C0CAF303C0CBF35C
:10406C00010E0301CC6FD9EC0CF00101F751742552
:10407C00006E000E7521016E000E7621026E000E90
:10408C007721036E0201E4510026000E0122022268
:10409C00032200C0FBF101C0FCF102C0FDF103C022
:1040AC00FEF100C0C8F301C0C9F302C0CAF303C0DB
:1040BC00CBF3050E0301CC6FD9EC0CF00101736B43
:1040CC00F7517425006E000E7521016E000E7621DD
:1040DC00026E000E7721036E020E0026000E0122E6
:1040EC00022203220201E4510026000E01220222C8
:1040FC00032200C0FBF101C0FCF102C0FDF103C0C2
:10410C00FEF100C0C8F301C0C9F302C0CAF303C07A
:10411C00CBF30A0E0301CC6FD9EC0CF002018D51DC
:10412C0001017425006E000E7521016E000E7621C2
:10413C00026E000E7721036E0201E4510026000E80
:10414C000122022203220101F7510026000E012256
:10415C000222032200C0FBF101C0FCF102C0FDF100
:10416C0003C0FEF100C0C8F301C0C9F302C0CAF31A
:10417C0003C0CBF3030E0301CC6FD9EC0CF0030E90
:10418C0001017F6F7C6B7B6B070E4A6F0101D1A124
:10419C0025D0000EF91902E1000EF8191FE080512C
:1041AC00000A1CE1010E806F65EC0BF000C076F08C
:1041BC005E0EF66E780EF76E000EF86EAE0EE16EB9
:1041CC00020EE26E160E006E010E016E8EEC04F005
:1041DC00AE0EC86F020EC96FCBEC0BF00101805113
:1041EC00010A58E1D1B156D0000EF91902E1000EC6
:1041FC00F81950E076507425006E000E7521016E92
:10420C00000E7621026E000E7721036E00C0FBF1CA
:10421C0001C0FCF102C0FDF103C0FEF100C0C8F307
:10422C0001C0C9F302C0CAF303C0CBF3090E0301EA
:10423C00CC6FD9EC0CF00101806BFBC171F5FCC1AA
:10424C0072F5FDC173F5FEC174F58B0E0501756F2A
:10425C00010E766F2BEC04F0740EF66E780EF76E82
:10426C00000EF86EC40EE16E020EE26E100E006EC1
:10427C00010E016E8EEC04F0C40E0301C86F020E29
:10428C00C96FCBEC0BF08B0E0301C86F010EC96F1D
:06429C00CBEC0BF0120058
:1042A200030E0201E46F839E0101CF51000A03E174
:1042B200645201E144D1646A838E090E0301C86F1E
:1042C2000CEC0CF0010E010174250301C86F000E05
:1042D200010175210301C96F000E0101762103015D
:1042E200CA6F000E010177210301CB6F0C0ECC6F58
:1042F200D9EC0CF00201E45101017425006E000EAC
:104302007521016E000E7621026E000E7721036E7A
:1043120000C0FBF101C0FCF102C0FDF103C0FEF1DF
:1043220000C0C8F301C0C9F302C0CAF303C0CBF393
:10433200010E0301CC6FD9EC0CF0FBC1C8F3FCC138
:10434200C9F3FDC1CAF3FEC1CBF3050ECC6FD9ECA4
:104352000CF00101786B020E7425006E000E7521BF
:10436200016E000E7621026E000E7721036E0201AD
:10437200E4510026000E01220222032200C0FBF1BA
:1043820001C0FCF102C0FDF103C0FEF100C0C8F3A0
:1043920001C0C9F302C0CAF303C0CBF30A0E030182
:1043A200CC6FD9EC0CF002018C5101017425006E26
:1043B200000E7521016E000E7621026E000E77212D
:1043C200036E0201E4510026000E012202220322A2
:1043D20000C0FBF101C0FCF102C0FDF103C0FEF11F
:1043E20000C0C8F301C0C9F302C0CAF303C0CBF3D3
:1043F200030E0301CC6FD9EC0CF002018E51000ABE
:10440200D8B494D001018151020AD8A48FD0F751B7
:1044120074250301C86F000E010175210301C96FE4
:10442200000E010176210301CA6F000E01017721FE
:104432000301CB6F0201E4510301C827000EC92317
:10444200CA23CB23020ECC6FD9EC0CF00101F75139
:1044520074250301C86F000E010175210301C96FA4
:10446200000E010176210301CA6F000E01017721BE
:104472000301CB6F0201E4510301C827000EC923D7
:10448200CA23CB23060ECC6FD9EC0CF00101736B5F
:10449200F75174250301C86F000E01017521030154
:1044A200C96F000E010176210301CA6F000E0101DE
:1044B20077210301CB6F020EC827000EC923CA233E
:1044C200CB230201E4510301C827000EC923CA23EA
:1044D200CB230B0ECC6FD9EC0CF002018E510101F3
:1044E20074250301C86F000E010175210301C96F14
:1044F200000E010176210301CA6F000E010177212E
:104502000301CB6F0101F7510301C827000EC92334
:10451200CA23CB230201E4510301C827000EC92399
:10452200CA23CB23040ECC6FD9EC0CF0030E00018E
:10453200AA6F01017C6B7B6B806B080E4A6F090EC0
:104542000301C86F45EC0BF00050010AD8A429D131
:10455200090E0301C86F0CEC0CF00201E4510101D9
:104562007425006E000E7521016E000E7621026E1A
:10457200000E7721036E00C0FBF101C0FCF102C006
:10458200FDF103C0FEF100C0C8F301C0C9F302C0CF
:10459200CAF303C0CBF3010E0301CC6FD9EC0CF0CC
:1045A200FBC1C8F3FCC1C9F3FDC1CAF3FEC1CBF321
:1045B200050ECC6FD9EC0CF00101786B020E74255C
:1045C200006E000E7521016E000E7621026E000E45
:1045D2007721036E0201E4510026000E012202221D
:1045E200032200C0FBF101C0FCF102C0FDF103C0D7
:1045F200FEF100C0C8F301C0C9F302C0CAF303C090
:10460200CBF30A0E0301CC6FD9EC0CF002018F51EF
:1046120001017425006E000E7521016E000E7621D7
:10462200026E000E7721036E0201E4510026000E95
:1046320001220222032200C0FBF101C0FCF102C0F0
:10464200FDF103C0FEF100C0C8F301C0C9F302C00E
:10465200CAF303C0CBF3030E0301CC6FD9EC0CF009
:1046620002018D51000AD8B494D001018151020A8D
:10467200D8A48FD0F75174250301C86F000E010131
:1046820075210301C96F000E010176210301CA6F72
:10469200000E010177210301CB6F0201E4510301F6
:1046A200C827000EC923CA23CB23020ECC6FD9EC34
:1046B2000CF00101F75174250301C86F000E0101CE
:1046C20075210301C96F000E010176210301CA6F32
:1046D200000E010177210301CB6F0201E4510301B6
:1046E200C827000EC923CA23CB23060ECC6FD9ECF0
:1046F2000CF00101736BF75174250301C86F000EB2
:10470200010175210301C96F000E01017621030128
:10471200CA6F000E010177210301CB6F020EC82779
:10472200000EC923CA23CB230201E4510301C82787
:10473200000EC923CA23CB230B0ECC6FD9EC0CF08D
:1047420002018F51010174250301C86F000E01019E
:1047520075210301C96F000E010176210301CA6FA1
:10476200000E010177210301CB6F0101F751030113
:10477200C827000EC923CA23CB230201E451030137
:10478200C827000EC923CA23CB23040ECC6FD9EC51
:104792000CF0030E01017F6F7C6B7B6B806B070E4D
:1047A2004A6F0101D1A125D0000EF91902E1000ED4
:1047B200F8191FE08051000A1CE1010E806F65ECC0
:1047C2000BF000C076F0950EF66E780EF76E000EC6
:1047D200F86EAE0EE16E020EE26E160E006E010E65
:1047E200016E8EEC04F0AE0EC86F020EC96FCBECF8
:1047F2000BF001018051010A58E1D1B156D0000EEF
:10480200F91902E1000EF81950E076507425006E95
:10481200000E7521016E000E7621026E000E7721C8
:10482200036E00C0FBF101C0FCF102C0FDF103C048
:10483200FEF100C0C8F301C0C9F302C0CAF303C04D
:10484200CBF3090E0301CC6FD9EC0CF00101806BA4
:10485200FBC171F5FCC172F5FDC173F5FEC174F5C2
:104862008B0E0501756F010E766F2BEC04F0AB0E0B
:10487200F66E780EF76E000EF86EC40EE16E020E42
:10488200E26E100E006E010E016E8EEC04F0C40E8C
:104892000301C86F020EC96FCBEC0BF08B0E030144
:0C48A200C86F010EC96FCBEC0BF01200C8
:1048AE00F5D1838E0101CFA103D0020ECA6FE02B8A
:1048BE00CFA304D0010ECA6F030EE06F7C6B7B6B2F
:1048CE001ED2020E0301C86FC96B77EC0DF0040EF9
:1048DE00010174250301C86F000E0101752103014A
:1048EE00C96F000E010176210301CA6F000E01018E
:1048FE0077210301CB6F150ECC6FD9EC0CF00101B3
:10490E00E02BFDD1D0A30BD07B51010A08E17B6BCC
:10491E00020E0301C86FABEC0DF00101E02B150E7A
:10492E000301C86F45EC0BF0005203E0010E0101CC
:10493E007B6FE5D1010E0301C86FC96B77EC0DF0EB
:10494E00040E010174250301C86F000E01017521CB
:10495E000301C96F000E010176210301CA6F000E1B
:10496E00010177210301CB6F140ECC6FD9EC0CF043
:10497E000101E02BD0A10BD07C51010A08E17C6B28
:10498E00010E0301C86FABEC0DF00101E02B140E0C
:10499E000301C86F45EC0BF0005203E0010E01015C
:1049AE007C6FADD174C1E1F175C1E2F176C1E3F175
:1049BE0077C1E4F1010E0301C86F010EC96F77ECE8
:1049CE000DF0040E010174250301C86F000E0101E4
:1049DE0075210301C96F000E010176210301CA6F13
:1049EE00000E010177210301CB6F140ECC6FD9ECB1
:1049FE000CF00101E02B83D1D0A116D07C51010A1D
:104A0E0013E17C6B010E0301C86FABEC0DF00101DD
:104A1E00CA51010A03E10B0EE06F01D0E02BE15108
:104A2E00745D006E00C0D5F1140E0301C86F45EC25
:104A3E000BF0005203E0010E01017C6F60D174C1D6
:104A4E00E1F175C1E2F176C1E3F177C1E4F1020E55
:104A5E000301C86F010EC96F77EC0DF0040E010152
:104A6E0074250301C86F000E010175210301C96F82
:104A7E00000E010176210301CA6F000E010177219C
:104A8E000301CB6F150ECC6FD9EC0CF00101E02BAE
:104A9E0036D1D0A310D07B51010A0DE17B6B020EF3
:104AAE000301C86FABEC0DF00101E02BE151745D19
:104ABE00006E00C0D7F1150E0301C86F45EC0BF068
:104ACE00005203E0010E01017B6F19D174C1E1F1B7
:104ADE0075C1E2F176C1E3F177C1E4F1020E030193
:104AEE00C86FC96B77EC0DF0040E0101742503013C
:104AFE00C86F000E010175210301C96F000E01017F
:104B0E0076210301CA6F000E010177210301CB6FDD
:104B1E00150ECC6FD9EC0CF00101E02BF0D0D0A328
:104B2E0010D07B51010A0DE17B6B020E0301C86FA1
:104B3E00ABEC0DF00101E02BE151745D006E00C095
:104B4E00D6F1150E0301C86F45EC0BF0005203E0D1
:104B5E00010E01017B6FD3D074C1E1F175C1E2F199
:104B6E0076C1E3F177C1E4F1010E0301C86FC96BA1
:104B7E0077EC0DF0040E010174250301C86F000ED1
:104B8E00010175210301C96F000E01017621030198
:104B9E00CA6F000E010177210301CB6F140ECC6F8B
:104BAE00D9EC0CF00101E02BAAD0D0A110D07C5191
:104BBE00010A0DE17C6B010E0301C86FABEC0DF029
:104BCE000101E02BE151745D006E00C0D4F1140EB2
:104BDE000301C86F45EC0BF0005203E0010E01011A
:104BEE007C6F8DD0D40E0301C86F010EC96F77ECA8
:104BFE0005F0D40EC86F010EC96FCAC1CAF386EC98
:104C0E000AF04C0E05017D6F010E7E6FCC0EF66E16
:104C1E00780EF76E000EF86EAE0EE16E020EE26EBC
:104C2E00110E006E010E016E8EEC04F0AE0E7F6F53
:104C3E00020E806F100E816F000E826F45EC01F038
:104C4E005D0E7D6F010E7E6FDD0EF66E780EF76EC9
:104C5E00000EF86EBF0EE16E020EE26E110E006EC9
:104C6E00010E016E8EEC04F0BF0E7F6F020E806F90
:104C7E00100E816F000E826F45EC01F0020E0101E5
:104C8E004B6F010E496F839E4A6B39D00101E05183
:104C9E00000AD8B406D6E051010AD8B412D6E051B3
:104CAE00020AD8B42FD6E051030AD8B443D6E05145
:104CBE00040AD8B45FD6E051050AD8B473D6E051D1
:104CCE00060AD8B499D6E051070AD8B4B8D6E0513E
:104CDE00080AD8B4DED6E051090AD8B4F7D6E051A6
:104CEE000A0AD8B41CD7E0510B0AD8B435D7E05114
:104CFE000C0AD8B45AD7E0510D0AD8B473D71200A3
:104D0E00020E0201F06FF16B839EE9EC0DF0005084
:104D1E000201F11938E00101726BE9EC0DF000C0EF
:104D2E00F1F200C0C8F3680EC96F010ECA6FFFEC36
:104D3E0005F05D0E7D6F010E7E6F430E0201AE6FAC
:104D4E006C0EAF6F6F0EB06F730EB16F650EB26FEC
:104D5E00200EB36F610EB46F660EB56F740EB66F24
:104D6E00650EB76F720EB86FB96BAE0E05017F6F21
:104D7E00020E806F0B0E816F000E826F45EC01F0FC
:104D8E00010E0101496F0101CF51000A08E1090E20
:104D9E000301C86F45EC0BF0005201E1C7D30301CC
:104DAE00C86B0CEC0CF002018D51000A05E00101FC
:104DBE008151010A01E045D10201F0510101742532
:104DCE00006E000E7521016E000E7621026E000E31
:104DDE007721036E00C0FBF101C0FCF102C0FDF1B2
:104DEE0003C0FEF100C0C8F301C0C9F302C0CAF38C
:104DFE0003C0CBF3010E0301CC6FD9EC0CF0020112
:104E0E009051000A11E0FBC1C8F3FCC1C9F3FDC10A
:104E1E00CAF3FEC1CBF3070E0301CC6FD9EC0CF035
:104E2E00010E0101786F0FD0FBC1C8F3FCC1C9F3AD
:104E3E00FDC1CAF3FEC1CBF3050E0301CC6FD9EC55
:104E4E000CF00101786B0201905101017425006E86
:104E5E00000E7521016E000E7621026E000E772176
:104E6E00036E020E0026000E012202220322020110
:104E7E00F0510026000E01220222032200C0FBF197
:104E8E0001C0FCF102C0FDF103C0FEF100C0C8F389
:104E9E0001C0C9F302C0CAF303C0CBF30A0E03016B
:104EAE00CC6FD9EC0CF00201905101017425006E0B
:104EBE00000E7521016E000E7621026E000E772116
:104ECE00036E0201F0510026000E0122022203227F
:104EDE0000C0FBF101C0FCF102C0FDF103C0FEF108
:104EEE0000C0C8F301C0C9F302C0CAF303C0CBF3BC
:104EFE00050E0301CC6FD9EC0CF002019151000AA2
:104F0E002FE08F5101017425006E000E7521016E88
:104F1E00000E7621026E000E7721036E0201915172
:104F2E00005E000E015A025A035AF0510026000E7E
:104F3E0001220222032200C0FBF101C0FCF102C0DB
:104F4E00FDF103C0FEF100C0C8F301C0C9F302C0F9
:104F5E00CAF303C0CBF3070E0301CC6FD9EC0CF0F0
:104F6E000101FA51000A43E002018F51010174253B
:104F7E00006E000E7521016E000E7621026E000E7F
:104F8E007721036E0201F0510026000E012202224B
:104F9E00032200C0FBF101C0FCF102C0FDF103C011
:104FAE00FEF100C0C8F301C0C9F302C0CAF303C0CA
:104FBE00CBF3050E0301CC6FD9EC0CF0020E010100
:104FCE00FB250301C86F000E0101FC210301C96F0F
:104FDE00000E0101FD210301CA6F000E0101FE2129
:104FEE000301CB6F030ECC6FD9EC0CF02AD002016B
:104FFE008F5101017425006E000E7521016E000E99
:10500E007621026E000E7721036E0201F05100260A
:10501E00000E01220222032200C0FBF101C0FCF1AE
:10502E0002C0FDF103C0FEF100C0C8F301C0C9F318
:10503E0002C0CAF303C0CBF3030E0301CC6FD9EC4D
:10504E000CF002018D51000AD8B469D201018151D0
:10505E00020AD8A464D20201F05101017425006E37
:10506E00000E7521016E000E7621026E000E772164
:10507E00036E00C0FBF101C0FCF102C0FDF103C0E4
:10508E00FEF100C0C8F301C0C9F302C0CAF303C0E9
:10509E00CBF3020E0301CC6FD9EC0CF00201905150
:1050AE00000A11E0FBC1C8F3FCC1C9F3FDC1CAF38C
:1050BE00FEC1CBF3080E0301CC6FD9EC0CF0010E40
:1050CE000101736F0FD0FBC1C8F3FCC1C9F3FDC161
:1050DE00CAF3FEC1CBF3060E0301CC6FD9EC0CF074
:1050EE000101736B0201905101017425006E000ED7
:1050FE007521016E000E7621026E000E7721036E71
:10510E00020E0026000E0122022203220201F0519D
:10511E000026000E01220222032200C0FBF101C074
:10512E00FCF102C0FDF103C0FEF100C0C8F301C0E6
:10513E00C9F302C0CAF303C0CBF30B0E0301CC6F4D
:10514E00D9EC0CF00201905101017425006E000E95
:10515E007521016E000E7621026E000E7721036E10
:10516E000201F0510026000E01220222032200C08D
:10517E00FBF101C0FCF102C0FDF103C0FEF100C065
:10518E00C8F301C0C9F302C0CAF303C0CBF3060EC5
:10519E000301CC6FD9EC0CF002019151000A2FE003
:1051AE008D5101017425006E000E7521016E000EE9
:1051BE007621026E000E7721036E02019151005E80
:1051CE00000E015A025A035AF0510026000E012217
:1051DE000222032200C0FBF101C0FCF102C0FDF16E
:1051EE0003C0FEF100C0C8F301C0C9F302C0CAF388
:1051FE0003C0CBF3080E0301CC6FD9EC0CF0020107
:10520E008D5101017425006E000E7521016E000E88
:10521E007621026E000E7721036E0201F0510026F8
:10522E00000E01220222032200C0FBF101C0FCF19C
:10523E0002C0FDF103C0FEF100C0C8F301C0C9F306
:10524E0002C0CAF303C0CBF3040E0301CC6FD9EC3A
:10525E000CF00101F7517425006E000E7521016EE0
:10526E00000E7621026E000E7721036E0201F051C0
:10527E000026000E01220222032200C0FBF101C013
:10528E00FCF102C0FDF103C0FEF100C0C8F301C085
:10529E00C9F302C0CAF303C0CBF3010E0301CC6FF6
:1052AE00D9EC0CF002019051000A11E0FBC1C8F3D9
:1052BE00FCC1C9F3FDC1CAF3FEC1CBF3070E030156
:1052CE00CC6FD9EC0CF0010E0101786F0FD0FBC141
:1052DE00C8F3FCC1C9F3FDC1CAF3FEC1CBF3050E81
:1052EE000301CC6FD9EC0CF00101786BF7517425EA
:1052FE00006E000E7521016E000E7621026E000EFC
:10530E007721036E020190510026000E0122022227
:10531E000322020E0026000E012202220322F05169
:10532E000026000E01220222032200C0FBF101C062
:10533E00FCF102C0FDF103C0FEF100C0C8F301C0D4
:10534E00C9F302C0CAF303C0CBF30A0E0301CC6F3C
:10535E00D9EC0CF00101F7517425006E000E752189
:10536E00016E000E7621026E000E7721036E020191
:10537E0090510026000E012202220322F051002637
:10538E00000E01220222032200C0FBF101C0FCF13B
:10539E0002C0FDF103C0FEF100C0C8F301C0C9F3A5
:1053AE0002C0CAF303C0CBF3050E0301CC6FD9ECD8
:1053BE000CF002019151000A35E00101F7517425FC
:1053CE00006E000E7521016E000E7621026E000E2B
:1053DE007721036E02018F510026000E0122022258
:1053EE0003229151005E000E015A025A035AF051E7
:1053FE000026000E01220222032200C0FBF101C092
:10540E00FCF102C0FDF103C0FEF100C0C8F301C003
:10541E00C9F302C0CAF303C0CBF3070E0301CC6F6E
:10542E00D9EC0CF00101FA51000A49E002018F514A
:10543E0001017425006E000E7521016E000E76219D
:10544E00026E000E7721036EF7510026000E012228
:10545E00022203220201F0510026000E0122022236
:10546E00032200C0FBF101C0FCF102C0FDF103C03C
:10547E00FEF100C0C8F301C0C9F302C0CAF303C0F5
:10548E00CBF3050E0301CC6FD9EC0CF0020E01012B
:10549E00FB250301C86F000E0101FC210301C96F3A
:1054AE00000E0101FD210301CA6F000E0101FE2154
:1054BE000301CB6F030ECC6FD9EC0CF030D0020190
:1054CE008F5101017425006E000E7521016E000EC4
:1054DE007621026E000E7721036EF7510026000E24
:1054EE000122022203220201F0510026000E0122A7
:1054FE000222032200C0FBF101C0FCF102C0FDF14B
:10550E0003C0FEF100C0C8F301C0C9F302C0CAF364
:10551E0003C0CBF3030E0301CC6FD9EC0CF0030EDA
:10552E0001017F6F7C6B7B6B040E4A6F0101D1A171
:10553E0025D0000EF91902E1000EF8191FE0805176
:10554E00000A1CE1010E806F65EC0BF000C076F0D6
:10555E00260EF66E780EF76E000EF86EBA0EE16E2F
:10556E00020EE26E160E006E010E016E8EEC04F04F
:10557E00BA0EC86F020EC96FCBEC0BF00101805151
:10558E00010AD8A4AED0D1B1ACD0000EF91902E107
:10559E00000EF819D8B4A5D0FF51000A51E176508B
:1055AE007425006E000E7521016E000E7621026EBE
:1055BE00000E7721036E00C0FBF101C0FCF102C0AA
:1055CE00FDF103C0FEF100C0C8F301C0C9F302C073
:1055DE00CAF303C0CBF3090E0301CC6FD9EC0CF068
:1055EE000101806BFBC171F5FCC172F5FDC173F554
:1055FE00FEC174F58B0E0501756F010E766F2BECE7
:10560E0004F03C0EF66E780EF76E000EF86ED00EAD
:10561E00E16E020EE26E100E006E010E016E8EEC49
:10562E0004F0D00E0301C86F020EC96FCBEC0BF065
:10563E008B0E0301C86F010EC96FCBEC0BF051D06E
:10564E000101FF517425006E000E7521016E000ED2
:10565E007621026E000E7721036E00C0FBF101C0B1
:10566E00FCF102C0FDF103C0FEF100C0C8F301C0A1
:10567E00C9F302C0CAF303C0CBF3090E0301CC6F0A
:10568E00D9EC0CF00101806BFBC171F5FCC172F518
:10569E00FDC173F5FEC174F58B0E0501756F010E1C
:1056AE00766F2BEC04F04C0EF66E780EF76E000E45
:1056BE00F86EE00EE16E020EE26E100E006E010E3E
:1056CE00016E8EEC04F0E00E0301C86F020EC96F7E
:1056DE00CBEC0BF08B0E0301C86F010EC96FCBEC38
:0456EE000BF01200AB
:1056F20083B606D001014751140801E3472B02D0BB
:105702000101476B140E475D03E3010E006E1200A8
:04571200006A120017
:10571600030E0201AE6FAF6BB06BB16BB26B839EC3
:105726000101CB51020A03E1640E4A6F716BCF513E
:105736000308816FCF51000AD8B4E7D2090E0301DE
:10574600C86F0CEC0CF0838E010E01017425030169
:10575600C86F000E010175210301C96F000E01011A
:1057660076210301CA6F000E010177210301CB6F79
:105776000C0ECC6FD9EC0CF00201AE510101742570
:10578600006E000E7521016E000E7621026E000E6F
:105796007721036E00C0FBF101C0FCF102C0FDF1F0
:1057A60003C0FEF100C0C8F301C0C9F302C0CAF3CA
:1057B60003C0CBF3010E0301CC6FD9EC0CF0020150
:1057C6009351000A11E0FBC1C8F3FCC1C9F3FDC146
:1057D600CAF3FEC1CBF3070E0301CC6FD9EC0CF074
:1057E600010E0101786F0FD0FBC1C8F3FCC1C9F3EC
:1057F600FDC1CAF3FEC1CBF3050E0301CC6FD9EC94
:105806000CF00101786B0201935101017425006EC1
:10581600000E7521016E000E7621026E000E7721B4
:10582600036E020E0026000E01220222032202014E
:10583600AE510026000E01220222032200C0FBF117
:1058460001C0FCF102C0FDF103C0FEF100C0C8F3C7
:1058560001C0C9F302C0CAF303C0CBF30A0E0301A9
:10586600CC6FD9EC0CF00201935101017425006E46
:10587600000E7521016E000E7621026E000E772154
:10588600036E0201AE510026000E012202220322FF
:1058960000C0FBF101C0FCF102C0FDF103C0FEF146
:1058A60000C0C8F301C0C9F302C0CAF303C0CBF3FA
:1058B600050E0301CC6FD9EC0CF002019251000ADF
:1058C6002FE08C5101017425006E000E7521016ECA
:1058D600000E7621026E000E7721036E02019251B0
:1058E600005E000E015A025A035AAE510026000EFF
:1058F60001220222032200C0FBF101C0FCF102C01A
:10590600FDF103C0FEF100C0C8F301C0C9F302C037
:10591600CAF303C0CBF3070E0301CC6FD9EC0CF02E
:1059260002018C5101017425006E000E7521016E75
:10593600000E7621026E000E7721036E0201AE5133
:105946000026000E01220222032200C0FBF101C044
:10595600FCF102C0FDF103C0FEF100C0C8F301C0B6
:10596600C9F302C0CAF303C0CBF3030E0301CC6F25
:10597600D9EC0CF002018C51010174250201AF6FC4
:10598600000E010175210201B06F000E01017621A2
:105996000201B16F000E010177210201B26FAE5113
:1059A600AF27000EB023B123B2238E51000AD8B41C
:1059B60078D101018151020AD8A473D1F751742517
:1059C600006E000E7521016E000E7621026E000E2D
:1059D6007721036E0201AE510026000E012202223B
:1059E600032200C0FBF101C0FCF102C0FDF103C0BF
:1059F600FEF100C0C8F301C0C9F302C0CAF303C078
:105A0600CBF3020E0301CC6FD9EC0CF002019351DB
:105A1600000A2DE00101F7517425006E000E752174
:105A2600016E000E7621026E000E7721036E0201D2
:105A3600AE510026000E01220222032200C0FBF115
:105A460001C0FCF102C0FDF103C0FEF100C0C8F3C5
:105A560001C0C9F302C0CAF303C0CBF3080E0301A9
:105A6600CC6FD9EC0CF0010E0101736F2BD0010144
