:040000008CEF37F05A
:1000080000C019F001C018F004C017F008C016F0BD
:100018000CC015F0F2A42CD00101772B8088010EBA
:10002800486F7651FF0A03E1766B756B01D0762B2A
:10003800C851FF0A03E1C86B496B01D0C82B190EE0
:10004800775D11E3776B010E7827000E79237A2309
:100058007B230001D653010ED8A4000ED66F8098DA
:10006800010E01013F6FF30ED76ECA0ED66EF294E1
:10007800F0A017D001017551000A03E1752B766BCA
:1000880001D0752B050E755D0BE3130E765D07E346
:100098007651150804E3010E466F756B01D0756B38
:1000A800F090F0A217D001014951000A03E1492B51
:1000B800C86B01D0492B050E495D0BE3130EC85DD3
:1000C80007E3C851150804E3010E476F496B01D0D7
:1000D800496BF092F2A232D00101442B4451FF0A3D
:1000E80001E1446B030E046E44C100F069D808C0F6
:1000F80000F00050010A10E12B5205E04A5302E0DB
:10010800818601D0819600019F5306E001015E536C
:1001180002E0818801D08198030E046E44C100F08A
:100128004FD808C000F00050000A07E12B5201E048
:10013800818600019F5301E08188F29219C000F086
:1001480018C001F017C004F016C008F015C00CF074
:02015800110094
:0E015A00ACB202D00000FCD784C5ADFF12008D
:1001680084C5C9FFC7B002D00000FCD7C9CF00F0D2
:02017800120073
:10017A00F250026EF29E0500FF6A0150FE6E0050B8
:08018A00FD6E02BEF28E1200B0
:10019200086A096A100E0C6E0134083609360450DA
:1001A200085E0550D8A0053C095ED8B007D00450BF
:1001B20008260550D8B0053C0926D89000360136ED
:0601C2000C2EEAD712002A
:1001C800086A080E0C6E003408360450085ED8B071
:0E01D80002D00826D89000360C2EF5D7120063
:1001E6007FC504F080C505F07DC502F07EC503F02D
:1001F60081C500F082C501F0010E0501815F000E88
:10020600825B005001100FE004C0E9FF05C0EAFF61
:1002160002C0E1FF03C0E2FFEECFE6FF024A032A77
:10022600044A052AE5D77DC500F07EC501F0120017
:10023600ACC1E1FFADC1E2FF7DC5E6FFAAC100F09A
:08024600ABC101F097DF1200CB
:10024E000B6A0A6A096A086A0E6A03340836045091
:10025E00085E0550D8A0053C095E0650D8A0063CA5
:10026E000A5E0750D8A0073C0B5EE86AD8A0010EC4
:10027E000E5E0336070E0C6E0334083609360A3648
:10028E000B360E36045003A012D0085E0550D8A0CF
:10029E00053C095E0650D8A0063C0A5E0750D8A061
:1002AE00073C0B5EE86AD8A0010E0E5E11D0082640
:1002BE000550D8B0053C09260650D8B0063C0A2693
:1002CE000750D8B0073C0B26E86AD8B0010E0E26B0
:1002DE0003360C2ED1D70234083609360A360B36C1
:1002EE000E36045003A012D0085E0550D8A0053C6F
:1002FE00095E0650D8A0063C0A5E0750D8A0073CFF
:10030E000B5EE86AD8A0010E0E5E11D008260550CD
:10031E00D8B0053C09260650D8B0063C0A26075030
:10032E00D8B0073C0B26E86AD8B0010E0E2602366E
:10033E00070E0C6E0234083609360A360B360E36A8
:10034E00045002A012D0085E0550D8A0053C095EEC
:10035E000650D8A0063C0A5E0750D8A0073C0B5E9C
:10036E00E86AD8A0010E0E5E11D008260550D8B04E
:10037E00053C09260650D8B0063C0A260750D8B0D0
:10038E00073C0B26E86AD8B0010E0E2602360C2E5C
:10039E00D1D70134083609360A360B360E360450DC
:1003AE0002A012D0085E0550D8A0053C095E06508A
:1003BE00D8A0063C0A5E0750D8A0073C0B5EE86A40
:1003CE00D8A0010E0E5E11D008260550D8B0053CFF
:1003DE0009260650D8B0063C0A260750D8B0073C6E
:1003EE000B26E86AD8B0010E0E260136070E0C6EEB
:1003FE000134083609360A360B360E36045001A083
:10040E0012D0085E0550D8A0053C095E0650D8A053
:10041E00063C0A5E0750D8A0073C0B5EE86AD8A0DF
:10042E00010E0E5E11D008260550D8B0053C0926E7
:10043E000650D8B0063C0A260750D8B0073C0B260B
:10044E00E86AD8B0010E0E2601360C2ED1D7003434
:10045E00083609360A360B360E36045001A012D075
:10046E00085E0550D8A0053C095E0650D8A0063C93
:10047E000A5E0750D8A0073C0B5EE86AD8A0010EB2
:10048E000E5E11D008260550D8B0053C0926065040
:10049E00D8B0063C0A260750D8B0073C0B26E86AAF
:1004AE00D8B0010E0E260036070E0C6E003408363C
:1004BE0009360A360B360E36045000A012D0085EEE
:1004CE000550D8A0053C095E0650D8A0063C0A5E31
:1004DE000750D8A0073C0B5EE86AD8A0010E0E5E4E
:1004EE0011D008260550D8B0053C09260650D8B0C4
:1004FE00063C0A260750D8B0073C0B26E86AD8B04F
:10050E00010E0E2600360C2ED1D700B00ED00450A0
:10051E0008260550D8B0053C09260650D8B0063C32
:0C052E000A260750D8B0073C0B2612002C
:10053A000501816B050E815D0AE281517F25E16E1D
:10054A00000E8021E26E200EE66E812BF3D78151D8
:10055A007F25E16E000E8021E26EE66A81078151F5
:10056A007F25826F000E8021836F0A0E046E000EB3
:10057A00056E7DC500F07EC501F006DE08C000F0FC
:10058A0009C001F0300E002682C5E1FF83C5E2FFF3
:10059A0000C0E6FF0A0E046E000E056E7DC500F06F
:1005AA007EC501F0F1DD00C07DF501C07EF5000ECB
:1005BA00011802E1000E001801E102D08107CFD72D
:0205CA0012001D
:1005CC000501806B030E805D0AE280517E25E16E91
:1005DC00000E7F21E26E200EE66E802BF3D7805149
:1005EC007E25E16E000E7F21E26EE66A8007805167
:1005FC007E25816F000E7F21826F0A0E046E7DC5F1
:10060C0000F0DCDD08C000F0300E002681C5E1FFF3
:10061C0082C5E2FF00C0E6FF0A0E046E7DC500F045
:10062C00CDDD00C07DF50050000A01E102D080074D
:04063C00DED71200F3
:10064000A6A202D00000FCD7A69C7DC5A9FF7EC54E
:10065000A8FFA69EA684F2CF00F0F29E550EA76ECC
:10066000AA0EA76EA68200BE02D0F29E01D0F28E24
:04067000A69412003A
:100674004ED00101856B866BFF0E876F67D0010139
:10068400440E856F020E866FC80E876F5FD001011E
:10069400580E856F020E866F960E876F57D0010134
:1006A4008A0E856F020E866F640E876F4FD001012C
:1006B4008A0E856F020E866F500E876F47D0010138
:1006C400A80E856F020E866F960E876F3FD00101CC
:1006D400A80E856F020E866F640E876F37D00101F6
:1006E400A80E856F020E866F320E876F2FD0010120
:1006F400D00E856F020E866F640E876F27D00101BE
:10070400EE0E856F020E866F320E876F1FD00501C5
:100714007D51000AAEE07D51010AB1E07D51020A2B
:10072400B6E07D51030ABBE07D51040AC0E07D516F
:10073400050AC5E07D51060ACAE07D51070ACFE0EB
:0E0744007D51080AD4E07D51090AD9E0120067
:0A075200490E0D6E0D2EFED71200A9
:10075C0071C57DF505017D337D9F72C57EF573C531
:10076C007FF52EDF010E7115016E0150010A17E1A4
:10077C00030E72257D6F000E73217E6F2E0E746F2B
:10078C00350E756F730E766F776B740E7F6F050E6B
:10079C00806F040E816F000E826F1FDD16D0030E6A
:1007AC0072257D6F000E73217E6F730E786F200E95
:1007BC00796F200E7A6F7B6B780E7F6F050E806FD2
:0C07CC00040E816F000E826F08DD120029
:1007D8000501746B71C5E9FF72C5EAFFEECF73F5C9
:1007E8007351000A0EE073C57DF521DD0501742BF8
:1007F80074517125E96E000E7221EA6EEECF73F521
:04080800EFD7120014
:10080C000B6A0A6A096A00500402F4CF09F0F3CFAC
:10081C0008F001500502F4CF0BF0F3CF0AF00050B2
:10082C000502F3500926F4500A22E86A0B22015003
:10083C000402F3500926F4500A22E86A0B2208C07D
:10084C0000F009C001F00AC002F00BC003F0120066
:10085C000501746B71C5E9FF72C5EAFFEECF73F544
:10086C007351000A0EE073C584F571DC0501742B1D
:10087C0074517125E96E000E7221EA6EEECF73F59C
:04088C00EFD7120090
:100890000900F5CFE6FF0006FBE10106F9E11200D1
:1008A0000501776B0A0E775D0AE277517525E16ED7
:1008B000000E7621E26E300EE66E772BF3D777517D
:1008C0007525E16E000E7621E26EE66A7707000E6E
:1008D000006E741908E10050731905E10050721997
:1008E00002E17151000A3EE077517525786F000EE4
:1008F0007621796F0A0E046E000E056E066E076E85
:1009000071C500F072C501F073C502F074C503F043
:100910009EDC08C000F009C001F00AC002F00BC064
:1009200003F0300E002678C5E1FF79C5E2FF00C074
:10093000E6FF77070A0E046E000E056E066E076E60
:1009400071C500F072C501F073C502F074C503F003
:100950007EDC00C071F501C072F502C073F503C002
:0609600074F5B5D712008A
:10096600A69C71C5A9FFA69EA680A8CF00F012007E
:1009760071C57DF572C57EF505017E337D337E9F9B
:1009860073C57FF574C580F5D5DD010E7115016E51
:1009960072C502F0000E0216000E021802E1010EE8
:1009A600011817E1050E73257D6F000E74217E6F09
:1009B6002E0E756F350E766F730E776F786B750E1C
:1009C6007F6F050E806F040E816F000E826F08DC4C
:1009D60017D0050E73257D6F000E74217E6F730E82
:1009E600796F200E7A6F200E7B6F7C6B790E7F6F8E
:1009F600050E806F040E816F000E826FF3EC00F01F
:020A06001200DC
:100A0800C7B409D01F0EC514016E0150000A03E1D6
:0A0A1800010E006E01D0006A12000A
:100A2200010E05017D6FC6C17EF509DE020E0501CC
:100A32007D6F92C27EF503DE030E05017D6FC7C195
:100A42007EF5FDDD040E05017D6F8DC27EF5F7DDBD
:100A5200050E05017D6F7EC27EF5F1DD060E0501F4
:100A62007D6F8EC27EF5EBDD070E05017D6F93C2B1
:100A72007EF5E5DD080E05017D6F91C27EF5DFDDB5
:100A8200090E05017D6F7DC27EF5D9DD0A0E0501D5
:100A92007D6F8CC27EF5D3DD0B0E05017D6F8BC29F
:100AA2007EF5CDDD0C0E05017D6F83C17EF5C7DDC0
:100AB20001018351090805017D6FDBDD0D0E050182
:100AC2007D6F8AC27EF5BBDD0E0E05017D6FF0C122
:100AD2007EF5B5DD0F0E05017D6F90C27EF5AFDDAF
:0E0AE200100E05017D6F8FC27EF5A9DD12009A
:100AF0000301C86BC96BC951120802E1C8518E08C5
:100B000008E382DF005201E004D00301C84BC92B87
:100B1000F2D70301120EC95D02E18F0EC85D03E337
:100B20007B0E006E05D0C580C5A001D0FDD7006A40
:020B30001200B1
:100B32000301CD6B140ECD5D6DE2CDC300F0000E4E
:100B4200016E070E046E000E056E5FDEF10E0026CA
:100B5200010E0122050E0024E96E000E0120EA6E4C
:100B6200EE50010A55E1CDC300F0000E016E070EF2
:100B7200046E000E056E49DEF10E0024E16E010ED8
:100B82000120E26ECCC3E6FFCDC300F0000E016E81
:100B9200070E046E000E056E38DEF10E0026010E01
:100BA2000122010E0024E16E000E0120E26EC8C394
:100BB200E6FFC9C3E6FFCAC3E6FFCBC3E6FFCDC368
:100BC20000F0000E016E070E046E000E056E1DDEB3
:100BD200F10E0026010E0122050E0024E16E000E28
:100BE2000120E26EE66ACDC300F0000E016E070E30
:100BF200046E000E056E09DEF10E0026010E0122C2
:100C0200060E0024E16E000E0120E26EE66A02D0BA
:060C1200CD2B90D712006B
:100C18000301C851010A16E1C9B102D0829201D07C
:100C28008282060E0B6E130E0C6EAD0E0D6E0D2E1F
:100C3800FED70C2EFCD70B2EFAD700000000010EB1
:100C48002B6E8186C851020A17E1C9B102D0829081
:100C580001D08280060E0B6E130E0C6EAD0E0D6E5B
:100C68000D2EFED70C2EFCD70B2EFAD70000000055
:0A0C7800010E00019F6F8188120039
:100C8200010E0301C825E96E000EC921EA6EEECFFE
:100C9200C6F1C8C3E9FFC9C3EAFFEECFC7F1CA5123
:100CA200020AD8A485D0030EC825E96E000EC92118
:100CB200EA6EEECF92F2020EC825E96E000EC9214D
:100CC200EA6EEECF8DF2040EC825E96E000EC92140
:100CD200EA6E080EC825D96E000EC921DA6EDE5002
:100CE200EE24036E046A000E042203C000F004C066
:100CF20001F001320032019E01BC018E00C08EF271
:100D0200050EC825E96E000EC921EA6E090EC82536
:100D1200D96E000EC921DA6EDE50EE24036E046A2B
:100D2200000E042203C000F004C001F001320032C0
:100D3200019E01BC018E00C093F2060EC825E96E29
:100D4200000EC921EA6E0A0EC825D96E000EC9210D
:100D5200DA6EDE50EE24036E046A000E042203C033
:100D620000F004C001F001320032019E01BC018E8C
:100D720000C091F2070EC825E96E000EC921EA6E85
:100D82000B0EC825D96E000EC921DA6EDE50EE2494
:100D9200036E046A000E042203C000F004C001F0D6
:100DA20001320032019E01BC018E00C07DF224D0CE
:100DB2000201926B8D6B040E0301C825E96E000ED1
:100DC200C921EA6EEECF8EF2050EC825E96E000E3D
:100DD200C921EA6EEECF93F2060EC825E96E000E27
:100DE200C921EA6EEECF91F2070EC825E96E000E18
:0C0DF200C921EA6EEECF7DF213DE120084
:100DFE000301C86B140EC85D5CE2C8C300F0000EA0
:100E0E00016E070E046E000E056EF9DCF10E002663
:100E1E00010E0122050E0024E96E000E0120EA6E7D
:100E2E00EE50000A2FE1C8C300F0000E016E070E4F
:100E3E00046E000E056EE3DCF10E0024E96E010E69
:100E4E000120EA6EEECF01F00150090A1BE1C8C382
:100E5E0000F0000E016E070E046E000E056ECFDC64
:100E6E00F10E0026010E0122010E0024E96E000E85
:100E7E000120EA6EEECFC9F3EECFCAF3EECFCBF37D
:100E8E00EECFCCF3C8C300F0000E016E070E046E59
:100E9E00000E056EB4DCF10E0026010E0122050EC9
:100EAE000024E16E000E0120E26E010EE66EC82BEC
:100EBE00A1D7010178510301C95D006E00C0C8F3CE
:020ECE00120010
:100ED000010E0301C825016E000EC921026E01C07A
:100EE000E9FF02C0EAFF0A0EEE24006E01C0E1FF36
:100EF00002C0E2FF00C0E6FF030EC825016E000E2F
:100F0000C921026E01C0E9FF02C0EAFF0A0EEE2409
:100F1000006E01C0E1FF02C0E2FF00C0E6FFC8C3EF
:100F2000E9FFC9C3EAFFEECF00F0C8C3E1FFC9C3C0
:100F3000E2FF0A0E0024E66E020EC825016E000EC6
:100F4000C921026E01C0E9FF02C0EAFF0A0EEE24C9
:100F5000006E01C0E1FF02C0E2FF00C0E6FF040E28
:100F6000C825E16E000EC921E26E040EE66E060E83
:100F7000C825E16E000EC921E26E040EE66E080E71
:100F8000C825E16E000EC921E26E040EE66E0A0E5F
:100F9000C825E16E000EC921E26E040EE66E050E54
:100FA000C825E16E000EC921E26E0A0EE66E090E3A
:100FB000C825E16E000EC921E26E0A0EE66E070E2C
:100FC000C825E16E000EC921E26E0A0EE66E0B0E18
:100FD000C825E16E000EC921E26E0A0EE66E12000F
:100FE00078C171F579C172F57AC173F57BC174F579
:100FF000CA0E0501756F030E766F52DCCA0E716F53
:10100000030E726FECEC03F03A0E0301D56F200E65
:10101000D66FD76BD50E0501716F030E726F1EDC94
:10102000C8C371F5C9C372F519DC0A0E846FADEC43
:0E10300000F00D0E0501846FADEC00F0120013
:10103E000301C96B140EC95D44E2C9C300F0000E72
:10104E00016E070E046E000E056E06EC04F0F10E36
:10105E000026010E0122050E0024E96E000E01206D
:10106E00EA6EEE50000A2BE1C9C300F0000E016ECD
:10107E00070E046E000E056E06EC04F0F10E002451
:10108E00E96E010E0120EA6EEECF01F00150C81993
:10109E0016E0C9C300F0000E016E070E046E000EBE
:1010AE00056E06EC04F0F10E0026010E0122050E6F
:1010BE000024E16E000E0120E26E010EE66EC92BD9
:0410CE00B9D712007C
:1010D2000301C851010A02E12B6A8196C851020A32
:0A10E20003E100019F6B81981200EA
:1010EC00010E0501716F39DC00C0C6F1020E716F83
:1010FC0034DC00C092F2030E716F2FDC00C0C7F11C
:10110C00040E716F2ADC00C08DF2050E716F25DCA8
:10111C0000C07EF2060E716F20DC00C08EF2070E4E
:10112C00716F1BDC00C093F2080E716F16DC00C0EF
:10113C0091F2090E716F11DC00C07DF20A0E716F15
:10114C000CDC00C08BF2000E02018C6F8BC28CF297
:10115C008B6B0B0E0501716F00DC005002018B13C1
:10116C00000E8C130C0E0501716FB3EC04F000C073
:10117C0083F1005009087D6F3AEC03F00D0E050168
:10118C00716FB3EC04F000C08AF20E0E716FB3EC09
:10119C0004F000C0F0F10F0E716FB3EC04F000C05E
:1011AC0090F2100E716FB3EC04F000C08FF21200CD
:1011BC000301C851000A04E0C951000A01E002D041
:1011CC00F28801D0F298C8C34AF1C9C35EF112008B
:1011DC000301C851010A04E10001B16B0101DC916A
:1011EC000301C851020A04E100019E6B0101DC936A
:0211FC001200DF
:1011FE00140E0101C66F140EC76F140E0201926F0A
:10120E00140E8D6F050E0101836F040E05017D6FA7
:10121E003AEC03F00A0E0201936F040E8E6F0A0E63
:10122E007D6F040E916F0C0E7E6F8B6B8C6B0101BC
:10123E00F06B0201906B8F6B8A6B11EC05F0120054
:10124E00020E0101726F610E05017D6F010E7E6F40
:10125E00120EF66E700EF76E000EF86EC80EE16E80
:10126E00030EE26E110E006E010E016E48EC04F0DC
:10127E00C80E7F6F030E806F100E816F000E826F8F
:10128E00F3EC00F001017D51000A67E14C0E0501FF
:10129E007D6F010E7E6F230EF66E700EF76E000ED2
:1012AE00F86ED90EE16E030EE26E110E006E010E97
:1012BE00016E48EC04F0D90E7F6F030E806F100E96
:1012CE00816F000E826FF3EC00F0010E0101736F5F
:1012DE008151000A1FE1610E05017D6F010E7E6FC7
:1012EE00340EF66E700EF76E000EF86EEA0EE16EAC
:1012FE00030EE26E110E006E010E016E48EC04F04C
:10130E00EA0E7F6F030E806F100E816F000E826FDC
:10131E00F3EC00F001018151010A1FE1610E05019C
:10132E007D6F010E7E6F450EF66E700EF76E000E1F
:10133E00F86EFB0EE16E030EE26E110E006E010EE4
:10134E00016E48EC04F0FB0E7F6F030E806F100EE3
:10135E00816F000E826FF3EC00F001017D51010AE6
:10136E002BE14C0E05017D6F010E7E6F560EF66E53
:10137E00700EF76E000EF86E0C0EE16E040EE26E3D
:10138E00110E006E010E016E48EC04F00C0E7F6F14
:10139E00040E806F100E816F000E826FF3EC00F062
:1013AE00010E0101736FC6C171F5670E0501726FF3
:1013BE00010E736FAEEC03F001017D51020A2BE1B9
:1013CE004C0E05017D6F010E7E6F670EF66E700E70
:1013DE00F76E000EF86E1D0EE16E040EE26E110E2B
:1013EE00006E010E016E48EC04F01D0E7F6F040EB0
:1013FE00806F100E816F000E826FF3EC00F0010E05
:10140E000101736F92C271F5670E0501726F010EC5
:10141E00736FAEEC03F001017D51030A2BE14C0E0C
:10142E0005017D6F010E7E6F780EF66E700EF76EF3
:10143E00000EF86E2E0EE16E040EE26E110E006EB0
:10144E00010E016E48EC04F02E0E7F6F040E806FBD
:10145E00100E816F000E826FF3EC00F0010E010191
:10146E00736FC7C171F5670E0501726F010E736F51
:10147E00AEEC03F001017D51040A2BE14C0E050187
:10148E007D6F010E7E6F890EF66E700EF76E000E7A
:10149E00F86E3F0EE16E040EE26E110E006E010E3E
:1014AE00016E48EC04F03F0E7F6F040E806F100E3D
:1014BE00816F000E826FF3EC00F0010E0101736F6D
:1014CE008DC271F5670E0501726F010E736FAEEC72
:1014DE0003F001017D51050A2BE14C0E05017D6FD4
:1014EE00010E7E6F9A0EF66E700EF76E000EF86E8F
:1014FE00500EE16E040EE26E110E006E010E016EC4
:10150E0048EC04F0500E7F6F040E806F100E816F4A
:10151E00000E826FF3EC00F0010E0101736F8EC2AC
:10152E0071F5670E0501726F010E736FAEEC03F06D
:10153E0001017D51060A2BE14C0E05017D6F010E56
:10154E007E6FAB0EF66E700EF76E000EF86E610EBD
:10155E00E16E040EE26E110E006E010E016E48EC8D
:10156E0004F0610E7F6F040E806F100E816F000EFF
:10157E00826FF3EC00F0010E0101736F93C271F5EF
:10158E00670E0501726F010E736FAEEC03F0010171
:10159E007D51070A2BE14C0E05017D6F010E7E6F0A
:1015AE00BC0EF66E700EF76E000EF86E720EE16ED9
:1015BE00040EE26E110E006E010E016E48EC04F088
:1015CE00720E7F6F040E806F100E816F000E826F91
:1015DE00F3EC00F0010E0101736F91C271F5670E0D
:1015EE000501726F010E736FAEEC03F001017D51B8
:1015FE00080A2BE14C0E05017D6F010E7E6FCD0E9C
:10160E00F66E700EF76E000EF86E830EE16E040E1F
:10161E00E26E110E006E010E016E48EC04F0830EA8
:10162E007F6F040E806F100E816F000E826FF3ECD1
:10163E0000F0010E0101736F7DC271F5670E050199
:10164E00726F010E736FAEEC03F001017D51090A4A
:10165E002EE14C0E05017D6F010E7E6FDE0EF66ED5
:10166E00700EF76E000EF86E940EE16E040EE26EC2
:10167E00110E006E010E016E48EC04F0940E7F6F99
:10168E00040E806F100E816F000E826FF3EC00F06F
:10169E00010E0101736F83C17DF5670E05017E6F2B
:1016AE00010E7F6FE6EC02F0200E01016A6F7D5194
:1016BE000A0A2BE14C0E05017D6F010E7E6FEF0EB7
:1016CE00F66E700EF76E000EF86EA50EE16E040E3D
:1016DE00E26E110E006E010E016E48EC04F0A50EC6
:1016EE007F6F040E806F100E816F000E826FF3EC11
:1016FE0000F0010E0101736F7EC271F5670E0501D8
:10170E00726F010E736FAEEC03F001017D510B0A87
:10171E002DE14C0E05017D6F010E7E6F000EF66EF3
:10172E00710EF76E000EF86EB60EE16E040EE26EDE
:10173E00110E006E010E016E48EC04F0B60E7F6FB6
:10174E00040E806F100E816F000E826FF3EC00F0AE
:10175E00010E0101736F8BC271F58CC272F5650EAD
:10176E000501736F010E746FBBEC04F001017D5126
:10177E000C0A22E14C0E05017D6F010E7E6F110EDB
:10178E00F66E710EF76E000EF86EC70EE16E040E59
:10179E00E26E110E006E010E016E48EC04F0C70EE3
:1017AE007F6F040E806F100E816F000E826FF3EC50
:1017BE0000F0010E0101736F7D510D0A69E14C0EAF
:1017CE0005017D6F010E7E6F220EF66E710EF76EA5
:1017DE00000EF86ED80EE16E040EE26E110E006E63
:1017EE00010E016E48EC04F0D80E7F6F040E806F70
:1017FE00100E816F000E826FF3EC00F0010E0101EE
:10180E00736F02019051000A21E1670E05017D6F91
:10181E00010E7E6F4E0E0401E96F6F0EEA6F200E01
:10182E00EB6F200EEC6F200EED6F200EEE6F200E84
:10183E00EF6FF06BE90E05017F6F040E806F070EE0
:10184E00816F000E826FF3EC00F022D00501670E5F
:10185E007D6F010E7E6F590E0401F16F650EF26FF2
:10186E00730EF36F200EF46F200EF56F200EF66FD1
:10187E00200EF76F200EF86FF96BF10E05017F6FDA
:10188E00040E806F080E816F000E826FF3EC00F075
:10189E0001017D510E0A65E14C0E05017D6F010EB1
:1018AE007E6F440EF66E710EF76E000EF86EFA0E27
:1018BE00E16E040EE26E110E006E010E016E48EC2A
:1018CE0004F0FA0E7F6F040E806F100E816F000E03
:1018DE00826FF3EC00F0010E0101736F02018F5164
:1018EE00000A1FE1670E05017D6F010E7E6F4E0E21
:1018FE000B6F6F0E0C6F200E0D6F200E0E6F200EE5
:10190E000F6F200E106F200E116F126B0B0E7F6F6C
:10191E00050E806F070E816F000E826FF3EC00F0E4
:10192E0020D00501670E7D6F010E7E6F590E136F6D
:10193E00650E146F730E156F200E166F200E176F37
:10194E00200E186F200E196F200E1A6F1B6B130EC0
:10195E007F6F050E806F080E816F000E826FF3ECA5
:10196E0000F001017D510F0A64E14C0E05017D6FFF
:10197E00010E7E6F660EF66E710EF76E000EF86E2D
:10198E001C0EE16E050EE26E110E006E010E016E62
:10199E0048EC04F01C0E7F6F050E806F100E816FE9
:1019AE00000E826FF3EC00F0010E0101736FF05127
:1019BE00000A1FE1670E05017D6F010E7E6F4E0E50
:1019CE002D6F6F0E2E6F200E2F6F200E306F200E8C
:1019DE00316F200E326F200E336F346B2D0E7F6FF2
:1019EE00050E806F070E816F000E826FF3EC00F014
:1019FE0020D00501670E7D6F010E7E6F590E356F7B
:101A0E00650E366F730E376F200E386F200E396FDE
:101A1E00200E3A6F200E3B6F200E3C6F3D6B350E45
:101A2E007F6F050E806F080E816F000E826FF3ECD4
:101A3E0000F001017D51100A2BE14C0E05017D6F66
:101A4E00010E7E6F880EF66E710EF76E000EF86E3A
:101A5E003E0EE16E050EE26E110E006E010E016E6F
:101A6E0048EC04F03E0E7F6F050E806F100E816FF6
:101A7E00000E826FF3EC00F0010E0101736F8AC24B
:101A8E0071F5670E0501726F010E736FAEEC03F008
:101A9E0001017D51110A22E14C0E05017D6F010EEF
:101AAE007E6F990EF66E710EF76E000EF86E4F0E7B
:101ABE00E16E050EE26E110E006E010E016E48EC27
:101ACE0004F04F0E7F6F050E806F100E816F000EAB
:101ADE00826FF3EC00F0010E0101736F7D51120A5B
:101AEE0022E14C0E05017D6F010E7E6FAA0EF66E81
:101AFE00710EF76E000EF86E600EE16E050EE26E60
:101B0E00110E006E010E016E48EC04F0600E7F6F38
:101B1E00050E806F100E816F000E826FF3EC00F0D9
:0C1B2E00010E0101736F650E606F120064
:041B3A00C58412004C
:101B3E009E96C8C3C9FFC7A401D0FDD79EB601D0DB
:101B4E00FDD7C5BC02D0006A03D0C584020E006E5C
:021B5E00120073
:101B6000C26AC00EC212C18CC18EC8C300F000365A
:101B7000009000360090003600900050C212C280E3
:101B8000A9EC03F0C284C2A401D0FDD7C4CF01F0F8
:0E1B9000006AC3500012000E0112C290120033
:101B9E000101D8510301C81905E10101D86B010EED
:101BAE00006E12000101D9510301C81905E10101AE
:101BBE00D96B010E006E12000101DA510301C81932
:101BCE0005E10101DA6B010E006E1200006A1200CF
:101BDE000201AF6BB06BB16B83BA02D0B18101D091
:101BEE00B19184B002D0B18301D0B19383B802D049
:101BFE00B18501D0B195B151000A18E101014551ED
:101C0E00000A07E1B36BC56B456B0201AE6B0101B8
:101C1E00B26B4551010A0AE1050E435D07E3B36B52
:101C2E00C56B456B0201AE6B0101B26B0101C55173
:101C3E00060802E3140EC46FC551060805E2C5512D
:101C4E00140802E30A0EC46FC551140802E2050E11
:101C5E00C46FB351010A0AE1C4513E5D07E3010EA0
:101C6E00B26F3E6B190EC55D01E2C52B0201B1517B
:101C7E00000A22E001014551010A1EE1B351000A9A
:101C8E001BE1020EB425016E000EB521026E000E90
:101C9E00B621036E000EB721046E7B51041808E1C5
:101CAE007A51031805E17951021802E178510118B1
:101CBE0003E1010EB36F3E6B0201B151000A09E060
:101CCE0001014551010A05E1B351000A02E1020189
:101CDE00AE6B0201B151000A0EE001014551010A3D
:101CEE000AE1B351010A07E10201B1510101B20348
:101CFE00F3CFAEF2B26B0201B151000A11E0010155
:101D0E004551000A0DE1B1C2AEF2010E456F78C128
:101D1E00B4F179C1B5F17AC1B6F17BC1B7F1436BBC
:101D2E000201AE51000A03E0010E0101426FAEC284
:041D3E0000F012009F
:101D420083A003D083A201D003D0010E006E120043
:041D5200006A120011
:101D56000201AE6B010146B103D00201AE9102D081
:101D66000201AE81010147B103D00201AE9302D058
:101D76000201AE830101466B476B140E605D15E2EE
:101D86000201AEB106D00101D7B503D00201AE9172
:101D960002D00201AE81AEB306D00101D7B103D0A5
:101DA6000201AE9302D00201AE83AEC200F0120071
:101DB600010E0101826FD7A31BD0826B0001D66B87
:101DC600650E0101606F7D51000A12E1D66B8151EB
:101DD600000A05E1C80E606F010E0001D76F010110
:101DE6008151010A05E1C90E606F010E0001D76F2E
:101DF60001017D51000A14E1D7A108D081510008E4
:101E060005E2810727EC09F0660E606FD7A508D0BA
:101E1600010E815D05E2812B27EC09F0660E606FED
:101E26007D51010A14E1D7A108D0C651000805E288
:101E3600C60727EC09F0660E606FD7A508D0FF0E1F
:101E4600C65D05E2C62B27EC09F0660E606F7D5174
:101E5600020A17E1D7A109D002019251000805E252
:101E6600920727EC09F0660E606F0101D7A509D02D
:101E7600FF0E0201925D05E2922B27EC09F0660E39
:101E8600606F01017D51030A14E1D7A108D0C75143
:101E9600000805E2C70727EC09F0660E606FD7A5B4
:101EA60008D0FF0EC75D05E2C72B27EC09F0660ECA
:101EB600606F7D51040A17E1D7A109D002018D5147
:101EC600000805E28D0727EC09F0660E606F010138
:101ED600D7A509D0FF0E02018D5D05E28D2B27ECFB
:101EE60009F0660E606F01017D51050A17E1D7A161
:101EF60009D002018E51000805E28E0727EC09F091
:101F0600660E606F0101D7A509D0FF0E02018E5D36
:101F160005E28E2B27EC09F0660E606F01017D51FC
:101F2600060A17E1D7A109D002019351000805E27C
:101F3600930727EC09F0660E606F0101D7A509D05B
:101F4600FF0E0201935D05E2932B27EC09F0660E66
:101F5600606F01017D51070A17E1D7A109D002017F
:101F66009151000805E2910727EC09F0660E606FB3
:101F76000101D7A509D0FF0E0201915D05E2912B63
:101F860027EC09F0660E606F01017D51080A17E122
:101F9600D7A109D002017D51000805E27D0727EC93
:101FA60009F0660E606F0101D7A509D0FF0E020188
:101FB6007D5D05E27D2B27EC09F0660E606F010161
:101FC6007D51090A14E1D7A108D08351000805E222
:101FD600830727EC09F0660E606FD7A508D0090EB7
:101FE600835D05E2832B27EC09F0660E606F7D5159
:101FF6000A0A17E1D7A109D002017E51000805E2BD
:102006007E0727EC09F0660E606F0101D7A509D09F
:10201600FF0E02017E5D05E27E2B27EC09F0660EBF
:10202600606F01017D510B0A23E1D7A111D0000E8B
:10203600006E02018C51005C02E18B51000808E23F
:10204600010E8B5F000E8C5B27EC09F0660E606F4D
:102056000101D7A50DD0FD0E02018C5D02E1E80E4F
:102066008B5D06E28B4B8C2B27EC09F0660E606FBE
:1020760001017D510C0A20E1606B4C0E05017D6F5C
:10208600010E7E6F880E7F6F010E806F100E816FBE
:10209600000E826FF3EC00F0010E0101726F826B8D
:1020A6000001D66B010E0101736F010E0001D76F9F
:1020B600FFEC08F011EC05F001017D510D0A17E166
:1020C600D7A109D002019051000805E2900727EC3C
:1020D60009F0660E606F0101D7A509D0010E020155
:1020E600905D05E2902B27EC09F0660E606F01010A
:1020F6007D510E0A17E1D7A109D002018F510008C0
:1021060005E28F0727EC09F0660E606F0101D7A57F
:1021160009D0010E02018F5D05E28F2B27EC09F035
:10212600660E606F01017D510F0A14E1D7A108D038
:10213600F051000805E2F00727EC09F0660E606F23
:10214600D7A508D0010EF05D05E2F02B27EC09F0CB
:10215600660E606F7D51100A20E1D7A10DD00201F5
:102166008A51000809E28A078A51090A01E18A6B45
:1021760027EC09F0660E606F0101D7A50ED0FF0EA1
:1021860002018A5D0AE28A2B8A51010A02E10A0EDD
:102196008A6F27EC09F0660E606F01017D51110A06
:1021A6001AE1670E606F4C0E05017D6F010E7E6FA2
:1021B600880E7F6F010E806F100E816F000E826F8A
:1021C600F3EC00F00101826B010E726F010E736F6A
:1021D600010E0001D76F01017D51120A1BE1606BF0
:1021E6004C0E05017D6F010E7E6F880E7F6F010E0E
:1021F600806F100E816F000E826FF3EC00F001010C
:10220600826B010E726F010E736F76EC08F0010E91
:062216000001D76F120069
:10221C000201B26B0301C86B9DDC00C0AEF201C0C1
:10222C00AFF2010E0301C86F95DC00C0B0F201C023
:10223C00B1F2010E0101736F4A51000A15E086518B
:10224C000201AF5D04E1010185510201AE5D06E2C0
:10225C00FF0E0001B15D01E2B12B05D00001B151BF
:10226C00000801E2B10702D00001B16BB1510101CC
:10227C00875D02E20201B28101015E51000A15E0A4
:10228C0086510201B15D04E1010185510201B05D8D
:10229C0006E2FF0E00019E5D01E29E2B05D00001BF
:1022AC009E51000801E29E0702D000019E6B9E51D8
:1022BC000101875D02E20201B283B2C200F012009A
:1022CC000201AE6B83B801D0AE8183BA01D0AE836C
:0622DC00AEC200F012008A
:0A22E20011EC05F00101606B120021
:1022EC0078EC05F07C0E0301C86F23DC800E030133
:1022FC00C86F1FDC0201AE51020A04E1380E030163
:10230C00C86F17DC0201AE51010A04E1340E03015F
:10231C00C86F0FDC800E0301C86F0BDC0201AE51DD
:10232C00020A04E1390E0301C86F03DC0201AE514D
:10233C00010A05E1350E0301C86F9FEC0DF0800E0C
:10234C000301C86F9FEC0DF01C0E0301C86F9FECCE
:10235C000DF0800E0301C86F9FEC0DF0720E03019F
:10236C00C86F9FEC0DF0800E0301C86F9FEC0DF051
:10237C00550E0301C86F9FEC0DF0800E0301C86F62
:10238C009FEC0DF06C0E0301C86F9FEC0DF0800EEE
:10239C000301C86F9FEC0DF00C0E0301C86F9FEC8E
:1023AC000DF0800E0301C86F9FEC0DF0010E0301C0
:1023BC00C86F9FEC0DF0800E0301C86F9FEC0DF001
:1023CC00060E0301C86F9FEC0DF0800E0301C86F61
:1023DC009FEC0DF0020E0301C86F9FEC0DF09DEC0D
:0423EC000DF01200DE
:1023F000949894968B988B9694889486C79EC79C45
:06240000380EC66E12004A
:102406000201B26BB36BAE51010A03E1AF51800F0B
:10241600B36FAE51020A03E1AF51C00FB36F78EC50
:1024260005F07C0E0301C86F9FEC0DF0800E0301D2
:10243600C86F9FEC0DF0B3C2C8F39FEC0DF0400ED1
:102446000301C86F9FEC0DF00201B251B025E96E91
:10245600000EB121EA6EEE500A0A10E0B2511008E1
:102466000DE3B251B025E96E000EB121EA6EEECF52
:10247600C8F39FEC0DF00201B22BE6D79DEC0DF0F0
:102486000D0E0C6EFB0E0D6E0D2EFED70C2EFCD710
:062496000000000012002E
:10249C005A0E0101AA6F010EAB6F840EAC6F050EC4
:1024AC00AD6FFF0E986FFF0E996F000E9A6F000EB6
:1024BC009B6FFF0EE86FFF0EE96F000EEA6F000EC8
:1024CC00EB6FFF0EE46FFF0EE56F000EE66F000E74
:1024DC00E76FAC8A900EAB6E948E949C9EAA03D040
:0824EC00AECF00F0FBD7120097
:1024F4000201AF6BB06B3F0EAE15026E02C0AEF2BE
:10250400540EAF6F02C000F00032009E0032009EF5
:102514000032009E0032009E540E0010AF6F700E09
:10252400B06F0F0E0214006E700E0010B06F78ECD6
:1025340005F07C0E0301C86F9FEC0DF0800E0301C3
:10254400C86F9FEC0DF0AFC2C8F39FEC0DF0800E86
:102554000301C86F9FEC0DF0B0C2C8F39FEC0DF0FF
:102564009DEC0DF00D0E0C6EFB0E0D6E0D2EFED7B8
:0A2574000C2EFCD70000000012003E
:10257E00838E010E0301C86FCFEC0DF000522BE0DD
:10258E00010E0301C86FC96B0CEC06F0530E02016D
:10259E00AE6F370EAF6F200EB06F4D0EB16F6F0E68
:1025AE00B26F740EB36F6F0EB46F720EB56F310ED5
:1025BE00B66F530EB76F740EB86F610EB96F720EA1
:1025CE00BA6F740EBB6FBC6BAE0E0301C86F020EFA
:1025DE00C96FF0EC07F0020E0301C86FCFEC0DF0DF
:1025EE0000524DE0020E0301C86FC96B0CEC06F0F1
:1025FE00530E0201BD6F370EBE6F200EBF6F4D0E14
:10260E00C06F6F0EC16F740EC26F6F0EC36F720EFE
:10261E00C46F320EC56F530EC66F740EC76F610E48
:10262E00C86F720EC96F740ECA6FCB6BBD0E0301ED
:10263E00C86F020EC96FF0EC07F04C0E05017D6FEE
:10264E00010E7E6FB30E7F6F000E806F100E816FC6
:10265E00000E826FF3EC00F0610E7D6F010E7E6F47
:10266E00C40E7F6F000E806F100E816F000E826F92
:10267E00F3EC00F0010E0101736F010E726F0A0E82
:10268E000301C86FCFEC0DF000521FE0010E0101E7
:10269E005D6F010E0301C86FEEEC08F0490EF66E89
:1026AE00760EF76E000EF86ECC0EE16E020EE26E36
:1026BE00150E006E010E016E48EC04F0CC0E0301F7
:1026CE00C86F020EC96FF0EC07F00B0E0301C86F56
:1026DE00CFEC0DF000521FE0010E0101746F020EDF
:1026EE000301C86FEEEC08F05E0EF66E760EF76E16
:1026FE00000EF86EE10EE16E020EE26E150E006E29
:10270E00010E016E48EC04F0E10E0301C86F020EDB
:10271E00C96FF0EC07F0050E0301C86FCFEC0DF09A
:10272E0000522EE0010E0301C86F5EC1C9F3DEEC4C
:10273E0008F001015F6B530E0201F66F370EF76F53
:10274E00200EF86F4D0EF96F310EFA6F200EFB6FE3
:10275E00530EFC6F700EFD6F650EFE6F650EFF6FF4
:10276E00640E0301006F200E016F550E026F500EA6
:10277E00036F046BF60EC86F020EC96FF0EC07F014
:10278E00060E0301C86FCFEC0DF000522DE04AC1CA
:10279E00C8F3010E0301C96FDEEC08F001014B6BAB
:1027AE00530E0301056F370E066F200E076F4D0E89
:1027BE00086F320E096F200E0A6F530E0B6F700EDC
:1027CE000C6F650E0D6F650E0E6F640E0F6F200E83
:1027DE00106F550E116F500E126F136B050EC86FE2
:1027EE00030EC96FF0EC07F0030E0301C86FCFECB8
:1027FE000DF0005208E101015D51010A03E1DCA177
:10280E0001D001D029D001017FA126D07F91010EE8
:10281E000301C86F69EC08F0530E0301146F370EF5
:10282E00156F200E166F4D0E176F310E186F200E8E
:10283E00196F530E1A6F740E1B6F6F0E1C6F700E86
:10284E001D6F650E1E6F640E1F6F206B140EC86F0A
:10285E00030EC96FF0EC07F0040E0301C86FCFEC46
:10286E000DF0005208E101017451010A03E1DCA3ED
:10287E0001D001D029D001017FA326D07F93020E73
:10288E000301C86F69EC08F0530E0301216F370E78
:10289E00226F200E236F4D0E246F320E256F200EE9
:1028AE00266F530E276F740E286F6F0E296F700EE2
:1028BE002A6F650E2B6F640E2C6F2D6B210EC86F59
:1028CE00030EC96FF0EC07F002019251000A05E009
:1028DE0001017C51010A01E002D001017F93DDA1CB
:1028EE0050D0010E0301C86F69EC08F0020E03010F
:1028FE00C86F69EC08F001015D6B746B060E606FBA
:10290E00010E0001D56FAB0EF66E760EF76E000E51
:10291E00F86E2E0EE16E030EE26E110E006E010EBB
:10292E00016E48EC04F02E0E0301C86F030EC96F42
:10293E00F0EC07F0090E0301C86F1FEC08F04C0E07
:10294E0005017D6F010E7E6F0B0E7F6F010E806F86
:10295E00100E816F000E826FF3EC00F0610E7D6F32
:10296E00010E7E6F1C0E7F6F010E806F100E816F39
:10297E00000E826FF3EC00F0010E0101736F020E78
:10298E00726FDB51000A4DE0010E0301C86F69EC56
:10299E0008F0020E0301C86F69EC08F0060E010183
:1029AE00606F5D6B746BBC0EF66E760EF76E000E7E
:1029BE00F86E3F0EE16E030EE26E120E006E010E09
:1029CE00016E48EC04F03F0E0301C86F030EC96F91
:1029DE00F0EC07F0090E0301C86F1FEC08F04C0E67
:1029EE0005017D6F010E7E6F0B0E7F6F010E806FE6
:1029FE00100E816F000E826FF3EC00F0610E7D6F92
:102A0E00010E7E6F2D0E7F6F010E806F100E816F87
:102A1E00000E826FF3EC00F0010E0101736F020ED7
:102A2E00726FDE51010A50E102018F534DE0010E2B
:102A3E000301C86F69EC08F0020E0301C86F69EC60
:102A4E0008F0060E0101606F5D6B746BCE0EF66EB4
:102A5E00760EF76E000EF86E510EE16E030EE26EFC
:102A6E00150E006E010E016E48EC04F0510E0301BE
:102A7E00C86F030EC96FF0EC07F0090E0301C86FA3
:102A8E001FEC08F04C0E05017D6F010E7E6F0B0ED4
:102A9E007F6F010E806F100E816F000E826FF3EC50
:102AAE0000F0610E7D6F010E7E6FD80E7F6F000EEF
:102ABE00806F100E816F000E826FF3EC00F0010E2E
:102ACE000101736F020E726F01017F51000A2AE13C
:102ADE00010E606F806B090E0301C86F1FEC08F0CA
:102AEE004C0E05017D6F010E7E6FE90E7F6F000E9D
:102AFE00806F100E816F000E826FF3EC00F0610E8E
:102B0E007D6F010E7E6FC40E7F6F000E806F100EF4
:102B1E00816F000E826FF3EC00F0010E0101736FF6
:102B2E00010E726F6051050A04E06051060A01E061
:102B3E004ED00301C86B1FEC08F0000E02018C1979
:102B4E0002E1000E8B1943E08B5101017825030140
:102B5E00C86F02018C51010179210301C96F000E6A
:102B6E0001017A210301CA6F000E01017B210301CD
:102B7E00CB6F090ECC6F99EC05F0E30EF66E760E68
:102B8E00F76E000EF86E660EE16E030EE26E150E17
:102B9E00006E010E016E48EC04F0660EC86F030E57
:102BAE00C96FF0EC07F0610E05017D6F010E7E6FAF
:102BBE00FA0E7F6F000E806F100E816F000E826F07
:102BCE00F3EC00F0010E0101736F020E726F120032
:102BDE00F5D1838E0101DBA103D0020EC96FD62B76
:102BEE00DBA304D0010EC96F030ED66F5D6B746B41
:102BFE001ED2020E0301C86FC96B0CEC06F0040E58
:102C0E00010178250301C86F000E0101792103012E
:102C1E00C96F000E01017A210301CA6F000E010176
:102C2E007B210301CB6F150ECC6F99EC05F00101E2
:102C3E00D62BFDD1DCA30BD07451010A08E1746BC5
:102C4E00020E0301C86F69EC08F00101D62B150EB8
:102C5E000301C86FCFEC0DF0005203E0010E01012D
:102C6E00746FE5D1010E0301C86FC96B0CEC06F051
:102C7E00040E010178250301C86F000E01017921B0
:102C8E000301C96F000E01017A210301CA6F000E04
:102C9E0001017B210301CB6F140ECC6F99EC05F073
:102CAE000101D62BDCA10BD05D51010A08E15D6B51
:102CBE00010E0301C86F69EC08F00101D62B140E4A
:102CCE000301C86FCFEC0DF0005203E0010E0101BD
:102CDE005D6FADD178C1E0F179C1E1F17AC1E2F178
:102CEE007BC1E3F1010E0301C86F010EC96F0CEC3D
:102CFE0006F0040E010178250301C86F000E0101D4
:102D0E0079210301C96F000E01017A210301CA6FF7
:102D1E00000E01017B210301CB6F140ECC6F99ECD9
:102D2E0005F00101D62B83D1DCA116D05D51010A2D
:102D3E0013E15D6B010E0301C86F69EC08F0010130
:102D4E00C951010A03E10B0ED66F01D0D62BE0510B
:102D5E00785D006E00C0CBF1140E0301C86FCFEC8E
:102D6E000DF0005203E0010E01015D6F60D178C1DC
:102D7E00E0F179C1E1F17AC1E2F17BC1E3F1020E3A
:102D8E000301C86F010EC96F0CEC06F0040E0101B1
:102D9E0078250301C86F000E010179210301C96F67
:102DAE00000E01017A210301CA6F000E01017B2181
:102DBE000301CB6F150ECC6F99EC05F00101D62BEC
:102DCE0036D1DCA310D07451010A0DE1746B020EE2
:102DDE000301C86F69EC08F00101D62BE051785D54
:102DEE00006E00C0CDF1150E0301C86FCFEC0DF0D3
:102DFE00005203E0010E0101746F19D178C1E0F1A8
:102E0E0079C1E1F17AC1E2F17BC1E3F1020E030176
:102E1E00C86FC96B0CEC06F0040E01017825030196
:102E2E00C86F000E010179210301C96F000E010167
:102E3E007A210301CA6F000E01017B210301CB6FC2
:102E4E00150ECC6F99EC05F00101D62BF0D0DCA35A
:102E5E0010D07451010A0DE1746B020E0301C86F9C
:102E6E0069EC08F00101D62BE051785D006E00C0D0
:102E7E00CCF1150E0301C86FCFEC0DF0005203E03C
:102E8E00010E0101746FD3D078C1E0F179C1E1F187
:102E9E007AC1E2F17BC1E3F1010E0301C86FC96B88
:102EAE000CEC06F0040E010178250301C86F000E2C
:102EBE00010179210301C96F000E01017A2103017D
:102ECE00CA6F000E01017B210301CB6F140ECC6F74
:102EDE0099EC05F00101D62BAAD0DCA110D05D51E2
:102EEE00010A0DE15D6B010E0301C86F69EC08F07C
:102EFE000101D62BE051785D006E00C0CAF1140EB0
:102F0E000301C86FCFEC0DF0005203E0010E01017A
:102F1E005D6F8DD0CA0E0301C86F010EC96F68ECCC
:102F2E0007F0CA0EC86F010EC96FC9C1CAF341ECD2
:102F3E0006F04C0E05017D6F010E7E6FBF0EF66E14
:102F4E00770EF76E000EF86EAE0EE16E020EE26EAA
:102F5E00110E006E010E016E48EC04F0AE0E7F6F86
:102F6E00020E806F100E816F000E826FF3EC00F078
:102F7E00610E7D6F010E7E6FD00EF66E770EF76EC0
:102F8E00000EF86EBF0EE16E020EE26E110E006EB6
:102F9E00010E016E48EC04F0BF0E7F6F020E806FC3
:102FAE00100E816F000E826FF3EC00F0020E010125
:102FBE00726F010E736F839E606B39D00101D65113
:102FCE00000AD8B406D6D651010AD8B412D6D651B4
:102FDE00020AD8B42FD6D651030AD8B443D6D65146
:102FEE00040AD8B45FD6D651050AD8B473D6D651D2
:102FFE00060AD8B499D6D651070AD8B4B8D6D6513F
:10300E00080AD8B4DED6D651090AD8B4F7D6D651A6
:10301E000A0AD8B41CD7D6510B0AD8B435D7D65114
:10302E000C0AD8B45AD7D6510D0AD8B473D7120099
:10303E000101D7A302D000018C2B00018C51010A93
:10304E0020E14C0E05017D6F010E7E6F4C0E7F6FE1
:10305E00000E806F100E816F000E826FF3EC00F089
:10306E00610E7D6F010E7E6F5C0E7F6F000E806FA6
:10307E00100E816F000E826FF3EC00F0010E010155
:10308E00736F00018C51020A20E14C0E05017D6F19
:10309E00010E7E6F6C0E7F6F000E806F100E816FB3
:1030AE00000E826FF3EC00F0610E7D6F010E7E6FED
:1030BE007C0E7F6F000E806F100E816F000E826F80
:1030CE00F3EC00F0010E0101736F00018C51030A45
:0A30DE0003E1640E0101606F1200AF
:1030E800838E010E0301C86FCFEC0DF000522BE068
:1030F800010E0301C86FC96B0CEC06F0530E0201F8
:10310800AE6F340EAF6F200EB06F4D0EB16F6F0EF5
:10311800B26F740EB36F6F0EB46F720EB56F310E5F
:10312800B66F530EB76F740EB86F610EB96F720E2B
:10313800BA6F740EBB6FBC6BAE0E0301C86F020E84
:10314800C96FF0EC07F0020E0301C86FCFEC0DF069
:1031580000524DE0020E0301C86FC96B0CEC06F07B
:10316800530E0201BD6F340EBE6F200EBF6F4D0EA1
:10317800C06F6F0EC16F740EC26F6F0EC36F720E89
:10318800C46F320EC56F530EC66F740EC76F610ED3
:10319800C86F720EC96F740ECA6FCB6BBD0E030178
:1031A800C86F020EC96FF0EC07F04C0E05017D6F79
:1031B800010E7E6FB30E7F6F000E806F100E816F51
:1031C800000E826FF3EC00F0610E7D6F010E7E6FD2
:1031D800C40E7F6F000E806F100E816F000E826F1D
:1031E800F3EC00F0010E0101736F010E726F0A0E0D
:1031F8000301C86FCFEC0DF000521FE0010E010172
:103208005D6F010E0301C86FEEEC08F05D0EF66EFF
:10321800740EF76E000EF86ECC0EE16E020EE26EC2
:10322800150E006E010E016E48EC04F0CC0E030181
:10323800C86F020EC96FF0EC07F00B0E0301C86FE0
:10324800CFEC0DF000521FE0010E0101746F020E69
:103258000301C86FEEEC08F0720EF66E740EF76E8E
:10326800000EF86EE10EE16E020EE26E150E006EB3
:10327800010E016E48EC04F0E10E0301C86F020E66
:10328800C96FF0EC07F0050E0301C86FCFEC0DF025
:1032980000522FE0010E0301C86F5EC1C9F3DEECD6
:1032A80008F001015D6B5F6B530E0201F66F340E7F
:1032B800F76F200EF86F4D0EF96F310EFA6F200E72
:1032C800FB6F530EFC6F700EFD6F650EFE6F650E83
:1032D800FF6F640E0301006F200E016F550E026F21
:1032E800500E036F046BF60EC86F020EC96FF0EC38
:1032F80007F0070E0301C86FCFEC0DF0005221E074
:103308000301C86B5EC1C9F3DEEC08F00101746B00
:10331800010E5F6F960EF66E740EF76E000EF86E65
:10332800050EE16E030EE26E110E006E010E016EC7
:1033380048EC04F0050E0301C86F030EC96FF0ECEA
:1033480007F0060E0301C86FCFEC0DF000522DE018
:103358004AC1C8F3010E0301C96FDEEC08F0010190
:103368004B6B530E0301166F340E176F200E186F38
:103378004D0E196F320E1A6F200E1B6F530E1C6FF5
:10338800700E1D6F650E1E6F650E1F6F640E206F29
:10339800200E216F550E226F500E236F246B160ED0
:1033A800C86F030EC96FF0EC07F0080E0301C86F71
:1033B800CFEC0DF0005220E04AC1C8F30301C96BFD
:1033C800DEEC08F0010E01014B6FB60EF66E740EBE
:1033D800F76E000EF86E250EE16E030EE26E110E0A
:1033E800006E010E016E48EC04F0250E0301C86F53
:1033F800030EC96FF0EC07F0030E0301C86FCFECA2
:103408000DF0005227E001017F91010E0301C86F02
:1034180069EC08F0530E0301366F340E376F200E37
:10342800386F4D0E396F310E3A6F200E3B6F530EC9
:103438003C6F740E3D6F6F0E3E6F700E3F6F650EE2
:10344800406F640E416F426B360EC86F030EC96F32
:10345800F0EC07F0040E0301C86FCFEC0DF000523A
:1034680027E001017F93020E0301C86F69EC08F0A1
:10347800530E0301436F340E446F200E456F4D0EFB
:10348800466F320E476F200E486F530E496F740E09
:103498004A6F6F0E4B6F700E4C6F650E4D6F640E5A
:1034A8004E6F4F6B430EC86F030EC96FF0EC07F0F9
:1034B80001015D51010A52E1DCA150D05F51000ABF
:1034C8004DE1010E0301C86F69EC08F0020E03011B
:1034D800C86F69EC08F0060E0101606F5D6B746BD4
:1034E800E10EF66E740EF76E000EF86E500EE16E79
:1034F800030EE26E110E006E010E016E48EC04F030
:10350800500E0301C86F030EC96FF0EC07F0090EE7
:103518000301C86F1FEC08F04C0E05017D6F010E0A
:103528007E6F0B0E7F6F010E806F100E816F000E85
:10353800826FF3EC00F0610E7D6F010E7E6FA00EBE
:103548007F6F000E806F100E816F000E826FF3EC9C
:1035580000F0010E0101736F020E726F7451010ABF
:1035680052E1DCA350D04B51000A4DE1010E03019A
:10357800C86F69EC08F0020E0301C86F69EC08F027
:10358800060E0101606F5D6B746BF20EF66E740EC1
:10359800F76E000EF86E610EE16E030EE26E110E0C
:1035A800006E010E016E48EC04F0610E0301C86F55
:1035B800030EC96FF0EC07F0090E0301C86F1FEC8A
:1035C80008F04C0E05017D6F010E7E6F0B0E7F6FAC
:1035D800010E806F100E816F000E826FF3EC00F009
:1035E800610E7D6F010E7E6FA00E7F6F000E806FE3
:1035F800100E816F000E826FF3EC00F0010E0101D6
:10360800736F020E726F02019251000A05E0010108
:103618007C51010A01E002D001017F93DDA150D065
:10362800010E0301C86F69EC08F0020E0301C86FB0
:1036380069EC08F001015D6B746B060E606F010E9A
:103648000001D56F030EF66E750EF76E000EF86E5C
:10365800720EE16E030EE26E110E006E010E016E27
:1036680048EC04F0720E0301C86F030EC96FF0EC4A
:1036780007F0090E0301C86F1FEC08F04C0E050196
:103688007D6F010E7E6F0B0E7F6F010E806F100E27
:10369800816F000E826FF3EC00F0610E7D6F010EFA
:1036A8007E6F1C0E7F6F010E806F100E816F000EF3
:1036B800826FF3EC00F0010E0101736F020E726F5E
:1036C800DE51010A50E102018F534DE0010E030162
:1036D800C86F69EC08F0020E0301C86F69EC08F0C6
:1036E800060E0101606F5D6B746B140EF66E750E3D
:1036F800F76E000EF86E830EE16E030EE26E150E85
:10370800006E010E016E48EC04F0830E0301C86FD1
:10371800030EC96FF0EC07F0090E0301C86F1FEC28
:1037280008F04C0E05017D6F010E7E6F0B0E7F6F4A
:10373800010E806F100E816F000E826FF3EC00F0A7
:10374800610E7D6F010E7E6FD80E7F6F000E806F49
:10375800100E816F000E826FF3EC00F0010E010174
:10376800736F020E726F0101DB51000A4DE0010E0A
:103778000301C86F69EC08F0020E0301C86F69EC19
:1037880008F0060E0101606F5D6B746B290EF66E12
:10379800750EF76E000EF86E980EE16E030EE26E6F
:1037A800120E006E010E016E48EC04F0980E030133
:1037B800C86F030EC96FF0EC07F0090E0301C86F5C
:1037C8001FEC08F04C0E05017D6F010E7E6F0B0E8D
:1037D8007F6F010E806F100E816F000E826FF3EC09
:1037E80000F0610E7D6F010E7E6F2D0E7F6F010E52
:1037F800806F100E816F000E826FF3EC00F0010EE7
:103808000101736F020E726F7F51000A2AE1010EE7
:10381800606F806B090E0301C86F1FEC08F04C0E37
:1038280005017D6F010E7E6FE90E7F6F000E806FC0
:10383800100E816F000E826FF3EC00F0610E7D6F49
:10384800010E7E6FC40E7F6F000E806F100E816FA9
:10385800000E826FF3EC00F0010E0101736F010E90
:10386800726F6051050A04E06051060A01E04ED00B
:103878000301C86B1FEC08F0000E02018C1902E16D
:10388800000E8B1943E08B51010178250301C86FA5
:1038980002018C51010179210301C96F000E010158
:1038A8007A210301CA6F000E01017B210301CB6F4E
:1038B800090ECC6F99EC05F03B0EF66E750EF76E9F
:1038C800000EF86EAA0EE16E030EE26E150E006E83
:1038D800010E016E48EC04F0AA0EC86F030EC96F02
:1038E800F0EC07F0610E05017D6F010E7E6FFA0E98
:1038F8007F6F000E806F100E816F000E826FF3ECE9
:0E39080000F0010E0101736F020E726F1200CB
:10391600020E0201E46F839E0101DB51000A09E1F8
:10392600090E0301C86FCFEC0DF00050010A01E04B
:10393600DED102018D51000A05E001017C51010A28
:1039460001E087D0090E0301C86F1FEC08F00201E1
:10395600E45101017825006E000E7921016E000EFA
:103966007A21026E000E7B21036E00C0ECF101C0CD
:10397600EDF102C0EEF103C0EFF100C0C8F301C0E3
:10398600C9F302C0CAF303C0CBF3010E0301CC6F27
:1039960099EC05F0ECC1C8F3EDC1C9F3EEC1CAF369
:1039A600EFC1CBF3050ECC6F99EC05F001015F6B0F
:1039B600020E7825006E000E7921016E000E7A2126
:1039C600026E000E7B21036E0201E4510026000EFA
:1039D60001220222032200C0ECF101C0EDF102C077
:1039E600EEF103C0EFF100C0C8F301C0C9F302C095
:1039F600CAF303C0CBF30A0E0301CC6F99EC05F0B2
:103A06000101C7517825006E000E7921016E000E66
:103A16007A21026E000E7B21036E0201E45100261C
:103A2600000E01220222032200C0ECF101C0EDF1DA
:103A360002C0EEF103C0EFF100C0C8F301C0C9F344
:103A460002C0CAF303C0CBF3030E0301CC6F99EC9B
:103A560005F002018D51000AD8B442D101017C5112
:103A6600020AD8A43DD1090E0301C86F1FEC08F065
:103A76000201E45101017825006E000E7921016EE4
:103A8600000E7A21026E000E7B21036E00C0ECF15F
:103A960001C0EDF102C0EEF103C0EFF100C0C8F3C2
:103AA60001C0C9F302C0CAF303C0CBF3020E03017F
:103AB600CC6F99EC05F0ECC1C8F3EDC1C9F3EEC1CA
:103AC600CAF3EFC1CBF3060ECC6F99EC05F00101FA
:103AD6005F6B020E7825006E000E7921016E000ED6
:103AE6007A21026E000E7B21036E0201E45100264C
:103AF600000E01220222032200C0ECF101C0EDF10A
:103B060002C0EEF103C0EFF100C0C8F301C0C9F373
:103B160002C0CAF303C0CBF30B0E0301CC6F99ECC2
:103B260005F00101C7517825006E000E7921016E5E
:103B3600000E7A21026E000E7B21036E0201E45113
:103B46000026000E01220222032200C0ECF101C071
:103B5600EDF102C0EEF103C0EFF100C0C8F301C001
:103B6600C9F302C0CAF303C0CBF3040E0301CC6F42
:103B760099EC05F002017E5101017825006E000ED8
:103B86007921016E000E7A21026E000E7B21036EF2
:103B96000201E4510026000E01220222032200C087
:103BA600ECF101C0EDF102C0EEF103C0EFF100C08F
:103BB600C8F301C0C9F302C0CAF303C0CBF3010EB8
:103BC6000301CC6F99EC05F002017E5101017825C5
:103BD600006E000E7921016E000E7A21026E000E33
:103BE6007B21036E0201E4510026000E012202220F
:103BF600032200C0ECF101C0EDF102C0EEF103C0FA
:103C0600EFF100C0C8F301C0C9F302C0CAF303C094
:103C1600CBF3050E0301CC6F99EC05F001014B6B5C
:103C260002017E5101017825006E000E7921016E98
:103C3600000E7A21026E000E7B21036E020E002614
:103C4600000E0122022203220201E4510026000E88
:103C560001220222032200C0ECF101C0EDF102C0F4
:103C6600EEF103C0EFF100C0C8F301C0C9F302C012
:103C7600CAF303C0CBF30A0E0301CC6F99EC05F02F
:103C860002018D5101017825006E000E7921016E29
:103C9600000E7A21026E000E7B21036E0201E451B2
:103CA6000026000E0122022203227E510026000E6B
:103CB60001220222032200C0ECF101C0EDF102C094
:103CC600EEF103C0EFF100C0C8F301C0C9F302C0B2
:103CD600CAF303C0CBF3030E0301CC6F99EC05F0D6
:103CE600030E01017F6F5D6B746B070E606F010140
:103CF600DDA127D0000E02018C1902E1000E8B19FE
:103D060020E001018051000A1CE1010E806FFFECEA
:103D160006F000C07EF1660EF66E770EF76E000EA8
:103D2600F86EAE0EE16E020EE26E160E006E010E1B
:103D3600016E48EC04F0AE0EC86F020EC96FF0ECCF
:103D460007F001018051010A5AE1DDB158D0000E99
:103D560002018C1902E1000E8B1951E001017E511E
:103D66007825006E000E7921016E000E7A21026E12
:103D7600000E7B21036E00C0ECF101C0EDF102C024
:103D8600EEF103C0EFF100C0C8F301C0C9F302C0F1
:103D9600CAF303C0CBF3090E0301CC6F99EC05F00F
:103DA6000101806BECC171F5EDC172F5EEC173F5E1
:103DB600EFC174F57F0E0501756F020E766F50EC3C
:103DC60004F07C0EF66E770EF76E000EF86EC40EDB
:103DD600E16E020EE26E100E006E010E016E48ECF0
:103DE60004F0C40E0301C86F020EC96FF0EC07F0B1
:103DF6007F0E0301C86F020EC96FF0EC07F01200C8
:103E0600030E0201E46F839E0101DB51000A04E107
:103E16000001D55301E149D10001D56B838E090E0E
:103E26000301C86F1FEC08F0010E0101782503019C
:103E3600C86F000E010179210301C96F000E01014F
:103E46007A210301CA6F000E01017B210301CB6FAA
:103E56000C0ECC6F99EC05F00201E45101017825B6
:103E6600006E000E7921016E000E7A21026E000EA0
:103E76007B21036E00C0ECF101C0EDF102C0EEF152
:103E860003C0EFF100C0C8F301C0C9F302C0CAF312
:103E960003C0CBF3010E0301CC6F99EC05F0ECC126
:103EA600C8F3EDC1C9F3EEC1CAF3EFC1CBF3050EFA
:103EB600CC6F99EC05F001015F6B020E7825006E60
:103EC600000E7921016E000E7A21026E000E7B2112
:103ED600036E0201E4510026000E01220222032293
:103EE60000C0ECF101C0EDF102C0EEF103C0EFF14C
:103EF60000C0C8F301C0C9F302C0CAF303C0CBF3C4
:103F06000A0E0301CC6F99EC05F00101C651782524
:103F1600006E000E7921016E000E7A21026E000EEF
:103F26007B21036E0201E4510026000E01220222CB
:103F3600032200C0ECF101C0EDF102C0EEF103C0B6
:103F4600EFF100C0C8F301C0C9F302C0CAF303C051
:103F5600CBF3030E0301CC6F99EC05F002019251ED
:103F6600000AD8B499D001017C51020AD8A494D091
:103F760002017E51010178250301C86F000E01017F
:103F860079210301C96F000E01017A210301CA6F6D
:103F9600000E01017B210301CB6F0201E4510301F5
:103FA600C827000EC923CA23CB23020ECC6F99EC77
:103FB60005F002017E51010178250301C86F000E4C
:103FC600010179210301C96F000E01017A21030164
:103FD600CA6F000E01017B210301CB6F0201E45180
:103FE6000301C827000EC923CA23CB23060ECC6FB4
:103FF60099EC05F001014B6B02017E510101782518
:104006000301C86F000E010179210301C96F000E7B
:1040160001017A210301CA6F000E01017B21030110
:10402600CB6F020EC827000EC923CA23CB23020179
:10403600E4510301C827000EC923CA23CB230B0E64
:10404600CC6F99EC05F0020192510101782503012C
:10405600C86F000E010179210301C96F000E01012D
:104066007A210301CA6F000E01017B210301CB6F88
:1040760002017E510301C827000EC923CA23CB23A0
:104086000201E4510301C827000EC923CA23CB232A
:10409600040ECC6F99EC05F0030E0001B26F01011E
:1040A6005D6B746B806B080E606F090E0301C86F41
:1040B600CFEC0DF00050010AD8A42CD1090E030153
:1040C600C86F1FEC08F00201E45101017825006E6B
:1040D600000E7921016E000E7A21026E000E7B2100
:1040E600036E00C0ECF101C0EDF102C0EEF103C0B9
:1040F600EFF100C0C8F301C0C9F302C0CAF303C0A0
:10410600CBF3010E0301CC6F99EC05F0ECC1C8F3BB
:10411600EDC1C9F3EEC1CAF3EFC1CBF3050ECC6F07
:1041260099EC05F001015F6B020E7825006E000E1A
:104136007921016E000E7A21026E000E7B21036E3C
:104146000201E4510026000E01220222032200C0D1
:10415600ECF101C0EDF102C0EEF103C0EFF100C0D9
:10416600C8F301C0C9F302C0CAF303C0CBF30A0EF9
:104176000301CC6F99EC05F00101C7517825006E5B
:10418600000E7921016E000E7A21026E000E7B214F
:10419600036E0201E4510026000E012202220322D0
:1041A60000C0ECF101C0EDF102C0EEF103C0EFF189
:1041B60000C0C8F301C0C9F302C0CAF303C0CBF301
:1041C600030E0301CC6F99EC05F002018D51000A34
:1041D600D8B498D001017C51020AD8A493D0020128
:1041E6007E51010178250301C86F000E0101792176
:1041F6000301C96F000E01017A210301CA6F000E87
:1042060001017B210301CB6F0201E4510301C827A1
:10421600000EC923CA23CB23020ECC6F99EC05F0FE
:1042260002017E51010178250301C86F000E0101CC
:1042360079210301C96F000E01017A210301CA6FBA
:10424600000E01017B210301CB6F0201E451030142
:10425600C827000EC923CA23CB23060ECC6F99ECC0
:1042660005F001014B6B02017E5101017825030126
:10427600C86F000E010179210301C96F000E01010B
:104286007A210301CA6F000E01017B210301CB6F66
:10429600020EC827000EC923CA23CB230201E4510C
:1042A6000301C827000EC923CA23CB230B0ECC6FEC
:1042B60099EC05F00101C75178250301C86F000E7E
:1042C600010179210301C96F000E01017A21030161
:1042D600CA6F000E01017B210301CB6F02017E51E3
:1042E6000301C827000EC923CA23CB230201E451C8
:1042F6000301C827000EC923CA23CB23040ECC6FA3
:1043060099EC05F0030E01017F6F5D6B746B806B9A
:10431600070E606F0101DDA127D0000E02018C1986
:1043260002E1000E8B1920E001018051000A1CE118
:10433600010E806FFFEC06F000C07EF1F80EF66EFF
:10434600760EF76E000EF86EAE0EE16E020EE26E9F
:10435600160E006E010E016E48EC04F0AE0EC86F2C
:10436600020EC96FF0EC07F001018051010A5AE113
:10437600DDB158D0000E02018C1902E1000E8B1936
:1043860051E001017E517825006E000E7921016E03
:10439600000E7A21026E000E7B21036E00C0ECF146
:1043A60001C0EDF102C0EEF103C0EFF100C0C8F3A9
:1043B60001C0C9F302C0CAF303C0CBF3090E03015F
:1043C600CC6F99EC05F00101806BECC171F5EDC184
:1043D60072F5EEC173F5EFC174F57F0E0501756FC9
:1043E600020E766F50EC04F00E0EF66E770EF76E38
:1043F600000EF86EC40EE16E020EE26E100E006E36
:10440600010E016E48EC04F0C40E0301C86F020EE3
:10441600C96FF0EC07F07F0E0301C86F020EC96F7B
:06442600F0EC07F01200AB
:10442C00838E010E0301C86FCFEC0DF000524FE0EC
:10443C00010E0301C86F010EC96F0CEC06F0530E90
:10444C000201AE6F330EAF6F200EB06F4D0EB16F19
:10445C006F0EB26F740EB36F6F0EB46F720EB56FCA
:10446C00310EB66F530EB76F740EB86F610EB96F15
:10447C00720EBA6F740EBB6FBC6BAE0E0301C86FBD
:10448C00020EC96FF0EC07F0839C4C0E05017D6F9A
:10449C00010E7E6F8D0E7F6F000E806F100E816F80
:1044AC00000E826FF3EC00F0610E7D6F010E7E6FDB
:1044BC00C40E7F6F000E806F100E816F000E826F26
:1044CC00F3EC00F0010E0101736F010E726F020E1E
:1044DC000301C86FCFEC0DF000522DE0020E03016A
:1044EC00C86F010EC96F0CEC06F0530E0201BD6FC4
:1044FC00330EBE6F200EBF6F4D0EC06F6F0EC16FAF
:10450C00740EC26F6F0EC36F720EC46F320EC56F16
:10451C00530EC66F740EC76F610EC86F720EC96FE3
:10452C00740ECA6FCB6BBD0E0301C86F020EC96F40
:10453C00F0EC07F0839C050E0301C86FCFEC0DF077
:10454C0000522FE0010E0301C86F5EC1C9F3DEEC0F
:10455C0008F001015D6B5F6B530E0201CC6F330EE3
:10456C00CD6F200ECE6F4D0ECF6F6F0ED06F740EC1
:10457C00D16F6F0ED26F720ED36F310ED46F200EBF
:10458C00D56F460ED66F610ED76F730ED86F740E43
:10459C00D96FDA6BCC0E0301C86F020EC96FF0EC49
:1045AC0007F0070E0301C86FCFEC0DF000522EE0A0
:1045BC000301C86B5EC1C9F3DEEC08F0010E01010A
:1045CC005F6F530E0201DB6F330EDC6F200EDD6F5D
:1045DC004D0EDE6F6F0EDF6F740EE06F6F0EE16FBE
:1045EC00720EE26F310EE36F200EE46F530EE56F27
:1045FC006C0EE66F6F0EE76F770EE86FE96BDB0EF4
:10460C000301C86F020EC96FF0EC07F0060E030130
:10461C00C86FCFEC0DF000522FE04AC1C8F3010E69
:10462C000301C96FDEEC08F00101746B4B6B530E88
:10463C000201EA6F330EEB6F200EEC6F4D0EED6F37
:10464C006F0EEE6F740EEF6F6F0EF06F720EF16FE8
:10465C00320EF26F200EF36F460EF46F610EF56F93
:10466C00730EF66F740EF76FF86BEA0E0301C86FDA
:10467C00020EC96FF0EC07F0080E0301C86FCFEC07
:10468C000DF000522EE04AC1C8F30301C96BDEECF9
:10469C0008F0010E01014B6F530E0201F96F330E3E
:1046AC00FA6F200EFB6F4D0EFC6F6F0EFD6F740ECC
:1046BC00FE6F6F0EFF6F720E0301006F320E016FF3
:1046CC00200E026F530E036F6C0E046F6F0E056F8E
:1046DC00770E066F076BF90EC86F020EC96FF0EC00
:1046EC0007F00A0E0301C86FCFEC0DF000521FE06B
:1046FC00010E01015D6F010E0301C86FEEEC08F0B5
:10470C007F0EF66E730EF76E000EF86E080EE16EED
:10471C00030EE26E160E006E010E016E48EC04F0F4
:10472C00080E0301C86F030EC96FF0EC07F00B0EF7
:10473C000301C86FCFEC0DF000521FE0010E010118
:10474C00746F020E0301C86FEEEC08F0950EF66E56
:10475C00730EF76E000EF86E1E0EE16E030EE26E17
:10476C00160E006E010E016E48EC04F01E0E0301D5
:10477C00C86F030EC96FF0EC07F0030E0301C86F8E
:10478C00CFEC0DF000522BE00001B291010E0301B1
:10479C00C86F69EC08F0530E0301346F330E356F9C
:1047AC00200E366F4D0E376F6F0E386F740E396FDB
:1047BC006F0E3A6F720E3B6F310E3C6F200E3D6FD9
:1047CC00530E3E6F740E3F6F6F0E406F700E416F45
:1047DC00426B340EC86F030EC96FF0EC07F0040E79
:1047EC000301C86FCFEC0DF000522BE00001B29327
:1047FC00020E0301C86F69EC08F0530E0301436FFE
:10480C00330E446F200E456F4D0E466F6F0E476F83
:10481C00740E486F6F0E496F720E4A6F320E4B6FEB
:10482C00200E4C6F530E4D6F740E4E6F6F0E4F6FFC
:10483C00700E506F516B430EC86F030EC96FF0ECC6
:10484C0007F00C0E0301C86FCFEC0DF0005201E025
:10485C00838C01015D51010A52E1DCA150D05F5102
:10486C00000A4DE1010E0301C86F69EC08F0020E5D
:10487C000301C86F69EC08F0050E0101606F5D6BF8
:10488C00746BC90EF66E730EF76E000EF86E520E48
:10489C00E16E030EE26E140E006E010E016E48EC1A
:1048AC0004F0520E0301C86F030EC96FF0EC07F051
:1048BC00090E0301C86F1FEC08F04C0E05017D6F4B
:1048CC00010E7E6F0B0E7F6F010E806F100E816FCD
:1048DC00000E826FF3EC00F0610E7D6F010E7E6FA7
:1048EC00A00E7F6F000E806F100E816F000E826F16
:1048FC00F3EC00F0010E0101736F020E726F745134
:10490C00010A52E1DCA350D04B51000A4DE1010EDB
:10491C000301C86F69EC08F0020E0301C86F69EC63
:10492C0008F0050E0101606F5D6B746BDD0EF66EA9
:10493C00730EF76E000EF86E660EE16E030EE26EED
:10494C00140E006E010E016E48EC04F0660E0301AD
:10495C00C86F030EC96FF0EC07F0090E0301C86FA6
:10496C001FEC08F04C0E05017D6F010E7E6F0B0ED7
:10497C007F6F010E806F100E816F000E826FF3EC53
:10498C0000F0610E7D6F010E7E6FA00E7F6F000E2A
:10499C00806F100E816F000E826FF3EC00F0010E31
:1049AC000101736F020E726F02019251000A05E051
:1049BC0001017C51010A01E002D00001B293010116
:1049CC00DDA150D0020190534DE0010E0301C86FE0
:1049DC0069EC08F0020E0301C86F69EC08F00101E4
:1049EC005D6B746B050E606FF10EF66E730EF76EE9
:1049FC00000EF86E7A0EE16E030EE26E110E006E72
:104A0C00010E016E48EC04F07A0E0301C86F030E20
:104A1C00C96FF0EC07F0090E0301C86F1FEC08F02A
:104A2C004C0E05017D6F010E7E6F0B0E7F6F010E1C
:104A3C00806F100E816F000E826FF3EC00F0610E30
:104A4C007D6F010E7E6F1C0E7F6F010E806F100E3E
:104A5C00816F000E826FF3EC00F0010E0101736F99
:104A6C00020E726F0101DB51000A4DE0010E0301D1
:104A7C00C86F69EC08F0020E0301C86F69EC08F00E
:104A8C0001015D6B746B050E606F020EF66E740E99
:104A9C00F76E000EF86E8B0EE16E030EE26E110EC9
:104AAC00006E010E016E48EC04F08B0E0301C86F12
:104ABC00030EC96FF0EC07F0090E0301C86F1FEC71
:104ACC0008F04C0E05017D6F010E7E6F0B0E7F6F93
:104ADC00010E806F100E816F000E826FF3EC00F0F0
:104AEC00610E7D6F010E7E6F2D0E7F6F010E806F3C
:104AFC00100E816F000E826FF3EC00F0010E0101BD
:104B0C00736F020E726FDE51010A50E102018F5376
:104B1C004DE0010E0301C86F69EC08F0020E0301B1
:104B2C00C86F69EC08F001015D6B746B050E606F6A
:104B3C00130EF66E740EF76E000EF86E9C0EE16E90
:104B4C00030EE26E170E006E010E016E48EC04F0BF
:104B5C009C0E0301C86F030EC96FF0EC07F0090E31
:104B6C000301C86F1FEC08F04C0E05017D6F010EA0
:104B7C007E6F0B0E7F6F010E806F100E816F000E1B
:104B8C00826FF3EC00F0610E7D6F010E7E6FD80E1C
:104B9C007F6F000E806F100E816F000E826FF3EC32
:104BAC0000F0010E0101736F020E726F0001B25121
:104BBC00000A2BE1020E0101606F806B090E0301EC
:104BCC00C86F1FEC08F04C0E05017D6F010E7E6F57
:104BDC001A0E7F6F000E806F100E816F000E826FA9
:104BEC00F3EC00F0610E7D6F010E7E6FC40E7F6FD3
:104BFC00000E806F100E816F000E826FF3EC00F0D0
:104C0C00010E0101736F010E726F01016051050AF3
:104C1C0004E06051060A01E04ED00301C86B1FECA2
:104C2C0008F0000E02018C1902E1000E8B1943E012
:104C3C008B51010178250301C86F02018C510101D0
:104C4C0079210301C96F000E01017A210301CA6F9A
:104C5C00000E01017B210301CB6F090ECC6F99EC87
:104C6C0005F02A0EF66E740EF76E000EF86EB30E8B
:104C7C00E16E030EE26E150E006E010E016E48EC35
:104C8C0004F0B30EC86F030EC96FF0EC07F0610EA1
:104C9C0005017D6F010E7E6FFA0E7F6F000E806F27
:104CAC00100E816F000E826FF3EC00F0010E01010B
:084CBC00736F020E726F12000B
:104CC400020E0201E46F839E0101DB51000A09E137
:104CD400090E0301C86FCFEC0DF00050010A01E08A
:104CE400C6D3090E0301C86F1FEC08F002018D51F1
:104CF400000A05E001017C51010A01E042D10201F0
:104D0400E45101017825006E000E7921016E000E38
:104D14007A21026E000E7B21036E00C0ECF101C00B
:104D2400EDF102C0EEF103C0EFF100C0C8F301C021
:104D3400C9F302C0CAF303C0CBF3010E0301CC6F65
:104D440099EC05F002019151000A11E0ECC1C8F39D
:104D5400EDC1C9F3EEC1CAF3EFC1CBF3070E0301F2
:104D6400CC6F99EC05F0010E01015F6F0FD0ECC11F
:104D7400C8F3EDC1C9F3EEC1CAF3EFC1CBF3050E1D
:104D84000301CC6F99EC05F001015F6B02019151B5
:104D940001017825006E000E7921016E000E7A2142
:104DA400026E000E7B21036E020E0026000E01220D
:104DB400022203220201E4510026000E01220222F3
:104DC400032200C0ECF101C0EDF102C0EEF103C01A
:104DD400EFF100C0C8F301C0C9F302C0CAF303C0B5
:104DE400CBF30A0E0301CC6F99EC05F0020191514B
:104DF40001017825006E000E7921016E000E7A21E2
:104E0400026E000E7B21036E0201E4510026000EA7
:104E140001220222032200C0ECF101C0EDF102C024
:104E2400EEF103C0EFF100C0C8F301C0C9F302C042
:104E3400CAF303C0CBF3050E0301CC6F99EC05F064
:104E440002017D51000A2FE00101C7517825006E4F
:104E5400000E7921016E000E7A21026E000E7B2174
:104E6400036E02017D51005E000E015A025A035A7C
:104E7400E4510026000E01220222032200C0ECF1BC
:104E840001C0EDF102C0EEF103C0EFF100C0C8F3C0
:104E940001C0C9F302C0CAF303C0CBF3070E030178
:104EA400CC6F99EC05F00101F051000A41E0C751C3
:104EB4007825006E000E7921016E000E7A21026EB3
:104EC400000E7B21036E0201E4510026000E012234
:104ED4000222032200C0ECF101C0EDF102C0EEF1A8
:104EE40003C0EFF100C0C8F301C0C9F302C0CAF3A4
:104EF40003C0CBF3050E0301CC6F99EC05F0020E51
:104F04000101EC250301C86F000E0101ED2103012D
:104F1400C96F000E0101EE210301CA6F000E0101E9
:104F2400EF210301CB6F030ECC6F99EC05F029D070
:104F34000101C7517825006E000E7921016E000E23
:104F44007A21026E000E7B21036E0201E4510026D9
:104F5400000E01220222032200C0ECF101C0EDF197
:104F640002C0EEF103C0EFF100C0C8F301C0C9F301
:104F740002C0CAF303C0CBF3030E0301CC6F99EC58
:104F840005F002018D51000AD8B46AD201017C51A6
:104F9400020AD8A465D20201E45101017825006E09
:104FA400000E7921016E000E7A21026E000E7B2123
:104FB400036E00C0ECF101C0EDF102C0EEF103C0DC
:104FC400EFF100C0C8F301C0C9F302C0CAF303C0C3
:104FD400CBF3020E0301CC6F99EC05F00201915161
:104FE400000A11E0ECC1C8F3EDC1C9F3EEC1CAF384
:104FF400EFC1CBF3080E0301CC6F99EC05F0010E61
:1050040001014B6F0FD0ECC1C8F3EDC1C9F3EEC180
:10501400CAF3EFC1CBF3060E0301CC6F99EC05F094
:1050240001014B6B0201915101017825006E000EC4
:105034007921016E000E7A21026E000E7B21036E2F
:10504400020E0026000E0122022203220201E45174
:105054000026000E01220222032200C0ECF101C04E
:10506400EDF102C0EEF103C0EFF100C0C8F301C0DE
:10507400C9F302C0CAF303C0CBF30B0E0301CC6F18
:1050840099EC05F00201915101017825006E000EA2
:105094007921016E000E7A21026E000E7B21036ECF
:1050A4000201E4510026000E01220222032200C064
:1050B400ECF101C0EDF102C0EEF103C0EFF100C06C
:1050C400C8F301C0C9F302C0CAF303C0CBF3060E90
:1050D4000301CC6F99EC05F002017D51000A2FE029
:1050E4008D5101017825006E000E7921016E000EAC
:1050F4007A21026E000E7B21036E02017D51005E57
:10510400000E015A025A035AE4510026000E0122ED
:105114000222032200C0ECF101C0EDF102C0EEF165
:1051240003C0EFF100C0C8F301C0C9F302C0CAF361
:1051340003C0CBF3080E0301CC6F99EC05F0020118
:105144008D5101017825006E000E7921016E000E4B
:105154007A21026E000E7B21036E0201E4510026C7
:10516400000E01220222032200C0ECF101C0EDF185
:1051740002C0EEF103C0EFF100C0C8F301C0C9F3EF
:1051840002C0CAF303C0CBF3040E0301CC6F99EC45
:1051940005F002017E5101017825006E000E79218F
:1051A400016E000E7A21026E000E7B21036E020155
:1051B400E4510026000E01220222032200C0ECF179
:1051C40001C0EDF102C0EEF103C0EFF100C0C8F37D
:1051D40001C0C9F302C0CAF303C0CBF3010E03013B
:1051E400CC6F99EC05F002019151000A11E0ECC179
:1051F400C8F3EDC1C9F3EEC1CAF3EFC1CBF3070E97
:105204000301CC6F99EC05F0010E01015F6F0FD023
:10521400ECC1C8F3EDC1C9F3EEC1CAF3EFC1CBF3DE
:10522400050E0301CC6F99EC05F001015F6B0201DF
:105234007E5101017825006E000E7921016E000E69
:105244007A21026E000E7B21036E02019151002629
:10525400000E012202220322020E0026000E012269
:1052640002220322E4510026000E0122022203221C
:1052740000C0ECF101C0EDF102C0EEF103C0EFF1AA
:1052840000C0C8F301C0C9F302C0CAF303C0CBF322
:105294000A0E0301CC6F99EC05F002017E51010165
:1052A4007825006E000E7921016E000E7A21026EBF
:1052B400000E7B21036E020191510026000E012293
:1052C40002220322E4510026000E012202220322BC
:1052D40000C0ECF101C0EDF102C0EEF103C0EFF14A
:1052E40000C0C8F301C0C9F302C0CAF303C0CBF3C2
:1052F400050E0301CC6F99EC05F002017D51000A03
:1053040035E07E5101017825006E000E7921016E91
:10531400000E7A21026E000E7B21036EC751002617
:10532400000E01220222032202017D51005E000EC2
:10533400015A025A035AE4510026000E01220222A5
:10534400032200C0ECF101C0EDF102C0EEF103C094
:10535400EFF100C0C8F301C0C9F302C0CAF303C02F
:10536400CBF3070E0301CC6F99EC05F00101F0516A
:10537400000A47E0C7517825006E000E7921016EBE
:10538400000E7A21026E000E7B21036E02017E5113
:105394000026000E012202220322E4510026000E00
:1053A40001220222032200C0ECF101C0EDF102C08F
:1053B400EEF103C0EFF100C0C8F301C0C9F302C0AD
:1053C400CAF303C0CBF3050E0301CC6F99EC05F0CF
:1053D400020E0101EC250301C86F000E0101ED214D
:1053E4000301C96F000E0101EE210301CA6F000E13
:1053F4000101EF210301CB6F030ECC6F99EC05F093
:105404002FD00101C7517825006E000E7921016E5D
:10541400000E7A21026E000E7B21036E02017E5182
:105424000026000E012202220322E4510026000E6F
:1054340001220222032200C0ECF101C0EDF102C0FE
:10544400EEF103C0EFF100C0C8F301C0C9F302C01C
:10545400CAF303C0CBF3030E0301CC6F99EC05F040
:10546400030E01017F6F5D6B746B040E606F0101AD
:10547400DDA127D0000E02018C1902E1000E8B1968
:1054840020E001018051000A1CE1010E806FFFEC55
:1054940006F000C07EF12F0EF66E770EF76E000E4A
:1054A400F86EAE0EE16E020EE26E160E006E010E86
:1054B400016E48EC04F0AE0EC86F020EC96FF0EC3A
:1054C40007F001018051010AD8A4B1D0DDB1AFD0F9
:1054D400000E02018C1902E1000E8B19D8B4A7D07A
:1054E4008A51000A52E101017E517825006E000EB6
:1054F4007921016E000E7A21026E000E7B21036E6B
:1055040000C0ECF101C0EDF102C0EEF103C0EFF117
:1055140000C0C8F301C0C9F302C0CAF303C0CBF38F
:10552400090E0301CC6F99EC05F00101806BECC10D
:1055340071F5EDC172F5EEC173F5EFC174F57F0E2F
:105544000501756F020E766F50EC04F0450EF66E91
:10555400770EF76E000EF86EC40EE16E020EE26E68
:10556400100E006E010E016E48EC04F0C40E03012F
:10557400C86F020EC96FF0EC07F07F0E0301C86F0D
:10558400020EC96FF0EC07F052D002018A510101FA
:105594007825006E000E7921016E000E7A21026ECC
:1055A400000E7B21036E00C0ECF101C0EDF102C0DE
:1055B400EEF103C0EFF100C0C8F301C0C9F302C0AB
:1055C400CAF303C0CBF3090E0301CC6F99EC05F0C9
:1055D4000101806BECC171F5EDC172F5EEC173F59B
:1055E400EFC174F57F0E0501756F020E766F50ECF6
:1055F40004F0550EF66E770EF76E000EF86ED40EAC
:10560400E16E020EE26E100E006E010E016E48ECA9
:1056140004F0D40E0301C86F020EC96FF0EC07F05A
:105624007F0E0301C86F020EC96FF0EC07F0120081
:1056340083B606D001014051140801E3402B02D087
:105644000101406B140E405D03E3010E006E120075
:04565400006A1200D6
:10565800030E0201AE6F839E0101D751020A03E1D6
:10566800640E606F7D6BDB5103087C6FDB51000AB1
:10567800D8B4B6D2090E0301C86F1FEC08F0838EA8
:10568800010E010178250301C86F000E010179217F
:105698000301C96F000E01017A210301CA6F000ED0
:1056A80001017B210301CB6F0C0ECC6F99EC05F047
:1056B8000201AE5101017825006E000E7921016EBC
:1056C800000E7A21026E000E7B21036E00C0ECF101
:1056D80001C0EDF102C0EEF103C0EFF100C0C8F364
:1056E80001C0C9F302C0CAF303C0CBF3010E030122
:1056F800CC6F99EC05F002018E51000A11E0ECC163
:10570800C8F3EDC1C9F3EEC1CAF3EFC1CBF3070E7D
:105718000301CC6F99EC05F0010E01015F6F0FD00A
:10572800ECC1C8F3EDC1C9F3EEC1CAF3EFC1CBF3C5
:10573800050E0301CC6F99EC05F001015F6B0201C6
:105748008E5101017825006E000E7921016E000E40
:105758007A21026E000E7B21036E020E0026000ED7
:105768000122022203220201AE510026000E01226C
:105778000222032200C0ECF101C0EDF102C0EEF1FB
:1057880003C0EFF100C0C8F301C0C9F302C0CAF3F7
:1057980003C0CBF30A0E0301CC6F99EC05F00201AC
:1057A8008E5101017825006E000E7921016E000EE0
:1057B8007A21026E000E7B21036E0201AE51002693
:1057C800000E01220222032200C0ECF101C0EDF11B
:1057D80002C0EEF103C0EFF100C0C8F301C0C9F385
:1057E80002C0CAF303C0CBF3050E0301CC6F99ECDA
:1057F80005F002019351000A2FE00101C6517825F6
:10580800006E000E7921016E000E7A21026E000EE4
:105818007B21036E02019351005E000E015A025A69
:10582800035AAE510026000E01220222032200C0B4
:10583800ECF101C0EDF102C0EEF103C0EFF100C0E0
:10584800C8F301C0C9F302C0CAF303C0CBF3070E03
:105858000301CC6F99EC05F00101C6517825006E63
:10586800000E7921016E000E7A21026E000E7B2156
:10587800036E0201AE510026000E0122022203220D
:1058880000C0ECF101C0EDF102C0EEF103C0EFF190
:1058980000C0C8F301C0C9F302C0CAF303C0CBF308
:1058A800030E0301CC6F99EC05F002019251000A36
:1058B800D8B45BD101017C51020AD8A456D10201A7
:1058C8007E5101017825006E000E7921016E000ECF
:1058D8007A21026E000E7B21036E0201AE51002672
:1058E800000E01220222032200C0ECF101C0EDF1FA
:1058F80002C0EEF103C0EFF100C0C8F301C0C9F364
:1059080002C0CAF303C0CBF3020E0301CC6F99ECBB
:1059180005F002018E51000A2DE07E510101782523
:10592800006E000E7921016E000E7A21026E000EC3
:105938007B21036E0201AE510026000E01220222D5
:10594800032200C0ECF101C0EDF102C0EEF103C08A
:10595800EFF100C0C8F301C0C9F302C0CAF303C025
:10596800CBF3080E0301CC6F99EC05F0010E010191
:105978004B6F2CD002017E5101017825006E000E7C
:105988007921016E000E7A21026E000E7B21036ED2
:105998000201AE510026000E01220222032200C09D
:1059A800ECF101C0EDF102C0EEF103C0EFF100C06F
:1059B800C8F301C0C9F302C0CAF303C0CBF3060E93
:1059C8000301CC6F99EC05F001014B6B02017E518C
:1059D80001017825006E000E7921016E000E7A21F2
:1059E800026E000E7B21036E02018E510026000E0E
:1059F800012202220322020E0026000E01220222A8
:105A08000322AE510026000E01220222032200C00A
:105A1800ECF101C0EDF102C0EEF103C0EFF100C0FE
:105A2800C8F301C0C9F302C0CAF303C0CBF30B0E1D
:105A38000301CC6F99EC05F002017E510101782534
:105A4800006E000E7921016E000E7A21026E000EA2
:105A58007B21036E02018E510026000E01220222D4
:105A68000322AE510026000E01220222032200C0AA
