:04000000DFEF36F008
:1000080000C019F001C018F004C017F008C016F0BD
:100018000CC015F0F2A42ED00001E52B8088010E4B
:10002800E86FF051FF0A03E1F06BEF6B01D0F02BA2
:1000380001012351FF0A04E1236B0001E36B02D0A5
:100048000101232B190E0001E55D0FE3E56B010E9D
:10005800EA27000EEB23EC23ED23F753010ED8A477
:10006800000EF76F8098010EE16FF30ED76ECA0E7F
:10007800D66EF294F0A017D00001EF51000A03E108
:10008800EF2BF06B01D0EF2B050EEF5D0BE3130E9A
:10009800F05D07E3F051150804E3010EE66FEF6B1E
:1000A80001D0EF6BF090F0A21DD00001E351000ADF
:1000B80004E1E32B0101236B02D00001E32B0001D3
:1000C800050EE35D0EE3130E0101235D08E32351E2
:1000D800150805E3010E0001E46FE36B02D000018F
:1000E800E36BF092F2A22FD00001E72BE751FF0A51
:1000F80001E1E76B030E046EE7C000F066D808C0A4
:1001080000F00050010A0EE1825305E0A95302E015
:10011800818801D08198805305E0BB5302E0818635
:1001280001D08196030E046EE7C000F04ED808C0D7
:1001380000F00050000A06E1825301E081888053F4
:1001480001E08186F29219C000F018C001F017C0D2
:0C01580004F016C008F015C00CF01100F7
:0E016400ACB202D00000FCD70AC5ADFF1200FD
:100172000AC5C9FFC7B002D00000FCD7C9CF00F042
:02018200120069
:10018400F250026EF29E0500FF6A0150FE6E0050AE
:08019400FD6E02BEF28E1200A6
:10019C00086A096A100E0C6E0134083609360450D0
:1001AC00085E0550D8A0053C095ED8B007D00450B5
:1001BC0008260550D8B0053C0926D89000360136E3
:0601CC000C2EEAD7120020
:1001D200086A080E0C6E003408360450085ED8B067
:0E01E20002D00826D89000360C2EF5D7120059
:1001F00005C504F006C505F003C502F004C503F00B
:1002000007C500F008C501F0010E0501075F000EEB
:10021000085B005001100FE004C0E9FF05C0EAFFD1
:1002200002C0E1FF03C0E2FFEECFE6FF024A032A6D
:10023000044A052AE5D703C500F004C501F0120001
:100240005AC1E1FF5BC1E2FF03C5E6FF58C100F000
:0802500059C101F097DF120013
:100258000B6A0A6A096A086A0E6A03340836045087
:10026800085E0550D8A0053C095E0650D8A0063C9B
:100278000A5E0750D8A0073C0B5EE86AD8A0010EBA
:100288000E5E0336070E0C6E0334083609360A363E
:100298000B360E36045003A012D0085E0550D8A0C5
:1002A800053C095E0650D8A0063C0A5E0750D8A057
:1002B800073C0B5EE86AD8A0010E0E5E11D0082636
:1002C8000550D8B0053C09260650D8B0063C0A2689
:1002D8000750D8B0073C0B26E86AD8B0010E0E26A6
:1002E80003360C2ED1D70234083609360A360B36B7
:1002F8000E36045003A012D0085E0550D8A0053C65
:10030800095E0650D8A0063C0A5E0750D8A0073CF4
:100318000B5EE86AD8A0010E0E5E11D008260550C3
:10032800D8B0053C09260650D8B0063C0A26075026
:10033800D8B0073C0B26E86AD8B0010E0E26023664
:10034800070E0C6E0234083609360A360B360E369E
:10035800045002A012D0085E0550D8A0053C095EE2
:100368000650D8A0063C0A5E0750D8A0073C0B5E92
:10037800E86AD8A0010E0E5E11D008260550D8B044
:10038800053C09260650D8B0063C0A260750D8B0C6
:10039800073C0B26E86AD8B0010E0E2602360C2E52
:1003A800D1D70134083609360A360B360E360450D2
:1003B80002A012D0085E0550D8A0053C095E065080
:1003C800D8A0063C0A5E0750D8A0073C0B5EE86A36
:1003D800D8A0010E0E5E11D008260550D8B0053CF5
:1003E80009260650D8B0063C0A260750D8B0073C64
:1003F8000B26E86AD8B0010E0E260136070E0C6EE1
:100408000134083609360A360B360E36045001A078
:1004180012D0085E0550D8A0053C095E0650D8A049
:10042800063C0A5E0750D8A0073C0B5EE86AD8A0D5
:10043800010E0E5E11D008260550D8B0053C0926DD
:100448000650D8B0063C0A260750D8B0073C0B2601
:10045800E86AD8B0010E0E2601360C2ED1D700342A
:10046800083609360A360B360E36045001A012D06B
:10047800085E0550D8A0053C095E0650D8A0063C89
:100488000A5E0750D8A0073C0B5EE86AD8A0010EA8
:100498000E5E11D008260550D8B0053C0926065036
:1004A800D8B0063C0A260750D8B0073C0B26E86AA5
:1004B800D8B0010E0E260036070E0C6E0034083632
:1004C80009360A360B360E36045000A012D0085EE4
:1004D8000550D8A0053C095E0650D8A0063C0A5E27
:1004E8000750D8A0073C0B5EE86AD8A0010E0E5E44
:1004F80011D008260550D8B0053C09260650D8B0BA
:10050800063C0A260750D8B0073C0B26E86AD8B044
:10051800010E0E2600360C2ED1D700B00ED0045096
:1005280008260550D8B0053C09260650D8B0063C28
:0C0538000A260750D8B0073C0B26120022
:100544000501076B050E075D0AE207510525E16EFB
:10055400000E0621E26E200EE66E072BF3D707513C
:100564000525E16E000E0621E26EE66A07070751D3
:100574000525086F000E0621096F0A0E046E000E91
:10058400056E03C500F004C501F006DE08C000F0E6
:1005940009C001F0300E002608C5E1FF09C5E2FFDD
:1005A40000C0E6FF0A0E046E000E056E03C500F0DF
:1005B40004C501F0F1DD00C003F501C004F5000E2F
:1005C400011802E1000E001801E102D00707CFD79D
:0205D400120013
:1005D6000501066B030E065D0AE206510425E16E6F
:1005E600000E0521E26E200EE66E062BF3D70651AD
:1005F6000425E16E000E0521E26EE66A0607065145
:100606000425076F000E0521086F0A0E046E03C548
:1006160000F0DCDD08C000F0300E002607C5E1FF63
:1006260008C5E2FF00C0E6FF0A0E046E03C500F02F
:10063600CDDD00C003F50050000A01E102D0060737
:04064600DED71200E9
:10064A00A6A202D00000FCD7A69C03C5A9FF04C538
:10065A00A8FFA69EA684F2CF00F0F29E550EA76EC2
:10066A00AA0EA76EA68200BE02D0F29E01D0F28E1A
:04067A00A694120030
:10067E004ED00101206B216BFF0E226F67D001015E
:10068E00900E206F010E216FC80E226F5FD00101F8
:10069E00C20E206F010E216F960E226F57D00101F0
:1006AE00F40E206F010E216F640E226F4FD00101E8
:1006BE00260E206F020E216F500E226F47D00101C1
:1006CE00580E206F020E216F960E226F3FD0010141
:1006DE00580E206F020E216F640E226F37D001016B
:1006EE00580E206F020E216F320E226F2FD0010195
:1006FE00BC0E206F020E216F640E226F27D00101F7
:10070E00BC0E206F020E216F320E226F1FD005011C
:10071E000351000AAEE00351010AB1E00351020A8F
:10072E00B6E00351030ABBE00351040AC0E00351D3
:10073E00050AC5E00351060ACAE00351070ACFE0D5
:0E074E000351080AD4E00351090AD9E0120051
:10075C000B6A0A6A096A00500402F4CF09F0F3CF5D
:10076C0008F001500502F4CF0BF0F3CF0AF0005063
:10077C000502F3500926F4500A22E86A0B220150B4
:10078C000402F3500926F4500A22E86A0B2208C02E
:10079C0000F009C001F00AC002F00BC003F0120017
:1007AC000900F5CFE6FF0006FBE10106F9E11200B6
:1007BC000401FD6B0A0EFD5D0AE2FD51FB25E16EA5
:1007CC00000EFC21E26E300EE66EFD2BF3D7FD51D0
:1007DC00FB25E16E000EFC21E26EE66AFD07000EC1
:1007EC00006EFA1908E10050F91905E10050F819EA
:1007FC0002E1F751000A3EE0FD51FB25FE6F000EB1
:10080C00FC21FF6F0A0E046E000E056E066E076E5D
:10081C00F7C400F0F8C401F0F9C402F0FAC403F014
:10082C0015DD08C000F009C001F00AC002F00BC0D1
:10083C0003F0300E0026FEC4E1FFFFC4E2FF00C04F
:10084C00E6FFFD070A0E046E000E056E066E076EBF
:10085C00F7C400F0F8C401F0F9C402F0FAC403F0D4
:10086C00F5DC00C0F7F401C0F8F402C0F9F403C0E1
:06087C00FAF4B5D71200EA
:100882000401FA6BF7C4E9FFF8C4EAFFEECFF9F40A
:10089200F951000A0EE0F9C40AF563DC0401FA2BEF
:1008A200FA51F725E96E000EF821EA6EEECFF9F45F
:0408B200EFD712006A
:1008B6000401FA6BF7C4E9FFF8C4EAFFEECFF9F4D6
:1008C600F951000A0EE0F9C403F5B7DC0401FA2B6E
:1008D600FA51F725E96E000EF821EA6EEECFF9F42B
:0408E600EFD7120036
:0A08EA00490E0D6E0D2EFED7120010
:1008F400F7C403F505010333039FF8C404F5F9C4F1
:1009040005F567DE010E0401F715016E0150010AB9
:100914001CE1030EF8250501036F000E0401F92103
:100924000501046F2E0E0401FA6F350EFB6F730E72
:10093400FC6FFD6BFA0E0501056F040E066F040EC5
:10094400076F000E086F52DC1CD0030E0401F8255B
:100954000501036F000E0401F9210501046F730EF4
:100964000401FE6F200EFF6F200E0501006F016B66
:10097400FE0E056F040E066F040E076F000E086F5F
:0409840035DC12004C
:10098800C7B409D01F0EC514016E0150000A03E157
:0A099800010E006E01D0006A12008B
:1009A200F7C403F5F8C404F5050104330333049FC7
:1009B200F9C405F5FAC406F5C4DD010E0401F71504
:1009C200016EF8C402F0000E0216000E021802E1D7
:1009D200010E01181DE1050EF9250501036F000E38
:1009E2000401FA210501046F2E0E0401FB6F350E7E
:1009F200FC6F730EFD6FFE6BFB0E0501056F040E9F
:100A0200066F040E076F000E086FF8EC00F01DD0A1
:100A1200050E0401F9250501036F000E0401FA21F8
:100A22000501046F730E0401FF6F200E0501006FB4
:100A3200200E016F026BFF0E056F040E066F040E8F
:0C0A4200076F000E086FF8EC00F01200C7
:100A4E00A69CF7C4A9FFA69EA680A8CF00F0120010
:100A5E00010E0501036F6CC104F5F0DD020E0501F8
:100A6E00036F69C104F5EADD030E0501036F6BC167
:100A7E0004F5E4DD040E0501036F6AC104F5DEDD45
:100A8E00050E0501036F7AC104F5D8DD060E0501CA
:100A9E00036F6DC104F5D2DD070E0501036F78C13A
:100AAE0004F5CCDD080E0501036F79C104F5C6DD32
:100ABE00090E0501036F77C104F5C0DD0A0E0501AD
:100ACE00036F7CC104F5BADD0B0E0501036F7BC10C
:100ADE0004F5B4DD0C0E0501036FA7C004F5AEDD01
:100AEE000001A75109080501036FC2DD0D0E0501B6
:100AFE00036F0AC204F5A2DD0E0E0501036F7DC160
:100B0E0004F59CDD0F0E0501036F1FC104F596DD84
:0E0B1E00100E0501036F1EC104F590DD1200DC
:100B2C0003014E6B4F6B4F51120802E14E518E0870
:100B3C0008E324DF005201E004D003014E4B4F2B9D
:100B4C00F2D70301120E4F5D02E18F0E4E5D03E3EF
:100B5C007B0E006E05D0C580C5A001D0FDD7006A04
:020B6C00120075
:100B6E000301536B140E535D6DE253C300F0000E80
:100B7E00016E070E046E000E056EE9DD7E0E002678
:100B8E00010E0122050E0024E96E000E0120EA6E10
:100B9E00EE50010A55E153C300F0000E016E070E30
:100BAE00046E000E056ED3DD7E0E0024E16E010E86
:100BBE000120E26E52C3E6FF53C300F0000E016E39
:100BCE00070E046E000E056EC2DD7E0E0026010EAF
:100BDE000122010E0024E16E000E0120E26E4EC3D2
:100BEE00E6FF4FC3E6FF50C3E6FF51C3E6FF53C314
:100BFE0000F0000E016E070E046E000E056EA7DDEE
:100C0E007E0E0026010E0122050E0024E16E000E5E
:100C1E000120E26EE66A53C300F0000E016E070E6D
:100C2E00046E000E056E93DD7E0E0026010E01226F
:100C3E00060E0024E16E000E0120E26EE66A02D07E
:060C4E00532B90D71200A9
:100C5400010E0401F76FF9DE00C06CF1020EF76FAC
:100C6400F4DE00C069F1030EF76FEFDE00C06BF134
:100C7400040EF76FEADE00C06AF1050EF76FE5DED9
:100C840000C07AF1060EF76FE0DE00C06DF1070ECA
:100C9400F76FDBDE00C078F1080EF76FD6DE00C018
:100CA40079F1090EF76FD1DE00C077F10A0EF76F04
:100CB400CCDE00C07BF1000E01017C6F7BC17CF1B6
:100CC4007B6B0B0E0401F76FC0DE005001017B1338
:100CD400000E7C130C0E0401F76FB7DE00C0A7F002
:100CE400005009080501036FC8DC0D0E0401F76FFD
:100CF400ACDE00C00AF20E0EF76FA7DE00C07DF175
:100D04000F0EF76FA2DE00C01FF1100EF76F9DDE0D
:060D140000C01EF11200F8
:100D1A00010E03014E25E96E000E4F21EA6EEECF59
:100D2A006CF14EC3E9FF4FC3EAFFEECF6BF15051AE
:100D3A00020AD8A485D0030E4E25E96E000E4F2173
:100D4A00EA6EEECF69F1020E4E25E96E000E4F21D2
:100D5A00EA6EEECF6AF1040E4E25E96E000E4F21BF
:100D6A00EA6E080E4E25D96E000E4F21DA6EDE505D
:100D7A00EE24036E046A000E042203C000F004C0CD
:100D8A0001F001320032019E01BC018E00C06DF1FA
:100D9A00050E4E25E96E000E4F21EA6E090E4E250C
:100DAA00D96E000E4F21DA6EDE50EE24036E046A0D
:100DBA00000E042203C000F004C001F00132003228
:100DCA00019E01BC018E00C078F1060E4E25E96E27
:100DDA00000E4F21EA6E0A0E4E25D96E000E4F21E3
:100DEA00DA6EDE50EE24036E046A000E042203C09B
:100DFA0000F004C001F001320032019E01BC018EF4
:100E0A0000C079F1070E4E25E96E000E4F21EA6EF9
:100E1A000B0E4E25D96E000E4F21DA6EDE50EE24EF
:100E2A00036E046A000E042203C000F004C001F03D
:100E3A0001320032019E01BC018E00C077F124D03C
:100E4A000101696B6A6B040E03014E25E96E000EFF
:100E5A004F21EA6EEECF6DF1050E4E25E96E000EBA
:100E6A004F21EA6EEECF78F1060E4E25E96E000E9E
:100E7A004F21EA6EEECF79F1070E4E25E96E000E8C
:0C0E8A004F21EA6EEECF77F1E5DD12009B
:100E9600EAC0F7F4EBC0F8F4ECC0F9F4EDC0FAF4EC
:100EA600500E0401FB6F030EFC6F85DC500EF76FCE
:100EB600030EF86FFDDC3A0E03015B6F200E5C6FCC
:100EC6005D6B5B0E0401F76F030EF86FD7DC4EC344
:100ED600F7F44FC3F8F4D2DC0A0E05010A6FB2EC40
:0E0EE60000F00D0E05010A6FB2EC00F01200D4
:100EF400010E03014E25016E000E4F21026E01C04A
:100F0400E9FF02C0EAFF100EEE24006E01C0E1FF0B
:100F140002C0E2FF00C0E6FF030E4E25016E000E84
:100F24004F21026E01C0E9FF02C0EAFF100EEE2459
:100F3400006E01C0E1FF02C0E2FF00C0E6FF040E44
:100F44004E25E16E000E4F21E26E040EE66E060E93
:100F54004E25E16E000E4F21E26E040EE66E080E81
:100F64004E25E16E000E4F21E26E040EE66E0A0E6F
:100F74004E25E16E000E4F21E26E040EE66E050E64
:100F84004E25E16E000E4F21E26E0A0EE66E090E4A
:100F94004E25E16E000E4F21E26E0A0EE66E070E3C
:100FA4004E25E16E000E4F21E26E0A0EE66E0B0E28
:100FB4004E25E16E000E4F21E26E0A0EE66E12001F
:100FC40003014E51010A03E10001826B8198030180
:0E0FD4004E51020A03E10001806B819612006B
:100FE20003014F6B140E4F5D44E24FC300F0000E3D
:100FF200016E070E046E000E056EAEEC03F07E0E5F
:101002000026010E0122050E0024E96E000E0120C9
:10101200EA6EEE50000A2BE14FC300F0000E016EA3
:10102200070E046E000E056EAEEC03F07E0E002479
:10103200E96E010E0120EA6EEECF01F001504E1969
:1010420016E04FC300F0000E016E070E046E000E94
:10105200056EAEEC03F07E0E0026010E0122050E97
:101062000024E16E000E0120E26E010EE66E4F2BAF
:04107200B9D71200D8
:10107600F90E0501036F000E046F280EF66E6E0E54
:10108600F76E000EF86E4E0EE16E030EE26E110E56
:10109600006E010E016ED6EC03F04E0E056F030EC8
:1010A600066F100E076F000E086FF8EC00F00001D7
:1010B600E951000A68E10C0E0501036F010E046F89
:1010C600390EF66E6E0EF76E000EF86E5F0EE16E5E
:1010D600030EE26E110E006E010E016ED6EC03F0E9
:1010E6005F0E056F030E066F100E076F000E086F7A
:1010F600F8EC00F0010E01010A6F0001A651000A8A
:101106001FE1F90E0501036F000E046F4A0EF66E1D
:101116006E0EF76E000EF86E700EE16E030EE26E46
:10112600110E006E010E016ED6EC03F0700E056F07
:10113600030E066F100E076F000E086FF8EC00F036
:101146000001A651010A1FE1F90E0501036F000E09
:10115600046F5B0EF66E6E0EF76E000EF86E810E65
:10116600E16E030EE26E110E006E010E016ED6ECFC
:1011760003F0810E056F030E066F100E076F000E4B
:10118600086FF8EC00F00001E951010A2BE10C0EA2
:101196000501036F010E046F6C0EF66E6E0EF76E90
:1011A600000EF86E920EE16E030EE26E110E006EE8
:1011B600010E016ED6EC03F0920E056F030E066F5C
:1011C600100E076F000E086FF8EC00F0010E01011B
:1011D6000A6F6CC1F7F4FF0E0401F86F000EF96F89
:1011E6007AEC04F00001E951020A2BE10C0E05012C
:1011F600036F010E046F7D0EF66E6E0EF76E000E17
:10120600F86EA30EE16E030EE26E110E006E010E75
:10121600016ED6EC03F0A30E056F030E066F100EDB
:10122600076F000E086FF8EC00F0010E01010A6F5F
:1012360069C1F7F4FF0E0401F86F000EF96F7AEC3E
:1012460004F00001E951030A2BE10C0E0501036FBE
:10125600010E046F8E0EF66E6E0EF76E000EF86EB1
:10126600B40EE16E030EE26E110E006E010E016EFB
:10127600D6EC03F0B40E056F030E066F100E076F63
:10128600000E086FF8EC00F0010E01010A6F6BC149
:10129600F7F4FF0E0401F86F000EF96F7AEC04F014
:1012A6000001E951040A2BE10C0E0501036F010E42
:1012B600046F9F0EF66E6E0EF76E000EF86EC50E7C
:1012C600E16E030EE26E110E006E010E016ED6EC9B
:1012D60003F0C50E056F030E066F100E076F000EA6
:1012E600086FF8EC00F0010E01010A6F6AC1F7F40D
:1012F600FF0E0401F86F000EF96F7AEC04F000019E
:10130600E951050A2BE10C0E0501036F010E046F6E
:10131600B00EF66E6E0EF76E000EF86ED60EE16E1D
:10132600030EE26E110E006E010E016ED6EC03F096
:10133600D60E056F030E066F100E076F000E086FB0
:10134600F8EC00F0010E01010A6F6DC1F7F4FF0E13
:101356000401F86F000EF96F7AEC04F00001E95110
:10136600060A2BE10C0E0501036F010E046FC10E78
:10137600F66E6E0EF76E000EF86EE70EE16E030E59
:10138600E26E110E006E010E016ED6EC03F0E70E52
:10139600056F030E066F100E076F000E086FF8EC50
:1013A60000F0010E01010A6F78C1F7F4FF0E040187
:1013B600F86F000EF96F7AEC04F00001E951070AA4
:1013C6002BE10C0E0501036F010E046FD20EF66EB3
:1013D6006E0EF76E000EF86EF80EE16E030EE26EFC
:1013E600110E006E010E016ED6EC03F0F80E056FBD
:1013F600030E066F100E076F000E086FF8EC00F074
:10140600010E01010A6F79C1F7F4FF0E0401F86FAE
:10141600000EF96F7AEC04F00001E951080A2BE19D
:101426000C0E0501036F010E046FE30EF66E6E0ED1
:10143600F76E000EF86E090EE16E040EE26E110EE6
:10144600006E010E016ED6EC03F0090E056F040E58
:10145600066F100E076F000E086FF8EC00F0010E15
:1014660001010A6F77C1F7F4FF0E0401F86F000E51
:10147600F96F7AEC04F00001E951090A2EE10C0E2D
:101486000501036F010E046FF40EF66E6E0EF76E15
:10149600000EF86E1A0EE16E040EE26E110E006E6C
:1014A600010E016ED6EC03F01A0E056F040E066FE0
:1014B600100E076F000E086FF8EC00F0010E010128
:1014C6000A6FA7C003F5FF0E0501046F000E056F36
:1014D600EBEC02F0200E0101026F0001E9510A0A4D
:1014E6002BE10C0E0501036F010E046F050EF66E5F
:1014F6006F0EF76E000EF86E2B0EE16E040EE26EA6
:10150600110E006E010E016ED6EC03F02B0E056F68
:10151600040E066F100E076F000E086FF8EC00F051
:10152600010E01010A6F7AC1F7F4FF0E0401F86F8C
:10153600000EF96F7AEC04F00001E9510B0A2DE177
:101546000C0E0501036F010E046F160EF66E6F0E7C
:10155600F76E000EF86E3C0EE16E040EE26E110E92
:10156600006E010E016ED6EC03F03C0E056F040E04
:10157600066F100E076F000E086FF8EC00F0010EF4
:1015860001010A6F7BC1F7F47CC1F8F4FD0E04017A
:10159600F96F000EFA6FD1EC04F00001E9510C0A64
:1015A60022E10C0E0501036F010E046F270EF66E85
:1015B6006F0EF76E000EF86E4D0EE16E040EE26EC3
:1015C600110E006E010E016ED6EC03F04D0E056F86
:1015D600040E066F100E076F000E086FF8EC00F091
:1015E600010E01010A6F0001E9510D0A68E10C0EB6
:1015F6000501036F010E046F380EF66E6F0EF76E5F
:10160600000EF86E5E0EE16E040EE26E110E006EB6
:10161600010E016ED6EC03F05E0E056F040E066F2A
:10162600100E076F000E086FF8EC00F0010E0101B6
:101636000A6F1F51000A21E1FF0E0501036F000E1C
:10164600046F4E0E04016F6F6F0E706F200E716F78
:10165600200E726F200E736F200E746F200E756F42
:10166600766B6F0E0501056F040E066F070E076F8A
:10167600000E086FF8EC00F022D00501FF0E036F94
:10168600000E046F590E0401776F650E786F730EA6
:10169600796F200E7A6F200E7B6F200E7C6F200EE6
:1016A6007D6F200E7E6F7F6B770E0501056F040E32
:1016B600066F080E076F000E086FF8EC00F00001C9
:1016C600E9510E0A68E10C0E0501036F010E046F65
:1016D6005A0EF66E6F0EF76E000EF86E800EE16E05
:1016E600040EE26E110E006E010E016ED6EC03F0D2
:1016F600800E056F040E066F100E076F000E086F42
:10170600F8EC00F0010E01010A6F1E51000A21E1FA
:10171600FF0E0501036F000E046F4E0E0401916F5C
:101726006F0E926F200E936F200E946F200E956FA2
:10173600200E966F200E976F986B910E0501056F20
:10174600040E066F070E076F000E086FF8EC00F028
:1017560022D00501FF0E036F000E046F590E04011F
:10176600996F650E9A6F730E9B6F200E9C6F200EFD
:101776009D6F200E9E6F200E9F6F200EA06FA16B97
:10178600990E0501056F040E066F080E076F000E11
:10179600086FF8EC00F00001E9510F0A68E10C0E41
:1017A6000501036F010E046F7C0EF66E6F0EF76E69
:1017B600000EF86EA20EE16E040EE26E110E006EC1
:1017C600010E016ED6EC03F0A20E056F040E066F35
:1017D600100E076F000E086FF8EC00F0010E010105
:1017E6000A6F7D51000A21E1FF0E0501036F000E0D
:1017F600046F4E0E0401B36F6F0EB46F200EB56FFB
:10180600200EB66F200EB76F200EB86F200EB96F80
:10181600BA6BB30E0501056F040E066F070E076F50
:10182600000E086FF8EC00F022D00501FF0E036FE2
:10183600000E046F590E0401BB6F650EBC6F730E6C
:10184600BD6F200EBE6F200EBF6F200EC06F200E24
:10185600C16F200EC26FC36BBB0E0501056F040E70
:10186600066F080E076F000E086FF8EC00F0000117
:10187600E951100A2BE10C0E0501036F010E046FEE
:101886009E0EF66E6F0EF76E000EF86EC40EE16ECB
:10189600040EE26E110E006E010E016ED6EC03F020
:1018A600C40E056F040E066F100E076F000E086F4C
:1018B600F8EC00F0010E01010A6F0AC2F7F4FF0E00
:1018C6000401F86F000EF96F7AEC04F00001E9519B
:1018D600110A22E10C0E0501036F010E046FAF0E13
:1018E600F66E6F0EF76E000EF86ED50EE16E040EF4
:1018F600E26E110E006E010E016ED6EC03F0D50EEF
:10190600056F040E066F100E076F000E086FF8ECD9
:1019160000F0010E01010A6F0001E951120A22E1ED
:101926000C0E0501036F010E046FC00EF66E6F0EEE
:10193600F76E000EF86EE60EE16E040EE26E110E04
:10194600006E010E016ED6EC03F0E60E056F040E76
:10195600066F100E076F000E086FF8EC00F0010E10
:0C19660001010A6F650E0001EE6F120017
:1019720003014E51000A04E04F51000A01E002D077
:10198200F28801D0F2984EC3A9F04FC3BBF0120007
:10199200140E01016C6F140E6B6F140E696F140E2E
:1019A2006A6F050E0001A76F040E0501036F3FEC7D
:1019B20003F00A0E0101786F040E6D6F0A0E776F45
:1019C200040E796F0C0E7A6F7B6B7C6B7D6B1F6BD9
:0C19D2001E6B02010A6B2FEC05F01200E6
:1019DE0003014E51010A0AE1010E0001826F03015B
:1019EE004FB102D0829001D0828081884E51020A7E
:1019FE000AE1010E0001806F03014FB102D0829205
:081A0E0001D0828281861200E2
:101A160003014E51010A04E10001816B010173913A
:101A260003014E51020A04E10001DE6B01017393CA
:021A360012009C
:101A380003014E6B140E4E5D60E24EC300F0000EC3
:101A4800016E070E046E000E056EAEEC03F07E0EFE
:101A58000026010E0122050E0024E96E000E012069
:101A6800EA6EEE50000A31E14EC300F0000E016E3E
:101A7800070E046E000E056EAEEC03F07E0E002419
:101A8800E96E010E0120EA6EEECF01F00150090A5D
:101A98001CE14EC300F0000E016E070E046E000E2E
:101AA800056EAEEC03F07E0E0026010E0122010E3B
:101AB8000024E96E000E0120EA6EEECF4FF3EECF60
:101AC80050F3EECF51F3EECF52F34EC300F0000EB9
:101AD800016E070E046E000E056EAEEC03F07E0E6E
:101AE8000026010E0122050E0024E16E000E0120E1
:101AF800E26E010EE66E4E2B9DD70001EA510301FE
:0A1B08004F5D006E00C04EF31200A6
:101B12009E964EC3C9FFC7A401D0FDD79EB601D081
:101B2200FDD7C5BC02D0006A03D0C584020E006E88
:021B320012009F
:101B3400C26AC00EC212C18CC18E4EC300F0003600
:101B4400009000360090003600900050C212C2800F
:101B540075EC04F0C284C2A401D0FDD7C4CF01F057
:0E1B6400006AC3500012000E0112C29012005F
:041B7200C584120014
:101B760001016F5103014E1905E101016F6B010E61
:101B8600006E12000101705103014E1905E10101B9
:101B9600706B010E006E12000101715103014E19A6
:101BA60005E10101716B010E006E1200006A120060
:101BB60083A003D083A201D003D0010E006E1200D1
:041BC600006A12009F
:101BCA000201346B0001E6B103D00201349102D064
:101BDA00020134810001E4B103D00201349302D03E
:101BEA00020134830001E66BE46B83B802D0D8802B
:101BFA0001D0D890020134B103D002E2349101D06D
:101C0A00348183BA02D0D88001D0D89034B303D0BB
:0E1C1A0002E2349301D0348334C200F0120091
:101C280096EC05F07C0E03014E6F6FDF800E03010A
:101C38004E6F6BDF02013451020A04E1380E0301D2
:101C48004E6F63DF02013451010A04E1340E0301CF
:101C58004E6F5BDF800E03014E6F57DF0201345178
:101C6800020A04E1390E03014E6F4FDF02013451BD
:101C7800010A04E1350E03014E6F47DF800E0301B0
:101C88004E6F43DF1C0E03014E6F3FDF800E0301D2
:101C98004E6F3BDF720E03014E6F37DF800E03017C
:101CA8004E6F33DF550E03014E6F2FDF800E030199
:101CB8004E6F2BDF6C0E03014E6F27DF800E030182
:101CC8004E6F23DF0C0E03014E6F1FDF800E0301E2
:101CD8004E6F1BDF010E03014E6F17DF800E0301ED
:101CE8004E6F13DF060E03014E6F0FDF800E0301E8
:101CF8004E6F0BDF020E03014E6F07DF36DF120057
:101D0800010E0001F66F01016EA315D00001F66BFC
:101D1800F76B650EEE6FE951000A0DE10101606B8A
:101D28000001A651000A02E1C80EEE6FA651010A91
:101D380002E1C90EEE6F0001E951000A18E1010144
:101D48006EA109D00001A651000805E2A6073BECE8
:101D580008F0660EEE6F01016EA509D0010E0001B4
:101D6800A65D05E2A62B3BEC08F0660EEE6F0001BF
:101D7800E951010A16E101016EA108D06C51000871
:101D880005E26C073BEC08F0660EEE6F01016EA5EC
:101D980008D0FF0E6C5D05E26C2B3BEC08F0660E7C
:101DA800EE6F0001E951020A16E101016EA108D0A7
:101DB8006951000805E269073BEC08F0660EEE6F12
:101DC80001016EA508D0FF0E695D05E2692B3BECA9
:101DD80008F0660EEE6F0001E951030A16E10101F1
:101DE8006EA108D06B51000805E26B073BEC08F0C8
:101DF800660EEE6F01016EA508D0FF0E6B5D05E261
:101E08006B2B3BEC08F0660EEE6F0001E951040AFB
:101E180016E101016EA108D06A51000805E26A07BF
:101E28003BEC08F0660EEE6F01016EA508D0FF0EC0
:101E38006A5D05E26A2B3BEC08F0660EEE6F000166
:101E4800E951050A16E101016EA108D06D5100089B
:101E580005E26D073BEC08F0660EEE6F01016EA51A
:101E680008D0FF0E6D5D05E26D2B3BEC08F0660EA9
:101E7800EE6F0001E951060A16E101016EA108D0D2
:101E88007851000805E278073BEC08F0660EEE6F23
:101E980001016EA508D0FF0E785D05E2782B3BECBA
:101EA80008F0660EEE6F0001E951070A16E101011C
:101EB8006EA108D07951000805E279073BEC08F0DB
:101EC800660EEE6F01016EA508D0FF0E795D05E282
:101ED800792B3BEC08F0660EEE6F0001E951080A19
:101EE80016E101016EA108D07751000805E27707D5
:101EF8003BEC08F0660EEE6F01016EA508D0FF0EF0
:101F0800775D05E2772B3BEC08F0660EEE6F00017B
:101F1800E951090A18E101016EA109D00001A75190
:101F2800000805E2A7073BEC08F0660EEE6F01011A
:101F38006EA509D0090E0001A75D05E2A72B3BECB1
:101F480008F0660EEE6F0001E9510A0A16E1010178
:101F58006EA108D07A51000805E27A073BEC08F038
:101F6800660EEE6F01016EA508D0FF0E7A5D05E2E0
:101F78007A2B3BEC08F0660EEE6F0001E9510B0A74
:101F880022E101016EA110D0000E006E7C51005CB0
:101F980002E17B51000808E2010E7B5F000E7C5BCA
:101FA8003BEC08F0660EEE6F01016EA50CD0FD0E3D
:101FB8007C5D02E1E80E7B5D06E27B4B7C2B3BEC13
:101FC80008F0660EEE6F0001E9510C0A47E1EE6B6E
:101FD8000C0E0501036F010E046FA80EF66E740E49
:101FE800F76E000EF86E340EE16E020EE26E110E00
:101FF800006E010E016ED6EC03F0340E056F020E72
:10200800066F100E076F000E086FF8EC00F0F90E5F
:10201800036F000E046FB90EF66E740EF76E000EA5
:10202800F86E450EE16E020EE26E110E006E010EA4
:10203800016ED6EC03F0450E056F020E066F100E0A
:10204800076F000E086FF8EC00F00001F66BF76BF5
:10205800010E01010A6F99DC2FEC05F00001E9512E
:102068000D0A16E101016EA108D01F51000805E212
:102078001F073BEC08F0660EEE6F01016EA508D055
:10208800010E1F5D05E21F2B3BEC08F0660EEE6F9C
:102098000001E9510E0A16E101016EA108D01E5196
:1020A800000805E21E073BEC08F0660EEE6F010122
:1020B8006EA508D0010E1E5D05E21E2B3BEC08F054
:1020C800660EEE6F0001E9510F0A16E101016EA1DB
:1020D80008D07D51000805E27D073BEC08F0660E4C
:1020E800EE6F01016EA508D0010E7D5D05E27D2B26
:1020F8003BEC08F0660EEE6F0001E951100A21E191
:1021080001016EA10DD002010A51000809E20A0777
:102118000A51090A01E10A6B3BEC08F0660EEE6F02
:1021280001016EA50ED0FF0E02010A5D0AE20A2B1C
:102138000A51010A02E10A0E0A6F3BEC08F0660E2A
:10214800EE6F0001E951110A44E1670EEE6F0C0EC3
:102158000501036F010E046FCA0EF66E740EF76E5A
:10216800000EF86E560EE16E020EE26E110E006E53
:10217800010E016ED6EC03F0560E056F020E066FC7
:10218800100E076F000E086FF8EC00F0F90E036FE1
:10219800000E046FDB0EF66E740EF76E000EF86E0E
:1021A800670EE16E020EE26E110E006E010E016EF8
:1021B800D6EC03F0670E056F020E066F100E076F60
:1021C800000E086FF8EC00F00001F66B010E01013B
:1021D8000A6F0001E951120A45E1EE6B0C0E050188
:1021E800036F010E046FEC0EF66E740EF76E000EA0
:1021F800F86E780EE16E020EE26E110E006E010EA0
:10220800016ED6EC03F0780E056F020E066F100E05
:10221800076F000E086FF8EC00F0F90E036F000E60
:10222800046FFD0EF66E740EF76E000EF86E890ED2
:10223800E16E020EE26E110E006E010E016ED6EC1A
:1022480003F0890E056F020E066F100E076F000E61
:10225800086FF8EC00F00001F66B010E01010A6F3F
:062268002AEC06F0120052
:10226E000201346B83B801D0348183BA01D0348338
:06227E0034C200F0120062
:102284000201356B366B376B83BA02D0378501D0C8
:10229400379583B802D0378301D0379384B002D006
:1022A400378101D037913751000A1BE10001E25117
:1022B400000A08E101014E6B0001E26B0201346B7C
:1022C40001014D6B0001E251010A0BE1050EE05DD5
:1022D40008E301014E6B0001E26B0201346B010162
:1022E4004D6B02013751000A24E00001E251010A5A
:1022F40020E101014E51000A1CE1030E4925016E43
:10230400000E4A21026E000E4B21036E000E4C217A
:10231400046E0001ED51041808E1EC51031805E1C5
:10232400EB51021802E1EA51011803E1010E010127
:102334004E6F02013751000A0AE00001E251010A1E
:1023440006E101014E51000A02E10201346B02016F
:102354003751000A0FE00001E251010A0BE10101CB
:102364004E51010A07E10201375101014D03F3CF38
:1023740034F24D6B02013751000A11E00001E251C1
:10238400000A0DE137C234F2010EE26FEAC049F1EE
:10239400EBC04AF1ECC04BF1EDC04CF1E06B010134
:1023A4004E51010A0DE10A0E046EE5C000F0E9EC9D
:1023B40000F008C000F00050000A02E1010E4D6F69
:0623C40034C200F012001B
:1023CA00949894968B988B9694889486C79EC79C6B
:0623DA00380EC66E120071
:1023E0000201356B366B3F0E3415026E02C034F2BB
:1023F000540E356F02C000F00032009E0032009E85
:102400000032009E0032009E540E0010356F700E98
:10241000366F0F0E0214006E700E0010366F96ECC1
:1024200005F07C0E03014E6F89EC0DF0800E030168
:102430004E6F89EC0DF035C24EF389EC0DF0800E35
:1024400003014E6F89EC0DF036C24EF389EC0DF0AE
:10245000B9EC0DF00D0E0C6EFB0E0D6E0D2EFED7B1
:0A2460000C2EFCD700000000120053
:10246A000201386B396B3451010A03E13551800F8F
:10247A00396F3451020A03E13551C00F396F96ECB6
:10248A0005F07C0E03014E6F89EC0DF0800E0301FE
:10249A004E6F89EC0DF039C24EF389EC0DF0400E07
:1024AA0003014E6F89EC0DF0020138513625E96EB1
:1024BA00000E3721EA6EEE500A0A10E03851100871
:1024CA000DE338513625E96E000E3721EA6EEECF5C
:1024DA004EF389EC0DF00201382BE6D7B9EC0DF07A
:1024EA000D0E0C6EFB0E0D6E0D2EFED70C2EFCD7AC
:0624FA00000000001200CA
:10250000640E0101586F010E596F0A0E5A6F050EC5
:102510005B6FFF0E656FFF0E666F000E676F000E3C
:10252000686FFF0E5C6FFF0E5D6F000E5E6F000E3A
:102530005F6FFF0E616FFF0E626F000E636F000E24
:10254000646FAC8A900EAB6E948E949C9EAA03D05E
:08255000AECF00F0FBD7120032
:1025580001016EA10AD00001E951000A03E1120E3F
:10256800E96F01D0E907640EEE6F01016EA509D08D
:102578000001E951120A02E1E96B01D0E92B640E6E
:10258800EE6F01016EA303D0660E0001EE6F12001C
:10259800020E02016A6F839E01017251000A09E16D
:1025A800090E03014E6FBBEC0DF00050010A01E06B
:1025B800CFD3090E03014E6FF1EC07F001016A5108
:1025C800000A04E01D51010A01E045D102016A51E7
:1025D8000001EA25006E000EEB21016E000EEC21D1
:1025E800026E000EED21036E00C016F201C017F254
:1025F80002C018F203C019F200C04EF301C04FF335
:1026080002C050F303C051F3010E0301526FB7EC3F
:1026180005F001017951000A11E016C24EF317C204
:102628004FF318C250F319C251F3070E0301526F4A
:10263800B7EC05F0010E0001F36F0FD016C24EF390
:1026480017C24FF318C250F319C251F3050E030114
:10265800526FB7EC05F00001F36B010179510001ED
:10266800EA25006E000EEB21016E000EEC21026ED1
:10267800000EED21036E020E0026000E012202223A
:10268800032202016A510026000E012202220322BF
:1026980000C016F201C017F202C018F203C019F206
:1026A80000C04EF301C04FF302C050F303C051F312
:1026B8000A0E0301526FB7EC05F0010179510001D0
:1026C800EA25006E000EEB21016E000EEC21026E71
:1026D800000EED21036E02016A510026000E012250
:1026E8000222032200C016F201C017F202C018F23B
:1026F80003C019F200C04EF301C04FF302C050F3FB
:1027080003C051F3050E0301526FB7EC05F0010148
:102718007751000A30E06B510001EA25006E000E87
:10272800EB21016E000EEC21026E000EED21036E0E
:1027380001017751005E000E015A025A035A020144
:102748006A510026000E01220222032200C016F25E
:1027580001C017F202C018F203C019F200C04EF30C
:1027680001C04FF302C050F303C051F3070E030139
:10277800526FB7EC05F001017D51000A42E06B5140
:102788000001EA25006E000EEB21016E000EEC211F
:10279800026E000EED21036E02016A510026000E42
:1027A80001220222032200C016F201C017F202C061
:1027B80018F203C019F200C04EF301C04FF302C073
:1027C80050F303C051F3050E0301526FB7EC05F047
:1027D800030E0201162503014E6F000E0201172198
:1027E80003014F6F000E020118210301506F000E04
:1027F800020119210301516F030E526FB7EC05F066
:102808002AD001016B510001EA25006E000EEB2170
:10281800016E000EEC21026E000EED21036E020126
:102828006A510026000E01220222032200C016F27D
:1028380001C017F202C018F203C019F200C04EF32B
:1028480001C04FF302C050F303C051F3030E03015C
:10285800526FB7EC05F001016A51000AD8B46FD283
:10286800020E1D6F02016A510001EA25006E000E7A
:10287800EB21016E000EEC21026E000EED21036EBD
:1028880000C016F201C017F202C018F203C019F214
:1028980000C04EF301C04FF302C050F303C051F320
:1028A800020E0301526FB7EC05F001017951000ADD
:1028B80011E016C24EF317C24FF318C250F319C2F3
:1028C80051F3080E0301526FB7EC05F0010E000139
:1028D800F46F0FD016C24EF317C24FF318C250F35D
:1028E80019C251F3060E0301526FB7EC05F000014F
:1028F800F46B010179510001EA25006E000EEB210D
:10290800016E000EEC21026E000EED21036E020E28
:102918000026000E01220222032202016A5100262B
:10292800000E01220222032200C016F201C017F293
:1029380002C018F203C019F200C04EF301C04FF3F1
:1029480002C050F303C051F30B0E0301526FB7ECF2
:1029580005F0010179510001EA25006E000EEB2116
:10296800016E000EEC21026E000EED21036E0201D5
:102978006A510026000E01220222032200C016F22C
:1029880001C017F202C018F203C019F200C04EF3DA
:1029980001C04FF302C050F303C051F3060E030108
:1029A800526FB7EC05F001017751000A30E06A5127
:1029B8000001EA25006E000EEB21016E000EEC21ED
:1029C800026E000EED21036E01017751005E000ECC
:1029D800015A025A035A02016A510026000E0122C6
:1029E8000222032200C016F201C017F202C018F238
:1029F80003C019F200C04EF301C04FF302C050F3F8
:102A080003C051F3080E0301526FB7EC05F0010142
:102A18006A510001EA25006E000EEB21016E000EDE
:102A2800EC21026E000EED21036E02016A510026B0
:102A3800000E01220222032200C016F201C017F282
:102A480002C018F203C019F200C04EF301C04FF3E0
:102A580002C050F303C051F3040E0301526FB7ECE8
:102A680005F001017A510001EA25006E000EEB2104
:102A7800016E000EEC21026E000EED21036E0201C4
:102A88006A510026000E01220222032200C016F21B
:102A980001C017F202C018F203C019F200C04EF3C9
:102AA80001C04FF302C050F303C051F3010E0301FC
:102AB800526FB7EC05F001017951000A11E016C216
:102AC8004EF317C24FF318C250F319C251F3070E51
:102AD8000301526FB7EC05F0010E0001F36F0FD040
:102AE80016C24EF317C24FF318C250F319C251F36E
:102AF800050E0301526FB7EC05F00001F36B0101FD
:102B08007A510001EA25006E000EEB21016E000EDD
:102B1800EC21026E000EED21036E010179510026B1
:102B2800000E012202220322020E0026000E0122BC
:102B38000222032202016A510026000E012202220B
:102B4800032200C016F201C017F202C018F203C037
:102B580019F200C04EF301C04FF302C050F303C096
:102B680051F30A0E0301526FB7EC05F001017A51D7
:102B78000001EA25006E000EEB21016E000EEC212B
:102B8800026E000EED21036E010179510026000E40
:102B980001220222032202016A510026000E0122AC
:102BA8000222032200C016F201C017F202C018F276
:102BB80003C019F200C04EF301C04FF302C050F336
:102BC80003C051F3050E0301526FB7EC05F0010184
:102BD8007751000A36E07A510001EA25006E000EAE
:102BE800EB21016E000EEC21026E000EED21036E4A
:102BF80001016B510026000E0122022203227751A7
:102C0800005E000E015A025A035A02016A51002658
:102C1800000E01220222032200C016F201C017F2A0
:102C280002C018F203C019F200C04EF301C04FF3FE
:102C380002C050F303C051F3070E0301526FB7EC03
:102C480005F001017D51000A49E06B510001EA25B8
:102C5800006E000EEB21016E000EEC21026E000EDC
:102C6800ED21036E01017A510026000E0122022295
:102C7800032202016A510026000E012202220322C9
:102C880000C016F201C017F202C018F203C019F210
:102C980000C04EF301C04FF302C050F303C051F31C
:102CA800050E0301526FB7EC05F0030E020116255D
:102CB80003014E6F000E0201172103014F6F000E32
:102CC800020118210301506F000E020119210301AE
:102CD800516F030E526FB7EC05F031D001016B5103
:102CE8000001EA25006E000EEB21016E000EEC21BA
:102CF800026E000EED21036E01017A510026000ECE
:102D080001220222032202016A510026000E01223A
:102D18000222032200C016F201C017F202C018F204
:102D280003C019F200C04EF301C04FF302C050F3C4
:102D380003C051F3030E0301526FB7EC05F0030E05
:102D48000001F26F01010B6B0001F16B040EEE6FD5
:102D5800010174A126D0000E7C1902E1000E7B1936
:102D680020E00001F551000A1CE1010EF56F1CEC92
:102D78000DF000C0F8F07C0EF66E750EF76E000EC2
:102D8800F86E340EE16E020EE26E160E006E010E43
:102D9800016ED6EC03F0340E4E6F020E4F6F4BEC03
:102DA80007F00001F551010AD8A4B2D0010174B1AD
:102DB800AFD0000E7C1902E1000E7B19D8B4A8D060
:102DC80002010A51000A52E10001F851EA25006E99
:102DD800000EEB21016E000EEC21026E000EED21BB
:102DE800036E00C016F201C017F202C018F203C049
:102DF80019F200C04EF301C04FF302C050F303C0F4
:102E080051F3090E0301526FB7EC05F00001F56BA1
:102E180016C2F7F417C2F8F418C2F9F419C2FAF492
:102E28000B0E0401FB6F020EFC6FDEEC03F0920E3A
:102E3800F66E750EF76E000EF86E4A0EE16E020E13
:102E4800E26E100E006E010E016ED6EC03F04A0E13
:102E580003014E6F020E4F6F4BEC07F00B0E030190
:102E68004E6F020E4F6F4BEC07F052D002010A5121
:102E78000001EA25006E000EEB21016E000EEC2128
:102E8800026E000EED21036E00C016F201C017F2AB
:102E980002C018F203C019F200C04EF301C04FF38C
:102EA80002C050F303C051F3090E0301526FB7EC8F
:102EB80005F00001F56B16C2F7F417C2F8F418C252
:102EC800F9F419C2FAF40B0E0401FB6F020EFC6F41
:102ED800DEEC03F0A20EF66E750EF76E000EF86EBD
:102EE8005A0EE16E020EE26E100E006E010E016EB9
:102EF800D6EC03F05A0E03014E6F020E4F6F4BECE7
:102F080007F00B0E03014E6F020E4F6F4BEC07F0EC
:022F18001200A5
:102F1A000201386B03014E6B9AEC0DF000C034F2DB
:102F2A0001C035F2010E03014E6F9AEC0DF000C09C
:102F3A0036F201C037F20001A951000A16E0010178
:102F4A0021510201355D04E1010120510201345D84
:102F5A0006E2FF0E0001815D01E2812B05D000012E
:102F6A008151000801E2810701D0816B8151010181
:102F7A00225D02E2020138810001BB51000A16E01B
:102F8A00010121510201375D04E1010120510201D1
:102F9A00365D06E2FF0E0001DE5D01E2DE2B05D0A2
:102FAA000001DE51000801E2DE0701D0DE6BDE51CE
:102FBA000101225D02E20201388338C200F01200E8
:102FCA007ED2010172A103D0602B020E536F72A34D
:102FDA0004D0030E606F010E536FCAD2020E0301B2
:102FEA004E6F4F6BEFEC0CF0020E0001EA25030165
:102FFA004E6F000E0001EB2103014F6F000E00011E
:10300A00EC210301506F000E0001ED210301516F05
:10301A00150E526FB7EC05F00101602BA9D273A30C
:10302A0009D00001F16B020E03014E6FE2EC07F0CA
:10303A000101602B150E03014E6FBBEC0DF000521F
:10304A0003E0010E0001F16F93D2010E03014E6FEE
:10305A004F6BEFEC0CF0020E0001EA2503014E6FF4
:10306A00000E0001EB2103014F6F000E0001EC215D
:10307A000301506F000E0001ED210301516F140E80
:10308A00526FB7EC05F00101602B73A108D00B6BEE
:10309A00010E03014E6FE2EC07F00101602B140EE2
:1030AA0003014E6FBBEC0DF0005203E0010E01016B
:1030BA000B6F5ED201017251000A19E0EAC041F1B8
:1030CA00EBC042F1ECC043F1EDC044F1010E030143
:1030DA004E6F010E4F6FEFEC0CF04E6BBBC04FF30F
:1030EA00B9EC0CF0010E0001F36F0101602B40D224
:1030FA007251000A12E0602BEAC03DF1EBC03EF1CA
:10310A00ECC03FF1EDC040F1010E03014E6FBBC0B0
:10311A004FF3B9EC0CF00001F36B2AD201017251A2
:10312A00000A12E0602BEAC054F1EBC055F1ECC082
:10313A0056F1EDC057F103014E6BBBC04FF3B9EC2A
:10314A000CF0010E0001F36F13D201017251000A53
:10315A0024E05351020A02E1602B02D0110E606F83
:10316A00EAC04FF1EBC050F1ECC051F1EDC052F1A1
:10317A00010E03014E6FE2EC07F0010141514F5D70
:10318A00006E00C032F141513D5D006E00C035F164
:10319A0054514F5D006E00C036F1EAD17251000AF7
:1031AA0019E0EAC041F1EBC042F1ECC043F1EDC0D5
:1031BA0044F1020E03014E6F010E4F6FEFEC0CF05B
:1031CA00A9C04EF34F6BB9EC0CF0010E0001F46F7D
:1031DA000101602BCDD17251000A12E0602BEAC0C6
:1031EA003DF1EBC03EF1ECC03FF1EDC040F1A9C0AA
:1031FA004EF3010E03014F6FB9EC0CF00001F46BB2
:10320A00B7D101017251000A12E0602BEAC054F1F1
:10321A00EBC055F1ECC056F1EDC057F1A9C04EF321
:10322A0003014F6BB9EC0CF0010E0001F46FA0D151
:10323A0001017251000A1EE0602BEAC04FF1EBC097
:10324A0050F1ECC051F1EDC052F1020E03014E6F84
:10325A00E2EC07F0010141514F5D006E00C034F10C
:10326A0041513D5D006E00C039F154514F5D006E11
:10327A0000C03AF17DD17251000A18E0EAC041F16A
:10328A00EBC042F1ECC043F1EDC044F1020E030180
:10329A004E6F4F6BEFEC0CF0A9C04EF34F6BB9ECCD
:1032AA000CF0010E0001F46F0101602B61D1725123
:1032BA00000A12E0602BEAC03DF1EBC03EF1ECC01F
:1032CA003FF1EDC040F1A9C04EF3010E03014F6F6B
:1032DA00B9EC0CF00001F46B4BD101017251000AF8
:1032EA0012E0602BEAC054F1EBC055F1ECC056F184
:1032FA00EDC057F1A9C04EF303014F6BB9EC0CF0C6
:10330A00010E0001F46F34D101017251000A1EE06E
:10331A00602BEAC04FF1EBC050F1ECC051F1EDC0A7
:10332A0052F1020E03014E6FE2EC07F00101415126
:10333A004F5D006E00C033F141513D5D006E00C02B
:10334A003BF154514F5D006E00C03CF111D17251F6
:10335A00000A18E0EAC041F1EBC042F1ECC043F1C7
:10336A00EDC044F1010E03014E6F4F6BEFEC0CF010
:10337A004E6BBBC04FF3B9EC0CF0010E0001F36FBA
:10338A000101602BF5D07251000A12E0602BEAC0ED
:10339A003DF1EBC03EF1ECC03FF1EDC040F1010E52
:1033AA0003014E6FBBC04FF3B9EC0CF00001F36B95
:1033BA00DFD001017251000A12E0602BEAC054F119
:1033CA00EBC055F1ECC056F1EDC057F103014E6B5D
:1033DA00BBC04FF3B9EC0CF0010E0001F36FC8D07B
:1033EA0001017251000A1EE0602BEAC04FF1EBC0E6
:1033FA0050F1ECC051F1EDC052F1010E03014E6FD4
:10340A00E2EC07F0010141514F5D006E00C031F15D
:10341A0041513D5D006E00C037F154514F5D006E61
:10342A0000C038F1A5D0310E03014E6F010E4F6F67
:10343A0053C150F38DEC06F00C0E0501036F010E1B
:10344A00046FB30EF66E750EF76E000EF86E340E3C
:10345A00E16E020EE26E110E006E010E016ED6ECE6
:10346A0003F0340E056F020E066F100E076F000E82
:10347A00086FF8EC00F0F90E036F000E046FC40E2B
:10348A00F66E750EF76E000EF86E450EE16E020EC0
:10349A00E26E110E006E010E016ED6EC03F0450EBF
:1034AA00056F020E066F100E076F000E086FF8EC1C
:1034BA0000F0010E01010A6F0001EE6B59D0010103
:1034CA006051000AD8B47DD56051010AD8B486D5B6
:1034DA006051020AD8B4A3D56051030AD8B4B5D54D
:1034EA006051040AD8B4D1D56051050AD8B4E2D5DE
:1034FA006051060AD8B4FCD56051070AD8B40ED672
:10350A006051080AD8B421D66051090AD8B446D6FF
:10351A0060510A0AD8B45FD660510B0AD8B471D682
:10352A0060510C0AD8B484D660510D0AD8B4A3D617
:10353A0060510E0AD8B4BBD660510F0AD8B4CDD6A2
:10354A006051100AD8B4E0D66051110AD8B4FFD637
:10355A006051120AD8B417D76051130AD8B429D7C0
:10356A006051140AD8B43CD76051150AD8B45BD755
:02357A0012003D
:0A357C002FEC05F00001EE6B1200C9
:10358600E5D1010172A103D0020E246F602B72A354
:1035960004D0010E246F030E606F11D2020E0301D8
:1035A6004E6F4F6BEFEC0CF0020E0001EA250301A3
:1035B6004E6F000E0001EB2103014F6F000E00015C
:1035C600EC210301506F000E0001ED210301516F44
:1035D600150E526FB7EC05F00101602BF0D173A305
:1035E60009D00001F16B020E03014E6FE2EC07F009
:1035F6000101602B150E03014E6FBBEC0DF000525E
:1036060003E0010E0001F16FDAD1010E03014E6FE6
:103616004F6BEFEC0CF0020E0001EA2503014E6F32
:10362600000E0001EB2103014F6F000E0001EC219B
:103636000301506F000E0001ED210301516F140EBE
:10364600526FB7EC05F00101602B73A108D00B6B2C
:10365600010E03014E6FE2EC07F00101602B140E20
:1036660003014E6FBBEC0DF0005203E0010E0101A9
:103676000B6FA5D1EAC045F1EBC046F1ECC047F1AE
:10368600EDC048F1010E03014E6F010E4F6FEFECD6
:103696000CF0020E0001EA2503014E6F000E000138
:1036A600EB2103014F6F000E0001EC210301506F67
:1036B600000E0001ED210301516F140E526FB7EC9D
:1036C60005F00101602B7BD173A114D00B6B010EA9
:1036D60003014E6FE2EC07F001012451010A03E1F8
:1036E6000B0E606F01D0602B45510001EA5D006E44
:1036F60000C026F1140E03014E6FBBEC0DF0005214
:1037060003E0010E01010B6F5AD1EAC045F1EBC08F
:1037160046F1ECC047F1EDC048F1020E03014E6FD1
:10372600010E4F6FEFEC0CF0020E0001EA250301CB
:103736004E6F000E0001EB2103014F6F000E0001DA
:10374600EC210301506F000E0001ED210301516FC2
:10375600150E526FB7EC05F00101602B30D173A343
:103766000FD00001F16B020E03014E6FE2EC07F081
:103776000101602B45510001EA5D006E00C028F191
:10378600150E03014E6FBBEC0DF0005203E0010E67
:1037960001010B6F14D1EAC045F1EBC046F1ECC054
:1037A60047F1EDC048F1020E03014E6F4F6BEFEC8F
:1037B6000CF0020E0001EA2503014E6F000E000117
:1037C600EB2103014F6F000E0001EC210301506F46
:1037D600000E0001ED210301516F150E526FB7EC7B
:1037E60005F00101602BEBD073A30FD00001F16B44
:1037F600020E03014E6FE2EC07F00101602B45510A
:103806000001EA5D006E00C027F1150E03014E6F40
:10381600BBEC0DF0005203E0010E01010B6FCFD09F
:10382600EAC045F1EBC046F1ECC047F1EDC048F106
:10383600010E03014E6F4F6BEFEC0CF0020E000110
:10384600EA2503014E6F000E0001EB2103014F6FC5
:10385600000E0001EC210301506F000E0001ED2166
:103866000301516F140E526FB7EC05F00101602B86
:10387600A6D073A10ED00B6B010E03014E6FE2ECC6
:1038860007F00101602B45510001EA5D006E00C0A2
:1038960025F1140E03014E6FBBEC0DF0005203E050
:1038A600010E01010B6F8BD0250E03014E6F010E29
:1038B6004F6F7AEC07F0250E4E6F010E4F6F24C145
:1038C60050F38DEC06F00C0E0501036F010E046F2C
:1038D600D50EF66E750EF76E000EF86E340EE16EAE
:1038E600020EE26E110E006E010E016ED6EC03F0B2
:1038F600340E056F020E066F100E076F000E086F6E
:10390600F8EC00F0F90E036F000E046FE60EF66E8B
:10391600750EF76E000EF86E450EE16E020EE26E43
:10392600110E006E010E016ED6EC03F0450E056F0A
:10393600020E066F100E076F000E086FF8EC00F00F
:10394600010E01010A6F0001EE6B39D001016051D1
:10395600000AD8B416D66051010AD8B41FD66051F1
:10396600020AD8B43CD66051030AD8B44ED6605188
:10397600040AD8B46AD66051050AD8B47BD6605119
:10398600060AD8B4A1D66051070AD8B4BED660518B
:10399600080AD8B4E4D66051090AD8B4FCD66051F6
:1039A6000A0AD8B421D760510B0AD8B439D7605166
:1039B6000C0AD8B45ED760510D0AD8B475D7120078
:1039C600838E6FC103F50C0E0501046F010E056FA2
:1039D600EBEC02F070C103F5F90E046F000E056FF3
:1039E600EBEC02F0010E01010A6F010E03014E6FAE
:1039F600BBEC0DF000524BE0010E03014E6F4F6B16
:103A0600EFEC0CF0530E0201346F340E356F200EBE
:103A1600366F4D0E376F6F0E386F740E396F6F0E2F
:103A26003A6F720E3B6F310E3C6F530E3D6F740E44
:103A36003E6F610E3F6F720E406F740E416F426BA8
:103A4600340E03014E6F020E4F6F4BEC07F00C0E57
:103A56000501036F010E046FBC0E056F000E066FA5
:103A6600100E076F000E086FF8EC00F0F90E036FEA
:103A7600000E046FCD0E056F000E066F100E076F59
:103A8600000E086FF8EC00F0010E01010A6F020E3D
:103A960003014E6FBBEC0DF000522BE0020E03014A
:103AA6004E6F4F6BEFEC0CF0530E0201436F340E6A
:103AB600446F200E456F4D0E466F6F0E476F740EA6
:103AC600486F6F0E496F720E4A6F320E4B6F530E70
:103AD6004C6F740E4D6F610E4E6F720E4F6F740EFB
:103AE600506F516B430E03014E6F020E4F6F4BEC3E
:103AF60007F00A0E03014E6FBBEC0DF000521FE0FB
:103B0600010E01010B6F010E03014E6F0BEC0DF060
:103B1600090EF66E710EF76E000EF86E520EE16E1D
:103B2600020EE26E150E006E010E016ED6EC03F06B
:103B3600520E03014E6F020E4F6F4BEC07F00B0E49
:103B460003014E6FBBEC0DF000521FE0010E0001A9
:103B5600F16F020E03014E6F0BEC0DF01E0EF66EAA
:103B6600710EF76E000EF86E670EE16E020EE26ED3
:103B7600150E006E010E016ED6EC03F0670E030102
:103B86004E6F020E4F6F4BEC07F0050E03014E6FA2
:103B9600BBEC0DF0005230E0010E03014E6FBBC0CE
:103BA6004FF3B9EC0CF001010B6B0001F36B530EF4
:103BB60002017C6F340E7D6F200E7E6F4D0E7F6F7F
:103BC600310E806F200E816F530E826F700E836FE1
:103BD600650E846F650E856F640E866F200E876F87
:103BE600550E886F500E896F8A6B7C0E03014E6FDF
:103BF600020E4F6F4BEC07F0070E03014E6FBBEC46
:103C06000DF0005221E003014E6BBBC04FF3B9EC3F
:103C16000CF00001F16B010EF36F420EF66E710EA1
:103C2600F76E000EF86E8B0EE16E020EE26E110E4E
:103C3600006E010E016ED6EC03F08B0E03014E6F83
:103C4600020E4F6F4BEC07F0060E03014E6FBBECF6
:103C56000DF000522EE0A9C04EF3010E03014F6F86
:103C6600B9EC0CF00001F46B530E02019C6F340E9C
:103C76009D6F200E9E6F4D0E9F6F320EA06F200E11
:103C8600A16F530EA26F700EA36F650EA46F650E23
:103C9600A56F640EA66F200EA76F550EA86F500E67
:103CA600A96FAA6B9C0E03014E6F020E4F6F4BEC71
:103CB60007F0080E03014E6FBBEC0DF0005220E03A
:103CC600A9C04EF303014F6BB9EC0CF0010E0001D5
:103CD600F46F620EF66E710EF76E000EF86EAB0E96
:103CE600E16E020EE26E110E006E010E016ED6EC52
:103CF60003F0AB0E03014E6F020E4F6F4BEC07F055
:103D0600030E03014E6FBBEC0DF0005228E00001DC
:103D1600F291010E03014E6FE2EC07F0530E020121
:103D2600BC6F340EBD6F200EBE6F4D0EBF6F310ED1
:103D3600C06F200EC16F530EC26F740EC36F6F0E2D
:103D4600C46F700EC56F650EC66F640EC76FC86B05
:103D5600BC0E03014E6F020E4F6F4BEC07F0040EC4
:103D660003014E6FBBEC0DF0005228E00001F29308
:103D7600020E03014E6FE2EC07F0530E0201C96F0B
:103D8600340ECA6F200ECB6F4D0ECC6F320ECD6F38
:103D9600200ECE6F530ECF6F740ED06F6F0ED16F95
:103DA600700ED26F650ED36F640ED46FD56BC90ECD
:103DB60003014E6F020E4F6F4BEC07F001010B51E2
:103DC600010A53E173A151D00001F351000A4DE1FC
:103DD600010E03014E6FE2EC07F0020E03014E6F77
:103DE600E2EC07F0060E0001EE6F01010B6B00011D
:103DF600F16B8D0EF66E710EF76E000EF86ED60E26
:103E0600E16E020EE26E110E006E010E016ED6EC30
:103E160003F0D60E03014E6F020E4F6F4BEC07F008
:103E2600090E03014E6FF1EC07F00C0E0501036F4E
:103E3600010E046FAA0E056F000E066F100E076FB7
:103E4600000E086FF8EC00F0F90E036F000E046F19
:103E56004D0E056F000E066F100E076F000E086FF1
:103E6600F8EC00F0010E01010A6F0001F151010AA0
:103E760054E1010173A351D00001F451000A4DE150
:103E8600010E03014E6FE2EC07F0020E03014E6FC6
:103E9600E2EC07F0060E0001EE6F01010B6B00016C
:103EA600F16B9E0EF66E710EF76E000EF86EE70E53
:103EB600E16E020EE26E110E006E010E016ED6EC80
:103EC60003F0E70E03014E6F020E4F6F4BEC07F047
:103ED600090E03014E6FF1EC07F00C0E0501036F9E
:103EE600010E046FAA0E056F000E066F100E076F07
:103EF600000E086FF8EC00F0F90E036F000E046F69
:103F06004D0E056F000E066F100E076F000E086F40
:103F1600F8EC00F0010E01010A6F01016951000A77
:103F260004E01D51010A01E002D00001F2930101F3
:103F360074A14ED0010E03014E6FE2EC07F0020EA3
:103F460003014E6FE2EC07F001010B6B0001F16B10
:103F5600060EEE6F010EA56FAF0EF66E710EF76EC2
:103F6600000EF86EF80EE16E020EE26E110E006E95
:103F7600010E016ED6EC03F0F80E03014E6F020E31
:103F86004F6F4BEC07F0090E03014E6FF1EC07F093
:103F96000C0E0501036F010E046FAA0E056F000ECD
:103FA600066F100E076F000E086FF8EC00F0F90EA2
:103FB600036F000E046F5E0E056F000E066F100E87
:103FC600076F000E086FF8EC00F0010E01010A6F92
:103FD6007551010A4FE11E534DE0010E03014E6F6C
:103FE600E2EC07F0020E03014E6FE2EC07F0060E5C
:103FF6000001EE6F01010B6B0001F16BC00EF66E56
:10400600710EF76E000EF86E090EE16E030EE26E8B
:10401600150E006E010E016ED6EC03F0090E0301BB
:104026004E6F030E4F6F4BEC07F0090E03014E6FF8
:10403600F1EC07F00C0E0501036F010E046FAA0EDA
:10404600056F000E066F100E076F000E086FF8EC76
:1040560000F0F90E036F000E046F3C0E056F000EA4
:10406600066F100E076F000E086FF8EC00F0010ED9
:1040760001010A6F7251000A4DE0010E03014E6FF5
:10408600E2EC07F0020E03014E6FE2EC07F0060EBB
:104096000001EE6F01010B6B0001F16BD50EF66EA0
:1040A600710EF76E000EF86E1E0EE16E030EE26ED6
:1040B600120E006E010E016ED6EC03F01E0E030109
:1040C6004E6F030E4F6F4BEC07F0090E03014E6F58
:1040D600F1EC07F00C0E0501036F010E046FAA0E3A
:1040E600056F000E066F100E076F000E086FF8ECD6
:1040F60000F0F90E036F000E046F1A0E056F000E26
:10410600066F100E076F000E086FF8EC00F0010E38
:1041160001010A6F0001F251000A28E1010EEE6F5B
:10412600F56B090E03014E6FF1EC07F00C0E05015D
:10413600036F010E046F2B0E056F000E066F100E37
:10414600076F000E086FF8EC00F0F90E036F000E13
:10415600046FCD0E056F000E066F100E076F000E72
:10416600086FF8EC00F0010E01010A6F0001EE5134
:10417600050A04E0EE51060A01E04CD003014E6B3D
:10418600F1EC07F0000E01017C1902E1000E7B192B
:1041960041E07B510001EA2503014E6F01017C518C
:1041A6000001EB2103014F6F000E0001EC2103011A
:1041B600506F000E0001ED210301516F090E526F81
:1041C600B7EC05F0E70EF66E710EF76E000EF86EA0
:1041D600300EE16E030EE26E150E006E010E016EDC
:1041E600D6EC03F0300E4E6F030E4F6F4BEC07F01C
:1041F600F90E0501036F000E046F6F0E056F000EBA
:10420600066F100E076F000E086FF8EC00F0010E37
:0642160001010A6F120015
:10421C00020E02016A6F839E01017251000A09E1CC
:10422C00090E03014E6FBBEC0DF00050010A01E0CA
:10423C00DAD101016A51000A04E01D51010A01E0C2
:10424C0088D0090E03014E6FF1EC07F002016A51A0
:10425C000001EA25006E000EEB21016E000EEC2130
:10426C00026E000EED21036E00C016F201C017F2B3
:10427C0002C018F203C019F200C04EF301C04FF394
:10428C0002C050F303C051F3010E0301526FB7EC9F
:10429C0005F016C24EF317C24FF318C250F319C2F1
:1042AC0051F3050E526FB7EC05F00001F36B020EE3
:1042BC00EA25006E000EEB21016E000EEC21026E61
:1042CC00000EED21036E02016A510026000E012240
:1042DC000222032200C016F201C017F202C018F22B
:1042EC0003C019F200C04EF301C04FF302C050F3EB
:1042FC0003C051F30A0E0301526FB7EC05F0010134
:10430C006B510001EA25006E000EEB21016E000ED0
:10431C00EC21026E000EED21036E02016A510026A3
:10432C00000E01220222032200C016F201C017F275
:10433C0002C018F203C019F200C04EF301C04FF3D3
:10434C0002C050F303C051F3030E0301526FB7ECDC
:10435C0005F001016A51000AD8B43CD11D51020A82
:10436C00D8A438D1090E03014E6FF1EC07F002010D
:10437C006A510001EA25006E000EEB21016E000E61
:10438C00EC21026E000EED21036E00C016F201C08E
:10439C0017F202C018F203C019F200C04EF301C0AC
:1043AC004FF302C050F303C051F3020E0301526FDE
:1043BC00B7EC05F016C24EF317C24FF318C250F308
:1043CC0019C251F3060E526FB7EC05F00001F36BF6
:1043DC00020EEA25006E000EEB21016E000EEC21A0
:1043EC00026E000EED21036E02016A510026000ED2
:1043FC0001220222032200C016F201C017F202C0F1
:10440C0018F203C019F200C04EF301C04FF302C002
:10441C0050F303C051F30B0E0301526FB7EC05F0D0
:10442C0001016B510001EA25006E000EEB21016EBB
:10443C00000EEC21026E000EED21036E02016A519A
:10444C000026000E01220222032200C016F201C037
:10445C0017F202C018F203C019F200C04EF301C0EB
:10446C004FF302C050F303C051F3040E0301526F1B
:10447C00B7EC05F001017A510001EA25006E000E3F
:10448C00EB21016E000EEC21026E000EED21036E8D
:10449C0002016A510026000E01220222032200C0F2
:1044AC0016F201C017F202C018F203C019F200C0D4
:1044BC004EF301C04FF302C050F303C051F3010E91
:1044CC000301526FB7EC05F001017A510001EA25A6
:1044DC00006E000EEB21016E000EEC21026E000E40
:1044EC00ED21036E02016A510026000E0122022208
:1044FC00032200C016F201C017F202C018F203C06A
:10450C0019F200C04EF301C04FF302C050F303C0C8
:10451C0051F3050E0301526FB7EC05F00001F46B7B
:10452C0001017A510001EA25006E000EEB21016EAB
:10453C00000EEC21026E000EED21036E020E002621
:10454C00000E01220222032202016A510026000EF3
:10455C0001220222032200C016F201C017F202C08F
:10456C0018F203C019F200C04EF301C04FF302C0A1
:10457C0050F303C051F30A0E0301526FB7EC05F070
:10458C0001016A510001EA25006E000EEB21016E5B
:10459C00000EEC21026E000EED21036E02016A5139
:1045AC000026000E01220222032200C016F201C0D6
:1045BC0017F202C018F203C019F200C04EF301C08A
:1045CC004FF302C050F303C051F3030E0301526FBB
:1045DC00B7EC05F0030E0001F26F01010B6B00014B
:1045EC00F16B070EEE6F010174A126D0000E7C1941
:1045FC0002E1000E7B1920E00001F551000A1CE1DC
:10460C00010EF56F1CEC0DF000C0F8F00E0EF66EFE
:10461C00750EF76E000EF86E340EE16E020EE26E41
:10462C00160E006E010E016ED6EC03F0340E4E6FBA
:10463C00020E4F6F4BEC07F00001F551010A5AE1E5
:10464C00010174B157D0000E7C1902E1000E7B19E8
:10465C0051E00001F851EA25006E000EEB21016ECD
:10466C00000EEC21026E000EED21036E00C016F25E
:10467C0001C017F202C018F203C019F200C04EF3C9
:10468C0001C04FF302C050F303C051F3090E0301F4
:10469C00526FB7EC05F00001F56B16C2F7F417C2B8
:1046AC00F8F418C2F9F419C2FAF40B0E0401FB6FFA
:1046BC00020EFC6FDEEC03F0240EF66E750EF76E38
:1046CC00000EF86E4A0EE16E020EE26E100E006ED7
:1046DC00010E016ED6EC03F04A0E03014E6F020E72
:1046EC004F6F4BEC07F00B0E03014E6F020E4F6F2A
:0646FC004BEC07F0120078
:10470200030E02016A6F839E01017251000A04E1E5
:104712000001A55301E141D10001A56B838E090E71
:1047220003014E6FF1EC07F0010E0001EA250301CF
:104732004E6F000E0001EB2103014F6F000E0001CE
:10474200EC210301506F000E0001ED210301516FB6
:104752000C0E526FB7EC05F002016A510001EA2516
:10476200006E000EEB21016E000EEC21026E000EB7
:10477200ED21036E00C016F201C017F202C018F25A
:1047820003C019F200C04EF301C04FF302C050F350
:1047920003C051F3010E0301526FB7EC05F016C2CC
:1047A2004EF317C24FF318C250F319C251F3050E5C
:1047B200526FB7EC05F00001F36B020EEA25006EB2
:1047C200000EEB21016E000EEC21026E000EED21B7
:1047D200036E02016A510026000E01220222032208
:1047E20000C016F201C017F202C018F203C019F29B
:1047F20000C04EF301C04FF302C050F303C051F3A7
:104802000A0E0301526FB7EC05F001016C51000171
:10481200EA25006E000EEB21016E000EEC21026E05
:10482200000EED21036E02016A510026000E0122E4
:104832000222032200C016F201C017F202C018F2CF
:1048420003C019F200C04EF301C04FF302C050F38F
:1048520003C051F3030E0301526FB7EC05F00101DF
:104862006951000AD8B48FD01D51020AD8A48BD046
:104872007A510001EA2503014E6F000E0001EB217F
:1048820003014F6F000E0001EC210301506F000E77
:104892000001ED210301516F02016A5103014E270C
:1048A200000E4F2350235123020E526FB7EC05F036
:1048B20001017A510001EA2503014E6F000E000149
:1048C200EB2103014F6F000E0001EC210301506F39
:1048D200000E0001ED210301516F02016A51030133
:1048E2004E27000E4F2350235123060E526FB7EC72
:1048F20005F00001F46B01017A510001EA25030180
:104902004E6F000E0001EB2103014F6F000E0001FC
:10491200EC210301506F000E0001ED210301516FE4
:10492200020E4E27000E4F235023512302016A51DB
:1049320003014E27000E4F23502351230B0E526FBB
:10494200B7EC05F0010169510001EA2503014E6F40
:10495200000E0001EB2103014F6F000E0001EC215C
:104962000301506F000E0001ED210301516F02019E
:104972006A5103014E27000E4F2350235123040E88
:10498200526FB7EC05F0030E0001A86F01010B6B2B
:104992000001F16BF56B080EEE6F090E03014E6F0D
:1049A200BBEC0DF00050010AD8A426D1090E030178
:1049B2004E6FF1EC07F002016A510001EA25006E28
:1049C200000EEB21016E000EEC21026E000EED21B5
:1049D200036E00C016F201C017F202C018F203C043
:1049E20019F200C04EF301C04FF302C050F303C0EE
:1049F20051F3010E0301526FB7EC05F016C24EF3EC
:104A020017C24FF318C250F319C251F3050E526F79
:104A1200B7EC05F00001F36B020EEA25006E000E02
:104A2200EB21016E000EEC21026E000EED21036EF1
:104A320002016A510026000E01220222032200C056
:104A420016F201C017F202C018F203C019F200C038
:104A52004EF301C04FF302C050F303C051F30A0EEC
:104A62000301526FB7EC05F001016B510001EA2519
:104A7200006E000EEB21016E000EEC21026E000EA4
:104A8200ED21036E02016A510026000E012202226C
:104A9200032200C016F201C017F202C018F203C0CE
:104AA20019F200C04EF301C04FF302C050F303C02D
:104AB20051F3030E0301526FB7EC05F001016A5185
:104AC200000AD8B48FD01D51020AD8A48BD07A51D3
:104AD2000001EA2503014E6F000E0001EB210301E4
:104AE2004F6F000E0001EC210301506F000E000118
:104AF200ED210301516F02016A5103014E27000E9D
:104B02004F2350235123020E526FB7EC05F00101DF
:104B12007A510001EA2503014E6F000E0001EB21DC
:104B220003014F6F000E0001EC210301506F000ED4
:104B32000001ED210301516F02016A5103014E2769
:104B4200000E4F2350235123060E526FB7EC05F08F
:104B52000001F46B01017A510001EA2503014E6F55
:104B6200000E0001EB2103014F6F000E0001EC214A
:104B72000301506F000E0001ED210301516F020E7F
:104B82004E27000E4F235023512302016A51030185
:104B92004E27000E4F23502351230B0E526FB7ECBA
:104BA20005F001016B510001EA2503014E6F000E71
:104BB2000001EB2103014F6F000E0001EC21030104
:104BC200506F000E0001ED210301516F02016A5185
:104BD20003014E27000E4F2350235123040E526F20
:104BE200B7EC05F0030E0001F26F01010B6B00013F
:104BF200F16BF56B070EEE6F010174A126D0000E6A
:104C02007C1902E1000E7B1920E00001F551000A37
:104C12001CE1010EF56F1CEC0DF000C0F8F0450E22
:104C2200F66E750EF76E000EF86E340EE16E020E21
:104C3200E26E160E006E010E016ED6EC03F0340E1B
:104C42004E6F020E4F6F4BEC07F00001F551010A57
:104C52005AE1010174B157D0000E7C1902E1000E35
:104C62007B1951E00001F851EA25006E000EEB219C
:104C7200016E000EEC21026E000EED21036E00C0EB
:104C820016F201C017F202C018F203C019F200C0F6
:104C92004EF301C04FF302C050F303C051F3090EAB
:104CA2000301526FB7EC05F00001F56B16C2F7F481
:104CB20017C2F8F418C2F9F419C2FAF40B0E04017F
:104CC200FB6F020EFC6FDEEC03F05B0EF66E750EF0
:104CD200F76E000EF86E4A0EE16E020EE26E100ED4
:104CE200006E010E016ED6EC03F04A0E03014E6F08
:104CF200020E4F6F4BEC07F00B0E03014E6F020ECC
:084D02004F6F4BEC07F01200AB
:104D0A00838E010E03014E6F4F6BEFEC0CF0020E17
:104D1A004E6F4F6BEFEC0CF0010172A10ED0839E27
:104D2A00010E03014E6FE2EC07F0020E03014E6F13
:0C4D3A00E2EC07F0010E0001EE6F120029
:104D4600030E0201346F839E01016E51020A04E1D3
:104D5600640E0001EE6FE96B0101725103081D6FCD
:104D66007251000AD8B4BBD2090E03014E6FF1ECA2
:104D760007F0838E010E0001EA2503014E6F000E37
:104D86000001EB2103014F6F000E0001EC2103012E
:104D9600506F000E0001ED210301516F0C0E526F92
:104DA600B7EC05F0020134510001EA25006E000E51
:104DB600EB21016E000EEC21026E000EED21036E5A
:104DC60000C016F201C017F202C018F203C019F2B1
:104DD60000C04EF301C04FF302C050F303C051F3BD
:104DE600010E0301526FB7EC05F001016D51000A87
:104DF60011E016C24EF317C24FF318C250F319C290
:104E060051F3070E0301526FB7EC05F0010E0001D6
:104E1600F36F0FD016C24EF317C24FF318C250F3FA
:104E260019C251F3050E0301526FB7EC05F00001EC
:104E3600F36B01016D510001EA25006E000EEB21B6
:104E4600016E000EEC21026E000EED21036E020EC5
:104E56000026000E012202220322020134510026FE
:104E6600000E01220222032200C016F201C017F230
:104E760002C018F203C019F200C04EF301C04FF38E
:104E860002C050F303C051F30A0E0301526FB7EC90
:104E960005F001016D510001EA25006E000EEB21BF
:104EA600016E000EEC21026E000EED21036E020172
:104EB60034510026000E01220222032200C016F2FF
:104EC60001C017F202C018F203C019F200C04EF377
:104ED60001C04FF302C050F303C051F3050E0301A6
:104EE600526FB7EC05F001017851000A30E06C51C1
:104EF6000001EA25006E000EEB21016E000EEC218A
:104F0600026E000EED21036E01017851005E000E67
:104F1600015A025A035A020134510026000E012298
:104F26000222032200C016F201C017F202C018F2D4
:104F360003C019F200C04EF301C04FF302C050F394
:104F460003C051F3070E0301526FB7EC05F00101E0
:104F56006C510001EA25006E000EEB21016E000E79
:104F6600EC21026E000EED21036E02013451002683
:104F7600000E01220222032200C016F201C017F21F
:104F860002C018F203C019F200C04EF301C04FF37D
:104F960002C050F303C051F3030E0301526FB7EC86
:104FA60005F001016951000AD8B45DD11D51020A0C
:104FB600D8A459D17A510001EA25006E000EEB21E2
:104FC600016E000EEC21026E000EED21036E020151
:104FD60034510026000E01220222032200C016F2DE
:104FE60001C017F202C018F203C019F200C04EF356
:104FF60001C04FF302C050F303C051F3020E030188
:10500600526FB7EC05F001016D51000A2DE07A519F
:105016000001EA25006E000EEB21016E000EEC2168
:10502600026E000EED21036E020134510026000EC1
:1050360001220222032200C016F201C017F202C0AA
:1050460018F203C019F200C04EF301C04FF302C0BC
:1050560050F303C051F3080E0301526FB7EC05F08D
:10506600010E0001F46F2CD001017A510001EA25EE
:10507600006E000EEB21016E000EEC21026E000E9A
:10508600ED21036E020134510026000E0122022298
:10509600032200C016F201C017F202C018F203C0C4
:1050A60019F200C04EF301C04FF302C050F303C023
:1050B60051F3060E0301526FB7EC05F00001F46BD5
:1050C60001017A510001EA25006E000EEB21016E06
:1050D600000EEC21026E000EED21036E01016D51F2
:1050E6000026000E012202220322020E0026000ED6
:1050F600012202220322020134510026000E01225F
:105106000222032200C016F201C017F202C018F2F2
:1051160003C019F200C04EF301C04FF302C050F3B2
:1051260003C051F30B0E0301526FB7EC05F00101FA
:105136007A510001EA25006E000EEB21016E000E89
:10514600EC21026E000EED21036E01016D51002669
:10515600000E012202220322020134510026000E13
:1051660001220222032200C016F201C017F202C079
:1051760018F203C019F200C04EF301C04FF302C08B
:1051860050F303C051F3060E0301526FB7EC05F05E
:1051960001017851000A36E07A510001EA25006ED5
:1051A600000EEB21016E000EEC21026E000EED21C9
:1051B600036E010169510026000E0122022203221C
:1051C6007851005E000E015A025A035A0201345108
:1051D6000026000E01220222032200C016F201C0A0
:1051E60017F202C018F203C019F200C04EF301C054
:1051F6004FF302C050F303C051F3080E0301526F80
:10520600B7EC05F0010169510001EA25006E000EB8
:10521600EB21016E000EEC21026E000EED21036EF5
:1052260001017A510026000E012202220322020108
:1052360034510026000E01220222032200C016F27B
:1052460001C017F202C018F203C019F200C04EF3F3
:1052560001C04FF302C050F303C051F3040E030123
:10526600526FB7EC05F0000E01017C1902E1000E49
:105276007B192BE07B510001EA25006E01017C5170
:105286000001EB21016E000EEC21026E000EED21F5
:10529600036E020134510026000E0122022203226F
:1052A60000C016F201C017F202C018F203C019F2CC
:1052B60000C04EF301C04FF302C050F303C051F3D8
:1052C600090E0301526FB7EC05F0030E0001A86F3B
:1052D60001010B6B0001F16B030EEE6FF56B120013
:1052E60083B606D00001DF51140801E3DF2B02D09C
:1052F6000001DF6B140EDF5D03E3010E006E12008A
:04530600006A120027
:10530A00838E010E03014E6FBBEC0DF000524DE08F
:10531A00010E03014E6F010E4F6FEFEC0CF0530EAE
:10532A000201346F330E356F200E366F4D0E376F14
:10533A006F0E386F740E396F6F0E3A6F720E3B6FC5
:10534A00310E3C6F530E3D6F740E3E6F610E3F6F10
:10535A00720E406F740E416F426B340E03014E6F32
:10536A00020E4F6F4BEC07F0839C0C0E0501036F86
:10537A00010E046F830E056F000E066F100E076F85
:10538A00000E086FF8EC00F0F90E036F000E046FC0
:10539A00CD0E056F000E066F100E076F000E086F18
:1053AA00F8EC00F0010E01010A6F020E03014E6FC4
:1053BA00BBEC0DF000522DE0020E03014E6F010E00
:1053CA004F6FEFEC0CF0530E0201436F330E446F34
:1053DA00200E456F4D0E466F6F0E476F740E486F65
:1053EA006F0E496F720E4A6F320E4B6F530E4C6F2F
:1053FA00740E4D6F610E4E6F720E4F6F740E506FBA
:10540A00516B430E03014E6F020E4F6F4BEC07F0C8
:10541A00839C050E03014E6FBBEC0DF0005230E089
:10542A00010E03014E6FBBC04FF3B9EC0CF0010142
:10543A000B6B0001F36B530E0201526F330E536F65
:10544A00200E546F4D0E556F6F0E566F740E576FB8
:10545A006F0E586F720E596F310E5A6F200E5B6FB6
:10546A00460E5C6F610E5D6F730E5E6F740E5F6F3A
:10547A00606B520E03014E6F020E4F6F4BEC07F03A
:10548A00070E03014E6FBBEC0DF000522EE0030134
:10549A004E6BBBC04FF3B9EC0CF0010E0001F36F79
:1054AA00530E0201616F330E626F200E636F4D0E51
:1054BA00646F6F0E656F740E666F6F0E676F720E94
:1054CA00686F310E696F200E6A6F530E6B6F6C0E28
:1054DA006C6F6F0E6D6F770E6E6F6F6B610E0301DF
:1054EA004E6F020E4F6F4BEC07F0060E03014E6F24
:1054FA00BBEC0DF000522FE0A9C04EF3010E0301E0
:10550A004F6FB9EC0CF00001F16BF46B530E020112
:10551A00706F330E716F200E726F4D0E736F6F0EB8
:10552A00746F740E756F6F0E766F720E776F320E20
:10553A00786F200E796F460E7A6F610E7B6F730E4D
:10554A007C6F740E7D6F7E6B700E03014E6F020EC0
:10555A004F6F4BEC07F0080E03014E6FBBEC0DF0DA
:10556A0000522EE0A9C04EF303014F6BB9EC0CF0C8
:10557A00010E0001F46F530E02017F6F330E806F2C
:10558A00200E816F4D0E826F6F0E836F740E846FC3
:10559A006F0E856F720E866F320E876F200E886FC0
:1055AA00530E896F6C0E8A6F6F0E8B6F770E8C6F2E
:1055BA008D6B7F0E03014E6F020E4F6F4BEC07F09F
:1055CA000A0E03014E6FBBEC0DF000521FE0010EF4
:1055DA0001010B6F010E03014E6F0BEC0DF02B0E48
:1055EA00F66E700EF76E000EF86E8E0EE16E020EFB
:1055FA00E26E160E006E010E016ED6EC03F08E0EF0
:10560A0003014E6F020E4F6F4BEC07F00B0E0301B6
:10561A004E6FBBEC0DF000521FE0010E0001F16F5E
:10562A00020E03014E6F0BEC0DF0410EF66E700E7A
:10563A00F76E000EF86EA40EE16E020EE26E160E02
:10564A00006E010E016ED6EC03F0A40E03014E6F3C
:10565A00020E4F6F4BEC07F0030E03014E6FBBECCB
:10566A000DF000522CE00001A891010E03014E6FCB
:10567A00E2EC07F0530E0201BA6F330EBB6F200E35
:10568A00BC6F4D0EBD6F6F0EBE6F740EBF6F6F0E87
:10569A00C06F720EC16F310EC26F200EC36F530EF0
:1056AA00C46F740EC56F6F0EC66F700EC76FC86B6E
:1056BA00BA0E03014E6F020E4F6F4BEC07F0040E49
:1056CA0003014E6FBBEC0DF000522CE00001A893D1
:1056DA00020E03014E6FE2EC07F0530E0201C96F8E
:1056EA00330ECA6F200ECB6F4D0ECC6F6F0ECD6F7F
:1056FA00740ECE6F6F0ECF6F720ED06F320ED16FE7
:10570A00200ED26F530ED36F740ED46F6F0ED56FF7
:10571A00700ED66FD76BC90E03014E6F020E4F6F14
:10572A004BEC07F00C0E03014E6FBBEC0DF0005270
:10573A0001E0838C01010B51010A53E173A151D09D
:10574A000001F351000A4DE1010E03014E6FE2EC34
:10575A0007F0020E03014E6FE2EC07F0050E00019E
:10576A00EE6F01010B6B0001F16B750EF66E700E98
:10577A00F76E000EF86ED80EE16E020EE26E140E8F
:10578A00006E010E016ED6EC03F0D80E03014E6FC7
:10579A00020E4F6F4BEC07F0090E03014E6FF1EC4E
:1057AA0007F00C0E0501036F010E046FAA0E056FB8
:1057BA00000E066F100E076F000E086FF8EC00F06F
:1057CA00F90E036F000E046F4D0E056F000E066F83
:1057DA00100E076F000E086FF8EC00F0010E0101C1
:1057EA000A6F0001F151010A54E1010173A351D07A
:1057FA000001F451000A4DE1010E03014E6FE2EC83
:10580A0007F0020E03014E6FE2EC07F0050E0001ED
:10581A00EE6F01010B6B0001F16B890EF66E700ED3
:10582A00F76E000EF86EEC0EE16E020EE26E140ECA
:10583A00006E010E016ED6EC03F0EC0E03014E6F02
:10584A00020E4F6F4BEC07F0090E03014E6FF1EC9D
:10585A0007F00C0E0501036F010E046FAA0E056F07
:10586A00000E066F100E076F000E086FF8EC00F0BE
:10587A00F90E036F000E046F4D0E056F000E066FD2
:10588A00100E076F000E086FF8EC00F0010E010110
:10589A000A6F01016951000A04E01D51010A01E081
:1058AA0002D00001A893010174A14ED01F534CE00D
:1058BA00010E03014E6FE2EC07F0020E03014E6F78
:1058CA00E2EC07F001010B6B0001F16B050EEE6FC4
:1058DA009D0EF66E700EF76E000EF86E000EE16EFB
:1058EA00030EE26E110E006E010E016ED6EC03F08D
:1058FA00000E03014E6F030E4F6F4BEC07F0090EBB
:10590A0003014E6FF1EC07F00C0E0501036F010E57
:10591A00046FAA0E056F000E066F100E076F000EB9
:10592A00086FF8EC00F0F90E036F000E046F5E0EBC
:10593A00056F000E066F100E076F000E086FF8EC69
:10594A0000F0010E01010A6F7251000A4CE0010ECB
:10595A0003014E6FE2EC07F0020E03014E6FE2EC18
:10596A0007F001010B6B0001F16B050EEE6FAE0E35
:10597A00F66E700EF76E000EF86E110EE16E030EE3
:10598A00E26E110E006E010E016ED6EC03F0110EDE
:10599A0003014E6F030E4F6F4BEC07F0090E030124
:1059AA004E6FF1EC07F00C0E0501036F010E046F48
:1059BA00AA0E056F000E066F100E076F000E086F15
:1059CA00F8EC00F0F90E036F000E046F1A0E056F63
:1059DA00000E066F100E076F000E086FF8EC00F04D
:1059EA00010E01010A6F7551010A4EE11E534CE086
:1059FA00010E03014E6FE2EC07F0020E03014E6F37
:105A0A00E2EC07F001010B6B0001F16B050EEE6F82
:105A1A00BF0EF66E700EF76E000EF86E220EE16E75
:105A2A00030EE26E170E006E010E016ED6EC03F045
:105A3A00220E03014E6F030E4F6F4BEC07F0090E57
:105A4A0003014E6FF1EC07F00C0E0501036F010E16
:105A5A00046FAA0E056F000E066F100E076F000E78
