:0400000040EF2BF0B2
:020006001200E6
:1000080000C019F001C018F004C017F008C016F0BD
:100018000CC015F0F2A42AD05B2A8186010E436E2B
:100028004050FF0A03E1406A416A01D0402A0101B9
:100038000751FF0A03E1076B5A6A01D0072B190E13
:100048005B5C0FE35B6A010E1C26000E1D221E225C
:100058001F222252010ED8A4000E226E8196010E94
:10006800426EF30ED76ECA0ED66EF294F0A016D07A
:100078004150000A03E1412A406A01D0412A050E95
:10008800415C0BE3130E405C07E34050150804E3A2
:10009800010E3F6E416A01D0416AF090F0A218D07B
:1000A8005A50000A04E101015A2A076B01D05A2A62
:1000B800050E5A5C0CE30101130E075D07E30751B7
:1000C800150804E3010E3E6E5A6A01D05A6AF0928E
:1000D800F2A22ED0602A6050FF0A01E1606A030E86
:1000E800046E60C000F066D808C000F00050010A35
:1000F8000EE15E5205E05F5202E0828201D08292F8
:10010800275205E0615202E0828001D08290030EFE
:10011800046E60C000F04ED808C000F00050000A1D
:1001280006E15E5201E08282275201E08280F2926B
:1001380019C000F018C001F017C004F016C008F08C
:0601480015C00CF01100CF
:10014E003BC4C9FFC7B002D00000FCD7C9CF00F036
:02015E0012008D
:0E016000ACB202D00000FCD73BC4ADFF1200D1
:10016E00086A096A100E0C6E0134083609360450FE
:10017E00085E0550D8A0053C095ED8B007D00450E3
:10018E0008260550D8B0053C0926D8900036013611
:06019E000C2EEAD712004E
:1001A400F250026EF29E0500FF6A0150FE6E00508E
:0801B400FD6E02BEF28E120086
:1001BC00086A080E0C6E003408360450085ED8B07D
:0E01CC0002D00826D89000360C2EF5D712006F
:1001DA000401376B030E375D0AE237513525E16EAC
:1001EA00000E3621E26E200EE66E372BF3D737511A
:1001FA003525E16E000E3621E26EE66A3707375181
:10020A003525386F000E3621396F0A0E046E34C454
:10021A0000F0CFDF08C000F0300E002638C4E1FF3E
:10022A0039C4E2FF00C0E6FF0A0E046E34C400F0CF
:10023A00C0DF00C034F40050000A01E102D03707E1
:04024A00DED71200E9
:10024E0036C404F037C405F034C402F035C403F0EC
:10025E0038C400F039C401F0010E0401385F000EFD
:10026E00395B005001100FE004C0E9FF05C0EAFF42
:10027E0002C0E1FF03C0E2FFEECFE6FF024A032A0F
:10028E00044A052AE5D734C400F035C401F0120043
:0A029E00030E0D6E0D2EFED71200A8
:1002A8000B6A0A6A096A086A0E6A03340836045037
:1002B800085E0550D8A0053C095E0650D8A0063C4B
:1002C8000A5E0750D8A0073C0B5EE86AD8A0010E6A
:1002D8000E5E0336070E0C6E0334083609360A36EE
:1002E8000B360E36045003A012D0085E0550D8A075
:1002F800053C095E0650D8A0063C0A5E0750D8A007
:10030800073C0B5EE86AD8A0010E0E5E11D00826E5
:100318000550D8B0053C09260650D8B0063C0A2638
:100328000750D8B0073C0B26E86AD8B0010E0E2655
:1003380003360C2ED1D70234083609360A360B3666
:100348000E36045003A012D0085E0550D8A0053C14
:10035800095E0650D8A0063C0A5E0750D8A0073CA4
:100368000B5EE86AD8A0010E0E5E11D00826055073
:10037800D8B0053C09260650D8B0063C0A260750D6
:10038800D8B0073C0B26E86AD8B0010E0E26023614
:10039800070E0C6E0234083609360A360B360E364E
:1003A800045002A012D0085E0550D8A0053C095E92
:1003B8000650D8A0063C0A5E0750D8A0073C0B5E42
:1003C800E86AD8A0010E0E5E11D008260550D8B0F4
:1003D800053C09260650D8B0063C0A260750D8B076
:1003E800073C0B26E86AD8B0010E0E2602360C2E02
:1003F800D1D70134083609360A360B360E36045082
:1004080002A012D0085E0550D8A0053C095E06502F
:10041800D8A0063C0A5E0750D8A0073C0B5EE86AE5
:10042800D8A0010E0E5E11D008260550D8B0053CA4
:1004380009260650D8B0063C0A260750D8B0073C13
:100448000B26E86AD8B0010E0E260136070E0C6E90
:100458000134083609360A360B360E36045001A028
:1004680012D0085E0550D8A0053C095E0650D8A0F9
:10047800063C0A5E0750D8A0073C0B5EE86AD8A085
:10048800010E0E5E11D008260550D8B0053C09268D
:100498000650D8B0063C0A260750D8B0073C0B26B1
:1004A800E86AD8B0010E0E2601360C2ED1D70034DA
:1004B800083609360A360B360E36045001A012D01B
:1004C800085E0550D8A0053C095E0650D8A0063C39
:1004D8000A5E0750D8A0073C0B5EE86AD8A0010E58
:1004E8000E5E11D008260550D8B0053C09260650E6
:1004F800D8B0063C0A260750D8B0073C0B26E86A55
:10050800D8B0010E0E260036070E0C6E00340836E1
:1005180009360A360B360E36045000A012D0085E93
:100528000550D8A0053C095E0650D8A0063C0A5ED6
:100538000750D8A0073C0B5EE86AD8A0010E0E5EF3
:1005480011D008260550D8B0053C09260650D8B069
:10055800063C0A260750D8B0073C0B26E86AD8B0F4
:10056800010E0E2600360C2ED1D700B00ED0045046
:1005780008260550D8B0053C09260650D8B0063CD8
:0C0588000A260750D8B0073C0B261200D2
:0C059400A60E0D6E0D2EFED7000012000A
:1005A00025C1E1FF26C1E2FF34C4E6FF23C100F00C
:0805B00024C101F0F7DD120087
:1005B8004ED00101096B0A6BFF0E086F67D001016D
:1005C800900E096F010E0A6FC80E086F5FD0010107
:1005D800C20E096F010E0A6F960E086F57D00101FF
:1005E800F40E096F010E0A6F640E086F4FD00101F7
:1005F800260E096F020E0A6F500E086F47D00101D0
:10060800580E096F020E0A6F960E086F3FD001014F
:10061800580E096F020E0A6F640E086F37D0010179
:10062800580E096F020E0A6F320E086F2FD00101A3
:10063800BC0E096F020E0A6F640E086F27D0010105
:10064800BC0E096F020E0A6F320E086F1FD004012C
:100658003451000AAEE03451010AB1E03451020AC3
:10066800B6E03451030ABBE03451040AC0E0345107
:10067800050AC5E03451060ACAE03451070ACFE03A
:0E0688003451080AD4E03451090AD9E01200B6
:10069600A6A202D00000FCD7A69C34C4A9FF35C48C
:1006A600A8FFA69EA684F2CF00F0F29E550EA76E76
:1006B600AA0EA76EA68200BE02D0F29E01D0F28ECE
:0406C600A6941200E4
:1006CA00480E0C6E6C0E0D6E0D2EFED70C2EFCD73E
:0406DA00000012000A
:1006DE000401386B050E385D0AE238513625E16E9D
:1006EE00000E3721E26E200EE66E382BF3D738510E
:1006FE003625E16E000E3721E26EE66A3807385174
:10070E003625396F000E37213A6F0A0E046E000E31
:10071E00056E34C400F035C401F022DD08C000F0CF
:10072E0009C001F0300E002639C4E1FF3AC4E2FFE1
:10073E0000C0E6FF0A0E046E000E056E34C400F013
:10074E0035C401F00DDD00C034F401C035F4000EE7
:10075E00011802E1000E001801E102D03807CFD7D0
:02076E00120077
:100770000B6A0A6A096A00500402F4CF09F0F3CF49
:1007800008F001500502F4CF0BF0F3CF0AF000504F
:100790000502F3500926F4500A22E86A0B220150A0
:1007A0000402F3500926F4500A22E86A0B2208C01A
:1007B00000F009C001F00AC002F00BC003F0120003
:1007C00004012E6B0A0E2E5D0AE22E512C25E16EDD
:1007D000000E2D21E26E300EE66E2E2BF3D72E5139
:1007E0002C25E16E000E2D21E26EE66A2E07000E2A
:1007F000006E2B1908E100502A1905E10050291953
:1008000002E12851000A3EE02E512C252F6F000EE8
:100810002D21306F0A0E046E000E056E066E076EF7
:1008200028C400F029C401F02AC402F02BC403F04C
:100830003BDD08C000F009C001F00AC002F00BC0A7
:1008400003F0300E00262FC4E1FF30C4E2FF00C0E9
:10085000E6FF2E070A0E046E000E056E066E076E8A
:1008600028C400F029C401F02AC402F02BC403F00C
:100870001BDD00C028F401C029F402C02AF403C023
:060880002BF4B5D71200B5
:1008860028C434F429C435F4040135333433359F90
:100896002AC436F42BC437F41FDF010E2815016E67
:1008A60029C402F0000E0216000E021802E1010E23
:1008B600011817E1050E2A25346F000E2B21356F1E
:1008C6002E0E2C6F350E2D6F730E2E6F2F6B2C0E7A
:1008D600366F040E376F040E386F000E396FB4DCB6
:1008E60016D0050E2A25346F000E2B21356F730E98
:1008F600306F200E316F200E326F336B300E366F35
:10090600040E376F040E386F000E396F9DDC12002F
:1009160004012B6B28C4E9FF29C4EAFFEECF2AF4B1
:100926002A51000A0EE02AC434F437DE04012B2BC8
:100936002B512825E96E000E2921EA6EEECF2AF406
:04094600EFD71200D5
:0A094A00490E0D6E0D2EFED71200AF
:10095400A69C28C4A9FFA69EA680A8CF00F01200DA
:10096400040128BF02D0819E01D0818E28BD02D00F
:10097400819C01D0818C28BB02D0819A01D0818ACC
:1009840028B902D0819801D0818801010BB102D02D
:10099400848401D08494848280DC8492040128B706
:1009A40002D0819E01D0818E28B502D0819C01D0D5
:1009B400818C28B302D0819A01D0818A28B102D0D7
:1009C400819801D0818801010BB102D0848401D0C7
:1009D4008494848262DC84920BA102D074DE01D000
:0409E400D7DD120049
:1009E800010E0401346F18C135F451DE020E040102
:1009F800346F0EC135F44BDE030E0401346F0DC1A4
:100A080035F445DE040E0401346F0CC135F43FDEC5
:100A1800050E0401346F11C135F439DE060E0401E8
:100A2800346F10C135F433DE070E0401346F0FC183
:100A380035F42DDE080E0401346F21C135F427DEAC
:100A4800090E0401346F2CC135F421DE0A0E0401AD
:100A5800346F2EC135F41BDE0B0E0401346F2DC12B
:100A680035F415DE0C0E0401346F62C035F40FDE68
:100A7800625009080401346F9BDD0D0E0401346FC8
:100A88002BC135F404DE0E0E0401346F2FC135F48A
:100A9800FEDD0F0E0401346F30C135F4F8DD100EA1
:0C0AA8000401346F22C135F4F2DD1200AD
:100AB40004012B6B28C4E9FF29C4EAFFEECF2AF412
:100AC4002A51000A0FE02AC43BF4B0EC00F0040100
:100AD4002B2B2B512825E96E000E2921EA6EEECF2F
:060AE4002AF4EED7120017
:100AEA000900F5CFE6FF0006FBE10106F9E1120075
:100AFA0028C434F404013433349F29C435F42AC495
:100B0A0036F4EDEC00F0010E2815016E0150010AD1
:100B1A0018E1030E2925346F000E2A21356F2E0E97
:100B2A002B6F350E2C6F730E2D6F2E6B2B0E366FAF
:100B3A00040E376F040E386F000E396F27EC01F080
:100B4A0017D0030E2925346F000E2A21356F730E34
:100B5A002F6F200E306F200E316F326B2F0E366FD3
:100B6A00040E376F040E386F000E396F27EC01F050
:020B7A00120067
:100B7C000001FF5102017F1905E10001FF6B010E1D
:100B8C00006E12000101005102017F1905E1010103
:100B9C00006B010E006E12000101015102017F1960
:100BAC0005E10101016B010E006E1200006A1200DA
:100BBC0002017F51010A03E1456A0101039102011F
:0E0BCC007F51020A03E1466A01010393120001
:100BDA000201806B140E805D41E280C200F0000EBB
:100BEA00016E070E046E000E056EBDDD720E002644
:100BFA00000E0122050E0024E96E000E0120EA6EA5
:100C0A00EE50000A29E180C200F0000E016E070EC4
:100C1A00046E000E056EA7DD720E0024E96E000E4A
:100C2A000120EA6EEECF01F001507F1915E080C273
:100C3A0000F0000E016E070E046E000E056E93DDC5
:100C4A00720E0026000E0122050E0024E16E000E2F
:0E0C5A000120E26E010EE66E802BBCD7120068
:100C6800C26AC00EC212C18CC18E7FC200F00036AB
:100C7800009000360090003600900050C212C280EA
:100C880060DEC284C2A401D0FDD7C4CF01F0006ADF
:0C0C9800C3500012000E0112C2901200A6
:100CA40002017F51010A08E1010E5E6E80B102D09B
:100CB400829801D0828882827F51020A08E1010E63
:100CC400276E80B102D0829601D082868280120083
:100CD400480E0401346F000E356FE40EF66E560EA6
:100CE400F76E000EF86E7F0EE16E020EE26E110ECC
:100CF400006E010E016EF7DE7F0E366F020E376F47
:100D0400100E386F000E396F27EC01F02050000AE6
:100D14005FE12D0E346F000E356FF50EF66E560E34
:100D2400F76E000EF86E900EE16E020EE26E110E7A
:100D3400006E010E016ED7DE900E366F020E376F15
:100D4400100E386F000E396F27EC01F0010E596E4A
:100D54002150000A1DE1480E346F000E356F060E57
:100D6400F66E570EF76E000EF86EA10EE16E020ECF
:100D7400E26E110E006E010E016EB5DEA10E366F2D
:100D8400020E376F100E386F000E396F27EC01F02A
:100D94002150010A1DE1480E346F000E356F170E05
:100DA400F66E570EF76E000EF86EB20EE16E020E7E
:100DB400E26E110E006E010E016E95DEB20E366FFC
:100DC400020E376F100E386F000E396F27EC01F0EA
:100DD4002050010A26E12D0E346F000E356F280EC7
:100DE400F66E570EF76E000EF86EC30EE16E020E2D
:100DF400E26E110E006E010E016E75DEC30E366FCB
:100E0400020E376F100E386F000E396F27EC01F0A9
:100E1400010E596E18C128F44E0E296F000E2A6F68
:100E24006ADE2050020A26E12D0E346F000E356F63
:100E3400390EF66E570EF76E000EF86ED40EE16E94
:100E4400020EE26E110E006E010E016E4CDED40E27
:100E5400366F020E376F100E386F000E396F27ECA5
:100E640001F0010E596E0EC128F44E0E296F000ECA
:100E74002A6F41DE2050030A26E12D0E346F000E46
:100E8400356F4A0EF66E570EF76E000EF86EE50ECD
:100E9400E16E020EE26E110E006E010E016E23DE93
:100EA400E50E366F020E376F100E386F000E396F75
:100EB40027EC01F0010E596E0DC128F44E0E296F76
:100EC400000E2A6F18DE2050040A26E12D0E346F1E
:100ED400000E356F5B0EF66E570EF76E000EF86E51
:100EE400F60EE16E020EE26E110E006E010E016E40
:100EF400FADDF60E366F020E376F100E386F000EE5
:100F0400396F27EC01F0010E596E0CC128F44E0E16
:100F1400296F000E2A6FEFDD2050050A26E12D0E01
:100F2400346F000E356F6C0EF66E570EF76E000EB2
:100F3400F86E070EE16E030EE26E110E006E010EE6
:100F4400016ED1DD070E366F030E376F100E386F4A
:100F5400000E396F27EC01F0010E596E10C128F410
:100F64004E0E296F000E2A6FC6DD2050060A26E1B8
:100F74002D0E346F000E356F7D0EF66E570EF76E24
:100F8400000EF86E180EE16E030EE26E110E006E86
:100F9400010E016EA8DD180E366F030E376F100EAA
:100FA400386F000E396F27EC01F0010E596E0FC136
:100FB40028F44E0E296F000E2A6F9DDD2050070A7B
:100FC40026E12D0E346F000E356F8E0EF66E570E21
:100FD400F76E000EF86E290EE16E030EE26E110E2E
:100FE400006E010E016E7FDD290E366F030E376F22
:100FF400100E386F000E396F27EC01F0010E596E98
:1010040021C128F44E0E296F000E2A6F74DD205082
:10101400080A26E12D0E346F000E356F9F0EF66E12
:10102400570EF76E000EF86E3A0EE16E030EE26E86
:10103400110E006E010E016E56DD3A0E366F030E70
:10104400376F100E386F000E396F27EC01F0010E68
:10105400596E2CC128F44E0E296F000E2A6F4BDDF9
:101064002050090A29E12D0E346F000E356FB00EA1
:10107400F66E570EF76E000EF86E4B0EE16E030E11
:10108400E26E110E006E010E016E2DDD4B0E366FF9
:10109400030E376F100E386F000E396F27EC01F016
:1010A400010E596E62C034F44E0E356F000E366F69
:1010B400EDEC00F0200E516E20500A0A26E12D0EB0
:1010C400346F000E356FC10EF66E570EF76E000EBC
:1010D400F86E5C0EE16E030EE26E110E006E010EF0
:1010E400016E01DD5C0E366F030E376F100E386F24
:1010F400000E396F27EC01F0010E596E11C128F46E
:101104004E0E296F000E2A6FF6DC20500B0A29E1DF
:101114002D0E346F000E356FD20EF66E570EF76E2D
:10112400000EF86E6D0EE16E030EE26E110E006E8F
:10113400010E016ED8DC6D0E366F030E376F100E84
:10114400386F000E396F27EC01F0010E596E2DC176
:1011540028F42EC129F44C0E2A6F000E2B6F43EC99
:1011640004F020500C0A1FE12D0E346F000E356F71
:10117400E30EF66E570EF76E000EF86E7E0EE16EFD
:10118400030EE26E110E006E010E016EACDC7E0EDB
:10119400366F030E376F100E386F000E396F27EC61
:1011A40001F0010E596E20500D0A66E12D0E346FC8
:1011B400000E356FF40EF66E570EF76E000EF86ED5
:1011C4008F0EE16E030EE26E110E006E010E016EC3
:1011D4008ADC8F0E366F030E376F100E386F000ED9
:1011E400396F27EC01F0010E596E01013051000AEC
:1011F40021E14E0E0401346F000E356F4E0E0301D3
:10120400A06F6F0EA16F200EA26F200EA36F200E91
:10121400A46F200EA56F200EA66FA76BA00E04016D
:10122400366F030E376F070E386F000E396F27ECD9
:1012340001F022D004014E0E346F000E356F590EAA
:101244000301A86F650EA96F730EAA6F200EAB6F12
:10125400200EAC6F200EAD6F200EAE6F200EAF6F60
:10126400B06BA80E0401366F030E376F080E386F8B
:10127400000E396F27EC01F020500E0A66E12D0EA6
:10128400346F000E356F160EF66E580EF76E000EA4
:10129400F86EB10EE16E030EE26E110E006E010ED9
:1012A400016E21DCB10E366F030E376F100E386FEE
:1012B400000E396F27EC01F0010E596E0101225125
:1012C400000A21E14E0E0401346F000E356F4E0EFC
:1012D4000301C26F6F0EC36F200EC46F200EC56F63
:1012E400200EC66F200EC76F200EC86FC96BC20ECA
:1012F4000401366F030E376F070E386F000E396F17
:1013040027EC01F022D004014E0E346F000E356F2D
:10131400590E0301CA6F650ECB6F730ECC6F200E8E
:10132400CD6F200ECE6F200ECF6F200ED06F200E0B
:10133400D16FD26BCA0E0401366F030E376F080EDD
:10134400386F000E396F27EC01F020500F0A67E167
:101354002D0E346F000E356F380EF66E580EF76E84
:10136400000EF86ED30EE16E030EE26E110E006EE7
:10137400010E016E75EC05F0D30E366F030E376F58
:10138400100E386F000E396F27EC01F0010E596E04
:1013940001012F51000A21E14E0E0401346F000EA9
:1013A400356F4E0E0301E46F6F0EE56F200EE66F8E
:1013B400200EE76F200EE86F200EE96F200EEA6F13
:1013C400EB6BE40E0401366F030E376F070E386FB4
:1013D400000E396F27EC01F022D004014E0E346F59
:1013E400000E356F590E0301EC6F650EED6F730E31
:1013F400EE6F200EEF6F200EF06F200EF16F200EB7
:10140400F26F200EF36FF46BEC0E0401366F030ED3
:10141400376F080E386F000E396F27EC01F020503B
:10142400100A28E12D0E346F000E356F5A0EF66E39
:10143400580EF76E000EF86EF50EE16E030EE26EB6
:10144400110E006E010E016E75EC05F0F50E366F8F
:10145400030E376F100E386F000E396F27EC01F052
:10146400010E596E2BC128F44E0E296F000E2A6FFF
:101474007DEC05F02050110A20E12D0E346F000E92
:10148400356F6B0EF66E580EF76E000EF86E060E84
:10149400E16E040EE26E110E006E010E016E75EC2B
:1014A40005F0060E366F040E376F100E386F000EFF
:1014B400396F27EC01F0010E596E2050120A20E119
:1014C4002D0E346F000E356F7C0EF66E580EF76ECF
:1014D400000EF86E170EE16E040EE26E110E006E31
:1014E400010E016E75EC05F0170E366F040E376FA2
:1014F400100E386F000E396F27EC01F0010E596E93
:06150400650E2B6E1200C3
:10150A00140E0101186F140E0D6F140E0E6F140EC7
:10151A000C6F050E626E040E0401346FDCEC02F0EF
:10152A000A0E01010F6F040E106F0A0E2C6F040EC3
:10153A00216F0C0E116F2D6B2E6B2F6B306B226B84
:08154A002B6BF4EC04F012001D
:1015520002017F51000A04E08051000A01E002D03A
:10156200F28801D0F2987FC25FF080C261F012006F
:1015720002017F51010A02E15E6A82927F51020AF0
:0815820002E1276A82901200C9
:10158A001CC028F41DC029F41EC02AF41FC02BF465
:10159A00810E04012C6F020E2D6FE0EC03F0810E18
:1015AA00286F020E296F8BEC04F03A0E02018C6F41
:1015BA00200E8D6F8E6B8C0E0401286F020E296F20
:1015CA005AEC05F07FC228F480C229F45AEC05F0DF
:1015DA000A0E3B6FB0EC00F00D0E04013B6FB0EC4D
:0415EA0000F01200FB
:1015EE000201846B140E845D72E284C200F0000E60
:1015FE00016E070E046E000E056EB8EC03F0720E4F
:10160E000026000E0122050E0024E96E000E0120B8
:10161E00EA6EEE50010A59E184C200F0000E016E2E
:10162E00070E046E000E056EB8EC03F0720E002469
:10163E00E16E000E0120E26E83C2E6FF84C200F06E
:10164E00000E016E070E046E000E056EB8EC03F070
:10165E00720E0026000E0122010E0024E16E000E15
:10166E000120E26E7FC2E6FF80C2E6FF81C2E6FF86
:10167E0082C2E6FF84C200F0000E016E070E046EF9
:10168E00000E056EB8EC03F0720E0026000E01225D
:10169E00050E0024E16E000E0120E26EE66A84C2A1
:1016AE0000F0000E016E070E046E000E056EB8EC13
:1016BE0003F0720E0026000E0122060E0024E16ECB
:1016CE00000E0120E26EE66A02D0842B8BD7120048
:1016DE0002017F6B140E7F5D60E27FC200F0000E90
:1016EE00016E070E046E000E056EB8EC03F0720E5E
:1016FE000026000E0122050E0024E96E000E0120C8
:10170E00EA6EEE50000A31E17FC200F0000E016E6B
:10171E00070E046E000E056EB8EC03F0720E002478
:10172E00E96E000E0120EA6EEECF01F00150090ABB
:10173E001CE17FC200F0000E016E070E046E000E5B
:10174E00056EB8EC03F0720E0026000E0122010E9B
:10175E000024E96E000E0120EA6EEECF80F2EECF8D
:10176E0081F2EECF82F2EECF83F27FC200F0000E56
:10177E00016E070E046E000E056EB8EC03F0720ECD
:10178E000026000E0122050E0024E16E000E01203F
:10179E00E26E010EE66E7F2B9DD71C50805D006EB3
:0617AE0000C07FF21200F2
:1017B400010E0401286FAAEC04F000C018F1020E17
:1017C400286FAAEC04F000C00EF1030E286FAAECF7
:1017D40004F000C00DF1040E286FAAEC04F000C060
:1017E4000CF1050E286FAAEC04F000C011F1060EEE
:1017F400286FAAEC04F000C010F1070E286FAAECC1
:1018040004F000C00FF1080E286FAAEC04F000C029
:1018140021F1090E286FAAEC04F000C02CF10A0E85
:10182400286FAAEC04F000C02DF1000E01012E6F08
:101834002DC12EF12D6B0B0E0401286FAAEC04F0C0
:10184400005001012D13000E2E130C0E0401286FFD
:10185400AAEC04F000C062F000500908346FDCEC1C
:1018640002F00D0E0401286FAAEC04F000C02BF165
:101874000E0E286FAAEC04F000C02FF10F0E286F93
:10188400AAEC04F000C030F1100E286FAAEC04F0AA
:0618940000C022F1120069
:10189A0001010B917FC228F4B2EC04F00B81120013
:1018AA0083A203D083A401D003D0010E006E1200DC
:0418BA00006A1200AE
:1018BE0001014C6B4D6B4E6B050E02017F6F34ECCC
:1018CE0006F000C04CF101C04DF100C002F001C0A5
:1018DE0003F003320232039E03320232039E000EE5
:1018EE00006E0350005C02E10250A00812E24CC1EF
:1018FE0001F04DC102F002320132029E023201327B
:10190E00029E000E025C02E1B90E015C02E20101D0
:10191E004E854CC101F04DC102F002320132029EE1
:10192E0002320132029E000E006E0250005C02E195
:10193E000150640812E24CC101F04DC102F00232B6
:10194E000132029E02320132029E000E025C02E160
:10195E00A00E015C02E201014E834CC101F04DC1AB
:10196E0002F002320132029E02320132029E000E5B
:10197E00025C02E1320E015C02E201014E810101C4
:10198E004E51000A11E15C50000A04E1126B5C6AD0
:10199E004B6B136B5C50010A07E1050E5D5C04E3B3
:1019AE00126B5C6A4B6B136B4E51000A20E05C505D
:1019BE00010A1DE11251000A1AE1030E1D25016EE6
:1019CE00000E1E21026E000E1F21036E000E20213E
:1019DE00046E1F50041808E11E50031805E11D5037
:1019EE00021802E11C50011802E1010E126F4E5155
:1019FE00000A07E05C50010A04E11251000A01E1FD
:101A0E004B6B4E51000A0BE05C50010A08E112517B
:101A1E00010A05E14E511303F3CF4BF1136B4E51F7
:101A2E00000A10E05C50000A0DE14EC14BF1010EB0
:101A3E005C6E1CC01DF11DC01EF11EC01FF11FC02B
:101A4E0020F15D6A1251010A0DE10A0E046E5BC0AF
:101A5E0000F0DEEC00F008C000F00050000A02E1D9
:0A1A6E00010E136F4BC100F01200CF
:101A780001014B6B83B601D04B8183B801D04B83F6
:061A88004BC100F012004A
:101A8E00010E236E0001FEA311D0236A226A650E99
:101A9E002B6E2050000A0AE12150000A02E1C80E06
:101AAE002B6E2150010A02E1C90E2B6E2050000A46
:101ABE0016E10001FEA108D02150000805E2210622
:101ACE006AEC06F0660E2B6E0001FEA508D0010E24
:101ADE00215C05E2212A6AEC06F0660E2B6E205080
:101AEE00010A18E10001FEA109D0010118510008F8
:101AFE0005E218076AEC06F0660E2B6E0001FEA5D5
:101B0E0009D0FF0E0101185D05E2182B6AEC06F0F4
:101B1E00660E2B6E2050020A18E10001FEA109D0BC
:101B2E0001010E51000805E20E076AEC06F0660E82
:101B3E002B6E0001FEA509D0FF0E01010E5D05E220
:101B4E000E2B6AEC06F0660E2B6E2050030A18E17F
:101B5E000001FEA109D001010D51000805E20D079B
:101B6E006AEC06F0660E2B6E0001FEA509D0FF0E84
:101B7E0001010D5D05E20D2B6AEC06F0660E2B6E73
:101B8E002050040A18E10001FEA109D001010C51F8
:101B9E00000805E20C076AEC06F0660E2B6E0001DB
:101BAE00FEA509D0FF0E01010C5D05E20C2B6AECBF
:101BBE0006F0660E2B6E2050050A18E10001FEA1FC
:101BCE0009D001011051000805E210076AEC06F079
:101BDE00660E2B6E0001FEA509D0FF0E0101105DF1
:101BEE0005E2102B6AEC06F0660E2B6E2050060AEC
:101BFE0018E10001FEA109D001010F51000805E214
:101C0E000F076AEC06F0660E2B6E0001FEA509D0DA
:101C1E00FF0E01010F5D05E20F2B6AEC06F0660E5A
:101C2E002B6E2050070A18E10001FEA109D0010118
:101C3E002151000805E221076AEC06F0660E2B6EB4
:101C4E000001FEA509D0FF0E0101215D05E2212B49
:101C5E006AEC06F0660E2B6E2050080A18E10001A1
:101C6E00FEA109D001012C51000805E22C076AECF7
:101C7E0006F0660E2B6E0001FEA509D0FF0E0101C7
:101C8E002C5D05E22C2B6AEC06F0660E2B6E2050B6
:101C9E00090A16E10001FEA108D06250000805E213
:101CAE0062066AEC06F0660E2B6E0001FEA508D0E9
:101CBE00090E625C05E2622A6AEC06F0660E2B6E75
:101CCE0020500A0A18E10001FEA109D001011151AC
:101CDE00000805E211076AEC06F0660E2B6E000195
:101CEE00FEA509D0FF0E0101115D05E2112B6AEC74
:101CFE0006F0660E2B6E20500B0A24E10001FEA1A9
:101D0E0011D0000E006E01012E51005C02E12D512A
:101D1E00000808E2010E2D5F000E2E5B6AEC06F045
:101D2E00660E2B6E0001FEA50DD0FD0E01012E5D7F
:101D3E0002E1E80E2D5D06E22D4B2E2B6AEC06F02D
:101D4E00660E2B6E20500C0A46E104012B6A2D0EF6
:101D5E00346F000E356F7A0EF66E5C0EF76E000E57
:101D6E00F86E4B0EE16E010EE26E110E006E010E5C
:101D7E00016E75EC05F04B0E366F010E376F100EBF
:101D8E00386F000E396F27EC01F0480E346F000EDD
:101D9E00356F8B0EF66E5C0EF76E000EF86E5C0EE7
:101DAE00E16E010EE26E110E006E010E016E75EC0B
:101DBE0005F05C0E366F010E376F100E386F000E89
:101DCE00396F27EC01F0236A226A010E596E85ECF9
:101DDE000AF0F4EC04F020500D0A18E10001FEA107
:101DEE0009D001013051000805E230076AEC06F017
:101DFE00660E2B6E0001FEA509D0010E0101305DAD
:101E0E0005E2302B6AEC06F0660E2B6E20500E0AA1
:101E1E0018E10001FEA109D001012251000805E2DE
:101E2E0022076AEC06F0660E2B6E0001FEA509D0A5
:101E3E00010E0101225D05E2222B6AEC06F0660E10
:101E4E002B6E20500F0A18E10001FEA109D00101EE
:101E5E002F51000805E22F076AEC06F0660E2B6E76
:101E6E000001FEA509D0010E01012F5D05E22F2B09
:101E7E006AEC06F0660E2B6E2050100A21E100016E
:101E8E00FEA10DD001012B51000809E22B072B51A9
:101E9E00090A01E12B6B6AEC06F0660E2B6E00014F
:101EAE00FEA50ED0FF0E01012B5D0AE22B2B2B514E
:101EBE00010A02E10A0E2B6F6AEC06F0660E2B6E1B
:101ECE002050110A42E10401670E2B6E2D0E346F65
:101EDE00000E356F9C0EF66E5C0EF76E000EF86EF1
:101EEE006D0EE16E010EE26E110E006E010E016EB0
:101EFE0075EC05F06D0E366F010E376F100E386FE4
:101F0E00000E396F27EC01F0480E346F000E356F5E
:101F1E00AD0EF66E5C0EF76E000EF86E7E0EE16E76
:101F2E00010EE26E110E006E010E016E75EC05F0E3
:101F3E007E0E366F010E376F100E386F000E396F32
:101F4E0027EC01F0236A010E596E2050120A43E16C
:101F5E0004012B6A2D0E346F000E356FBE0EF66E19
:101F6E005C0EF76E000EF86E8F0EE16E010EE26ED5
:101F7E00110E006E010E016E75EC05F08F0E366FB0
:101F8E00010E376F100E386F000E396F27EC01F00F
:101F9E00480E346F000E356FCF0EF66E5C0EF76E78
:101FAE00000EF86EA00EE16E010EE26E110E006EC6
:101FBE00010E016E75EC05F0A00E366F010E376F37
:101FCE00100E386F000E396F27EC01F0236A010EE8
:081FDE00596EDAEC0BF0120061
:101FE60010D0800E01014B6F1AD0C00E4B6F17D068
:101FF600940E4B6F14D0D40E4B6F11D0800E4B6FD6
:102006000ED001014B51010AECE04B51020AEDE002
:102016004B51030AEDE04B51040AEDE0EFD74C05B6
:10202600006E4B51002600C04BF100C028F4B2EC04
:1020360004F00B914F6B4F514D25E96E000E4E216A
:10204600EA6EEE520BE04F514D25E96E000E4E2121
:10205600EA6EEECF7FF21EDC4F2BEDD70B8112001E
:10206600969296949398939A939C939E8492849432
:10207600819E819C819A819865EC03F065EC03F062
:1020860065EC03F0818A818884824FEC01F08492AA
:1020960065EC03F084824FEC01F0849265EC03F06A
:1020A60084824FEC01F0849265EC03F0819884827F
:1020B6004FEC01F0849265EC03F084824FEC01F062
:1020C6008492819A818E84824FEC01F0849265EC31
:1020D60003F0819E818884824FEC01F0849281987E
:1020E60084824FEC01F0849265EC03F084824FEC1D
:1020F60001F08492818884824FEC01F0849265EC31
:1021060003F0819884824FEC01F08492818E818C59
:10211600818A818884824FEC01F0849265EC03F019
:0621260001010B81120013
:08212C00F4EC04F02B6A120030
:10213400600E0101236F010E246F3B0E256F040E08
:10214400266FFF0E276FFF0E286F000E296F000EFB
:102154002A6FFF0E196FFF0E1A6F000E1B6F000E11
:102164001C6FFF0E146FFF0E156F000E166F000E1E
:10217400176FAC8A900EAB6E948E949C9EAA03D07B
:08218400AECF00F0FBD7120002
:02218C0012003F
:10218E008284010E02017F6FBEEC05F000522BE03F
:10219E00010E02017F6F806B52EC06F0530E0101AF
:1021AE004B6F370E4C6F200E4D6F4D0E4E6F6F0EE8
:1021BE004F6F740E506F6F0E516F720E526F310E55
:1021CE00536F530E546F740E556F610E566F720E21
:1021DE00576F740E586F596B4B0E02017F6F010EC5
:1021EE00806FC5EC0AF0020E02017F6FBEEC05F0A7
:1021FE0000522BE0020E02017F6F806B52EC06F054
:10220E00530E01015A6F370E5B6F200E5C6F4D0E31
:10221E005D6F6F0E5E6F740E5F6F6F0E606F720E7E
:10222E00616F320E626F530E636F740E646F610EC8
:10223E00656F720E666F740E676F686B5A0E0201D1
:10224E007F6F010E806FC5EC0AF00A0E02017F6FE0
:10225E00BEEC05F000521EE0010E286E010E0201CA
:10226E007F6FDEEC05F0CB0EF66E5B0EF76E000E9A
:10227E00F86E690EE16E010EE26E150E006E010E25
:10228E00016E75EC05F0690E02017F6F010E806F15
:10229E00C5EC0AF00B0E02017F6FBEEC05F000528A
:1022AE001EE0010E246E020E02017F6FDEEC05F0C1
:1022BE00E00EF66E5B0EF76E000EF86E7E0EE16EA1
:1022CE00010EE26E150E006E010E016E75EC05F03C
:1022DE007E0E02017F6F010E806FC5EC0AF0050EB7
:1022EE0002017F6FBEEC05F000522DE0010E0201DF
:1022FE007F6F61C080F2A9EC0AF0266A530E0101CD
:10230E00936F370E946F200E956F4D0E966F310EA4
:10231E00976F200E986F530E996F700E9A6F650E11
:10232E009B6F650E9C6F640E9D6F200E9E6F550EFB
:10233E009F6F500EA06FA16B930E02017F6F010E67
:10234E00806FC5EC0AF0060E02017F6FBEEC05F041
:10235E0000522DE05FC07FF2010E0201806FA9ECEA
:10236E000AF0256A530E0101A26F370EA36F200EDD
:10237E00A46F4D0EA56F320EA66F200EA76F530ED3
:10238E00A86F700EA96F650EAA6F650EAB6F640E07
:10239E00AC6F200EAD6F550EAE6F500EAF6FB06BB3
:1023AE00A20E02017F6F010E806FC5EC0AF0030EC4
:1023BE0002017F6FBEEC05F0005208E12850010AC1
:1023CE0004E1010103A101D001D029D01BA027D027
:1023DE001B90010E02017F6FB9EC0AF0530E010142
:1023EE00B16F370EB26F200EB36F4D0EB46F310E4C
:1023FE00B56F200EB66F530EB76F740EB86F6F0EAB
:10240E00B96F700EBA6F650EBB6F640EBC6FBD6B8D
:10241E00B10E02017F6F010E806FC5EC0AF0040E43
:10242E0002017F6FBEEC05F0005208E12450010A54
:10243E0004E1010103A301D001D029D01BA227D0B2
:10244E001B92020E02017F6FB9EC0AF0530E0101CE
:10245E00BE6F370EBF6F200EC06F4D0EC16F320EA6
:10246E00C26F200EC36F530EC46F740EC56F6F0E06
:10247E00C66F700EC76F650EC86F640EC96FCA6BDC
:10248E00BE0E02017F6F010E806FC5EC0AF00101D6
:10249E000E51000A04E02950010A01E001D01B92FE
:1024AE00010104A12AD0010E02017F6FB9EC0AF0DE
:1024BE00020E7F6FB9EC0AF0286A246A060E2B6EA4
:1024CE00010E476E2D0EF66E5C0EF76E000EF86E58
:1024DE00CB0EE16E010EE26E110E006E010E016E5C
:1024EE0075EC05F0CB0E7F6F010E806FC5EC0AF018
:1024FE00090E02017F6FEDEC05F0010102A128D05B
:10250E00010E02017F6FB9EC0AF0020E7F6FB9EC7B
:10251E000AF0060E2B6E286A246A3E0EF66E5C0ECC
:10252E00F76E000EF86EDC0EE16E010EE26E120E0C
:10253E00006E010E016E75EC05F0DC0E7F6F010E64
:10254E00806FC5EC0AF0090E02017F6FEDEC05F00D
:10255E0001010551010A2AE1225328E0010E020170
:10256E007F6FB9EC0AF0020E7F6FB9EC0AF0060E1F
:10257E002B6E286A246A500EF66E5C0EF76E000EF5
:10258E00F86EEE0EE16E010EE26E150E006E010E8D
:10259E00016E75EC05F0EE0E7F6F010E806FC5ECCF
:1025AE000AF0090E02017F6FEDEC05F01B50000AD8
:1025BE0008E10201010E2B6E2A6A090E7F6FEDEC07
:1025CE0005F02B50050A04E02B50060A01E034D02A
:1025DE0002017F6BEDEC05F0000E01012E1902E1F8
:1025EE00000E2D1929E02D511C2402017F6F0101CF
:1025FE002E511D200201806F000E1E20816F000ED5
:10260E001F20826F090E836FF7EC0AF0650EF66ECF
:10261E005C0EF76E000EF86E030EE16E020EE26EA9
:10262E00150E006E010E016E75EC05F0030E7F6F38
:0A263E00020E806FC5EC0AF01200D6
:1026480001014B6B3FB002D04B9101D04B813EB0A2
:1026580002D04B9301D04B833F6A3E6A83B602D0C7
:10266800D88001D0D8904BB103D002E24B9101D071
:102678004B8183B802D0D88001D0D8904BB303D017
:0E26880002E24B9301D04B834BC100F01200D5
:10269600020E0101816F82940251000A09E1090EBE
:1026A60002017F6FBEEC05F00050010A01E08DD3F8
:1026B600090E02017F6FEDEC05F001010C51000AD5
:1026C60004E02950010A01E02ED181511C24006E3C
:1026D600000E1D20016E000E1E20026E000E1F2031
:1026E600036E00C06EF001C06FF002C070F003C050
:1026F60071F000C07FF201C080F202C081F203C017
:1027060082F2010E0201836FF7EC0AF001012151FA
:10271600000A10E06EC07FF26FC080F270C081F2D6
:1027260071C082F2070E0201836FF7EC0AF0010E08
:10273600266E0ED002016EC07FF26FC080F270C0AE
:1027460081F271C082F2050E836FF7EC0AF0266AF9
:10275600010121511C24006E000E1D20016E000E89
:102766001E20026E000E1F20036E020E0026000EB3
:1027760001220222032281510026000E012202229A
:10278600032200C06EF001C06FF002C070F003C0FB
:1027960071F000C07FF201C080F202C081F203C076
:1027A60082F20A0E0201836FF7EC0AF00101215151
:1027B6001C24006E000E1D20016E000E1E20026EEF
:1027C600000E1F20036E81510026000E01220222F8
:1027D600032200C06EF001C06FF002C070F003C0AB
:1027E60071F000C07FF201C080F202C081F203C026
:1027F60082F2050E0201836FF7EC0AF001012C51FB
:10280600000A2DE00D511C24006E000E1D20016EE5
:10281600000E1E20026E000E1F20036E2C51005E5D
:10282600000E015A025A035A81510026000E012257
:102836000222032200C06EF001C06FF002C070F0E9
:1028460003C071F000C07FF201C080F202C081F2C5
:1028560003C082F2070E0201836FF7EC0AF0010152
:102866002F51000A38E00D511C24006E000E1D2069
:10287600016E000E1E20026E000E1F20036E815197
:102886000026000E01220222032200C06EF001C0C3
:102896006FF002C070F003C071F000C07FF201C09B
:1028A60080F202C081F203C082F2050E0201836F3C
:1028B600F7EC0AF0030E6E247F6F000E6F20806F18
:1028C600000E7020816F000E7120826F030E836FE1
:1028D600F7EC0AF028D001010D511C24006E000E01
:1028E6001D20016E000E1E20026E000E1F20036EBC
:1028F60081510026000E01220222032200C06EF042
:1029060001C06FF002C070F003C071F000C07FF22A
:1029160001C080F202C081F203C082F2030E0201FE
:10292600836FF7EC0AF001010C51000AD8B447D2C4
:10293600020E296E81511C24006E000E1D20016EB0
:10294600000E1E20026E000E1F20036E00C06EF0E9
:1029560001C06FF002C070F003C071F000C07FF2DA
:1029660001C080F202C081F203C082F2020E0201AF
:10297600836FF7EC0AF001012151000A10E06EC0E6
:102986007FF26FC080F270C081F271C082F2080ED1
:102996000201836FF7EC0AF0010E256E0ED00201DC
:1029A6006EC07FF26FC080F270C081F271C082F299
:1029B600060E836FF7EC0AF0256A010121511C24EB
:1029C600006E000E1D20016E000E1E20026E000E0F
:1029D6001F20036E020E0026000E01220222032291
:1029E60081510026000E01220222032200C06EF051
:1029F60001C06FF002C070F003C071F000C07FF23A
:102A060001C080F202C081F203C082F20B0E020105
:102A1600836FF7EC0AF0010121511C24006E000EB1
:102A26001D20016E000E1E20026E000E1F20036E7A
:102A360081510026000E01220222032200C06EF000
:102A460001C06FF002C070F003C071F000C07FF2E9
:102A560001C080F202C081F203C082F2060E0201BA
:102A6600836FF7EC0AF001012C51000A2DE00C519E
:102A76001C24006E000E1D20016E000E1E20026E2C
:102A8600000E1F20036E2C51005E000E015A025AE2
:102A9600035A81510026000E01220222032200C0A1
:102AA6006EF001C06FF002C070F003C071F000C09C
:102AB6007FF201C080F202C081F203C082F2080EEA
:102AC6000201836FF7EC0AF001010C511C24006E21
:102AD600000E1D20016E000E1E20026E000E1F202D
:102AE600036E81510026000E01220222032200C03D
:102AF6006EF001C06FF002C070F003C071F000C04C
:102B06007FF201C080F202C081F203C082F2040E9D
:102B16000201836FF7EC0AF0010111511C24006ECB
:102B2600000E1D20016E000E1E20026E000E1F20DC
:102B3600036E81510026000E01220222032200C0EC
:102B46006EF001C06FF002C070F003C071F000C0FB
:102B56007FF201C080F202C081F203C082F2010E50
:102B66000201836FF7EC0AF001012151000A10E01F
:102B76006EC07FF26FC080F270C081F271C082F2C7
:102B8600070E0201836FF7EC0AF0010E266E0ED0D7
:102B960002016EC07FF26FC080F270C081F271C018
:102BA60082F2050E836FF7EC0AF0266A01011151D5
:102BB6001C24006E000E1D20016E000E1E20026EEB
:102BC600000E1F20036E21510026000E0122022254
:102BD6000322020E0026000E012202220322815148
:102BE6000026000E01220222032200C06EF001C060
:102BF6006FF002C070F003C071F000C07FF201C038
:102C060080F202C081F203C082F20A0E0201836FD3
:102C1600F7EC0AF0010111511C24006E000E1D2074
:102C2600016E000E1E20026E000E1F20036E215143
:102C36000026000E01220222032281510026000EE8
:102C460001220222032200C06EF001C06FF002C012
:102C560070F003C071F000C07FF201C080F202C0C4
:102C660081F203C082F2050E0201836FF7EC0AF0CF
:102C760001012C51000A33E011511C24006E000E94
:102C86001D20016E000E1E20026E000E1F20036E18
:102C96000D510026000E0122022203222C51005E55
:102CA600000E015A025A035A81510026000E0122D3
:102CB6000222032200C06EF001C06FF002C070F065
:102CC60003C071F000C07FF201C080F202C081F241
:102CD60003C082F2070E0201836FF7EC0AF00101CE
:102CE6002F51000A3EE00D511C24006E000E1D20DF
:102CF600016E000E1E20026E000E1F20036E115183
:102D06000026000E01220222032281510026000E17
:102D160001220222032200C06EF001C06FF002C041
:102D260070F003C071F000C07FF201C080F202C0F3
:102D360081F203C082F2050E0201836FF7EC0AF0FE
:102D4600030E6E247F6F000E6F20806F000E7020C2
:102D5600816F000E7120826F030E836FF7EC0AF00D
:102D66002ED001010D511C24006E000E1D20016E97
:102D7600000E1E20026E000E1F20036E115100264B
:102D8600000E01220222032281510026000E01229A
:102D96000222032200C06EF001C06FF002C070F084
:102DA60003C071F000C07FF201C080F202C081F260
:102DB60003C082F2030E0201836FF7EC0AF0030EE2
:102DC6001B6E286A246A040E2B6E010104A125D00D
:102DD600000E2E1902E1000E2D191FE02A50000ADE
:102DE6001CE1010E2A6E6FEC0BF000C01AF0970E74
:102DF600F66E5D0EF76E000EF86E4B0EE16E010E6E
:102E0600E26E160E006E010E016E75EC05F04B0EAD
:102E16007F6F010E806FC5EC0AF02A50010AD8A414
:102E2600ADD0010104B1AAD0000E2E1902E1000EA8
:102E36002D19D8B4A3D02B51000A50E11A501C24E6
:102E4600006E000E1D20016E000E1E20026E000E8A
:102E56001F20036E00C06EF001C06FF002C070F05C
:102E660003C071F000C07FF201C080F202C081F29F
:102E760003C082F2090E0201836FF7EC0AF02A6A98
:102E86006EC028F46FC029F470C02AF471C02BF408
:102E9600630E04012C6F000E2D6FE0EC03F0AD0EF7
:102EA600F66E5D0EF76E000EF86E610EE16E010EA7
:102EB600E26E100E006E010E016E75EC05F0610EED
:102EC60002017F6F010E806FC5EC0AF0630E0201EE
:102ED6007F6F000E806FC5EC0AF050D001012B51B8
:102EE6001C24006E000E1D20016E000E1E20026EB8
:102EF600000E1F20036E00C06EF001C06FF002C00E
:102F060070F003C071F000C07FF201C080F202C011
:102F160081F203C082F2090E0201836FF7EC0AF018
:102F26002A6A6EC028F46FC029F470C02AF471C0F2
:102F36002BF4630E04012C6F000E2D6FE0EC03F0F2
:102F4600BD0EF66E5D0EF76E000EF86E710EE16E3A
:102F5600010EE26E100E006E010E016E75EC05F0AC
:102F6600710E02017F6F010E806FC5EC0AF0630ED1
:0E2F760002017F6F000E806FC5EC0AF01200A2
:102F84008284010E02017F6FBEEC05F000522DE039
:102F9400010E02017F6F010E806F52EC06F0530E9A
:102FA40001014B6F380E4C6F200E4D6F4D0E4E6F5E
:102FB4006F0E4F6F740E506F6F0E516F720E526F13
:102FC400310E536F530E546F740E556F610E566F5E
:102FD400720E576F740E586F596B4B0E02017F6F50
:102FE400010E806FC5EC0AF0839E020E02017F6F12
:102FF400BEEC05F000522DE0020E02017F6F010EBF
:10300400806F52EC06F0530E01015A6F380E5B6F5D
:10301400200E5C6F4D0E5D6F6F0E5E6F740E5F6FF2
:103024006F0E606F720E616F320E626F530E636FBC
:10303400740E646F610E656F720E666F740E676F47
:10304400686B5A0E02017F6F010E806FC5EC0AF0A7
:10305400839E0A0E02017F6FBEEC05F000521EE053
:10306400010E286E010E02017F6FDEEC05F0F00EFA
:10307400F66E5A0EF76E000EF86E690EE16E010ED2
:10308400E26E160E006E010E016E75EC05F0690E0F
:1030940002017F6F010E806FC5EC0AF00B0E020176
:1030A4007F6FBEEC05F000521EE0010E246E020E8E
:1030B40002017F6FDEEC05F0060EF66E5B0EF76E16
:1030C400000EF86E7F0EE16E010EE26E160E006EBB
:1030D400010E016E75EC05F07F0E02017F6F010E8B
:1030E400806FC5EC0AF0050E02017F6FBEEC05F09F
:1030F40000522DE0010E02017F6F61C080F2A9EC45
:103104000AF0266A530E0101956F380E966F200E51
:10311400976F4D0E986F6F0E996F740E9A6F6F0EB6
:103124009B6F720E9C6F310E9D6F200E9E6F460E2C
:103134009F6F610EA06F730EA16F740EA26FA36BCD
:10314400950E02017F6F010E806FC5EC0AF0060E2A
:1031540002017F6FBEEC05F000522DE05FC07FF2EC
:10316400010E0201806FA9EC0AF0256A530E0101D9
:10317400A46F380EA56F200EA66F4D0EA76F6F0EAD
:10318400A86F740EA96F6F0EAA6F720EAB6F320E1A
:10319400AC6F200EAD6F460EAE6F610EAF6F730E47
:1031A400B06F740EB16FB26BA40E02017F6F010E8B
:1031B400806FC5EC0AF0030E02017F6FBEEC05F0D0
:1031C400005208E12850010A04E1010103A101D0E1
:1031D40001D02DD02CA02BD02C90010E02017F6F9A
:1031E400B9EC0AF0530E0101B36F380EB46F200E20
:1031F400B56F4D0EB66F6F0EB76F740EB86F6F0E5E
:10320400B96F720EBA6F310EBB6F200EBC6F530EC6
:10321400BD6F740EBE6F6F0EBF6F700EC06FC16B4B
:10322400B30E02017F6F010E806FC5EC0AF0040E2D
:1032340002017F6FBEEC05F0005208E12450010A40
:1032440004E1010103A301D001D02DD02CA22BD085
:103254002C92020E02017F6FB9EC0AF0530E0101A9
:10326400C26F380EC36F200EC46F4D0EC56F6F0E44
:10327400C66F740EC76F6F0EC86F720EC96F320EB1
:10328400CA6F200ECB6F530ECC6F740ECD6F6F0EC2
:10329400CE6F700ECF6FD06BC20E02017F6F010E26
:1032A400806FC5EC0AF00C0E02017F6FBEEC05F0D6
:1032B400005201E0838E01010E51000A04E02950FE
:1032C400010A01E001D02C92010104A12AD030535B
:1032D40028E0010E02017F6FB9EC0AF0020E7F6F45
:1032E400B9EC0AF0286A246A050E2B6E580EF66EA5
:1032F4005B0EF76E000EF86ED10EE16E010EE26EFB
:10330400110E006E010E016E75EC05F0D10E7F6F8B
:10331400010E806FC5EC0AF0090E02017F6FEDEC1F
:1033240005F0010102A128D0010E02017F6FB9EC62
:103334000AF0020E7F6FB9EC0AF0050E2B6E286AB4
:10334400246A690EF66E5B0EF76E000EF86EE20EDE
:10335400E16E010EE26E1A0E006E010E016E75EC46
:1033640005F0E20E7F6F010E806FC5EC0AF0090EC6
:1033740002017F6FEDEC05F001010551010A2AE11C
:10338400225328E0010E02017F6FB9EC0AF0020E0D
:103394007F6FB9EC0AF0050E2B6E286A246A830E3F
:1033A400F66E5B0EF76E000EF86EFC0EE16E010E0B
:1033B400E26E150E006E010E016E75EC05F0FC0E4A
:1033C4007F6F010E806FC5EC0AF0090E02017F6F5A
:1033D400EDEC05F02C50000A08E10201020E2B6E00
:1033E4002A6A090E7F6FEDEC05F02B50050A04E004
:1033F4002B50060A01E034D002017F6BEDEC05F09E
:10340400000E01012E1902E1000E2D1929E02D51A3
:103414001C2402017F6F01012E511D200201806FC7
:10342400000E1E20816F000E1F20826F090E836F15
:10343400F7EC0AF0980EF66E5B0EF76E000EF86E5F
:10344400110EE16E020EE26E150E006E010E016E9B
:1034540075EC05F0110E7F6F020E806FC5EC0AF05B
:02346400120054
:10346600030E0101816F82940251000A03E1475263
:1034760001E112D1476A8284090E02017F6FEDECE9
:1034860005F0010E1C247F6F000E1D20806F000EBC
:103496001E20816F000E1F20826F0C0E836FF7ECCB
:1034A6000AF0010181511C24006E000E1D20016EE0
:1034B600000E1E20026E000E1F20036E00C06EF06E
:1034C60001C06FF002C070F003C071F000C07FF25F
:1034D60001C080F202C081F203C082F2010E020135
:1034E600836FF7EC0AF06EC07FF26FC080F270C097
:1034F60081F271C082F2050E836FF7EC0AF0266A3C
:10350600020E1C24006E000E1D20016E000E1E20F1
:10351600026E000E1F20036E010181510026000E6F
:1035260001220222032200C06EF001C06FF002C029
:1035360070F003C071F000C07FF201C080F202C0DB
:1035460081F203C082F20A0E0201836FF7EC0AF0E1
:10355600010118511C24006E000E1D20016E000E84
:103566001E20026E000E1F20036E81510026000EE3
:1035760001220222032200C06EF001C06FF002C0D9
:1035860070F003C071F000C07FF201C080F202C08B
:1035960081F203C082F2030E0201836FF7EC0AF098
:1035A60001010E51000A71E02950020A6EE1115123
:1035B6001C2402017F6F000E1D20806F000E1E204E
:1035C600816F000E1F20826F0101815102017F274A
:1035D600000E802381238223020E836FF7EC0AF00C
:1035E600010111511C2402017F6F000E1D20806F06
:1035F600000E1E20816F000E1F20826F0101815177
:1036060002017F27000E802381238223060E836F0B
:10361600F7EC0AF0256A010111511C2402017F6FA3
:10362600000E1D20806F000E1E20816F000E1F20D1
:10363600826F020E7F27000E8023812382230101E1
:10364600815102017F27000E8023812382230B0EE6
:10365600836FF7EC0AF001010E511C2402017F6F03
:10366600000E1D20806F000E1E20816F000E1F2091
:10367600826F0101815102017F27000E8023812381
:103686008223040E836FF7EC0AF0030E2C6E286A71
:10369600246A2A6A080E2B6E0201090E7F6FBEECA1
:1036A60005F00050010AD8A400D1090E02017F6F6F
:1036B600EDEC05F0010181511C24006E000E1D2069
:1036C600016E000E1E20026E000E1F20036E00C04B
:1036D6006EF001C06FF002C070F003C071F000C060
:1036E6007FF201C080F202C081F203C082F2010EB5
:1036F6000201836FF7EC0AF06EC07FF26FC080F2B2
:1037060070C081F271C082F2050E836FF7EC0AF089
:10371600266A020E1C24006E000E1D20016E000E8D
:103726001E20026E000E1F20036E0101815100262D
:10373600000E01220222032200C06EF001C06FF0CB
:1037460002C070F003C071F000C07FF201C080F2C9
:1037560002C081F203C082F20A0E0201836FF7EC07
:103766000AF001010D511C24006E000E1D20016E91
:10377600000E1E20026E000E1F20036E81510026D1
:10378600000E01220222032200C06EF001C06FF07B
:1037960002C070F003C071F000C07FF201C080F279
:1037A60002C081F203C082F2030E0201836FF7ECBE
:1037B6000AF001010C51000A71E02950020A6EE17B
:1037C60011511C2402017F6F000E1D20806F000E18
:1037D6001E20816F000E1F20826F010181510201A0
:1037E6007F27000E802381238223020E836FF7EC4E
:1037F6000AF0010111511C2402017F6F000E1D20E9
:10380600806F000E1E20816F000E1F20826F010147
:10381600815102017F27000E802381238223060E19
:10382600836FF7EC0AF0256A010111511C2402018D
:103836007F6F000E1D20806F000E1E20816F000E10
:103846001F20826F020E7F27000E80238123822392
:103856000101815102017F27000E802381238223EB
:103866000B0E836FF7EC0AF001010D511C240201C7
:103876007F6F000E1D20806F000E1E20816F000ED0
:103886001F20826F0101815102017F27000E8023D4
:1038960081238223040E836FF7EC0AF0030E1B6E5E
:1038A600286A246A2A6A070E2B6E010104A125D014
:1038B600000E2E1902E1000E2D191FE02A50000AF3
:1038C6001CE1010E2A6E6FEC0BF000C01AF0600EC0
:1038D600F66E5D0EF76E000EF86E4B0EE16E010E83
:1038E600E26E160E006E010E016E75EC05F04B0EC3
:1038F6007F6F010E806FC5EC0AF02A50010A58E16D
:10390600010104B155D0000E2E1902E1000E2D1949
:103916004FE01A501C24006E000E1D20016E000E92
:103926001E20026E000E1F20036E00C06EF001C046
:103936006FF002C070F003C071F000C07FF201C0EA
:1039460080F202C081F203C082F2090E0201836F87
:10395600F7EC0AF02A6A6EC028F46FC029F470C02A
:103966002AF471C02BF4630E04012C6F000E2D6F28
:10397600E0EC03F0760EF66E5D0EF76E000EF86E56
:10398600610EE16E010EE26E100E006E010E016E0A
:1039960075EC05F0610E02017F6F010E806FC5ECBC
:1039A6000AF0630E02017F6F000E806FC5EC0AF00D
:0239B6001200FD
:1039B8008284010E02017F6FBEEC05F000522DE0FB
:1039C800010E02017F6F010E806F52EC06F0530E5C
:1039D80001014B6F330E4C6F200E4D6F4D0E4E6F25
:1039E8006F0E4F6F740E506F6F0E516F720E526FD5
:1039F800310E536F530E546F740E556F610E566F20
:103A0800720E576F740E586F596B4B0E02017F6F11
:103A1800010E806FC5EC0AF0839E020E02017F6FD3
:103A2800BEEC05F000522DE0020E02017F6F010E80
:103A3800806F52EC06F0530E01015A6F330E5B6F24
:103A4800200E5C6F4D0E5D6F6F0E5E6F740E5F6FB4
:103A58006F0E606F720E616F320E626F530E636F7E
:103A6800740E646F610E656F720E666F740E676F09
:103A7800686B5A0E02017F6F010E806FC5EC0AF069
:103A8800839E050E02017F6FBEEC05F000522EE00A
:103A9800010E02017F6F61C080F2A9EC0AF0286A6A
:103AA800266A530E0101696F330E6A6F200E6B6F21
:103AB8004D0E6C6F6F0E6D6F740E6E6F6F0E6F6FB5
:103AC800720E706F310E716F200E726F460E736F2B
:103AD800610E746F730E756F740E766F776B690E67
:103AE80002017F6F010E806FC5EC0AF0070E02011C
:103AF8007F6FBEEC05F000522DE002017F6B61C0C4
:103B080080F2A9EC0AF0010E266E530E0101786FBF
:103B1800330E796F200E7A6F4D0E7B6F6F0E7C6FB0
:103B2800740E7D6F6F0E7E6F720E7F6F310E806F19
:103B3800200E816F530E826F6C0E836F6F0E846F31
:103B4800770E856F866B780E02017F6F010E806F8E
:103B5800C5EC0AF0060E02017F6FBEEC05F00052BC
:103B68002EE05FC07FF2010E0201806FA9EC0AF01F
:103B7800246A256A530E0101876F330E886F200E61
:103B8800896F4D0E8A6F6F0E8B6F740E8C6F6F0E70
:103B98008D6F720E8E6F320E8F6F200E906F460EE5
:103BA800916F610E926F730E936F740E946F956B95
:103BB800870E02017F6F010E806FC5EC0AF0080EB8
:103BC80002017F6FBEEC05F000522DE05FC07FF26E
:103BD8000201806BA9EC0AF0010E256E530E01015B
:103BE800966F330E976F200E986F4D0E996F6F0E6C
:103BF8009A6F740E9B6F6F0E9C6F720E9D6F320ED4
:103C08009E6F200E9F6F530EA06F6C0EA16F6F0EEC
:103C1800A26F770EA36FA46B960E02017F6F010E41
:103C2800806FC5EC0AF00A0E02017F6FBEEC05F04A
:103C380000521EE0010E286E010E02017F6FDEECBD
:103C480005F0E70EF66E580EF76E000EF86EA50E2C
:103C5800E16E010EE26E160E006E010E016E75EC3D
:103C680005F0A50E02017F6F010E806FC5EC0AF00A
:103C78000B0E02017F6FBEEC05F000521EE0010E34
:103C8800246E020E02017F6FDEEC05F0FD0EF66E6B
:103C9800580EF76E000EF86EBB0EE16E010EE26E66
:103CA800160E006E010E016E75EC05F0BB0E0201DA
:103CB8007F6F010E806FC5EC0AF0030E02017F6F63
:103CC800BEEC05F000522BE02C90010E02017F6F34
:103CD800B9EC0AF0530E0101D16F330ED26F200EEA
:103CE800D36F4D0ED46F6F0ED56F740ED66F6F0EE7
:103CF800D76F720ED86F310ED96F200EDA6F530E50
:103D0800DB6F740EDC6F6F0EDD6F700EDE6FDF6BB6
:103D1800D10E02017F6F010E806FC5EC0AF0040E10
:103D280002017F6FBEEC05F000522BE02C92020ED0
:103D380002017F6FB9EC0AF0530E0101E06F330EF8
:103D4800E16F200EE26F4D0EE36F6F0EE46F740E9D
:103D5800E56F6F0EE66F720EE76F320EE86F200E9A
:103D6800E96F530EEA6F740EEB6F6F0EEC6F700E07
:103D7800ED6FEE6BE00E02017F6F010E806FC5ECF8
:103D88000AF00C0E02017F6FBEEC05F0005201E054
:103D9800838E2850010A2EE1010103A12BD0265061
:103DA800000A28E1010E02017F6FB9EC0AF0020E49
:103DB8007F6FB9EC0AF0050E2B6E286A246A310E63
:103DC800F66E590EF76E000EF86EEF0EE16E010EEC
:103DD800E26E140E006E010E016E75EC05F0EF0E2A
:103DE8007F6F010E806FC5EC0AF0090E02017F6F2C
:103DF800EDEC05F02450010A2EE1010103A32BD0BC
:103E08002550000A28E1010E02017F6FB9EC0AF083
:103E1800020E7F6FB9EC0AF0050E2B6E286A246A31
:103E2800450EF66E590EF76E000EF86E030EE16E33
:103E3800020EE26E140E006E010E016E75EC05F0B6
:103E4800030E7F6F020E806FC5EC0AF0090E0201A7
:103E58007F6FEDEC05F001010E51000A04E02950D6
:103E6800010A01E001D02C92010104A12AD03053AB
:103E780028E0010E02017F6FB9EC0AF0020E7F6F95
:103E8800B9EC0AF0286A246A050E2B6E590EF66EF4
:103E9800590EF76E000EF86E170EE16E020EE26E06
:103EA800110E006E010E016E75EC05F0170E7F6F96
:103EB800020E806FC5EC0AF0090E02017F6FEDEC6F
:103EC80005F0010102A128D0010E02017F6FB9ECB3
:103ED8000AF0020E7F6FB9EC0AF0286A246A050E10
:103EE8002B6E6A0EF66E590EF76E000EF86E280EDF
:103EF800E16E020EE26E110E006E010E016E75EC9F
:103F080005F0280E7F6F020E806FC5EC0AF0090ECF
:103F180002017F6FEDEC05F001010551010A2AE16C
:103F2800225328E0010E02017F6FB9EC0AF0020E5D
:103F38007F6FB9EC0AF0286A246A050E2B6E7B0E97
:103F4800F66E590EF76E000EF86E390EE16E020E1F
:103F5800E26E170E006E010E016E75EC05F0390E5B
:103F68007F6F020E806FC5EC0AF0090E02017F6FA9
:103F7800EDEC05F0010102A128D0010E02017F6FCE
:103F8800B9EC0AF0020E7F6FB9EC0AF0050E2B6E41
:103F9800286A246A920EF66E590EF76E000EF86EB5
:103FA800500EE16E020EE26E1A0E006E010E016EE8
:103FB80075EC05F0500E7F6F020E806FC5EC0AF0AD
:103FC800090E02017F6FEDEC05F02C50000A08E1A4
:103FD8000201020E2B6E2A6A090E7F6FEDEC05F0C6
:103FE8002B50050A04E02B50060A01E034D00201E8
:103FF8007F6BEDEC05F0000E01012E1902E1000EB9
:104008002D1929E02D511C2402017F6F01012E5129
:104018001D200201806F000E1E20816F000E1F20E0
:10402800826F090E836FF7EC0AF0AC0EF66E590E2C
:10403800F76E000EF86E6A0EE16E020EE26E150E55
:10404800006E010E016E75EC05F06A0E7F6F020EB0
:08405800806FC5EC0AF01200B4
:104060008284FFC034F42D0E0401356F000E366FCC
:10407000EDEC00F000C134F4480E356F000E366FE1
:10408000EDEC00F0010E596E010E02017F6FBEECE7
:1040900005F000522BE0010E02017F6F806B52ECA5
:1040A00006F0530E01014B6F340E4C6F200E4D6F16
:1040B0004D0E4E6F6F0E4F6F740E506F6F0E516F2F
:1040C000720E526F310E536F530E546F740E556F44
:1040D000610E566F720E576F740E586F596B4B0E00
:1040E00002017F6F010E806FC5EC0AF0020E020123
:1040F0007F6FBEEC05F000522BE0020E02017F6FD5
:10410000806B52EC06F0530E01015A6F340E5B6F58
:10411000200E5C6F4D0E5D6F6F0E5E6F740E5F6FE5
:104120006F0E606F720E616F320E626F530E636FAF
:10413000740E646F610E656F720E666F740E676F3A
:10414000686B5A0E02017F6F010E806FC5EC0AF09A
:104150000A0E02017F6FBEEC05F000521EE0010E58
:10416000286E010E02017F6FDEEC05F0DF0EF66EA9
:10417000590EF76E000EF86E690EE16E010EE26EDA
:10418000150E006E010E016E75EC05F0690E020150
:104190007F6F010E806FC5EC0AF00B0E02017F6F7E
:1041A000BEEC05F000521EE0010E246E020E02016C
:1041B0007F6FDEEC05F0F40EF66E590EF76E000E12
:1041C000F86E7E0EE16E010EE26E150E006E010EAF
:1041D000016E75EC05F07E0E02017F6F010E806F9F
:1041E000C5EC0AF0050E02017F6FBEEC05F000522F
:1041F0002EE0010E02017F6F61C080F2A9EC0AF08F
:10420000286A266A530E0101936F340E946F200EB4
:10421000956F4D0E966F310E976F200E986F530E5F
:10422000996F700E9A6F650E9B6F650E9C6F640E92
:104230009D6F200E9E6F550E9F6F500EA06FA16B4D
:10424000930E02017F6F010E806FC5EC0AF0070E1E
:1042500002017F6FBEEC05F000521FE002017F6B90
:1042600061C080F2A9EC0AF0246A010E266E180ED5
:10427000F66E5A0EF76E000EF86EA20EE16E010E8B
:10428000E26E110E006E010E016E75EC05F0A20ECD
:104290007F6F010E806FC5EC0AF0060E02017F6F82
:1042A000BEEC05F000522DE05FC07FF2010E02016E
:1042B000806FA9EC0AF0256A530E0101B36F340E2A
:1042C000B46F200EB56F4D0EB66F320EB76F200E65
:1042D000B86F530EB96F700EBA6F650EBB6F650E77
:1042E000BC6F640EBD6F200EBE6F550EBF6F500EBB
:1042F000C06FC16BB30E02017F6F010E806FC5EC02
:104300000AF0080E02017F6FBEEC05F000521EE0BD
:104310005FC07FF20201806BA9EC0AF0010E256EEE
:10432000380EF66E5A0EF76E000EF86EC20EE16E83
:10433000010EE26E110E006E010E016E75EC05F0BD
:10434000C20E7F6F010E806FC5EC0AF0030E0201F2
:104350007F6FBEEC05F0005227E01B90010E0201BA
:104360007F6FB9EC0AF0530E0101D36F340ED46F96
:10437000200ED56F4D0ED66F310ED76F200ED86F31
:10438000530ED96F740EDA6F6F0EDB6F700EDC6F29
:10439000650EDD6F640EDE6FDF6BD30E02017F6F83
:1043A000010E806FC5EC0AF0040E02017F6FBEECB7
:1043B00005F0005227E01B92020E02017F6FB9EC5C
:1043C0000AF0530E0101E06F340EE16F200EE26F30
:1043D0004D0EE36F320EE46F200EE56F530EE66F65
:1043E000740EE76F6F0EE86F700EE96F650EEA6F7F
:1043F000640EEB6FEC6BE00E02017F6F010E806FBD
:10440000C5EC0AF02850010A2EE1010103A12BD0CE
:104410002650000A28E1010E02017F6FB9EC0AF074
:10442000020E7F6FB9EC0AF0060E2B6E286A246A22
:10443000630EF66E5A0EF76E000EF86EED0EE16E1C
:10444000010EE26E110E006E010E016E75EC05F0AC
:10445000ED0E7F6F010E806FC5EC0AF0090E0201B0
:104460007F6FEDEC05F02450010A2EE1010103A35A
:104470002BD02550000A28E1010E02017F6FB9EC14
:104480000AF0020E7F6FB9EC0AF0060E2B6E286A56
:10449000246A740EF66E5A0EF76E000EF86EFE0E5B
:1044A000E16E010EE26E110E006E010E016E75ECF2
:1044B00005F0FE0E7F6F010E806FC5EC0AF0090E4D
:1044C00002017F6FEDEC05F001010E51000A04E0DE
:1044D0002950010A01E001D01B92010104A12AD058
:1044E000010E02017F6FB9EC0AF0020E7F6FB9EC8A
:1044F0000AF0286A246A060E2B6E010E476E850E9E
:10450000F66E5A0EF76E000EF86E0F0EE16E020E8A
:10451000E26E110E006E010E016E75EC05F00F0ECD
:104520007F6F020E806FC5EC0AF0090E02017F6FEB
:10453000EDEC05F001010551010A2AE1225328E0C2
:10454000010E02017F6FB9EC0AF0020E7F6FB9EC29
:104550000AF0060E2B6E286A246A960EF66E5A0E24
:10456000F76E000EF86E200EE16E020EE26E150E72
:10457000006E010E016E75EC05F0200E7F6F020ECD
:10458000806FC5EC0AF0090E02017F6FEDEC05F0BB
:10459000010102A128D0010E02017F6FB9EC0AF0DF
:1045A000020E7F6FB9EC0AF0060E2B6E286A246AA1
:1045B000AB0EF66E5A0EF76E000EF86E350EE16E0B
:1045C000020EE26E120E006E010E016E75EC05F029
:1045D000350E7F6F020E806FC5EC0AF0090E0201E6
:1045E0007F6FEDEC05F01B50000A08E10201010E9F
:1045F0002B6E2A6A090E7F6FEDEC05F02B50050A31
:1046000004E02B50060A01E034D002017F6BEDEC90
:1046100005F0000E01012E1902E1000E2D1929E00E
:104620002D511C2402017F6F01012E511D2002011A
:10463000806F000E1E20816F000E1F20826F090EFA
:10464000836FF7EC0AF0BD0EF66E5A0EF76E000E91
:10465000F86E470EE16E020EE26E150E006E010E50
:10466000016E75EC05F0470E7F6F020E806FC5EC92
:044670000AF012003A
:10467400020E0101816F82940251000A09E1090EC0
:1046840002017F6FBEEC05F00050010A01E0C6D1C3
:1046940001010C51000A04E02950010A01E084D010
:1046A400090E02017F6FEDEC05F0010181511C241C
:1046B400006E000E1D20016E000E1E20026E000E04
:1046C4001F20036E00C06EF001C06FF002C070F0D6
:1046D40003C071F000C07FF201C080F202C081F219
:1046E40003C082F2010E0201836FF7EC0AF06EC080
:1046F4007FF26FC080F270C081F271C082F2050E49
:10470400836FF7EC0AF0266A020E1C24006E000E7A
:104714001D20016E000E1E20026E000E1F20036E6F
:10472400010181510026000E01220222032200C051
:104734006EF001C06FF002C070F003C071F000C0F1
:104744007FF201C080F202C081F203C082F20A0E3D
:104754000201836FF7EC0AF001010D511C24006E75
:10476400000E1D20016E000E1E20026E000E1F2082
:10477400036E81510026000E01220222032200C092
:104784006EF001C06FF002C070F003C071F000C0A1
:104794007FF201C080F202C081F203C082F2030EF4
:1047A4000201836FF7EC0AF001010C51000AD8B43E
:1047B4002FD12950020AD8A42BD1090E02017F6FF0
:1047C400EDEC05F0010181511C24006E000E1D204A
:1047D400016E000E1E20026E000E1F20036E00C02C
:1047E4006EF001C06FF002C070F003C071F000C041
:1047F4007FF201C080F202C081F203C082F2020E95
:104804000201836FF7EC0AF06EC07FF26FC080F292
:1048140070C081F271C082F2060E836FF7EC0AF069
:10482400266A020E1C24006E000E1D20016E000E6E
:104834001E20026E000E1F20036E0101815100260E
:10484400000E01220222032200C06EF001C06FF0AC
:1048540002C070F003C071F000C07FF201C080F2AA
:1048640002C081F203C082F20B0E0201836FF7ECE7
:104874000AF001010D511C24006E000E1D20016E72
:10488400000E1E20026E000E1F20036E81510026B2
:10489400000E01220222032200C06EF001C06FF05C
:1048A40002C070F003C071F000C07FF201C080F25A
:1048B40002C081F203C082F2040E0201836FF7EC9E
:1048C4000AF0010111511C24006E000E1D20016E1E
:1048D400000E1E20026E000E1F20036E8151002662
:1048E400000E01220222032200C06EF001C06FF00C
:1048F40002C070F003C071F000C07FF201C080F20A
:1049040002C081F203C082F2010E0201836FF7EC50
:104914000AF0010111511C24006E000E1D20016ECD
:10492400000E1E20026E000E1F20036E8151002611
:10493400000E01220222032200C06EF001C06FF0BB
:1049440002C070F003C071F000C07FF201C080F2B9
:1049540002C081F203C082F2050E0201836FF7ECFC
:104964000AF0256A010111511C24006E000E1D205D
:10497400016E000E1E20026E000E1F20036E020E3A
:104984000026000E01220222032281510026000E7D
:1049940001220222032200C06EF001C06FF002C0A7
:1049A40070F003C071F000C07FF201C080F202C059
:1049B40081F203C082F20A0E0201836FF7EC0AF05F
:1049C40001010C511C24006E000E1D20016E000E0E
:1049D4001E20026E000E1F20036E81510026000E61
:1049E40001220222032200C06EF001C06FF002C057
:1049F40070F003C071F000C07FF201C080F202C009
:104A040081F203C082F2030E0201836FF7EC0AF015
:104A1400030E1B6E286A246A070E2B6E010104A183
:104A240025D0000E2E1902E1000E2D191FE02A5088
:104A3400000A1CE1010E2A6E6FEC0BF000C01AF0A4
:104A4400290EF66E5D0EF76E000EF86E4B0EE16EDB
:104A5400010EE26E160E006E010E016E75EC05F08D
:104A64004B0E7F6F010E806FC5EC0AF02A50010ACD
:104A740058E1010104B155D0000E2E1902E1000ED7
:104A84002D194FE01A501C24006E000E1D20016EDB
:104A9400000E1E20026E000E1F20036E00C06EF07A
:104AA40001C06FF002C070F003C071F000C07FF26B
:104AB40001C080F202C081F203C082F2090E020139
:104AC400836FF7EC0AF02A6A6EC028F46FC029F4E9
:104AD40070C02AF471C02BF4630E04012C6F000E15
:104AE4002D6FE0EC03F03F0EF66E5D0EF76E000ED8
:104AF400F86E610EE16E010EE26E100E006E010E94
:104B0400016E75EC05F0610E02017F6F010E806F7E
:104B1400C5EC0AF0630E02017F6F000E806FC5ECD6
:044B24000AF0120081
:104B28008284010E02017F6F806B52EC06F0020E48
:104B38007F6F806B52EC06F0010102A10CD08294C9
:104B4800010E02017F6FB9EC0AF0020E7F6FB9EC1B
:084B58000AF0010E2B6E1200A1
:104B60000001FEA109D02050000A03E1120E206EC0
:104B700001D02006640E2B6E0001FEA508D0205047
:104B8000120A02E1206A01D0202A640E2B6E000175
:0A4B9000FEA302D0660E2B6E120089
:104B9A00030E01014B6F82940001FE51020A03E1E8
:104BAA00640E2B6E206A010102510308296E02511C
:104BBA00000AD8B48CD2090E02017F6FEDEC05F021
:104BCA008284010E1C247F6F000E1D20806F000E50
:104BDA001E20816F000E1F20826F0C0E836FF7EC70
:104BEA000AF001014B511C24006E000E1D20016EBB
:104BFA00000E1E20026E000E1F20036E00C06EF013
:104C0A0001C06FF002C070F003C071F000C07FF203
:104C1A0001C080F202C081F203C082F2010E0201D9
:104C2A00836FF7EC0AF001011051000A10E06EC020
:104C3A007FF26FC080F270C081F271C082F2070EFB
:104C4A000201836FF7EC0AF0010E266E0ED0020104
:104C5A006EC07FF26FC080F270C081F271C082F2C2
:104C6A00050E836FF7EC0AF0266A010110511C2425
:104C7A00006E000E1D20016E000E1E20026E000E38
:104C8A001F20036E020E0026000E012202220322BA
:104C9A004B510026000E01220222032200C06EF0B0
:104CAA0001C06FF002C070F003C071F000C07FF263
:104CBA0001C080F202C081F203C082F20A0E020130
:104CCA00836FF7EC0AF0010110511C24006E000EEC
:104CDA001D20016E000E1E20026E000E1F20036EA4
:104CEA004B510026000E01220222032200C06EF060
:104CFA0001C06FF002C070F003C071F000C07FF213
:104D0A0001C080F202C081F203C082F2050E0201E4
:104D1A00836FF7EC0AF001010F51000A2DE01851D8
:104D2A001C24006E000E1D20016E000E1E20026E55
:104D3A00000E1F20036E0F51005E000E015A025A28
:104D4A00035A4B510026000E01220222032200C000
:104D5A006EF001C06FF002C070F003C071F000C0C5
:104D6A007FF201C080F202C081F203C082F2070E14
:104D7A000201836FF7EC0AF0010118511C24006E3E
:104D8A00000E1D20016E000E1E20026E000E1F2056
:104D9A00036E4B510026000E01220222032200C09C
:104DAA006EF001C06FF002C070F003C071F000C075
:104DBA007FF201C080F202C081F203C082F2030EC8
:104DCA000201836FF7EC0AF001010E51000AD8B410
:104DDA0049D12950020AD8A445D111511C24006E88
:104DEA00000E1D20016E000E1E20026E000E1F20F6
:104DFA00036E4B510026000E01220222032200C03C
:104E0A006EF001C06FF002C070F003C071F000C014
:104E1A007FF201C080F202C081F203C082F2020E68
:104E2A000201836FF7EC0AF001011051000A2AE02F
:104E3A0011511C24006E000E1D20016E000E1E2052
:104E4A00026E000E1F20036E4B510026000E012237
:104E5A000222032200C06EF001C06FF002C070F09F
:104E6A0003C071F000C07FF201C080F202C081F27B
:104E7A0003C082F2080E0201836FF7EC0AF0010EFA
:104E8A00256E29D0010111511C24006E000E1D202F
:104E9A00016E000E1E20026E000E1F20036E4B5183
:104EAA000026000E01220222032200C06EF001C079
:104EBA006FF002C070F003C071F000C07FF201C051
:104ECA0080F202C081F203C082F2060E0201836FF1
:104EDA00F7EC0AF0256A010111511C24006E000E3C
:104EEA001D20016E000E1E20026E000E1F20036E92
:104EFA0010510026000E012202220322020E002671
:104F0A00000E0122022203224B510026000E01222A
:104F1A000222032200C06EF001C06FF002C070F0DE
:104F2A0003C071F000C07FF201C080F202C081F2BA
:104F3A0003C082F20B0E0201836FF7EC0AF0010143
:104F4A0011511C24006E000E1D20016E000E1E2041
:104F5A00026E000E1F20036E10510026000E012261
:104F6A00022203224B510026000E012202220322B2
:104F7A0000C06EF001C06FF002C070F003C071F0A3
:104F8A0000C07FF201C080F202C081F203C082F247
:104F9A00060E0201836FF7EC0AF001010F51000AB5
:104FAA0033E011511C24006E000E1D20016E000E0C
:104FBA001E20026E000E1F20036E0E510026000EE8
:104FCA000122022203220F51005E000E015A025AE8
:104FDA00035A4B510026000E01220222032200C06E
:104FEA006EF001C06FF002C070F003C071F000C033
:104FFA007FF201C080F202C081F203C082F2080E81
:10500A000201836FF7EC0AF001010E511C24006EB5
:10501A00000E1D20016E000E1E20026E000E1F20C3
:10502A00036E11510026000E0122022203224B5167
:10503A000026000E01220222032200C06EF001C0E7
:10504A006FF002C070F003C071F000C07FF201C0BF
:10505A0080F202C081F203C082F2040E0201836F61
:10506A00F7EC0AF0000E01012E1902E1000E2D19CB
:10507A0027E02D511C24006E2E511D20016E000EBA
:10508A001E20026E000E1F20036E4B510026000EDA
:10509A0001220222032200C06EF001C06FF002C09A
:1050AA0070F003C071F000C07FF201C080F202C04C
:1050BA0081F203C082F2090E0201836FF7EC0AF053
:1050CA00030E2C6E286A246A030E2B6E2A6A1200BB
:1050DA0001014F6B02017F6B34EC06F000C04BF10B
:1050EA0001C04CF1010E02017F6F34EC06F000C0E2
:1050FA004DF101C04EF15F50000A11E001010A5161
:10510A004C5D02E109514B5D05E2FF0E455C01E28F
:10511A00452A04D04550000801E2450601D0456AF7
:10512A0001014550085D01E24F816150000A10E01B
:10513A000A514E5D02E109514D5D05E2FF0E465CE2
:10514A0001E2462A04D04650000801E2460601D090
:10515A00466A01014650085D01E24F834FC100F0E3
:02516A00120031
:10516C0083B005D04450140801E3442A01D0446AAA
:10517C00140E445C03E3010E006E1200006A120070
:10518C005950010A16E1010E01014B6F010E4C6FD3
:10519C002D0E4D6F000E4E6FF3EC0FF0020E4B6F99
:1051AC00010E4C6F480E4D6F000E4E6FF3EC0FF06E
:1051BC00596A235229E022521CE00101020E4B6F66
:1051CC00010E4C6FCE0EF66E5D0EF76E000EF86E85
:1051DC003B0EE16E010EE26E100E006E010E016EC2
:1051EC0075EC05F03B0E4D6F010E4E6FF3EC0FF0AE
:1051FC000BD00101020E4B6F010E4C6F480E4D6F20
:0A520C00000E4E6FF3EC0FF01200DD
:1052160001013B6B806A816A826A836A846A3F0EF7
:10522600926E070E936E800E946E7F0E956E010E33
:10523600966E090EC16E33EC10F00C0E0401286F49
:10524600B2EC04F01C6A1D6A1E6A1F6A850ED56ED2
:10525600F28EF28AF294F30ED76ECA0ED66EF08CE8
:10526600F086F090F08EF088F092F18AF188F29252
:10527600F2983B6B140E3B5D18E23BC100F0000E4A
:10528600016E070E046E000E056EB8EC03F0720E8A
:105296000026000E0122050E0024E16E000E0120FC
:1052A600E26E010EE66E3B2BE5D70001FE6BFF6B4F
:1052B6000101006B016B026B036B046B2B6A150E0D
:0E52C600AF6EAC849AEC10F0DAEC0BF0120034
:1052D4002CD061DC5AD05FDC58D04BEC13F055D0A5
:1052E400DCEC1CF052D030EC20F04FD03AEC23F040
:1052F4004CD033EC1AF049D0C7EC10F046D0C2ECD5
:1053040017F043D00FDC41D06AEC06F03ED026DC27
:105314003CD047EC0DF039D096EC10F036D003ECCD
:1053240000F033D0C6EC10F030D02B50000AD1E09E
:105334002B50010AD0E02B50020ACFE02B50030A75
:10534400CFE02B50040ACFE02B50050ACFE02B50BE
:10535400060ACFE02B50070ACFE02B50080ACFE013
:105364002B500A0ACFE02B50640ACEE02B50650A7A
:10537400CEE02B50660ACDE02B50670ACDE02B50CF
:0C538400C80ACDE02B50C90ACDE0120091
:1053900001013B6B3B6B140E3B5D6FE23BC100F0C8
:1053A000000E016E070E046E000E056EB8EC03F0E1
:1053B000720E0026000E0122050E0024E96E000E7A
:1053C0000120EA6EEE50000A55E13BC100F0000EEC
:1053D000016E070E046E000E056EB8EC03F0720E3F
:1053E0000026000E0122010E0024E96E000E0120AD
:1053F000EA6EEECF01F0EECF02F0EECF03F0EECF8B
:1054000004F004501F1808E103501E1805E1025073
:105410001D1802E101501C182DE13BC100F0000EE7
:10542000016E070E046E000E056EB8EC03F0720EEE
:105430000026000E0122060E0024E96E000E012057
:10544000EA6EEE50000A16E13BC100F0000E016E5C
:10545000070E046E000E056EB8EC03F0720E002607
:10546000000E0122060E0024E16E000E0120E26E05
:0C547000010EE66E01013B2B8ED71200EE
:10547C003CEC0DF000C006F155EC0CF000C005F151
:10548C005FEC0CF000C0FEF024EC13F000C002F155
:10549C001EDE00C003F164DE00C004F101013B6BB1
:1054AC00140E3B5DD8B0DFD03BC100F0000E016E96
:1054BC00070E046E000E056EB8EC03F0720E00269B
:1054CC00000E0122050E0024E96E000E0120EA6E8A
:1054DC00EE50000AD8A4C4D03BC100F0000E016EFF
:1054EC00070E046E000E056EB8EC03F0720E00266B
:1054FC00000E0122060E0024E96E000E0120EA6E59
:10550C00EE50010AD8A4ACD00001FF51000A36E1DC
:10551C003BC100F0000E016E070E046E000E056E0E
:10552C00B8EC03F0720E0024026E000E0120036E24
:10553C0002C0E9FF03C0EAFFEECF00F000C0FFF0AD
:10554C00050E0224E16E000E0320E26E010EE66EE3
:10555C003BC100F0000E016E070E046E000E056ECE
:10556C00B8EC03F0720E0026000E0122060E002489
:10557C00E16E000E0120E26EE66A72D0010100516C
:10558C00000A36E13BC100F0000E016E070E046EFE
:10559C00000E056EB8EC03F0720E0024026E000EC5
:1055AC000120036E02C0E9FF03C0EAFFEECF00F05A
:1055BC0000C000F1050E0224E16E000E0320E26E25
:1055CC00010EE66E3BC100F0000E016E070E046E7C
:1055DC00000E056EB8EC03F0720E0026000E0122D0
:1055EC00060E0024E16E000E0120E26EE66A38D051
:1055FC000151000A35E13BC100F0000E016E070EAF
:10560C00046E000E056EB8EC03F0720E0024026EF0
:10561C00000E0120036E02C0E9FF03C0EAFFEECFCB
:10562C0000F000C001F1050E0224E16E000E032013
:10563C00E26E010EE66E3BC100F0000E016E070E2D
:10564C00046E000E056EB8EC03F0720E0026000E10
:10565C000122060E0024E16E000E0120E26EE66AC5
:08566C0001013B2B1DD71200C8
:0C5674000001FF6B0101006B016B1200D4
:10568000EFEC2EF0828AC7DD530E0101316F740EEC
:10569000326F610E336F720E346F740E356F200EE1
:1056A000366F2E0E376F2E0E386F2E0E396F3A6B07
:1056B000310E02017F6F010E806FC5EC0AF043507E
:1056C000010A06E1050E5D5C01E25D2A5FDD436AC9
:1056D0004250010A03E1CEDF5BDE426ACFDEFADD33
:0456E000EED7FFD72B
:105DDE0010EE1AF0490E006E010E016EE00EF66E18
:0E5DEE005C0EF76E000EF86E75EC05F01200FC
:1056E40020202020202020202020202020202020B6
:0156F40000B5
:1056F5003030204C6561726E696E67204D6F646550
:0157050000A3
:105706002020202020204175746F2020202020207A
:015716000092
:1057170020202020204D616E75616C2020202020E4
:015727000081
:105728003031204431204F70656E2054696D6520FA
:015738000070
:105739003032204432204F70656E2054696D6520E7
:01574900005F
:10574A00303320443120436C6F73652054696D6592
:01575A00004E
:10575B00303420443220436C6F73652054696D657F
:01576B00003D
:10576C003035204F7020536F6674205374617274FF
:01577C00002C
:10577D003036204F7020536F66742053746F702035
:01578D00001B
:10578E00303720436C20536F6674205374617274EB
:01579E00000A
:10579F00303820436C20536F66742053746F702021
:0157AF0000F9
:1057B000303920506F776572202020202020202053
:0157C00000E8
:1057C100313020496E74657276616C2054696D6563
:0157D10000D7
:1057D2003131204175746F2D636C6F7365205420D5
:0157E20000C6
:1057E300313220466163746F727920526573657438
:0157F30000B5
:1057F4003133204F70656E2050686F746F20456E92
:0158040000A3
:085805004E6F2020202020003E
:09580D00596573202020202000C1
:105816003134204C696D697420456E61626C652077
:015826000081
:085827004E6F2020202020001C
:09582F005965732020202020009F
:105838003135204C6F636B20466F726365202020E2
:01584800005F
:085849004E6F202020202000FA
:095851005965732020202020007D
:10585A0031362041752D436C20506173732020200E
:01586A00003D
:10586B0031372053617665204368616E676573201D
:01587B00002C
:10587C0031382044697363617264204578697420FF
:01588C00001B
:0F588D005333204D6F746F723153746172740016
:0F589C005333204D6F746F723253746172740006
:0F58AB005333204D6F746F723120466173740058
:0F58BA005333204D6F746F723120536C6F770032
:0F58C9005333204D6F746F723220466173740039
:0F58D8005333204D6F746F723220536C6F770013
:1058E7005333204F766572666C6F7720466C61671D
:0658F7003120536574002E
:1058FD005333204F766572666C6F7720466C616707
:06590D0032205365740016
:0F5913005333204D6F746F72312053746F7000D7
:0F5922005333204D6F746F72322053746F7000C7
:105931005333204D6F746F723120436F6C6C6973F8
:04594100696F6E001C
:105945005333204D6F746F723220436F6C6C6973E3
:04595500696F6E0008
:1059590053332050686F746F63656C6C20496E74A3
:01596900003D
:10596A0053332052656D6F74652053746F7065648C
:01597A00002C
:10597B005333204C696D69742053776974636820C5
:07598B0053746F70656400A6
:105992005333204D6F746F72732053746F7065644C
:0A59A200202852656D6F746529001E
:1059AC005333204175746F636C6F73652052656E51
:0559BC00657765640041
