:040000007EEF2FF070
:020006001200E6
:1000080000C019F001C018F004C017F008C016F0BD
:100018000CC015F0F2A42ED00001CE2B8186010E63
:10002800B16FE451FF0A03E1E46BE36B01D0E42B09
:100038000101E451FF0A04E1E46B0001E56B02D021
:100048000101E42B190E0001CE5D0FE3CE6B010E0A
:100058002C26000E2D222E222F22CA53010ED8A4A0
:10006800000ECA6F8196010EB26FF30ED76ECA0EDC
:10007800D66EF294F0A017D00001E351000A03E114
:10008800E32BE46B01D0E32B050EE35D0BE3130ECA
:10009800E45D07E3E451150804E3010EB36FE36B75
:1000A80001D0E36BF090F0A21DD00001E551000AE9
:1000B80004E1E52B0101E46B02D00001E52B00010E
:1000C800050EE55D0EE3130E0101E45D08E3E4515E
:1000D800150805E3010E0001B46FE56B02D00001BD
:1000E800E56BF092F2A22FD00001E22BE251FF0A59
:1000F80001E1E26B030E046EE2C000F066D808C0AE
:1001080000F00050010A0EE1E65305E0E85302E072
:10011800828201D08292E95305E0E75302E08280AF
:1001280001D08290030E046EE2C000F04ED808C0E1
:1001380000F00050000A06E1E65301E08282E9532C
:1001480001E08280F29219C000F018C001F017C0D7
:0C01580004F016C008F015C00CF01100F7
:10016400DCC4C9FFC7B002D00000FCD7C9CF00F07F
:02017400120077
:0E017600ACB202D00000FCD7DCC4ADFF12001A
:10018400086A096A100E0C6E0134083609360450E8
:10019400085E0550D8A0053C095ED8B007D00450CD
:1001A40008260550D8B0053C0926D89000360136FB
:0601B4000C2EEAD7120038
:1001BA00F250026EF29E0500FF6A0150FE6E005078
:0801CA00FD6E02BEF28E120070
:1001D200086A080E0C6E003408360450085ED8B067
:0E01E20002D00826D89000360C2EF5D7120059
:1001F0000401D86B030ED85D0AE2D851D625E16E12
:10020000000ED721E26E200EE66ED82BF3D7D85120
:10021000D625E16E000ED721E26EE66AD807D851E6
:10022000D625D96F000ED721DA6F0A0E046ED5C419
:1002300000F0CFDF08C000F0300E0026D9C4E1FF87
:10024000DAC4E2FF00C0E6FF0A0E046ED5C400F077
:10025000C0DF00C0D5F40050000A01E102D0D80789
:04026000DED71200D3
:10026400D7C404F0D8C405F0D5C402F0D6C403F052
:10027400D9C400F0DAC401F0010E0401D95F000E04
:10028400DA5B005001100FE004C0E9FF05C0EAFF8B
:1002940002C0E1FF03C0E2FFEECFE6FF024A032AF9
:1002A400044A052AE5D7D5C400F0D6C401F01200EB
:0A02B400030E0D6E0D2EFED7120092
:1002BE000B6A0A6A096A086A0E6A03340836045021
:1002CE00085E0550D8A0053C095E0650D8A0063C35
:1002DE000A5E0750D8A0073C0B5EE86AD8A0010E54
:1002EE000E5E0336070E0C6E0334083609360A36D8
:1002FE000B360E36045003A012D0085E0550D8A05F
:10030E00053C095E0650D8A0063C0A5E0750D8A0F0
:10031E00073C0B5EE86AD8A0010E0E5E11D00826CF
:10032E000550D8B0053C09260650D8B0063C0A2622
:10033E000750D8B0073C0B26E86AD8B0010E0E263F
:10034E0003360C2ED1D70234083609360A360B3650
:10035E000E36045003A012D0085E0550D8A0053CFE
:10036E00095E0650D8A0063C0A5E0750D8A0073C8E
:10037E000B5EE86AD8A0010E0E5E11D0082605505D
:10038E00D8B0053C09260650D8B0063C0A260750C0
:10039E00D8B0073C0B26E86AD8B0010E0E260236FE
:1003AE00070E0C6E0234083609360A360B360E3638
:1003BE00045002A012D0085E0550D8A0053C095E7C
:1003CE000650D8A0063C0A5E0750D8A0073C0B5E2C
:1003DE00E86AD8A0010E0E5E11D008260550D8B0DE
:1003EE00053C09260650D8B0063C0A260750D8B060
:1003FE00073C0B26E86AD8B0010E0E2602360C2EEC
:10040E00D1D70134083609360A360B360E3604506B
:10041E0002A012D0085E0550D8A0053C095E065019
:10042E00D8A0063C0A5E0750D8A0073C0B5EE86ACF
:10043E00D8A0010E0E5E11D008260550D8B0053C8E
:10044E0009260650D8B0063C0A260750D8B0073CFD
:10045E000B26E86AD8B0010E0E260136070E0C6E7A
:10046E000134083609360A360B360E36045001A012
:10047E0012D0085E0550D8A0053C095E0650D8A0E3
:10048E00063C0A5E0750D8A0073C0B5EE86AD8A06F
:10049E00010E0E5E11D008260550D8B0053C092677
:1004AE000650D8B0063C0A260750D8B0073C0B269B
:1004BE00E86AD8B0010E0E2601360C2ED1D70034C4
:1004CE00083609360A360B360E36045001A012D005
:1004DE00085E0550D8A0053C095E0650D8A0063C23
:1004EE000A5E0750D8A0073C0B5EE86AD8A0010E42
:1004FE000E5E11D008260550D8B0053C09260650D0
:10050E00D8B0063C0A260750D8B0073C0B26E86A3E
:10051E00D8B0010E0E260036070E0C6E00340836CB
:10052E0009360A360B360E36045000A012D0085E7D
:10053E000550D8A0053C095E0650D8A0063C0A5EC0
:10054E000750D8A0073C0B5EE86AD8A0010E0E5EDD
:10055E0011D008260550D8B0053C09260650D8B053
:10056E00063C0A260750D8B0073C0B26E86AD8B0DE
:10057E00010E0E2600360C2ED1D700B00ED0045030
:10058E0008260550D8B0053C09260650D8B0063CC2
:0C059E000A260750D8B0073C0B261200BC
:0C05AA00A60E0D6E0D2EFED700001200F4
:1005B600C4C1E1FFC5C1E2FFD5C4E6FFC2C100F078
:0805C600C3C101F0F7DD1200D2
:1005CE004ED00101D36BD46BFF0ED56F67D00101F6
:1005DE00900ED36F010ED46FC80ED56F5FD0010190
:1005EE00C20ED36F010ED46F960ED56F57D0010188
:1005FE00F40ED36F010ED46F640ED56F4FD0010180
:10060E00260ED36F020ED46F500ED56F47D0010158
:10061E00580ED36F020ED46F960ED56F3FD00101D8
:10062E00580ED36F020ED46F640ED56F37D0010102
:10063E00580ED36F020ED46F320ED56F2FD001012C
:10064E00BC0ED36F020ED46F640ED56F27D001018E
:10065E00BC0ED36F020ED46F320ED56F1FD00401B5
:10066E00D551000AAEE0D551010AB1E0D551020ACA
:10067E00B6E0D551030ABBE0D551040AC0E0D5510E
:10068E00050AC5E0D551060ACAE0D551070ACFE0E2
:0E069E00D551080AD4E0D551090AD9E012005E
:1006AC00A6A202D00000FCD7A69CD5C4A9FFD6C434
:1006BC00A8FFA69EA684F2CF00F0F29E550EA76E60
:1006CC00AA0EA76EA68200BE02D0F29E01D0F28EB8
:0406DC00A6941200CE
:1006E000480E0C6E6C0E0D6E0D2EFED70C2EFCD728
:0406F00000001200F4
:1006F4000401D96B050ED95D0AE2D951D725E16E03
:10070400000ED821E26E200EE66ED92BF3D7D95114
:10071400D725E16E000ED821E26EE66AD907D951D9
:10072400D725DA6F000ED821DB6F0A0E046E000E97
:10073400056ED5C400F0D6C401F022DD08C000F077
:1007440009C001F0300E0026DAC4E1FFDBC4E2FF89
:1007540000C0E6FF0A0E046E000E056ED5C400F05C
:10076400D6C401F00DDD00C0D5F401C0D6F4000EEE
:10077400011802E1000E001801E102D0D907CFD719
:02078400120061
:100786000B6A0A6A096A00500402F4CF09F0F3CF33
:1007960008F001500502F4CF0BF0F3CF0AF0005039
:1007A6000502F3500926F4500A22E86A0B2201508A
:1007B6000402F3500926F4500A22E86A0B2208C004
:1007C60000F009C001F00AC002F00BC003F01200ED
:1007D6000401CF6B0A0ECF5D0AE2CF51CD25E16E43
:1007E600000ECE21E26E300EE66ECF2BF3D7CF5140
:1007F600CD25E16E000ECE21E26EE66ACF07000E31
:10080600006ECC1908E10050CB1905E10050CA1959
:1008160002E1C951000A3EE0CF51CD25D06F000E4E
:10082600CE21D16F0A0E046E000E056E066E076E9F
:10083600C9C400F0CAC401F0CBC402F0CCC403F0B2
:100846003BDD08C000F009C001F00AC002F00BC091
:1008560003F0300E0026D0C4E1FFD1C4E2FF00C091
:10086600E6FFCF070A0E046E000E056E066E076ED3
:10087600C9C400F0CAC401F0CBC402F0CCC403F072
:100886001BDD00C0C9F401C0CAF402C0CBF403C02A
:06089600CCF4B5D71200FE
:10089C00C9C4D5F4CAC4D6F40401D633D533D69F13
:1008AC00CBC4D7F4CCC4D8F41FDF010EC915016E2C
:1008BC00CAC402F0000E0216000E021802E1010E6C
:1008CC00011817E1050ECB25D56F000ECC21D66F84
:1008DC002E0ECD6F350ECE6F730ECF6FD06BCD0E3F
:1008EC00D76F040ED86F040ED96F000EDA6FB4DC1C
:1008FC0016D0050ECB25D56F000ECC21D66F730EFE
:10090C00D16F200ED26F200ED36FD46BD10ED76F58
:10091C00040ED86F040ED96F000EDA6F9DDC120036
:10092C000401CC6BC9C4E9FFCAC4EAFFEECFCBF417
:10093C00CB51000A0EE0CBC4D5F437DE0401CC2B2E
:10094C00CC51C925E96E000ECA21EA6EEECFCBF46C
:04095C00EFD71200BF
:0A096000490E0D6E0D2EFED7120099
:10096A00A69CC9C4A9FFA69EA680A8CF00F0120023
:10097A000401C9BF02D0819E01D0818EC9BD02D0B7
:10098A00819C01D0818CC9BB02D0819A01D0818A15
:10099A00C9B902D0819801D081880101D2B102D0AF
:1009AA00848401D08494848280DC84920401C9B74F
:1009BA0002D0819E01D0818EC9B502D0819C01D01E
:1009CA00818CC9B302D0819A01D0818AC9B102D07F
:1009DA00819801D081880101D2B102D0848401D0EA
:1009EA008494848262DC8492D2A102D074DE01D023
:0409FA00D7DD120033
:1009FE00010E0401D56FD8C1D6F451DE020E0401EA
:100A0E00D56FD9C1D6F44BDE030E0401D56FD6C116
:100A1E00D6F445DE040E0401D56FD7C1D6F43FDE01
:100A2E00050E0401D56FDCC1D6F439DE060E0401C5
:100A3E00D56FDDC1D6F433DE070E0401D56FDAC1F2
:100A4E00D6F42DDE080E0401D56FDBC1D6F427DEF9
:100A5E00090E0401D56FE5C1D6F421DE0A0E04019C
:100A6E00D56FEAC1D6F41BDE0B0E0401D56FE9C1BA
:100A7E00D6F415DE0C0E0401D56F1DC1D6F40FDEB3
:100A8E0001011D5109080401D56F9ADD0D0E0401F7
:100A9E00D56FE8C1D6F403DE0E0E0401D56FE6C1A4
:100AAE00D6F4FDDD0F0E0401D56FE7C1D6F4F7DDE8
:0E0ABE00100E0401D56FEBC1D6F4F1DD12006D
:100ACC000401CC6BC9C4E9FFCAC4EAFFEECFCBF476
:100ADC00CB51000A0FE0CBC4DCF4BBEC00F00401FA
:100AEC00CC2BCC51C925E96E000ECA21EA6EEECF93
:060AFC00CBF4EED712005E
:100B02000900F5CFE6FF0006FBE10106F9E112005C
:100B1200C9C4D5F40401D533D59FCAC4D6F4CBC415
:100B2200D7F4F8EC00F0010EC915016E0150010A6C
:100B320018E1030ECA25D56F000ECB21D66F2E0EFB
:100B4200CC6F350ECD6F730ECE6FCF6BCC0ED76FD1
:100B5200040ED86F040ED96F000EDA6F32EC01F07A
:100B620017D0030ECA25D56F000ECB21D66F730E98
:100B7200D06F200ED16F200ED26FD36BD00ED76FF5
:100B8200040ED86F040ED96F000EDA6F32EC01F04A
:020B920012004F
:100B94000101BA510301201905E10101BA6B010EEB
:100BA400006E12000101BB510301201905E101018E
:100BB400BB6B010E006E12000101BC510301201930
:100BC40005E10101BC6B010E006E1200006A120007
:100BD40003012051010A04E10001E06B0101BE910F
:100BE40003012051020A04E10001E16B0101BE93FB
:020BF4001200ED
:100BF6000301216B140E215D41E221C300F0000EBA
:100C0600016E070E046E000E056EBADD290E002673
:100C1600010E0122050E0024E96E000E0120EA6E87
:100C2600EE50000A29E121C300F0000E016E070E06
:100C3600046E000E056EA4DD290E0024E96E010E79
:100C46000120EA6EEECF01F00150201915E021C314
:100C560000F0000E016E070E046E000E056E90DDAC
:100C6600290E0026010E0122050E0024E16E000E5B
:0E0C76000120E26E010EE66E212BBCD71200AB
:100C8400C26AC00EC212C18CC18E20C300F00036ED
:100C9400009000360090003600900050C212C280CE
:100CA4005DDEC284C2A401D0FDD7C4CF01F0006AC6
:0C0CB400C3500012000E0112C29012008A
:100CC00003012051010A0AE1010E0001E66F030150
:100CD00021B102D0829801D0828882822051020AFA
:100CE0000AE1010E0001E96F030121B102D08296F1
:080CF00001D08286828012000F
:100CF800EA0E0401D56F000ED66F660EF66E5F0E13
:100D0800F76E000EF86E200EE16E030EE26E110E05
:100D1800006E010E016EF1DE200ED76F030ED86F44
:100D2800100ED96F000EDA6F32EC01F00001CB51D2
:100D3800000A64E10C0E0401D56F010ED66F770E20
:100D4800F66E5F0EF76E000EF86E310EE16E030E52
:100D5800E26E110E006E010E016ECFDE310ED76FFE
:100D6800030ED86F100ED96F000EDA6F32EC01F057
:100D7800010E00018A6FB651000A1EE1EA0E040155
:100D8800D56F000ED66F880EF66E5F0EF76E000EEA
:100D9800F86E420EE16E030EE26E110E006E010E49
:100DA800016EABDE420ED76F030ED86F100ED96FEF
:100DB800000EDA6F32EC01F00001B651010A1EE1B3
:100DC800EA0E0401D56F000ED66F990EF66E5F0E0F
:100DD800F76E000EF86E530EE16E030EE26E110E02
:100DE800006E010E016E89DE530ED76F030ED86FA9
:100DF800100ED96F000EDA6F32EC01F00001CB5102
:100E0800010A29E10C0E0401D56F010ED66FAA0E56
:100E1800F66E5F0EF76E000EF86E640EE16E030E4E
:100E2800E26E110E006E010E016E67DE640ED76F62
:100E3800030ED86F100ED96F000EDA6F32EC01F086
:100E4800010E00018A6FD8C1C9F4F00E0401CA6FFF
:100E5800000ECB6F5ADE0001CB51020A29E10C0EBD
:100E68000401D56F010ED66FBB0EF66E5F0EF76EDE
:100E7800000EF86E750EE16E030EE26E110E006E36
:100E8800010E016E3ADE750ED76F030ED86F100E85
:100E9800D96F000EDA6F32EC01F0010E00018A6F93
:100EA800D9C1C9F4F00E0401CA6F000ECB6F2DDE54
:100EB8000001CB51030A29E10C0E0401D56F010E84
:100EC800D66FCC0EF66E5F0EF76E000EF86E860EBD
:100ED800E16E030EE26E110E006E010E016E0DDE64
:100EE800860ED76F030ED86F100ED96F000EDA6F0B
:100EF80032EC01F0010E00018A6FD6C1C9F4F00E80
:100F08000401CA6F000ECB6F00DE0001CB51040A4A
:100F180029E10C0E0401D56F010ED66FDD0EF66EB9
:100F28005F0EF76E000EF86E970EE16E030EE26E1E
:100F3800110E006E010E016EE0DD970ED76F030EE5
:100F4800D86F100ED96F000EDA6F32EC01F0010E77
:100F580000018A6FD7C1C9F4F00E0401CA6F000EF0
:100F6800CB6FD3DD0001CB51050A29E10C0E04013A
:100F7800D56F010ED66FEE0EF66E5F0EF76E000E91
:100F8800F86EA80EE16E030EE26E110E006E010EF1
:100F9800016EB3DDA80ED76F030ED86F100ED96F90
:100FA800000EDA6F32EC01F0010E00018A6FDDC12C
:100FB800C9F4F00E0401CA6F000ECB6FA6DD000164
:100FC800CB51060A29E10C0E0401D56F010ED66F2C
:100FD800FF0EF66E5F0EF76E000EF86EB90EE16E3C
:100FE800030EE26E110E006E010E016E86DDB90E63
:100FF800D76F030ED86F100ED96F000EDA6F32EC70
:1010080001F0010E00018A6FDAC1C9F4F00E040183
:10101800CA6F000ECB6F79DD0001CB51070A29E1B9
:101028000C0E0401D56F010ED66F100EF66E600E11
:10103800F76E000EF86ECA0EE16E030EE26E110E28
:10104800006E010E016E59DDCA0ED76F030ED86F00
:10105800100ED96F000EDA6F32EC01F0010E0001AC
:101068008A6FDBC1C9F4F00E0401CA6F000ECB6FA2
:101078004CDD0001CB51080A29E10C0E0401D56FA3
:10108800010ED66F210EF66E600EF76E000EF86E2A
:10109800DB0EE16E030EE26E110E006E010E016EA4
:1010A8002CDDDB0ED76F030ED86F100ED96F000E34
:1010B800DA6F32EC01F0010E00018A6FE5C1C9F464
:1010C800F00E0401CA6F000ECB6F1FDD0001CB517B
:1010D800090A2DE10C0E0401D56F010ED66F320EF0
:1010E800F66E600EF76E000EF86EEC0EE16E030EF3
:1010F800E26E110E006E010E016EFFDCEC0ED76F72
:10110800030ED86F100ED96F000EDA6F32EC01F0B3
:10111800010E00018A6F1DC1D5F4F00E0401D66FCF
:10112800000ED76FF8EC00F0200E0001F36FCB51E2
:101138000A0A29E10C0E0401D56F010ED66F430E81
:10114800F66E600EF76E000EF86EFD0EE16E030E81
:10115800E26E110E006E010E016ECFDCFD0ED76F30
:10116800030ED86F100ED96F000EDA6F32EC01F053
:10117800010E00018A6FDCC1C9F4F00E0401CA6FC8
:10118800000ECB6FC2DC0001CB510B0A2CE10C0E18
:101198000401D56F010ED66F540EF66E600EF76E11
:1011A800000EF86E0E0EE16E040EE26E110E006E69
:1011B800010E016EA2DC0E0ED76F040ED86F100E52
:1011C800D96F000EDA6F32EC01F0010E00018A6F60
:1011D800E9C1C9F4EAC1CAF4EE0E0401CB6F000EEE
:1011E800CC6F4EEC04F00001CB510C0A21E10C0E3F
:1011F8000401D56F010ED66F650EF66E600EF76EA0
:10120800000EF86E1F0EE16E040EE26E110E006EF7
:10121800010E016E72DC1F0ED76F040ED86F100E10
:10122800D96F000EDA6F32EC01F0010E00018A6FFF
:10123800CB510D0A64E10C0E0401D56F010ED66F77
:10124800760EF66E600EF76E000EF86E300EE16EDA
:10125800040EE26E110E006E010E016E4EDC300EB1
:10126800D76F040ED86F100ED96F000EDA6F32ECFC
:1012780001F0010E00018A6F0101E751000A1FE128
:10128800F00E0401D56F000ED66F4E0E416F6F0E33
:10129800426F200E436F200E446F200E456F200EC4
:1012A800466F200E476F486B410ED76F040ED86FFC
:1012B800070ED96F000EDA6F32EC01F020D004016E
:1012C800F00ED56F000ED66F590E496F650E4A6F36
:1012D800730E4B6F200E4C6F200E4D6F200E4E6F0D
:1012E800200E4F6F200E506F516B490ED76F040EB2
:1012F800D86F080ED96F000EDA6F32EC01F00001DA
:10130800CB510E0A65E10C0E0401D56F010ED66FA4
:10131800980EF66E600EF76E000EF86E520EE16EC5
:10132800040EE26E110E006E010E016E81EC05F0E6
:10133800520ED76F040ED86F100ED96F000EDA6FE9
:1013480032EC01F0010E00018A6F0101EB51000A35
:101358001FE1F00E0401D56F000ED66F4E0E636FBD
:101368006F0E646F200E656F200E666F200E676F1C
:10137800200E686F200E696F6A6B630ED76F040EBC
:10138800D86F070ED96F000EDA6F32EC01F020D05B
:101398000401F00ED56F000ED66F590E6B6F650EF7
:1013A8006C6F730E6D6F200E6E6F200E6F6F200EB8
:1013B800706F200E716F200E726F736B6B0ED76F8C
:1013C800040ED86F080ED96F000EDA6F32EC01F0F8
:1013D8000001CB510F0A65E10C0E0401D56F010E17
:1013E800D66FBA0EF66E600EF76E000EF86E740EBB
:1013F800E16E040EE26E110E006E010E016E81ECBC
:1014080005F0740ED76F040ED86F100ED96F000E4A
:10141800DA6F32EC01F0010E00018A6F0101E6512A
:10142800000A1FE1F00E0401D56F000ED66F4E0EB4
:10143800856F6F0E866F200E876F200E886F200EC7
:10144800896F200E8A6F200E8B6F8C6B850ED76F7D
:10145800040ED86F070ED96F000EDA6F32EC01F068
:1014680020D00401F00ED56F000ED66F590E8D6F87
:10147800650E8E6F730E8F6F200E906F200E916F1A
:10148800200E926F200E936F200E946F956B8D0E29
:10149800D76F040ED86F080ED96F000EDA6F32ECD2
:1014A80001F00001CB51100A2BE10C0E0401D56F9D
:1014B800010ED66FDC0EF66E600EF76E000EF86E3B
:1014C800960EE16E040EE26E110E006E010E016EB4
:1014D80081EC05F0960ED76F040ED86F100ED96FF9
:1014E800000EDA6F32EC01F0010E00018A6FE8C1DC
:1014F800C9F4F00E0401CA6F000ECB6F89EC05F039
:101508000001CB51110A22E10C0E0401D56F010E26
:10151800D66FED0EF66E600EF76E000EF86EA70E23
:10152800E16E040EE26E110E006E010E016E81EC8A
:1015380005F0A70ED76F040ED86F100ED96F000EE6
:10154800DA6F32EC01F0010E00018A6FCB51120AFA
:1015580022E10C0E0401D56F010ED66FFE0EF66E59
:10156800600EF76E000EF86EB80EE16E040EE26EB5
:10157800110E006E010E016E81EC05F0B80ED76FEA
:10158800040ED86F100ED96F000EDA6F32EC01F02E
:0C159800010E00018A6F650EB06F12009A
:1015A400140E0101D86F140ED66F140ED96F140ED9
:1015B400D76F050E1D6F040E0401D56FE7EC02F022
:1015C4000A0E0101DA6F040EDD6F0A0EE56F040ED8
:1015D400DB6F0C0EDC6FE96BEA6BE66BE76BEB6BB6
:0815E400E86BFFEC04F01200BB
:1015EC0003012051000A04E02151000A01E002D05D
:1015FC00F28801D0F29820C3E8F021C3E7F0120082
:10160C0003012051010A03E10001E66B8292030100
:0E161C002051020A03E10001E96B82901200E6
:10162A002CC0C9F42DC0CAF42EC0CBF42FC0CCF400
:10163A00220E0401CD6F030ECE6FEBEC03F0220EE7
:10164A00C96F030ECA6F96EC04F03A0E03012D6FB0
:10165A00200E2E6F2F6B2D0E0401C96F030ECA6F59
:10166A0066EC05F020C3C9F421C3CAF466EC05F0A0
:10167A000A0EDC6FBBEC00F00D0E0401DC6FBBEC54
:04168A0000F012005A
:10168E000301256B140E255D72E225C300F0000EDA
:10169E00016E070E046E000E056EC3EC03F0290EEC
:1016AE000026010E0122050E0024E96E000E012017
:1016BE00EA6EEE50010A59E125C300F0000E016EEC
:1016CE00070E046E000E056EC3EC03F0290E002407
:1016DE00E16E010E0120E26E24C3E6FF25C300F089
:1016EE00000E016E070E046E000E056EC3EC03F0C5
:1016FE00290E0026010E0122010E0024E16E000EBD
:10170E000120E26E20C3E6FF21C3E6FF22C3E6FFFF
:10171E0023C3E6FF25C300F0000E016E070E046E14
:10172E00000E056EC3EC03F0290E0026010E0122F9
:10173E00050E0024E16E000E0120E26EE66A25C35E
:10174E0000F0000E016E070E046E000E056EC3EC67
:10175E0003F0290E0026010E0122060E0024E16E72
:10176E00000E0120E26EE66A02D0252B8BD7120006
:10177E000301206B140E205D60E220C300F0000E0A
:10178E00016E070E046E000E056EC3EC03F0290EFB
:10179E000026010E0122050E0024E96E000E012026
:1017AE00EA6EEE50000A31E120C300F0000E016E29
:1017BE00070E046E000E056EC3EC03F0290E002416
:1017CE00E96E010E0120EA6EEECF01F00150090A1A
:1017DE001CE120C300F0000E016E070E046E000E19
:1017EE00056EC3EC03F0290E0026010E0122010E38
:1017FE000024E96E000E0120EA6EEECF21F3EECF4B
:10180E0022F3EECF23F3EECF24F320C300F0000E2D
:10181E00016E070E046E000E056EC3EC03F0290E6A
:10182E000026010E0122050E0024E16E000E01209D
:10183E00E26E010EE66E202B9DD72C50215D006EC0
:06184E0000C020F31200AF
:10185400010E0401C96FB5EC04F000C0D8F1020E0A
:10186400C96FB5EC04F000C0D9F1030EC96FB5EC33
:1018740004F000C0D6F1040EC96FB5EC04F000C04A
:10188400D7F1050EC96FB5EC04F000C0DCF1060E0B
:10189400C96FB5EC04F000C0DDF1070EC96FB5ECFB
:1018A40004F000C0DAF1080EC96FB5EC04F000C012
:1018B400DBF1090EC96FB5EC04F000C0E5F10A0EC6
:1018C400C96FB5EC04F000C0E9F1000E0101EA6F44
:1018D400E9C1EAF1E96B0B0E0401C96FB5EC04F040
:1018E40000500101E913000EEA130C0E0401C96F44
:1018F400B5EC04F000C01DF100500908D56FE7EC09
:1019040002F00D0E0401C96FB5EC04F000C0E8F15B
:101914000E0EC96FB5EC04F000C0E6F10F0EC96FEE
:10192400B5EC04F000C0E7F1100EC96FB5EC04F09B
:0619340000C0EBF11200FF
:10193A000101D29120C3C9F4BDEC04F0D281120096
:10194A0083A203D083A401D003D0010E006E12003B
:04195A00006A12000D
:10195E000201076B086B096B050E0301206F42EC49
:10196E0006F000C007F201C008F200C002F001C08C
:10197E0003F003320232039E03320232039E000E44
:10198E00006E0350005C02E10250A00812E207C292
:10199E0001F008C202F002320132029E023201321E
:1019AE00029E000E025C02E1B90E015C02E202012F
:1019BE00098507C201F008C202F002320132029E0E
:1019CE0002320132029E000E006E0250005C02E1F5
:1019DE000150640812E207C201F008C202F002329E
:1019EE000132029E02320132029E000E025C02E1C0
:1019FE00A00E015C02E20201098307C201F008C2D7
:101A0E0002F002320132029E02320132029E000EBA
:101A1E00025C02E1320E015C02E202010981020166
:101A2E000951000A1BE10001CC51000A08E1010135
:101A3E00E36B0001CC6B0201066B0101E26B00014E
:101A4E00CC51010A0BE1050ECD5D08E30101E36BFC
:101A5E000001CC6B0201066B0101E26B0201095120
:101A6E00000A23E00001CC51010A1FE10101E351FC
:101A7E00000A1BE1030EDE25016E000EDF21026E51
:101A8E00000EE021036E000EE121046E2F500418AB
:101A9E0008E12E50031805E12D50021802E12C50DA
:101AAE00011803E10101010EE36F02010951000A61
:101ABE000AE00001CC51010A06E10101E351000ADE
:101ACE0002E10201066B02010951000A0FE000015A
:101ADE00CC51010A0BE10101E351010A07E10201B8
:101AEE0009510101E203F3CF06F2E26B0201095143
:101AFE00000A11E00001CC51000A0DE109C206F204
:101B0E00010ECC6F2CC0DEF12DC0DFF12EC0E0F146
:101B1E002FC0E1F1CD6B0101E351010A0DE10A0E77
:101B2E00046ECEC000F0E9EC00F008C000F00050EA
:0E1B3E00000A02E1010EE26F06C200F0120082
:101B4C000201066B83B601D0068183B801D00683EF
:061B5C0006C200F01200B9
:101B6200010E0001C96F0101B9A312D00001C96BB6
:101B7200CA6B650EB06FCB51000A0AE1B651000A7A
:101B820002E1C80EB06FB651010A02E1C90EB06F90
:101B92000001CB51000A18E10101B9A109D00001ED
:101BA200B651000805E2B6077CEC06F0660EB06F8F
:101BB2000101B9A509D0010E0001B65D05E2B62BFF
:101BC2007CEC06F0660EB06F0001CB51010A16E103
:101BD2000101B9A108D0D851000805E2D8077CEC70
:101BE20006F0660EB06F0101B9A508D0FF0ED85DF0
:101BF20005E2D82B7CEC06F0660EB06F0001CB51EB
:101C0200020A16E10101B9A108D0D951000805E282
:101C1200D9077CEC06F0660EB06F0101B9A508D0B9
:101C2200FF0ED95D05E2D92B7CEC06F0660EB06F93
:101C32000001CB51030A16E10101B9A108D0D65126
:101C4200000805E2D6077CEC06F0660EB06F0101D3
:101C5200B9A508D0FF0ED65D05E2D62B7CEC06F0C6
:101C6200660EB06F0001CB51040A16E10101B9A161
:101C720008D0D751000805E2D7077CEC06F0660EC3
:101C8200B06F0101B9A508D0FF0ED75D05E2D72BD1
:101C92007CEC06F0660EB06F0001CB51050A16E12E
:101CA2000101B9A108D0DD51000805E2DD077CEC95
:101CB20006F0660EB06F0101B9A508D0FF0EDD5D1A
:101CC20005E2DD2B7CEC06F0660EB06F0001CB5115
:101CD200060A16E10101B9A108D0DA51000805E2AD
:101CE200DA077CEC06F0660EB06F0101B9A508D0E8
:101CF200FF0EDA5D05E2DA2B7CEC06F0660EB06FC1
:101D02000001CB51070A16E10101B9A108D0DB514C
:101D1200000805E2DB077CEC06F0660EB06F0101FD
:101D2200B9A508D0FF0EDB5D05E2DB2B7CEC06F0EB
:101D3200660EB06F0001CB51080A16E10101B9A18C
:101D420008D0E551000805E2E5077CEC06F0660ED6
:101D5200B06F0101B9A508D0FF0EE55D05E2E52BE4
:101D62007CEC06F0660EB06F0001CB51090A16E159
:101D72000101B9A108D01D51000805E21D077CEC44
:101D820006F0660EB06F0101B9A508D0090E1D5DFF
:101D920005E21D2B7CEC06F0660EB06F0001CB5104
:101DA2000A0A16E10101B9A108D0DC51000805E2D6
:101DB200DC077CEC06F0660EB06F0101B9A508D015
:101DC200FF0EDC5D05E2DC2B7CEC06F0660EB06FEC
:101DD2000001CB510B0A22E10101B9A110D0000E82
:101DE200006EEA51005C02E1E951000808E2010ECE
:101DF200E95F000EEA5B7CEC06F0660EB06F010153
:101E0200B9A50CD0FD0EEA5D02E1E80EE95D06E23D
:101E1200E94BEA2B7CEC06F0660EB06F0001CB5169
:101E22000C0A47E1B06B0C0E0401D56F010ED66FA0
:101E3200E60EF66E650EF76E000EF86E060EE16E99
:101E4200020EE26E110E006E010E016E81EC05F0C3
:101E5200060ED76F020ED86F100ED96F000EDA6F12
:101E620032EC01F0EA0ED56F000ED66FF70EF66E69
:101E7200650EF76E000EF86E170EE16E020EE26E40
:101E8200110E006E010E016E81EC05F0170ED76F78
:101E9200020ED86F100ED96F000EDA6F32EC01F01D
:101EA2000001C96BCA6B010E8A6FD2EC0AF0FFEC1B
:101EB20004F00001CB510D0A16E10101B9A108D0CD
:101EC200E751000805E2E7077CEC06F0660EB06F0A
:101ED2000101B9A508D0010EE75D05E2E72B7CEC14
:101EE20006F0660EB06F0001CB510E0A16E1010139
:101EF200B9A108D0EB51000805E2EB077CEC06F033
:101F0200660EB06F0101B9A508D0010EEB5D05E2C6
:101F1200EB2B7CEC06F0660EB06F0001CB510F0A82
:101F220016E10101B9A108D0E651000805E2E60771
:101F32007CEC06F0660EB06F0101B9A508D0010E67
:101F4200E65D05E2E62B7CEC06F0660EB06F000162
:101F5200CB51100A1FE10101B9A10CD0E8510008D0
:101F620009E2E807E851090A01E1E86B7CEC06F0B6
:101F7200660EB06F0101B9A50DD0FF0EE85D0AE251
:101F8200E82BE851010A02E10A0EE86F7CEC06F048
:101F9200660EB06F0001CB51110A43E1670EB06FBC
:101FA2000C0E0401D56F010ED66F080EF66E660E8A
:101FB200F76E000EF86E280EE16E020EE26E110E42
:101FC200006E010E016E81EC05F0280ED76F020E35
:101FD200D86F100ED96F000EDA6F32EC01F0EA0EF4
:101FE200D56F000ED66F190EF66E660EF76E000EE6
:101FF200F86E390EE16E020EE26E110E006E010EE7
:10200200016E81EC05F0390ED76F020ED86F100EFB
:10201200D96F000EDA6F32EC01F00001C96B010ECC
:102022008A6FCB51120A44E1B06B0C0E0401D56FDA
:10203200010ED66F2A0EF66E660EF76E000EF86E61
:102042004A0EE16E020EE26E110E006E010E016E7C
:1020520081EC05F04A0ED76F020ED86F100ED96FC1
:10206200000EDA6F32EC01F0EA0ED56F000ED66F79
:102072003B0EF66E660EF76E000EF86E5B0EE16EAC
:10208200020EE26E110E006E010E016E81EC05F081
:102092005B0ED76F020ED86F100ED96F000EDA6F7B
:1020A20032EC01F00001C96B010E8A6F2AEC0CF0D0
:0220B20012001A
:1020B40010D0800E0201066F1AD0C00E066F17D022
:1020C400940E066F14D0D40E066F11D0800E066FD6
:1020D4000ED002010651010AECE00651020AEDE0BD
:1020E4000651030AEDE00651040AEDE0EFD70705B7
:1020F400006E0651002600C006F200C0C9F4BDEC13
:1021040004F0D29102010A6B0A510825E96E000E0F
:102114000921EA6EEE520CE00A510825E96E000E20
:102124000921EA6EEECF20F306DC02010A2BECD77C
:062134000101D28112003E
:10213A00969296949398939A939C939E849284945D
:10214A00819E819C819A819870EC03F070EC03F077
:10215A0070EC03F0818A818884825AEC01F08492BF
:10216A0070EC03F084825AEC01F0849270EC03F074
:10217A0084825AEC01F0849270EC03F08198848294
:10218A005AEC01F0849270EC03F084825AEC01F06C
:10219A008492819A818E84825AEC01F0849270EC46
:1021AA0003F0819E818884825AEC01F0849281989E
:1021BA0084825AEC01F0849270EC03F084825AEC27
:1021CA0001F08492818884825AEC01F0849270EC46
:1021DA0003F0819884825AEC01F08492818E818C7A
:1021EA00818A818884825AEC01F0849270EC03F02F
:0621FA000101D281120078
:0A220000FFEC04F00001B06B1200C7
:10220A00760E0101C26F010EC36FDC0EC46F040E9D
:10221A00C56FFF0ECE6FFF0ECF6F000ED06F000E90
:10222A00D16FFF0ECA6FFF0ECB6F000ECC6F000E80
:10223A00CD6FFF0EC66FFF0EC76F000EC86F000E80
:10224A00C96FAC8A900EAB6E948E949C9EAA03D0F2
:08225A00AECF00F0FBD712002B
:02226200120068
:102264008284010E0301206FCAEC05F000524BE09A
:10227400010E0301206F216B60EC06F0530E020186
:10228400066F370E076F200E086F4D0E096F6F0E25
:102294000A6F740E0B6F6F0E0C6F720E0D6F310E92
:1022A4000E6F530E0F6F740E106F610E116F720E5E
:1022B400126F740E136F146B060E0301206F020E5F
:1022C400216F15EC0BF00C0E0401D56F010ED66FC7
:1022D400B70ED76F000ED86F100ED96F000EDA6FDD
:1022E40032EC01F0EA0ED56F000ED66F790ED76F7F
:1022F400000ED86F100ED96F000EDA6F32EC01F0B9
:10230400010E00018A6F020E0301206FCAEC05F072
:1023140000522BE0020E0301206F216B60EC06F0EB
:10232400530E0201156F370E166F200E176F4D0EE8
:10233400186F6F0E196F740E1A6F6F0E1B6F720E7B
:102344001C6F320E1D6F530E1E6F740E1F6F610EC5
:10235400206F720E216F740E226F236B150E030112
:10236400206F020E216F15EC0BF00A0E0301206F93
:10237400CAEC05F000521FE0010E00018B6F010E44
:102384000301206FEAEC05F0370EF66E650EF76E6A
:10239400000EF86E240EE16E020EE26E150E006E53
:1023A400010E016E81EC05F0240E0301206F020E74
:1023B400216F15EC0BF00B0E0301206FCAEC05F036
:1023C40000521EE0010E776E020E0301206FEAEC4C
:1023D40005F04C0EF66E650EF76E000EF86E390EB3
:1023E400E16E020EE26E150E006E010E016E81ECBE
:1023F40005F0390E0301206F020E216F15EC0BF06E
:10240400050E0301206FCAEC05F000522DE0010E09
:102414000301206FE7C021F3F6EC0AF0766A530E4D
:1024240002014E6F370E4F6F200E506F4D0E516FDD
:10243400310E526F200E536F530E546F700E556F42
:10244400650E566F650E576F640E586F200E596FE8
:10245400550E5A6F500E5B6F5C6B4E0E0301206F6E
:10246400020E216F15EC0BF0060E0301206FCAEC6F
:1024740005F000522DE0E8C020F3010E0301216FA6
:10248400F6EC0AF0786A530E02015D6F370E5E6F48
:10249400200E5F6F4D0E606F320E616F200E626F03
:1024A400530E636F700E646F650E656F650E666F15
:1024B400640E676F200E686F550E696F500E6A6F59
:1024C4006B6B5D0E0301206F020E216F15EC0BF098
:1024D400030E0301206FCAEC05F0005209E100016C
:1024E4008B51010A04E10101BEA101D001D029D020
:1024F40075A027D07590010E0301206F06EC0BF038
:10250400530E02016C6F370E6D6F200E6E6F4D0E01
:102514006F6F310E706F200E716F530E726F740EE9
:10252400736F6F0E746F700E756F650E766F640E39
:10253400776F786B6C0E0301206F020E216F15EC20
:102544000BF0040E0301206FCAEC05F0005208E101
:102554007750010A04E10101BEA301D001D029D0C2
:1025640075A227D07592020E0301206F06EC0BF0C2
:10257400530E0201796F370E7A6F200E7B6F4D0E6A
:102584007C6F320E7D6F200E7E6F530E7F6F740E44
:10259400806F6F0E816F700E826F650E836F640E95
:1025A400846F856B790E0301206F020E216F15EC89
:1025B4000BF00101D951000A05E00001AE51010AF6
:1025C40001E001D075920101BFA14DD0010E0301BC
:1025D400206F06EC0BF0020E0301206F06EC0BF0EB
:1025E40000018B6B776A060EB06F010EC86F990EEF
:1025F400F66E650EF76E000EF86E860EE16E020E34
:10260400E26E110E006E010E016E81EC05F0860E75
:102614000301206F020E216F15EC0BF0090E03016C
:10262400206FFBEC05F00C0E0401D56F010ED66F84
:102634008C0ED76F000ED86F100ED96F000EDA6FA4
:1026440032EC01F0EA0ED56F000ED66F300ED76F64
:10265400000ED86F100ED96F000EDA6F32EC01F055
:10266400010E00018A6F0101BDA14BD0010E0301CF
:10267400206F06EC0BF0020E0301206F06EC0BF04A
:10268400060E0001B06F8B6B776AAA0EF66E650EAC
:10269400F76E000EF86E970EE16E020EE26E120EE9
:1026A400006E010E016E81EC05F0970E0301206FA0
:1026B400020E216F15EC0BF0090E0301206FFBECE9
:1026C40005F00C0E0401D56F010ED66F8C0ED76F7A
:1026D400000ED86F100ED96F000EDA6F32EC01F0D5
:1026E400EA0ED56F000ED66F410ED76F000ED86F6D
:1026F400100ED96F000EDA6F32EC01F0010E0001FA
:102704008A6F0101C051010A4DE1EB534BE0010E08
:102714000301206F06EC0BF0020E0301206F06ECA0
:102724000BF0060E0001B06F8B6B776ABC0EF66E71
:10273400650EF76E000EF86EA90EE16E020EE26EE3
:10274400150E006E010E016E81EC05F0A90E030159
:10275400206F020E216F15EC0BF0090E0301206FA0
:10276400FBEC05F00C0E0401D56F010ED66F8C0E38
:10277400D76F000ED86F100ED96F000EDA6F32ECDF
:1027840001F0EA0ED56F000ED66F520ED76F000E11
:10279400D86F100ED96F000EDA6F32EC01F0010E13
:1027A40000018A6F7550000A29E10001010EB06F23
:1027B4001A6A090E0301206FFBEC05F00C0E0401EC
:1027C400D56F010ED66FCF0ED76F000ED86F100ED7
:1027D400D96F000EDA6F32EC01F0EA0ED56F000EFD
:1027E400D66F790ED76F000ED86F100ED96F000E0A
:1027F400DA6F32EC01F0010E00018A6F0001B05172
:10280400050A04E0B051060A01E046D00301206B3A
:10281400FBEC05F0000E0101EA1902E1000EE919D2
:102824003BE0E9512C240301206F0101EA512D20E2
:102834000301216F000E2E20226F000E2F20236F24
:10284400090E246F47EC0BF0D10EF66E650EF76E91
:10285400000EF86EBE0EE16E020EE26E150E006EF4
:10286400010E016E81EC05F0BE0E206F020E216F89
:1028740015EC0BF0EA0E0401D56F000ED66F640E52
:10288400D76F000ED86F100ED96F000EDA6F32ECCE
:0A28940001F0010E00018A6F12002E
:10289E000201066B0001B3B103D00201069102D012
:1028AE00020106810001B4B103D00201069302D0E9
:1028BE00020106830001B36BB46B83B602D0D880DD
:1028CE0001D0D890020106B103D002E2069101D0E8
:1028DE00068183B802D0D88001D0D89006B303D039
:0E28EE0002E2069301D0068306C200F012003B
:1028FC00020E02013C6F82940101BD51000A09E1F4
:10290C00090E0301206FCAEC05F00050010A01E02A
:10291C00B1D3090E0301206FFBEC05F00101D75177
:10292C00000A05E00001AE51010A01E03CD10201B0
:10293C003C512C24006E000E2D20016E000E2E201A
:10294C00026E000E2F20036E00C0B5F101C0B6F16F
:10295C0002C0B7F103C0B8F100C020F301C021F3ED
:10296C0002C022F303C023F3010E0301246F47ECD2
:10297C000BF00101DB51000A10E0B5C120F3B6C128
:10298C0021F3B7C122F3B8C123F3070E0301246F5F
:10299C0047EC0BF0010E766E0ED00301B5C120F39F
:1029AC00B6C121F3B7C122F3B8C123F3050E246FCE
:1029BC0047EC0BF0766A0101DB512C24006E000E03
:1029CC002D20016E000E2E20026E000E2F20036EA5
:1029DC00020E0026000E01220222032202013C51AB
:1029EC000026000E01220222032200C0B5F101C014
:1029FC00B6F102C0B7F103C0B8F100C020F301C0BA
:102A0C0021F302C022F303C023F30A0E0301246F47
:102A1C0047EC0BF00101DB512C24006E000E2D2035
:102A2C00016E000E2E20026E000E2F20036E02018E
:102A3C003C510026000E01220222032200C0B5F1F7
:102A4C0001C0B6F102C0B7F103C0B8F100C020F369
:102A5C0001C021F302C022F303C023F3050E0301CE
:102A6C00246F47EC0BF00101E551000A2EE0D65122
:102A7C002C24006E000E2D20016E000E2E20026EF6
:102A8C00000E2F20036EE551005E000E015A025A13
:102A9C00035A02013C510026000E0122022203229D
:102AAC0000C0B5F101C0B6F102C0B7F103C0B8F176
:102ABC0000C020F301C021F302C022F303C023F3B2
:102ACC00070E0301246F47EC0BF00101E651000ADD
:102ADC0041E0D6512C24006E000E2D20016E000E0C
:102AEC002E20026E000E2F20036E02013C51002698
:102AFC00000E01220222032200C0B5F101C0B6F182
:102B0C0002C0B7F103C0B8F100C020F301C021F33B
:102B1C0002C022F303C023F3050E0301246F47EC1C
:102B2C000BF0030E0101B5250301206F000E01010E
:102B3C00B6210301216F000E0101B7210301226FA1
:102B4C00000E0101B8210301236F030E246F47EC23
:102B5C000BF029D00101D6512C24006E000E2D2033
:102B6C00016E000E2E20026E000E2F20036E02014D
:102B7C003C510026000E01220222032200C0B5F1B6
:102B8C0001C0B6F102C0B7F103C0B8F100C020F328
:102B9C0001C021F302C022F303C023F3030E03018F
:102BAC00246F47EC0BF00101D751000AD8B45BD26B
:102BBC00020E0001AE6F02013C512C24006E000E7F
:102BCC002D20016E000E2E20026E000E2F20036EA3
:102BDC0000C0B5F101C0B6F102C0B7F103C0B8F145
:102BEC0000C020F301C021F302C022F303C023F381
:102BFC00020E0301246F47EC0BF00101DB51000ABC
:102C0C0010E0B5C120F3B6C121F3B7C122F3B8C1AE
:102C1C0023F3080E0301246F47EC0BF0010E786EC2
:102C2C000ED00301B5C120F3B6C121F3B7C122F315
:102C3C00B8C123F3060E246F47EC0BF0786A010140
:102C4C00DB512C24006E000E2D20016E000E2E2068
:102C5C00026E000E2F20036E020E0026000E0122C3
:102C6C000222032202013C510026000E0122022204
:102C7C00032200C0B5F101C0B6F102C0B7F103C028
:102C8C00B8F100C020F301C021F302C022F303C04D
:102C9C0023F30B0E0301246F47EC0BF00101DB5106
:102CAC002C24006E000E2D20016E000E2E20026EC4
:102CBC00000E2F20036E02013C510026000E012253
:102CCC000222032200C0B5F101C0B6F102C0B7F177
:102CDC0003C0B8F100C020F301C021F302C022F3FD
:102CEC0003C023F3060E0301246F47EC0BF0010124
:102CFC00E551000A2EE0D7512C24006E000E2D2039
:102D0C00016E000E2E20026E000E2F20036EE55178
:102D1C00005E000E015A025A035A02013C51002671
:102D2C00000E01220222032200C0B5F101C0B6F14F
:102D3C0002C0B7F103C0B8F100C020F301C021F309
:102D4C0002C022F303C023F3080E0301246F47ECE7
:102D5C000BF00101D7512C24006E000E2D20016EBA
:102D6C00000E2E20026E000E2F20036E02013C512D
:102D7C000026000E01220222032200C0B5F101C080
:102D8C00B6F102C0B7F103C0B8F100C020F301C026
:102D9C0021F302C022F303C023F3040E0301246FBA
:102DAC0047EC0BF00101DC512C24006E000E2D20A1
:102DBC00016E000E2E20026E000E2F20036E0201FB
:102DCC003C510026000E01220222032200C0B5F164
:102DDC0001C0B6F102C0B7F103C0B8F100C020F3D6
:102DEC0001C021F302C022F303C023F3010E03013F
:102DFC00246F47EC0BF00101DB51000A10E0B5C168
:102E0C0020F3B6C121F3B7C122F3B8C123F3070EE7
:102E1C000301246F47EC0BF0010E766E0ED003010C
:102E2C00B5C120F3B6C121F3B7C122F3B8C123F366
:102E3C00050E246F47EC0BF0766A0101DC512C2453
:102E4C00006E000E2D20016E000E2E20026E000E64
:102E5C002F20036EDB510026000E012202220322DA
:102E6C00020E0026000E01220222032202013C5116
:102E7C000026000E01220222032200C0B5F101C07F
:102E8C00B6F102C0B7F103C0B8F100C020F301C025
:102E9C0021F302C022F303C023F30A0E0301246FB3
:102EAC0047EC0BF00101DC512C24006E000E2D20A0
:102EBC00016E000E2E20026E000E2F20036EDB51D1
:102ECC000026000E01220222032202013C510026A0
:102EDC00000E01220222032200C0B5F101C0B6F19E
:102EEC0002C0B7F103C0B8F100C020F301C021F358
:102EFC0002C022F303C023F3050E0301246F47EC39
:102F0C000BF00101E551000A34E0DC512C24006E79
:102F1C00000E2D20016E000E2E20026E000E2F20B2
:102F2C00036ED6510026000E012202220322E55127
:102F3C00005E000E015A025A035A02013C5100264F
:102F4C00000E01220222032200C0B5F101C0B6F12D
:102F5C0002C0B7F103C0B8F100C020F301C021F3E7
:102F6C0002C022F303C023F3070E0301246F47ECC6
:102F7C000BF00101E651000A47E0D6512C24006EFB
:102F8C00000E2D20016E000E2E20026E000E2F2042
:102F9C00036EDC510026000E0122022203220201E4
:102FAC003C510026000E01220222032200C0B5F182
:102FBC0001C0B6F102C0B7F103C0B8F100C020F3F4
:102FCC0001C021F302C022F303C023F3050E030159
:102FDC00246F47EC0BF0030E0101B5250301206FA4
:102FEC00000E0101B6210301216F000E0101B72172
:102FFC000301226F000E0101B8210301236F030EA0
:10300C00246F47EC0BF02FD00101D6512C24006E0D
:10301C00000E2D20016E000E2E20026E000E2F20B1
:10302C00036EDC510026000E012202220322020153
:10303C003C510026000E01220222032200C0B5F1F1
:10304C0001C0B6F102C0B7F103C0B8F100C020F363
:10305C0001C021F302C022F303C023F3030E0301CA
:10306C00246F47EC0BF0030E756E00018B6B776AC7
:10307C00040EB06F0101BFA125D0000EEA1902E1C8
:10308C00000EE9191FE01A50000A1CE1010E1A6E1D
:10309C00BFEC0BF000C063F0BA0EF66E660EF76E66
:1030AC00000EF86E060EE16E020EE26E160E006E4B
:1030BC00010E016E81EC05F0060E206F020E216FE1
:1030CC0015EC0BF01A50010AD8A4ADD00101BFB118
:1030DC00AAD0000EEA1902E1000EE919D8B4A3D067
:1030EC00E851000A50E163502C24006E000E2D2094
:1030FC00016E000E2E20026E000E2F20036E00C0FB
:10310C00B5F101C0B6F102C0B7F103C0B8F100C00F
:10311C0020F301C021F302C022F303C023F3090EF4
:10312C000301246F47EC0BF01A6AB5C1C9F4B6C1A0
:10313C00CAF4B7C1CBF4B8C1CCF41E0E0401CD6FE8
:10314C00010ECE6FEBEC03F0D00EF66E660EF76E42
:10315C00000EF86E1C0EE16E020EE26E100E006E8A
:10316C00010E016E81EC05F01C0E0301206F020EA6
:10317C00216F15EC0BF01E0E0301206F010E216F59
:10318C0015EC0BF050D00101E8512C24006E000E10
:10319C002D20016E000E2E20026E000E2F20036ECD
:1031AC0000C0B5F101C0B6F102C0B7F103C0B8F16F
:1031BC0000C020F301C021F302C022F303C023F3AB
:1031CC00090E0301246F47EC0BF01A6AB5C1C9F460
:1031DC00B6C1CAF4B7C1CBF4B8C1CCF41E0E04010D
:1031EC00CD6F010ECE6FEBEC03F0E00EF66E660EBB
:1031FC00F76E000EF86E2C0EE16E020EE26E100EE3
:10320C00006E010E016E81EC05F02C0E0301206F97
:10321C00020E216F15EC0BF01E0E0301206F010E38
:08322C00216F15EC0BF01200FC
:103234008284010E0301206FCAEC05F000524DE0B8
:10324400010E0301206F010E216F60EC06F0530E96
:103254000201066F380E076F200E086F4D0E096FBE
:103264006F0E0A6F740E0B6F6F0E0C6F720E0D6F74
:10327400310E0E6F530E0F6F740E106F610E116FBF
:10328400720E126F740E136F146B060E0301206F0F
:10329400020E216F15EC0BF0839E0C0E0401D56F0A
:1032A400010ED66FFB0ED76F000ED86F100ED96FBC
:1032B400000EDA6F32EC01F0EA0ED56F000ED66F15
:1032C400790ED76F000ED86F100ED96F000EDA6F1B
:1032D40032EC01F0010E00018A6F020E0301206F2F
:1032E400CAEC05F000522DE0020E0301206F010E1E
:1032F400216F60EC06F0530E0201156F380E166F45
:10330400200E176F4D0E186F6F0E196F740E1A6F13
:103314006F0E1B6F720E1C6F320E1D6F530E1E6FDD
:10332400740E1F6F610E206F720E216F740E226F68
:10333400236B150E0301206F020E216F15EC0BF0A9
:10334400839E0A0E0301206FCAEC05F000521FE0B1
:10335400010E00018B6F010E0301206FEAEC05F0F2
:103364005C0EF66E640EF76E000EF86E240EE16EBF
:10337400020EE26E160E006E010E016E81EC05F077
:10338400240E0301206F020E216F15EC0BF00B0EBF
:103394000301206FCAEC05F000521EE0010E776EA7
:1033A400020E0301206FEAEC05F0720EF66E640E55
:1033B400F76E000EF86E3A0EE16E020EE26E160E15
:1033C400006E010E016E81EC05F03A0E0301206FD0
:1033D400020E216F15EC0BF0050E0301206FCAECF1
:1033E40005F000522DE0010E0301206FE7C021F328
:1033F400F6EC0AF0766A530E0201506F380E516FE4
:10340400200E526F4D0E536F6F0E546F740E556F26
:103414006F0E566F720E576F310E586F200E596F24
:10342400460E5A6F610E5B6F730E5C6F740E5D6FA8
:103434005E6B500E0301206F020E216F15EC0BF032
:10344400060E0301206FCAEC05F000522DE0E8C01F
:1034540020F3010E0301216FF6EC0AF0786A530E93
:1034640002015F6F380E606F200E616F4D0E626F48
:103474006F0E636F740E646F6F0E656F720E666FFE
:10348400320E676F200E686F460E696F610E6A6FA9
:10349400730E6B6F740E6C6F6D6B5F0E0301206F98
:1034A400020E216F15EC0BF0030E0301206FCAEC22
:1034B40005F0005209E100018B51010A04E1010108
:1034C400BEA101D001D02ED00001AFA12BD0AF916D
:1034D400010E0301206F06EC0BF0530E02016E6F18
:1034E400380E6F6F200E706F4D0E716F6F0E726F0E
:1034F400740E736F6F0E746F720E756F310E766F7C
:10350400200E776F530E786F740E796F6F0E7A6F8B
:10351400700E7B6F7C6B6E0E0301206F020E216FA9
:1035240015EC0BF0040E0301206FCAEC05F00052F9
:1035340008E17750010A04E10101BEA301D001D0E2
:103544002ED00001AFA32BD0AF93020E0301206F46
:1035540006EC0BF0530E02017D6F380E7E6F200EC9
:103564007F6F4D0E806F6F0E816F740E826F6F0EC2
:10357400836F720E846F320E856F200E866F530E2A
:10358400876F740E886F6F0E896F700E8A6F8B6BE6
:103594007D0E0301206F020E216F15EC0BF00C0E53
:1035A4000301206FCAEC05F0005201E0838E010193
:1035B400D951000A05E00001AE51010A01E002D030
:1035C4000001AF930101BFA14DD0E7534BE0010EC1
:1035D4000301206F06EC0BF0020E0301206F06ECD2
:1035E4000BF000018B6B776A050EB06FC40EF66E9C
:1035F400640EF76E000EF86E8C0EE16E020EE26E33
:10360400110E006E010E016E81EC05F08C0E0301AB
:10361400206F020E216F15EC0BF0090E0301206FD1
:10362400FBEC05F00C0E0401D56F010ED66F8C0E69
:10363400D76F000ED86F100ED96F000EDA6F32EC10
:1036440001F0EA0ED56F000ED66F300ED76F000E64
:10365400D86F100ED96F000EDA6F32EC01F0010E44
:1036640000018A6F0101BDA14BD0010E0301206F3F
:1036740006EC0BF0020E0301206F06EC0BF0050EB6
:103684000001B06F8B6B776AD50EF66E640EF76E21
:10369400000EF86E9D0EE16E020EE26E1A0E006EC2
:1036A400010E016E81EC05F09D0E0301206F020EE8
:1036B400216F15EC0BF0090E0301206FFBEC05F0F4
:1036C4000C0E0401D56F010ED66F8C0ED76F000E51
:1036D400D86F100ED96F000EDA6F32EC01F0EA0EDB
:1036E400D56F000ED66F410ED76F000ED86F100E37
:1036F400D96F000EDA6F32EC01F0010E00018A6F0F
:103704000101C051010A4DE1EB534BE0010E0301ED
:10371400206F06EC0BF0020E0301206F06EC0BF099
:10372400050E0001B06F8B6B776AEF0EF66E640EB8
:10373400F76E000EF86EB70EE16E020EE26E150E15
:10374400006E010E016E81EC05F0B70E0301206FCF
:10375400020E216F15EC0BF0090E0301206FFBEC38
:1037640005F00C0E0401D56F010ED66F8C0ED76FC9
:10377400000ED86F100ED96F000EDA6F32EC01F024
:10378400EA0ED56F000ED66F520ED76F000ED86FAB
:10379400100ED96F000EDA6F32EC01F0010E000149
:1037A4008A6F0001AF51000A28E1020EB06F1A6A55
:1037B400090E0301206FFBEC05F00C0E0401D56F1C
:1037C400010ED66F1B0ED76F000ED86F100ED96F77
:1037D400000EDA6F32EC01F0EA0ED56F000ED66FF0
:1037E400790ED76F000ED86F100ED96F000EDA6FF6
:1037F40032EC01F0010E00018A6FB051050A04E0B9
:10380400B051060A01E046D00301206BFBEC05F041
:10381400000E0101EA1902E1000EE9193BE0E95149
:103824002C240301206F0101EA512D200301216F93
:10383400000E2E20226F000E2F20236F090E246FFE
:1038440047EC0BF0040EF66E650EF76E000EF86E84
:10385400CC0EE16E020EE26E150E006E010E016ECC
:1038640081EC05F0CC0E206F020E216F15EC0BF0ED
:10387400EA0E0401D56F000ED66F640ED76F000EEA
:10388400D86F100ED96F000EDA6F32EC01F0010E12
:0638940000018A6F120022
:10389A00030E02013C6F82940101BD51000A04E14A
:1038AA000001C85301E117D10001C86B8284090ED7
:1038BA000301206FFBEC05F0010E2C24206F000E93
:1038CA002D20216F000E2E20226F000E2F20236F35
:1038DA000C0E246F47EC0BF002013C512C24006EB5
:1038EA00000E2D20016E000E2E20026E000E2F20DB
:1038FA00036E00C0B5F101C0B6F102C0B7F103C052
:10390A00B8F100C020F301C021F302C022F303C0C2
:10391A0023F3010E0301246F47EC0BF0B5C120F32A
:10392A00B6C121F3B7C122F3B8C123F3050E246F40
:10393A0047EC0BF0766A020E2C24006E000E2D2046
:10394A00016E000E2E20026E000E2F20036E020161
:10395A003C510026000E01220222032200C0B5F1CA
:10396A0001C0B6F102C0B7F103C0B8F100C020F33C
:10397A0001C021F302C022F303C023F30A0E03019C
:10398A00246F47EC0BF00101D8512C24006E000E75
:10399A002D20016E000E2E20026E000E2F20036EC7
:1039AA0002013C510026000E01220222032200C01D
:1039BA00B5F101C0B6F102C0B7F103C0B8F100C059
:1039CA0020F301C021F302C022F303C023F3030E44
:1039DA000301246F47EC0BF00101D951000A73E08F
:1039EA000001AE51020A6FE10101DC512C240301EE
:1039FA00206F000E2D20216F000E2E20226F000E48
:103A0A002F20236F02013C5103012027000E21239E
:103A1A0022232323020E246F47EC0BF00101DC5111
:103A2A002C240301206F000E2D20216F000E2E2062
:103A3A00226F000E2F20236F02013C510301202721
:103A4A00000E212322232323060E246F47EC0BF0BA
:103A5A00786A0101DC512C240301206F000E2D200D
:103A6A00216F000E2E20226F000E2F20236F020ED0
:103A7A002027000E21232223232302013C51030184
:103A8A002027000E2123222323230B0E246F47EC29
:103A9A000BF00101D9512C240301206F000E2D20B7
:103AAA00216F000E2E20226F000E2F20236F02019D
:103ABA003C5103012027000E212322232323040E35
:103ACA00246F47EC0BF0030E0001AF6F8B6B776A24
:103ADA001A6A080EB06F090E0301206FCAEC05F0CE
:103AEA000050010AD8A404D1090E0301206FFBEC8F
:103AFA0005F002013C512C24006E000E2D20016EAF
:103B0A00000E2E20026E000E2F20036E00C0B5F1AB
:103B1A0001C0B6F102C0B7F103C0B8F100C020F38A
:103B2A0001C021F302C022F303C023F3010E0301F3
:103B3A00246F47EC0BF0B5C120F3B6C121F3B7C12E
:103B4A0022F3B8C123F3050E246F47EC0BF0766A13
:103B5A00020E2C24006E000E2D20016E000E2E2067
:103B6A00026E000E2F20036E02013C510026000E49
:103B7A0001220222032200C0B5F101C0B6F102C03F
:103B8A00B7F103C0B8F100C020F301C021F302C0AD
:103B9A0022F303C023F30A0E0301246F47EC0BF050
:103BAA000101D6512C24006E000E2D20016E000E4C
:103BBA002E20026E000E2F20036E02013C510026B9
:103BCA00000E01220222032200C0B5F101C0B6F1A3
:103BDA0002C0B7F103C0B8F100C020F301C021F35D
:103BEA0002C022F303C023F3030E0301246F47EC40
:103BFA000BF00101D751000A73E00001AE51020A2D
:103C0A006FE10101DC512C240301206F000E2D20ED
:103C1A00216F000E2E20226F000E2F20236F02012B
:103C2A003C5103012027000E212322232323020EC5
:103C3A00246F47EC0BF00101DC512C240301206FA7
:103C4A00000E2D20216F000E2E20226F000E2F2035
:103C5A00236F02013C5103012027000E2123222356
:103C6A002323060E246F47EC0BF0786A0101DC511E
:103C7A002C240301206F000E2D20216F000E2E2010
:103C8A00226F000E2F20236F020E2027000E212301
:103C9A002223232302013C5103012027000E212362
:103CAA00222323230B0E246F47EC0BF00101D6517C
:103CBA002C240301206F000E2D20216F000E2E20D0
:103CCA00226F000E2F20236F02013C51030120278F
:103CDA00000E212322232323040E246F47EC0BF02A
:103CEA00030E756E00018B6B776A1A6A070EB06F46
:103CFA000101BFA125D0000EEA1902E1000EE9195F
:103D0A001FE01A50000A1CE1010E1A6EBFEC0BF0FC
:103D1A0000C063F0830EF66E660EF76E000EF86E44
:103D2A00060EE16E020EE26E160E006E010E016EB6
:103D3A0081EC05F0060E206F020E216F15EC0BF0D8
:103D4A001A50010A58E10101BFB155D0000EEA1913
:103D5A0002E1000EE9194FE063502C24006E000EB8
:103D6A002D20016E000E2E20026E000E2F20036EF3
:103D7A0000C0B5F101C0B6F102C0B7F103C0B8F195
:103D8A0000C020F301C021F302C022F303C023F3D1
:103D9A00090E0301246F47EC0BF01A6AB5C1C9F486
:103DAA00B6C1CAF4B7C1CBF4B8C1CCF41E0E040133
:103DBA00CD6F010ECE6FEBEC03F0990EF66E660E28
:103DCA00F76E000EF86E1C0EE16E020EE26E100E19
:103DDA00006E010E016E81EC05F01C0E0301206FCE
:103DEA00020E216F15EC0BF01E0E0301206F010E5F
:083DFA00216F15EC0BF0120023
:103E02008284010E0301206FCAEC05F000524DE0DE
:103E1200010E0301206F010E216F60EC06F0530EBC
:103E22000201066F330E076F200E086F4D0E096FE9
:103E32006F0E0A6F740E0B6F6F0E0C6F720E0D6F9A
:103E4200310E0E6F530E0F6F740E106F610E116FE5
:103E5200720E126F740E136F146B060E0301206F35
:103E6200020E216F15EC0BF0839E0C0E0401D56F30
:103E7200010ED66FFB0ED76F000ED86F100ED96FE2
:103E8200000EDA6F32EC01F0EA0ED56F000ED66F3B
:103E9200790ED76F000ED86F100ED96F000EDA6F41
:103EA20032EC01F0010E00018A6F020E0301206F55
:103EB200CAEC05F000522DE0020E0301206F010E44
:103EC200216F60EC06F0530E0201156F330E166F70
:103ED200200E176F4D0E186F6F0E196F740E1A6F3A
:103EE2006F0E1B6F720E1C6F320E1D6F530E1E6F04
:103EF200740E1F6F610E206F720E216F740E226F8F
:103F0200236B150E0301206F020E216F15EC0BF0CF
:103F1200839E050E0301206FCAEC05F000522FE0CC
:103F2200010E0301206FE7C021F3F6EC0AF0000155
:103F32008B6B766A530E0201246F330E256F200EAF
:103F4200266F4D0E276F6F0E286F740E296F6F0E3E
:103F52002A6F720E2B6F310E2C6F200E2D6F460EB4
:103F62002E6F610E2F6F730E306F740E316F326BC6
:103F7200240E0301206F020E216F15EC0BF0070EC9
:103F82000301206FCAEC05F000522DE00301206B03
:103F9200E7C021F3F6EC0AF0010E766E530E020131
:103FA200336F330E346F200E356F4D0E366F6F0E3A
:103FB200376F740E386F6F0E396F720E3A6F310EA3
:103FC2003B6F200E3C6F530E3D6F6C0E3E6F6F0EBB
:103FD2003F6F770E406F416B330E0301206F020E6D
:103FE200216F15EC0BF0060E0301206FCAEC05F0F1
:103FF20000522EE0E8C020F3010E0301216FF6EC1F
:104002000AF0776A786A530E0201426F330E436FE9
:10401200200E446F4D0E456F6F0E466F740E476F44
:104022006F0E486F720E496F320E4A6F200E4B6F41
:10403200460E4C6F610E4D6F730E4E6F740E4F6FC6
:10404200506B420E0301206F020E216F15EC0BF034
:10405200080E0301206FCAEC05F000522DE0E8C003
:1040620020F30301216BF6EC0AF0010E786E530E79
:104072000201516F330E526F200E536F4D0E546F6B
:104082006F0E556F740E566F6F0E576F720E586F1C
:10409200320E596F200E5A6F530E5B6F6C0E5C6FAF
:1040A2006F0E5D6F770E5E6F5F6B510E0301206FB7
:1040B200020E216F15EC0BF00A0E0301206FCAEC01
:1040C20005F000521FE0010E00018B6F010E03018B
:1040D200206FEAEC05F0690EF66E610EF76E000EC7
:1040E200F86E600EE16E020EE26E160E006E010EAA
:1040F200016E81EC05F0600E0301206F020E216F4C
:1041020015EC0BF00B0E0301206FCAEC05F0005208
:104112001EE0010E776E020E0301206FEAEC05F03D
:104122007F0EF66E610EF76E000EF86E760EE16E81
:10413200020EE26E160E006E010E016E81EC05F0AB
:10414200760E0301206F020E216F15EC0BF0030EA9
:104152000301206FCAEC05F000522CE00001AF9180
:10416200010E0301206F06EC0BF0530E02018C6F5F
:10417200330E8D6F200E8E6F4D0E8F6F6F0E906F00
:10418200740E916F6F0E926F720E936F310E946F69
:10419200200E956F530E966F740E976F6F0E986F79
:1041A200700E996F9A6B8C0E0301206F020E216FB5
:1041B20015EC0BF0040E0301206FCAEC05F000525F
:1041C2002CE00001AF93020E0301206F06EC0BF00E
:1041D200530E02019B6F330E9C6F200E9D6F4D0E8E
:1041E2009E6F6F0E9F6F740EA06F6F0EA16F720E97
:1041F200A26F320EA36F200EA46F530EA56F740E22
:10420200A66F6F0EA76F700EA86FA96B9B0E0301AE
:10421200206F020E216F15EC0BF00C0E0301206FC4
:10422200CAEC05F0005201E0838E00018B51010AB5
:1042320051E10101BEA14ED07650000A4BE1010EC0
:104242000301206F06EC0BF0020E0301206F06EC57
:104252000BF0050E0001B06F8B6B776AB30EF66E32
:10426200610EF76E000EF86EAA0EE16E020EE26E9D
:10427200140E006E010E016E81EC05F0AA0E030110
:10428200206F020E216F15EC0BF0090E0301206F57
:10429200FBEC05F00C0E0401D56F010ED66F8C0EEF
:1042A200D76F000ED86F100ED96F000EDA6F32EC96
:1042B20001F0EA0ED56F000ED66F9D0ED76F000E7D
:1042C200D86F100ED96F000EDA6F32EC01F0010ECA
:1042D20000018A6F7750010A51E10101BEA34ED05D
:1042E2007850000A4BE1010E0301206F06EC0BF03F
:1042F200020E0301206F06EC0BF0050E0001B06FF9
:104302008B6B776AC70EF66E610EF76E000EF86E53
:10431200BE0EE16E020EE26E140E006E010E016E12
:1043220081EC05F0BE0E0301206F020E216F15EC29
:104332000BF0090E0301206FFBEC05F00C0E0401DB
:10434200D56F010ED66F8C0ED76F000ED86F100E80
:10435200D96F000EDA6F32EC01F0EA0ED56F000E63
:10436200D66F9D0ED76F000ED86F100ED96F000E4C
:10437200DA6F32EC01F0010E00018A6F0101D951AE
:10438200000A05E00001AE51010A01E002D000017D
:10439200AF930101BFA14DD0E7534BE0010E0301E2
:1043A200206F06EC0BF0020E0301206F06EC0BF0FF
:1043B20000018B6B776A050EB06FDB0EF66E610E35
:1043C200F76E000EF86ED20EE16E020EE26E110E64
:1043D200006E010E016E81EC05F0D20E0301206F1A
:1043E200020E216F15EC0BF0090E0301206FFBEC9E
:1043F20005F00C0E0401D56F010ED66F8C0ED76F2F
:10440200000ED86F100ED96F000EDA6F32EC01F089
:10441200EA0ED56F000ED66F300ED76F000ED86F32
:10442200100ED96F000EDA6F32EC01F0010E0001AE
:104432008A6F0101BDA14BD0010E0301206F06EC72
:104442000BF0020E0301206F06EC0BF000018B6BE8
:10445200776A050EB06FEC0EF66E610EF76E000E07
:10446200F86EE30EE16E020EE26E110E006E010EA8
:10447200016E81EC05F0E30E0301206F020E216F45
:1044820015EC0BF0090E0301206FFBEC05F00C0E8E
:104492000401D56F010ED66F8C0ED76F000ED86F48
:1044A200100ED96F000EDA6F32EC01F0EA0ED56F02
:1044B200000ED66F410ED76F000ED86F100ED96F57
:1044C200000EDA6F32EC01F0010E00018A6F010179
:1044D200C051010A4DE1EB534BE0010E0301206F85
:1044E20006EC0BF0020E0301206F06EC0BF000014C
:1044F2008B6B776A050EB06FFD0EF66E610EF76E6E
:10450200000EF86EF40EE16E020EE26E170E006EF1
:10451200010E016E81EC05F0F40E0301206F020E14
:10452200216F15EC0BF0090E0301206FFBEC05F077
:104532000C0E0401D56F010ED66F8C0ED76F000ED4
:10454200D86F100ED96F000EDA6F32EC01F0EA0E5E
:10455200D56F000ED66F520ED76F000ED86F100EA9
:10456200D96F000EDA6F32EC01F0010E00018A6F92
:104572000001AF51000A28E1020EB06F1A6A090E5B
:104582000301206FFBEC05F00C0E0401D56F010E48
:10459200D66F1B0ED76F000ED86F100ED96F000E9C
:1045A200DA6F32EC01F0EA0ED56F000ED66F790E9B
:1045B200D76F000ED86F100ED96F000EDA6F32EC83
:1045C20001F0010E00018A6FB051050A04E0B051FA
:1045D200060A01E046D00301206BFBEC05F0000E59
:1045E2000101EA1902E1000EE9193BE0E9512C242C
:1045F2000301206F0101EA512D200301216F000EFA
:104602002E20226F000E2F20236F090E246F47ECFD
:104612000BF0140EF66E620EF76E000EF86E0B0EB5
:10462200E16E030EE26E150E006E010E016E81EC5C
:1046320005F00B0E206F030E216F15EC0BF0EA0E46
:104642000401D56F000ED66F640ED76F000ED86FBF
:10465200100ED96F000EDA6F32EC01F0010E00017C
:044662008A6F120049
:104666008284BAC1D5F40C0E0401D66F010ED76F41
:10467600F8EC00F0BBC1D5F4EA0ED66F000ED76F8A
:10468600F8EC00F0010E00018A6F010E0301206FA5
:10469600CAEC05F000524BE0010E0301206F216BBE
:1046A60060EC06F0530E0201066F340E076F200E03
:1046B600086F4D0E096F6F0E0A6F740E0B6F6F0E3B
:1046C6000C6F720E0D6F310E0E6F530E0F6F740E50
:1046D600106F610E116F720E126F740E136F146BE2
:1046E600060E0301206F020E216F15EC0BF00C0E67
:1046F6000401D56F010ED66FB70ED76F000ED86FB7
:10470600100ED96F000EDA6F32EC01F0EA0ED56F9B
:10471600000ED66F790ED76F000ED86F100ED96FB8
:10472600000EDA6F32EC01F0010E00018A6F020E04
:104736000301206FCAEC05F000522BE0020E0301C4
:10474600206F216B60EC06F0530E0201156F340EDC
:10475600166F200E176F4D0E186F6F0E196F740EB1
:104766001A6F6F0E1B6F720E1C6F320E1D6F530E7B
:104776001E6F740E1F6F610E206F720E216F740E06
:10478600226F236B150E0301206F020E216F15ECAD
:104796000BF00A0E0301206FCAEC05F000521FE071
:1047A600010E00018B6F010E0301206FEAEC05F08C
:1047B600470EF66E620EF76E000EF86E240EE16E70
:1047C600020EE26E150E006E010E016E81EC05F012
:1047D600240E0301206F020E216F15EC0BF00B0E59
:1047E6000301206FCAEC05F000521EE0010E776E41
:1047F600020E0301206FEAEC05F05C0EF66E620E07
:10480600F76E000EF86E390EE16E020EE26E150EB0
:10481600006E010E016E81EC05F0390E0301206F6A
:10482600020E216F15EC0BF0050E0301206FCAEC8A
:1048360005F000522FE0010E0301206FE7C021F3BF
:10484600F6EC0AF000018B6B766A530E02014E6F8E
:10485600340E4F6F200E506F4D0E516F310E526F4A
:10486600200E536F530E546F700E556F650E566FB4
:10487600650E576F640E586F200E596F550E5A6F9E
:10488600500E5B6F5C6B4E0E0301206F020E216FA4
:1048960015EC0BF0070E0301206FCAEC05F0005271
:1048A6001FE00301206BE7C021F3F6EC0AF0776AFC
:1048B600010E766E800EF66E620EF76E000EF86EC4
:1048C6005D0EE16E020EE26E110E006E010E016EBD
:1048D60081EC05F05D0E206F020E216F15EC0BF0DA
:1048E600060E0301206FCAEC05F000522DE0E8C069
:1048F60020F3010E0301216FF6EC0AF0786A530EDD
:1049060002016E6F340E6F6F200E706F4D0E716F59
:10491600320E726F200E736F530E746F700E756FBA
:10492600650E766F650E776F640E786F200E796F61
:10493600550E7A6F500E7B6F7C6B6E0E0301206FE7
:10494600020E216F15EC0BF0080E0301206FCAEC66
:1049560005F000521EE0E8C020F30301216BF6ECDF
:104966000AF0010E786EA00EF66E620EF76E000E5D
:10497600F86E7D0EE16E020EE26E110E006E010EF5
:10498600016E81EC05F07D0E206F020E216F15EC95
:104996000BF0030E0301206FCAEC05F0005227E06E
:1049A6007590010E0301206F06EC0BF0530E020109
:1049B6008E6F340E8F6F200E906F4D0E916F310EED
:1049C600926F200E936F530E946F740E956F6F0E49
:1049D600966F700E976F650E986F640E996F9A6B4F
:1049E6008E0E0301206F020E216F15EC0BF0040EE4
:1049F6000301206FCAEC05F0005227E07592020E03
:104A06000301206F06EC0BF0530E02019B6F340E70
:104A16009C6F200E9D6F4D0E9E6F320E9F6F200E67
:104A2600A06F530EA16F740EA26F6F0EA36F700E60
:104A3600A46F650EA56F640EA66FA76B9B0E030190
:104A4600206F020E216F15EC0BF000018B51010A4D
:104A560051E10101BEA14ED07650000A4BE1010E94
:104A66000301206F06EC0BF0020E0301206F06EC2B
:104A76000BF0060E0001B06F8B6B776ACB0EF66EED
:104A8600620EF76E000EF86EA80EE16E020EE26E72
:104A9600110E006E010E016E81EC05F0A80E0301E9
:104AA600206F020E216F15EC0BF0090E0301206F2B
:104AB600FBEC05F00C0E0401D56F010ED66F8C0EC3
:104AC600D76F000ED86F100ED96F000EDA6F32EC6A
:104AD60001F0EA0ED56F000ED66F9D0ED76F000E51
:104AE600D86F100ED96F000EDA6F32EC01F0010E9E
:104AF60000018A6F7750010A51E10101BEA34ED031
:104B06007850000A4BE1010E0301206F06EC0BF012
:104B1600020E0301206F06EC0BF0060E0001B06FCB
:104B26008B6B776ADC0EF66E620EF76E000EF86E11
:104B3600B90EE16E020EE26E110E006E010E016EEE
:104B460081EC05F0B90E0301206F020E216F15EC02
:104B56000BF0090E0301206FFBEC05F00C0E0401AF
:104B6600D56F010ED66F8C0ED76F000ED86F100E54
:104B7600D96F000EDA6F32EC01F0EA0ED56F000E37
:104B8600D66F9D0ED76F000ED86F100ED96F000E20
:104B9600DA6F32EC01F0010E00018A6F0101D95182
:104BA600000A05E00001AE51010A01E001D075924C
:104BB6000101BFA14DD0010E0301206F06EC0BF0E1
:104BC600020E0301206F06EC0BF000018B6B776A77
:104BD600060EB06F010EC86FED0EF66E620EF76E22
:104BE600000EF86ECA0EE16E020EE26E110E006E37
:104BF600010E016E81EC05F0CA0E0301206F020E54
:104C0600216F15EC0BF0090E0301206FFBEC05F08C
:104C16000C0E0401D56F010ED66F8C0ED76F000EE9
:104C2600D86F100ED96F000EDA6F32EC01F0EA0E73
:104C3600D56F000ED66F300ED76F000ED86F100EE0
:104C4600D96F000EDA6F32EC01F0010E00018A6FA7
:104C56000101C051010A4DE1EB534BE0010E030186
:104C6600206F06EC0BF0020E0301206F06EC0BF032
:104C7600060E0001B06F8B6B776AFE0EF66E620E43
:104C8600F76E000EF86EDB0EE16E020EE26E150E8A
:104C9600006E010E016E81EC05F0DB0E0301206F44
:104CA600020E216F15EC0BF0090E0301206FFBECD1
:104CB60005F00C0E0401D56F010ED66F8C0ED76F62
:104CC600000ED86F100ED96F000EDA6F32EC01F0BD
:104CD600EA0ED56F000ED66F520ED76F000ED86F44
:104CE600100ED96F000EDA6F32EC01F0010E0001E2
:104CF6008A6F0101BDA14BD0010E0301206F06ECA6
:104D06000BF0020E0301206F06EC0BF0060E0001FD
:104D1600B06F8B6B776A130EF66E630EF76E000E2E
:104D2600F86EF00EE16E020EE26E120E006E010ECD
:104D3600016E81EC05F0F00E0301206F020E216F6B
:104D460015EC0BF0090E0301206FFBEC05F00C0EC1
:104D56000401D56F010ED66F8C0ED76F000ED86F7B
:104D6600100ED96F000EDA6F32EC01F0EA0ED56F35
:104D7600000ED66F410ED76F000ED86F100ED96F8A
:104D8600000EDA6F32EC01F0010E00018A6F7550E9
:104D9600000A29E10001010EB06F1A6A090E03012B
:104DA600206FFBEC05F00C0E0401D56F010ED66FDB
:104DB600CF0ED76F000ED86F100ED96F000EDA6FB8
:104DC60032EC01F0EA0ED56F000ED66F790ED76F72
:104DD600000ED86F100ED96F000EDA6F32EC01F0AC
:104DE600010E00018A6F0001B051050A04E0B051BE
:104DF600060A01E046D00301206BFBEC05F0000E2D
:104E06000101EA1902E1000EE9193BE0E9512C24FF
:104E16000301206F0101EA512D200301216F000ECD
:104E26002E20226F000E2F20236F090E246F47ECD1
:104E36000BF0250EF66E630EF76E000EF86E020E80
:104E4600E16E030EE26E150E006E010E016E81EC30
:104E560005F0020E206F030E216F15EC0BF0EA0E23
:104E66000401D56F000ED66F640ED76F000ED86F93
:104E7600100ED96F000EDA6F32EC01F0010E000150
:044E86008A6F12001D
:104E8A00020E02013C6F82940101BD51000A09E140
:104E9A00090E0301206FCAEC05F00050010A01E077
:104EAA00CFD10101D751000A05E00001AE51010A34
:104EBA0001E085D0090E0301206FFBEC05F0020129
:104ECA003C512C24006E000E2D20016E000E2E2067
:104EDA00026E000E2F20036E00C0B5F101C0B6F1BC
:104EEA0002C0B7F103C0B8F100C020F301C021F33A
:104EFA0002C022F303C023F3010E0301246F47EC1F
:104F0A000BF0B5C120F3B6C121F3B7C122F3B8C182
:104F1A0023F3050E246F47EC0BF0766A020E2C245D
:104F2A00006E000E2D20016E000E2E20026E000E65
:104F3A002F20036E02013C510026000E012202229C
:104F4A00032200C0B5F101C0B6F102C0B7F103C037
:104F5A00B8F100C020F301C021F302C022F303C05C
:104F6A0023F30A0E0301246F47EC0BF00101D6511B
:104F7A002C24006E000E2D20016E000E2E20026ED3
:104F8A00000E2F20036E02013C510026000E012262
:104F9A000222032200C0B5F101C0B6F102C0B7F186
:104FAA0003C0B8F100C020F301C021F302C022F30C
:104FBA0003C023F3030E0301246F47EC0BF0010136
:104FCA00D751000AD8B435D10001AE51020AD8A48B
:104FDA0030D1090E0301206FFBEC05F002013C51B0
:104FEA002C24006E000E2D20016E000E2E20026E63
:104FFA00000E2F20036E00C0B5F101C0B6F102C049
:10500A00B7F103C0B8F100C020F301C021F302C018
:10501A0022F303C023F3020E0301246F47EC0BF0C3
:10502A00B5C120F3B6C121F3B7C122F3B8C123F346
:10503A00060E246F47EC0BF0766A020E2C24006EE3
:10504A00000E2D20016E000E2E20026E000E2F2063
:10505A00036E02013C510026000E012202220322A5
:10506A0000C0B5F101C0B6F102C0B7F103C0B8F192
:10507A0000C020F301C021F302C022F303C023F3CE
:10508A000B0E0301246F47EC0BF00101D6512C24BF
:10509A00006E000E2D20016E000E2E20026E000EF4
:1050AA002F20036E02013C510026000E012202222B
:1050BA00032200C0B5F101C0B6F102C0B7F103C0C6
:1050CA00B8F100C020F301C021F302C022F303C0EB
:1050DA0023F3040E0301246F47EC0BF00101DC51AA
:1050EA002C24006E000E2D20016E000E2E20026E62
:1050FA00000E2F20036E02013C510026000E0122F1
:10510A000222032200C0B5F101C0B6F102C0B7F114
:10511A0003C0B8F100C020F301C021F302C022F39A
:10512A0003C023F3010E0301246F47EC0BF00101C6
:10513A00DC512C24006E000E2D20016E000E2E2054
:10514A00026E000E2F20036E02013C510026000E53
:10515A0001220222032200C0B5F101C0B6F102C049
:10516A00B7F103C0B8F100C020F301C021F302C0B7
:10517A0022F303C023F3050E0301246F47EC0BF05F
:10518A00786A0101DC512C24006E000E2D20016E7C
:10519A00000E2E20026E000E2F20036E020E002635
:1051AA00000E01220222032202013C510026000EB7
:1051BA0001220222032200C0B5F101C0B6F102C0E9
:1051CA00B7F103C0B8F100C020F301C021F302C057
:1051DA0022F303C023F30A0E0301246F47EC0BF0FA
:1051EA000101D7512C24006E000E2D20016E000EF5
:1051FA002E20026E000E2F20036E02013C51002663
:10520A00000E01220222032200C0B5F101C0B6F14C
:10521A0002C0B7F103C0B8F100C020F301C021F306
:10522A0002C022F303C023F3030E0301246F47ECE9
:10523A000BF0030E756E00018B6B776A070EB06F69
:10524A000101BFA125D0000EEA1902E1000EE919F9
:10525A001FE01A50000A1CE1010E1A6EBFEC0BF097
:10526A0000C063F04C0EF66E660EF76E000EF86E16
:10527A00060EE16E020EE26E160E006E010E016E51
:10528A0081EC05F0060E206F020E216F15EC0BF073
:10529A001A50010A58E10101BFB155D0000EEA19AE
:1052AA0002E1000EE9194FE063502C24006E000E53
:1052BA002D20016E000E2E20026E000E2F20036E8E
:1052CA0000C0B5F101C0B6F102C0B7F103C0B8F130
:1052DA0000C020F301C021F302C022F303C023F36C
:1052EA00090E0301246F47EC0BF01A6AB5C1C9F421
:1052FA00B6C1CAF4B7C1CBF4B8C1CCF41E0E0401CE
:10530A00CD6F010ECE6FEBEC03F0620EF66E660EF9
:10531A00F76E000EF86E1C0EE16E020EE26E100EB3
:10532A00006E010E016E81EC05F01C0E0301206F68
:10533A00020E216F15EC0BF01E0E0301206F010EF9
:08534A00216F15EC0BF01200BD
:105352008284010E0301206F216B60EC06F0020EC5
:10536200206F216B60EC06F00101BDA10ED082948A
:10537200010E0301206F06EC0BF0020E0301206FF9
:0C53820006EC0BF0010E0001B06F1200F1
:10538E000101B9A10AD00001CB51000A03E1120EAE
:10539E00CB6F01D0CB07640EB06F0101B9A509D058
:1053AE000001CB51120A02E1CB6B01D0CB2B640E64
:1053BE00B06F0101B9A303D0660E0001B06F1200E9
:1053CE00030E0201066F82940101B951020A04E133
:1053DE00640E0001B06FCB6B0101BD5103080001DB
:1053EE00AE6F0101BD51000AD8B49BD2090E030164
:1053FE00206FFBEC05F08284010E2C24206F000E32
:10540E002D20216F000E2E20226F000E2F20236FD5
:10541E000C0E246F47EC0BF0020106512C24006E8B
:10542E00000E2D20016E000E2E20026E000E2F207B
:10543E00036E00C0B5F101C0B6F102C0B7F103C0F2
:10544E00B8F100C020F301C021F302C022F303C063
:10545E0023F3010E0301246F47EC0BF00101DD5124
:10546E00000A10E0B5C120F3B6C121F3B7C122F393
:10547E00B8C123F3070E0301246F47EC0BF0010EA6
:10548E00766E0ED00301B5C120F3B6C121F3B7C1BC
:10549E0022F3B8C123F3050E246F47EC0BF0766AA6
:1054AE000101DD512C24006E000E2D20016E000E28
:1054BE002E20026E000E2F20036E020E0026000E0E
:1054CE00012202220322020106510026000E0122B1
:1054DE000222032200C0B5F101C0B6F102C0B7F13D
:1054EE0003C0B8F100C020F301C021F302C022F3C3
:1054FE0003C023F30A0E0301246F47EC0BF00101E6
:10550E00DD512C24006E000E2D20016E000E2E207B
:10551E00026E000E2F20036E020106510026000EB1
:10552E0001220222032200C0B5F101C0B6F102C071
:10553E00B7F103C0B8F100C020F301C021F302C0DF
:10554E0022F303C023F3050E0301246F47EC0BF087
:10555E000101DA51000A2EE0D8512C24006E000E03
:10556E002D20016E000E2E20026E000E2F20036ED7
:10557E00DA51005E000E015A025A035A0201065118
:10558E000026000E01220222032200C0B5F101C046
:10559E00B6F102C0B7F103C0B8F100C020F301C0EC
:1055AE0021F302C022F303C023F3070E0301246F7D
:1055BE0047EC0BF00101D8512C24006E000E2D206B
:1055CE00016E000E2E20026E000E2F20036E0201C1
:1055DE0006510026000E01220222032200C0B5F160
:1055EE0001C0B6F102C0B7F103C0B8F100C020F39C
:1055FE0001C021F302C022F303C023F3030E030103
:10560E00246F47EC0BF00101D951000AD8B452D1E6
:10561E000001AE51020AD8A44DD10101DC512C2457
:10562E00006E000E2D20016E000E2E20026E000E5A
:10563E002F20036E020106510026000E01220222C7
:10564E00032200C0B5F101C0B6F102C0B7F103C02C
:10565E00B8F100C020F301C021F302C022F303C051
:10566E0023F3020E0301246F47EC0BF00101DD5111
:10567E00000A2BE0DC512C24006E000E2D20016E52
:10568E00000E2E20026E000E2F20036E0201065118
:10569E000026000E01220222032200C0B5F101C035
:1056AE00B6F102C0B7F103C0B8F100C020F301C0DB
:1056BE0021F302C022F303C023F3080E0301246F6B
:1056CE0047EC0BF0010E786E2AD00101DC512C2430
:1056DE00006E000E2D20016E000E2E20026E000EAA
:1056EE002F20036E020106510026000E0122022217
:1056FE00032200C0B5F101C0B6F102C0B7F103C07C
:10570E00B8F100C020F301C021F302C022F303C0A0
:10571E0023F3060E0301246F47EC0BF0786A0101A8
:10572E00DC512C24006E000E2D20016E000E2E205A
:10573E00026E000E2F20036EDD510026000E012298
:10574E0002220322020E0026000E01220222032252
:10575E00020106510026000E01220222032200C081
:10576E00B5F101C0B6F102C0B7F103C0B8F100C087
:10577E0020F301C021F302C022F303C023F30B0E6A
:10578E000301246F47EC0BF00101DC512C24006E59
:10579E00000E2D20016E000E2E20026E000E2F2008
:1057AE00036EDD510026000E0122022203220201A9
:1057BE0006510026000E01220222032200C0B5F17E
:1057CE0001C0B6F102C0B7F103C0B8F100C020F3BA
:1057DE0001C021F302C022F303C023F3060E03011E
:1057EE00246F47EC0BF00101DA51000A34E0DC5172
:1057FE002C24006E000E2D20016E000E2E20026E47
:10580E00000E2F20036ED9510026000E0122022217
:10581E000322DA51005E000E015A025A035A0201A7
:10582E0006510026000E01220222032200C0B5F10D
:10583E0001C0B6F102C0B7F103C0B8F100C020F349
:10584E0001C021F302C022F303C023F3080E0301AB
:10585E00246F47EC0BF00101D9512C24006E000E81
:10586E002D20016E000E2E20026E000E2F20036ED4
:10587E00DC510026000E01220222032202010651F3
:10588E000026000E01220222032200C0B5F101C043
:10589E00B6F102C0B7F103C0B8F100C020F301C0E9
:1058AE0021F302C022F303C023F3040E0301246F7D
:1058BE0047EC0BF0000E0101EA1902E1000EE919A6
:1058CE0028E0E9512C24006EEA512D20016E000EC5
:1058DE002E20026E000E2F20036E020106510026AE
:1058EE00000E01220222032200C0B5F101C0B6F162
:1058FE0002C0B7F103C0B8F100C020F301C021F31C
:10590E0002C022F303C023F3090E0301246F47ECF8
:10591E000BF0030E0001AF6F8B6B776A030EB06F47
:04592E001A6A1200DF
:1059320002010A6B0301206B42EC06F000C006F282
:1059420001C007F2010E0301206F42EC06F000C015
:1059520008F201C009F20001E851000A16E0010153
:10596200D4510201075D04E10101D3510201065D38
:1059720006E2FF0E0001E05D01E2E02B05D000012E
:10598200E051000801E2E00701D0E06BE0510101C3
:10599200D55D02E202010A810001E751000A16E028
:1059A2000101D4510201095D04E10101D351020157
:1059B200085D06E2FF0E0001E15D01E2E12B05D088
:1059C2000001E151000801E2E10701D0E16BE15180
:1059D2000101D55D02E202010A830AC200F012004F
:1059E20083B006D00001B551140801E3B52B02D0F3
:1059F2000001B56B140EB55D03E3010E006E1200DB
:045A0200006A120024
:105A060000018A51010A18E1010E0201066F010E1A
:105A1600076F0C0E086F010E096F5AEC10F0020E9C
:105A26000201066F010E076FEA0E086F000E096F7E
:105A36005AEC10F000018A6BC95329E0CA531CE0E6
:105A4600020E0201066F010E076FF10EF66E660E6C
:105A5600F76E000EF86EF60EE16E010EE26E100E97
