:04000000F6EF39F0EE
:1000080000C019F001C018F004C017F008C016F0BD
:100018000CC015F0F2A42AD00101512B8088010EE2
:100028004B6F8651FF0A03E1866B836B01D0862BE9
:10003800D651FF0A03E1D66B4A6B01D0D62B190EB5
:10004800515D0FE3516B010E5627000E57235823BD
:1000580059235253010ED8A4000E526F8098010EF6
:10006800416FF30ED76ECA0ED66EF294F0A017D079
:1000780001018351000A03E1832B866B01D0832B96
:10008800050E835D0BE3130E865D07E386511508A5
:1000980004E3010E486F836B01D0836BF090F0A2EC
:1000A80017D001014A51000A03E14A2BD66B01D04F
:1000B8004A2B050E4A5D0BE3130ED65D07E3D651B6
:1000C800150804E3010E496F4A6B01D04A6BF092A0
:1000D800F2A235D00101462B4651FF0A02E1020E79
:1000E800466F030E046E46C100F06BD808C000F0DE
:1000F8000050010A12E100019E5306E001016D5310
:1001080002E0818601D081960001A15306E0010139
:10011800545302E0818801D08198030E046E46C1D1
:1001280000F04FD808C000F00050000A07E10001B5
:100138009E5301E08186A15301E08188F29219C0A3
:1001480000F018C001F017C004F016C008F015C080
:040158000CF0110096
:10015C00B9C5C9FFC7B002D00000FCD7C9CF00F0A9
:02016C0012007F
:0E016E00ACB202D00000FCD7B9C5ADFF120044
:10017C00086A096A100E0C6E0134083609360450F0
:10018C00085E0550D8A0053C095ED8B007D00450D5
:10019C0008260550D8B0053C0926D8900036013603
:0601AC000C2EEAD7120040
:1001B200F250026EF29E0500FF6A0150FE6E005080
:0801C200FD6E02BEF28E120078
:1001CA00086A080E0C6E003408360450085ED8B06F
:0E01DA0002D00826D89000360C2EF5D7120061
:1001E8000501B66B050EB65D0AE2B651B425E16E9F
:1001F800000EB521E26E200EE66EB62BF3D7B6518F
:10020800B425E16E000EB521E26EE66AB607B65176
:10021800B425B76F000EB521B86F0A0E046E000E34
:10022800056EB2C500F0B3C501F0A4DF08C000F048
:1002380009C001F0300E0026B7C5E1FFB8C5E2FFDE
:1002480000C0E6FF0A0E046E000E056EB2C500F08F
:10025800B3C501F08FDF00C0B2F501C0B3F5000EE1
:10026800011802E1000E001801E102D0B607CFD74D
:02027800120072
:10027A008EC1E1FF8FC1E2FFB2C5E6FF8CC100F07B
:08028A008DC101F091DF1200AB
:10029200B4C504F0B5C505F0B2C502F0B3C503F0AC
:1002A200B6C500F0B7C501F0010E0501B65F000E3C
:1002B200B75B005001100FE004C0E9FF05C0EAFF80
:1002C20002C0E1FF03C0E2FFEECFE6FF024A032ACB
:1002D200044A052AE5D7B2C500F0B3C501F0120001
:1002E2000B6A0A6A096A086A0E6A033408360450FD
:1002F200085E0550D8A0053C095E0650D8A0063C11
:100302000A5E0750D8A0073C0B5EE86AD8A0010E2F
:100312000E5E0336070E0C6E0334083609360A36B3
:100322000B360E36045003A012D0085E0550D8A03A
:10033200053C095E0650D8A0063C0A5E0750D8A0CC
:10034200073C0B5EE86AD8A0010E0E5E11D00826AB
:100352000550D8B0053C09260650D8B0063C0A26FE
:100362000750D8B0073C0B26E86AD8B0010E0E261B
:1003720003360C2ED1D70234083609360A360B362C
:100382000E36045003A012D0085E0550D8A0053CDA
:10039200095E0650D8A0063C0A5E0750D8A0073C6A
:1003A2000B5EE86AD8A0010E0E5E11D00826055039
:1003B200D8B0053C09260650D8B0063C0A2607509C
:1003C200D8B0073C0B26E86AD8B0010E0E260236DA
:1003D200070E0C6E0234083609360A360B360E3614
:1003E200045002A012D0085E0550D8A0053C095E58
:1003F2000650D8A0063C0A5E0750D8A0073C0B5E08
:10040200E86AD8A0010E0E5E11D008260550D8B0B9
:10041200053C09260650D8B0063C0A260750D8B03B
:10042200073C0B26E86AD8B0010E0E2602360C2EC7
:10043200D1D70134083609360A360B360E36045047
:1004420002A012D0085E0550D8A0053C095E0650F5
:10045200D8A0063C0A5E0750D8A0073C0B5EE86AAB
:10046200D8A0010E0E5E11D008260550D8B0053C6A
:1004720009260650D8B0063C0A260750D8B0073CD9
:100482000B26E86AD8B0010E0E260136070E0C6E56
:100492000134083609360A360B360E36045001A0EE
:1004A20012D0085E0550D8A0053C095E0650D8A0BF
:1004B200063C0A5E0750D8A0073C0B5EE86AD8A04B
:1004C200010E0E5E11D008260550D8B0053C092653
:1004D2000650D8B0063C0A260750D8B0073C0B2677
:1004E200E86AD8B0010E0E2601360C2ED1D70034A0
:1004F200083609360A360B360E36045001A012D0E1
:10050200085E0550D8A0053C095E0650D8A0063CFE
:100512000A5E0750D8A0073C0B5EE86AD8A0010E1D
:100522000E5E11D008260550D8B0053C09260650AB
:10053200D8B0063C0A260750D8B0073C0B26E86A1A
:10054200D8B0010E0E260036070E0C6E00340836A7
:1005520009360A360B360E36045000A012D0085E59
:100562000550D8A0053C095E0650D8A0063C0A5E9C
:100572000750D8A0073C0B5EE86AD8A0010E0E5EB9
:1005820011D008260550D8B0053C09260650D8B02F
:10059200063C0A260750D8B0073C0B26E86AD8B0BA
:1005A200010E0E2600360C2ED1D700B00ED004500C
:1005B20008260550D8B0053C09260650D8B0063C9E
:0C05C2000A260750D8B0073C0B26120098
:1005CE000501B56B030EB55D0AE2B551B325E16EBB
:1005DE00000EB421E26E200EE66EB52BF3D7B551A8
:1005EE00B325E16E000EB421E26EE66AB507B55191
:1005FE00B325B66F000EB421B76F0A0E046EB2C5E6
:10060E0000F0DCDD08C000F0300E0026B6C5E1FFBC
:10061E00B7C5E2FF00C0E6FF0A0E046EB2C500F0D9
:10062E00CDDD00C0B2F50050000A01E102D0B507E1
:04063E00DED71200F1
:10064200A6A202D00000FCD7A69CB2C5A9FFB3C5E2
:10065200A8FFA69EA684F2CF00F0F29E550EA76ECA
:10066200AA0EA76EA68200BE02D0F29E01D0F28E22
:04067200A694120038
:100676009ED0EE0E01019B6F020E9C6F320E9D6F97
:10068600000E9E6FCBD00101D00E9B6F020E9C6FA9
:10069600320E9D6F000E9E6FC1D00101A80E9B6F9A
:1006A600020E9C6F320E9D6F000E9E6FB7D0010139
:1006B6008A0E9B6F020E9C6F320E9D6F000E9E6F10
:1006C600ADD00101760E9B6F020E9C6F320E9D6FB0
:1006D600000E9E6FA3D00101580E9B6F020E9C6FF9
:1006E600320E9D6F000E9E6F99D00101260E9B6FF4
:1006F600020E9C6F640E9D6F000E9E6F8FD00101DF
:10070600120E9B6F020E9C6F640E9D6F000E9E6F05
:1007160085D00101F40E9B6F010E9C6F640E9D6FD8
:10072600000E9E6F7BD00101EA0E9B6F010E9C6F3F
:10073600640E9D6F000E9E6F71D00101EA0E9B6FD5
:10074600010E9C6F2C0E9D6F010E9E6F67D00101EE
:10075600EA0E9B6F010E9C6FF40E9D6F010E9E6F4D
:100766005DD00101E00E9B6F010E9C6FE80E9D6F40
:10077600030E9E6F53D00101E00E9B6F010E9C6F1E
:10078600D00E9D6F070E9E6F49D00101E00E9B6F44
:10079600010E9C6FB80E9D6F0B0E9E6F3FD0010130
:1007A6009B6B9C6BFF0E9D6F000E9E6F37D00501F5
:1007B600B251000AD8B45DD7B251010AD8B463D792
:1007C600B251020AD8B469D7B251030AD8B46FD766
:1007D600B251040AD8B475D7B251050AD8B47BD73A
:1007E600B251060A82E0B251070A89E0B251080AFC
:1007F60090E0B251090A97E0B2510A0A9EE0B2515E
:100806000B0AA5E0B2510C0AACE0B2510D0AB3E0F6
:0E081600B2510E0ABAE0B2510F0AC1E0120050
:100824000501A96BA6C5E9FFA7C5EAFFEECFA8F5A8
:10083400A851000A0EE0A8C5B2F51DDD0501A92BDB
:10084400A951A625E96E000EA721EA6EEECFA8F500
:04085400EFD71200C8
:10085800A6C5B2F50501B233B29FA7C5B3F5A8C5C1
:10086800B4F5B1DE010EA615016E0150010A17E1BB
:10087800030EA725B26F000EA821B36F2E0EA96F25
:10088800350EAA6F730EAB6FAC6BA90EB46F050E65
:10089800B56F040EB66F000EB76FF7DC16D0030EF7
:1008A800A725B26F000EA821B36F730EAD6F200E8F
:1008B800AE6F200EAF6FB06BAD0EB46F050EB56F97
:0C08C800040EB66F000EB76FE0DC1200EB
:0A08D400490E0D6E0D2EFED7120026
:1008DE000B6A0A6A096A00500402F4CF09F0F3CFDA
:1008EE0008F001500502F4CF0BF0F3CF0AF00050E0
:1008FE000502F3500926F4500A22E86A0B22015031
:10090E000402F3500926F4500A22E86A0B2208C0AA
:10091E0000F009C001F00AC002F00BC003F0120093
:10092E000501AC6B0A0EAC5D0AE2AC51AA25E16E74
:10093E00000EAB21E26E300EE66EAC2BF3D7AC514F
:10094E00AA25E16E000EAB21E26EE66AAC07000E40
:10095E00006EA91908E10050A81905E10050A71969
:10096E0002E1A651000A3EE0AC51AA25AD6F000E81
:10097E00AB21AE6F0A0E046E000E056E066E076E8C
:10098E00A6C500F0A7C501F0A8C502F0A9C503F0E1
:10099E00A1DC08C000F009C001F00AC002F00BC0D3
:1009AE0003F0300E0026ADC5E1FFAEC5E2FF00C07C
:1009BE00E6FFAC070A0E046E000E056E066E076E9D
:1009CE00A6C500F0A7C501F0A8C502F0A9C503F0A1
:1009DE0081DC00C0A6F501C0A7F502C0A8F503C0D2
:0609EE00A9F5B5D71200C7
:1009F4000900F5CFE6FF0006FBE10106F9E112006C
:100A0400C7B409D01F0EC514016E0150000A03E1DA
:0A0A1400010E006E01D0006A12000E
:100A1E000501A96BA6C5E9FFA7C5EAFFEECFA8F5AC
:100A2E00A851000A0FE0A8C5B9F5B7EC00F0050112
:100A3E00A92BA951A625E96E000EA721EA6EEECFCD
:060A4E00A8F5EED712002E
:100A5400010E0501B26F91C2B3F5F1DD020E05017D
:100A6400B26F92C2B3F5EBDD030E0501B26F96C20D
:100A7400B3F5E5DD040E0501B26F97C2B3F5DFDD12
:100A8400050E0501B26FFBC1B3F5D9DD060E0501F4
:100A9400B26F98C2B3F5D3DD070E0501B26F93C2EE
:100AA400B3F5CDDD080E0501B26F94C2B3F5C7DD11
:100AB400090E0501B26F95C2B3F5C1DD0A0E050139
:100AC400B26FFDC1B3F5BBDD0B0E0501B26FFCC106
:100AD400B3F5B5DD0C0E0501B26F81C1B3F5AFDD21
:100AE40081C1B2F5C6DD0D0E0501B26F90C2B3F53A
:100AF400A6DD0E0E0501B26F8FC2B3F5A0DD0F0E99
:100B04000501B26FF9C1B3F59ADD100E0501B26F9C
:100B1400FAC1B3F594DD110E0501B26F8EC2B3F5BF
:040B24008EDD120050
:100B2800A6C5B2F5A7C5B3F50501B333B233B39F74
:100B3800A8C5B4F5A9C5B5F5F4EC00F0010EA615E5
:100B4800016EA7C502F0000E0216000E021802E19F
:100B5800010E011818E1050EA825B26F000EA92193
:100B6800B36F2E0EAA6F350EAB6F730EAC6FAD6BF5
:100B7800AA0EB46F050EB56F040EB66F000EB76FF0
:100B880049EC01F017D0050EA825B26F000EA92177
:100B9800B36F730EAE6F200EAF6F200EB06FB16BD8
:100BA800AE0EB46F050EB56F040EB66F000EB76FBC
:060BB80049EC01F01200FF
:100BBE00A69CA6C5A9FFA69EA680A8CF00F01200EF
:100BCE00010E0301CD25016E000ECE21026E01C075
:100BDE00E9FF02C0EAFF0A0EEE24006E01C0E1FF3B
:100BEE0002C0E2FF00C0E6FF030ECD25016E000E2F
:100BFE00CE21026E01C0E9FF02C0EAFF0A0EEE240A
:100C0E00006E01C0E1FF02C0E2FF00C0E6FFCDC3EF
:100C1E00E9FFCEC3EAFFEECF00F0CDC3E1FFCEC3B6
:100C2E00E2FF0A0E0024E66E020ECD25016E000EC6
:100C3E00CE21026E01C0E9FF02C0EAFF0A0EEE24C9
:100C4E00006E01C0E1FF02C0E2FF00C0E6FF040E2D
:100C5E00CD25E16E000ECE21E26E040EE66E060E7E
:100C6E00CD25E16E000ECE21E26E040EE66E080E6C
:100C7E00CD25E16E000ECE21E26E040EE66E0A0E5A
:100C8E00CD25E16E000ECE21E26E040EE66E050E4F
:100C9E00CD25E16E000ECE21E26E0A0EE66E090E35
:100CAE00CD25E16E000ECE21E26E0A0EE66E070E27
:100CBE00CD25E16E000ECE21E26E0A0EE66E0B0E13
:100CCE00CD25E16E000ECE21E26E0A0EE66E12000A
:100CDE00CDC3B2F50501B233B29FCEC3B3F5CFC3C8
:100CEE00B4F56EDC030E0301CE250501B26F000EC6
:100CFE000301CF210501B36F730E0301D06F200ED8
:100D0E00D16F200ED26FD36BD00E0501B46F030ED0
:100D1E00B56F040EB66F000EB76F49EC01F01200FE
:100D2E00020E01014F6F5B0E0501B26F010EB36F24
:100D3E00E00EF66E740EF76E000EF86ECD0EE16ECE
:100D4E00030EE26E110E006E010E016E4CDECD0E24
:100D5E00B46F030EB56F100EB66F000EB76F49EC81
:100D6E0001F001018051000A64E16F0E0501B26FBE
:100D7E00010EB36FF10EF66E740EF76E000EF86E76
:100D8E00DE0EE16E030EE26E110E006E010E016EAE
:100D9E002ADEDE0EB46F030EB56F100EB66F000EA8
:100DAE00B76F49EC01F0010E0101506F8451000A3A
:100DBE001EE15B0E0501B26F010EB36F020EF66EF1
:100DCE00750EF76E000EF86EEF0EE16E030EE26E0C
:100DDE00110E006E010E016E06DEEF0EB46F030EE5
:100DEE00B56F100EB66F000EB76F49EC01F0010132
:100DFE008451010A1EE15B0E0501B26F010EB36F45
:100E0E00130EF66E750EF76E000EF86E000EE16E96
:100E1E00040EE26E110E006E010E016EE4DD000E88
:100E2E00B46F040EB56F100EB66F000EB76F49ECAF
:100E3E0001F001018051010A29E16F0E0501B26F27
:100E4E00010EB36F240EF66E750EF76E000EF86E71
:100E5E00110EE16E040EE26E110E006E010E016EA9
:100E6E00C2DD110EB46F040EB56F100EB66F000E0C
:100E7E00B76F49EC01F0010E0101506F91C2A6F55A
:100E8E00610E0501A76F010EA86FDFDC0101805115
:100E9E00020A29E16F0E0501B26F010EB36F350E16
:100EAE00F66E750EF76E000EF86E220EE16E040EE3
:100EBE00E26E110E006E010E016E95DD220EB46F04
:100ECE00040EB56F100EB66F000EB76F49EC01F041
:100EDE00010E0101506F92C2A6F5610E0501A76FBA
:100EEE00010EA86FB2DC01018051030A29E16F0ED9
:100EFE000501B26F010EB36F460EF66E750EF76EEC
:100F0E00000EF86E330EE16E040EE26E110E006EE0
:100F1E00010E016E68DD330EB46F040EB56F100E48
:100F2E00B66F000EB76F49EC01F0010E0101506F64
:100F3E0096C2A6F5610E0501A76F010EA86F85DC9E
:100F4E0001018051040A29E16F0E0501B26F010EF5
:100F5E00B36F570EF66E750EF76E000EF86E440EEA
:100F6E00E16E040EE26E110E006E010E016E3BDD9F
:100F7E00440EB46F040EB56F100EB66F000EB76F41
:100F8E0049EC01F0010E0101506F97C2A6F5610EFA
:100F9E000501A76F010EA86F58DC01018051050AEB
:100FAE0029E16F0E0501B26F010EB36F680EF66E7A
:100FBE00750EF76E000EF86E550EE16E040EE26EB3
:100FCE00110E006E010E016E0EDD550EB46F040E85
:100FDE00B56F100EB66F000EB76F49EC01F0010E33
:100FEE000101506F98C2A6F5610E0501A76F010EA3
:100FFE00A86F2BDC01018051060A2AE16F0E050154
:10100E00B26F010EB36F790EF66E750EF76E000E9F
:10101E00F86E660EE16E040EE26E110E006E010E9B
:10102E00016EE1DC660EB46F040EB56F100EB66F76
:10103E00000EB76F49EC01F0010E0101506F93C223
:10104E00A6F5610E0501A76F010EA86F2CEC04F03A
:10105E0001018051070A2AE16F0E0501B26F010EE0
:10106E00B36F8A0EF66E750EF76E000EF86E770E73
:10107E00E16E040EE26E110E006E010E016EB3DC17
:10108E00770EB46F040EB56F100EB66F000EB76FFD
:10109E0049EC01F0010E0101506F94C2A6F5610EEC
:1010AE000501A76F010EA86F2CEC04F00101805111
:1010BE00080A2AE16F0E0501B26F010EB36F9B0E87
:1010CE00F66E750EF76E000EF86E880EE16E040E5B
:1010DE00E26E110E006E010E016E85DC880EB46F8D
:1010EE00040EB56F100EB66F000EB76F49EC01F01F
:1010FE00010E0101506F95C2A6F5610E0501A76F95
:10110E00010EA86F2CEC04F001018051090A6BE16D
:10111E006F0E0501B26F010EB36FAC0EF66E750E4B
:10112E00F76E000EF86E990EE16E040EE26E110E61
:10113E00006E010E016E57DC990EB46F040EB56F82
:10114E00100EB66F000EB76F49EC01F0010E0101E3
:10115E00506F81C1B2F55E0E0501B36F010EB46F13
:10116E00E7EC02F00101815109081FE2620E050150
:10117E00B26F010EB36F320E0401AA6F350EAB6F54
:10118E00300EAC6F4B0EAD6F670EAE6F2B0EAF6F9A
:10119E00B06BAA0E0501B46F040EB56F060EB66FD6
:1011AE00000EB76F49EC01F01ED00501620EB26F52
:1011BE00010EB36F320E0401B16F350EB26F300EE9
:1011CE00B36F4B0EB46F670EB56F2D0EB66FB76B58
:1011DE00B10E0501B46F040EB56F060EB66F000E9C
:1011EE00B76F49EC01F0010180510A0A2BE16F0E35
:1011FE000501B26F010EB36FCB0EF66E750EF76E64
:10120E00000EF86EB80EE16E040EE26E110E006E58
:10121E00010E016EFAEC04F0B80EB46F040EB56F49
:10122E00100EB66F000EB76F49EC01F0010E010102
:10123E00506FFBC1A6F5610E0501A76F010EA86FD9
:10124E002CEC04F0010180510B0A2CE16F0E05010C
:10125E00B26F010EB36FDC0EF66E750EF76E000EEA
:10126E00F86EC90EE16E040EE26E110E006E010EE6
:10127E00016EFAEC04F0C90EB46F040EB56F100EC9
:10128E00B66F000EB76F49EC01F0010E0101506F01
:10129E00FCC1A6F5FDC1A7F55F0E0501A86F010EF5
:1012AE00A96F3BDC010180510C0A22E16F0E050192
:1012BE00B26F010EB36FED0EF66E750EF76E000E79
:1012CE00F86EDA0EE16E040EE26E110E006E010E75
:1012DE00016EFAEC04F0DA0EB46F040EB56F100E58
:1012EE00B66F000EB76F49EC01F0010E0101506FA1
:1012FE0080510D0A66E16F0E0501B26F010EB36FDC
:10130E00FE0EF66E750EF76E000EF86EEB0EE16EBB
:10131E00040EE26E110E006E010E016EFAEC04F078
:10132E00EB0EB46F040EB56F100EB66F000EB76FE6
:10133E0049EC01F0010E0101506FF951000A21E153
:10134E00610E0501B26F010EB36F4E0E0401FC6FFC
:10135E006F0EFD6F200EFE6F200EFF6F200E05012B
:10136E00006F200E016F200E026F036BFC0EB46F28
:10137E00040EB56F070EB66F000EB76F49EC01F095
:10138E0020D00501610EB26F010EB36F590E046FBE
:10139E00650E056F730E066F200E076F200E086F19
:1013AE00200E096F200E0A6F200E0B6F0C6B040EB1
:1013BE00B46F050EB56F080EB66F000EB76F49EC21
:1013CE0001F0010180510E0A64E16F0E0501B26F4A
:1013DE00010EB36F200EF66E760EF76E000EF86EDF
:1013EE000D0EE16E050EE26E110E006E010E016E17
:1013FE00FAEC04F00D0EB46F050EB56F100EB66F4D
:10140E00000EB76F49EC01F0010E0101506FFA5159
:10141E00000A1FE1610E0501B26F010EB36F4E0E91
:10142E001E6F6F0E1F6F200E206F200E216F200E6D
:10143E00226F200E236F200E246F256B1E0EB46FAD
:10144E00050EB56F070EB66F000EB76F49EC01F0C3
:10145E0020D00501610EB26F010EB36F590E266FCB
:10146E00650E276F730E286F200E296F200E2A6FC0
:10147E00200E2B6F200E2C6F200E2D6F2E6B260E36
:10148E00B46F050EB56F080EB66F000EB76F49EC50
:10149E0001F0010180510F0A65E16F0E0501B26F77
:1014AE00010EB36F420EF66E760EF76E000EF86EEC
:1014BE002F0EE16E050EE26E110E006E010E016E24
:1014CE00FAEC04F02F0EB46F050EB56F100EB66F5A
:1014DE00000EB76F49EC01F0010E0101506F0201D1
:1014EE008E51000A1FE1610E0501B26F010EB36F3E
:1014FE004E0E406F6F0E416F200E426F200E436FE7
:10150E00200E446F200E456F200E466F476B400E27
:10151E00B46F050EB56F070EB66F000EB76F49ECC0
:10152E0001F020D00501610EB26F010EB36F590E9E
:10153E00486F650E496F730E4A6F200E4B6F200E6B
:10154E004C6F200E4D6F200E4E6F200E4F6F506B56
:10155E00480EB46F050EB56F080EB66F000EB76F5E
:10156E0049EC01F001018051100A65E16F0E050191
:10157E00B26F010EB36F640EF66E760EF76E000E3E
:10158E00F86E510EE16E050EE26E110E006E010E3A
:10159E00016EFAEC04F0510EB46F050EB56F100E1D
:1015AE00B66F000EB76F49EC01F0010E0101506FDE
:1015BE0002018F51000A1FE1610E0501B26F010E8B
:1015CE00B36F4E0E626F6F0E636F200E646F200E40
:1015DE00656F200E666F200E676F200E686F696B49
:1015EE00620EB46F050EB56F070EB66F000EB76FB5
:1015FE0049EC01F020D00501610EB26F010EB36F00
:10160E00590E6A6F650E6B6F730E6C6F200E6D6FD9
:10161E00200E6E6F200E6F6F200E706F200E716F8A
:10162E00726B6A0EB46F050EB56F080EB66F000EB4
:10163E00B76F49EC01F001018051110A2BE16F0ED9
:10164E000501B26F010EB36F860EF66E760EF76E53
:10165E00000EF86E730EE16E050EE26E110E006E48
:10166E00010E016EFAEC04F0730EB46F050EB56F39
:10167E00100EB66F000EB76F49EC01F0010E0101AE
:10168E00506F90C2A6F5610E0501A76F010EA86FEF
:10169E002CEC04F001018051120A22E16F0E0501BB
:1016AE00B26F010EB36F970EF66E760EF76E000EDA
:1016BE00F86E840EE16E050EE26E110E006E010ED6
:1016CE00016EFAEC04F0840EB46F050EB56F100EB9
:1016DE00B66F000EB76F49EC01F0010E0101506FAD
:1016EE008051130A22E16F0E0501B26F010EB36F26
:1016FE00A80EF66E760EF76E000EF86E950EE16E73
:10170E00050EE26E110E006E010E016EFAEC04F083
:10171E00950EB46F050EB56F100EB66F000EB76F47
:10172E0049EC01F0010E0101506F650E4D6F120074
:10173E00010E0301CD25E96E000ECE21EA6EEECF2D
:10174E0091F2CDC3E9FFCEC3EAFFEECF96F2CF51B1
:10175E00020AD8A485D0030ECD25E96E000ECE2147
:10176E00EA6EEECF92F2020ECD25E96E000ECE217C
:10177E00EA6EEECF97F2040ECD25E96E000ECE2165
:10178E00EA6E080ECD25D96E000ECE21DA6EDE5031
:10179E00EE24036E046A000E042203C000F004C09F
:1017AE0001F001320032019E01BC018E00C098F2A0
:1017BE00050ECD25E96E000ECE21EA6E090ECD2561
:1017CE00D96E000ECE21DA6EDE50EE24036E046A60
:1017DE00000E042203C000F004C001F001320032FA
:1017EE00019E01BC018E00C093F2060ECD25E96E5E
:1017FE00000ECE21EA6E0A0ECD25D96E000ECE2138
:10180E00DA6EDE50EE24036E046A000E042203C06C
:10181E0000F004C001F001320032019E01BC018EC5
:10182E0000C094F2070ECD25E96E000ECE21EA6EB1
:10183E000B0ECD25D96E000ECE21DA6EDE50EE24C3
:10184E00036E046A000E042203C000F004C001F00F
:10185E0001320032019E01BC018E00C095F224D0EF
:10186E000201926B976B040E0301CD25E96E000EFB
:10187E00CE21EA6EEECF98F2050ECD25E96E000E62
:10188E00CE21EA6EEECF93F2060ECD25E96E000E56
:10189E00CE21EA6EEECF94F2070ECD25E96E000E44
:0E18AE00CE21EA6EEECF95F22AEC05F0120084
:1018BC000101E1510301CD1905E10101E16B010EBB
:1018CC00006E12000101E2510301CD1905E1010185
:1018DC00E26B010E006E12000101E3510301CD1900
:1018EC0005E10101E36B010E006E1200006A1200AB
:1018FC000301CD6B140ECD5D53E2CDC300F0000E91
:10190C00016E070E046E000E056E6FEC04F0FE0EF9
:10191C000026010E0122050E0024E96E000E0120A6
:10192C00EA6EEE50000A3AE1CDC300F0000E016EF3
:10193C00070E046E000E056E6FEC04F0FE0E002414
:10194C00E96E010E0120EA6EEECF01F00150090A9A
:10195C0025E1CDC300F0000E016E070E046E000EE3
:10196C00056E6FEC04F0FE0E0026010E0122010E36
:10197C000024E96E000E0120EA6EEECFCEF3EECF1E
:10198C00CFF3EECFD0F3EECFD1F3050E0024E16E02
:10199C00000E0120E26E010EE66E02D0CD2BAAD70E
:1019AC00010156510301CE5D016E01C0CDF3140E41
:0C19BC00015C01E3CD6BCDC300F0120014
:1019C80056C1A6F557C1A7F558C1A8F559C1A9F53B
:1019D800CF0E0501AA6F030EAB6F97EC04F0CF0E84
:1019E800A66F030EA76F12EC04F03A0E0301DA6F2C
:1019F800200EDB6FDC6BDA0E0501A66F030EA76FF6
:101A08000FEC05F0CDC3A6F5CEC3A7F50FEC05F096
:101A18000A0EB96FB7EC00F00D0E0501B96FB7ECFF
:041A280000F01200B8
:101A2C000301CD51010A05E10001B36BB46B010157
:101A3C00E5910301CD51020A05E100019F6BA06BFA
:061A4C000101E593120008
:101A52000301CE6B140ECE5D44E2CEC300F0000E45
:101A6200016E070E046E000E056E6FEC04F0FE0EA2
:101A72000026010E0122050E0024E96E000E01204F
:101A8200EA6EEE50000A2BE1CEC300F0000E016EAA
:101A9200070E046E000E056E6FEC04F0FE0E0024BD
:101AA200E96E010E0120EA6EEECF01F00150CD1970
:101AB20016E0CEC300F0000E016E070E046E000E9B
:101AC200056E6FEC04F0FE0E0026010E0122050EDB
:101AD2000024E16E000E0120E26E010EE66ECE2BB6
:041AE200B9D712005E
:101AE6000301CD51000A04E0CE51000A01E002D004
:101AF600F28801D0F298CDC36DF1CEC354F1120035
:101B0600010E0501A66FDFEC05F000C091F2020E92
:101B1600A66FDFEC05F000C092F2030EA66FDFECB5
:101B260005F000C096F2040EA66FDFEC05F000C0CB
:101B360097F2050EA66FDFEC05F000C0FBF1060E6E
:101B4600A66FDFEC05F000C098F2070EA66FDFEC7B
:101B560005F000C093F2080EA66FDFEC05F000C09A
:101B660094F2090EA66FDFEC05F000C095F20A0E9E
:101B7600A66FDFEC05F000C0FCF1000E0101FD6F61
:101B8600FCC1FDF1FC6B0B0E0501A66FDFEC05F049
:101B960000500101FC13000EFD130C0E0501A66F8B
:101BA600DFEC05F000C081F100C0B2F53BEC03F0BC
:101BB6000D0E0501A66FDFEC05F000C090F20E0ECB
:101BC600A66FDFEC05F000C08FF20F0EA66FDFECFC
:101BD60005F000C0F9F1100EA66FDFEC05F000C0AD
:101BE600FAF1110EA66FDFEC05F000C08EF21200BE
:101BF6000301D26B140ED25D72E2D2C300F0000E66
:101C0600016E070E046E000E056E6FEC04F0FE0EFC
:101C16000026010E0122050E0024E96E000E0120A9
:101C2600EA6EEE50010A59E1D2C300F0000E016ED1
:101C3600070E046E000E056E6FEC04F0FE0E002417
:101C4600E16E010E0120E26ED1C3E6FFD2C300F0C1
:101C5600000E016E070E046E000E056E6FEC04F0AA
:101C6600FE0E0026010E0122010E0024E16E000E7A
:101C76000120E26ECDC3E6FFCEC3E6FFCFC3E6FF8B
:101C8600D0C3E6FFD2C300F0000E016E070E046E4D
:101C9600000E056E6FEC04F0FE0E0026010E01220A
:101CA600050E0024E16E000E0120E26EE66AD2C344
:101CB60000F0000E016E070E046E000E056E6FEC4E
:101CC60004F0FE0E0026010E0122060E0024E16E2F
:101CD600000E0120E26EE66A02D0D22B8BD71200EC
:101CE600140E0201916F140E966F140E926F140E5D
:101CF600976F050E0101816F050E0501B26F3BEC72
:101D060003F00A0E0201936F040E986F0A0E956F88
:101D1600040E946F0C0E0101FB6FFC6BFD6B020150
:101D26008F6B0101F96BFA6B0201906B010E8E6FDE
:061D36002AEC05F012008A
:101D3C000301CD51010A17E1CEB102D0829201D03C
:101D4C008282060E0B6E130E0C6EAD0E0D6E0D2EEA
:101D5C00FED70C2EFCD70B2EFAD700000000010E7C
:101D6C0000019E6F81860301CD51020A17E1CEB1AD
:101D7C0002D0829001D08280060E0B6E130E0C6E78
:101D8C00AD0E0D6E0D2EFED70C2EFCD70B2EFAD7EA
:0E1D9C0000000000010E0001A16F81881200FE
:101DAA000301CD51010A03E100019E6B81960301F3
:0E1DBA00CD51020A03E10001A16B81981200D5
:101DC8009E96CDC3C9FFC7A401D0FDD79EB601D04A
:101DD800FDD7C5BC02D0006A03D0C584020E006ED0
:021DE8001200E7
:041DEA00C58412009A
:101DEE00C26AC00EC212C18CC18ECDC300F00036C5
:101DFE00009000360090003600900050C212C28053
:101E0E006AEC04F0C284C2A401D0FDD7C4CF01F0A5
:0E1E1E00006AC3500012000E0112C2901200A2
:101E2C000301CD6B140ECD5D4BE2CDC300F0000E63
:101E3C00016E070E046E000E056E6FEC04F0FE0EC4
:101E4C000026010E0122050E0024E96E000E012071
:101E5C00EA6EEE50000A32E1CDC300F0000E016EC6
:101E6C00070E046E000E056E6FEC04F0FE0E0024DF
:101E7C00E96E010E0120EA6EEECF01F00150090A65
:101E8C001DE1CDC300F0000E016E070E046E000EB6
:101E9C00056E6FEC04F0FE0E0026010E0122010E01
:101EAC000024E96E000E0120EA6EEECFCEF3EECFE9
:101EBC00CFF3EECFD0F3EECFD1F302D0CD2BB2D700
:101ECC00140ECD5D02E3CD6B05D00101565103011B
:0A1EDC00CE5DCD6FCDC300F0120003
:101EE6000301CD6BCE6BCE51120802E1CD518E08A7
:101EF60009E302EC05F0005201E004D00301CD4BEA
:101F0600CE2BF1D70301120ECE5D02E18F0ECD5D11
:101F160003E37B0E006E05D0C580C5A001D0FDD7BA
:041F2600006A12003B
:101F2A000201B46BB56BB66B83BA02D0B68101D02D
:101F3A00B69184B002D0B68301D0B69383B802D0EA
:101F4A00B68501D0B695B651000A18E1010147518C
:101F5A00000A07E1C46BC26B476B0201B36B010154
:101F6A00C36B4751010A0AE1050E435D07E3C46BDF
:101F7A00C26B476B0201B36B0101C36B0101C25112
:101F8A00060802E3140EBD6FC251060805E2C251EB
:101F9A00140802E30A0EBD6FC251140802E2050ECC
:101FAA00BD6FC451010A0AE1BD51445D07E3010E48
:101FBA00C36F446B190EC25D01E2C22B0201B65116
:101FCA00000A22E001014751010A1EE1C451000A38
:101FDA001BE1020EBE25016E000EBF21026E000E2D
:101FEA00C021036E000EC121046E5951041808E184
:101FFA005851031805E15751021802E156510118C8
:10200A0003E1010EC46F446B0201B651000A09E0F4
:10201A0001014751010A05E1C451000A02E1020126
:10202A00B36B0201B651000A0EE001014751010AE1
:10203A000AE1C451010A07E10201B6510101C303D1
:10204A00F3CFB3F2C36B0201B651000A11E00101EA
:10205A004751000A0DE1B6C2B3F2010E476F56C1ED
:10206A00BEF157C1BFF158C1C0F159C1C1F1436BAB
:10207A000201B351000A03E0010E0101426FB3C22B
:04208A0000F0120050
:10208E0083A003D083A201D003D0010E006E1200F4
:04209E00006A1200C2
:1020A2000201B36B010148B103D00201B39102D026
:1020B2000201B381010149B103D00201B39302D0FD
:1020C2000201B3830101486B496B140E4D5D15E2A9
:1020D2000201B3B106D00101E0B503D00201B39110
:1020E20002D00201B381B3B306D00101E0B103D043
:1020F2000201B39302D00201B383B3C200F0120013
:10210200010E01014E6FE0A318D04E6B526B650EAB
:102112004D6F97EC06F08051000A0FE1C96B8451B4
:10212200000A04E1C80E4D6F010E856F8451010A49
:1021320004E1C90E4D6F010E856F8051000A14E152
:10214200E0A108D08451000805E2840797EC06F06C
:10215200660E4D6FE0A508D0010E845D05E2842B6A
:1021620097EC06F0660E4D6F8051010A17E1E0A16F
:1021720009D002019151000805E2910797EC06F09F
:10218200660E4D6F0101E0A509D0FF0E0201915DBF
:1021920005E2912B97EC06F0660E4D6F010180511E
:1021A200020A17E1E0A109D002019251000805E2FA
:1021B200920797EC06F0660E4D6F0101E0A509D07B
:1021C200FF0E0201925D05E2922B97EC06F0660E7D
:1021D2004D6F01018051030A17E1E0A109D002010C
:1021E2009651000805E2960797EC06F0660E4D6FD1
:1021F2000101E0A509D0FF0E0201965D05E2962BD2
:1022020097EC06F0660E4D6F01018051040A17E14A
:10221200E0A109D002019751000805E2970797EC67
:1022220006F0660E4D6F0101E0A509D0FF0E020116
:10223200975D05E2972B97EC06F0660E4D6F010154
:102242008051050A17E1E0A109D002019851000866
:1022520005E2980797EC06F0660E4D6F0101E0A5C6
:1022620009D0FF0E0201985D05E2982B97EC06F06B
:10227200660E4D6F01018051060A17E1E0A109D0F7
:1022820002019351000805E2930797EC06F0660EEF
:102292004D6F0101E0A509D0FF0E0201935D05E239
:1022A200932B97EC06F0660E4D6F01018051070AE1
:1022B20017E1E0A109D002019451000805E2940758
:1022C20097EC06F0660E4D6F0101E0A509D0FF0EF6
:1022D2000201945D05E2942B97EC06F0660E4D6FB9
:1022E20001018051080A17E1E0A109D002019551CC
:1022F200000805E2950797EC06F0660E4D6F0101A6
:10230200E0A509D0FF0E0201955D05E2952B97EC41
:1023120006F0660E4D6F01018051090A14E1E0A139
:1023220008D08151010805E2810797EC06F0660E9C
:102332004D6FE0A508D00F0E815D05E2812B97EC71
:1023420006F0660E4D6F80510A0A14E1E0A108D032
:10235200FB51000805E2FB0797EC06F0660E4D6F95
:10236200E0A508D0FF0EFB5D05E2FB2B97EC06F023
:10237200660E4D6F80510B0A20E1E0A110D0000ED5
:10238200006EFD51005C02E1FC51000808E2010E02
:10239200FC5F000EFD5B97EC06F0660E4D6FE0A54C
:1023A2000CD0FD0EFD5D02E1E80EFC5D06E2FC4B89
:1023B200FD2B97EC06F0660E4D6F80510C0A1CE166
:1023C2004D6B6F0E0501B26F010EB36FE90EB46F64
:1023D200010EB56F100EB66F000EB76F49EC01F02B
:1023E200010E01014F6F4E6B526B010E506F010EC9
:1023F200856F78DC2AEC05F0010180510D0A14E1A9
:10240200E0A108D0F951000805E2F90797EC06F0BF
:10241200660E4D6FE0A508D0010EF95D05E2F92BBD
:1024220097EC06F0660E4D6F80510E0A14E1E0A1A2
:1024320008D0FA51000805E2FA0797EC06F0660E9A
:102442004D6FE0A508D0010EFA5D05E2FA2B97EC7C
:1024520006F0660E4D6F80510F0A17E1E0A109D018
:1024620002018E51000805E28E0797EC06F0660E17
:102472004D6F0101E0A509D0010E02018E5D05E25A
:102482008E2B97EC06F0660E4D6F01018051100AFB
:1024920017E1E0A109D002018F51000805E28F0780
:1024A20097EC06F0660E4D6F0101E0A509D0010E12
:1024B20002018F5D05E28F2B97EC06F0660E4D6FE1
:1024C20001018051110A20E1E0A10DD002019051D9
:1024D200000809E290079051090A01E1906B97EC1C
:1024E20006F0660E4D6F0101E0A50ED0FF0E02014F
:1024F200905D0AE2902B9051010A02E10A0E906F60
:1025020097EC06F0660E4D6F01018051120A19E137
:10251200670E4D6F6F0E0501B26F010EB36FE90EBC
:10252200B46F010EB56F100EB66F000EB76F49ECA7
:1025320001F001014E6B010E4F6F010E506F010E43
:10254200856F8051130A1BE14D6B6F0E0501B26F4F
:10255200010EB36FE90EB46F010EB56F100EB66FB8
:10256200000EB76F49EC01F001014E6B010E4F6F87
:10257200010E506F83EC0DF0010E0101856F120008
:102582000201B76B0301CD6B31DC00C0B3F201C0B5
:10259200B4F2010E0301CD6F29DC00C0B5F201C017
:1025A200B6F201015351000A03E10001B36BB46BAF
:1025B20001015A51000A03E100019F6BA06B010166
:1025C2006D51000A21E09C510201B45D04E1010158
:1025D2009B510201B35D0AE2FF0E0001B45D02E10C
:1025E200FA0EB35D02E2B34BB42B0DD00001000E24
:1025F200006EB451005C02E1B351000804E2010E26
:10260200B35F000EB45B03D00001B36BB46BB45183
:1026120001019E5D04E10001B35101019D5D02E2F1
:102622000201B78101015451000A21E09C510201CB
:10263200B65D04E101019B510201B55D0AE2FF0EA4
:102642000001A05D02E1FA0E9F5D02E29F4BA02B0A
:102652000DD00001000E006EA051005C02E19F51FE
:10266200000804E2010E9F5F000EA05B03D0000190
:102672009F6BA06BA05101019E5D04E100019F517F
:1026820001019D5D02E20201B783B7C200F01200B0
:102692000201B36B83B801D0B38183BA01D0B38393
:0626A200B3C200F01200BB
:0A26A8002AEC05F001014D6B120051
:1026B20019DC7C0E0301CD6FE4EC0EF0800E0301F9
:1026C200CD6FE4EC0EF00201B351020A05E1380EBF
:1026D2000301CD6FE4EC0EF00201B351010A05E1F2
:1026E200340E0301CD6FE4EC0EF0800E0301CD6FCA
:1026F200E4EC0EF00201B351020A05E1390E0301C6
:10270200CD6FE4EC0EF00201B351010A05E1350E82
:102712000301CD6FE4EC0EF0800E0301CD6FE4EC0B
:102722000EF01C0E0301CD6FE4EC0EF0800E0301DF
:10273200CD6FE4EC0EF0720E0301CD6FE4EC0EF0FF
:10274200800E0301CD6FE4EC0EF0550E0301CD6F48
:10275200E4EC0EF0800E0301CD6FE4EC0EF06C0E93
:102762000301CD6FE4EC0EF0800E0301CD6FE4ECBB
:102772000EF00C0E0301CD6FE4EC0EF0800E03019F
:10278200CD6FE4EC0EF0010E0301CD6FE4EC0EF020
:10279200800E0301CD6FE4EC0EF0060E0301CD6F47
:1027A200E4EC0EF0800E0301CD6FE4EC0EF0020EAD
:0E27B2000301CD6FE4EC0EF0F5EC0EF012001A
:1027C000949894968B988B9694889486C79EC79C71
:0627D000380EC66E120077
:1027D6000201B76BB86BB351010A03E1B451800F24
:1027E600B86FB351020A03E1B451C00FB86F73EC6E
:1027F6000FF07C0E0301CD6FE4EC0EF0800E0301AA
:10280600CD6FE4EC0EF0B8C2CDF3E4EC0EF0400E62
:102816000301CD6FE4EC0EF00201B751B525E96E68
:10282600000EB621EA6EEE500A0A10E0B751100803
:102836000DE3B751B525E96E000EB621EA6EEECF6F
:10284600CDF3E4EC0EF00201B72BE6D7F5EC0EF073
:102856000D0E0C6EFB0E0D6E0D2EFED70C2EFCD73C
:062866000000000012005A
:10286C006E0E01018C6F010E8D6FB90E8E6F050E01
:10287C008F6FFF0E886FFF0E896F000E8A6F000E30
:10288C008B6FFF0EC56FFF0EC66F000EC76F000E6D
:10289C00C86FFF0ED76FFF0ED86F000ED96F000EEA
:1028AC00DA6FAC8A900EAB6E948E949C9EAA03D079
:0828BC00AECF00F0FBD71200C3
:1028C4000201B46BB56B3F0EB315026E02C0B3F2D6
:1028D400540EB46F02C000F00032009E0032009E1D
:1028E4000032009E0032009E540E0010B46F700E31
:1028F400B56F0F0E0214006E700E0010B56F73ECFE
:102904000FF07C0E0301CD6FE4EC0EF0800E03019A
:10291400CD6FE4EC0EF0B4C2CDF3E4EC0EF0800E17
:102924000301CD6FE4EC0EF0B5C2CDF3E4EC0EF090
:10293400F5EC0EF00D0E0C6EFB0E0D6E0D2EFED78B
:0A2944000C2EFCD70000000012006A
:10294E00838E010E01016C6F010E0301CD6F5EECE3
:10295E000CF000522BE0010E0301CD6FCE6B9EECFE
:10296E000EF0530E0201B36F370EB46F200EB56F1B
:10297E004D0EB66F6F0EB76F740EB86F6F0EB96FD8
:10298E00720EBA6F310EBB6F530EBC6F740EBD6FED
:10299E00610EBE6F720EBF6F740EC06FC16BB30E41
:1029AE000301CD6F020ECE6FE4EC0CF0020E0301AC
:1029BE00CD6F5EEC0CF000524DE0020E0301CD6FB8
:1029CE00CE6B9EEC0EF0530E0201C26F370EC36F2C
:1029DE00200EC46F4D0EC56F6F0EC66F740EC76F8F
:1029EE006F0EC86F720EC96F320ECA6F530ECB6F59
:1029FE00740ECC6F610ECD6F720ECE6F740ECF6FE4
:102A0E00D06BC20E0301CD6F020ECE6FE4EC0CF054
:102A1E006F0E0501B26F010EB36FB50EB46F000EDF
:102A2E00B56F100EB66F000EB76F49EC01F05B0E6E
:102A3E00B26F010EB36FC60EB46F000EB56F100EEF
:102A4E00B66F000EB76F49EC01F0010E0101506F29
:102A5E00010E4F6F0A0E0301CD6F5EEC0CF00052AB
:102A6E001FE0010E0101536F010E0301CD6F16EC35
:102A7E000DF04A0EF66E7B0EF76E000EF86ED10E4E
:102A8E00E16E020EE26E150E006E010E016EFAEC94
:102A9E0004F0D10E0301CD6F020ECE6FE4EC0CF0FC
:102AAE000B0E0301CD6F5EEC0CF000521FE0010E19
:102ABE0001015A6F020E0301CD6F16EC0DF05F0E81
:102ACE00F66E7B0EF76E000EF86EE60EE16E020EDF
:102ADE00E26E150E006E010E016EFAEC04F0E60EBB
:102AEE000301CD6F020ECE6FE4EC0CF0050E030168
:102AFE00CD6F5EEC0CF000522EE0010E0301CD6F97
:102B0E0054C1CEF373EC0DF00101556B530E02015F
:102B1E00FB6F370EFC6F200EFD6F4D0EFE6F310EEC
:102B2E00FF6F200E0301006F530E016F700E026FC8
:102B3E00650E036F650E046F640E056F200E066F33
:102B4E00550E076F500E086F096BFB0ECD6F020E00
:102B5E00CE6FE4EC0CF0060E0301CD6F5EEC0CF0C4
:102B6E0000522DE06DC1CDF3010E0301CE6F73EC5B
:102B7E000DF001016E6B530E03010A6F370E0B6FD2
:102B8E00200E0C6F4D0E0D6F320E0E6F200E0F6F4E
:102B9E00530E106F700E116F650E126F650E136F60
:102BAE00640E146F200E156F550E166F500E176FA4
:102BBE00186B0A0ECD6F030ECE6FE4EC0CF0030E05
:102BCE000301CD6F5EEC0CF0005208E10101535190
:102BDE00010A03E1E5A101D001D029D00001D7A15E
:102BEE0026D0D791010E0301CD6FD5EC0EF0530E0A
:102BFE000301196F370E1A6F200E1B6F4D0E1C6FCF
:102C0E00310E1D6F200E1E6F530E1F6F740E206F30
:102C1E006F0E216F700E226F650E236F640E246F80
:102C2E00256B190ECD6F030ECE6FE4EC0CF0040E77
:102C3E000301CD6F5EEC0CF0005208E101015A5118
:102C4E00010A03E1E5A301D001D029D00001D7A3E9
:102C5E0026D0D793020E0301CD6FD5EC0EF0530E96
:102C6E000301266F370E276F200E286F4D0E296F2A
:102C7E00320E2A6F200E2B6F530E2C6F740E2D6F8B
:102C8E006F0E2E6F700E2F6F650E306F640E316FDC
:102C9E00326B260ECD6F030ECE6FE4EC0CF00201FC
:102CAE009251000A05E001018251010A01E002D0B1
:102CBE000001D7930101E6A150D0010E0301CD6FA3
:102CCE00D5EC0EF0020E0301CD6FD5EC0EF0010126
:102CDE00536B5A6B060E4D6F010E0001DA6FAC0E80
:102CEE00F66E7B0EF76E000EF86E330EE16E030E6F
:102CFE00E26E110E006E010E016EFAEC04F0330E50
:102D0E000301CD6F030ECE6FE4EC0CF0090E030140
:102D1E00CD6F29EC0DF06F0E0501B26F010EB36F82
:102D2E000E0EB46F010EB56F100EB66F000EB76FAC
:102D3E0049EC01F05B0EB26F010EB36F1F0EB46F54
:102D4E00010EB56F100EB66F000EB76F49EC01F0A5
:102D5E00010E0101506F020E4F6FE451000A4DE05B
:102D6E00010E0301CD6FD5EC0EF0020E0301CD6FF7
:102D7E00D5EC0EF0060E01014D6F536B5A6BBD0E66
:102D8E00F66E7B0EF76E000EF86E440EE16E030EBD
:102D9E00E26E120E006E010E016EFAEC04F0440E9D
:102DAE000301CD6F030ECE6FE4EC0CF0090E0301A0
:102DBE00CD6F29EC0DF06F0E0501B26F010EB36FE2
:102DCE000E0EB46F010EB56F100EB66F000EB76F0C
:102DDE0049EC01F05B0EB26F010EB36F300EB46FA3
:102DEE00010EB56F100EB66F000EB76F49EC01F005
:102DFE00010E0101506F020E4F6FE751010A4FE1B4
:102E0E00FA534DE0010E0301CD6FD5EC0EF0020E1C
:102E1E000301CD6FD5EC0EF0060E01014D6F536B15
:102E2E005A6BCF0EF66E7B0EF76E000EF86E560EC8
:102E3E00E16E030EE26E150E006E010E016EFAECDF
:102E4E0004F0560E0301CD6F030ECE6FE4EC0CF0C2
:102E5E00090E0301CD6F29EC0DF06F0E0501B26F57
:102E6E00010EB36F0E0EB46F010EB56F100EB66F6E
:102E7E00000EB76F49EC01F05B0EB26F010EB36F2F
:102E8E00DB0EB46F000EB56F100EB66F000EB76F7F
:102E9E0049EC01F0010E0101506F020E4F6F00015F
:102EAE00D751000A2CE1010E01014D6F0001D86BC4
:102EBE00090E0301CD6F29EC0DF06F0E0501B26FF7
:102ECE00010EB36FEC0EB46F000EB56F100EB66F31
:102EDE00000EB76F49EC01F05B0EB26F010EB36FCF
:102EEE00C60EB46F000EB56F100EB66F000EB76F34
:102EFE0049EC01F0010E0101506F010E4F6F0101FF
:102F0E004D51050A04E04D51060A01E04CD0030173
:102F1E00CD6B29EC0DF0000E0101FD1902E1000E42
:102F2E00FC1941E0FC5156250301CD6F0101FD5105
:102F3E0057210301CE6F000E010158210301CF6FFF
:102F4E00000E010159210301D06F090ED16FFBEC68
:102F5E000DF0E40EF66E7B0EF76E000EF86E6B0E35
:102F6E00E16E030EE26E150E006E010E016EFAECAE
:102F7E0004F06B0ECD6F030ECE6FE4EC0CF05B0E17
:102F8E000501B26F010EB36FFD0EB46F000EB56F7B
:102F9E00100EB66F000EB76F49EC01F0010E010175
:082FAE00506F020E4F6F12007C
:102FB600838E010E01016C6F010E0301CD6F5EEC75
:102FC6000CF000524FE0010E0301CD6F010ECE6FE3
:102FD6009EEC0EF0530E0201B36F330EB46F200E4B
:102FE600B56F4D0EB66F6F0EB76F740EB86F6F0E6E
:102FF600B96F720EBA6F310EBB6F530EBC6F740E83
:10300600BD6F610EBE6F720EBF6F740EC06FC16B67
:10301600B30E0301CD6F020ECE6FE4EC0CF0839C71
:103026006F0E0501B26F010EB36F1A0EB46F000E6C
:10303600B56F100EB66F000EB76F49EC01F05B0E60
:10304600B26F010EB36FC60EB46F000EB56F100EE1
:10305600B66F000EB76F49EC01F0010E0101506F1B
:10306600010E4F6F020E0301CD6F5EEC0CF00052A5
:103076002DE0020E0301CD6F010ECE6F9EEC0EF019
:10308600530E0201C26F330EC36F200EC46F4D0E76
:10309600C56F6F0EC66F740EC76F6F0EC86F720E58
:1030A600C96F320ECA6F530ECB6F740ECC6F610EA2
:1030B600CD6F720ECE6F740ECF6FD06BC20E030142
:1030C600CD6F020ECE6FE4EC0CF0839C050E03016F
:1030D600CD6F5EEC0CF000522FE0010E0301CD6FB8
:1030E60054C1CEF373EC0DF00101536B556B530EC7
:1030F6000201D16F330ED26F200ED36F4D0ED46FF7
:103106006F0ED56F740ED66F6F0ED76F720ED86FA7
:10311600310ED96F200EDA6F460EDB6F610EDC6F53
:10312600730EDD6F740EDE6FDF6BD10E0301CD6F94
:10313600020ECE6FE4EC0CF0070E0301CD6F5EECD1
:103146000CF000522EE00301CD6B54C1CEF373ECAC
:103156000DF0010E0101556F530E0201E06F330EA3
:10316600E16F200EE26F4D0EE36F6F0EE46F740E8B
:10317600E56F6F0EE66F720EE76F310EE86F200E89
:10318600E96F530EEA6F6C0EEB6F6F0EEC6F770EF6
:10319600ED6FEE6BE00E0301CD6F020ECE6FE4EC29
:1031A6000CF0060E0301CD6F5EEC0CF000522FE022
:1031B6006DC1CDF3010E0301CE6F73EC0DF001016D
:1031C6005A6B6E6B530E0201EF6F330EF06F200ECB
:1031D600F16F4D0EF26F6F0EF36F740EF46F6F0E8C
:1031E600F56F720EF66F320EF76F200EF86F460E01
:1031F600F96F610EFA6F730EFB6F740EFC6FFD6B49
:10320600EF0E0301CD6F020ECE6FE4EC0CF0080E4C
:103216000301CD6F5EEC0CF000522EE06DC1CDF3D4
:103226000301CE6B73EC0DF0010E01016E6F530EB0
:103236000201FE6F330EFF6F200E0301006F4D0E6D
:10324600016F6F0E026F740E036F6F0E046F720EB6
:10325600056F320E066F200E076F530E086F6C0E49
:10326600096F6F0E0A6F770E0B6F0C6BFE0ECD6F2C
:10327600020ECE6FE4EC0CF00A0E0301CD6F5EEC8D
:103286000CF000521FE0010E0101536F010E030105
:10329600CD6F16EC0DF0800EF66E780EF76E000E02
:1032A600F86E0D0EE16E030EE26E160E006E010E46
:1032B600016EFAEC04F00D0E0301CD6F030ECE6F16
:1032C600E4EC0CF00B0E0301CD6F5EEC0CF000523B
:1032D6001FE0010E01015A6F020E0301CD6F16ECBD
:1032E6000DF0960EF66E780EF76E000EF86E230E43
:1032F600E16E030EE26E160E006E010E016EFAEC22
:1033060004F0230E0301CD6F030ECE6FE4EC0CF038
:10331600030E0301CD6F5EEC0CF000522AE03C90E8
:10332600010E0301CD6FD5EC0EF0530E0301396F7C
:10333600330E3A6F200E3B6F4D0E3C6F6F0E3D6F96
:10334600740E3E6F6F0E3F6F720E406F310E416FFF
:10335600200E426F530E436F740E446F6F0E456F0F
:10336600700E466F476B390ECD6F030ECE6FE4ECD1
:103376000CF0040E0301CD6F5EEC0CF000522AE057
:103386003C92020E0301CD6FD5EC0EF0530E0301F5
:10339600486F330E496F200E4A6F4D0E4B6F6F0EFE
:1033A6004C6F740E4D6F6F0E4E6F720E4F6F320E66
:1033B600506F200E516F530E526F740E536F6F0E77
:1033C600546F700E556F566B480ECD6F030ECE6F51
:1033D600E4EC0CF00C0E0301CD6F5EEC0CF0005229
:1033E60001E0838C01015351010A52E1E5A150D05D
:1033F6005551000A4DE1010E0301CD6FD5EC0EF0DB
:10340600020E0301CD6FD5EC0EF0050E01014D6FD6
:10341600536B5A6BCA0EF66E780EF76E000EF86E88
:10342600570EE16E030EE26E140E006E010E016E73
:10343600FAEC04F0570E0301CD6F030ECE6FE4ECE9
:103446000CF0090E0301CD6F29EC0DF06F0E05018E
:10345600B26F010EB36F0E0EB46F010EB56F100E84
:10346600B66F000EB76F49EC01F05B0EB26F010E3E
:10347600B36FA20EB46F000EB56F100EB66F000ECE
:10348600B76F49EC01F0010E0101506F020E4F6F4C
:103496005A51010A52E1E5A350D06E51000A4DE19E
:1034A600010E0301CD6FD5EC0EF0020E0301CD6FB8
:1034B600D5EC0EF0050E01014D6F536B5A6BDE0E07
:1034C600F66E780EF76E000EF86E6B0EE16E030E5A
:1034D600E26E140E006E010E016EFAEC04F06B0E35
:1034E6000301CD6F030ECE6FE4EC0CF0090E030161
:1034F600CD6F29EC0DF06F0E0501B26F010EB36FA3
:103506000E0EB46F010EB56F100EB66F000EB76FCC
:1035160049EC01F05B0EB26F010EB36FA20EB46FF1
:10352600000EB56F100EB66F000EB76F49EC01F0C6
:10353600010E0101506F020E4F6F02019251000AF7
:1035460005E001018251010A01E001D03C9201012E
:10355600E6A14FD0F9534DE0010E0301CD6FD5EC36
:103566000EF0020E0301CD6FD5EC0EF00101536B88
:103576005A6B050E4D6FF20EF66E780EF76E000E54
:10358600F86E7F0EE16E030EE26E110E006E010EF6
:10359600016EFAEC04F07F0E0301CD6F030ECE6FC1
:1035A600E4EC0CF0090E0301CD6F29EC0DF06F0E63
:1035B6000501B26F010EB36F0E0EB46F010EB56F3B
:1035C600100EB66F000EB76F49EC01F05B0EB26FCE
:1035D600010EB36F1F0EB46F010EB56F100EB66FEE
:1035E600000EB76F49EC01F0010E0101506F020E9B
:1035F6004F6FE451000A4DE0010E0301CD6FD5EC8B
:103606000EF0020E0301CD6FD5EC0EF00101536BE7
:103616005A6B050E4D6F030EF66E790EF76E000EA1
:10362600F86E900EE16E030EE26E110E006E010E44
:10363600016EFAEC04F0900E0301CD6F030ECE6F0F
:10364600E4EC0CF0090E0301CD6F29EC0DF06F0EC2
:103656000501B26F010EB36F0E0EB46F010EB56F9A
:10366600100EB66F000EB76F49EC01F05B0EB26F2D
:10367600010EB36F300EB46F010EB56F100EB66F3C
:10368600000EB76F49EC01F0010E0101506F020EFA
:103696004F6FE751010A4FE1FA534DE0010E030166
:1036A600CD6FD5EC0EF0020E0301CD6FD5EC0EF00A
:1036B6000101536B5A6B050E4D6F140EF66E790EA3
:1036C600F76E000EF86EA10EE16E030EE26E170E97
:1036D600006E010E016EFAEC04F0A10E0301CD6F2F
:1036E600030ECE6FE4EC0CF0090E0301CD6F29EC4E
:1036F6000DF06F0E0501B26F010EB36F0E0EB46FB3
:10370600010EB56F100EB66F000EB76F49EC01F0E3
:103716005B0EB26F010EB36FDB0EB46F000EB56FAA
:10372600100EB66F000EB76F49EC01F0010E0101E5
:10373600506F020E4F6F3C50000A2BE1020E4D6F88
:103746000001D86B090E0301CD6F29EC0DF06F0E49
:103756000501B26F010EB36F2B0EB46F000EB56F7D
:10376600100EB66F000EB76F49EC01F05B0EB26F2C
:10377600010EB36FC60EB46F000EB56F100EB66FA6
:10378600000EB76F49EC01F0010E0101506F020EF9
:103796004F6F4D51050A04E04D51060A01E04CD029
:1037A6000301CD6B29EC0DF0000E0101FD1902E1BC
:1037B600000EFC1941E0FC5156250301CD6F0101B5
:1037C600FD5157210301CE6F000E0101582103015F
:1037D600CF6F000E010159210301D06F090ED16F81
:1037E600FBEC0DF02B0EF66E790EF76E000EF86EF2
:1037F600B80EE16E030EE26E150E006E010E016E3E
:10380600FAEC04F0B80ECD6F030ECE6FE4EC0CF0BC
:103816005B0E0501B26F010EB36FFD0EB46F000EA5
:10382600B56F100EB66F000EB76F49EC01F0010EC2
:0A3836000101506F020E4F6F1200E7
:103840000101E0A302D000019D2B00019D51010A5E
:1038500020E16F0E0501B26F010EB36F5D0EB46F04
:10386000000EB56F100EB66F000EB76F49EC01F089
:103870005B0EB26F010EB36F6D0EB46F000EB56FBD
:10388000100EB66F000EB76F49EC01F0010E01018A
:10389000506F00019D51020A20E16F0E0501B26FC9
:1038A000010EB36F7D0EB46F000EB56F100EB66FC4
:1038B000000EB76F49EC01F05B0EB26F010EB36FF3
:1038C0008D0EB46F000EB56F100EB66F000EB76F91
:1038D00049EC01F0010E0101506F00019D51030AF6
:0A38E00003E1640E01014D6F1200B8
:1038EA00838E010E01016C6F010E0301CD6F5EEC38
:1038FA000CF000522BE0010E0301CD6FCE6B9EEC53
:10390A000EF0530E0201B36F340EB46F200EB56F72
:10391A004D0EB66F6F0EB76F740EB86F6F0EB96F2C
:10392A00720EBA6F310EBB6F530EBC6F740EBD6F41
:10393A00610EBE6F720EBF6F740EC06FC16BB30E95
:10394A000301CD6F020ECE6FE4EC0CF0020E030100
:10395A00CD6F5EEC0CF000524DE0020E0301CD6F0C
:10396A00CE6B9EEC0EF0530E0201C26F340EC36F83
:10397A00200EC46F4D0EC56F6F0EC66F740EC76FE3
:10398A006F0EC86F720EC96F320ECA6F530ECB6FAD
:10399A00740ECC6F610ECD6F720ECE6F740ECF6F38
:1039AA00D06BC20E0301CD6F020ECE6FE4EC0CF0A9
:1039BA006F0E0501B26F010EB36FB50EB46F000E34
:1039CA00B56F100EB66F000EB76F49EC01F05B0EC3
:1039DA00B26F010EB36FC60EB46F000EB56F100E44
:1039EA00B66F000EB76F49EC01F0010E0101506F7E
:1039FA00010E4F6F0A0E0301CD6F5EEC0CF0005200
:103A0A001FE0010E0101536F010E0301CD6F16EC89
:103A1A000DF05E0EF66E790EF76E000EF86ED10E90
:103A2A00E16E020EE26E150E006E010E016EFAECE8
:103A3A0004F0D10E0301CD6F020ECE6FE4EC0CF050
:103A4A000B0E0301CD6F5EEC0CF000521FE0010E6D
:103A5A0001015A6F020E0301CD6F16EC0DF0730EC1
:103A6A00F66E790EF76E000EF86EE60EE16E020E35
:103A7A00E26E150E006E010E016EFAEC04F0E60E0F
:103A8A000301CD6F020ECE6FE4EC0CF0050E0301BC
:103A9A00CD6F5EEC0CF000522FE0010E0301CD6FEA
:103AAA0054C1CEF373EC0DF00101536B556B530EF9
:103ABA000201FB6F340EFC6F200EFD6F4D0EFE6F80
:103ACA00310EFF6F200E0301006F530E016F700E4F
:103ADA00026F650E036F650E046F640E056F200E8C
:103AEA00066F550E076F500E086F096BFB0ECD6FF0
:103AFA00020ECE6FE4EC0CF0070E0301CD6F5EEC04
:103B0A000CF0005221E00301CD6B54C1CEF373ECEB
:103B1A000DF00101536B010E556F970EF66E790E7B
:103B2A00F76E000EF86E0A0EE16E030EE26E110ECB
:103B3A00006E010E016EFAEC04F00A0E0301CD6F5D
:103B4A00030ECE6FE4EC0CF0060E0301CD6F5EECB3
:103B5A000CF000522DE06DC1CDF3010E0301CE6FC2
:103B6A0073EC0DF001016E6B530E03011B6F340EE3
:103B7A001C6F200E1D6F4D0E1E6F320E1F6F200E12
:103B8A00206F530E216F700E226F650E236F650E24
:103B9A00246F640E256F200E266F550E276F500E68
:103BAA00286F296B1B0ECD6F030ECE6FE4EC0CF061
:103BBA00080E0301CD6F5EEC0CF0005220E06DC1DF
:103BCA00CDF30301CE6B73EC0DF0010E01016E6FA4
:103BDA00B70EF66E790EF76E000EF86E2A0EE16ECB
:103BEA00030EE26E110E006E010E016EFAEC04F085
:103BFA002A0E0301CD6F030ECE6FE4EC0CF0030E18
:103C0A000301CD6F5EEC0CF0005227E00001D79162
:103C1A00010E0301CD6FD5EC0EF0530E03013B6F7D
:103C2A00340E3C6F200E3D6F4D0E3E6F310E3F6FCE
:103C3A00200E406F530E416F740E426F6F0E436F2A
:103C4A00700E446F650E456F640E466F476B3B0EF0
:103C5A00CD6F030ECE6FE4EC0CF0040E0301CD6FB2
:103C6A005EEC0CF0005227E00001D793020E03012C
:103C7A00CD6FD5EC0EF0530E0301486F340E496F29
:103C8A00200E4A6F4D0E4B6F320E4C6F200E4D6F49
:103C9A00530E4E6F740E4F6F6F0E506F700E516F42
:103CAA00650E526F640E536F546B480ECD6F030E40
:103CBA00CE6FE4EC0CF001015351010A52E1E5A187
:103CCA0050D05551000A4DE1010E0301CD6FD5ECDC
:103CDA000EF0020E0301CD6FD5EC0EF0060E0101B7
:103CEA004D6F536B5A6BE20EF66E790EF76E000E3D
:103CFA00F86E550EE16E030EE26E110E006E010EA5
:103D0A00016EFAEC04F0550E0301CD6F030ECE6F6F
:103D1A00E4EC0CF0090E0301CD6F29EC0DF06F0EE7
:103D2A000501B26F010EB36F0E0EB46F010EB56FBF
:103D3A00100EB66F000EB76F49EC01F05B0EB26F52
:103D4A00010EB36FA20EB46F000EB56F100EB66FF0
:103D5A00000EB76F49EC01F0010E0101506F020E1F
:103D6A004F6F5A51010A52E1E5A350D06E51000A31
:103D7A004DE1010E0301CD6FD5EC0EF0020E0301E9
:103D8A00CD6FD5EC0EF0060E01014D6F536B5A6BD9
:103D9A00F30EF66E790EF76E000EF86E660EE16E91
:103DAA00030EE26E110E006E010E016EFAEC04F0C3
:103DBA00660E0301CD6F030ECE6FE4EC0CF0090E14
:103DCA000301CD6F29EC0DF06F0E0501B26F010EE4
:103DDA00B36F0E0EB46F010EB56F100EB66F000EF4
:103DEA00B76F49EC01F05B0EB26F010EB36FA20E12
:103DFA00B46F000EB56F100EB66F000EB76F49ECB8
:103E0A0001F0010E0101506F020E4F6F0201925133
:103E1A00000A05E001018251010A01E002D0000115
:103E2A00D7930101E6A150D0010E0301CD6FD5EC65
:103E3A000EF0020E0301CD6FD5EC0EF00101536BAB
:103E4A005A6B060E4D6F010E0001DA6F040EF66E04
:103E5A007A0EF76E000EF86E770EE16E030EE26EC2
:103E6A00110E006E010E016EFAEC04F0770E0301DA
:103E7A00CD6F030ECE6FE4EC0CF0090E0301CD6F8B
:103E8A0029EC0DF06F0E0501B26F010EB36F0E0E25
:103E9A00B46F010EB56F100EB66F000EB76F49EC16
:103EAA0001F05B0EB26F010EB36F1F0EB46F010EFD
:103EBA00B56F100EB66F000EB76F49EC01F0010E28
:103ECA000101506F020E4F6FE751010A4FE1FA5399
:103EDA004DE0010E0301CD6FD5EC0EF0020E030189
:103EEA00CD6FD5EC0EF0060E01014D6F536B5A6B78
:103EFA00150EF66E7A0EF76E000EF86E880EE16EEB
:103F0A00030EE26E150E006E010E016EFAEC04F05D
:103F1A00880E0301CD6F030ECE6FE4EC0CF0090E90
:103F2A000301CD6F29EC0DF06F0E0501B26F010E82
:103F3A00B36F0E0EB46F010EB56F100EB66F000E92
:103F4A00B76F49EC01F05B0EB26F010EB36FDB0E77
:103F5A00B46F000EB56F100EB66F000EB76F49EC56
:103F6A0001F0010E0101506F020E4F6FE451000A79
:103F7A004DE0010E0301CD6FD5EC0EF0020E0301E8
:103F8A00CD6FD5EC0EF0060E01014D6F536B5A6BD7
:103F9A002A0EF66E7A0EF76E000EF86E9D0EE16E20
:103FAA00030EE26E120E006E010E016EFAEC04F0C0
:103FBA009D0E0301CD6F030ECE6FE4EC0CF0090EDB
:103FCA000301CD6F29EC0DF06F0E0501B26F010EE2
:103FDA00B36F0E0EB46F010EB56F100EB66F000EF2
:103FEA00B76F49EC01F05B0EB26F010EB36F300E82
:103FFA00B46F010EB56F100EB66F000EB76F49ECB5
:10400A0001F0010E0101506F020E4F6F0001D751EE
:10401A00000A2CE1010E01014D6F0001D86B090E57
:10402A000301CD6F29EC0DF06F0E0501B26F010E81
:10403A00B36FEC0EB46F000EB56F100EB66F000EB4
:10404A00B76F49EC01F05B0EB26F010EB36FC60E8B
:10405A00B46F000EB56F100EB66F000EB76F49EC55
:10406A0001F0010E0101506F010E4F6F01014D5118
:10407A00050A04E04D51060A01E04CD00301CD6B5C
:10408A0029EC0DF0000E0101FD1902E1000EFC19E8
:10409A0041E0FC5156250301CD6F0101FD51572125
:1040AA000301CE6F000E010158210301CF6F000EEC
:1040BA00010159210301D06F090ED16FFBEC0DF0FC
:1040CA003C0EF66E7A0EF76E000EF86EAF0EE16ECB
:1040DA00030EE26E150E006E010E016EFAEC04F08C
:1040EA00AF0ECD6F030ECE6FE4EC0CF05B0E050144
:1040FA00B26F010EB36FFD0EB46F000EB56F100EE6
:10410A00B66F000EB76F49EC01F0010E0101506F56
:06411A00020E4F6F1200BF
:10412000020E0201E96F839E01016C6BE451000AEB
:1041300009E1090E0301CD6F5EEC0CF00050010A9D
:1041400001E0DED102019751000A05E00101825130
:10415000010A01E088D0090E0301CD6F29EC0DF0B2
:104160000201E95101015625006E000E5721016E32
:10417000000E5821026E000E5921036E00C08AF213
:1041800001C08BF202C08CF203C08DF200C0CDF3EF
:1041900001C0CEF302C0CFF303C0D0F3010E030180
:1041A000D16FFBEC0DF08AC2CDF38BC2CEF38CC283
:1041B000CFF38DC2D0F3050ED16FFBEC0DF00101F2
:1041C000556B060E5625006E000E5721016E000E2F
:1041D0005821026E000E5921036E0201E95100269A
:1041E000000E01220222032200C08AF201C08BF2DB
:1041F00002C08CF203C08DF200C0CDF301C0CEF33B
:1042000002C0CFF303C0D0F30A0E0301D16FFBEC61
:104210000DF00201965101015625006E000E572146
:10422000016E000E5821026E000E5921036E02012C
:10423000E9510026000E01220222032200C08AF268
:1042400001C08BF202C08CF203C08DF200C0CDF32E
:1042500001C0CEF302C0CFF303C0D0F3030E0301BD
:10426000D16FFBEC0DF002019751000AD8B440D198
:1042700001018251020AD8A43BD1090E0301CD6F7E
:1042800029EC0DF00201E95101015625006E000EE6
:104290005721016E000E5821026E000E5921036E47
:1042A00000C08AF201C08BF202C08CF203C08DF212
:1042B00000C0CDF301C0CEF302C0CFF303C0D0F3F2
:1042C000020E0301D16FFBEC0DF08AC2CDF38BC25D
:1042D000CEF38CC2CFF38DC2D0F3060ED16FFBECC0
:1042E0000DF00101556B060E5625006E000E57218C
:1042F000016E000E5821026E000E5921036E02015C
:10430000E9510026000E01220222032200C08AF297
:1043100001C08BF202C08CF203C08DF200C0CDF35D
:1043200001C0CEF302C0CFF303C0D0F30B0E0301E4
:10433000D16FFBEC0DF00201965101015625006E84
:10434000000E5721016E000E5821026E000E5921F9
:10435000036E0201E9510026000E0122022203220F
:1043600000C08AF201C08BF202C08CF203C08DF251
:1043700000C0CDF301C0CEF302C0CFF303C0D0F331
:10438000040E0301D16FFBEC0DF00101FB5156252A
:10439000006E000E5721016E000E5821026E000EB5
:1043A0005921036E0201E9510026000E012202226A
:1043B000032200C08AF201C08BF202C08CF203C05B
:1043C0008DF200C0CDF301C0CEF302C0CFF303C025
:1043D000D0F3010E0301D16FFBEC0DF00101FB5195
:1043E0005625006E000E5721016E000E5821026EF8
:1043F000000E5921036E0201E9510026000E012230
:104400000222032200C08AF201C08BF202C08CF2A9
:1044100003C08DF200C0CDF301C0CEF302C0CFF3D4
:1044200003C0D0F3050E0301D16FFBEC0DF00101C9
:104430006E6BFB515625006E000E5721016E000E6B
:104440005821026E000E5921036E060E0026000E42
:104450000122022203220201E9510026000E01225C
:104460000222032200C08AF201C08BF202C08CF249
:1044700003C08DF200C0CDF301C0CEF302C0CFF374
:1044800003C0D0F30A0E0301D16FFBEC0DF0020163
:10449000975101015625006E000E5721016E000E46
:1044A0005821026E000E5921036E0201E9510026C7
:1044B000000E0122022203220101FB510026000E00
:1044C00001220222032200C08AF201C08BF202C044
:1044D0008CF203C08DF200C0CDF301C0CEF302C058
:1044E000CFF303C0D0F3030E0301D16FFBEC0DF04B
:1044F000030E0001D76F0101536B5A6B070E4D6F0E
:104500000101E6A126D0000EFD1902E1000EFC1902
:1045100020E00001D851000A1CE1010ED86F7EECAA
:104520000CF000C0D9F03D0EF66E7C0EF76E000E5A
:10453000F86EB30EE16E020EE26E160E006E010E04
:10454000016EFAEC04F0B30ECD6F020ECE6FE4EC08
:104550000CF00001D851010A5BE10101E6B158D02D
:10456000000EFD1902E1000EFC1952E00001D951C4
:1045700001015625006E000E5721016E000E5821D4
:10458000026E000E5921036E00C08AF201C08BF248
:1045900002C08CF203C08DF200C0CDF301C0CEF397
:1045A00002C0CFF303C0D0F3090E0301D16FFBECBF
:1045B0000DF00001D86B8AC2A6F58BC2A7F58CC29C
:1045C000A8F58DC2A9F5900E0501AA6F010EAB6F7B
:1045D00097EC04F0530EF66E7C0EF76E000EF86E3C
:1045E000C90EE16E020EE26E100E006E010E016E3B
:1045F000FAEC04F0C90E0301CD6F020ECE6FE4ECAD
:104600000CF0900E0301CD6F010ECE6FE4EC0CF0B8
:02461000120096
:10461200030E0201E96F839E01016C6BE451000AF3
:1046220004E10001DA5301E14CD10001DA6B838E1F
:10463200010E01016C6F090E0301CD6F29EC0DF023
:1046420002018E5318E0010E010156250301CD6FC0
:10465200000E010157210301CE6F000E0101582106
:104662000301CF6F000E010159210301D06F0C0E1F
:10467200D16FFBEC0DF00201E95101015625006EEC
:10468200000E5721016E000E5821026E000E5921B4
:10469200036E00C08AF201C08BF202C08CF203C02A
:1046A2008DF200C0CDF301C0CEF302C0CFF303C040
:1046B200D0F3010E0301D16FFBEC0DF08AC2CDF3F2
:1046C2008BC2CEF38CC2CFF38DC2D0F3050ED16F65
:1046D200FBEC0DF00101556B060E5625006E000E27
:1046E2005721016E000E5821026E000E5921036EF1
:1046F2000201E9510026000E01220222032200C01B
:104702008AF201C08BF202C08CF203C08DF200C0AB
:10471200CDF301C0CEF302C0CFF303C0D0F30A0E33
:104722000301D16FFBEC0DF00201915101015625FD
:10473200006E000E5721016E000E5821026E000E0F
:104742005921036E0201E9510026000E01220222C4
:10475200032200C08AF201C08BF202C08CF203C0B5
:104762008DF200C0CDF301C0CEF302C0CFF303C07F
:10477200D0F3030E0301D16FFBEC0DF00201925155
:10478200000AD8B494D001018251020AD8A48FD071
:10479200FB5156250301CD6F000E01015721030184
:1047A200CE6F000E010158210301CF6F000E0101EF
:1047B20059210301D06F0201E9510301CD27000EF7
:1047C200CE23CF23D023020ED16FFBEC0DF00101DB
:1047D200FB5156250301CD6F000E01015721030144
:1047E200CE6F000E010158210301CF6F000E0101AF
:1047F20059210301D06F0201E9510301CD27000EB7
:10480200CE23CF23D023060ED16FFBEC0DF0010196
:104812006E6BFB5156250301CD6F000E010157212E
:104822000301CE6F000E010158210301CF6F000E6C
:10483200010159210301D06F060ECD27000ECE23B0
:10484200CF23D0230201E9510301CD27000ECE234D
:10485200CF23D0230B0ED16FFBEC0DF0020192514E
:10486200010156250301CD6F000E010157210301FD
:10487200CE6F000E010158210301CF6F000E01011E
:1048820059210301D06F0101FB510301CD27000E15
:10489200CE23CF23D0230201E9510301CD27000EFD
:1048A200CE23CF23D023040ED16FFBEC0DF0030EE9
:1048B2003C6E0101536B5A6B0001D86B080E01016B
:1048C2004D6F090E0301CD6F5EEC0CF00050010A32
:1048D200D8A42CD1090E0301CD6F29EC0DF00201F1
:1048E200E95101015625006E000E5721016E000E9E
:1048F2005821026E000E5921036E00C08AF201C0D7
:104902008BF202C08CF203C08DF200C0CDF301C065
:10491200CEF302C0CFF303C0D0F3010E0301D16F77
:10492200FBEC0DF08AC2CDF38BC2CEF38CC2CFF377
:104932008DC2D0F3050ED16FFBEC0DF00101556B6A
:10494200060E5625006E000E5721016E000E5821EC
:10495200026E000E5921036E0201E9510026000E7B
:1049620001220222032200C08AF201C08BF202C09D
:104972008CF203C08DF200C0CDF301C0CEF302C0B1
:10498200CFF303C0D0F30A0E0301D16FFBEC0DF09D
:104992000201965101015625006E000E5721016E4B
:1049A200000E5821026E000E5921036E0201E951D8
:1049B2000026000E01220222032200C08AF201C058
:1049C2008BF202C08CF203C08DF200C0CDF301C0A5
:1049D200CEF302C0CFF303C0D0F3030E0301D16FB5
:1049E200FBEC0DF002019751000AD8B494D00101FA
:1049F2008251020AD8A48FD0FB5156250301CD6FF4
:104A0200000E010157210301CE6F000E0101582152
:104A12000301CF6F000E010159210301D06F020182
:104A2200E9510301CD27000ECE23CF23D023020E5E
:104A3200D16FFBEC0DF00101FB5156250301CD6F47
:104A4200000E010157210301CE6F000E0101582112
:104A52000301CF6F000E010159210301D06F020142
:104A6200E9510301CD27000ECE23CF23D023060E1A
:104A7200D16FFBEC0DF001016E6BFB51562503016A
:104A8200CD6F000E010157210301CE6F000E01010F
:104A920058210301CF6F000E010159210301D06F8C
:104AA200060ECD27000ECE23CF23D0230201E951DB
:104AB2000301CD27000ECE23CF23D0230B0ED16FBF
:104AC200FBEC0DF002019651010156250301CD6F59
:104AD200000E010157210301CE6F000E0101582182
:104AE2000301CF6F000E010159210301D06F0101B3
:104AF200FB510301CD27000ECE23CF23D023020189
:104B0200E9510301CD27000ECE23CF23D023040E7B
:104B1200D16FFBEC0DF0030E0001D76F0101536B57
:104B22005A6B0001D86B070E01014D6F0101E6A11E
:104B320026D0000EFD1902E1000EFC1920E0000152
:104B4200D851000A1CE1010ED86F7EEC0CF000C0B7
:104B5200D9F0740EF66E7C0EF76E000EF86EB30E80
:104B6200E16E020EE26E160E006E010E016EFAEC9E
:104B720004F0B30ECD6F020ECE6FE4EC0CF0000128
:104B8200D851010A5BE10101E6B158D0000EFD19CE
:104B920002E1000EFC1952E00001D9510101562533
:104BA200006E000E5721016E000E5821026E000E9B
:104BB2005921036E00C08AF201C08BF202C08CF24E
:104BC20003C08DF200C0CDF301C0CEF302C0CFF31B
:104BD20003C0D0F3090E0301D16FFBEC0DF000010D
:104BE200D86B8AC2A6F58BC2A7F58CC2A8F58DC276
:104BF200A9F5900E0501AA6F010EAB6F97EC04F0B8
:104C02008A0EF66E7C0EF76E000EF86EC90EE16E1D
:104C1200020EE26E100E006E010E016EFAEC04F04E
:104C2200C90E0301CD6F020ECE6FE4EC0CF0900EB4
:0E4C32000301CD6F010ECE6FE4EC0CF012000A
:104C4000F8D1838E010E01016C6FE4A103D0020E36
:104C5000DF6FC92BE4A304D0010EDF6F030EC96F11
:104C6000536B5A6B1FD2020E0301CD6FCE6B9EECBD
:104C70000EF0040E010156250301CD6F000E010157
:104C800057210301CE6F000E010158210301CF6FA0
:104C9000000E010159210301D06F150ED16FFBECFD
:104CA0000DF00101C92BFED1E5A30BD05A51010A29
:104CB00008E15A6B020E0301CD6FD5EC0EF0010135
:104CC000C92B150E0301CD6F5EEC0CF0005203E012
:104CD000010E01015A6FE6D1010E0301CD6FCE6BBB
:104CE0009EEC0EF0040E010156250301CD6F000E5F
:104CF000010157210301CE6F000E0101582103016C
:104D0000CF6F000E010159210301D06F140ED16F36
:104D1000FBEC0DF00101C92BE5A10BD05351010AA9
:104D200008E1536B010E0301CD6FD5EC0EF00101CC
:104D3000C92B140E0301CD6F5EEC0CF0005203E0A2
:104D4000010E0101536FAED156C1DBF157C1DCF149
:104D500058C1DDF159C1DEF1010E0301CD6F010E25
:104D6000CE6F9EEC0EF0040E010156250301CD6FAF
:104D7000000E010157210301CE6F000E01015821E1
:104D80000301CF6F000E010159210301D06F140EF2
:104D9000D16FFBEC0DF00101C92B84D1E5A116D038
:104DA0005351010A13E1536B010E0301CD6FD5EC92
:104DB0000EF00101DF51010A03E10B0EC96F01D0B2
:104DC000C92BDB51565D006E00C0CBF1140E030100
:104DD000CD6F5EEC0CF0005203E0010E0101536F49
:104DE00061D156C1DBF157C1DCF158C1DDF159C1C8
:104DF000DEF1020E0301CD6F010ECE6F9EEC0EF0C0
:104E0000040E010156250301CD6F000E010157214B
:104E10000301CE6F000E010158210301CF6F000E78
:104E2000010159210301D06F150ED16FFBEC0DF07C
:104E30000101C92B37D1E5A310D05A51010A0DE168
:104E40005A6B020E0301CD6FD5EC0EF00101C92B98
:104E5000DB51565D006E00C0CDF1150E0301CD6F24
:104E60005EEC0CF0005203E0010E01015A6F1AD102
:104E700056C1DBF157C1DCF158C1DDF159C1DEF19A
:104E8000020E0301CD6FCE6B9EEC0EF0040E0101FD
:104E900056250301CD6F000E010157210301CE6F8E
:104EA000000E010158210301CF6F000E01015921AD
:104EB0000301D06F150ED16FFBEC0DF00101C92B72
:104EC000F1D0E5A310D05A51010A0DE15A6B020E40
:104ED0000301CD6FD5EC0EF00101C92BDB51565DFE
:104EE000006E00C0CCF1150E0301CD6F5EEC0CF02E
:104EF000005203E0010E01015A6FD4D056C1DBF11C
:104F000057C1DCF158C1DDF159C1DEF1010E0301D9
:104F1000CD6FCE6B9EEC0EF0040E01015625030101
:104F2000CD6F000E010157210301CE6F000E01016C
:104F300058210301CF6F000E010159210301D06FE9
:104F4000140ED16FFBEC0DF00101C92BABD0E5A124
:104F500010D05351010A0DE1536B010E0301CD6FC7
:104F6000D5EC0EF00101C92BDB51565D006E00C07F
:104F7000CAF1140E0301CD6F5EEC0CF0005203E099
:104F8000010E0101536F8ED0CA0E0301CD6F010EC9
:104F9000CE6FE7EC05F0CA0ECD6F010ECE6FDFC10C
:104FA000CFF39FEC0BF06F0E0501B26F010EB36FE4
:104FB000AB0EF66E7C0EF76E000EF86EB30EE16E61
:104FC000020EE26E110E006E010E016EFAEC04F09C
:104FD000B30EB46F020EB56F100EB66F000EB76F42
:104FE00049EC01F05B0EB26F010EB36FBC0EF66EB2
:104FF0007C0EF76E000EF86EC40EE16E020EE26ECD
:10500000110E006E010E016EFAEC04F0C40EB46FC6
:10501000020EB56F100EB66F000EB76F49EC01F0BF
:10502000020E01014F6F010E506F839E6C6B4D6B32
:1050300039D00101C951000AD8B403D6C951010AB7
:10504000D8B411D6C951020AD8B42ED6C951030A10
:10505000D8B442D6C951040AD8B45ED6C951050A9B
:10506000D8B472D6C951060AD8B498D6C951070A1D
:10507000D8B4B7D6C951080AD8B4DDD6C951090A7F
:10508000D8B4F6D6C9510A0AD8B41BD7C9510B0AED
:10509000D8B434D7C9510C0AD8B459D7C9510D0A5C
:0650A000D8B472D7120023
:1050A600020E0201F56FF66B839E01016C6B16EC26
:1050B6000FF000500201F61938E00101526B16ECB0
:1050C6000FF000C0F6F200C0CDF3660ECE6F010EF3
:1050D600CF6F6FEC06F05B0EB26F010EB36F430E2F
:1050E6000201B36F6C0EB46F6F0EB56F730EB66FB1
:1050F600650EB76F200EB86F610EB96F660EBA6F88
:10510600740EBB6F650EBC6F720EBD6FBE6BB30EB9
:105116000501B46F020EB56F0B0EB66F000EB76FBA
:1051260049EC01F0010E0101506F0101E451000A42
:1051360008E1090E0301CD6F5EEC0CF0005201E1AF
:10514600C6D30301CD6B29EC0DF002019751000A7D
:1051560005E001018251010A01E044D10201F55145
:1051660001015625006E000E5721016E000E5821D2
:10517600026E000E5921036E00C08AF201C08BF246
:1051860002C08CF203C08DF200C0CDF301C0CEF395
:1051960002C0CFF303C0D0F3010E0301D16FFBECC5
:1051A6000DF002019451000A11E08AC2CDF38BC2C0
:1051B600CEF38CC2CFF38DC2D0F3070E0301D16FAD
:1051C600FBEC0DF0010E0101556F0FD08AC2CDF335
:1051D6008BC2CEF38CC2CFF38DC2D0F3050E030182
:1051E600D16FFBEC0DF00101556B020194510101E9
:1051F6005625006E000E5721016E000E5821026ED4
:10520600000E5921036E060E0026000E0122022210
:1052160003220201F5510026000E0122022203227A
:1052260000C08AF201C08BF202C08CF203C08DF27C
:1052360000C0CDF301C0CEF302C0CFF303C0D0F35C
:105246000A0E0301D16FFBEC0DF00201945101012E
:105256005625006E000E5721016E000E5821026E73
:10526600000E5921036E0201F5510026000E01229F
:105276000222032200C08AF201C08BF202C08CF225
:1052860003C08DF200C0CDF301C0CEF302C0CFF350
:1052960003C0D0F3050E0301D16FFBEC0DF0020144
:1052A6009551000A2FE0965101015625006E000E19
:1052B6005721016E000E5821026E000E5921036E11
:1052C60002019551005E000E015A025A035AF55129
:1052D6000026000E01220222032200C08AF201C02B
:1052E6008BF202C08CF203C08DF200C0CDF301C078
:1052F600CEF302C0CFF303C0D0F3070E0301D16F84
:10530600FBEC0DF002018F51000A42E096510101BB
:105316005625006E000E5721016E000E5821026EB2
:10532600000E5921036E0201F5510026000E0122DE
:105336000222032200C08AF201C08BF202C08CF264
:1053460003C08DF200C0CDF301C0CEF302C0CFF38F
:1053560003C0D0F3050E0301D16FFBEC0DF0020E76
:1053660002018A250301CD6F000E02018B21030184
:10537600CE6F000E02018C210301CF6F000E0201D9
:105386008D210301D06F030ED16FFBEC0DF02AD0F7
:105396000201965101015625006E000E5721016E3D
:1053A600000E5821026E000E5921036E0201F551BE
:1053B6000026000E01220222032200C08AF201C04A
:1053C6008BF202C08CF203C08DF200C0CDF301C097
:1053D600CEF302C0CFF303C0D0F3030E0301D16FA7
:1053E600FBEC0DF002019751000AD8B468D2010116
:1053F6008251020AD8A463D20201F5510101562551
:10540600006E000E5721016E000E5821026E000E2E
:105416005921036E00C08AF201C08BF202C08CF2E1
:1054260003C08DF200C0CDF301C0CEF302C0CFF3AE
:1054360003C0D0F3020E0301D16FFBEC0DF00201A5
:105446009451000A11E08AC2CDF38BC2CEF38CC20E
:10545600CFF38DC2D0F3080E0301D16FFBEC0DF034
:10546600010E01016E6F0FD08AC2CDF38BC2CEF34F
:105476008CC2CFF38DC2D0F3060E0301D16FFBECC5
:105486000DF001016E6B0201945101015625006E6B
:10549600000E5721016E000E5821026E000E592192
:1054A600036E060E0026000E0122022203220201CE
:1054B600F5510026000E01220222032200C08AF2C4
:1054C60001C08BF202C08CF203C08DF200C0CDF396
:1054D60001C0CEF302C0CFF303C0D0F30B0E03011D
:1054E600D16FFBEC0DF00201945101015625006EBF
:1054F600000E5721016E000E5821026E000E592132
:10550600036E0201F5510026000E0122022203223B
:1055160000C08AF201C08BF202C08CF203C08DF289
:1055260000C0CDF301C0CEF302C0CFF303C0D0F369
:10553600060E0301D16FFBEC0DF002019551000A36
:105546002FE0975101015625006E000E5721016E7E
:10555600000E5821026E000E5921036E020195516C
:10556600005E000E015A025A035AF5510026000E3B
:1055760001220222032200C08AF201C08BF202C07D
:105586008CF203C08DF200C0CDF301C0CEF302C091
:10559600CFF303C0D0F3080E0301D16FFBEC0DF07F
:1055A6000201975101015625006E000E5721016E2A
:1055B600000E5821026E000E5921036E0201F551AC
:1055C6000026000E01220222032200C08AF201C038
:1055D6008BF202C08CF203C08DF200C0CDF301C085
:1055E600CEF302C0CFF303C0D0F3040E0301D16F94
:1055F600FBEC0DF00101FB515625006E000E572104
:10560600016E000E5821026E000E5921036E020132
:10561600F5510026000E01220222032200C08AF262
:1056260001C08BF202C08CF203C08DF200C0CDF334
:1056360001C0CEF302C0CFF303C0D0F3010E0301C5
:10564600D16FFBEC0DF002019451000A11E08AC201
:10565600CDF38BC2CEF38CC2CFF38DC2D0F3070E3F
:105666000301D16FFBEC0DF0010E0101556F0FD058
:105676008AC2CDF38BC2CEF38CC2CFF38DC2D0F3E8
:10568600050E0301D16FFBEC0DF00101556BFB51CB
:105696005625006E000E5721016E000E5821026E2F
:1056A600000E5921036E020194510026000E0122BC
:1056B60002220322060E0026000E012202220322E7
:1056C600F5510026000E01220222032200C08AF2B2
:1056D60001C08BF202C08CF203C08DF200C0CDF384
:1056E60001C0CEF302C0CFF303C0D0F30A0E03010C
:1056F600D16FFBEC0DF00101FB515625006E000E3B
:105706005721016E000E5821026E000E5921036EBC
:10571600020194510026000E012202220322F551B5
:105726000026000E01220222032200C08AF201C0D6
:105736008BF202C08CF203C08DF200C0CDF301C023
:10574600CEF302C0CFF303C0D0F3050E0301D16F31
:10575600FBEC0DF002019551000A35E00101FB5109
:105766005625006E000E5721016E000E5821026E5E
:10577600000E5921036E020196510026000E0122E9
:10578600022203229551005E000E015A025A035A64
:10579600F5510026000E01220222032200C08AF2E1
:1057A60001C08BF202C08CF203C08DF200C0CDF3B3
:1057B60001C0CEF302C0CFF303C0D0F3070E03013E
:1057C600D16FFBEC0DF002018F51000A48E09651B3
:1057D60001015625006E000E5721016E000E58215C
:1057E600026E000E5921036EFB510026000E0122A7
:1057F600022203220201F5510026000E0122022296
:10580600032200C08AF201C08BF202C08CF203C0F0
:105816008DF200C0CDF301C0CEF302C0CFF303C0BA
:10582600D0F3050E0301D16FFBEC0DF0020E020161
:105836008A250301CD6F000E02018B210301CE6F75
:10584600000E02018C210301CF6F000E02018D2193
:105856000301D06F030ED16FFBEC0DF030D00201C7
:10586600965101015625006E000E5721016E000E5D
:105876005821026E000E5921036EFB510026000EC0
:105886000122022203220201F5510026000E012206
:105896000222032200C08AF201C08BF202C08CF2FF
:1058A60003C08DF200C0CDF301C0CEF302C0CFF32A
:1058B60003C0D0F3030E0301D16FFBEC0DF0030E12
:1058C6000001D76F0101536B5A6B040E4D6F010136
:1058D600E6A126D0000EFD1902E1000EFC1920E01B
:1058E6000001D851000A1CE1010ED86F7EEC0CF0C5
:1058F60000C0D9F0050EF66E7C0EF76E000EF86E3F
:10590600BF0EE16E020EE26E160E006E010E016E05
:10591600FAEC04F0BF0ECD6F020ECE6FE4EC0CF085
:105926000001D851010AD8A4B3D00101E6B1B0D024
:10593600000EFD1902E1000EFC19D8B4A9D002012F
:105946009051000A53E10001D95101015625006E1C
:10595600000E5721016E000E5821026E000E5921CD
:10596600036E00C08AF201C08BF202C08CF203C043
:105976008DF200C0CDF301C0CEF302C0CFF303C059
:10598600D0F3090E0301D16FFBEC0DF00001D86BCB
:105996008AC2A6F58BC2A7F58CC2A8F58DC2A9F559
:1059A600900E0501AA6F010EAB6F97EC04F01B0E6B
:1059B600F66E7C0EF76E000EF86ED50EE16E020ED8
:1059C600E26E100E006E010E016EFAEC04F0D50EBA
:1059D6000301CD6F020ECE6FE4EC0CF0900E0301C6
:1059E600CD6F010ECE6FE4EC0CF052D00201905157
:1059F60001015625006E000E5721016E000E58213A
:105A0600026E000E5921036E00C08AF201C08BF2AD
:105A160002C08CF203C08DF200C0CDF301C0CEF3FC
:105A260002C0CFF303C0D0F3090E0301D16FFBEC24
:105A36000DF00001D86B8AC2A6F58BC2A7F58CC201
:105A4600A8F58DC2A9F5900E0501AA6F010EAB6FE0
:105A560097EC04F02B0EF66E7C0EF76E000EF86EC9
:105A6600E50EE16E020EE26E100E006E010E016E84
