:04000000FBEF36F0EC
:1000080000C019F001C018F004C017F008C016F0BD
:100018000CC015F0F2A42CD001016D2B8088010EC4
:10002800416F7E51FF0A03E17E6B7F6B01D07E2B0F
:10003800C451FF0A03E1C46B476B01D0C42B190EEE
:100048006D5D11E36D6B010E6F27000E7023712338
:1000580072230001D753010ED8A4000ED76F8098E1
:10006800010E01013F6FF30ED76ECA0ED66EF294E1
:10007800F0A017D001017F51000A03E17F2B7E6BAE
:1000880001D07F2B050E7F5D0BE3130E7E5D07E32A
:100098007E51150804E3010E456F7F6B01D07F6B1D
:1000A800F090F0A217D001014751000A03E1472B55
:1000B800C46B01D0472B050E475D0BE3130EC45DDF
:1000C80007E3C451150804E3010E466F476B01D0DE
:1000D800476BF092F2A234D00101432B4351FF0A3F
:1000E80001E1436B030E046E43C100F06BD808C0F6
:1000F80000F00050010A12E10001A05306E00101DE
:10010800745302E0818601D081960001A15306E074
:100118000101755302E0818801D08198030E046EB5
:1001280043C100F04FD808C000F00050000A07E1B2
:100138000001A05301E08186A15301E08188F29279
:1001480019C000F018C001F017C004F016C008F07C
:0601580015C00CF01100BF
:0E015E00ACB202D00000FCD781C5ADFF12008C
:10016C0081C5C9FFC7B002D00000FCD7C9CF00F0D1
:02017C0012006F
:10017E00F250026EF29E0500FF6A0150FE6E0050B4
:08018E00FD6E02BEF28E1200AC
:10019600086A096A100E0C6E0134083609360450D6
:1001A600085E0550D8A0053C095ED8B007D00450BB
:1001B60008260550D8B0053C0926D89000360136E9
:0601C6000C2EEAD7120026
:1001CC00086A080E0C6E003408360450085ED8B06D
:0E01DC0002D00826D89000360C2EF5D712005F
:1001EA007CC504F07DC505F07AC502F07BC503F035
:1001FA007EC500F07FC501F0010E05017E5F000E8D
:10020A007F5B005001100FE004C0E9FF05C0EAFF60
:10021A0002C0E1FF03C0E2FFEECFE6FF024A032A73
:10022A00044A052AE5D77AC500F07BC501F0120019
:10023A00ADC1E1FFAEC1E2FF7AC5E6FFABC100F096
:08024A00ACC101F097DF1200C6
:100252000B6A0A6A096A086A0E6A0334083604508D
:10026200085E0550D8A0053C095E0650D8A0063CA1
:100272000A5E0750D8A0073C0B5EE86AD8A0010EC0
:100282000E5E0336070E0C6E0334083609360A3644
:100292000B360E36045003A012D0085E0550D8A0CB
:1002A200053C095E0650D8A0063C0A5E0750D8A05D
:1002B200073C0B5EE86AD8A0010E0E5E11D008263C
:1002C2000550D8B0053C09260650D8B0063C0A268F
:1002D2000750D8B0073C0B26E86AD8B0010E0E26AC
:1002E20003360C2ED1D70234083609360A360B36BD
:1002F2000E36045003A012D0085E0550D8A0053C6B
:10030200095E0650D8A0063C0A5E0750D8A0073CFA
:100312000B5EE86AD8A0010E0E5E11D008260550C9
:10032200D8B0053C09260650D8B0063C0A2607502C
:10033200D8B0073C0B26E86AD8B0010E0E2602366A
:10034200070E0C6E0234083609360A360B360E36A4
:10035200045002A012D0085E0550D8A0053C095EE8
:100362000650D8A0063C0A5E0750D8A0073C0B5E98
:10037200E86AD8A0010E0E5E11D008260550D8B04A
:10038200053C09260650D8B0063C0A260750D8B0CC
:10039200073C0B26E86AD8B0010E0E2602360C2E58
:1003A200D1D70134083609360A360B360E360450D8
:1003B20002A012D0085E0550D8A0053C095E065086
:1003C200D8A0063C0A5E0750D8A0073C0B5EE86A3C
:1003D200D8A0010E0E5E11D008260550D8B0053CFB
:1003E20009260650D8B0063C0A260750D8B0073C6A
:1003F2000B26E86AD8B0010E0E260136070E0C6EE7
:100402000134083609360A360B360E36045001A07E
:1004120012D0085E0550D8A0053C095E0650D8A04F
:10042200063C0A5E0750D8A0073C0B5EE86AD8A0DB
:10043200010E0E5E11D008260550D8B0053C0926E3
:100442000650D8B0063C0A260750D8B0073C0B2607
:10045200E86AD8B0010E0E2601360C2ED1D7003430
:10046200083609360A360B360E36045001A012D071
:10047200085E0550D8A0053C095E0650D8A0063C8F
:100482000A5E0750D8A0073C0B5EE86AD8A0010EAE
:100492000E5E11D008260550D8B0053C092606503C
:1004A200D8B0063C0A260750D8B0073C0B26E86AAB
:1004B200D8B0010E0E260036070E0C6E0034083638
:1004C20009360A360B360E36045000A012D0085EEA
:1004D2000550D8A0053C095E0650D8A0063C0A5E2D
:1004E2000750D8A0073C0B5EE86AD8A0010E0E5E4A
:1004F20011D008260550D8B0053C09260650D8B0C0
:10050200063C0A260750D8B0073C0B26E86AD8B04A
:10051200010E0E2600360C2ED1D700B00ED004509C
:1005220008260550D8B0053C09260650D8B0063C2E
:0C0532000A260750D8B0073C0B26120028
:10053E0005017E6B050E7E5D0AE27E517C25E16E25
:10054E00000E7D21E26E200EE66E7E2BF3D77E51DD
:10055E007C25E16E000E7D21E26EE66A7E077E51FD
:10056E007C257F6F000E7D21806F0A0E046E000EBB
:10057E00056E7AC500F07BC501F006DE08C000F0FE
:10058E0009C001F0300E00267FC5E1FF80C5E2FFF5
:10059E0000C0E6FF0A0E046E000E056E7AC500F06E
:1005AE007BC501F0F1DD00C07AF501C07BF5000ED0
:1005BE00011802E1000E001801E102D07E07CFD72C
:0205CE00120019
:1005D00005017D6B030E7D5D0AE27D517B25E16E99
:1005E000000E7C21E26E200EE66E7D2BF3D77D514E
:1005F0007B25E16E000E7C21E26EE66A7D077D516F
:100600007B257E6F000E7C217F6F0A0E046E7AC5FB
:1006100000F0DCDD08C000F0300E00267EC5E1FFF2
:100620007FC5E2FF00C0E6FF0A0E046E7AC500F047
:10063000CDDD00C07AF50050000A01E102D07D074F
:04064000DED71200EF
:10064400A6A202D00000FCD7A69C7AC5A9FF7BC550
:10065400A8FFA69EA684F2CF00F0F29E550EA76EC8
:10066400AA0EA76EA68200BE02D0F29E01D0F28E20
:04067400A694120036
:100678004ED00101826B836BFF0E946F67D001012E
:10068800440E826F020E836FC80E946F5FD0010113
:10069800580E826F020E836F960E946F57D0010129
:1006A8008A0E826F020E836F640E946F4FD0010121
:1006B8008A0E826F020E836F500E946F47D001012D
:1006C800A80E826F020E836F960E946F3FD00101C1
:1006D800A80E826F020E836F640E946F37D00101EB
:1006E800A80E826F020E836F320E946F2FD0010115
:1006F800D00E826F020E836F640E946F27D00101B3
:10070800EE0E826F020E836F320E946F1FD00501BA
:100718007A51000AAEE07A51010AB1E07A51020A30
:10072800B6E07A51030ABBE07A51040AC0E07A5174
:10073800050AC5E07A51060ACAE07A51070ACFE0ED
:0E0748007A51080AD4E07A51090AD9E0120069
:0A075600490E0D6E0D2EFED71200A5
:100760006EC57AF505017A337A9F6FC57BF570C542
:100770007CF52EDF010E6E15016E0150010A17E1A6
:10078000030E6F257A6F000E70217B6F2E0E716F36
:10079000350E726F730E736F746B710E7C6F050E76
:1007A0007D6F040E7E6F000E7F6F1FDD16D0030E6F
:1007B0006F257A6F000E70217B6F730E756F200EA0
:1007C000766F200E776F786B750E7C6F050E7D6FE0
:0C07D000040E7E6F000E7F6F08DD12002B
:1007DC000501716B6EC5E9FF6FC5EAFFEECF70F5D1
:1007EC007051000A0EE070C57AF521DD0501712B00
:1007FC0071516E25E96E000E6F21EA6EEECF70F529
:04080C00EFD7120010
:100810000B6A0A6A096A00500402F4CF09F0F3CFA8
:1008200008F001500502F4CF0BF0F3CF0AF00050AE
:100830000502F3500926F4500A22E86A0B220150FF
:100840000402F3500926F4500A22E86A0B2208C079
:1008500000F009C001F00AC002F00BC003F0120062
:100860000501716B6EC5E9FF6FC5EAFFEECF70F54C
:100870007051000A0EE070C581F571DC0501712B25
:1008800071516E25E96E000E6F21EA6EEECF70F5A4
:04089000EFD712008C
:100894000900F5CFE6FF0006FBE10106F9E11200CD
:1008A4000501746B0A0E745D0AE274517225E16EDF
:1008B400000E7321E26E300EE66E742BF3D7745182
:1008C4007225E16E000E7321E26EE66A7407000E73
:1008D400006E711908E10050701905E100506F199C
:1008E40002E16E51000A3EE074517225756F000EEC
:1008F4007321766F0A0E046E000E056E066E076E87
:100904006EC500F06FC501F070C502F071C503F04B
:100914009EDC08C000F009C001F00AC002F00BC060
:1009240003F0300E002675C5E1FF76C5E2FF00C076
:10093400E6FF74070A0E046E000E056E066E076E5F
:100944006EC500F06FC501F070C502F071C503F00B
:100954007EDC00C06EF501C06FF502C070F503C007
:0609640071F5B5D7120089
:10096A00A69C6EC5A9FFA69EA680A8CF00F012007D
:10097A006EC57AF56FC57BF505017B337A337B9FAC
:10098A0070C57CF571C57DF5D5DD010E6E15016E5C
:10099A006FC502F0000E0216000E021802E1010EE7
:1009AA00011817E1050E70257A6F000E71217B6F11
:1009BA002E0E726F350E736F730E746F756B720E27
:1009CA007C6F050E7D6F040E7E6F000E7F6F08DC54
:1009DA0017D0050E70257A6F000E71217B6F730E8A
:1009EA00766F200E776F200E786F796B760E7C6F9C
:1009FA00050E7D6F040E7E6F000E7F6FF5EC00F022
:020A0A001200D8
:100A0C00C7B409D01F0EC514016E0150000A03E1D2
:0A0A1C00010E006E01D0006A120006
:100A2600010E05017A6FC6C17BF509DE020E0501CE
:100A36007A6F8EC27BF503DE030E05017A6FC7C19E
:100A46007BF5FDDD040E05017A6F8BC27BF5F7DDC4
:100A5600050E05017A6FEDC17BF5F1DD060E050188
:100A66007A6F8CC27BF5EBDD070E05017A6F8DC2BE
:100A76007BF5E5DD080E05017A6F90C27BF5DFDDBB
:100A8600090E05017A6F8FC27BF5D9DD0A0E0501C5
:100A96007A6FEBC17BF5D3DD0B0E05017A6FEAC1E8
:100AA6007BF5CDDD0C0E05017A6F7CC17BF5C7DDCC
:100AB60001017C51090805017A6FDBDD0D0E050188
:100AC6007A6FEEC17BF5BBDD0E0E05017A6FECC1C8
:100AD6007BF5B5DD0F0E05017A6FEFC17BF5AFDD56
:0E0AE600100E05017A6FC3C17BF5A9DD120069
:100AF4000301C56BC66BC651120802E1C5518E08CD
:100B040008E382DF005201E004D00301C54BC62B89
:100B1400F2D70301120EC65D02E18F0EC55D03E339
:100B24007B0E006E05D0C580C5A001D0FDD7006A3C
:020B34001200AD
:100B36000301CA6B140ECA5D6DE2CAC300F0000E53
:100B4600016E070E046E000E056E5FDEFB0E0026BC
:100B5600010E0122050E0024E96E000E0120EA6E48
:100B6600EE50010A55E1CAC300F0000E016E070EF1
:100B7600046E000E056E49DEFB0E0024E16E010ECA
:100B86000120E26EC9C3E6FFCAC300F0000E016E83
:100B9600070E046E000E056E38DEFB0E0026010EF3
:100BA6000122010E0024E16E000E0120E26EC5C393
:100BB600E6FFC6C3E6FFC7C3E6FFC8C3E6FFCAC370
:100BC60000F0000E016E070E046E000E056E1DDEAF
:100BD600FB0E0026010E0122050E0024E16E000E1A
:100BE6000120E26EE66ACAC300F0000E016E070E2F
:100BF600046E000E056E09DEFB0E0026010E0122B4
:100C0600060E0024E16E000E0120E26EE66A02D0B6
:060C1600CA2B90D712006A
:100C1C000301C551010A17E1C6B102D0829201D07D
:100C2C008282060E0B6E130E0C6EAD0E0D6E0D2E1B
:100C3C00FED70C2EFCD70B2EFAD700000000010EAD
:100C4C000001A06F81860301C551020A17E1C6B1EC
:100C5C0002D0829001D08280060E0B6E130E0C6EA9
:100C6C00AD0E0D6E0D2EFED70C2EFCD70B2EFAD71B
:0E0C7C0000000000010E0001A16F818812002F
:100C8A00010E0301C525E96E000EC621EA6EEECFFC
:100C9A00C6F1C5C3E9FFC6C3EAFFEECFC7F1C75124
:100CAA00020AD8A485D0030EC525E96E000EC62116
:100CBA00EA6EEECF8EF2020EC525E96E000EC6214F
:100CCA00EA6EEECF8BF2040EC525E96E000EC62140
:100CDA00EA6E080EC525D96E000EC621DA6EDE5000
:100CEA00EE24036E046A000E042203C000F004C05E
:100CFA0001F001320032019E01BC018E00C08CF26B
:100D0A00050EC525E96E000EC621EA6E090EC52537
:100D1A00D96E000EC621DA6EDE50EE24036E046A26
:100D2A00000E042203C000F004C001F001320032B8
:100D3A00019E01BC018E00C08DF2060EC525E96E2A
:100D4A00000EC621EA6E0A0EC525D96E000EC6210E
:100D5A00DA6EDE50EE24036E046A000E042203C02B
:100D6A0000F004C001F001320032019E01BC018E84
:100D7A0000C090F2070EC525E96E000EC621EA6E84
:100D8A000B0EC525D96E000EC621DA6EDE50EE2492
:100D9A00036E046A000E042203C000F004C001F0CE
:100DAA0001320032019E01BC018E00C08FF224D0B4
:100DBA0002018E6B8B6B040E0301C525E96E000ED2
:100DCA00C621EA6EEECF8CF2050EC525E96E000E3D
:100DDA00C621EA6EEECF8DF2060EC525E96E000E2B
:100DEA00C621EA6EEECF90F2070EC525E96E000E17
:0C0DFA00C621EA6EEECF8FF211DE12006F
:100E06000301C56B140EC55D5CE2C5C300F0000EA0
:100E1600016E070E046E000E056EF7DCFB0E002653
:100E2600010E0122050E0024E96E000E0120EA6E75
:100E3600EE50000A2FE1C5C300F0000E016E070E4A
:100E4600046E000E056EE1DCFB0E0024E96E010E59
:100E56000120EA6EEECF01F00150090A1BE1C5C37D
:100E660000F0000E016E070E046E000E056ECDDC5E
:100E7600FB0E0026010E0122010E0024E96E000E73
:100E86000120EA6EEECFC6F3EECFC7F3EECFC8F37E
:100E9600EECFC9F3C5C300F0000E016E070E046E57
:100EA600000E056EB2DCFB0E0026010E0122050EB9
:100EB6000024E16E000E0120E26E010EE66EC52BE7
:100EC600A1D701016F510301C65D006E00C0C5F3D5
:020ED600120008
:100ED800010E0301C525016E000EC621026E01C078
:100EE800E9FF02C0EAFF0A0EEE24006E01C0E1FF2E
:100EF80002C0E2FF00C0E6FF030EC525016E000E2A
:100F0800C621026E01C0E9FF02C0EAFF0A0EEE2404
:100F1800006E01C0E1FF02C0E2FF00C0E6FFC5C3EA
:100F2800E9FFC6C3EAFFEECF00F0C5C3E1FFC6C3C1
:100F3800E2FF0A0E0024E66E020EC525016E000EC1
:100F4800C621026E01C0E9FF02C0EAFF0A0EEE24C4
:100F5800006E01C0E1FF02C0E2FF00C0E6FF040E20
:100F6800C525E16E000EC621E26E040EE66E060E81
:100F7800C525E16E000EC621E26E040EE66E080E6F
:100F8800C525E16E000EC621E26E040EE66E0A0E5D
:100F9800C525E16E000EC621E26E040EE66E050E52
:100FA800C525E16E000EC621E26E0A0EE66E090E38
:100FB800C525E16E000EC621E26E0A0EE66E070E2A
:100FC800C525E16E000EC621E26E0A0EE66E0B0E16
:100FD800C525E16E000EC621E26E0A0EE66E12000D
:100FE8006FC16EF570C16FF571C170F572C171F5A1
:100FF800C70E0501726F030E736F50DCC70E6E6F5C
:10100800030E6F6FEEEC03F03A0E0301D26F200E61
:10101800D36FD46BD20E05016E6F030E6F6F1CDC9D
:10102800C5C36EF5C6C36FF517DC0A0E816FAFEC4A
:0E10380000F00D0E0501816FAFEC00F012000C
:101046000301C66B140EC65D44E2C6C300F0000E73
:10105600016E070E046E000E056E08EC04F0FB0E22
:101066000026010E0122050E0024E96E000E012065
:10107600EA6EEE50000A2BE1C6C300F0000E016EC8
:10108600070E046E000E056E08EC04F0FB0E00243D
:10109600E96E010E0120EA6EEECF01F00150C5198E
:1010A60016E0C6C300F0000E016E070E046E000EB9
:1010B600056E08EC04F0FB0E0026010E0122050E5B
:1010C6000024E16E000E0120E26E010EE66EC62BD4
:0410D600B9D7120074
:1010DA000301C551010A03E10001A06B81960301D6
:0E10EA00C551020A03E10001A16B81981200BA
:1010F800010E05016E6F35DC00C0C6F1020E6E6F81
:1011080030DC00C08EF2030E6E6F2BDC00C0C7F11E
:10111800040E6E6F26DC00C08BF2050E6E6F21DCAC
:1011280000C0EDF1060E6E6F1CDC00C08CF2070EDD
:101138006E6F17DC00C08DF2080E6E6F12DC00C0F7
:1011480090F2090E6E6F0DDC00C08FF20A0E6E6F02
:1011580008DC00C0EAF1000E0101EB6FEAC1EBF117
:10116800EA6B0B0E05016E6FB5EC04F0005001013F
:10117800EA13000EEB130C0E05016E6FB5EC04F0CC
:1011880000C07CF1005009087A6F3CEC03F00D0EAA
:1011980005016E6FB5EC04F000C0EEF10E0E6E6F37
:1011A800B5EC04F000C0ECF10F0E6E6FB5EC04F076
:1011B80000C0EFF1100E6E6FB5EC04F000C0C3F183
:0211C800120013
:1011CA000301C551000A04E0C651000A01E002D039
:1011DA00F28801D0F298C5C374F1C6C375F1120042
:1011EA000301C551010A04E100019E6B0101DD9171
:1011FA000301C551020A04E100019F6B0101DD935D
:02120A001200D0
:10120C00140E0101C66F140EC76F140E02018E6FFF
:10121C00140E8B6F050E01017C6F040E05017A6FA5
:10122C003CEC03F00A0E02018D6F040E8C6F0A0E5B
:10123C008F6F040E906F0C0E0101ED6FEA6BEB6B70
:0E124C00EC6BEF6BC36BEE6B13EC05F0120056
:10125A00020E01016B6F590E05017A6F010E7B6F49
:10126A00960EF66E6E0EF76E000EF86EC50EE16EF5
:10127A00030EE26E110E006E010E016E4AEC04F0CE
:10128A00C50E7C6F030E7D6F100E7E6F000E7F6F92
:10129A00F5EC00F001017D51000A67E1480E0501F5
:1012AA007A6F010E7B6FA70EF66E6E0EF76E000E4A
:1012BA00F86ED60EE16E030EE26E110E006E010E8E
:1012CA00016E4AEC04F0D60E7C6F030E7D6F100E91
:1012DA007E6F000E7F6FF5EC00F0010E01016E6F5C
:1012EA007B51000A1FE1590E05017A6F010E7B6FCF
:1012FA00B80EF66E6E0EF76E000EF86EE70EE16E21
:10130A00030EE26E110E006E010E016E4AEC04F03D
:10131A00E70E7C6F030E7D6F100E7E6F000E7F6FDF
:10132A00F5EC00F001017B51010A1FE1590E05019C
:10133A007A6F010E7B6FC90EF66E6E0EF76E000E97
:10134A00F86EF80EE16E030EE26E110E006E010EDB
:10135A00016E4AEC04F0F80E7C6F030E7D6F100EDE
:10136A007E6F000E7F6FF5EC00F001017D51010ADE
:10137A002BE1480E05017A6F010E7B6FDA0EF66ECD
:10138A006E0EF76E000EF86E090EE16E040EE26E36
:10139A00110E006E010E016E4AEC04F0090E7C6F0C
:1013AA00040E7D6F100E7E6F000E7F6FF5EC00F05D
:1013BA00010E01016E6FC6C16EF55F0E05016F6FFA
:1013CA00010E706FB0EC03F001017D51020A2BE1AE
:1013DA00480E05017A6F010E7B6FEB0EF66E6E0EEC
:1013EA00F76E000EF86E1A0EE16E040EE26E110E22
:1013FA00006E010E016E4AEC04F01A0E7C6F040EA8
:10140A007D6F100E7E6F000E7F6FF5EC00F0010EFF
:10141A0001016E6F8EC26EF55F0E05016F6F010ED0
:10142A00706FB0EC03F001017D51030A2BE1480E05
:10143A0005017A6F010E7B6FFC0EF66E6E0EF76E6B
:10144A00000EF86E2B0EE16E040EE26E110E006EA7
:10145A00010E016E4AEC04F02B0E7C6F040E7D6FB8
:10146A00100E7E6F000E7F6FF5EC00F0010E010189
:10147A006E6FC7C16EF55F0E05016F6F010E706F5B
:10148A00B0EC03F001017D51040A2BE1480E05017D
:10149A007A6F010E7B6F0D0EF66E6F0EF76E000EF1
:1014AA00F86E3C0EE16E040EE26E110E006E010E35
:1014BA00016E4AEC04F03C0E7C6F040E7D6F100E38
:1014CA007E6F000E7F6FF5EC00F0010E01016E6F6A
:1014DA008BC26EF55F0E05016F6F010E706FB0EC77
:1014EA0003F001017D51050A2BE1480E05017A6FCF
:1014FA00010E7B6F1E0EF66E6F0EF76E000EF86E03
:10150A004D0EE16E040EE26E110E006E010E016EBA
:10151A004AEC04F04D0E7C6F040E7D6F100E7E6F48
:10152A00000E7F6FF5EC00F0010E01016E6F8CC2A8
:10153A006EF55F0E05016F6F010E706FB0EC03F070
:10154A0001017D51060A2BE1480E05017A6F010E51
:10155A007B6F2F0EF66E6F0EF76E000EF86E5E0E34
:10156A00E16E040EE26E110E006E010E016E4AEC7F
:10157A0004F05E0E7C6F040E7D6F100E7E6F000EFF
:10158A007F6FF5EC00F0010E01016E6F8DC26EF5F2
:10159A005F0E05016F6F010E706FB0EC03F0010171
:1015AA007D51070A2BE1480E05017A6F010E7B6F08
:1015BA00400EF66E6F0EF76E000EF86E6F0EE16E4D
:1015CA00040EE26E110E006E010E016E4AEC04F07A
:1015DA006F0E7C6F040E7D6F100E7E6F000E7F6F94
:1015EA00F5EC00F0010E01016E6F90C26EF55F0E10
:1015FA0005016F6F010E706FB0EC03F001017D51B0
:10160A00080A2BE1480E05017A6F010E7B6F510E15
:10161A00F66E6F0EF76E000EF86E800EE16E040E17
:10162A00E26E110E006E010E016E4AEC04F0800E9D
:10163A007C6F040E7D6F100E7E6F000E7F6FF5ECCF
:10164A0000F0010E01016E6F8FC26EF55F0E05018B
:10165A006F6F010E706FB0EC03F001017D51090A42
:10166A002EE1480E05017A6F010E7B6F620EF66E4F
:10167A006F0EF76E000EF86E910EE16E040EE26EBA
:10168A00110E006E010E016E4AEC04F0910E7C6F91
:10169A00040E7D6F100E7E6F000E7F6FF5EC00F06A
:1016AA00010E01016E6F7CC17AF55F0E05017B6F39
:1016BA00010E7C6FE8EC02F0200E0101626F7D5191
:1016CA000A0A2BE1480E05017A6F010E7B6F730E31
:1016DA00F66E6F0EF76E000EF86EA20EE16E040E35
:1016EA00E26E110E006E010E016E4AEC04F0A20EBB
:1016FA007C6F040E7D6F100E7E6F000E7F6FF5EC0F
:10170A0000F0010E01016E6FEDC16EF55F0E05016D
:10171A006F6F010E706FB0EC03F001017D510B0A7F
:10172A002DE1480E05017A6F010E7B6F840EF66E6D
:10173A006F0EF76E000EF86EB30EE16E040EE26ED7
:10174A00110E006E010E016E4AEC04F0B30E7C6FAE
:10175A00040E7D6F100E7E6F000E7F6FF5EC00F0A9
:10176A00010E01016E6FEAC16EF5EBC16FF55D0EF8
:10177A000501706F010E716FBDEC04F001017D511E
:10178A000C0A22E1480E05017A6F010E7B6F950E55
:10179A00F66E6F0EF76E000EF86EC40EE16E040E52
:1017AA00E26E110E006E010E016E4AEC04F0C40ED8
:1017BA007C6F040E7D6F100E7E6F000E7F6FF5EC4E
:1017CA0000F0010E01016E6F7D510D0A68E1480EAD
:1017DA0005017A6F010E7B6FA60EF66E6F0EF76E1D
:1017EA00000EF86ED50EE16E040EE26E110E006E5A
:1017FA00010E016E4AEC04F0D50E7C6F040E7D6F6B
:10180A00100E7E6F000E7F6FF5EC00F0010E0101E5
:10181A006E6FEF51000A21E15F0E05017A6F010E2A
:10182A007B6F4E0E0401E66F6F0EE76F200EE86FB6
:10183A00200EE96F200EEA6F200EEB6F200EEC6F80
:10184A00ED6BE60E05017C6F040E7D6F070E7E6F51
:10185A00000E7F6FF5EC00F022D005015F0E7A6F63
:10186A00010E7B6F590E0401EE6F650EEF6F730E5A
:10187A00F06F200EF16F200EF26F200EF36F200E24
:10188A00F46F200EF56FF66BEE0E05017C6F040EF9
:10189A007D6F080E7E6F000E7F6FF5EC00F0010180
:1018AA007D510E0A64E1480E05017A6F010E7B6FC5
:1018BA00C80EF66E6F0EF76E000EF86EF70EE16E3A
:1018CA00040EE26E110E006E010E016E4AEC04F077
:1018DA00F70E7C6F040E7D6F100E7E6F000E7F6F09
:1018EA00F5EC00F0010E01016E6FC351000A1FE111
:1018FA005F0E05017A6F010E7B6F4E0E086F6F0E39
:10190A00096F200E0A6F200E0B6F200E0C6F200E2F
:10191A000D6F200E0E6F0F6B080E7C6F050E7D6F1C
:10192A00070E7E6F000E7F6FF5EC00F020D00501E8
:10193A005F0E7A6F010E7B6F590E106F650E116F75
:10194A00730E126F200E136F200E146F200E156F78
:10195A00200E166F200E176F186B100E7C6F050E77
:10196A007D6F080E7E6F000E7F6FF5EC00F00101AF
:10197A007D510F0A64E1480E05017A6F010E7B6FF3
:10198A00EA0EF66E6F0EF76E000EF86E190EE16E25
:10199A00050EE26E110E006E010E016E4AEC04F0A5
:1019AA00190E7C6F050E7D6F100E7E6F000E7F6F15
:1019BA00F5EC00F0010E01016E6FEC51000A1FE117
:1019CA005F0E05017A6F010E7B6F4E0E2A6F6F0E46
:1019DA002B6F200E2C6F200E2D6F200E2E6F200ED7
:1019EA002F6F200E306F316B2A0E7C6F050E7D6FC4
:1019FA00070E7E6F000E7F6FF5EC00F020D0050118
:101A0A005F0E7A6F010E7B6F590E326F650E336F60
:101A1A00730E346F200E356F200E366F200E376F1F
:101A2A00200E386F200E396F3A6B320E7C6F050E1E
:101A3A007D6F080E7E6F000E7F6FF5EC00F00101DE
:101A4A007D51100A2BE1480E05017A6F010E7B6F5A
:101A5A000C0EF66E700EF76E000EF86E3B0EE16E0F
:101A6A00050EE26E110E006E010E016E4AEC04F0D4
:101A7A003B0E7C6F050E7D6F100E7E6F000E7F6F22
:101A8A00F5EC00F0010E01016E6FEEC16EF55F0E0E
:101A9A0005016F6F010E706FB0EC03F001017D510B
:101AAA00110A22E1480E05017A6F010E7B6F1D0EA5
:101ABA00F66E700EF76E000EF86E4C0EE16E050EA5
:101ACA00E26E110E006E010E016E4AEC04F04C0E2D
:101ADA007C6F050E7D6F100E7E6F000E7F6FF5EC2A
:101AEA0000F0010E01016E6F7D51120A22E1480ECB
:101AFA0005017A6F010E7B6F2E0EF66E700EF76E71
:101B0A00000EF86E5D0EE16E050EE26E110E006EAD
:101B1A00010E016E4AEC04F05D0E7C6F050E7D6FBE
:101B2A00100E7E6F000E7F6FF5EC00F0010E0101C2
:081B3A006E6F650E6C6F120066
:041B4200C584120044
:101B46009E96C5C3C9FFC7A401D0FDD79EB601D0D6
:101B5600FDD7C5BC02D0006A03D0C584020E006E54
:021B660012006B
:101B6800C26AC00EC212C18CC18EC5C300F0003655
:101B7800009000360090003600900050C212C280DB
:101B8800ABEC03F0C284C2A401D0FDD7C4CF01F0EE
:0E1B9800006AC3500012000E0112C29012002B
:101BA6000101D9510301C51905E10101D96B010EE6
:101BB600006E12000101DA510301C51905E10101A8
:101BC600DA6B010E006E12000101DB510301C5192B
:101BD60005E10101DB6B010E006E1200006A1200C6
:101BE6000201AC6BAD6BAE6B83BA02D0AE8101D095
:101BF600AE9184B002D0AE8301D0AE9383B802D04A
:101C0600AE8501D0AE95AE51000A18E101014451EE
:101C1600000A07E1B16BAF6B446B0201AB6B0101CC
:101C2600B06B4451010A0AE1050E425D07E3B16B50
:101C3600AF6B446B0201AB6B0101B06B0101AF519D
:101C4600060802E3140EC26FAF51060805E2AF5153
:101C5600140802E30A0EC26FAF51140803E2050E20
:101C6600C26F02D00A0EC26FB151010A0AE1C25117
:101C76003E5D07E3010EB06F3E6B190EAF5D01E2EC
:101C8600AF2B0201AE51000A22E001014451010AC4
:101C96001EE1B151000A1BE1020E9525016E000EF0
:101CA6009621026E000E9721036E000E9821046E97
:101CB6007251041808E17151031805E170510218B8
:101CC60002E16F51011803E1010EB16F3E6B020193
:101CD600AE51000A09E001014451010A05E1B15182
:101CE600000A02E10201AB6B0201AE51000A0EE0EE
:101CF60001014451010A0AE1B151010A07E1020159
:101D0600AE510101B003F3CFABF2B06B0201AE519D
:101D1600000A11E001014451000A0DE1AEC2ABF226
:101D2600010E446F6FC195F170C196F171C197F1C3
:0C1D360072C198F1426BABC200F01200C9
:101D420083A003D083A201D003D0010E006E120043
:041D5200006A120011
:101D56000201AB6B010145B103D00201AB9102D088
:101D66000201AB81010146B103D00201AB9302D05F
:101D76000201AB830101456B466BABC200F012005A
:101D8600010E0001D66F0101D8A314D00001D66B55
:101D9600D76B650E01016C6F7D51000A0BE1E16B9B
:101DA6007B51000A02E1C80E6C6F7B51010A02E109
:101DB600C90E6C6F7D51000A14E1D8A108D07B5181
:101DC600000805E27B072DEC09F0660E6C6FD8A5BE
:101DD60008D0010E7B5D05E27B2B2DEC09F0660E2B
:101DE6006C6F7D51010A14E1D8A108D0C6510008D4
:101DF60005E2C6072DEC09F0660E6C6FD8A508D073
:101E0600FF0EC65D05E2C62B2DEC09F0660E6C6F63
:101E16007D51020A17E1D8A109D002018E510008AE
:101E260005E28E072DEC09F0660E6C6F0101D8A550
:101E360009D0FF0E02018E5D05E28E2B2DEC09F016
:101E4600660E6C6F01017D51030A14E1D8A108D01A
:101E5600C751000805E2C7072DEC09F0660E6C6F46
:101E6600D8A508D0FF0EC75D05E2C72B2DEC09F0FB
:101E7600660E6C6F7D51040A17E1D8A109D00201E4
:101E86008B51000805E28B072DEC09F0660E6C6F8E
:101E96000101D8A509D0FF0E02018B5D05E28B2B4F
:101EA6002DEC09F0660E6C6F01017D51050A17E1F4
:101EB600D8A109D002018C51000805E28C072DEC4F
:101EC60009F0660E6C6F0101D8A509D0FF0E02015C
:101ED6008C5D05E28C2B2DEC09F0660E6C6F010112
:101EE6007D51060A17E1D8A109D002018D510008DB
:101EF60005E28D072DEC09F0660E6C6F0101D8A581
:101F060009D0FF0E02018D5D05E28D2B2DEC09F047
:101F1600660E6C6F01017D51070A17E1D8A109D041
:101F260002019051000805E290072DEC09F0660EBB
:101F36006C6F0101D8A509D0FF0E0201905D05E284
:101F4600902B2DEC09F0660E6C6F01017D51080A8D
:101F560017E1D8A109D002018F51000805E28F07C9
:101F66002DEC09F0660E6C6F0101D8A509D0FF0EA5
:101F760002018F5D05E28F2B2DEC09F0660E6C6F6A
:101F860001017D51090A14E1D8A108D07C5100084D
:101F960005E27C072DEC09F0660E6C6FD8A508D01B
:101FA600090E7C5D05E27C2B2DEC09F0660E6C6F4C
:101FB6007D510A0A14E1D8A108D0ED51000805E2C6
:101FC600ED072DEC09F0660E6C6FD8A508D0FF0E54
:101FD600ED5D05E2ED2B2DEC09F0660E6C6F7D5183
:101FE6000B0A20E1D8A110D0000E006EEB51005C68
:101FF60002E1EA51000808E2010EEA5F000EEB5B1F
:102006002DEC09F0660E6C6FD8A50CD0FD0EEB5DBD
:1020160002E1E80EEA5D06E2EA4BEB2B2DEC09F055
:10202600660E6C6F7D510C0A1DE16C6B480E050146
:102036007A6F010E7B6F840E7C6F010E7D6F100E22
:102046007E6F000E7F6FF5EC00F0010E01016B6FE5
:102056000001D66BD76B010E01016E6F06EC09F01D
:1020660013EC05F001017D510D0A14E1D8A108D049
:10207600EF51000805E2EF072DEC09F0660E6C6FD4
:10208600D8A508D0010EEF5D05E2EF2B2DEC09F087
:10209600660E6C6F7D510E0A14E1D8A108D0C351AB
:1020A600000805E2C3072DEC09F0660E6C6FD8A593
:1020B60008D0010EC35D05E2C32B2DEC09F0660EB8
:1020C6006C6F7D510F0A14E1D8A108D0EC510008BD
:1020D60005E2EC072DEC09F0660E6C6FD8A508D06A
:1020E600010EEC5D05E2EC2B2DEC09F0660E6C6F33
:1020F6007D51100A1DE1D8A10CD0EE51000809E26D
:10210600EE07EE51090A01E1EE6B2DEC09F0660EC1
:102116006C6FD8A50DD0FF0EEE5D0AE2EE2BEE51E8
:10212600010A02E10A0EEE6F2DEC09F0660E6C6FE5
:102136007D51110A18E1670E6C6F480E05017A6F22
:10214600010E7B6F840E7C6F010E7D6F100E7E6F0D
:10215600000E7F6FF5EC00F00001D66B010E010159
:102166006B6F010E6E6F7D51120A19E16C6B480E92
:1021760005017A6F010E7B6F840E7C6F010E7D6FF9
:10218600100E7E6F000E7F6FF5EC00F00001D66B2F
:10219600010E01016B6F010E6E6F7CEC08F01200F0
:1021A6000201AF6B0301C56BDCDC00C0ABF201C002
:1021B600ACF2010E0301C56FD4DC00C0ADF201C064
:1021C600AEF2010E01016E6F7451000A15E08351E3
:1021D6000201AC5D04E1010182510201AB5D06E240
:1021E600FF0E00019E5D01E29E2B05D000019E516F
:1021F600000801E29E0702D000019E6B9E5101017C
:10220600945D02E20201AF8101017551000A15E0F9
:1022160083510201AE5D04E1010182510201AD5D0F
:1022260006E2FF0E00019F5D01E29F2B05D0000133
:102236009F51000801E29F0702D000019F6B9F514A
:102246000101945D02E20201AF83AFC200F0120009
:102256000201AB6B83B801D0AB8183BA01D0AB83EB
:06226600ABC200F0120003
:0A226C0013EC05F001016C6B120089
:102276007AEC05F07C0E0301C56F62DC800E03016B
:10228600C56F5EDC0201AB51020A04E1380E0301A0
:10229600C56F56DC0201AB51010A04E1340E03019D
:1022A600C56F4EDC800E0301C56F4ADC0201AB51DF
:1022B600020A04E1390E0301C56F42DC0201AB518B
:1022C600010A04E1350E0301C56F3ADC800E0301F5
:1022D600C56F36DC1C0E0301C56F32DC800E0301B0
:1022E600C56F2EDC720E0301C56F2ADC800E03015A
:1022F600C56F26DC550E0301C56F22DC800E030177
:10230600C56F1EDC6C0E0301C56F1ADC800E03015F
:10231600C56F16DC0C0E0301C56F12DC800E0301BF
:10232600C56F0EDC010E0301C56F0ADC800E0301CA
:10233600C56F06DC060E0301C56F02DC800E0301C5
:10234600C56FA3EC0DF0020E0301C56FA3EC0DF0F3
:06235600A1EC0DF01200E5
:10235C00949894968B988B9694889486C79EC79CD9
:06236C00380EC66E1200DF
:102372000201AF6BB06BAB51010A03E1AC51800FAC
:10238200B06FAB51020A03E1AC51C00FB06F7AECEF
:1023920005F07C0E0301C56FA3EC0DF0800E030166
:1023A200C56FA3EC0DF0B0C2C5F3A3EC0DF0400E67
:1023B2000301C56FA3EC0DF00201AF51AD25E96E2B
:1023C200000EAE21EA6EEE500A0A10E0AF5110087C
:1023D2000DE3AF51AD25E96E000EAE21EA6EEECFF0
:1023E200C5F3A3EC0DF00201AF2BE6D7A1EC0DF083
:1023F2000D0E0C6EFB0E0D6E0D2EFED70C2EFCD7A5
:06240200000000001200C2
:102408005E0E0101AB6F010EAC6F810EAD6F050E54
:10241800AE6FFF0EA76FFF0EA86F000EA96F000E1C
:10242800AA6FFF0EE66FFF0EE76F000EE86F000E53
:10243800E96FFF0EE26FFF0EE36F000EE46F000E10
:10244800E56FAC8A900EAB6E948E949C9EAA03D0D6
:08245800AECF00F0FBD712002B
:102460000201AC6BAD6B3F0EAB15026E02C0ABF25E
:10247000540EAC6F02C000F00032009E0032009E8D
:102480000032009E0032009E540E0010AC6F700EA1
:10249000AD6F0F0E0214006E700E0010AD6F7AEC6F
:1024A00005F07C0E0301C56FA3EC0DF0800E030157
:1024B000C56FA3EC0DF0ACC2C5F3A3EC0DF0800E1C
:1024C0000301C56FA3EC0DF0ADC2C5F3A3EC0DF095
:1024D000A1EC0DF00D0E0C6EFB0E0D6E0D2EFED749
:0A24E0000C2EFCD7000000001200D3
:1024EA00838E010E0301C56FD3EC0DF000522BE071
:1024FA00010E0301C56FC66B0EEC06F0530E020106
:10250A00AB6F370EAC6F200EAD6F4D0EAE6F6F0E08
:10251A00AF6F740EB06F6F0EB16F720EB26F310E75
:10252A00B36F530EB46F740EB56F610EB66F720E41
:10253A00B76F740EB86FB96BAB0E0301C56F020E9D
:10254A00C66FF4EC07F0020E0301C56FD3EC0DF071
:10255A0000524DE0020E0301C56FC66B0EEC06F089
:10256A00530E0201BA6F370EBB6F200EBC6F4D0EB1
:10257A00BD6F6F0EBE6F740EBF6F6F0EC06F720E9F
:10258A00C16F320EC26F530EC36F740EC46F610EE9
:10259A00C56F720EC66F740EC76FC86BBA0E030191
:1025AA00C56F020EC66FF4EC07F0480E05017A6F8C
:1025BA00010E7B6FB30E7C6F000E7D6F100E7E6F67
:1025CA00000E7F6FF5EC00F0590E7A6F010E7B6FEB
:1025DA00C40E7C6F000E7D6F100E7E6F000E7F6F33
:1025EA00F5EC00F0010E01016E6F010E6B6F0A0E21
:1025FA000301C56FD3EC0DF000521FE0010E01017B
:10260A00776F010E0301C56FF5EC08F0CA0EF66E7E
:10261A00740EF76E000EF86EC90EE16E020EE26ECF
:10262A00150E006E010E016E4AEC04F0C90E03018C
:10263A00C56F020EC66FF4EC07F00B0E0301C56FEF
:10264A00D3EC0DF000521FE0010E0101766F020E6D
:10265A000301C56FF5EC08F0DF0EF66E740EF76E27
:10266A00000EF86EDE0EE16E020EE26E150E006EC0
:10267A00010E016E4AEC04F0DE0E0301C56F020E74
:10268A00C66FF4EC07F0050E0301C56FD3EC0DF02D
:10269A0000522EE0010E0301C56F75C1C6F3E5ECC9
:1026AA0008F00101736B530E0201F36F370EF46FDA
:1026BA00200EF56F4D0EF66F310EF76F200EF86F84
:1026CA00530EF96F700EFA6F650EFB6F650EFC6F95
:1026DA00640EFD6F200EFE6F550EFF6F500E030144
:1026EA00006F016BF30EC56F020EC66FF4EC07F0B4
:1026FA00060E0301C56FD3EC0DF000522DE074C134
:10270A00C5F3010E0301C66FE5EC08F001016A6B1F
:10271A00530E0301026F370E036F200E046F4D0E26
:10272A00056F320E066F200E076F530E086F700E7C
:10273A00096F650E0A6F650E0B6F640E0C6F200E23
:10274A000D6F550E0E6F500E0F6F106B020EC56F88
:10275A00030EC66FF4EC07F0030E0301C56FD3EC4A
:10276A000DF0005208E101017751010A03E1DDA1F0
:10277A0001D001D029D001017AA126D07A91010E87
:10278A000301C56F6DEC08F0530E0301116F370E8C
:10279A00126F200E136F4D0E146F310E156F200E2F
:1027AA00166F530E176F740E186F6F0E196F700E27
:1027BA001A6F650E1B6F640E1C6F1D6B110EC56FB1
:1027CA00030EC66FF4EC07F0040E0301C56FD3ECD9
:1027DA000DF0005208E101017651010A03E1DDA37F
:1027EA0001D001D029D001017AA326D07A93020E12
:1027FA000301C56F6DEC08F0530E03011E6F370E0F
:10280A001F6F200E206F4D0E216F320E226F200E89
:10281A00236F530E246F740E256F6F0E266F700E82
:10282A00276F650E286F640E296F2A6B1E0EC56FFF
:10283A00030EC66FF4EC07F002018E51000A05E0A0
:10284A0001018051010A01E002D001017A93DEA15F
:10285A0050D0010E0301C56F6DEC08F0020E0301A2
:10286A00C56F6DEC08F00101776B766B060E6C6F25
:10287A00010E0001D56F2C0EF66E750EF76E000E66
:10288A00F86E2B0EE16E030EE26E110E006E010E53
:10289A00016E4AEC04F02B0E0301C56F030EC66FDE
:1028AA00F4EC07F0090E0301C56F23EC08F0480E9B
:1028BA0005017A6F010E7B6F0B0E7C6F010E7D6F27
:1028CA00100E7E6F000E7F6FF5EC00F0590E7A6FD6
:1028DA00010E7B6F1C0E7C6F010E7D6F100E7E6FDA
:1028EA00000E7F6FF5EC00F0010E01016E6F020E13
:1028FA006B6FDC51000A4DE0010E0301C56F6DECF0
:10290A0008F0020E0301C56F6DEC08F0060E010116
:10291A006C6F776B766B3D0EF66E750EF76E000E6A
:10292A00F86E3C0EE16E030EE26E120E006E010EA0
:10293A00016E4AEC04F03C0E0301C56F030EC66F2C
:10294A00F4EC07F0090E0301C56F23EC08F0480EFA
:10295A0005017A6F010E7B6F0B0E7C6F010E7D6F86
:10296A00100E7E6F000E7F6FF5EC00F0590E7A6F35
:10297A00010E7B6F2D0E7C6F010E7D6F100E7E6F28
:10298A00000E7F6FF5EC00F0010E01016E6F020E72
:10299A006B6FDF51010A4FE1C3534DE0010E030192
:1029AA00C56F6DEC08F0020E0301C56F6DEC08F0FF
:1029BA00060E01016C6F776B766B4F0EF66E750E15
:1029CA00F76E000EF86E4E0EE16E030EE26E150EF5
:1029DA00006E010E016E4AEC04F04E0E0301C56F43
:1029EA00030EC66FF4EC07F0090E0301C56F23EC62
:1029FA0008F0480E05017A6F010E7B6F0B0E7C6F93
:102A0A00010E7D6F100E7E6F000E7F6FF5EC00F0E9
:102A1A00590E7A6F010E7B6FD80E7C6F000E7D6F98
:102A2A00100E7E6F000E7F6FF5EC00F0010E0101B3
:102A3A006E6F020E6B6F7A51000A2AE1010E6C6FFB
:102A4A00786B090E0301C56F23EC08F0480E0501E7
:102A5A007A6F010E7B6FE90E7C6F000E7D6F100E90
:102A6A007E6F000E7F6FF5EC00F0590E7A6F010E43
:102A7A007B6FC40E7C6F000E7D6F100E7E6F000E92
:102A8A007F6FF5EC00F0010E01016E6F010E6B6FA6
:102A9A006C51050A04E06C51060A01E04CD00301AE
:102AAA00C56B23EC08F0000E0101EB1902E1000EE0
:102ABA00EA1941E0EA516F250301C56F0101EB51A3
:102ACA0070210301C66F000E010171210301C76F56
:102ADA00000E010172210301C86F090EC96F9BEC38
:102AEA0005F0640EF66E750EF76E000EF86E630E44
:102AFA00E16E030EE26E150E006E010E016E4AECD7
:102B0A0004F0630EC56F030EC66FF4EC07F0590E9E
:102B1A0005017A6F010E7B6FFA0E7C6F000E7D6FD6
:102B2A00100E7E6F000E7F6FF5EC00F0010E0101B2
:082B3A006E6F020E6B6F1200BA
:102B4200F5D1838E0101DCA103D0020EC56FE12B0A
:102B5200DCA304D0010EC56F030EE16F776B766BB9
:102B62001ED2020E0301C56FC66B0EEC06F0040EF8
:102B720001016F250301C56F000E010170210301E0
:102B8200C66F000E010171210301C76F000E010122
:102B920072210301C86F150EC96F9BEC05F001018C
:102BA200E12BFDD1DDA30BD07651010A08E1766B52
:102BB200020E0301C56F6DEC08F00101E12B150E49
:102BC2000301C56FD3EC0DF0005203E0010E0101C9
:102BD200766FE5D1010E0301C56FC66B0EEC06F0F0
:102BE200040E01016F250301C56F000E0101702162
:102BF2000301C66F000E010171210301C76F000EB0
:102C0200010172210301C86F140EC96F9BEC05F01C
:102C12000101E12BDDA10BD07751010A08E1776BAD
:102C2200010E0301C56F6DEC08F00101E12B140EDA
:102C32000301C56FD3EC0DF0005203E0010E010158
:102C4200776FADD16FC1D4F170C1D5F171C1D6F139
:102C520072C1D7F1010E0301C56F010EC66F0EECF2
:102C620006F0040E01016F250301C56F000E01017C
:102C720070210301C66F000E010171210301C76FAC
:102C8200000E010172210301C86F140EC96F9BEC83
:102C920005F00101E12B83D1DDA116D07751010AA4
:102CA20013E1776B010E0301C56F6DEC08F00101B2
:102CB200C551010A03E10B0EE16F01D0E12BD451A2
:102CC2006F5D006E00C0C9F1140E0301C56FD3EC35
:102CD2000DF0005203E0010E0101776F60D16FC168
:102CE200D4F170C1D5F171C1D6F172C1D7F1020E22
:102CF2000301C56F010EC66F0EEC06F0040E010152
:102D02006F250301C56F000E010170210301C66F1B
:102D1200000E010171210301C76F000E0101722132
:102D22000301C86F150EC96F9BEC05F00101E12B81
:102D320036D1DDA310D07651010A0DE1766B020E79
:102D42000301C56F6DEC08F00101E12BD4516F5DF9
:102D5200006E00C0CBF1150E0301C56FD3EC0DF070
:102D6200005203E0010E0101766F19D16FC1D4F157
:102D720070C1D5F171C1D6F172C1D7F1020E030152
:102D8200C56FC66B0EEC06F0040E01016F25030140
:102D9200C56F000E010170210301C66F000E010113
:102DA20071210301C76F000E010172210301C86F77
:102DB200150EC96F9BEC05F00101E12BF0D0DDA3EC
:102DC20010D07651010A0DE1766B020E0301C56F38
:102DD2006DEC08F00101E12BD4516F5D006E00C073
:102DE200CAF1150E0301C56FD3EC0DF0005203E0DA
:102DF200010E0101766FD3D06FC1D4F170C1D5F14C
:102E020071C1D6F172C1D7F1010E0301C56FC66B54
:102E12000EEC06F0040E01016F250301C56F000ED2
:102E2200010170210301C66F000E0101712103012E
:102E3200C76F000E010172210301C86F140EC96F22
:102E42009BEC05F00101E12BAAD0DDA110D0775156
:102E5200010A0DE1776B010E0301C56F6DEC08F0FD
:102E62000101E12BD4516F5D006E00C0C8F1140E58
:102E72000301C56FD3EC0DF0005203E0010E010116
:102E8200776F8DD0C80E0301C56F010EC66F6CEC53
:102E920007F0C80EC56F010EC66FC5C1C7F345EC7A
:102EA20006F0480E05017A6F010E7B6F400EF66E3A
:102EB200760EF76E000EF86EAB0EE16E020EE26E4B
:102EC200110E006E010E016E4AEC04F0AB0E7C6F27
:102ED200020E7D6F100E7E6F000E7F6FF5EC00F01C
:102EE200590E7A6F010E7B6F510EF66E760EF76EEB
:102EF200000EF86EBC0EE16E020EE26E110E006E56
:102F0200010E016E4AEC04F0BC0E7C6F020E7D6F66
:102F1200100E7E6F000E7F6FF5EC00F0020E0101C5
:102F22006B6F010E6E6F839E6C6B39D00101E151A4
:102F3200000AD8B406D6E151010AD8B412D6E1513A
:102F4200020AD8B42FD6E151030AD8B443D6E151CC
:102F5200040AD8B45FD6E151050AD8B473D6E15158
:102F6200060AD8B499D6E151070AD8B4B8D6E151C5
:102F7200080AD8B4DED6E151090AD8B4F7D6E1512D
:102F82000A0AD8B41CD7E1510B0AD8B435D7E1519B
:102F92000C0AD8B45AD7E1510D0AD8B473D712002B
:102FA2000101D8A302D000019D2B00019D51010A0D
:102FB20020E1480E05017A6F010E7B6F5D0E7C6F7A
:102FC200000E7D6F100E7E6F000E7F6FF5EC00F02D
:102FD200590E7A6F010E7B6F6D0E7C6F000E7D6F46
:102FE200100E7E6F000E7F6FF5EC00F0010E0101F6
:102FF2006E6F00019D51020A20E1480E05017A6FB1
:10300200010E7B6F7D0E7C6F000E7D6F100E7E6F4A
:10301200000E7F6FF5EC00F0590E7A6F010E7B6F98
:103022008D0E7C6F000E7D6F100E7E6F000E7F6F17
:10303200F5EC00F0010E01016E6F00019D51030AD3
:0A30420003E1640E01016C6F12003F
:10304C00838E010E0301C56FD3EC0DF000522BE003
:10305C00010E0301C56FC66B0EEC06F0530E020198
:10306C00AB6F340EAC6F200EAD6F4D0EAE6F6F0E9E
:10307C00AF6F740EB06F6F0EB16F720EB26F310E08
:10308C00B36F530EB46F740EB56F610EB66F720ED4
:10309C00B76F740EB86FB96BAB0E0301C56F020E30
:1030AC00C66FF4EC07F0020E0301C56FD3EC0DF004
:1030BC0000524DE0020E0301C56FC66B0EEC06F01C
:1030CC00530E0201BA6F340EBB6F200EBC6F4D0E47
:1030DC00BD6F6F0EBE6F740EBF6F6F0EC06F720E32
:1030EC00C16F320EC26F530EC36F740EC46F610E7C
:1030FC00C56F720EC66F740EC76FC86BBA0E030124
:10310C00C56F020EC66FF4EC07F0480E05017A6F1E
:10311C00010E7B6FB30E7C6F000E7D6F100E7E6FF9
:10312C00000E7F6FF5EC00F0590E7A6F010E7B6F7D
:10313C00C40E7C6F000E7D6F100E7E6F000E7F6FC5
:10314C00F5EC00F0010E01016E6F010E6B6F0A0EB3
:10315C000301C56FD3EC0DF000521FE0010E01010D
:10316C00776F010E0301C56FF5EC08F0DE0EF66EFD
:10317C00720EF76E000EF86EC90EE16E020EE26E64
:10318C00150E006E010E016E4AEC04F0C90E03011F
:10319C00C56F020EC66FF4EC07F00B0E0301C56F82
:1031AC00D3EC0DF000521FE0010E0101766F020E00
:1031BC000301C56FF5EC08F0F30EF66E720EF76EA8
:1031CC00000EF86EDE0EE16E020EE26E150E006E53
:1031DC00010E016E4AEC04F0DE0E0301C56F020E07
:1031EC00C66FF4EC07F0050E0301C56FD3EC0DF0C0
:1031FC0000522FE0010E0301C56F75C1C6F3E5EC5B
:10320C0008F00101776B736B530E0201F36F340EF0
:10321C00F46F200EF56F4D0EF66F310EF76F200E1A
:10322C00F86F530EF96F700EFA6F650EFB6F650E2B
:10323C00FC6F640EFD6F200EFE6F550EFF6F500E6F
:10324C000301006F016BF30EC56F020EC66FF4EC39
:10325C0007F0070E0301C56FD3EC0DF0005221E00F
:10326C000301C56B75C1C6F3E5EC08F00101766B83
:10327C00010E736F170EF66E730EF76E000EF86E6E
:10328C00020EE16E030EE26E110E006E010E016E67
:10329C004AEC04F0020E0301C56F030EC66FF4EC8A
:1032AC0007F0060E0301C56FD3EC0DF000522DE0B4
:1032BC0074C1C5F3010E0301C66FE5EC08F0010102
:1032CC006A6B530E0301136F340E146F200E156FBF
:1032DC004D0E166F320E176F200E186F530E196F9E
:1032EC00700E1A6F650E1B6F650E1C6F640E1D6FD2
:1032FC00200E1E6F550E1F6F500E206F216B130E7C
:10330C00C56F030EC66FF4EC07F0080E0301C56F12
:10331C00D3EC0DF0005220E074C1C5F30301C66B71
:10332C00E5EC08F0010E01016A6F370EF66E730EB4
:10333C00F76E000EF86E220EE16E030EE26E110EA9
:10334C00006E010E016E4AEC04F0220E0301C56FF3
:10335C00030EC66FF4EC07F0030E0301C56FD3EC3C
:10336C000DF0005227E001017A91010E0301C56FA7
:10337C006DEC08F0530E0301336F340E346F200ED6
:10338C00356F4D0E366F310E376F200E386F530E72
:10339C00396F740E3A6F6F0E3B6F700E3C6F650E8B
:1033AC003D6F640E3E6F3F6B330EC56F030EC66FE1
:1033BC00F4EC07F0040E0301C56FD3EC0DF00052D2
:1033CC0027E001017A93020E0301C56F6DEC08F042
:1033DC00530E0301406F340E416F200E426F4D0EA1
:1033EC00436F320E446F200E456F530E466F740EB2
:1033FC00476F6F0E486F700E496F650E4A6F640E03
:10340C004B6F4C6B400EC56F030EC66FF4EC07F0A0
:10341C0001017751010A52E1DDA150D07351000A2C
:10342C004DE1010E0301C56F6DEC08F0020E0301B6
:10343C00C56F6DEC08F0060E01016C6F776B766B47
:10344C00620EF66E730EF76E000EF86E4D0EE16E98
:10345C00030EE26E110E006E010E016E4AEC04F0CA
:10346C004D0E0301C56F030EC66FF4EC07F0090E89
:10347C000301C56F23EC08F0480E05017A6F010EAD
:10348C007B6F0B0E7C6F010E7D6F100E7E6F000E2E
:10349C007F6FF5EC00F0590E7A6F010E7B6FA20E68
:1034AC007C6F000E7D6F100E7E6F000E7F6FF5EC43
:1034BC0000F0010E01016E6F020E6B6F7651010A66
:1034CC0052E1DDA350D06A51000A4DE1010E030117
:1034DC00C56F6DEC08F0020E0301C56F6DEC08F0C2
:1034EC00060E01016C6F776B766B730EF66E730EB6
:1034FC00F76E000EF86E5E0EE16E030EE26E110EAC
:10350C00006E010E016E4AEC04F05E0E0301C56FF5
:10351C00030EC66FF4EC07F0090E0301C56F23EC24
:10352C0008F0480E05017A6F010E7B6F0B0E7C6F55
:10353C00010E7D6F100E7E6F000E7F6FF5EC00F0AC
:10354C00590E7A6F010E7B6FA20E7C6F000E7D6F91
:10355C00100E7E6F000E7F6FF5EC00F0010E010176
:10356C006E6F020E6B6F02018E51000A05E00101B5
:10357C008051010A01E002D001017A93DEA150D002
:10358C00010E0301C56F6DEC08F0020E0301C56F4F
:10359C006DEC08F00101776B766B060E6C6F010E0B
:1035AC000001D56F840EF66E730EF76E000EF86E7A
:1035BC006F0EE16E030EE26E110E006E010E016EC7
:1035CC004AEC04F06F0E0301C56F030EC66FF4ECEA
:1035DC0007F0090E0301C56F23EC08F0480E050136
:1035EC007A6F010E7B6F0B0E7C6F010E7D6F100ED0
:1035FC007E6F000E7F6FF5EC00F0590E7A6F010EA6
:10360C007B6F1C0E7C6F010E7D6F100E7E6F000E9B
:10361C007F6FF5EC00F0010E01016E6F020E6B6F07
:10362C00DF51010A4FE1C3534DE0010E0301C56F99
:10363C006DEC08F0020E0301C56F6DEC08F0060E80
:10364C0001016C6F776B766B950EF66E730EF76EE1
:10365C00000EF86E800EE16E030EE26E150E006E1B
:10366C00010E016E4AEC04F0800E0301C56F030ECF
:10367C00C66FF4EC07F0090E0301C56F23EC08F0DC
:10368C00480E05017A6F010E7B6F0B0E7C6F010EDD
:10369C007D6F100E7E6F000E7F6FF5EC00F0590EF3
:1036AC007A6F010E7B6FD80E7C6F000E7D6F100E43
:1036BC007E6F000E7F6FF5EC00F0010E01016E6F56
:1036CC00020E6B6FDC51000A4DE0010E0301C56F59
:1036DC006DEC08F0020E0301C56F6DEC08F0060EE0
:1036EC0001016C6F776B766BAA0EF66E730EF76E2C
:1036FC00000EF86E950EE16E030EE26E120E006E69
:10370C00010E016E4AEC04F0950E0301C56F030E19
:10371C00C66FF4EC07F0090E0301C56F23EC08F03B
:10372C00480E05017A6F010E7B6F0B0E7C6F010E3C
:10373C007D6F100E7E6F000E7F6FF5EC00F0590E52
:10374C007A6F010E7B6F2D0E7C6F010E7D6F100E4C
:10375C007E6F000E7F6FF5EC00F0010E01016E6FB5
:10376C00020E6B6F7A51000A2AE1010E6C6F786BB6
:10377C00090E0301C56F23EC08F0480E05017A6FA2
:10378C00010E7B6FE90E7C6F000E7D6F100E7E6F4D
:10379C00000E7F6FF5EC00F0590E7A6F010E7B6F07
:1037AC00C40E7C6F000E7D6F100E7E6F000E7F6F4F
:1037BC00F5EC00F0010E01016E6F010E6B6F6C5198
:1037CC00050A04E06C51060A01E04CD00301C56BFC
:1037DC0023EC08F0000E0101EB1902E1000EEA19CE
:1037EC0041E0EA516F250301C56F0101EB517021D6
:1037FC000301C66F000E010171210301C76F000E9A
:10380C00010172210301C86F090EC96F9BEC05F011
:10381C00BC0EF66E730EF76E000EF86EA70EE16E10
:10382C00030EE26E150E006E010E016E4AEC04F0F2
:10383C00A70EC56F030EC66FF4EC07F0590E050109
:10384C007A6F010E7B6FFA0E7C6F000E7D6F100E7F
:10385C007E6F000E7F6FF5EC00F0010E01016E6FB4
:06386C00020E6B6F12005A
:10387200020E0201E16F839E0101DC51000A09E19F
:10388200090E0301C56FD3EC0DF00050010A01E0EF
:10389200DBD102018B51000A05E001018051010ACE
:1038A20001E087D0090E0301C56F23EC08F0020185
:1038B200E15101016F25006E000E7021016E000EB4
:1038C2007121026E000E7221036E00C087F201C0E8
:1038D20088F202C089F203C08AF200C0C5F301C0B7
:1038E200C6F302C0C7F303C0C8F3010E0301C96FD8
:1038F2009BEC05F087C2C5F388C2C6F389C2C7F341
:103902008AC2C8F3050EC96F9BEC05F00101736B07
:10391200020E6F25006E000E7021016E000E7121E5
:10392200026E000E7221036E0201E1510026000EAA
:1039320001220222032200C087F201C088F202C0E3
:1039420089F203C08AF200C0C5F301C0C6F302C007
:10395200C7F303C0C8F30A0E0301C96F9BEC05F05D
:103962000101C7516F25006E000E7021016E000E1D
:103972007121026E000E7221036E0201E1510026D6
:10398200000E01220222032200C087F201C088F247
:1039920002C089F203C08AF200C0C5F301C0C6F3B7
:1039A20002C0C7F303C0C8F3030E0301C96F9BEC47
:1039B20005F002018B51000AD8B43FD101018051B8
:1039C200020AD8A43AD1090E0301C56F23EC08F00C
:1039D2000201E15101016F25006E000E7021016E9E
:1039E200000E7121026E000E7221036E00C087F27A
:1039F20001C088F202C089F203C08AF200C0C5F396
:103A020001C0C6F302C0C7F303C0C8F3020E03012C
:103A1200C96F9BEC05F087C2C5F388C2C6F389C2A1
:103A2200C7F38AC2C8F3060EC96F9BEC05F0010109
:103A3200736B020E6F25006E000E7021016E000E78
:103A42007121026E000E7221036E0201E151002605
:103A5200000E01220222032200C087F201C088F276
:103A620002C089F203C08AF200C0C5F301C0C6F3E6
:103A720002C0C7F303C0C8F30B0E0301C96F9BEC6E
:103A820005F00101C7516F25006E000E7021016E15
:103A9200000E7121026E000E7221036E0201E151CD
:103AA2000026000E01220222032200C087F201C07A
:103AB20088F202C089F203C08AF200C0C5F301C0D5
:103AC200C6F302C0C7F303C0C8F3040E0301C96FF3
:103AD2009BEC05F00101ED516F25006E000E702187
:103AE200016E000E7121026E000E7221036E020140
:103AF200E1510026000E01220222032200C087F2B9
:103B020001C088F202C089F203C08AF200C0C5F384
:103B120001C0C6F302C0C7F303C0C8F3010E03011C
:103B2200C96F9BEC05F00101ED516F25006E000E8F
:103B32007021016E000E7121026E000E7221036E61
:103B42000201E1510026000E01220222032200C0DE
:103B520087F201C088F202C089F203C08AF200C073
:103B6200C5F301C0C6F302C0C7F303C0C8F3050E14
:103B72000301C96F9BEC05F001016A6BED516F25E2
:103B8200006E000E7021016E000E7121026E000E99
:103B92007221036E020E0026000E0122022203226F
:103BA2000201E1510026000E01220222032200C07E
:103BB20087F201C088F202C089F203C08AF200C013
:103BC200C5F301C0C6F302C0C7F303C0C8F30A0EAF
:103BD2000301C96F9BEC05F002018B5101016F25B6
:103BE200006E000E7021016E000E7121026E000E39
:103BF2007221036E0201E1510026000E012202220F
:103C020003220101ED510026000E012202220322AD
:103C120000C087F201C088F202C089F203C08AF2B2
:103C220000C0C5F301C0C6F302C0C7F303C0C8F3A6
:103C3200030E0301C96F9BEC05F0030E01017A6FBD
:103C4200776B766B070E6C6F0101DEA125D0000E3B
:103C5200EB1902E1000EEA191FE07851000A1CE19B
:103C6200010E786F03EC07F000C079F1E70EF66EF3
:103C7200750EF76E000EF86EAB0EE16E020EE26E7E
:103C8200160E006E010E016E4AEC04F0AB0EC56F0B
:103C9200020EC66FF4EC07F001017851010A58E1F7
:103CA200DEB156D0000EEB1902E1000EEA1950E027
:103CB20079516F25006E000E7021016E000E712188
:103CC200026E000E7221036E00C087F201C088F2FC
:103CD20002C089F203C08AF200C0C5F301C0C6F374
:103CE20002C0C7F303C0C8F3090E0301C96F9BECFE
:103CF20005F00101786B87C26EF588C26FF589C243
:103D020070F58AC271F5F00E0501726F010E736FC4
:103D120052EC04F0FD0EF66E750EF76E000EF86EA4
:103D2200C10EE16E020EE26E100E006E010E016E09
:103D32004AEC04F0C10E0301C56F020EC66FF4EC2B
:103D420007F0F00E0301C56F010EC66FF4EC07F029
:023D520012005D
:103D5400030E0201E16F839E0101DC51000A04E1BC
:103D64000001D55301E143D10001D56B838E090EC7
:103D74000301C56F23EC08F0010E01016F25030157
:103D8400C56F000E010170210301C66F000E010111
:103D940071210301C76F000E010172210301C86F75
:103DA4000C0EC96F9BEC05F00201E15101016F2576
:103DB400006E000E7021016E000E7121026E000E65
:103DC4007221036E00C087F201C088F202C089F23A
:103DD40003C08AF200C0C5F301C0C6F302C0C7F332
:103DE40003C0C8F3010E0301C96F9BEC05F087C241
:103DF400C5F388C2C6F389C2C7F38AC2C8F3050EE5
:103E0400C96F9BEC05F00101736B020E6F25006E08
:103E1400000E7021016E000E7121026E000E7221DF
:103E2400036E0201E1510026000E01220222032248
:103E340000C087F201C088F202C089F203C08AF28E
:103E440000C0C5F301C0C6F302C0C7F303C0C8F382
:103E54000A0E0301C96F9BEC05F00101C6516F25E1
:103E6400006E000E7021016E000E7121026E000EB4
:103E74007221036E0201E1510026000E012202228A
:103E8400032200C087F201C088F202C089F203C095
:103E94008AF200C0C5F301C0C6F302C0C7F303C071
:103EA400C8F3030E0301C96F9BEC05F002018E51A8
:103EB400000AD8B494D001018051020AD8A48FD04A
:103EC400ED516F250301C56F000E0101702103013F
:103ED400C66F000E010171210301C76F000E0101BD
:103EE40072210301C86F0201E1510301C527000ECD
:103EF400C623C723C823020EC96F9BEC05F001013A
:103F0400ED516F250301C56F000E010170210301FE
:103F1400C66F000E010171210301C76F000E01017C
:103F240072210301C86F0201E1510301C527000E8C
:103F3400C623C723C823060EC96F9BEC05F00101F5
:103F44006A6BED516F250301C56F000E01017021ED
:103F54000301C66F000E010171210301C76F000E3A
:103F6400010172210301C86F020EC527000EC6238A
:103F7400C723C8230201E1510301C527000EC6234C
:103F8400C723C8230B0EC96F9BEC05F002018E51A9
:103F940001016F250301C56F000E010170210301AA
:103FA400C66F000E010171210301C76F000E0101EC
:103FB40072210301C86F0101ED510301C527000EF1
:103FC400C623C723C8230201E1510301C527000EFC
:103FD400C623C723C823040EC96F9BEC05F0030E48
:103FE4003C6E0101776B766B786B080E6C6F090E73
:103FF4000301C56FD3EC0DF00050010AD8A427D1FA
:10400400090E0301C56F23EC08F00201E15101011F
:104014006F25006E000E7021016E000E7121026E7C
:10402400000E7221036E00C087F201C088F202C044
:1040340089F203C08AF200C0C5F301C0C6F302C00E
:10404400C7F303C0C8F3010E0301C96F9BEC05F06D
:1040540087C2C5F388C2C6F389C2C7F38AC2C8F34C
:10406400050EC96F9BEC05F00101736B020E6F2501
:10407400006E000E7021016E000E7121026E000EA2
:104084007221036E0201E1510026000E0122022278
:10409400032200C087F201C088F202C089F203C083
:1040A4008AF200C0C5F301C0C6F302C0C7F303C05F
:1040B400C8F30A0E0301C96F9BEC05F00101C75157
:1040C4006F25006E000E7021016E000E7121026ECC
:1040D400000E7221036E0201E1510026000E01223E
:1040E4000222032200C087F201C088F202C089F2D2
:1040F40003C08AF200C0C5F301C0C6F302C0C7F30F
:1041040003C0C8F3030E0301C96F9BEC05F0020161
:104114008B51000AD8B493D001018051020AD8A46B
:104124008ED0ED516F250301C56F000E0101702182
:104134000301C66F000E010171210301C76F000E58
:10414400010172210301C86F0201E1510301C52776
:10415400000EC623C723C823020EC96F9BEC05F0CB
:104164000101ED516F250301C56F000E010170219E
:104174000301C66F000E010171210301C76F000E18
:10418400010172210301C86F0201E1510301C52736
:10419400000EC623C723C823060EC96F9BEC05F087
:1041A40001016A6BED516F250301C56F000E01011A
:1041B40070210301C66F000E010171210301C76F55
:1041C400000E010172210301C86F020EC527000E03
:1041D400C623C723C8230201E1510301C527000EEA
:1041E400C623C723C8230B0EC96F9BEC05F001013E
:1041F400C7516F250301C56F000E01017021030132
:10420400C66F000E010171210301C76F000E010189
:1042140072210301C86F0101ED510301C527000E8E
:10422400C623C723C8230201E1510301C527000E99
:10423400C623C723C823040EC96F9BEC05F0030EE5
:1042440001017A6F776B766B786B070E6C6F0101E7
:10425400DEA125D0000EEB1902E1000EEA191FE0E1
:104264007851000A1CE1010E786F03EC07F000C0DE
:1042740079F1790EF66E750EF76E000EF86EAB0ED0
:10428400E16E020EE26E160E006E010E016E4AEC35
:1042940004F0AB0EC56F020EC66FF4EC07F001011B
:1042A4007851010A58E1DEB156D0000EEB1902E153
:1042B400000EEA1950E079516F25006E000E70214E
:1042C400016E000E7121026E000E7221036E00C099
:1042D40087F201C088F202C089F203C08AF200C0EA
:1042E400C5F301C0C6F302C0C7F303C0C8F3090E87
:1042F4000301C96F9BEC05F00101786B87C26EF571
:1043040088C26FF589C270F58AC271F5F00E050195
:10431400726F010E736F52EC04F08F0EF66E750E11
:10432400F76E000EF86EC10EE16E020EE26E100E14
:10433400006E010E016E4AEC04F0C10E0301C56F5C
:10434400020EC66FF4EC07F0F00E0301C56F010E08
:08435400C66FF4EC07F0120043
:10435C00838E010E0301C56FD3EC0DF000524FE0BC
:10436C00010E0301C56F010EC66F0EEC06F0530E65
:10437C000201AB6F330EAC6F200EAD6F4D0EAE6FF6
:10438C006F0EAF6F740EB06F6F0EB16F720EB26FA7
:10439C00310EB36F530EB46F740EB56F610EB66FF2
:1043AC00720EB76F740EB86FB96BAB0E0301C56F9D
:1043BC00020EC66FF4EC07F0839C480E05017A6F71
:1043CC00010E7B6F1A0E7C6F000E7D6F100E7E6FD0
:1043DC00000E7F6FF5EC00F0590E7A6F010E7B6FBB
:1043EC00C40E7C6F000E7D6F100E7E6F000E7F6F03
:1043FC00F5EC00F0010E01016E6F010E6B6F020EF9
:10440C000301C56FD3EC0DF000522DE0020E030139
:10441C00C56F010EC66F0EEC06F0530E0201BA6F9B
:10442C00330EBB6F200EBC6F4D0EBD6F6F0EBE6F8B
:10443C00740EBF6F6F0EC06F720EC16F320EC26FF3
:10444C00530EC36F740EC46F610EC56F720EC66FC0
:10445C00740EC76FC86BBA0E0301C56F020EC66F20
:10446C00F4EC07F0839C050E0301C56FD3EC0DF043
:10447C0000522FE0010E0301C56F75C1C6F3E5ECC8
:10448C0008F00101776B736B530E0201C96F330E89
:10449C00CA6F200ECB6F4D0ECC6F6F0ECD6F740E9E
:1044AC00CE6F6F0ECF6F720ED06F310ED16F200E9C
:1044BC00D26F460ED36F610ED46F730ED56F740E20
:1044CC00D66FD76BC90E0301C56F020EC66FF4EC25
:1044DC0007F0070E0301C56FD3EC0DF000522EE070
:1044EC000301C56B75C1C6F3E5EC08F0010E0101C3
:1044FC00736F530E0201D86F330ED96F200EDA6F23
:10450C004D0EDB6F6F0EDC6F740EDD6F6F0EDE6F9A
:10451C00720EDF6F310EE06F200EE16F530EE26F03
:10452C006C0EE36F6F0EE46F770EE56FE66BD80ED3
:10453C000301C56F020EC66FF4EC07F0060E030103
:10454C00C56FD3EC0DF000522FE074C1C5F3010E12
:10455C000301C66FE5EC08F00101766B6A6B530E34
:10456C000201E76F330EE86F200EE96F4D0EEA6F14
:10457C006F0EEB6F740EEC6F6F0EED6F720EEE6FC5
:10458C00320EEF6F200EF06F460EF16F610EF26F70
:10459C00730EF36F740EF46FF56BE70E0301C56FBA
:1045AC00020EC66FF4EC07F0080E0301C56FD3ECD6
:1045BC000DF000522EE074C1C5F30301C66BE5EC9F
:1045CC0008F0010E01016A6F530E0201F66F330EF3
:1045DC00F76F200EF86F4D0EF96F6F0EFA6F740EA9
:1045EC00FB6F6F0EFC6F720EFD6F320EFE6F200EA6
:1045FC00FF6F530E0301006F6C0E016F6F0E026F95
:10460C00770E036F046BF60EC56F020EC66FF4ECDB
:10461C0007F00A0E0301C56FD3EC0DF000521FE03A
:10462C00010E0101776F010E0301C56FF5EC08F067
:10463C00000EF66E720EF76E000EF86E050EE16E41
:10464C00030EE26E160E006E010E016E4AEC04F0C3
:10465C00050E0301C56F030EC66FF4EC07F00B0ECD
:10466C000301C56FD3EC0DF000521FE0010E0101E8
:10467C00766F020E0301C56FF5EC08F0160EF66EA0
:10468C00720EF76E000EF86E1B0EE16E030EE26EEC
:10469C00160E006E010E016E4AEC04F01B0E0301A7
:1046AC00C56F030EC66FF4EC07F0030E0301C56F64
:1046BC00D3EC0DF000522AE03C90010E0301C56FC3
:1046CC006DEC08F0530E0301316F330E326F200E78
:1046DC00336F4D0E346F6F0E356F740E366F6F0E69
:1046EC00376F720E386F310E396F200E3A6F530ED2
:1046FC003B6F740E3C6F6F0E3D6F700E3E6F3F6BD9
:10470C00310EC56F030EC66FF4EC07F0040E0301F7
:10471C00C56FD3EC0DF000522AE03C92020E03015F
:10472C00C56F6DEC08F0530E0301406F330E416FF3
:10473C00200E426F4D0E436F6F0E446F740E456F1B
:10474C006F0E466F720E476F320E486F200E496F18
:10475C00530E4A6F740E4B6F6F0E4C6F700E4D6F85
:10476C004E6B400EC56F030EC66FF4EC07F00C0ECB
:10477C000301C56FD3EC0DF0005201E0838C0101F5
:10478C007751010A52E1DDA150D07351000A4DE17D
:10479C00010E0301C56F6DEC08F0020E0301C56F2D
:1047AC006DEC08F0050E01016C6F776B766B4A0EA1
:1047BC00F66E720EF76E000EF86E4F0EE16E030E73
:1047CC00E26E140E006E010E016E4AEC04F04F0EF8
:1047DC000301C56F030EC66FF4EC07F0090E03015D
:1047EC00C56F23EC08F0480E05017A6F010E7B6F44
:1047FC000B0E7C6F010E7D6F100E7E6F000E7F6FA7
:10480C00F5EC00F0590E7A6F010E7B6FA20E7C6FE7
:10481C00000E7D6F100E7E6F000E7F6FF5EC00F0BA
:10482C00010E01016E6F020E6B6F7651010A52E19F
:10483C00DDA350D06A51000A4DE1010E0301C56F92
:10484C006DEC08F0020E0301C56F6DEC08F0050E5F
:10485C0001016C6F776B766B5E0EF66E720EF76EF7
:10486C00000EF86E630EE16E030EE26E140E006E17
:10487C00010E016E4AEC04F0630E0301C56F030ECA
:10488C00C66FF4EC07F0090E0301C56F23EC08F0BA
:10489C00480E05017A6F010E7B6F0B0E7C6F010EBB
:1048AC007D6F100E7E6F000E7F6FF5EC00F0590ED1
:1048BC007A6F010E7B6FA20E7C6F000E7D6F100E57
:1048CC007E6F000E7F6FF5EC00F0010E01016E6F34
:1048DC00020E6B6F02018E51000A05E0010180513E
:1048EC00010A01E001D03C920101DEA14FD0EF534F
:1048FC004DE0010E0301C56F6DEC08F0020E0301D3
:10490C00C56F6DEC08F00101776B766B050E6C6F63
:10491C00720EF66E720EF76E000EF86E770EE16E7A
:10492C00030EE26E110E006E010E016E4AEC04F0E5
:10493C00770E0301C56F030EC66FF4EC07F0090E7A
:10494C000301C56F23EC08F0480E05017A6F010EC8
:10495C007B6F0B0E7C6F010E7D6F100E7E6F000E49
:10496C007F6FF5EC00F0590E7A6F010E7B6F1C0E09
:10497C007C6F010E7D6F100E7E6F000E7F6FF5EC5D
:10498C0000F0010E01016E6F020E6B6FDC51000A1C
:10499C004DE0010E0301C56F6DEC08F0020E030132
:1049AC00C56F6DEC08F00101776B766B050E6C6FC3
:1049BC00830EF66E720EF76E000EF86E880EE16EB8
:1049CC00030EE26E110E006E010E016E4AEC04F045
:1049DC00880E0301C56F030EC66FF4EC07F0090EC9
:1049EC000301C56F23EC08F0480E05017A6F010E28
:1049FC007B6F0B0E7C6F010E7D6F100E7E6F000EA9
:104A0C007F6FF5EC00F0590E7A6F010E7B6F2D0E57
:104A1C007C6F010E7D6F100E7E6F000E7F6FF5ECBC
:104A2C0000F0010E01016E6F020E6B6FDF51010A77
:104A3C004FE1C3534DE0010E0301C56F6DEC08F05F
:104A4C00020E0301C56F6DEC08F00101776B766BFC
:104A5C00050E6C6F940EF66E720EF76E000EF86EFD
:104A6C00990EE16E030EE26E170E006E010E016ED2
:104A7C004AEC04F0990E0301C56F030EC66FF4ECFB
:104A8C0007F0090E0301C56F23EC08F0480E050171
:104A9C007A6F010E7B6F0B0E7C6F010E7D6F100E0B
:104AAC007E6F000E7F6FF5EC00F0590E7A6F010EE1
:104ABC007B6FD80E7C6F000E7D6F100E7E6F000E1C
:104ACC007F6FF5EC00F0010E01016E6F020E6B6F43
:104ADC003C50000A2AE1020E6C6F786B090E030140
:104AEC00C56F23EC08F0480E05017A6F010E7B6F41
:104AFC002B0E7C6F000E7D6F100E7E6F000E7F6F85
:104B0C00F5EC00F0590E7A6F010E7B6FC40E7C6FC2
:104B1C00000E7D6F100E7E6F000E7F6FF5EC00F0B7
:104B2C00010E01016E6F010E6B6F6C51050A04E0F2
:104B3C006C51060A01E04CD00301C56B23EC08F064
:104B4C00000E0101EB1902E1000EEA1941E0EA51F5
:104B5C006F250301C56F0101EB5170210301C66F75
:104B6C00000E010171210301C76F000E01017221BA
:104B7C000301C86F090EC96F9BEC05F0AB0EF66E06
:104B8C00720EF76E000EF86EB00EE16E030EE26E52
:104B9C00150E006E010E016E4AEC04F0B00EC56FDE
:104BAC00030EC66FF4EC07F0590E05017A6F010E77
:104BBC007B6FFA0E7C6F000E7D6F100E7E6F000EF9
:104BCC007F6FF5EC00F0010E01016E6F020E6B6F42
:024BDC001200C5
:104BDE00020E0201E16F839E0101DC51000A09E120
:104BEE00090E0301C56FD3EC0DF00050010A01E070
:104BFE00C2D3090E0301C56F23EC08F002018B51DD
:104C0E00000A05E001018051010A01E042D10201D2
:104C1E00E15101016F25006E000E7021016E000E34
:104C2E007121026E000E7221036E00C087F201C068
:104C3E0088F202C089F203C08AF200C0C5F301C037
:104C4E00C6F302C0C7F303C0C8F3010E0301C96F58
:104C5E009BEC05F002019051000A11E087C2C5F3EA
:104C6E0088C2C6F389C2C7F38AC2C8F3070E03010E
:104C7E00C96F9BEC05F0010E0101736F0FD087C257
:104C8E00C5F388C2C6F389C2C7F38AC2C8F3050E3C
:104C9E000301C96F9BEC05F00101736B020190518A
:104CAE0001016F25006E000E7021016E000E712144
:104CBE00026E000E7221036E020E0026000E0122FD
:104CCE00022203220201E1510026000E01220222DD
:104CDE00032200C087F201C088F202C089F203C02D
:104CEE008AF200C0C5F301C0C6F302C0C7F303C009
:104CFE00C8F30A0E0301C96F9BEC05F00201905137
:104D0E0001016F25006E000E7021016E000E7121E3
:104D1E00026E000E7221036E0201E1510026000E9A
:104D2E0001220222032200C087F201C088F202C0D3
:104D3E0089F203C08AF200C0C5F301C0C6F302C0F7
:104D4E00C7F303C0C8F3050E0301C96F9BEC05F052
:104D5E0002018F51000A2FE00101C7516F25006E2D
:104D6E00000E7021016E000E7121026E000E722176
:104D7E00036E02018F51005E000E015A025A035A51
:104D8E00E1510026000E01220222032200C087F20A
:104D9E0001C088F202C089F203C08AF200C0C5F3D6
:104DAE0001C0C6F302C0C7F303C0C8F3070E030168
:104DBE00C96F9BEC05F00101EC51000A41E0C751AF
:104DCE006F25006E000E7021016E000E7121026EB5
:104DDE00000E7221036E0201E1510026000E012227
:104DEE000222032200C087F201C088F202C089F2BB
:104DFE0003C08AF200C0C5F301C0C6F302C0C7F3F8
:104E0E0003C0C8F3050E0301C96F9BEC05F0030E3A
:104E1E00020187250301C56F000E020188210301DF
:104E2E00C66F000E020189210301C76F000E020139
:104E3E008A210301C86F030EC96F9BEC05F029D0C0
:104E4E000101C7516F25006E000E7021016E000E1C
:104E5E007121026E000E7221036E0201E1510026D5
:104E6E00000E01220222032200C087F201C088F246
:104E7E0002C089F203C08AF200C0C5F301C0C6F3B6
:104E8E0002C0C7F303C0C8F3030E0301C96F9BEC46
:104E9E0005F002018B51000AD8B466D2010180518F
:104EAE00020AD8A461D20201E15101016F25006E00
:104EBE00000E7021016E000E7121026E000E722125
:104ECE00036E00C087F201C088F202C089F203C0EF
:104EDE008AF200C0C5F301C0C6F302C0C7F303C017
:104EEE00C8F3020E0301C96F9BEC05F0020190514D
:104EFE00000A11E087C2C5F388C2C6F389C2C7F3A0
:104F0E008AC2C8F3080E0301C96F9BEC05F0010EAF
:104F1E0001016A6F0FD087C2C5F388C2C6F389C27A
:104F2E00C7F38AC2C8F3060E0301C96F9BEC05F0E6
:104F3E0001016A6B0201905101016F25006E000E96
:104F4E007021016E000E7121026E000E7221036E31
:104F5E00020E0026000E0122022203220201E1515E
:104F6E000026000E01220222032200C087F201C099
:104F7E0088F202C089F203C08AF200C0C5F301C0F4
:104F8E00C6F302C0C7F303C0C8F30B0E0301C96F0B
:104F9E009BEC05F00201905101016F25006E000E91
:104FAE007021016E000E7121026E000E7221036ED1
:104FBE000201E1510026000E01220222032200C04E
:104FCE0087F201C088F202C089F203C08AF200C0E3
:104FDE00C5F301C0C6F302C0C7F303C0C8F3060E83
:104FEE000301C96F9BEC05F002018F51000A2FE0FF
:104FFE008B5101016F25006E000E7021016E000EA7
:10500E007121026E000E7221036E02018F51005E3D
:10501E00000E015A025A035AE1510026000E0122D7
:10502E000222032200C087F201C088F202C089F278
:10503E0003C08AF200C0C5F301C0C6F302C0C7F3B5
:10504E0003C0C8F3080E0301C96F9BEC05F0020103
:10505E008B5101016F25006E000E7021016E000E46
:10506E007121026E000E7221036E0201E1510026C3
:10507E00000E01220222032200C087F201C088F234
:10508E0002C089F203C08AF200C0C5F301C0C6F3A4
:10509E0002C0C7F303C0C8F3040E0301C96F9BEC33
:1050AE0005F00101ED516F25006E000E7021016EAD
:1050BE00000E7121026E000E7221036E0201E1518B
:1050CE000026000E01220222032200C087F201C038
:1050DE0088F202C089F203C08AF200C0C5F301C093
:1050EE00C6F302C0C7F303C0C8F3010E0301C96FB4
:1050FE009BEC05F002019051000A11E087C2C5F346
:10510E0088C2C6F389C2C7F38AC2C8F3070E030169
:10511E00C96F9BEC05F0010E0101736F0FD087C2B2
:10512E00C5F388C2C6F389C2C7F38AC2C8F3050E97
:10513E000301C96F9BEC05F00101736BED516F25F7
:10514E00006E000E7021016E000E7121026E000EB7
:10515E007221036E020190510026000E01220222DE
:10516E000322020E0026000E012202220322E1512A
:10517E000026000E01220222032200C087F201C087
:10518E0088F202C089F203C08AF200C0C5F301C0E2
:10519E00C6F302C0C7F303C0C8F30A0E0301C96FFA
:1051AE009BEC05F00101ED516F25006E000E702194
:1051BE00016E000E7121026E000E7221036E02014D
:1051CE0090510026000E012202220322E1510026F8
:1051DE00000E01220222032200C087F201C088F2D3
:1051EE0002C089F203C08AF200C0C5F301C0C6F343
:1051FE0002C0C7F303C0C8F3050E0301C96F9BECD1
:10520E0005F002018F51000A35E00101ED516F25C5
:10521E00006E000E7021016E000E7121026E000EE6
:10522E007221036EC7510026000E012202220322B4
:10523E0002018F51005E000E015A025A035AE151CB
:10524E000026000E01220222032200C087F201C0B6
:10525E0088F202C089F203C08AF200C0C5F301C011
:10526E00C6F302C0C7F303C0C8F3070E0301C96F2C
:10527E009BEC05F00101EC51000A47E0C7516F2588
:10528E00006E000E7021016E000E7121026E000E76
:10529E007221036EED510026000E0122022203221E
:1052AE000201E1510026000E01220222032200C05B
:1052BE0087F201C088F202C089F203C08AF200C0F0
:1052CE00C5F301C0C6F302C0C7F303C0C8F3050E91
:1052DE000301C96F9BEC05F0030E02018725030144
:1052EE00C56F000E020188210301C66F000E020178
:1052FE0089210301C76F000E02018A210301C86FC5
:10530E00030EC96F9BEC05F02FD00101C7516F251D
:10531E00006E000E7021016E000E7121026E000EE5
:10532E007221036EED510026000E0122022203228D
:10533E000201E1510026000E01220222032200C0CA
:10534E0087F201C088F202C089F203C08AF200C05F
:10535E00C5F301C0C6F302C0C7F303C0C8F3030E02
:10536E000301C96F9BEC05F0030E01017A6F776B99
:10537E00766B040E6C6F0101DEA125D0000EEB19C9
:10538E0002E1000EEA191FE07851000A1CE1010E3D
:10539E00786F03EC07F000C079F1B00EF66E750E63
:1053AE00F76E000EF86EAB0EE16E020EE26E160E8A
:1053BE00006E010E016E4AEC04F0AB0EC56F020ECC
:1053CE00C66FF4EC07F001017851010AD8A4AED0F3
:1053DE00DEB1ACD0000EEB1902E1000EEA19D8B422
:1053EE00A5D0EE51000A51E179516F25006E000EE5
:1053FE007021016E000E7121026E000E7221036E7D
:10540E0000C087F201C088F202C089F203C08AF29E
:10541E0000C0C5F301C0C6F302C0C7F303C0C8F392
:10542E00090E0301C96F9BEC05F00101786B87C271
:10543E006EF588C26FF589C270F58AC271F5F00EED
:10544E000501726F010E736F52EC04F0C60EF66E0C
:10545E00750EF76E000EF86EC10EE16E020EE26E64
:10546E00100E006E010E016E4AEC04F0C10E030127
:10547E00C56F020EC66FF4EC07F0F00E0301C56F98
:10548E00010EC66FF4EC07F051D00101EE516F25FD
:10549E00006E000E7021016E000E7121026E000E64
:1054AE007221036E00C087F201C088F202C089F239
:1054BE0003C08AF200C0C5F301C0C6F302C0C7F331
:1054CE0003C0C8F3090E0301C96F9BEC05F001017F
:1054DE00786B87C26EF588C26FF589C270F58AC285
:1054EE0071F5F00E0501726F010E736F52EC04F040
:1054FE00D60EF66E750EF76E000EF86ED10EE16ECC
:10550E00020EE26E100E006E010E016E4AEC04F0F9
:10551E00D10E0301C56F020EC66FF4EC07F0F00E4C
:0E552E000301C56F010EC66FF4EC07F012000A
:10553C0083B606D001014051140801E3402B02D080
:10554C000101406B140E405D03E3010E006E12006E
:04555C00006A1200CF
:10556000030E0201AB6F839E0101D851020A03E1D1
:10557000640E6C6F7D6BDC510308806FDC51000A98
:10558000D8B4ACD2090E0301C56F23EC08F0838EAA
:10559000010E01016F250301C56F000E010170218D
:1055A0000301C66F000E010171210301C76F000ED8
:1055B000010172210301C86F0C0EC96F9BEC05F04D
:1055C0000201AB5101016F25006E000E7021016ECA
:1055D000000E7121026E000E7221036E00C087F270
:1055E00001C088F202C089F203C08AF200C0C5F38C
:1055F00001C0C6F302C0C7F303C0C8F3010E030124
:10560000C96F9BEC05F002018C51000A11E087C2C2
:10561000C5F388C2C6F389C2C7F38AC2C8F3070EAE
:105620000301C96F9BEC05F0010E0101736F0FD0F0
:1056300087C2C5F388C2C6F389C2C7F38AC2C8F35A
:10564000050E0301C96F9BEC05F00101736B0201AC
:105650008C5101016F25006E000E7021016E000E4D
:105660007121026E000E7221036E020E0026000EE2
:105670000122022203220201AB510026000E012268
:105680000222032200C087F201C088F202C089F220
:1056900003C08AF200C0C5F301C0C6F302C0C7F35D
:1056A00003C0C8F30A0E0301C96F9BEC05F00201A9
:1056B0008C5101016F25006E000E7021016E000EED
:1056C0007121026E000E7221036E0201AB510026A1
:1056D000000E01220222032200C087F201C088F2DC
:1056E00002C089F203C08AF200C0C5F301C0C6F34C
:1056F00002C0C7F303C0C8F3050E0301C96F9BECDA
:1057000005F002018D51000A2FE00101C6516F25FD
:10571000006E000E7021016E000E7121026E000EEF
:105720007221036E02018D51005E000E015A025A71
:10573000035AAB510026000E01220222032200C0B0
:1057400087F201C088F202C089F203C08AF200C069
:10575000C5F301C0C6F302C0C7F303C0C8F3070E08
:105760000301C96F9BEC05F00101C6516F25006E66
:10577000000E7021016E000E7121026E000E72216A
:10578000036E0201AB510026000E01220222032209
:1057900000C087F201C088F202C089F203C08AF219
:1057A00000C0C5F301C0C6F302C0C7F303C0C8F30D
:1057B000030E0301C96F9BEC05F002018E51000A34
:1057C000D8B455D101018051020AD8A450D1ED516D
:1057D0006F25006E000E7021016E000E7121026EA9
:1057E000000E7221036E0201AB510026000E012251
:1057F0000222032200C087F201C088F202C089F2AF
:1058000003C08AF200C0C5F301C0C6F302C0C7F3EB
:1058100003C0C8F3020E0301C96F9BEC05F002013F
:105820008C51000A2DE00101ED516F25006E000E34
:105830007021016E000E7121026E000E7221036E46
:105840000201AB510026000E01220222032200C0F9
:1058500087F201C088F202C089F203C08AF200C058
:10586000C5F301C0C6F302C0C7F303C0C8F3080EF6
:105870000301C96F9BEC05F0010E01016A6F2BD08B
:105880000101ED516F25006E000E7021016E000EBA
:105890007121026E000E7221036E0201AB510026CF
:1058A000000E01220222032200C087F201C088F20A
:1058B00002C089F203C08AF200C0C5F301C0C6F37A
:1058C00002C0C7F303C0C8F3060E0301C96F9BEC07
:1058D00005F001016A6BED516F25006E000E70211D
:1058E000016E000E7121026E000E7221036E020124
:1058F0008C510026000E012202220322020E0026F5
:10590000000E012202220322AB510026000E0122CA
:105910000222032200C087F201C088F202C089F28D
:1059200003C08AF200C0C5F301C0C6F302C0C7F3CA
:1059300003C0C8F30B0E0301C96F9BEC05F0010116
:10594000ED516F25006E000E7021016E000E712169
:10595000026E000E7221036E02018C510026000EB1
:10596000012202220322AB510026000E0122022254
:10597000032200C087F201C088F202C089F203C08E
:105980008AF200C0C5F301C0C6F302C0C7F303C06A
:10599000C8F3060E0301C96F9BEC05F002018D519F
:1059A000000A35E00101ED516F25006E000E7021F7
:1059B000016E000E7121026E000E7221036E020153
:1059C0008E510026000E0122022203228D51005E1C
:1059D000000E015A025A035AAB510026000E012252
:1059E0000222032200C087F201C088F202C089F2BD
:1059F00003C08AF200C0C5F301C0C6F302C0C7F3FA
:105A000003C0C8F3080E0301C96F9BEC05F0020147
:105A10008E5101016F25006E000E7021016E000E87
:105A20007121026E000E7221036EED510026000EF0
:105A30000122022203220201AB510026000E0122A4
:105A40000222032200C087F201C088F202C089F25C
:105A500003C08AF200C0C5F301C0C6F302C0C7F399
:105A600003C0C8F3040E0301C96F9BEC05F0000EE0
