:0400000015EF37F0D1
:1000080000C019F001C018F004C017F008C016F0BD
:100018000CC015F0F2A430D00001E82B8088010E46
:10002800E16FE651FF0A03E1E66BE76B01D0E62BCF
:1000380001017951FF0A04E1796B0001E96B02D0F3
:100048000101792B190E0001E85D11E3E86B010E3F
:1000580001010727000E082309230A230001F25390
:10006800010ED8A4000EF26F8098010EE36FF30E14
:10007800D76ECA0ED66EF294F0A017D00001E751E1
:10008800000A03E1E72BE66B01D0E72B050EE75DDD
:100098000BE3130EE65D07E3E651150804E3010ED2
:1000A800E06FE76B01D0E76BF090F0A21DD0000184
:1000B800E951000A04E1E92B0101796B02D0000142
:1000C800E92B0001050EE95D0EE3130E0101795DD0
:1000D80008E37951150805E3010E0001DE6FE96BAD
:1000E80002D00001E96BF092F2A22FD00001EC2BB4
:1000F800EC51FF0A01E1EC6B030E046EECC000F05A
:1001080066D808C000F00050010A0EE1825305E0ED
:10011800CB5302E0818601D08196835305E0DD53FD
:1001280002E0818801D08198030E046EECC000F0D3
:100138004ED808C000F00050000A06E1825301E0E2
:100148008186835301E08188F29219C000F018C0BB
:1001580001F017C004F016C008F015C00CF011002B
:0E016800ACB202D00000FCD721C5ADFF1200E2
:1001760021C5C9FFC7B002D00000FCD7C9CF00F027
:02018600120065
:10018800F250026EF29E0500FF6A0150FE6E0050AA
:08019800FD6E02BEF28E1200A2
:1001A000086A096A100E0C6E0134083609360450CC
:1001B000085E0550D8A0053C095ED8B007D00450B1
:1001C00008260550D8B0053C0926D89000360136DF
:0601D0000C2EEAD712001C
:1001D600086A080E0C6E003408360450085ED8B063
:0E01E60002D00826D89000360C2EF5D7120055
:1001F4001CC504F01DC505F01AC502F01BC503F0AB
:100204001EC500F01FC501F0010E05011E5F000EA2
:100214001F5B005001100FE004C0E9FF05C0EAFFB6
:1002240002C0E1FF03C0E2FFEECFE6FF024A032A69
:10023400044A052AE5D71AC500F01BC501F01200CF
:1002440030C1E1FF31C1E2FF1AC5E6FF2EC100F063
:080254002FC101F097DF120039
:10025C000B6A0A6A096A086A0E6A03340836045083
:10026C00085E0550D8A0053C095E0650D8A0063C97
:10027C000A5E0750D8A0073C0B5EE86AD8A0010EB6
:10028C000E5E0336070E0C6E0334083609360A363A
:10029C000B360E36045003A012D0085E0550D8A0C1
:1002AC00053C095E0650D8A0063C0A5E0750D8A053
:1002BC00073C0B5EE86AD8A0010E0E5E11D0082632
:1002CC000550D8B0053C09260650D8B0063C0A2685
:1002DC000750D8B0073C0B26E86AD8B0010E0E26A2
:1002EC0003360C2ED1D70234083609360A360B36B3
:1002FC000E36045003A012D0085E0550D8A0053C61
:10030C00095E0650D8A0063C0A5E0750D8A0073CF0
:10031C000B5EE86AD8A0010E0E5E11D008260550BF
:10032C00D8B0053C09260650D8B0063C0A26075022
:10033C00D8B0073C0B26E86AD8B0010E0E26023660
:10034C00070E0C6E0234083609360A360B360E369A
:10035C00045002A012D0085E0550D8A0053C095EDE
:10036C000650D8A0063C0A5E0750D8A0073C0B5E8E
:10037C00E86AD8A0010E0E5E11D008260550D8B040
:10038C00053C09260650D8B0063C0A260750D8B0C2
:10039C00073C0B26E86AD8B0010E0E2602360C2E4E
:1003AC00D1D70134083609360A360B360E360450CE
:1003BC0002A012D0085E0550D8A0053C095E06507C
:1003CC00D8A0063C0A5E0750D8A0073C0B5EE86A32
:1003DC00D8A0010E0E5E11D008260550D8B0053CF1
:1003EC0009260650D8B0063C0A260750D8B0073C60
:1003FC000B26E86AD8B0010E0E260136070E0C6EDD
:10040C000134083609360A360B360E36045001A074
:10041C0012D0085E0550D8A0053C095E0650D8A045
:10042C00063C0A5E0750D8A0073C0B5EE86AD8A0D1
:10043C00010E0E5E11D008260550D8B0053C0926D9
:10044C000650D8B0063C0A260750D8B0073C0B26FD
:10045C00E86AD8B0010E0E2601360C2ED1D7003426
:10046C00083609360A360B360E36045001A012D067
:10047C00085E0550D8A0053C095E0650D8A0063C85
:10048C000A5E0750D8A0073C0B5EE86AD8A0010EA4
:10049C000E5E11D008260550D8B0053C0926065032
:1004AC00D8B0063C0A260750D8B0073C0B26E86AA1
:1004BC00D8B0010E0E260036070E0C6E003408362E
:1004CC0009360A360B360E36045000A012D0085EE0
:1004DC000550D8A0053C095E0650D8A0063C0A5E23
:1004EC000750D8A0073C0B5EE86AD8A0010E0E5E40
:1004FC0011D008260550D8B0053C09260650D8B0B6
:10050C00063C0A260750D8B0073C0B26E86AD8B040
:10051C00010E0E2600360C2ED1D700B00ED0045092
:10052C0008260550D8B0053C09260650D8B0063C24
:0C053C000A260750D8B0073C0B2612001E
:1005480005011E6B050E1E5D0AE21E511C25E16E9B
:10055800000E1D21E26E200EE66E1E2BF3D71E51F3
:100568001C25E16E000E1D21E26EE66A1E071E5173
:100578001C251F6F000E1D21206F0A0E046E000E31
:10058800056E1AC500F01BC501F006DE08C000F0B4
:1005980009C001F0300E00261FC5E1FF20C5E2FFAB
:1005A80000C0E6FF0A0E046E000E056E1AC500F0C4
:1005B8001BC501F0F1DD00C01AF501C01BF5000EE6
:1005C800011802E1000E001801E102D01E07CFD782
:0205D80012000F
:1005DA0005011D6B030E1D5D0AE21D511B25E16E0F
:1005EA00000E1C21E26E200EE66E1D2BF3D71D5164
:1005FA001B25E16E000E1C21E26EE66A1D071D51E5
:10060A001B251E6F000E1C211F6F0A0E046E1AC5D1
:10061A0000F0DCDD08C000F0300E00261EC5E1FF48
:10062A001FC5E2FF00C0E6FF0A0E046E1AC500F0FD
:10063A00CDDD00C01AF50050000A01E102D01D0705
:04064A00DED71200E5
:10064E00A6A202D00000FCD7A69C1AC5A9FF1BC506
:10065E00A8FFA69EA684F2CF00F0F29E550EA76EBE
:10066E00AA0EA76EA68200BE02D0F29E01D0F28E16
:04067E00A69412002C
:100682004ED00101606B616BFF0E3E6F67D00101BE
:10069200440E606F020E616FC80E3E6F5FD00101A3
:1006A200580E606F020E616F960E3E6F57D00101B9
:1006B2008A0E606F020E616F640E3E6F4FD00101B1
:1006C2008A0E606F020E616F500E3E6F47D00101BD
:1006D200A80E606F020E616F960E3E6F3FD0010151
:1006E200A80E606F020E616F640E3E6F37D001017B
:1006F200A80E606F020E616F320E3E6F2FD00101A5
:10070200D00E606F020E616F640E3E6F27D0010142
:10071200EE0E606F020E616F320E3E6F1FD005014A
:100722001A51000AAEE01A51010AB1E01A51020A46
:10073200B6E01A51030ABBE01A51040AC0E01A518A
:10074200050AC5E01A51060ACAE01A51070ACFE0A3
:0E0752001A51080AD4E01A51090AD9E012001F
:100760000B6A0A6A096A00500402F4CF09F0F3CF59
:1007700008F001500502F4CF0BF0F3CF0AF000505F
:100780000502F3500926F4500A22E86A0B220150B0
:100790000402F3500926F4500A22E86A0B2208C02A
:1007A00000F009C001F00AC002F00BC003F0120013
:1007B0000900F5CFE6FF0006FBE10106F9E11200B2
:1007C0000501146B0A0E145D0AE214511225E16E44
:1007D000000E1321E26E300EE66E142BF3D7145187
:1007E0001225E16E000E1321E26EE66A1407000E78
:1007F000006E111908E10050101905E100500F19A1
:1008000002E10E51000A3EE014511225156F000E50
:100810001321166F0A0E046E000E056E066E076E2B
:100820000EC500F00FC501F010C502F011C503F0B0
:1008300015DD08C000F009C001F00AC002F00BC0CD
:1008400003F0300E002615C5E1FF16C5E2FF00C01B
:10085000E6FF14070A0E046E000E056E066E076EA4
:100860000EC500F00FC501F010C502F011C503F070
:10087000F5DC00C00EF501C00FF502C010F503C095
:0608800011F5B5D71200CE
:100886000501116B0EC5E9FF0FC5EAFFEECF10F5A6
:100896001051000A0EE010C521F563DC0501112B8D
:1008A60011510E25E96E000E0F21EA6EEECF10F5FE
:0408B600EFD7120066
:1008BA000501116B0EC5E9FF0FC5EAFFEECF10F572
:1008CA001051000A0EE010C51AF5B7DC0501112B0C
:1008DA0011510E25E96E000E0F21EA6EEECF10F5CA
:0408EA00EFD7120032
:0A08EE00490E0D6E0D2EFED712000C
:1008F8000EC51AF505011A331A9F0FC51BF510C549
:100908001CF567DE010E0E15016E0150010A17E194
:10091800030E0F251A6F000E10211B6F2E0E116F7C
:10092800350E126F730E136F146B110E1C6F050EBC
:100938001D6F040E1E6F000E1F6F58DC16D0030EBD
:100948000F251A6F000E10211B6F730E156F200EE6
:10095800166F200E176F186B150E1C6F050E1D6F86
:0C096800040E1E6F000E1F6F41DC120019
:10097400C7B409D01F0EC514016E0150000A03E16B
:0A098400010E006E01D0006A12009F
:10098E000EC51AF50FC51BF505011B331A331B9F38
:10099E0010C51CF511C51DF5D0DD010E0E15016E2D
:1009AE000FC502F0000E0216000E021802E1010E33
:1009BE00011817E1050E10251A6F000E11211B6F7D
:1009CE002E0E126F350E136F730E146F156B120EF3
:1009DE001C6F050E1D6F040E1E6F000E1F6F03DCC5
:1009EE0017D0050E10251A6F000E11211B6F730EF6
:1009FE00166F200E176F200E186F196B160E1C6FC8
:100A0E00050E1D6F040E1E6F000E1F6FFAEC00F028
:020A1E001200C4
:100A2000A69C0EC5A9FFA69EA680A8CF00F0120026
:100A3000010E05011A6F62C11BF509DE020E0501E8
:100A40001A6F77C11BF503DE030E05011A6F69C12A
:100A50001BF5FDDD040E05011A6F76C11BF5F7DDF0
:100A6000050E05011A6F7DC11BF5F1DD060E0501AE
:100A70001A6F78C11BF5EBDD070E05011A6F7AC1FD
:100A80001BF5E5DD080E05011A6F75C11BF5DFDDED
:100A9000090E05011A6F6BC11BF5D9DD0A0E0501A0
:100AA0001A6F7CC11BF5D3DD0B0E05011A6F7BC1DC
:100AB0001BF5CDDD0C0E05011A6F97C01BF5C7DDC8
:100AC00000019751090805011A6FDBDD0D0E0501C4
:100AD0001A6F7EC11BF5BBDD0E0E05011A6F1BC21E
:100AE0001BF5B5DD0F0E05011A6F25C11BF5AFDD36
:0E0AF000100E05011A6F24C11BF5A9DD1200BE
:100AFE000301656B666B6651120802E165518E0843
:100B0E0008E331DF005201E004D00301654B662B90
:100B1E00F2D70301120E665D02E18F0E655D03E3EF
:100B2E007B0E006E05D0C580C5A001D0FDD7006A32
:020B3E001200A3
:100B400003016A6B140E6A5D6DE26AC300F0000E69
:100B5000016E070E046E000E056E02DE8A0E002680
:100B6000010E0122050E0024E96E000E0120EA6E3E
:100B7000EE50010A55E16AC300F0000E016E070E47
:100B8000046E000E056EECDD8A0E0024E16E010E8F
:100B90000120E26E69C3E6FF6AC300F0000E016E39
:100BA000070E046E000E056EDBDD8A0E0026010EB8
:100BB0000122010E0024E16E000E0120E26E65C3E9
:100BC000E6FF66C3E6FF67C3E6FF68C3E6FF6AC3E6
:100BD00000F0000E016E070E046E000E056EC0DD03
:100BE0008A0E0026010E0122050E0024E16E000E81
:100BF0000120E26EE66A6AC300F0000E016E070E85
:100C0000046E000E056EACDD8A0E0026010E012278
:100C1000060E0024E16E000E0120E26EE66A02D0AC
:060C20006A2B90D71200C0
:100C2600010E05010E6FF9DE00C062F1020E0E6FB5
:100C3600F4DE00C077F1030E0E6FEFDE00C069F13F
:100C4600040E0E6FEADE00C076F1050E0E6FE5DECD
:100C560000C07DF1060E0E6FE0DE00C078F1070ED3
:100C66000E6FDBDE00C07AF1080E0E6FD6DE00C016
:100C760075F1090E0E6FD1DE00C06BF10A0E0E6F14
:100C8600CCDE00C07BF1000E01017C6F7BC17CF1E4
:100C96007B6B0B0E05010E6FC0DE005001017B134E
:100CA600000E7C130C0E05010E6FB7DE00C097F028
:100CB600005009081A6FE2DC0D0E05010E6FADDE5D
:100CC60000C07EF10E0E0E6FA8DE00C01BF20F0EE6
:100CD6000E6FA3DE00C025F1100E0E6F9EDE00C063
:040CE60024F11200E3
:100CEA00010E03016525E96E000E6621EA6EEECF5C
:100CFA0062F165C3E9FF66C3EAFFEECF69F16751A6
:100D0A00020AD8A485D0030E6525E96E000E662175
:100D1A00EA6EEECF77F1020E6525E96E000E6621C6
:100D2A00EA6EEECF76F1040E6525E96E000E6621B5
:100D3A00EA6E080E6525D96E000E6621DA6EDE505F
:100D4A00EE24036E046A000E042203C000F004C0FD
:100D5A0001F001320032019E01BC018E00C078F11F
:100D6A00050E6525E96E000E6621EA6E090E6525F7
:100D7A00D96E000E6621DA6EDE50EE24036E046A26
:100D8A00000E042203C000F004C001F00132003258
:100D9A00019E01BC018E00C07AF1060E6525E96E3E
:100DAA00000E6621EA6E0A0E6525D96E000E6621CE
:100DBA00DA6EDE50EE24036E046A000E042203C0CB
:100DCA0000F004C001F001320032019E01BC018E24
:100DDA0000C075F1070E6525E96E000E6621EA6E00
:100DEA000B0E6525D96E000E6621DA6EDE50EE24F2
:100DFA00036E046A000E042203C000F004C001F06E
:100E0A0001320032019E01BC018E00C06BF124D078
:100E1A000101776B766B040E03016525E96E000EFE
:100E2A006621EA6EEECF78F1050E6525E96E000EB1
:100E3A006621EA6EEECF7AF1060E6525E96E000E9E
:100E4A006621EA6EEECF75F1070E6525E96E000E92
:0C0E5A006621EA6EEECF6BF1E6DD1200BF
:100E660007C10EF508C10FF509C110F50AC111F544
:100E7600670E0501126F030E136F9FDC670E0E6F70
:100E8600030E0F6F17DD3A0E0301726F200E736F9C
:100E9600746B720E05010E6F030E0F6FF1DC65C3E6
:100EA6000EF566C30FF5ECDC0A0E216FB4EC00F00C
:0C0EB6000D0E0501216FB4EC00F01200DD
:100EC200010E03016525016E000E6621026E01C04E
:100ED200E9FF02C0EAFF0A0EEE24006E01C0E1FF44
:100EE20002C0E2FF00C0E6FF030E6525016E000EA0
:100EF2006621026E01C0E9FF02C0EAFF0A0EEE247B
:100F0200006E01C0E1FF02C0E2FF00C0E6FF65C360
:100F1200E9FF66C3EAFFEECF00F065C3E1FF66C3F7
:100F2200E2FF0A0E0024E66E020E6525016E000E37
:100F32006621026E01C0E9FF02C0EAFF0A0EEE243A
:100F4200006E01C0E1FF02C0E2FF00C0E6FF040E36
:100F52006525E16E000E6621E26E040EE66E060E57
:100F62006525E16E000E6621E26E040EE66E080E45
:100F72006525E16E000E6621E26E040EE66E0A0E33
:100F82006525E16E000E6621E26E040EE66E050E28
:100F92006525E16E000E6621E26E0A0EE66E090E0E
:100FA2006525E16E000E6621E26E0A0EE66E070E00
:100FB2006525E16E000E6621E26E0A0EE66E0B0EEC
:100FC2006525E16E000E6621E26E0A0EE66E1200E3
:100FD20003016551010A03E10001826B819603015D
:0E0FE2006551020A03E10001836B8198120041
:100FF0000301666B140E665D44E266C300F0000EEA
:10100000016E070E046E000E056EB0EC03F08A0E42
:101010000026010E0122050E0024E96E000E0120BB
:10102000EA6EEE50000A2BE166C300F0000E016E7E
:10103000070E046E000E056EB0EC03F08A0E00245D
:10104000E96E010E0120EA6EEECF01F00150651944
:1010500016E066C300F0000E016E070E046E000E6F
:10106000056EB0EC03F08A0E0026010E0122050E7B
:101070000024E16E000E0120E26E010EE66E662B8A
:04108000B9D71200CA
:10108400020E01011C6FF60E05011A6F000E1B6F94
:10109400E80EF66E6E0EF76E000EF86E650EE16EDB
:1010A400030EE26E110E006E010E016ED8EC03F019
:1010B400650E1C6F030E1D6F100E1E6F000E1F6F4A
:1010C400FAEC00F00001EE51000A68E10B0E050194
:1010D4001A6F010E1B6FF90EF66E6E0EF76E000E90
:1010E400F86E760EE16E030EE26E110E006E010EC6
:1010F400016ED8EC03F0760E1C6F030E1D6F100EFC
:101104001E6F000E1F6FFAEC00F0010E01011E6F3E
:101114000001F351000A1FE1F60E05011A6F000EDB
:101124001B6F0A0EF66E6F0EF76E000EF86E870ECA
:10113400E16E030EE26E110E006E010E016ED8EC2C
:1011440003F0870E1C6F030E1D6F100E1E6F000E32
:101154001F6FFAEC00F00001F351010A1FE1F60ED3
:1011640005011A6F000E1B6F1B0EF66E6F0EF76EE5
:10117400000EF86E980EE16E030EE26E110E006E14
:10118400010E016ED8EC03F0980E1C6F030E1D6F58
:10119400100E1E6F000E1F6FFAEC00F00001EE51EE
:1011A400010A2BE10B0E05011A6F010E1B6F2C0EA9
:1011B400F66E6F0EF76E000EF86EA90EE16E030E5A
:1011C400E26E110E006E010E016ED8EC03F0A90E52
:1011D4001C6F030E1D6F100E1E6F000E1F6FFAECB6
:1011E40000F0010E01011E6F62C10EF5FC0E050137
:1011F4000F6F000E106F7CEC04F00001EE51020A38
:101204002BE10B0E05011A6F010E1B6F3D0EF66EDE
:101214006F0EF76E000EF86EBA0EE16E030EE26EFC
:10122400110E006E010E016ED8EC03F0BA0E1C6FA5
:10123400030E1D6F100E1E6F000E1F6FFAEC00F0F0
:10124400010E01011E6F77C10EF5FC0E05010F6F33
:10125400000E106F7CEC04F00001EE51030A2BE148
:101264000B0E05011A6F010E1B6F4E0EF66E6F0EFC
:10127400F76E000EF86ECB0EE16E030EE26E110EE9
:10128400006E010E016ED8EC03F0CB0E1C6F030E42
:101294001D6F100E1E6F000E1F6FFAEC00F0010E92
:1012A40001011E6F69C10EF5FC0E05010F6F000EE2
:1012B400106F7CEC04F00001EE51040A2BE10B0EDC
:1012C40005011A6F010E1B6F5F0EF66E6F0EF76E3F
:1012D400000EF86EDC0EE16E030EE26E110E006E6F
:1012E400010E016ED8EC03F0DC0E1C6F030E1D6FB3
:1012F400100E1E6F000E1F6FFAEC00F0010E0101BC
:101304001E6F76C10EF5FC0E05010F6F000E106FF7
:101314007CEC04F00001EE51050A2BE10B0E0501F3
:101324001A6F010E1B6F700EF66E6F0EF76E000EC5
:10133400F86EED0EE16E030EE26E110E006E010EFC
:10134400016ED8EC03F0ED0E1C6F030E1D6F100E32
:101354001E6F000E1F6FFAEC00F0010E01011E6FEC
:1013640078C10EF5FC0E05010F6F000E106F7CECBA
:1013740004F00001EE51060A2BE10B0E05011A6F71
:10138400010E1B6F810EF66E6F0EF76E000EF86E77
:10139400FE0EE16E030EE26E110E006E010E016E82
:1013A400D8EC03F0FE0E1C6F030E1D6F100E1E6FA3
:1013B400000E1F6FFAEC00F0010E01011E6F7AC1DE
:1013C4000EF5FC0E05010F6F000E106F7CEC04F09F
:1013D4000001EE51070A2BE10B0E05011A6F010EF5
:1013E4001B6F920EF66E6F0EF76E000EF86E0F0EF8
:1013F400E16E040EE26E110E006E010E016ED8EC69
:1014040003F00F0E1C6F040E1D6F100E1E6F000EE6
:101414001F6FFAEC00F0010E01011E6F75C10EF58D
:10142400FC0E05010F6F000E106F7CEC04F0000140
:10143400EE51080A2BE10B0E05011A6F010E1B6F0A
:10144400A30EF66E6F0EF76E000EF86E200EE16EB0
:10145400040EE26E110E006E010E016ED8EC03F064
:10146400200E1C6F040E1D6F100E1E6F000E1F6FDA
:10147400FAEC00F0010E01011E6F6BC10EF5FC0EBB
:1014840005010F6F000E106F7CEC04F00001EE51AB
:10149400090A2EE10B0E05011A6F010E1B6FB40E23
:1014A400F66E6F0EF76E000EF86E310EE16E040EDE
:1014B400E26E110E006E010E016ED8EC03F0310ED7
:1014C4001C6F040E1D6F100E1E6F000E1F6FFAECC2
:1014D40000F0010E01011E6F97C01AF5FC0E050104
:1014E4001B6F000E1C6FEDEC02F0200E0001FF6F6D
:1014F400EE510A0A2BE10B0E05011A6F010E1B6F48
:10150400C50EF66E6F0EF76E000EF86E420EE16EAB
:10151400040EE26E110E006E010E016ED8EC03F0A3
:10152400420E1C6F040E1D6F100E1E6F000E1F6FF7
:10153400FAEC00F0010E01011E6F7DC10EF5FC0EE8
:1015440005010F6F000E106F7CEC04F00001EE51EA
:101554000B0A2DE10B0E05011A6F010E1B6FD60E3F
:10156400F66E6F0EF76E000EF86E530EE16E040EFB
:10157400E26E110E006E010E016ED8EC03F0530EF4
:101584001C6F040E1D6F100E1E6F000E1F6FFAEC01
:1015940000F0010E01011E6F7BC10EF57CC10FF539
:1015A400FA0E0501106F000E116FC7EC04F0000174
:1015B400EE510C0A22E10B0E05011A6F010E1B6F8E
:1015C400E70EF66E6F0EF76E000EF86E640EE16EA7
:1015D400040EE26E110E006E010E016ED8EC03F0E3
:1015E400640E1C6F040E1D6F100E1E6F000E1F6F15
:1015F400FAEC00F0010E01011E6F0001EE510D0A1C
:1016040068E10B0E05011A6F010E1B6FF80EF66EE2
:101614006F0EF76E000EF86E750EE16E040EE26E3C
:10162400110E006E010E016ED8EC03F0750E1C6FE6
:10163400040E1D6F100E1E6F000E1F6FFAEC00F0EB
:10164400010E01011E6F2551000A21E1FC0E050166
:101654001A6F000E1B6F4E0E0401866F6F0E876F9C
:10166400200E886F200E896F200E8A6F200E8B6FDC
:10167400200E8C6F8D6B860E05011C6F040E1D6F82
:10168400070E1E6F000E1F6FFAEC00F022D005014A
:10169400FC0E1A6F000E1B6F590E04018E6F650E3F
:1016A4008F6F730E906F200E916F200E926F200E2D
:1016B400936F200E946F200E956F966B8E0E05011E
:1016C4001C6F040E1D6F080E1E6F000E1F6FFAECC8
:1016D40000F00001EE510E0A68E10B0E05011A6FCD
:1016E400010E1B6F1A0EF66E700EF76E000EF86E7A
:1016F400970EE16E040EE26E110E006E010E016E85
:10170400D8EC03F0970E1C6F040E1D6F100E1E6FA5
:10171400000E1F6FFAEC00F0010E01011E6F245140
:10172400000A21E1FC0E05011A6F000E1B6F4E0E1C
:101734000401A86F6F0EA96F200EAA6F200EAB6F65
:10174400200EAC6F200EAD6F200EAE6FAF6BA80EE7
:1017540005011C6F040E1D6F070E1E6F000E1F6F18
:10176400FAEC00F022D00501FC0E1A6F000E1B6F7C
:10177400590E0401B06F650EB16F730EB26F200E77
:10178400B36F200EB46F200EB56F200EB66F200E0F
:10179400B76FB86BB00E05011C6F040E1D6F080EF9
:1017A4001E6F000E1F6FFAEC00F00001EE510F0ADD
:1017B40069E10B0E05011A6F010E1B6F3C0EF66EEC
:1017C400700EF76E000EF86EB90EE16E040EE26E46
:1017D400110E006E010E016ED8EC03F0B90E1C6FF1
:1017E400040E1D6F100E1E6F000E1F6FFAEC00F03A
:1017F400010E01011E6F02011B51000A21E1FC0EC2
:1018040005011A6F000E1B6F4E0E0401CA6F6F0E96
:10181400CB6F200ECC6F200ECD6F200ECE6F200E1E
:10182400CF6F200ED06FD16BCA0E05011C6F040E52
:101834001D6F070E1E6F000E1F6FFAEC00F022D012
:101844000501FC0E1A6F000E1B6F590E0401D26FB6
:10185400650ED36F730ED46F200ED56F200ED66F26
:10186400200ED76F200ED86F200ED96FDA6BD20EF0
:1018740005011C6F040E1D6F080E1E6F000E1F6FF6
:10188400FAEC00F00001EE51100A2BE10B0E0501F9
:101894001A6F010E1B6F5E0EF66E700EF76E000E61
:1018A400F86EDB0EE16E040EE26E110E006E010E98
:1018B400016ED8EC03F0DB0E1C6F040E1D6F100ECE
:1018C4001E6F000E1F6FFAEC00F0010E01011E6F77
:1018D4007EC10EF5FC0E05010F6F000E106F7CEC3F
:1018E40004F00001EE51110A22E10B0E05011A6FFA
:1018F400010E1B6F6F0EF66E700EF76E000EF86E13
:10190400EC0EE16E040EE26E110E006E010E016E1D
:10191400D8EC03F0EC0E1C6F040E1D6F100E1E6F3E
:10192400000E1F6FFAEC00F0010E01011E6F0001A2
:10193400EE51120A22E10B0E05011A6F010E1B6F04
:10194400800EF66E700EF76E000EF86EFD0EE16EF0
:10195400040EE26E110E006E010E016ED8EC03F05F
:10196400FD0E1C6F040E1D6F100E1E6F000E1F6FF8
:10197400FAEC00F0010E01011E6F650E0001ED6F1F
:0219840012004F
:1019860003016551000A04E06651000A01E002D035
:10199600F28801D0F29865C3CBF066C3DDF0120081
:1019A600140E0101626F140E696F140E776F140E18
:1019B600766F050E0001976F040E05011A6F41EC54
:1019C60003F00A0E01017A6F040E786F0A0E6B6F30
:1019D600040E756F0C0E7D6F7B6B7C6B02011B6BAF
:0E19E6000101256B246B7E6B18EC05F01200DE
:1019F40003016551010A17E166B102D0829201D058
:101A04008282060E0B6E130E0C6EAD0E0D6E0D2E35
:101A1400FED70C2EFCD70B2EFAD700000000010EC7
:101A24000001826F818603016551020A17E166B1E4
:101A340002D0829001D08280060E0B6E130E0C6EC3
:101A4400AD0E0D6E0D2EFED70C2EFCD70B2EFAD735
:0E1A540000000000010E0001836F8188120067
:101A620003016551010A04E10001816B01017191D9
:101A720003016551020A04E10001806B01017193C7
:021A8200120050
:101A84000301656B140E655D60E265C300F0000E32
:101A9400016E070E046E000E056EB0EC03F08A0EA4
:101AA4000026010E0122050E0024E96E000E01201D
:101AB400EA6EEE50000A31E165C300F0000E016EDB
:101AC400070E046E000E056EB0EC03F08A0E0024BF
:101AD400E96E010E0120EA6EEECF01F00150090A11
:101AE4001CE165C300F0000E016E070E046E000ECB
:101AF400056EB0EC03F08A0E0026010E0122010EE1
:101B04000024E96E000E0120EA6EEECF66F3EECFFC
:101B140067F3EECF68F3EECF69F365C300F0000E10
:101B2400016E070E046E000E056EB0EC03F08A0E13
:101B34000026010E0122050E0024E16E000E012094
:101B4400E26E010EE66E652B9DD70101075103017C
:0A1B5400665D006E00C065F312002C
:101B5E009E9665C3C9FFC7A401D0FDD79EB601D01E
:101B6E00FDD7C5BC02D0006A03D0C584020E006E3C
:021B7E00120053
:101B8000C26AC00EC212C18CC18E65C300F000369D
:101B9000009000360090003600900050C212C280C3
:101BA00077EC04F0C284C2A401D0FDD7C4CF01F009
:0E1BB000006AC3500012000E0112C290120013
:041BBE00C5841200C8
:101BC20001016D510301651905E101016D6B010E02
:101BD200006E120001016E510301651905E1010158
:101BE2006E6B010E006E120001016F510301651947
:101BF20005E101016F6B010E006E1200006A120016
:101C020083A003D083A201D003D0010E006E120084
:041C1200006A120052
:101C160002014B6B0001E0B103D002014B9102D0EF
:101C260002014B810001DEB103D002014B9302D0C9
:101C360002014B830001E06BDE6B4BC200F0120029
:101C46007FEC05F07C0E0301656F86DF800E0301D5
:101C5600656F82DF02014B51020A04E1380E03016F
:101C6600656F7ADF02014B51010A04E1340E03016C
:101C7600656F72DF800E0301656F6EDF02014B51E7
:101C8600020A04E1390E0301656F66DF02014B515A
:101C9600010A04E1350E0301656F5EDF800E030164
:101CA600656F5ADF1C0E0301656F56DF800E030158
:101CB600656F52DF720E0301656F4EDF800E030102
:101CC600656F4ADF550E0301656F46DF800E03011F
:101CD600656F42DF6C0E0301656F3EDF800E030108
:101CE600656F3ADF0C0E0301656F36DF800E030168
:101CF600656F32DF010E0301656F2EDF800E030173
:101D0600656F2ADF060E0301656F26DF800E03016D
:101D1600656F22DF020E0301656F1EDF4DDF1200C5
:101D2600010E0001F46F01016CA315D00001F46BE4
:101D3600F26B650EED6FEE51000A0DE101016A6B63
:101D46000001F351000A02E1C80EED6FF351010ADA
:101D560002E1C90EED6F0001EE51000A18E1010122
:101D66006CA109D00001F351000805E2F30742EC2B
:101D760008F0660EED6F01016CA509D0010E000199
:101D8600F35D05E2F32B42EC08F0660EED6F000101
:101D9600EE51010A16E101016CA108D0625100085A
:101DA60005E2620742EC08F0660EED6F01016CA5D4
:101DB60008D0FF0E625D05E2622B42EC08F0660E6B
:101DC600ED6F0001EE51020A16E101016CA108D087
:101DD6007751000805E2770742EC08F0660EED6FD2
:101DE60001016CA508D0FF0E775D05E2772B42EC6A
:101DF60008F0660EED6F0001EE51030A16E10101CF
:101E06006CA108D06951000805E2690742EC08F0A8
:101E1600660EED6F01016CA508D0FF0E695D05E247
:101E2600692B42EC08F0660EED6F0001EE51040AD4
:101E360016E101016CA108D07651000805E276078B
:101E460042EC08F0660EED6F01016CA508D0FF0E9E
:101E5600765D05E2762B42EC08F0660EED6F00012A
:101E6600EE51050A16E101016CA108D0785100086F
:101E760005E2780742EC08F0660EED6F01016CA5ED
:101E860008D0FF0E785D05E2782B42EC08F0660E6E
:101E9600ED6F0001EE51060A16E101016CA108D0B2
:101EA6007A51000805E27A0742EC08F0660EED6FFB
:101EB60001016CA508D0FF0E7A5D05E27A2B42EC93
:101EC60008F0660EED6F0001EE51070A16E10101FA
:101ED6006CA108D07551000805E2750742EC08F0C0
:101EE600660EED6F01016CA508D0FF0E755D05E26B
:101EF600752B42EC08F0660EED6F0001EE51080AF4
:101F060016E101016CA108D06B51000805E26B07D0
:101F160042EC08F0660EED6F01016CA508D0FF0ECD
:101F26006B5D05E26B2B42EC08F0660EED6F00016F
:101F3600EE51090A18E101016CA109D0000197517F
:101F4600000805E2970742EC08F0660EED6F010106
:101F56006CA509D0090E0001975D05E2972B42ECAE
:101F660008F0660EED6F0001EE510A0A16E1010156
:101F76006CA108D07D51000805E27D0742EC08F00F
:101F8600660EED6F01016CA508D0FF0E7D5D05E2C2
:101F96007D2B42EC08F0660EED6F0001EE510B0A48
:101FA60022E101016CA110D0000E006E7C51005C94
:101FB60002E17B51000808E2010E7B5F000E7C5BAC
:101FC60042EC08F0660EED6F01016CA50CD0FD0E1B
:101FD6007C5D02E1E80E7B5D06E27B4B7C2B42ECEE
:101FE60008F0660EED6F0001EE510C0A2CE1ED6B68
:101FF6000B0E05011A6F010E1B6F0F0EF66E760E95
:10200600F76E000EF86E4B0EE16E020EE26E110ECA
:10201600006E010E016ED8EC03F04B0E1C6F020E23
:102026001D6F100E1E6F000E1F6FFAEC00F0010EF2
:1020360001011C6F0001F46BF26B010E01011E6FB2
:10204600AFDC18EC05F00001EE510D0A16E10101B6
:102056006CA108D02551000805E2250742EC08F0DE
:10206600660EED6F01016CA508D0010E255D05E237
:10207600252B42EC08F0660EED6F0001EE510E0ABC
:1020860016E101016CA108D02451000805E22407DD
:1020960042EC08F0660EED6F01016CA508D0010E4A
:1020A600245D05E2242B42EC08F0660EED6F00017C
:1020B600EE510F0A18E101016CA109D002011B5172
:1020C600000805E21B0742EC08F0660EED6F010101
:1020D6006CA509D0010E02011B5D05E21B2B42EC2B
:1020E60008F0660EED6F0001EE51100A1FE10101C6
:1020F6006CA10CD07E51000809E27E077E51090AC8
:1021060001E17E6B42EC08F0660EED6F01016CA5F5
:102116000DD0FF0E7E5D0AE27E2B7E51010A02E1A2
:102126000A0E7E6F42EC08F0660EED6F0001EE516E
:10213600110A28E1670EED6F0B0E05011A6F010EED
:102146001B6F200EF66E760EF76E000EF86E5C0EA6
:10215600E16E020EE26E110E006E010E016ED8ECFB
:1021660003F05C0E1C6F020E1D6F100E1E6F000E2C
:102176001F6FFAEC00F00001F46B010E01011C6FF9
:10218600010E1E6F0001EE51120A29E1ED6B0B0ED6
:1021960005011A6F010E1B6F310EF66E760EF76E85
:1021A600000EF86E6D0EE16E020EE26E110E006EFE
:1021B600010E016ED8EC03F06D0E1C6F020E1D6F42
:1021C600100E1E6F000E1F6FFAEC00F00001F46B8C
:1021D600010E01011C6F010E1E6F13EC06F01200BA
:1021E60002014B6B83B801D04B8183BA01D04B837C
:0621F6004BC200F01200D4
:1021FC0002014C6B4D6B4E6B83BA02D04E8101D0F9
:10220C004E9184B002D04E8301D04E9383B802D04D
:10221C004E8501D04E954E51000A1DE10001DF5153
:10222C00000A09E101013C6B376B0001DF6B020115
:10223C004B6B01013D6B0001DF51010A0CE1050EF6
:10224C00E45D09E301013C6B376B0001DF6B0201BC
:10225C004B6B01013D6B01013751060802E3140E73
:10226C00366F3751060805E23751140802E30A0E9F
:10227C00366F3751140803E2050E366F02D00A0E82
:10228C00366F3C51010A0EE136510001E55D0AE35F
:10229C00010E01013D6F0001E56B190E0101375D67
:1022AC0001E2372B02014E51000A24E00001DF51FC
:1022BC00010A20E101013C51000A1CE1020E322509
:1022CC00016E000E3321026E000E3421036E000EDF
:1022DC003521046E0A51041808E10951031805E16F
:1022EC000851021802E10751011804E1010E3C6F7C
:1022FC000001E56B02014E51000A0AE00001DF51BA
:10230C00010A06E101013C51000A02E102014B6B9A
:10231C0002014E51000A0FE00001DF51010A0BE1EE
:10232C0001013C51010A07E102014E5101013D033B
:10233C00F3CF4BF23D6B02014E51000A11E000014C
:10234C00DF51000A0DE14EC24BF2010EDF6F07C1E7
:10235C0032F108C133F109C134F10AC135F1E46B32
:06236C004BC200F012005C
:10237200949894968B988B9694889486C79EC79CC3
:06238200380EC66E1200C9
:1023880002014C6B4D6B3F0E4B15026E02C04BF2B7
:10239800540E4C6F02C000F00032009E0032009EC6
:1023A8000032009E0032009E540E00104C6F700EDA
:1023B8004D6F0F0E0214006E700E00104D6F7FEC03
:1023C80005F07C0E0301656FAFEC0DF0800E030184
:1023D800656FAFEC0DF04CC265F3AFEC0DF0800EFD
:1023E8000301656FAFEC0DF04DC265F3AFEC0DF076
:1023F800DFEC0DF00D0E0C6EFB0E0D6E0D2EFED7E4
:0A2408000C2EFCD7000000001200AB
:1024120002014F6B506B4B51010A03E14C51800F8B
:10242200506F4B51020A03E14C51C00F506F7FECC9
:1024320005F07C0E0301656FAFEC0DF0800E030119
:10244200656FAFEC0DF050C265F3AFEC0DF0400ECE
:102452000301656FAFEC0DF002014F514D25E96E9E
:10246200000E4E21EA6EEE500A0A10E04F5110089B
:102472000DE34F514D25E96E000E4E21EA6EEECF6F
:1024820065F3AFEC0DF002014F2BE6D7DFEC0DF058
:102492000D0E0C6EFB0E0D6E0D2EFED70C2EFCD704
:0624A20000000000120022
:1024A800680E01012E6F010E2F6F210E306F050E81
:1024B800316FFF0E2A6FFF0E2B6F000E2C6F000E70
:1024C8002D6FFF0E5C6FFF0E5D6F000E5E6F000ECE
:1024D8005F6FFF0E586FFF0E596F000E5A6F000E98
:1024E8005B6FAC8A900EAB6E948E949C9EAA03D0C0
:0824F800AECF00F0FBD712008B
:1025000001016CA10AD00001EE51000A03E1120E94
:10251000EE6F01D0EE07640EED6F01016CA509D0DE
:102520000001EE51120A02E1EE6B01D0EE2B640EB7
:10253000ED6F01016CA303D0660E0001ED6F120078
:10254000020E0201816F839E01017051000A09E1B0
:10255000090E0301656FE1EC0DF00050010A01E086
:10256000B9D3090E0301656FF8EC07F0010176514C
:10257000000A04E01F51010A01E03FD1020181512C
:1025800001010725006E000E0821016E000E0921D1
:10259000026E000E0A21036E00C01CF201C01DF283
:1025A00002C01EF203C01FF200C065F301C066F353
:1025B00002C067F303C068F3010E0301696FA0EC6A
:1025C00005F001017551000A11E01CC265F31DC23E
:1025D00066F31EC267F31FC268F3070E0301696F3B
:1025E000A0EC05F0010E01011D6F0FD01CC265F3B8
:1025F0001DC266F31EC267F31FC268F3050E030116
:10260000696FA0EC05F001011D6B75510725006E87
:10261000000E0821016E000E0921026E000E0A2133
:10262000036E020E0026000E012202220322020186
:1026300081510026000E01220222032200C01CF25A
:1026400001C01DF202C01EF203C01FF200C065F3FC
:1026500001C066F302C067F303C068F30A0E03010A
:10266000696FA0EC05F0010175510725006E000EA1
:102670000821016E000E0921026E000E0A21036E70
:10268000020181510026000E01220222032200C015
:102690001CF201C01DF202C01EF203C01FF200C0F6
:1026A00065F301C066F302C067F303C068F3050E6B
:1026B0000301696FA0EC05F001016B51000A2EE0E7
:1026C00069510725006E000E0821016E000E0921D8
:1026D000026E000E0A21036E6B51005E000E015A5D
:1026E000025A035A020181510026000E01220222E1
:1026F000032200C01CF201C01DF202C01EF203C082
:102700001FF200C065F301C066F302C067F303C0A7
:1027100068F3070E0301696FA0EC05F002011B517D
:10272000000A42E0010169510725006E000E0821F0
:10273000016E000E0921026E000E0A21036E0201D5
:1027400081510026000E01220222032200C01CF249
:1027500001C01DF202C01EF203C01FF200C065F3EB
:1027600001C066F302C067F303C068F3050E0301FE
:10277000696FA0EC05F0030E02011C250301656FD3
:10278000000E02011D210301666F000E02011E21D1
:102790000301676F000E02011F210301686F030E22
:1027A000696FA0EC05F029D0010169510725006E81
:1027B000000E0821016E000E0921026E000E0A2192
:1027C000036E020181510026000E01220222032223
:1027D00000C01CF201C01DF202C01EF203C01FF2B5
:1027E00000C065F301C066F302C067F303C068F37D
:1027F000030E0301696FA0EC05F001017651000A98
:10280000D8B461D21F51020AD8A45DD2020181510D
:1028100001010725006E000E0821016E000E09213E
:10282000026E000E0A21036E00C01CF201C01DF2F0
:1028300002C01EF203C01FF200C065F301C066F3C0
:1028400002C067F303C068F3020E0301696FA0ECD6
:1028500005F001017551000A11E01CC265F31DC2AB
:1028600066F31EC267F31FC268F3080E0301696FA7
:10287000A0EC05F0010E0001F56F0FD01CC265F34E
:102880001DC266F31EC267F31FC268F3060E030182
:10289000696FA0EC05F00001F56B0101755107258A
:1028A000006E000E0821016E000E0921026E000E5E
:1028B0000A21036E020E0026000E012202220322CC
:1028C000020181510026000E01220222032200C0D3
:1028D0001CF201C01DF202C01EF203C01FF200C0B4
:1028E00065F301C066F302C067F303C068F30B0E23
:1028F0000301696FA0EC05F0010175510725006E19
:10290000000E0821016E000E0921026E000E0A2140
:10291000036E020181510026000E012202220322D1
:1029200000C01CF201C01DF202C01EF203C01FF263
:1029300000C065F301C066F302C067F303C068F32B
:10294000060E0301696FA0EC05F001016B51000A4E
:102950002EE076510725006E000E0821016E000E54
:102960000921026E000E0A21036E6B51005E000EFB
:10297000015A025A035A020181510026000E012217
:102980000222032200C01CF201C01DF202C01EF28E
:1029900003C01FF200C065F301C066F302C067F315
:1029A00003C068F3080E0301696FA0EC05F0010194
:1029B00076510725006E000E0821016E000E0921D8
:1029C000026E000E0A21036E020181510026000EE4
:1029D00001220222032200C01CF201C01DF202C02B
:1029E0001EF203C01FF200C065F301C066F302C00F
:1029F00067F303C068F3040E0301696FA0EC05F0F0
:102A000001017D510725006E000E0821016E000EA8
:102A10000921026E000E0A21036E02018151002677
:102A2000000E01220222032200C01CF201C01DF28E
:102A300002C01EF203C01FF200C065F301C066F3BE
:102A400002C067F303C068F3010E0301696FA0ECD5
:102A500005F001017551000A11E01CC265F31DC2A9
:102A600066F31EC267F31FC268F3070E0301696FA6
:102A7000A0EC05F0010E01011D6F0FD01CC265F323
:102A80001DC266F31EC267F31FC268F3050E030181
:102A9000696FA0EC05F001011D6B7D510725006EEB
:102AA000000E0821016E000E0921026E000E0A219F
:102AB000036E75510026000E012202220322020E2F
:102AC0000026000E0122022203220201815100266B
:102AD000000E01220222032200C01CF201C01DF2DE
:102AE00002C01EF203C01FF200C065F301C066F30E
:102AF00002C067F303C068F30A0E0301696FA0EC1C
:102B000005F001017D510725006E000E0821016EC0
:102B1000000E0921026E000E0A21036E7551002677
:102B2000000E012202220322020181510026000E22
:102B300001220222032200C01CF201C01DF202C0C9
:102B40001EF203C01FF200C065F301C066F302C0AD
:102B500067F303C068F3050E0301696FA0EC05F08D
:102B600001016B51000A34E07D510725006E000E13
:102B70000821016E000E0921026E000E0A21036E6B
:102B800069510026000E0122022203226B51005ED1
:102B9000000E015A025A035A020181510026000E0A
:102BA00001220222032200C01CF201C01DF202C059
:102BB0001EF203C01FF200C065F301C066F302C03D
:102BC00067F303C068F3070E0301696FA0EC05F01B
:102BD00002011B51000A48E0010169510725006EFE
:102BE000000E0821016E000E0921026E000E0A215E
:102BF000036E7D510026000E0122022203220201F3
:102C000081510026000E01220222032200C01CF284
:102C100001C01DF202C01EF203C01FF200C065F326
:102C200001C066F302C067F303C068F3050E030139
:102C3000696FA0EC05F0030E02011C250301656F0E
:102C4000000E02011D210301666F000E02011E210C
:102C50000301676F000E02011F210301686F030E5D
:102C6000696FA0EC05F02FD0010169510725006EB6
:102C7000000E0821016E000E0921026E000E0A21CD
:102C8000036E7D510026000E012202220322020162
:102C900081510026000E01220222032200C01CF2F4
:102CA00001C01DF202C01EF203C01FF200C065F396
:102CB00001C066F302C067F303C068F3030E0301AB
:102CC000696FA0EC05F0030E0001F16FEA6BEB6B8E
:102CD000040EED6F010172A126D0000E7C1902E1F5
:102CE000000E7B1920E00001EF51000A1CE1010EEB
:102CF000EF6F42EC0DF000C0F0F0D80EF66E750EDE
:102D0000F76E000EF86E4B0EE16E020EE26E160EBE
:102D1000006E010E016ED8EC03F04B0E656F020ED3
:102D2000666F33EC07F00001EF51010AD8A4B1D06F
:102D3000010172B1AED0000E7C1902E1000E7B19C8
:102D4000D8B4A7D07E51000A53E10001F05101012F
:102D50000725006E000E0821016E000E0921026E8B
:102D6000000E0A21036E00C01CF201C01DF202C059
:102D70001EF203C01FF200C065F301C066F302C07B
:102D800067F303C068F3090E0301696FA0EC05F057
:102D90000001EF6B1CC20EF51DC20FF51EC210F52F
:102DA0001FC211F57F0E0501126F010E136FE0ECCB
:102DB00003F0EE0EF66E750EF76E000EF86E610EF5
:102DC000E16E020EE26E100E006E010E016ED8EC86
:102DD00003F0610E0301656F020E666F33EC07F0BE
:102DE0007F0E0301656F010E666F33EC07F051D063
:102DF00001017E510725006E000E0821016E000EB4
:102E00000921026E000E0A21036E00C01CF201C0EF
:102E10001DF202C01EF203C01FF200C065F301C024
:102E200066F302C067F303C068F3090E0301696F1C
:102E3000A0EC05F00001EF6B1CC20EF51DC20FF5F2
:102E40001EC210F51FC211F57F0E0501126F010E93
:102E5000136FE0EC03F0FE0EF66E750EF76E000ECB
:102E6000F86E710EE16E020EE26E100E006E010E33
:102E7000016ED8EC03F0710E0301656F020E666FF0
:102E800033EC07F07F0E0301656F010E666F33ECC4
:042E900007F0120035
:102E940002014F6B0301656BC0EC0DF000C04BF2F7
:102EA40001C04CF2010E0301656FC0EC0DF000C0CF
:102EB4004DF201C04EF2010E01011E6F0001CB5113
:102EC400000A16E00101615102014C5D04E10101B7
:102ED400605102014B5D06E2FF0E0001815D01E2DB
:102EE400812B05D000018151000801E2810701D046
:102EF400816B815101013E5D02E202014F810001BB
:102F0400DD51000A16E00101615102014E5D04E148
:102F14000101605102014D5D06E2FF0E0001805D7A
:102F240001E2802B05D000018051000801E28007F6
:102F340001D0806B805101013E5D02E202014F83AA
:062F44004FC200F0120074
:102F4A00A2D2838E010170A104D06A2B020E020163
:102F5A00166F010170A305D0030E6A6F010E0201FC
:102F6A00166FEAD2020E0301656F666BFAEC0CF07B
:102F7A00040E010107250301656F000E01010821F6
:102F8A000301666F000E010109210301676F000E3C
:102F9A0001010A210301686F150E696FA0EC05F0A3
:102FAA0001016A2B0001EB6BC7D2010171A30CD09E
:102FBA000001EB51010A08E1EB6B020E0301656F98
:102FCA00E9EC07F001016A2B150E0301656FE1ECCC
:102FDA000DF0005203E0010E0001EB6FADD2010EBD
:102FEA000301656F666BFAEC0CF0040E010107250C
:102FFA000301656F000E010108210301666F000ECF
:10300A00010109210301676F000E01010A21030171
:10301A00686F140E696FA0EC05F001016A2B0001BC
:10302A00EA6B010171A10CD00001EA51010A08E121
:10303A00EA6B010E0301656FE9EC07F001016A2BE7
:10304A00140E0301656FE1EC0DF0005203E0010E6E
:10305A000001EA6F71D201017051000A19E007C13B
:10306A0026F108C127F109C128F10AC129F1010E87
:10307A000301656F010E666FFAEC0CF00301656BD4
:10308A00DDC066F3C3EC0CF0010E01011D6F6A2B63
:10309A0053D27051000A12E06A2B07C120F108C10D
:1030AA0021F109C122F10AC123F1010E0301656F61
:1030BA00DDC066F3C3EC0CF001011D6B3DD270510B
:1030CA00000A12E06A2B07C164F108C165F109C15F
:1030DA0066F10AC167F10301656BDDC066F3C3ECF3
:1030EA000CF0010E01011D6F27D27051000A2AE06F
:1030FA0002011651020A03E101016A2B03D0010100
:10310A00110E6A6F07C117F208C118F209C119F244
:10311A000AC11AF2010E0301656FE9EC07F0010119
:10312A0026510201175D006E00C04DF101012651C2
:10313A00205D006E00C050F164510201175D006EFF
:10314A0000C051F1F9D101017051000A1AE007C11A
:10315A0026F108C127F109C128F10AC129F1020E95
:10316A000301656F010E666FFAEC0CF0CBC065F3D4
:10317A000301666BC3EC0CF0010E0001F56F01014F
:10318A006A2BDAD17051000A12E06A2B07C120F1CA
:10319A0008C121F109C122F10AC123F1CBC065F3AB
:1031AA00010E0301666FC3EC0CF00001F56BC4D18C
:1031BA0001017051000A12E06A2B07C164F108C1CB
:1031CA0065F109C166F10AC167F1CBC065F3030174
:1031DA00666BC3EC0CF0010E0001F56FADD1010175
:1031EA007051000A21E06A2B07C117F208C118F2D0
:1031FA0009C119F20AC11AF2020E0301656FE9EC5C
:10320A0007F0010126510201175D006E00C04FF15F
:10321A0001012651205D006E00C054F16451020183
:10322A00175D006E00C055F187D101017051000A87
:10323A0019E007C126F108C127F109C128F10AC11D
:10324A0029F1020E0301656F666BFAEC0CF0CBC034
:10325A0065F30301666BC3EC0CF0010E0001F56F18
:10326A0001016A2B69D17051000A12E06A2B07C169
:10327A0020F108C121F109C122F10AC123F1CBC011
:10328A0065F3010E0301666FC3EC0CF00001F56BE8
:10329A0053D101017051000A12E06A2B07C164F18F
:1032AA0008C165F109C166F10AC167F1CBC065F3CE
:1032BA000301666BC3EC0CF0010E0001F56F3CD103
:1032CA0001017051000A21E06A2B07C117F208C1F7
:1032DA0018F209C119F20AC11AF2020E0301656F46
:1032EA00E9EC07F0010126510201175D006E00C0EA
:1032FA004EF101012651205D006E00C056F1645165
:10330A000201175D006E00C057F116D1010170511C
:10331A00000A18E007C126F108C127F109C128F1FE
:10332A000AC129F1010E0301656F666BFAEC0CF014
:10333A000301656BDDC066F3C3EC0CF0010E0101FD
:10334A001D6F6A2BF9D07051000A12E06A2B07C16F
:10335A0020F108C121F109C122F10AC123F1010EAC
:10336A000301656FDDC066F3C3EC0CF001011D6B50
:10337A00E3D07051000A12E06A2B07C164F108C158
:10338A0065F109C166F10AC167F10301656BDDC028
:10339A0066F3C3EC0CF0010E01011D6FCDD0705124
:1033AA00000A21E06A2B07C117F208C118F209C105
:1033BA0019F20AC11AF2010E0301656FE9EC07F06E
:1033CA00010126510201175D006E00C04CF1010196
:1033DA002651205D006E00C052F164510201175D52
:1033EA00006E00C053F1A8D04C0E0301656F010EA8
:1033FA00666F16C267F375EC06F00B0E05011A6FBD
:10340A00010E1B6F420EF66E760EF76E000EF86E08
:10341A004B0EE16E020EE26E110E006E010E016E8F
:10342A00D8EC03F04B0E1C6F020E1D6F100E1E6FB0
:10343A00000E1F6FFAEC00F0F60E1A6F000E1B6FEB
:10344A00530EF66E760EF76E000EF86E5C0EE16E97
:10345A00020EE26E110E006E010E016ED8EC03F040
:10346A005C0E1C6F020E1D6F100E1E6F000E1F6F7A
:10347A00FAEC00F0020E01011C6F010E1E6F839E12
:10348A000001ED6B59D001016A51000AD8B459D52F
:10349A006A51010AD8B466D56A51020AD8B485D5E8
:1034AA006A51030AD8B49BD56A51040AD8B4B9D56B
:1034BA006A51050AD8B4CFD56A51060AD8B4E9D5F3
:1034CA006A51070AD8B4FBD56A51080AD8B40DD68E
:1034DA006A51090AD8B437D66A510A0AD8B452D6F8
:1034EA006A510B0AD8B464D66A510C0AD8B477D692
:1034FA006A510D0AD8B499D66A510E0AD8B4B3D60D
:10350A006A510F0AD8B4C5D66A51100AD8B4D8D6A7
:10351A006A51110AD8B4FAD66A51120AD8B413D722
:10352A006A51130AD8B425D76A51140AD8B437D7BE
:0A353A006A51150AD8B458D71200E0
:0A35440018EC05F00001ED6B120019
:10354E00FDD1838E010170A103D0020E3F6F6A2B55
:10355E0070A304D0010E3F6F030E6A6F0001EA6B79
:10356E00EB6B25D2020E0301656F666BFAEC0CF065
:10357E00040E010107250301656F000E01010821EC
:10358E000301666F000E010109210301676F000E32
:10359E0001010A210301686F150E696FA0EC05F099
:1035AE0001016A2B04D271A30CD00001EB51010A68
:1035BE0008E1EB6B020E0301656FE9EC07F0010108
:1035CE006A2B150E0301656FE1EC0DF0005203E05E
:1035DE00010E0001EB6FEBD1010E0301656F666BFF
:1035EE00FAEC0CF0040E010107250301656F000EC5
:1035FE00010108210301666F000E0101092103017B
:10360E00676F000E01010A210301686F140E696FC6
:10361E00A0EC05F001016A2B71A10CD00001EA515A
:10362E00010A08E1EA6B010E0301656FE9EC07F090
:10363E0001016A2B140E0301656FE1EC0DF00052CF
:10364E0003E0010E0001EA6FB2D107C138F108C1E3
:10365E0039F109C13AF10AC13BF1010E0301656F5F
:10366E00010E666FFAEC0CF0040E01010725030142
:10367E00656F000E010108210301666F000E010146
:10368E0009210301676F000E01010A210301686F12
:10369E00140E696FA0EC05F001016A2B88D171A19F
:1036AE0017D00001EA51010A13E1EA6B010E030182
:1036BE00656FE9EC07F001013F51010A03E10B0EC2
:1036CE006A6F01D06A2B3851075D006E00C041F160
:1036DE00140E0301656FE1EC0DF0005203E0010ED4
:1036EE000001EA6F64D107C138F108C139F109C18F
:1036FE003AF10AC13BF1020E0301656F010E666FCE
:10370E00FAEC0CF0040E010107250301656F000EA3
:10371E00010108210301666F000E01010921030159
:10372E00676F000E01010A210301686F150E696FA4
:10373E00A0EC05F001016A2B3AD171A311D0000162
:10374E00EB51010A0DE1EB6B020E0301656FE9EC23
:10375E0007F001016A2B3851075D006E00C043F17E
:10376E00150E0301656FE1EC0DF0005203E0010E42
:10377E000001EB6F1CD107C138F108C139F109C145
:10378E003AF10AC13BF1020E0301656F666BFAEC6A
:10379E000CF0040E010107250301656F000E0101F7
:1037AE0008210301666F000E010109210301676FF5
:1037BE00000E01010A210301686F150E696FA0EC5E
:1037CE0005F001016A2BF3D071A311D00001EB516A
:1037DE00010A0DE1EB6B020E0301656FE9EC07F0D8
:1037EE0001016A2B3851075D006E00C042F1150EC3
:1037FE000301656FE1EC0DF0005203E0010E0001D4
:10380E00EB6FD5D007C138F108C139F109C13AF1D2
:10381E000AC13BF1010E0301656F666BFAEC0CF009
:10382E00040E010107250301656F000E0101082139
:10383E000301666F000E010109210301676F000E7F
:10384E0001010A210301686F140E696FA0EC05F0E7
:10385E0001016A2BACD071A111D00001EA51010A0D
:10386E000DE1EA6B010E0301656FE9EC07F0010152
:10387E006A2B3851075D006E00C040F1140E030133
:10388E00656FE1EC0DF0005203E0010E0001EA6FEE
:10389E008ED0400E0301656F010E666F61EC07F06E
:1038AE00400E656F010E666F3FC167F375EC06F053
:1038BE000B0E05011A6F010E1B6F640EF66E760E5F
:1038CE00F76E000EF86E4B0EE16E020EE26E110EEA
:1038DE00006E010E016ED8EC03F04B0E1C6F020E43
:1038EE001D6F100E1E6F000E1F6FFAEC00F0F60E1D
:1038FE001A6F000E1B6F750EF66E760EF76E000EBB
:10390E00F86E5C0EE16E020EE26E110E006E010E8E
:10391E00016ED8EC03F05C0E1C6F020E1D6F100EC4
:10392E001E6F000E1F6FFAEC00F0020E01011C6FED
:10393E00010E1E6F839E0001ED6B39D001016A519D
:10394E00000AD8B4FED56A51010AD8B40BD66A5112
:10395E00020AD8B428D66A51030AD8B43DD66A51A1
:10396E00040AD8B459D66A51050AD8B46ED66A512B
:10397E00060AD8B494D66A51070AD8B4B4D66A5196
:10398E00080AD8B4DAD66A51090AD8B4F4D66A51FC
:10399E000A0AD8B419D76A510B0AD8B433D76A5168
:1039AE000C0AD8B458D76A510D0AD8B472D712007F
:1039BE00838E6DC11AF50B0E05011B6F010E1C6F68
:1039CE00EDEC02F06EC11AF5F60E1B6F000E1C6FB9
:1039DE00EDEC02F0010E01011E6F010E0301656F89
:1039EE00E1EC0DF000524DE0010E0301656F666BC8
:1039FE00FAEC0CF0530E02014B6F340E4C6F200E8E
:103A0E004D6F4D0E4E6F6F0E4F6F740E506F6F0EDB
:103A1E00516F720E526F310E536F530E546F740EF0
:103A2E00556F610E566F720E576F740E586F596B3D
:103A3E004B0E0301656F020E666F33EC07F00B0E33
:103A4E0005011A6F010E1B6F980E1C6F000E1D6F75
:103A5E00100E1E6F000E1F6FFAEC00F0F60E1A6FAE
:103A6E00000E1B6FCC0E1C6F000E1D6F100E1E6F06
:103A7E00000E1F6FFAEC00F0010E01011E6F010E19
:103A8E001C6F020E0301656FE1EC0DF000522BE08E
:103A9E00020E0301656F666BFAEC0CF0530E020119
:103AAE005A6F340E5B6F200E5C6F4D0E5D6F6F0E96
:103ABE005E6F740E5F6F6F0E606F720E616F320EFF
:103ACE00626F530E636F740E646F610E656F720ECC
:103ADE00666F740E676F686B5A0E0301656F020E88
:103AEE00666F33EC07F00A0E0301656FE1EC0DF023
:103AFE0000521FE0010E0001EA6F010E0301656F17
:103B0E0031EC0DF0C90EF66E710EF76E000EF86EFA
:103B1E00690EE16E020EE26E150E006E010E016E62
:103B2E00D8EC03F0690E0301656F020E666F33EC7D
:103B3E0007F00B0E0301656FE1EC0DF000521FE074
:103B4E00010E0001EB6F020E0301656F31EC0DF0FB
:103B5E00DE0EF66E710EF76E000EF86E7E0EE16ED4
:103B6E00020EE26E150E006E010E016ED8EC03F021
:103B7E007E0E0301656F020E666F33EC07F0050EC5
:103B8E000301656FE1EC0DF0005230E0010E030110
:103B9E00656FDDC066F3C3EC0CF00001EA6B01014A
:103BAE001D6B530E0201936F340E946F200E956FA2
:103BBE004D0E966F310E976F200E986F530E996FB4
:103BCE00700E9A6F650E9B6F650E9C6F640E9D6FE7
:103BDE00200E9E6F550E9F6F500EA06FA16B930E11
:103BEE000301656F020E666F33EC07F0070E0301DB
:103BFE00656FE1EC0DF0005222E00301656BDDC054
:103C0E0066F3C3EC0CF00001EB6B010E01011D6FAE
:103C1E00020EF66E720EF76E000EF86EA20EE16ECA
:103C2E00020EE26E110E006E010E016ED8EC03F064
:103C3E00A20E0301656F020E666F33EC07F0060EDF
:103C4E000301656FE1EC0DF000522EE0CBC065F381
:103C5E00010E0301666FC3EC0CF00001F56B530E01
:103C6E000201B36F340EB46F200EB56F4D0EB66FEA
:103C7E00320EB76F200EB86F530EB96F700EBA6F4B
:103C8E00650EBB6F650EBC6F640EBD6F200EBE6FF2
:103C9E00550EBF6F500EC06FC16BB30E0301656F33
:103CAE00020E666F33EC07F0080E0301656FE1EC50
:103CBE000DF0005220E0CBC065F30301666BC3EC40
:103CCE000CF0010E0001F56F220EF66E720EF76EFD
:103CDE00000EF86EC20EE16E020EE26E110E006E56
:103CEE00010E016ED8EC03F0C20E0301656F020ED9
:103CFE00666F33EC07F0030E0301656FE1EC0DF018
:103D0E00005228E00001F191010E0301656FE9EC0C
:103D1E0007F0530E0201D36F340ED46F200ED56F01
:103D2E004D0ED66F310ED76F200ED86F530ED96F42
:103D3E00740EDA6F6F0EDB6F700EDC6F650EDD6F5B
:103D4E00640EDE6FDF6BD30E0301656F020E666FBE
:103D5E0033EC07F0040E0301656FE1EC0DF0005239
:103D6E0028E00001F193020E0301656FE9EC07F004
:103D7E00530E0201E06F340EE16F200EE26F4D0E16
:103D8E00E36F320EE46F200EE56F530EE66F740E86
:103D9E00E76F6F0EE86F700EE96F650EEA6F640ED7
:103DAE00EB6FEC6BE00E0301656F020E666F33EC8A
:103DBE0007F00001EA51010A53E1010171A150D04F
:103DCE001D51000A4DE1010E0301656FE9EC07F08C
:103DDE00020E0301656FE9EC07F0060E0001ED6FB0
:103DEE00EA6BEB6B4D0EF66E720EF76E000EF86E02
:103DFE00ED0EE16E020EE26E110E006E010E016E00
:103E0E00D8EC03F0ED0E0301656F020E666F33EC16
:103E1E0007F0090E0301656FF8EC07F00B0E0501B4
:103E2E001A6F010E1B6FA90E1C6F000E1D6F100E68
:103E3E001E6F000E1F6FFAEC00F0F60E1A6F000EDA
:103E4E001B6FBA0E1C6F000E1D6F100E1E6F000E34
:103E5E001F6FFAEC00F0010E01011E6F020E1C6FB7
:103E6E000001EB51010A54E1010171A351D000018F
:103E7E00F551000A4DE1010E0301656FE9EC07F003
:103E8E00020E0301656FE9EC07F0060E0001ED6FFF
:103E9E00EA6BEB6B5E0EF66E720EF76E000EF86E40
:103EAE00FE0EE16E020EE26E110E006E010E016E3E
:103EBE00D8EC03F0FE0E0301656F020E666F33EC55
:103ECE0007F0090E0301656FF8EC07F00B0E050104
:103EDE001A6F010E1B6FA90E1C6F000E1D6F100EB8
:103EEE001E6F000E1F6FFAEC00F0F60E1A6F000E2A
:103EFE001B6FBA0E1C6F000E1D6F100E1E6F000E84
:103F0E001F6FFAEC00F0010E01011E6F020E1C6F06
:103F1E0001017751000A04E01F51010A01E002D0AD
:103F2E000001F193010172A14FD0010E0301656FE3
:103F3E00E9EC07F0020E0301656FE9EC07F00001F2
:103F4E00EA6BEB6B060EED6F010E956F6F0EF66E54
:103F5E00720EF76E000EF86E0F0EE16E030EE26E2D
:103F6E00110E006E010E016ED8EC03F00F0E030160
:103F7E00656F030E666F33EC07F0090E0301656F74
:103F8E00F8EC07F00B0E05011A6F010E1B6FA90E50
:103F9E001C6F000E1D6F100E1E6F000E1F6FFAECC1
:103FAE0000F0F60E1A6F000E1B6F840E1C6F000EC3
:103FBE001D6F100E1E6F000E1F6FFAEC00F0010E3B
:103FCE0001011E6F020E1C6F7351010A4FE1245343
:103FDE004DE0010E0301656FE9EC07F0020E0301DF
:103FEE00656FE9EC07F0060E0001ED6FEA6BEB6B07
:103FFE00800EF66E720EF76E000EF86E200EE16EEB
:10400E00030EE26E150E006E010E016ED8EC03F07B
:10401E00200E0301656F030E666F33EC07F0090E79
:10402E000301656FF8EC07F00B0E05011A6F010E18
:10403E001B6FA90E1C6F000E1D6F100E1E6F000E53
:10404E001F6FFAEC00F0F60E1A6F000E1B6F4D0E7E
:10405E001C6F000E1D6F100E1E6F000E1F6FFAEC00
:10406E0000F0010E01011E6F020E1C6F7051000A4E
:10407E004DE0010E0301656FE9EC07F0020E03013E
:10408E00656FE9EC07F0060E0001ED6FEA6BEB6B66
:10409E00950EF66E720EF76E000EF86E350EE16E20
:1040AE00030EE26E120E006E010E016ED8EC03F0DE
:1040BE00350E0301656F030E666F33EC07F0090EC4
:1040CE000301656FF8EC07F00B0E05011A6F010E78
:1040DE001B6FA90E1C6F000E1D6F100E1E6F000EB3
:1040EE001F6FFAEC00F0F60E1A6F000E1B6F5E0ECD
:1040FE001C6F000E1D6F100E1E6F000E1F6FFAEC60
:10410E0000F0010E01011E6F020E1C6F0001F15135
:10411E00000A2AE1010EED6FEF6B090E0301656FC8
:10412E00F8EC07F00B0E05011A6F010E1B6F3C0E1B
:10413E001C6F000E1D6F100E1E6F000E1F6FFAEC1F
:10414E0000F0F60E1A6F000E1B6FCC0E1C6F000ED9
:10415E001D6F100E1E6F000E1F6FFAEC00F0010E99
:10416E0001011E6F010E1C6F0001ED51050A04E0E6
:10417E00ED51060A01E04CD00301656BF8EC07F037
:10418E00000E01017C1902E1000E7B1941E07B510A
:10419E0007250301656F01017C5108210301666F3C
:1041AE00000E010109210301676F000E01010A21B2
:1041BE000301686F090E696FA0EC05F0A70EF66E8D
:1041CE00720EF76E000EF86E470EE16E030EE26E83
:1041DE00150E006E010E016ED8EC03F0470E656FE2
:1041EE00030E666F33EC07F0F60E05011A6F000E24
:1041FE001B6F1A0E1C6F000E1D6F100E1E6F000E21
:10420E001F6FFAEC00F0010E01011E6F020E1C6F03
:02421E0012008C
:10422000020E0201816F839E01017051000A09E1B3
:10423000090E0301656FE1EC0DF00050010A01E089
:10424000D9D101017651000A04E01F51010A01E0B1
:1042500087D0090E0301656FF8EC07F00201815168
:1042600001010725006E000E0821016E000E0921D4
:10427000026E000E0A21036E00C01CF201C01DF286
:1042800002C01EF203C01FF200C065F301C066F356
:1042900002C067F303C068F3010E0301696FA0EC6D
:1042A00005F01CC265F31DC266F31EC267F31FC290
:1042B00068F3050E696FA0EC05F001011D6B020E9D
:1042C0000725006E000E0821016E000E0921026E06
:1042D000000E0A21036E020181510026000E012208
:1042E0000222032200C01CF201C01DF202C01EF215
:1042F00003C01FF200C065F301C066F302C067F39C
:1043000003C068F30A0E0301696FA0EC05F0010118
:1043100069510725006E000E0821016E000E09216B
:10432000026E000E0A21036E020181510026000E6A
:1043300001220222032200C01CF201C01DF202C0B1
:104340001EF203C01FF200C065F301C066F302C095
:1043500067F303C068F3030E0301696FA0EC05F077
:1043600001017651000AD8B43ED11F51020AD8A4E7
:104370003AD1090E0301656FF8EC07F00201815193
:1043800001010725006E000E0821016E000E0921B3
:10439000026E000E0A21036E00C01CF201C01DF265
:1043A00002C01EF203C01FF200C065F301C066F335
:1043B00002C067F303C068F3020E0301696FA0EC4B
:1043C00005F01CC265F31DC266F31EC267F31FC26F
:1043D00068F3060E696FA0EC05F001011D6B020E7B
:1043E0000725006E000E0821016E000E0921026EE5
:1043F000000E0A21036E020181510026000E0122E7
:104400000222032200C01CF201C01DF202C01EF2F3
:1044100003C01FF200C065F301C066F302C067F37A
:1044200003C068F30B0E0301696FA0EC05F00101F6
:1044300069510725006E000E0821016E000E09214A
:10444000026E000E0A21036E020181510026000E49
:1044500001220222032200C01CF201C01DF202C090
:104460001EF203C01FF200C065F301C066F302C074
:1044700067F303C068F3040E0301696FA0EC05F055
:1044800001017D510725006E000E0821016E000E0E
:104490000921026E000E0A21036E020181510026DD
:1044A000000E01220222032200C01CF201C01DF2F4
:1044B00002C01EF203C01FF200C065F301C066F324
:1044C00002C067F303C068F3010E0301696FA0EC3B
:1044D00005F001017D510725006E000E0821016ED7
:1044E000000E0921026E000E0A21036E02018151A5
:1044F0000026000E01220222032200C01CF201C08D
:104500001DF202C01EF203C01FF200C065F301C01D
:1045100066F302C067F303C068F3050E0301696F19
:10452000A0EC05F00001F56B01017D510725006E3F
:10453000000E0821016E000E0921026E000E0A21F4
:10454000036E020E0026000E012202220322020147
:1045500081510026000E01220222032200C01CF21B
:1045600001C01DF202C01EF203C01FF200C065F3BD
:1045700001C066F302C067F303C068F30A0E0301CB
:10458000696FA0EC05F0010176510725006E000E61
:104590000821016E000E0921026E000E0A21036E31
:1045A000020181510026000E012202220322010194
:1045B0007D510026000E01220222032200C01CF2BF
:1045C00001C01DF202C01EF203C01FF200C065F35D
:1045D00001C066F302C067F303C068F3030E030172
:1045E000696FA0EC05F0030E0001F16FEA6BEB6B55
:1045F000070EED6F010172A126D0000E7C1902E1B9
:10460000000E7B1920E00001EF51000A1CE1010EB1
:10461000EF6F42EC0DF000C0F0F0A10EF66E750EDB
:10462000F76E000EF86E4B0EE16E020EE26E160E85
:10463000006E010E016ED8EC03F04B0E656F020E9A
:10464000666F33EC07F00001EF51010A5BE10101F5
:1046500072B158D0000E7C1902E1000E7B1952E0B5
:104660000001F05101010725006E000E0821016EC6
:10467000000E0921026E000E0A21036E00C01CF21A
:1046800001C01DF202C01EF203C01FF200C065F39C
:1046900001C066F302C067F303C068F3090E0301AB
:1046A000696FA0EC05F00001EF6B1CC20EF51DC296
:1046B0000FF51EC210F51FC211F57F0E0501126F16
:1046C000010E136FE0EC03F0B70EF66E750EF76E89
:1046D000000EF86E610EE16E020EE26E100E006EBC
:1046E000010E016ED8EC03F0610E0301656F020E3E
:1046F000666F33EC07F07F0E0301656F010E666F86
:0647000033EC07F012008B
:10470600030E0201816F839E01017051000A04E1CC
:104716000001955301E142D10001956B838E090E8C
:104726000301656FF8EC07F0010E0101072503018F
:10473600656F000E010108210301666F000E01017D
:1047460009210301676F000E01010A210301686F49
:104756000C0E696FA0EC05F00201815101010725DD
:10476600006E000E0821016E000E0921026E000E79
:104776000A21036E00C01CF201C01DF202C01EF227
:1047860003C01FF200C065F301C066F302C067F301
:1047960003C068F3010E0301696FA0EC05F01CC2AB
:1047A60065F31DC266F31EC267F31FC268F3050EEA
:1047B600696FA0EC05F001011D6B020E0725006E66
:1047C600000E0821016E000E0921026E000E0A215C
:1047D600036E020181510026000E012202220322ED
:1047E60000C01CF201C01DF202C01EF203C01FF27F
:1047F60000C065F301C066F302C067F303C068F347
:104806000A0E0301696FA0EC05F00101625107254C
:10481600006E000E0821016E000E0921026E000EC8
:104826000A21036E020181510026000E0122022296
:10483600032200C01CF201C01DF202C01EF203C01A
:104846001FF200C065F301C066F302C067F303C040
:1048560068F3030E0301696FA0EC05F001017751BF
:10486600000AD8B493D01F51020AD8A48FD07D5124
:1048760007250301656F000E010108210301666F1C
:10488600000E010109210301676F000E01010A21D3
:104896000301686F0201815103016527000E66233B
:1048A60067236823020E696FA0EC05F001017D51B4
:1048B60007250301656F000E010108210301666FDC
:1048C600000E010109210301676F000E01010A2193
:1048D6000301686F0201815103016527000E6623FB
:1048E60067236823060E696FA0EC05F00001F56BDF
:1048F60001017D5107250301656F000E01010821A5
:104906000301666F000E010109210301676F000EA6
:1049160001010A210301686F020E6527000E662356
:10492600672368230201815103016527000E662370
:10493600672368230B0E696FA0EC05F00101775120
:1049460007250301656F000E010108210301666F4B
:10495600000E010109210301676F000E01010A2102
:104966000301686F01017D5103016527000E66236F
:10497600672368230201815103016527000E662320
:1049860067236823040E696FA0EC05F0030E00018F
:10499600966FEA6BEB6BEF6B080EED6F090E03017A
:1049A600656FE1EC0DF00050010AD8A427D1090E7D
:1049B6000301656FF8EC07F002018151010107253B
:1049C600006E000E0821016E000E0921026E000E17
:1049D6000A21036E00C01CF201C01DF202C01EF2C5
:1049E60003C01FF200C065F301C066F302C067F39F
:1049F60003C068F3010E0301696FA0EC05F01CC249
:104A060065F31DC266F31EC267F31FC268F3050E87
:104A1600696FA0EC05F001011D6B020E0725006E03
:104A2600000E0821016E000E0921026E000E0A21F9
:104A3600036E020181510026000E0122022203228A
:104A460000C01CF201C01DF202C01EF203C01FF21C
:104A560000C065F301C066F302C067F303C068F3E4
:104A66000A0E0301696FA0EC05F0010169510725E3
:104A7600006E000E0821016E000E0921026E000E66
:104A86000A21036E020181510026000E0122022234
:104A9600032200C01CF201C01DF202C01EF203C0B8
:104AA6001FF200C065F301C066F302C067F303C0DE
:104AB60068F3030E0301696FA0EC05F0010176515E
:104AC600000AD8B493D01F51020AD8A48FD07D51C2
:104AD60007250301656F000E010108210301666FBA
:104AE600000E010109210301676F000E01010A2171
:104AF6000301686F0201815103016527000E6623D9
:104B060067236823020E696FA0EC05F001017D5151
:104B160007250301656F000E010108210301666F79
:104B2600000E010109210301676F000E01010A2130
:104B36000301686F0201815103016527000E662398
:104B460067236823060E696FA0EC05F00001F56B7C
:104B560001017D5107250301656F000E0101082142
:104B66000301666F000E010109210301676F000E44
:104B760001010A210301686F020E6527000E6623F4
:104B8600672368230201815103016527000E66230E
:104B9600672368230B0E696FA0EC05F001016951CC
:104BA60007250301656F000E010108210301666FE9
:104BB600000E010109210301676F000E01010A21A0
:104BC6000301686F01017D5103016527000E66230D
:104BD600672368230201815103016527000E6623BE
:104BE60067236823040E696FA0EC05F0030E00012D
:104BF600F16FEA6BEB6BEF6B070EED6F010172A1C4
:104C060026D0000E7C1902E1000E7B1920E000017F
:104C1600EF51000A1CE1010EEF6F42EC0DF000C0EF
:104C2600F0F06A0EF66E750EF76E000EF86E4B0E0D
:104C3600E16E020EE26E160E006E010E016ED8ECEB
:104C460003F04B0E656F020E666F33EC07F0000142
:104C5600EF51010A5BE1010172B158D0000E7C19D7
:104C660002E1000E7B1952E00001F0510101072517
:104C7600006E000E0821016E000E0921026E000E64
:104C86000A21036E00C01CF201C01DF202C01EF212
:104C960003C01FF200C065F301C066F302C067F3EC
:104CA60003C068F3090E0301696FA0EC05F000016B
:104CB600EF6B1CC20EF51DC20FF51EC210F51FC20A
:104CC60011F57F0E0501126F010E136FE0EC03F074
:104CD600800EF66E750EF76E000EF86E610EE16EC2
:104CE600020EE26E100E006E010E016ED8EC03F09D
:104CF600610E0301656F020E666F33EC07F07F0EDF
:0E4D06000301656F010E666F33EC07F01200BB
:104D1400838E010E0301656F666BFAEC0CF0020ED4
:104D24000301656F666BFAEC0CF0010170A10ED003
:104D3400839E010E0301656FE9EC07F0020E030187
:0E4D4400656FE9EC07F0010E0001ED6F120043
:104D5200030E02014B6F839E01016C51020A04E1B2
:104D6200640E0001ED6FEE6B0101705103081F6FBD
:104D72007051000AD8B4A5D2090E0301656FF8EC90
:104D820007F0838E010E010107250301656F000EF6
:104D9200010108210301666F000E010109210301CF
:104DA200676F000E01010A210301686F0C0E696F23
:104DB200A0EC05F002014B5101010725006E000E27
:104DC2000821016E000E0921026E000E0A21036EF7
:104DD20000C01CF201C01DF202C01EF203C01FF28D
:104DE20000C065F301C066F302C067F303C068F355
:104DF200010E0301696FA0EC05F001017851000A70
:104E020011E01CC265F31DC266F31EC267F31FC226
:104E120068F3070E0301696FA0EC05F0010E0101B2
:104E22001D6F0FD01CC265F31DC266F31EC267F36D
:104E32001FC268F3050E0301696FA0EC05F00101C2
:104E42001D6B78510725006E000E0821016E000EC1
:104E52000921026E000E0A21036E020E0026000EC8
:104E620001220222032202014B510026000E0122DE
:104E72000222032200C01CF201C01DF202C01EF277
:104E820003C01FF200C065F301C066F302C067F3FE
:104E920003C068F30A0E0301696FA0EC05F001017B
:104EA20078510725006E000E0821016E000E0921BF
:104EB200026E000E0A21036E02014B510026000E03
:104EC20001220222032200C01CF201C01DF202C014
:104ED2001EF203C01FF200C065F301C066F302C0F8
:104EE20067F303C068F3050E0301696FA0EC05F0D8
:104EF20001017A51000A2EE062510725006E000E70
:104F02000821016E000E0921026E000E0A21036EB5
:104F12007A51005E000E015A025A035A02014B51A5
:104F22000026000E01220222032200C01CF201C050
:104F32001DF202C01EF203C01FF200C065F301C0E1
:104F420066F302C067F303C068F3070E0301696FDB
:104F5200A0EC05F0010162510725006E000E082148
:104F6200016E000E0921026E000E0A21036E02017B
:104F72004B510026000E01220222032200C01CF225
:104F820001C01DF202C01EF203C01FF200C065F391
:104F920001C066F302C067F303C068F3030E0301A6
:104FA200696FA0EC05F001017751000AD8B452D123
:104FB2001F51020AD8A44ED17D510725006E000E62
:104FC2000821016E000E0921026E000E0A21036EF5
:104FD20002014B510026000E01220222032200C0D0
:104FE2001CF201C01DF202C01EF203C01FF200C07B
:104FF20065F301C066F302C067F303C068F3020EF3
:105002000301696FA0EC05F001017851000A2CE060
:105012007D510725006E000E0821016E000E092148
:10502200026E000E0A21036E02014B510026000E91
:1050320001220222032200C01CF201C01DF202C0A2
:105042001EF203C01FF200C065F301C066F302C086
:1050520067F303C068F3080E0301696FA0EC05F063
:10506200010E0001F56F2BD001017D510725006E65
:10507200000E0821016E000E0921026E000E0A21A7
:10508200036E02014B510026000E0122022203226E
:1050920000C01CF201C01DF202C01EF203C01FF2CA
:1050A20000C065F301C066F302C067F303C068F392
:1050B200060E0301696FA0EC05F00001F56B01011A
:1050C2007D510725006E000E0821016E000E092198
:1050D200026E000E0A21036E78510026000E012294
:1050E20002220322020E0026000E012202220322C5
:1050F20002014B510026000E01220222032200C0AF
:105102001CF201C01DF202C01EF203C01FF200C059
:1051120065F301C066F302C067F303C068F30B0EC8
:105122000301696FA0EC05F001017D510725006EB6
:10513200000E0821016E000E0921026E000E0A21E6
:10514200036E78510026000E012202220322020180
:105152004B510026000E01220222032200C01CF243
:1051620001C01DF202C01EF203C01FF200C065F3AF
:1051720001C066F302C067F303C068F3060E0301C1
:10518200696FA0EC05F001017A51000A34E07D510B
:105192000725006E000E0821016E000E0921026E25
:1051A200000E0A21036E77510026000E0122022210
:1051B20003227A51005E000E015A025A035A02017A
:1051C2004B510026000E01220222032200C01CF2D3
:1051D20001C01DF202C01EF203C01FF200C065F33F
:1051E20001C066F302C067F303C068F3080E03014F
:1051F200696FA0EC05F0010177510725006E000EE2
:105202000821016E000E0921026E000E0A21036EB2
:105212007D510026000E01220222032202014B517F
:105222000026000E01220222032200C01CF201C04D
:105232001DF202C01EF203C01FF200C065F301C0DE
:1052420066F302C067F303C068F3040E0301696FDB
:10525200A0EC05F0000E01017C1902E1000E7B19A1
:1052620028E07B510725006E7C510821016E000E5B
:105272000921026E000E0A21036E02014B51002623
:10528200000E01220222032200C01CF201C01DF204
:1052920002C01EF203C01FF200C065F301C066F334
:1052A20002C067F303C068F3090E0301696FA0EC43
:1052B20005F0030E0001966FEA6BEB6B030EED6FC8
:0452C200EF6B12007C
:1052C60083B606D00001E251140801E3E22B02D0B6
:1052D6000001E26B140EE25D03E3010E006E1200A4
:0452E600006A120048
:1052EA00838E010E0301656FE1EC0DF000524FE071
:1052FA00010E0301656F010E666FFAEC0CF0530E96
:10530A0002014B6F330E4C6F200E4D6F4D0E4E6FD8
:10531A006F0E4F6F740E506F6F0E516F720E526F89
:10532A00310E536F530E546F740E556F610E566FD4
:10533A00720E576F740E586F596B4B0E0301656FDF
:10534A00020E666F33EC07F0839C0B0E05011A6F91
:10535A00010E1B6F2B0E1C6F000E1D6F100E1E6FA1
:10536A00000E1F6FFAEC00F0F60E1A6F000E1B6F9C
:10537A00CC0E1C6F000E1D6F100E1E6F000E1F6FDD
:10538A00FAEC00F0010E01011E6F010E1C6F020EF5
:10539A000301656FE1EC0DF000522DE0020E0301EE
:1053AA00656F010E666FFAEC0CF0530E02015A6F2C
:1053BA00330E5B6F200E5C6F4D0E5D6F6F0E5E6F6E
:1053CA00740E5F6F6F0E606F720E616F320E626FD6
:1053DA00530E636F740E646F610E656F720E666FA3
:1053EA00740E676F686B5A0E0301656F020E666F63
:1053FA0033EC07F0839C050E0301656FE1EC0DF0B9
:10540A00005230E0010E0301656FDDC066F3C3ECA4
:10541A000CF00001EA6B01011D6B530E0201696F6A
:10542A00330E6A6F200E6B6F4D0E6C6F6F0E6D6FC1
:10543A00740E6E6F6F0E6F6F720E706F310E716F2A
:10544A00200E726F460E736F610E746F730E756F56
:10545A00740E766F776B690E0301656F020E666FC5
:10546A0033EC07F0070E0301656FE1EC0DF0005213
:10547A002EE00301656BDDC066F3C3EC0CF0010E90
:10548A0001011D6F530E0201786F330E796F200EE2
:10549A007A6F4D0E7B6F6F0E7C6F740E7D6F6F0E81
:1054AA007E6F720E7F6F310E806F200E816F530EEA
:1054BA00826F6C0E836F6F0E846F770E856F866BAB
:1054CA00780E0301656F020E666F33EC07F0060E65
:1054DA000301656FE1EC0DF000522FE0CBC065F3DC
:1054EA00010E0301666FC3EC0CF00001EB6BF56B68
:1054FA00530E0201876F330E886F200E896F4D0E8F
:10550A008A6F6F0E8B6F740E8C6F6F0E8D6F720EAB
:10551A008E6F320E8F6F200E906F460E916F610E56
:10552A00926F730E936F740E946F956B870E0301CF
:10553A00656F020E666F33EC07F0080E0301656FA4
:10554A00E1EC0DF000522EE0CBC065F30301666B6F
:10555A00C3EC0CF0010E0001F56F530E0201966FB9
:10556A00330E976F200E986F4D0E996F6F0E9A6FCC
:10557A00740E9B6F6F0E9C6F720E9D6F320E9E6F34
:10558A00200E9F6F530EA06F6C0EA16F6F0EA26F4D
:10559A00770EA36FA46B960E0301656F020E666FFA
:1055AA0033EC07F00A0E0301656FE1EC0DF00052CF
:1055BA001FE0010E0001EA6F010E0301656F31EC75
:1055CA000DF0EB0EF66E700EF76E000EF86EA50E6D
:1055DA00E16E020EE26E160E006E010E016ED8EC3E
:1055EA0003F0A50E0301656F020E666F33EC07F038
:1055FA000B0E0301656FE1EC0DF000521FE0010E86
:10560A000001EB6F020E0301656F31EC0DF0010E24
:10561A00F66E710EF76E000EF86EBB0EE16E020E9C
:10562A00E26E160E006E010E016ED8EC03F0BB0E90
:10563A000301656F020E666F33EC07F0030E030178
:10564A00656FE1EC0DF000522CE000019691010E1D
:10565A000301656FE9EC07F0530E0201D16F330EB7
:10566A00D26F200ED36F4D0ED46F6F0ED56F740E9E
:10567A00D66F6F0ED76F720ED86F310ED96F200E9C
:10568A00DA6F530EDB6F740EDC6F6F0EDD6F700E08
:10569A00DE6FDF6BD10E0301656F020E666F33ECAE
:1056AA0007F0040E0301656FE1EC0DF000522CE0E7
:1056BA0000019693020E0301656FE9EC07F0530EA1
:1056CA000201E06F330EE16F200EE26F4D0EE36FC1
:1056DA006F0EE46F740EE56F6F0EE66F720EE76F72
:1056EA00320EE86F200EE96F530EEA6F740EEB6FFD
:1056FA006F0EEC6F700EED6FEE6BE00E0301656FCF
:10570A00020E666F33EC07F00C0E0301656FE1ECD5
:10571A000DF0005201E0838C0001EA51010A53E1C5
:10572A00010171A150D01D51000A4DE1010E030182
:10573A00656FE9EC07F0020E0301656FE9EC07F00B
:10574A00050E0001ED6FEA6BEB6B350EF66E710E0E
:10575A00F76E000EF86EEF0EE16E020EE26E140E98
:10576A00006E010E016ED8EC03F0EF0E0301656FB7
:10577A00020E666F33EC07F0090E0301656FF8EC51
:10578A0007F00B0E05011A6F010E1B6FA90E1C6F95
:10579A00000E1D6F100E1E6F000E1F6FFAEC00F048
:1057AA00F60E1A6F000E1B6FBA0E1C6F000E1D6FDD
:1057BA00100E1E6F000E1F6FFAEC00F0010E0101B1
:1057CA001E6F020E1C6F0001EB51010A54E1010128
:1057DA0071A351D00001F551000A4DE1010E0301F8
:1057EA00656FE9EC07F0020E0301656FE9EC07F05B
:1057FA00050E0001ED6FEA6BEB6B490EF66E710E4A
:10580A00F76E000EF86E030EE16E030EE26E140ED2
:10581A00006E010E016ED8EC03F0030E0301656FF2
:10582A00030E666F33EC07F0090E0301656FF8EC9F
:10583A0007F00B0E05011A6F010E1B6FA90E1C6FE4
:10584A00000E1D6F100E1E6F000E1F6FFAEC00F097
:10585A00F60E1A6F000E1B6FBA0E1C6F000E1D6F2C
:10586A00100E1E6F000E1F6FFAEC00F0010E010100
:10587A001E6F020E1C6F01017751000A04E01F51CE
:10588A00010A01E002D000019693010172A14FD0F2
:10589A0025534DE0010E0301656FE9EC07F0020E96
:1058AA000301656FE9EC07F00001EA6BEB6B050E8B
:1058BA00ED6F5D0EF66E710EF76E000EF86E170E36
:1058CA00E16E030EE26E110E006E010E016ED8EC4F
:1058DA0003F0170E0301656F030E666F33EC07F0D2
:1058EA00090E0301656FF8EC07F00B0E05011A6F3C
:1058FA00010E1B6FA90E1C6F000E1D6F100E1E6F7E
:10590A00000E1F6FFAEC00F0F60E1A6F000E1B6FF6
:10591A00840E1C6F000E1D6F100E1E6F000E1F6F7F
:10592A00FAEC00F0010E01011E6F020E1C6F70519D
:10593A00000A4DE0010E0301656FE9EC07F0020E63
:10594A000301656FE9EC07F00001EA6BEB6B050EEA
:10595A00ED6F6E0EF66E710EF76E000EF86E280E73
:10596A00E16E030EE26E110E006E010E016ED8ECAE
:10597A0003F0280E0301656F030E666F33EC07F020
:10598A00090E0301656FF8EC07F00B0E05011A6F9B
:10599A00010E1B6FA90E1C6F000E1D6F100E1E6FDD
:1059AA00000E1F6FFAEC00F0F60E1A6F000E1B6F56
:1059BA005E0E1C6F000E1D6F100E1E6F000E1F6F05
:1059CA00FAEC00F0010E01011E6F020E1C6F7351FA
:1059DA00010A4FE124534DE0010E0301656FE9EC22
:1059EA0007F0020E0301656FE9EC07F00001EA6BAC
:1059FA00EB6B050EED6F7F0EF66E710EF76E000EF5
:105A0A00F86E390EE16E030EE26E170E006E010E8D
:105A1A00016ED8EC03F0390E0301656F030E666F51
:105A2A0033EC07F0090E0301656FF8EC07F00B0E73
:105A3A0005011A6F010E1B6FA90E1C6F000E1D6F58
:105A4A00100E1E6F000E1F6FFAEC00F0F60E1A6FA2
:105A5A00000E1B6F4D0E1C6F000E1D6F100E1E6F79
