:04000000D7EF38F00E
:1000080000C019F001C018F004C017F008C016F0BD
:100018000CC015F0F2A42AD001017B2B8088010EB8
:10002800486F7A51FF0A03E17A6B796B01D07A2B1A
:10003800CD51FF0A03E1CD6B476B01D0CD2B190ED3
:100048007B5D0FE37B6B010E7C27000E7D237E23F7
:100058007F237353010ED8A4000E736F8098010E8E
:10006800426FF30ED76ECA0ED66EF294F0A017D078
:1000780001017951000A03E1792B7A6B01D0792BC0
:10008800050E795D0BE3130E7A5D07E37A511508C7
:1000980004E3010E456F796B01D0796BF090F0A203
:1000A80017D001014751000A03E1472BCD6B01D05E
:1000B800472B050E475D0BE3130ECD5D07E3CD51CE
:1000C800150804E3010E466F476B01D0476BF092A9
:1000D800F2A230D00101442B4451FF0A02E1020E82
:1000E800446F030E046E44C100F066D808C000F0E7
:1000F8000050010A0EE11A5205E0715302E08186B0
:1001080001D081961B5205E06F5302E0818801D02F
:100118008198030E046E44C100F04ED808C000F068
:100128000050000A06E11A5201E081861B5201E0E4
:100138008188F29219C000F018C001F017C004F0CD
:0A01480016C008F015C00CF01100FD
:1001520088C5C9FFC7B002D00000FCD7C9CF00F0E4
:02016200120089
:0E016400ACB202D00000FCD788C5ADFF12007F
:10017200086A096A100E0C6E0134083609360450FA
:10018200085E0550D8A0053C095ED8B007D00450DF
:1001920008260550D8B0053C0926D890003601360D
:0601A2000C2EEAD712004A
:1001A800F250026EF29E0500FF6A0150FE6E00508A
:0801B800FD6E02BEF28E120082
:1001C000086A080E0C6E003408360450085ED8B079
:0E01D00002D00826D89000360C2EF5D712006B
:1001DE000501856B050E855D0AE285518325E16E6D
:1001EE00000E8421E26E200EE66E852BF3D785512C
:1001FE008325E16E000E8421E26EE66A8507855145
:10020E008325866F000E8421876F0A0E046E000E02
:10021E00056E81C500F082C501F0A4DF08C000F0B4
:10022E0009C001F0300E002686C5E1FF87C5E2FF4A
:10023E0000C0E6FF0A0E046E000E056E81C500F0CA
:10024E0082C501F08FDF00C081F501C082F5000E7E
:10025E00011802E1000E001801E102D08507CFD788
:02026E0012007C
:10027000BCC1E1FFBDC1E2FF81C5E6FFBAC100F02C
:08028000BBC101F091DF120087
:1002880083C504F084C505F081C502F082C503F07A
:1002980085C500F086C501F0010E0501855F000ED9
:1002A800865B005001100FE004C0E9FF05C0EAFFBB
:1002B80002C0E1FF03C0E2FFEECFE6FF024A032AD5
:1002C800044A052AE5D781C500F082C501F012006D
:1002D8000B6A0A6A096A086A0E6A03340836045007
:1002E800085E0550D8A0053C095E0650D8A0063C1B
:1002F8000A5E0750D8A0073C0B5EE86AD8A0010E3A
:100308000E5E0336070E0C6E0334083609360A36BD
:100318000B360E36045003A012D0085E0550D8A044
:10032800053C095E0650D8A0063C0A5E0750D8A0D6
:10033800073C0B5EE86AD8A0010E0E5E11D00826B5
:100348000550D8B0053C09260650D8B0063C0A2608
:100358000750D8B0073C0B26E86AD8B0010E0E2625
:1003680003360C2ED1D70234083609360A360B3636
:100378000E36045003A012D0085E0550D8A0053CE4
:10038800095E0650D8A0063C0A5E0750D8A0073C74
:100398000B5EE86AD8A0010E0E5E11D00826055043
:1003A800D8B0053C09260650D8B0063C0A260750A6
:1003B800D8B0073C0B26E86AD8B0010E0E260236E4
:1003C800070E0C6E0234083609360A360B360E361E
:1003D800045002A012D0085E0550D8A0053C095E62
:1003E8000650D8A0063C0A5E0750D8A0073C0B5E12
:1003F800E86AD8A0010E0E5E11D008260550D8B0C4
:10040800053C09260650D8B0063C0A260750D8B045
:10041800073C0B26E86AD8B0010E0E2602360C2ED1
:10042800D1D70134083609360A360B360E36045051
:1004380002A012D0085E0550D8A0053C095E0650FF
:10044800D8A0063C0A5E0750D8A0073C0B5EE86AB5
:10045800D8A0010E0E5E11D008260550D8B0053C74
:1004680009260650D8B0063C0A260750D8B0073CE3
:100478000B26E86AD8B0010E0E260136070E0C6E60
:100488000134083609360A360B360E36045001A0F8
:1004980012D0085E0550D8A0053C095E0650D8A0C9
:1004A800063C0A5E0750D8A0073C0B5EE86AD8A055
:1004B800010E0E5E11D008260550D8B0053C09265D
:1004C8000650D8B0063C0A260750D8B0073C0B2681
:1004D800E86AD8B0010E0E2601360C2ED1D70034AA
:1004E800083609360A360B360E36045001A012D0EB
:1004F800085E0550D8A0053C095E0650D8A0063C09
:100508000A5E0750D8A0073C0B5EE86AD8A0010E27
:100518000E5E11D008260550D8B0053C09260650B5
:10052800D8B0063C0A260750D8B0073C0B26E86A24
:10053800D8B0010E0E260036070E0C6E00340836B1
:1005480009360A360B360E36045000A012D0085E63
:100558000550D8A0053C095E0650D8A0063C0A5EA6
:100568000750D8A0073C0B5EE86AD8A0010E0E5EC3
:1005780011D008260550D8B0053C09260650D8B039
:10058800063C0A260750D8B0073C0B26E86AD8B0C4
:10059800010E0E2600360C2ED1D700B00ED0045016
:1005A80008260550D8B0053C09260650D8B0063CA8
:0C05B8000A260750D8B0073C0B261200A2
:1005C4000501846B030E845D0AE284518225E16E89
:1005D400000E8321E26E200EE66E842BF3D7845145
:1005E4008225E16E000E8321E26EE66A840784515F
:1005F4008225856F000E8321866F0A0E046E81C5E5
:1006040000F0DCDD08C000F0300E002685C5E1FFF7
:1006140086C5E2FF00C0E6FF0A0E046E81C500F045
:10062400CDDD00C081F50050000A01E102D084074D
:04063400DED71200FB
:10063800A6A202D00000FCD7A69C81C5A9FF82C54E
:10064800A8FFA69EA684F2CF00F0F29E550EA76ED4
:10065800AA0EA76EA68200BE02D0F29E01D0F28E2C
:04066800A694120042
:10066C009ED0EE0E0101A36F020EA46F320EA56F89
:10067C00000EA66FCBD00101D00EA36F020EA46F9B
:10068C00320EA56F000EA66FC1D00101A80EA36F8C
:10069C00020EA46F320EA56F000EA66FB7D001012B
:1006AC008A0EA36F020EA46F320EA56F000EA66FFA
:1006BC00ADD00101760EA36F020EA46F320EA56FA2
:1006CC00000EA66FA3D00101580EA36F020EA46FEB
:1006DC00320EA56F000EA66F99D00101260EA36FE6
:1006EC00020EA46F640EA56F000EA66F8FD00101D1
:1006FC00120EA36F020EA46F640EA56F000EA66FF0
:10070C0085D00101F40EA36F010EA46F640EA56FCA
:10071C00000EA66F7BD00101EA0EA36F010EA46F31
:10072C00640EA56F000EA66F71D00101EA0EA36FC7
:10073C00010EA46F2C0EA56F010EA66F67D00101E0
:10074C00EA0EA36F010EA46FF40EA56F010EA66F37
:10075C005DD00101E00EA36F010EA46FE80EA56F32
:10076C00030EA66F53D00101E00EA36F010EA46F10
:10077C00D00EA56F070EA66F49D00101E00EA36F36
:10078C00010EA46FB80EA56F0B0EA66F3FD0010122
:10079C00A36BA46BFF0EA56F000EA66F37D00501DF
:1007AC008151000AD8B45DD78151010AD8B463D7FE
:1007BC008151020AD8B469D78151030AD8B46FD7D2
:1007CC008151040AD8B475D78151050AD8B47BD7A6
:1007DC008151060A82E08151070A89E08151080A99
:1007EC0090E08151090A97E081510A0A9EE08151FB
:1007FC000B0AA5E081510C0AACE081510D0AB3E063
:0E080C0081510E0ABAE081510F0AC1E01200BC
:10081A000501786B75C5E9FF76C5EAFFEECF77F576
:10082A007751000A0EE077C581F51DDD0501782BA9
:10083A0078517525E96E000E7621EA6EEECF77F5CE
:04084A00EFD71200D2
:10084E0075C581F505018133819F76C582F577C522
:10085E0083F5B1DE010E7515016E0150010A17E127
:10086E00030E7625816F000E7721826F2E0E786F24
:10087E00350E796F730E7A6F7B6B780E836F050E64
:10088E00846F040E856F000E866FF7DC16D0030E94
:10089E007625816F000E7721826F730E7C6F200E8E
:1008AE007D6F200E7E6F7F6B7C0E836F050E846FC7
:0C08BE00040E856F000E866FE0DC120057
:0A08CA00490E0D6E0D2EFED7120030
:1008D4000B6A0A6A096A00500402F4CF09F0F3CFE4
:1008E40008F001500502F4CF0BF0F3CF0AF00050EA
:1008F4000502F3500926F4500A22E86A0B2201503B
:100904000402F3500926F4500A22E86A0B2208C0B4
:1009140000F009C001F00AC002F00BC003F012009D
:1009240005017B6B0A0E7B5D0AE27B517925E16E42
:10093400000E7A21E26E300EE66E7B2BF3D77B51EC
:100944007925E16E000E7A21E26EE66A7B07000EDD
:10095400006E781908E10050771905E10050761906
:1009640002E17551000A3EE07B5179257C6F000E4F
:100974007A217D6F0A0E046E000E056E066E076EF8
:1009840075C500F076C501F077C502F078C503F0AF
:10099400A1DC08C000F009C001F00AC002F00BC0DD
:1009A40003F0300E00267CC5E1FF7DC5E2FF00C0E8
:1009B400E6FF7B070A0E046E000E056E066E076ED8
:1009C40075C500F076C501F077C502F078C503F06F
:1009D40081DC00C075F501C076F502C077F503C06F
:0609E40078F5B5D7120002
:1009EA000900F5CFE6FF0006FBE10106F9E1120076
:1009FA00C7B409D01F0EC514016E0150000A03E1E5
:0A0A0A00010E006E01D0006A120018
:100A14000501786B75C5E9FF76C5EAFFEECF77F57A
:100A24007751000A0FE077C588F5B2EC00F00501B4
:100A3400782B78517525E96E000E7621EA6EEECF9B
:060A440077F5EED7120069
:100A4A00010E0501816F95C282F5F1DD020E0501E5
:100A5A00816F94C282F5EBDD030E0501816F97C2A7
:100A6A0082F5E5DD040E0501816F96C282F5DFDDB0
:100A7A00050E0501816FE9C182F5D9DD060E050172
:100A8A00816FFDC182F5D3DD070E0501816FFCC1BF
:100A9A0082F5CDDD080E0501816FFFC182F5C7DD44
:100AAA00090E0501816FFEC182F5C1DD0A0E05013D
:100ABA00816FFBC182F5BBDD0B0E0501816FFAC1A7
:100ACA0082F5B5DD0C0E0501816F82C182F5AFDDBD
:100ADA0082C181F5C6DD0D0E0501816F92C282F5D4
:100AEA00A6DD0E0E0501816F93C282F5A0DD0F0E01
:100AFA000501816F91C282F59ADD100E0501816FA1
:080B0A0090C282F594DD120097
:100B120075C581F576C582F5050182338133829FE1
:100B220077C583F578C584F5EFEC00F0010E7515F5
:100B3200016E76C502F0000E0216000E021802E1E6
:100B4200010E011818E1050E7725816F000E78213C
:100B5200826F2E0E796F350E7A6F730E7B6F7C6B00
:100B6200790E836F050E846F040E856F000E866FFB
:100B720044EC01F017D0050E7725816F000E782125
:100B8200826F730E7D6F200E7E6F200E7F6F806BE3
:100B92007D0E836F050E846F040E856F000E866FC7
:060BA20044EC01F012001A
:100BA800A69C75C5A9FFA69EA680A8CF00F0120036
:100BB800010E0301CC25016E000ECD21026E01C08D
:100BC800E9FF02C0EAFF0A0EEE24006E01C0E1FF51
:100BD80002C0E2FF00C0E6FF030ECC25016E000E46
:100BE800CD21026E01C0E9FF02C0EAFF0A0EEE2421
:100BF800006E01C0E1FF02C0E2FF00C0E6FFCCC307
:100C0800E9FFCDC3EAFFEECF00F0CCC3E1FFCDC3CF
:100C1800E2FF0A0E0024E66E020ECC25016E000EDD
:100C2800CD21026E01C0E9FF02C0EAFF0A0EEE24E0
:100C3800006E01C0E1FF02C0E2FF00C0E6FF040E43
:100C4800CC25E16E000ECD21E26E040EE66E060E96
:100C5800CC25E16E000ECD21E26E040EE66E080E84
:100C6800CC25E16E000ECD21E26E040EE66E0A0E72
:100C7800CC25E16E000ECD21E26E040EE66E050E67
:100C8800CC25E16E000ECD21E26E0A0EE66E090E4D
:100C9800CC25E16E000ECD21E26E0A0EE66E070E3F
:100CA800CC25E16E000ECD21E26E0A0EE66E0B0E2B
:100CB800CC25E16E000ECD21E26E0A0EE66E120022
:100CC800CCC381F505018133819FCDC382F5CEC3A5
:100CD80083F574DC030E0301CD250501816F000E39
:100CE8000301CE210501826F730E0301CF6F200E21
:100CF800D06F200ED16FD26BCF0E0501836F030E1C
:100D0800846F040E856F000E866F44EC01F01200AC
:100D1800020E0101756F5E0E0501816F010E826F73
:100D2800A20EF66E720EF76E000EF86ECC0EE16E25
:100D3800030EE26E110E006E010E016E52DECC0E35
:100D4800836F030E846F100E856F000E866F44EC60
:100D580001F001017451000A64E14D0E0501816F33
:100D6800010E826FB30EF66E720EF76E000EF86EFD
:100D7800DD0EE16E030EE26E110E006E010E016EC5
:100D880030DEDD0E836F030E846F100E856F000E4C
:100D9800866F44EC01F0010E0101766F8651000A5E
:100DA8001EE15E0E0501816F010E826FC40EF66EA4
:100DB800720EF76E000EF86EEE0EE16E030EE26E26
:100DC800110E006E010E016E0CDEEE0E836F030E27
:100DD800846F100E856F000E866F44EC01F00101E0
:100DE8008651010A1EE15E0E0501816F010E826FB8
:100DF800D50EF66E720EF76E000EF86EFF0EE16EEF
:100E0800030EE26E110E006E010E016EEADDFF0E9A
:100E1800836F030E846F100E856F000E866F44EC8F
:100E280001F001017451010A29E14D0E0501816F9C
:100E3800010E826FE60EF66E720EF76E000EF86EF9
:100E4800100EE16E040EE26E110E006E010E016EC0
:100E5800C8DD100E836F040E846F100E856F000EB0
:100E6800866F44EC01F0010E0101766F95C275F5AD
:100E7800640E0501766F010E776FE5DC0101745190
:100E8800020A29E14D0E0501816F010E826FF70EEE
:100E9800F66E720EF76E000EF86E210EE16E040EFD
:100EA800E26E110E006E010E016E9BDD210E836F46
:100EB800040E846F100E856F000E866F44EC01F0EF
:100EC800010E0101766F94C275F5640E0501766F07
:100ED800010E776FB8DC01017451030A29E14D0E48
:100EE8000501816F010E826F080EF66E730EF76EA4
:100EF800000EF86E320EE16E040EE26E110E006EF8
:100F0800010E016E6EDD320E836F040E846F100EBB
:100F1800856F000E866F44EC01F0010E0101766FBB
:100F280097C275F5640E0501766F010E776F8BDC3D
:100F380001017451040A29E14D0E0501816F010E6A
:100F4800826F190EF66E730EF76E000EF86E430E72
:100F5800E16E040EE26E110E006E010E016E41DDAF
:100F6800430E836F040E846F100E856F000E866F1C
:100F780044EC01F0010E0101766F96C275F5640E1E
:100F88000501766F010E776F5EDC01017451050A69
:100F980029E14D0E0501816F010E826F2A0EF66E52
:100FA800730EF76E000EF86E540EE16E040EE26ECC
:100FB800110E006E010E016E14DD540E836F040EC7
:100FC800846F100E856F000E866F44EC01F0010EE1
:100FD8000101766FFDC175F5640E0501766F010E8E
:100FE800776F31DC01017451060A29E14D0E0501C4
:100FF800816F010E826F3B0EF66E730EF76E000E58
:10100800F86E650EE16E040EE26E110E006E010EB2
:10101800016EE7DC650E836F040E846F100E856F1A
:10102800000E866F44EC01F0010E0101766FFCC1E1
:1010380075F5640E0501766F010E776F04DC01010A
:101048007451070A2AE14D0E0501816F010E826F66
:101058004C0EF66E730EF76E000EF86E760EE16E9D
:10106800040EE26E110E006E010E016EBADC760EF1
:10107800836F040E846F100E856F000E866F44EC2C
:1010880001F0010E0101766FFFC175F5640E0501CF
:10109800766F010E776F27EC04F001017451080A8E
:1010A8002AE14D0E0501816F010E826F5D0EF66E0D
:1010B800730EF76E000EF86E870EE16E040EE26E88
:1010C800110E006E010E016E8CDC870E836F040E0C
:1010D800846F100E856F000E866F44EC01F0010ED0
:1010E8000101766FFEC175F5640E0501766F010E7C
:1010F800776F27EC04F001017451090A2DE14D0EB8
:101108000501816F010E826F6E0EF66E730EF76E1B
:10111800000EF86E980EE16E040EE26E110E006E6F
:10112800010E016E5EDC980E836F040E846F100E44
:10113800856F000E866F44EC01F0010E0101766F99
:1011480082C181F5640E0501826F010E836FE2ECA6
:1011580002F0200E0101676F74510A0A2AE14D0E50
:101168000501816F010E826F7F0EF66E730EF76EAA
:10117800000EF86EA90EE16E040EE26E110E006EFE
:10118800010E016E2EDCA90E836F040E846F100E03
:10119800856F000E866F44EC01F0010E0101766F39
:1011A800E9C175F5640E0501766F010E776F27ECBE
:1011B80004F0010174510B0A2BE14D0E0501816FFA
:1011C800010E826F900EF66E730EF76E000EF86EBB
:1011D800BA0EE16E040EE26E110E006E010E016E83
:1011E80000DCBA0E836F040E846F100E856F000E3C
:1011F800866F44EC01F0010E0101766FFAC175F5B6
:10120800FBC176F5620E0501776F010E786F7DDC04
:10121800010174510C0A22E14D0E0501816F010E86
:10122800826FA10EF66E730EF76E000EF86ECB0E7F
:10123800E16E040EE26E110E006E010E016EF5EC09
:1012480004F0CB0E836F040E846F100E856F000EB2
:10125800866F44EC01F0010E0101766F74510D0A9E
:1012680069E14D0E0501816F010E826FB20EF66EB7
:10127800730EF76E000EF86EDC0EE16E040EE26E71
:10128800110E006E010E016EF5EC04F0DC0E836F9A
:10129800040E846F100E856F000E866F44EC01F00B
:1012A800010E0101766F02019151000A21E1640EDD
:1012B8000501816F010E826F4E0E0401ED6F6F0EF6
:1012C800EE6F200EEF6F200EF06F200EF16F200EE4
:1012D800F26F200EF36FF46BED0E0501836F040EB1
:1012E800846F070E856F000E866F44EC01F022D0E4
:1012F8000501640E816F010E826F590E0401F56FAE
:10130800650EF66F730EF76F200EF86F200EF96FEB
:10131800200EFA6F200EFB6F200EFC6FFD6BF50E92
:101328000501836F040E846F080E856F000E866FAB
:1013380044EC01F0010174510E0A65E14D0E0501FE
:10134800816F010E826FD40EF66E730EF76E000E6B
:10135800F86EFE0EE16E040EE26E110E006E010EC6
:10136800016EF5EC04F0FE0E836F040E846F100E10
:10137800856F000E866F44EC01F0010E0101766F57
:1013880002019051000A1FE1640E0501816F010EF0
:10139800826F4E0E0F6F6F0E106F200E116F200EA2
:1013A800126F200E136F200E146F200E156F166B20
:1013B8000F0E836F050E846F070E856F000E866F04
:1013C80044EC01F020D00501640E816F010E826F9C
:1013D800590E176F650E186F730E196F200E1A6F5E
:1013E800200E1B6F200E1C6F200E1D6F200E1E6F0F
:1013F8001F6B170E836F050E846F080E856F000E26
:10140800866F44EC01F0010174510F0A65E14D0E3D
:101418000501816F010E826FF60EF66E730EF76E80
:10142800000EF86E200EE16E050EE26E110E006ED3
:10143800010E016EF5EC04F0200E836F050E846F2B
:10144800100E856F000E866F44EC01F0010E01014D
:10145800766F02019351000A1FE1640E0501816F46
:10146800010E826F4E0E316F6F0E326F200E336F8A
:10147800200E346F200E356F200E366F200E376F1A
:10148800386B310E836F050E846F070E856F000E63
:10149800866F44EC01F020D00501640E816F010EC7
:1014A800826F590E396F650E3A6F730E3B6F200EBF
:1014B8003C6F200E3D6F200E3E6F200E3F6F200EBA
:1014C800406F416B390E836F050E846F080E856F70
:1014D800000E866F44EC01F001017451100A2BE1F3
:1014E8004D0E0501816F010E826F180EF66E740E97
:1014F800F76E000EF86E420EE16E050EE26E110EEA
:10150800006E010E016EF5EC04F0420E836F050EBD
:10151800846F100E856F000E866F44EC01F0010E8B
:101528000101766F92C275F5640E0501766F010EA2
:10153800776F27EC04F001017451110A22E14D0E76
:101548000501816F010E826F290EF66E740EF76E1B
:10155800000EF86E530EE16E050EE26E110E006E6F
:10156800010E016EF5EC04F0530E836F050E846FC7
:10157800100E856F000E866F44EC01F0010E01011C
:10158800766F7451120A22E14D0E0501816F010E2A
:10159800826F3A0EF66E740EF76E000EF86E640ED9
:1015A800E16E050EE26E110E006E010E016EF5EC95
:1015B80004F0640E836F050E846F100E856F000EA5
:1015C800866F44EC01F0010E0101766F650E776FAE
:0215D8001200FF
:1015DA00010E0301CC25E96E000ECD21EA6EEECF95
:1015EA0095F2CCC3E9FFCDC3EAFFEECF97F2CE5115
:1015FA00020AD8A485D0030ECC25E96E000ECD21AF
:10160A00EA6EEECF94F2020ECC25E96E000ECD21E1
:10161A00EA6EEECF96F2040ECC25E96E000ECD21CD
:10162A00EA6E080ECC25D96E000ECD21DA6EDE5098
:10163A00EE24036E046A000E042203C000F004C004
:10164A0001F001320032019E01BC018E00C0FDF1A1
:10165A00050ECC25E96E000ECD21EA6E090ECC25C9
:10166A00D96E000ECD21DA6EDE50EE24036E046AC6
:10167A00000E042203C000F004C001F0013200325F
:10168A00019E01BC018E00C0FCF1060ECC25E96E5C
:10169A00000ECD21EA6E0A0ECC25D96E000ECD21A0
:1016AA00DA6EDE50EE24036E046A000E042203C0D2
:1016BA0000F004C001F001320032019E01BC018E2B
:1016CA0000C0FFF1070ECC25E96E000ECD21EA6EAF
:1016DA000B0ECC25D96E000ECD21DA6EDE50EE242B
:1016EA00036E046A000E042203C000F004C001F075
:1016FA0001320032019E01BC018E00C0FEF124D0ED
:10170A000201946B966B040E0301CC25E96E000E60
:10171A00CD21EA6EEECFFDF1050ECC25E96E000E65
:10172A00CD21EA6EEECFFCF1060ECC25E96E000E55
:10173A00CD21EA6EEECFFFF1070ECC25E96E000E41
:0E174A00CD21EA6EEECFFEF125EC05F0120087
:101758000101DC510301CC1905E10101DC6B010E2B
:10176800006E12000101DD510301CC1905E10101F0
:10177800DD6B010E006E12000101DE510301CC1970
:1017880005E10101DE6B010E006E1200006A120015
:101798000301CC6B140ECC5D53E2CCC300F0000EF9
:1017A800016E070E046E000E056E6AEC04F0000E62
:1017B8000026020E0122050E0024E96E000E01200B
:1017C800EA6EEE50000A3AE1CCC300F0000E016E5A
:1017D800070E046E000E056E6AEC04F0000E00247D
:1017E800E96E020E0120EA6EEECF01F00150090AFF
:1017F80025E1CCC300F0000E016E070E046E000E4A
:10180800056E6AEC04F0000E0026020E0122010E9D
:101818000024E96E000E0120EA6EEECFCDF3EECF84
:10182800CEF3EECFCFF3EECFD0F3050E0024E16E6A
:10183800000E0120E26E010EE66E02D0CC2BAAD774
:1018480001017C510301CD5D016E01C0CCF3140E82
:0C185800015C01E3CC6BCCC300F012007B
:101864007CC175F57DC176F57EC177F57FC178F5CC
:10187400CE0E0501796F030E7A6F92EC04F0CE0E52
:10188400756F030E766F0DEC04F03A0E0301D96FF9
:10189400200EDA6FDB6BD90E0501756F030E766FC0
:1018A4000AEC05F0CCC375F5CDC376F50AEC05F06A
:1018B4000A0E886FB2EC00F00D0E0501886FB2ECD1
:0418C40000F012001E
:1018C8000301CC51010A04E1506A516A0101E09117
:1018D8000301CC51020A04E1526A536A0101E09300
:0218E8001200EC
:1018EA000301CD6B140ECD5D44E2CDC300F0000EB2
:1018FA00016E070E046E000E056E6AEC04F0000E0F
:10190A000026020E0122050E0024E96E000E0120B7
:10191A00EA6EEE50000A2BE1CDC300F0000E016E14
:10192A00070E046E000E056E6AEC04F0000E002429
:10193A00E96E020E0120EA6EEECF01F00150CC19D9
:10194A0016E0CDC300F0000E016E070E046E000E05
:10195A00056E6AEC04F0000E0026020E0122050E46
:10196A000024E16E000E0120E26E010EE66ECD2B20
:04197A00B9D71200C7
:10197E000301CC51000A04E0CD51000A01E002D06F
:10198E00F28801D0F298CCC371F1CDC36FF1120081
:10199E00010E0501756FD4EC05F000C095F2020E34
:1019AE00756FD4EC05F000C094F2030E756FD4EC95
:1019BE0005F000C097F2040E756FD4EC05F000C070
:1019CE0096F2050E756FD4EC05F000C0E9F1060E27
:1019DE00756FD4EC05F000C0FDF1070E756FD4ECF9
:1019EE0005F000C0FCF1080E756FD4EC05F000C0D8
:1019FE00FFF1090E756FD4EC05F000C0FEF10A0E72
:101A0E00756FD4EC05F000C0FAF1000E0101FB6F0A
:101A1E00FAC1FBF1FA6B0B0E0501756FD4EC05F0F4
:101A2E0000500101FA13000EFB130C0E0501756F29
:101A3E00D4EC05F000C082F100C081F536EC03F065
:101A4E000D0E0501756FD4EC05F000C092F20E0E6E
:101A5E00756FD4EC05F000C093F20F0E756FD4ECD9
:101A6E0005F000C091F2100E756FD4EC05F000C0B9
:041A7E0090F21200D0
:101A82000301D16B140ED15D72E2D1C300F0000EDE
:101A9200016E070E046E000E056E6AEC04F0000E75
:101AA2000026020E0122050E0024E96E000E01201E
:101AB200EA6EEE50010A59E1D1C300F0000E016E48
:101AC200070E046E000E056E6AEC04F0000E002490
:101AD200E16E020E0120E26ED0C3E6FFD1C300F038
:101AE200000E016E070E046E000E056E6AEC04F025
:101AF200000E0026020E0122010E0024E16E000EED
:101B02000120E26ECCC3E6FFCDC3E6FFCEC3E6FF03
:101B1200CFC3E6FFD1C300F0000E016E070E046EC4
:101B2200000E056E6AEC04F0000E0026020E012281
:101B3200050E0024E16E000E0120E26EE66AD1C3BA
:101B420000F0000E016E070E046E000E056E6AECC8
:101B520004F0000E0026020E0122060E0024E16EA1
:101B6200000E0120E26EE66A02D0D12B8BD7120062
:101B7200140E0201956F140E976F140E946F140ECB
:101B8200966F050E0101826F040E0501816F36EC1E
:101B920003F00A0E0101FC6F040EFD6F0A0EFE6FC8
:101BA200040EFF6F0C0EE96FFA6BFB6B0201936B75
:0C1BB200916B906B926B25EC05F012001B
:101BBE000301CC51010A16E1CDB102D0829201D0BF
:101BCE008282060E0B6E130E0C6EAD0E0D6E0D2E6A
:101BDE00FED70C2EFCD70B2EFAD700000000010EFC
:101BEE001A6E8186CC51020A16E1CDB102D08290D6
:101BFE0001D08280060E0B6E130E0C6EAD0E0D6EA6
:101C0E000D2EFED70C2EFCD70B2EFAD7000000009F
:081C1E00010E1B6E818812000B
:101C26000301CC51010A02E11A6A8196CC51020ADB
:081C360002E11B6A8198120013
:101C3E009E96CCC3C9FFC7A401D0FDD79EB601D0D6
:101C4E00FDD7C5BC02D0006A03D0C584020E006E5B
:021C5E00120072
:041C6000C584120025
:101C6400C26AC00EC212C18CC18ECCC300F0003651
:101C7400009000360090003600900050C212C280DE
:101C840065EC04F0C284C2A401D0FDD7C4CF01F036
:0E1C9400006AC3500012000E0112C29012002E
:101CA2000301CC6B140ECC5D4BE2CCC300F0000EF2
:101CB200016E070E046E000E056E6AEC04F0000E53
:101CC2000026020E0122050E0024E96E000E0120FC
:101CD200EA6EEE50000A32E1CCC300F0000E016E53
:101CE200070E046E000E056E6AEC04F0000E00246E
:101CF200E96E020E0120EA6EEECF01F00150090AF0
:101D02001DE1CCC300F0000E016E070E046E000E42
:101D1200056E6AEC04F0000E0026020E0122010E8E
:101D22000024E96E000E0120EA6EEECFCDF3EECF75
:101D3200CEF3EECFCFF3EECFD0F302D0CC2BB2D78F
:101D4200140ECC5D02E3CC6B05D001017C51030182
:0A1D5200CD5DCC6FCCC300F0120091
:101D5C000301CC6BCD6BCD51120802E1CC518E0836
:101D6C0009E3FDEC04F0005201E004D00301CC4B7C
:101D7C00CD2BF1D70301120ECD5D02E18F0ECC5DA0
:101D8C0003E37B0E006E05D0C580C5A001D0FDD746
:041D9C00006A1200C7
:101DA0000201B36BB46BB56B83BA02D0B58101D0BD
:101DB000B59184B002D0B58301D0B59383B802D079
:101DC000B58501D0B595B551000A18E1010143511F
:101DD000000A07E1C86BC66B436B0201B26B0101DD
:101DE000C76B4351010A0AE1050E405D07E3C86B6A
:101DF000C66B436B0201B26B0101C76B0101C65197
:101E0000060802E3140EB96FC651060805E2C65172
:101E1000140802E30A0EB96FC651140802E2050E57
:101E2000B96FC851010A0AE1B951415D07E3010EDA
:101E3000C76F416B190EC65D01E2C62B0201B55199
:101E4000000A22E001014351010A1EE1C851000AC3
:101E50001BE1020EC925016E000ECA21026E000EA2
:101E6000CB21036E000ECC21046E7F51041808E1D3
:101E70007E51031805E17D51021802E17C510118E1
:101E800003E1010EC86F416B0201B551000A09E080
:101E900001014351010A05E1C851000A02E10201B2
:101EA000B26B0201B551000A0EE001014351010A73
:101EB0000AE1C851010A07E10201B5510101C70356
:101EC000F3CFB2F2C76B0201B551000A11E0010174
:101ED0004351000A0DE1B5C2B2F2010E436F7CC15D
:101EE000C9F17DC1CAF17EC1CBF17FC1CCF1406B9C
:101EF0000201B251000A03E0010E01014A6FB2C2B1
:041F000000F01200DB
:101F040083A003D083A201D003D0010E006E12007F
:041F1400006A12004D
:101F18000201B26B010145B103D00201B29102D0B6
:101F28000201B281010146B103D00201B29302D08D
:101F38000201B2830101456B466B140E775D15E211
:101F48000201B2B106D00101DBB503D00201B291A2
:101F580002D00201B281B2B306D00101DBB103D0D5
:101F68000201B29302D00201B283B2C200F01200A1
:101F7800010E0101726FDBA318D0726B736B650ED3
:101F8800776F8CEC06F07451000A0FE1E86B86510C
:101F9800000A04E1C80E776F010E856F8651010AA9
:101FA80004E1C90E776F010E856F7451000A14E1C0
:101FB800DBA108D08651000805E286078CEC06F004
:101FC800660E776FDBA508D0010E865D05E2862BCD
:101FD8008CEC06F0660E776F7451010A17E1DBA1ED
:101FE80009D002019551000805E295078CEC06F02E
:101FF800660E776F0101DBA509D0FF0E0201955D22
:1020080005E2952B8CEC06F0660E776F0101745192
:10201800020A17E1DBA109D002019451000805E288
:1020280094078CEC06F0660E776F0101DBA509D0EA
:10203800FF0E0201945D05E2942B8CEC06F0660E0F
:10204800776F01017451030A17E1DBA109D002017E
:102058009751000805E297078CEC06F0660E776F3B
:102068000101DBA509D0FF0E0201975D05E2972B60
:102078008CEC06F0660E776F01017451040A17E1C3
:10208800DBA109D002019651000805E296078CEC05
:1020980006F0660E776F0101DBA509D0FF0E02017D
:1020A800965D05E2962B8CEC06F0660E776F0101C3
:1020B8007451050A14E1DBA108D0FD51000805E2BE
:1020C800FD078CEC06F0660E776FDBA508D0FF0ED7
:1020D800FD5D05E2FD2B8CEC06F0660E776F745102
:1020E800060A14E1DBA108D0FC51000805E2FC0750
:1020F8008CEC06F0660E776FDBA508D0FF0EFC5D52
:1021080005E2FC2B8CEC06F0660E776F7451070A1B
:1021180014E1DBA108D0FF51000805E2FF078CECB1
:1021280006F0660E776FDBA508D0FF0EFF5D05E2AF
:10213800FF2B8CEC06F0660E776F7451080A14E1D9
:10214800DBA108D0FE51000805E2FE078CEC06F082
:10215800660E776FDBA508D0FF0EFE5D05E2FE2B4D
:102168008CEC06F0660E776F7451090A14E1DBA156
:1021780008D08251010805E282078CEC06F0660E51
:10218800776FDBA508D00F0E825D05E2822B8CEC01
:1021980006F0660E776F74510A0A14E1DBA108D0C5
:1021A800E951000805E2E9078CEC06F0660E776F46
:1021B800DBA508D0FF0EE95D05E2E92B8CEC06F003
:1021C800660E776F74510B0A20E1DBA110D0000E68
:1021D800006EFB51005C02E1FA51000808E2010EB2
:1021E800FA5F000EFB5B8CEC06F0660E776FDBA5E2
:1021F8000CD0FD0EFB5D02E1E80EFA5D06E2FA4B3B
:10220800FB2B8CEC06F0660E776F74510C0A1CE100
:10221800776B4D0E0501816F010E826FEA0E836F99
:10222800010E846F100E856F000E866F44EC01F06E
:10223800010E0101756F726B736B010E766F010EE3
:10224800856F93DC25EC05F0010174510D0A17E147
:10225800DBA109D002019151000805E291078CEC3D
:1022680006F0660E776F0101DBA509D0010E0201A9
:10227800915D05E2912B8CEC06F0660E776F0101FB
:1022880074510E0A17E1DBA109D002019051000830
:1022980005E290078CEC06F0660E776F0101DBA56E
:1022A80009D0010E0201905D05E2902B8CEC06F03E
:1022B800660E776F010174510F0A17E1DBA109D08F
:1022C80002019351000805E293078CEC06F0660EB4
:1022D800776F0101DBA509D0010E0201935D05E2CC
:1022E800932B8CEC06F0660E776F01017451100A7F
:1022F80020E1DBA10DD002019251000809E292070A
:102308009251090A01E1926B8CEC06F0660E776F28
:102318000101DBA50ED0FF0E0201925D0AE2922BAD
:102328009251010A02E10A0E926F8CEC06F0660ED9
:10233800776F01017451110A19E1670E776F4D0E1D
:102348000501816F010E826FEA0E836F010E846FA3
:10235800100E856F000E866F44EC01F00101726B60
:10236800010E756F010E766F010E856F7451120A9A
:102378001BE1776B4D0E0501816F010E826FEA0E2E
:10238800836F010E846F100E856F000E866F44EC0C
:1023980001F00101726B010E756F010E766FCFECC3
:0A23A8000CF0010E0101856F120018
:1023B2000201B66B0301CC6B54DC00C0B2F201C067
:1023C200B3F2010E0301CC6F4CDC00C0B4F201C0C9
:1023D200B5F201017151000A1FE0A4510201B35D7F
:1023E20004E10101A3510201B25D09E2FF0E515C59
:1023F20002E1FA0E505C02E2504A512A0CD0000E61
:10240200006E5150005C02E15050000804E2010EDF
:10241200505E000E515A02D0506A516A5150010169
:10242200A65D02E15050A55D02E20201B681010102
:102432006F51000A1FE0A4510201B55D04E10101E0
:10244200A3510201B45D09E2FF0E535C02E1FA0EF0
:10245200525C02E2524A532A0CD0000E006E5350D4
:10246200005C02E15250000804E2010E525E000ECE
:10247200535A02D0526A536A53500101A65D02E1D7
:102482005250A55D02E20201B683B6C200F012000C
:102492000201B26B83B801D0B28183BA01D0B28398
:0624A200B2C200F01200BE
:0A24A80025EC05F00101776B12002E
:1024B20054DC7C0E0301CC6F1FEC0EF0800E030186
:1024C200CC6F1FEC0EF00201B251020A05E1380E88
:1024D2000301CC6F1FEC0EF00201B251010A05E1BB
:1024E200340E0301CC6F1FEC0EF0800E0301CC6F93
:1024F2001FEC0EF00201B251020A05E1390E03018E
:10250200CC6F1FEC0EF00201B251010A05E1350E4B
:102512000301CC6F1FEC0EF0800E0301CC6F1FEC99
:102522000EF01C0E0301CC6F1FEC0EF0800E0301A7
:10253200CC6F1FEC0EF0720E0301CC6F1FEC0EF08D
:10254200800E0301CC6F1FEC0EF0550E0301CC6F11
:102552001FEC0EF0800E0301CC6F1FEC0EF06C0E20
:102562000301CC6F1FEC0EF0800E0301CC6F1FEC49
:102572000EF00C0E0301CC6F1FEC0EF0800E030167
:10258200CC6F1FEC0EF0010E0301CC6F1FEC0EF0AE
:10259200800E0301CC6F1FEC0EF0060E0301CC6F10
:1025A2001FEC0EF0800E0301CC6F1FEC0EF0020E3A
:0E25B2000301CC6F1FEC0EF030EC0EF01200A7
:1025C000949894968B988B9694889486C79EC79C73
:0625D000380EC66E120079
:1025D6000201B66BB76BB251010A03E1B351800F2A
:1025E600B76FB251020A03E1B351C00FB76FAEEC39
:1025F6000EF07C0E0301CC6F1FEC0EF0800E030173
:10260600CC6F1FEC0EF0B7C2CCF31FEC0EF0400EF1
:102616000301CC6F1FEC0EF00201B651B425E96E32
:10262600000EB521EA6EEE500A0A10E0B651100807
:102636000DE3B651B425E96E000EB521EA6EEECF74
:10264600CCF31FEC0EF00201B62BE6D730EC0EF001
:102656000D0E0C6EFB0E0D6E0D2EFED70C2EFCD73E
:062666000000000012005C
:10266C00640E0101BA6F010EBB6F880EBC6F050EB4
:10267C00BD6FFF0E906FFF0E916F000E926F000EEC
:10268C00936FFF0E886FFF0E896F000E8A6F000E1E
:10269C008B6FFF0E946FFF0E956F000E966F000EF2
:1026AC00976FAC8A900EAB6E948E949C9EAA03D0BE
:0826BC00AECF00F0FBD71200C5
:1026C4000201B36BB46B3F0EB215026E02C0B2F2DC
:1026D400540EB36F02C000F00032009E0032009E20
:1026E4000032009E0032009E540E0010B36F700E34
:1026F400B46F0F0E0214006E700E0010B46FAEECC7
:102704000EF07C0E0301CC6F1FEC0EF0800E030163
:10271400CC6F1FEC0EF0B3C2CCF31FEC0EF0800EA6
:102724000301CC6F1FEC0EF0B4C2CCF31FEC0EF01F
:1027340030EC0EF00D0E0C6EFB0E0D6E0D2EFED752
:0A2744000C2EFCD70000000012006C
:10274E00838E010E0101816F010E0301CC6FACEC83
:10275E000BF000522BE0010E0301CC6FCD6BDFECC2
:10276E000DF0530E0201B26F370EB36F200EB46F21
:10277E004D0EB56F6F0EB66F740EB76F6F0EB86FDE
:10278E00720EB96F310EBA6F530EBB6F740EBC6FF3
:10279E00610EBD6F720EBE6F740EBF6FC06BB20E48
:1027AE000301CC6F020ECD6F32EC0CF0020E030162
:1027BE00CC6FACEC0BF000524DE0020E0301CC6F6F
:1027CE00CD6BDFEC0DF0530E0201C16F370EC26FF1
:1027DE00200EC36F4D0EC46F6F0EC56F740EC66F95
:1027EE006F0EC76F720EC86F320EC96F530ECA6F5F
:1027FE00740ECB6F610ECC6F720ECD6F740ECE6FEA
:10280E00CF6BC10E0301CC6F020ECD6F32EC0CF00C
:10281E004D0E0501816F010E826F780E836F000ED3
:10282E00846F100E856F000E866F44EC01F05E0E05
:10283E00816F010E826F540E836F000E846F100E27
:10284E00856F000E866F44EC01F0010E0101766F6C
:10285E00010E756F0A0E0301CC6FACEC0BF000523B
:10286E001FE0010E0101786F010E0301CC6F64ECC5
:10287E000CF0DC0EF66E780EF76E000EF86ED00EC3
:10288E00E16E020EE26E150E006E010E016EF5EC9B
:10289E0004F0D00E0301CC6F020ECD6F32EC0CF0B3
:1028AE000B0E0301CC6FACEC0BF000521FE0010ECF
:1028BE000101806F020E0301CC6F64EC0CF0F10E7F
:1028CE00F66E780EF76E000EF86EE50EE16E020EE5
:1028DE00E26E150E006E010E016EF5EC04F0E50EC3
:1028EE000301CC6F020ECD6F32EC0CF0050E03011E
:1028FE00CC6FACEC0BF000522EE0010E0301CC6F4E
:10290E006FC1CDF3BFEC0CF00101706B530E0201E1
:10291E00FA6F370EFB6F200EFC6F4D0EFD6F310EF2
:10292E00FE6F200EFF6F530E0301006F700E016FCE
:10293E00650E026F650E036F640E046F200E056F39
:10294E00550E066F500E076F086BFA0ECC6F020E07
:10295E00CD6F32EC0CF0060E0301CC6FACEC0BF02D
:10296E0000522DE071C1CCF3010E0301CD6FBFEC0F
:10297E000CF001014C6B530E0301096F370E0A6FF9
:10298E00200E0B6F4D0E0C6F320E0D6F200E0E6F54
:10299E00530E0F6F700E106F650E116F650E126F66
:1029AE00640E136F200E146F550E156F500E166FAA
:1029BE00176B090ECC6F030ECD6F32EC0CF0030EBD
:1029CE000301CC6FACEC0BF0005208E10101785121
:1029DE00010A03E1E0A101D001D028D0010184A1B8
:1029EE0025D08491010E0301CC6F13EC0EF0530E23
:1029FE00186F370E196F200E1A6F4D0E1B6F310E9A
:102A0E001C6F200E1D6F530E1E6F740E1F6F6F0EF8
:102A1E00206F700E216F650E226F640E236F246B74
:102A2E00180ECC6F030ECD6F32EC0CF0040E0301BA
:102A3E00CC6FACEC0BF0005208E101018051010AA1
:102A4E0003E1E0A301D001D028D0010184A325D059
:102A5E008493020E0301CC6F13EC0EF0530E256F10
:102A6E00370E266F200E276F4D0E286F320E296FF0
:102A7E00200E2A6F530E2B6F740E2C6F6F0E2D6F50
:102A8E00700E2E6F650E2F6F640E306F316B250E2C
:102A9E00CC6F030ECD6F32EC0CF002019451000A94
:102AAE0005E001018351010A01E002D00101849386
:102ABE00E1A14ED0010E0301CC6F13EC0EF0020E0D
:102ACE00CC6F13EC0EF00101786B806B060E776FF6
:102ADE00010E656E3E0EF66E790EF76E000EF86EF6
:102AEE00320EE16E030EE26E110E006E010E016EDD
:102AFE00F5EC04F0320E0301CC6F030ECD6F32EC09
:102B0E000CF0090E0301CC6F75EC0CF04D0E0501A7
:102B1E00816F010E826F660E836F000E846F100E32
:102B2E00856F000E866F44EC01F05E0E816F010E14
:102B3E00826F890E836F000E846F100E856F000EEC
:102B4E00866F44EC01F0010E0101766F020E756F77
:102B5E00DF51000A4CE0010E0301CC6F13EC0EF0B6
:102B6E00020ECC6F13EC0EF0060E0101776F786B30
:102B7E00806B4F0EF66E790EF76E000EF86E430EEA
:102B8E00E16E030EE26E120E006E010E016EF5EC9A
:102B9E0004F0430E0301CC6F030ECD6F32EC0CF03C
:102BAE00090E0301CC6F75EC0CF04D0E0501816F13
:102BBE00010E826F660E836F000E846F100E856F8E
:102BCE00000E866F44EC01F05E0E816F010E826F77
:102BDE000C0E836F010E846F100E856F000E866FC4
:102BEE0044EC01F0010E0101766F020E756FE25199
:102BFE00010A4FE1020190534CE0010E0301CC6F2C
:102C0E0013EC0EF0020ECC6F13EC0EF0060E01015B
:102C1E00776F786B806B610EF66E790EF76E000E25
:102C2E00F86E550EE16E030EE26E150E006E010E7D
:102C3E00016EF5EC04F0550E0301CC6F030ECD6F53
:102C4E0032EC0CF0090E0301CC6F75EC0CF04D0E4E
:102C5E000501816F010E826F660E836F000E846F09
:102C6E00100E856F000E866F44EC01F05E0E816FC4
:102C7E00010E826F1D0E836F010E846F100E856F15
:102C8E00000E866F44EC01F0010E0101766F020E0C
:102C9E00756F01018451000A2AE1010E776F4B6BAB
:102CAE00090E0301CC6F75EC0CF04D0E0501816F12
:102CBE00010E826F2E0E836F010E846F100E856FC4
:102CCE00000E866F44EC01F05E0E816F010E826F76
:102CDE00540E836F000E846F100E856F000E866F7C
:102CEE0044EC01F0010E0101766F010E756F775104
:102CFE00050A04E07751060A01E04CD00301CC6BC3
:102D0E0075EC0CF0000E0101FB1902E1000EFA1930
:102D1E0041E0FA517C250301CC6F0101FB517D216D
:102D2E000301CD6F000E01017E210301CE6F000E57
:102D3E0001017F210301CF6F090ED06F41EC0DF021
:102D4E00760EF66E790EF76E000EF86E6A0EE16E66
:102D5E00030EE26E150E006E010E016EF5EC04F020
:102D6E006A0ECC6F030ECD6F32EC0CF05E0E0501C9
:102D7E00816F010E826F9A0E836F000E846F100E9C
:102D8E00856F000E866F44EC01F0010E0101766F27
:062D9E00020E756F120029
:102DA400838E010E0101816F010E0301CC6FACEC27
:102DB4000BF000524FE0010E0301CC6F010ECD6FFA
:102DC400DFEC0DF0530E0201B26F330EB36F200E21
:102DD400B46F4D0EB56F6F0EB66F740EB76F6F0E86
:102DE400B86F720EB96F310EBA6F530EBB6F740E9B
:102DF400BC6F610EBD6F720EBE6F740EBF6FC06B81
:102E0400B20E0301CC6F020ECD6F32EC0CF0839C3A
:102E14004D0E0501816F010E826F1D0E836F000E32
:102E2400846F100E856F000E866F44EC01F05E0E09
:102E3400816F010E826F540E836F000E846F100E2B
:102E4400856F000E866F44EC01F0010E0101766F70
:102E5400010E756F020E0301CC6FACEC0BF0005247
:102E64002DE0020E0301CC6F010ECD6FDFEC0DF0EF
:102E7400530E0201C16F330EC26F200EC36F4D0E8D
:102E8400C46F6F0EC56F740EC66F6F0EC76F720E70
:102E9400C86F320EC96F530ECA6F740ECB6F610EBA
:102EA400CC6F720ECD6F740ECE6FCF6BC10E03015B
:102EB400CC6F020ECD6F32EC0CF0839C050E030137
:102EC400CC6FACEC0BF000522FE0010E0301CC6F81
:102ED4006FC1CDF3BFEC0CF00101786B706B530E36
:102EE4000201D06F330ED16F200ED26F4D0ED36F0F
:102EF4006F0ED46F740ED56F6F0ED66F720ED76FC0
:102F0400310ED86F200ED96F460EDA6F610EDB6F6B
:102F1400730EDC6F740EDD6FDE6BD00E0301CC6FAD
:102F2400020ECD6F32EC0CF0070E0301CC6FACEC4B
:102F34000BF000522EE00301CC6B6FC1CDF3BFEC5C
:102F44000CF0010E0101706F530E0201DF6F330E9E
:102F5400E06F200EE16F4D0EE26F6F0EE36F740EA3
:102F6400E46F6F0EE56F720EE66F310EE76F200EA1
:102F7400E86F530EE96F6C0EEA6F6F0EEB6F770E0E
:102F8400EC6FED6BDF0E0301CC6F020ECD6F32ECF4
:102F94000CF0060E0301CC6FACEC0BF000522FE0EA
:102FA40071C1CCF3010E0301CD6FBFEC0CF0010134
:102FB400806B4C6B530E0201EE6F330EEF6F200EDD
:102FC400F06F4D0EF16F6F0EF26F740EF36F6F0EA4
:102FD400F46F720EF56F320EF66F200EF76F460E19
:102FE400F86F610EF96F730EFA6F740EFB6FFC6B62
:102FF400EE0E0301CC6F020ECD6F32EC0CF0080E16
:103004000301CC6FACEC0BF000522EE071C1CCF399
:103014000301CD6BBFEC0CF0010E01014C6F530E9C
:103024000201FD6F330EFE6F200EFF6F4D0E030184
:10303400006F6F0E016F740E026F6F0E036F720ECE
:10304400046F320E056F200E066F530E076F6C0E61
:10305400086F6F0E096F770E0A6F0B6BFD0ECC6F46
:10306400020ECD6F32EC0CF00A0E0301CC6FACEC07
:103074000BF000521FE0010E0101786F010E0301F5
:10308400CC6F64EC0CF0120EF66E760EF76E000E3A
:10309400F86E0C0EE16E030EE26E160E006E010E5B
:1030A400016EF5EC04F00C0E0301CC6F030ECD6F32
:1030B40032EC0CF00B0E0301CC6FACEC0BF00052B5
:1030C4001FE0010E0101806F020E0301CC6F64EC5E
:1030D4000CF0280EF66E760EF76E000EF86E220EC9
:1030E400E16E030EE26E160E006E010E016EF5EC3B
:1030F40004F0220E0301CC6F030ECD6F32EC0CF002
:10310400030E0301CC6FACEC0BF000522AE000017B
:10311400AB91010E0301CC6F13EC0EF0530E386F1C
:10312400330E396F200E3A6F4D0E3B6F6F0E3C6FAE
:10313400740E3D6F6F0E3E6F720E3F6F310E406F17
:10314400200E416F530E426F740E436F6F0E446F27
:10315400700E456F466B380ECC6F030ECD6F32EC9C
:103164000CF0040E0301CC6FACEC0BF000522AE01F
:103174000001AB93020E0301CC6F13EC0EF0530E5F
:10318400476F330E486F200E496F4D0E4A6F6F0E16
:103194004B6F740E4C6F6F0E4D6F720E4E6F320E7E
:1031A4004F6F200E506F530E516F740E526F6F0E8F
:1031B400536F700E546F556B470ECC6F030ECD6F6B
:1031C40032EC0CF00C0E0301CC6FACEC0BF00052A3
:1031D40001E0838C01017851010A51E1E0A14FD053
:1031E4007051000A4CE1010E0301CC6F13EC0EF098
:1031F400020ECC6F13EC0EF0050E0101776F786BA5
:10320400806B5C0EF66E760EF76E000EF86E560E40
:10321400E16E030EE26E140E006E010E016EF5EC0B
:1032240004F0560E0301CC6F030ECD6F32EC0CF09C
:10323400090E0301CC6F75EC0CF04D0E0501816F86
:10324400010E826F660E836F000E846F100E856F01
:10325400000E866F44EC01F05E0E816F010E826FEA
:103264003F0E836F000E846F100E856F000E866F05
:1032740044EC01F0010E0101766F020E756F80516E
:10328400010A51E1E0A34FD04C51000A4CE1010E78
:103294000301CC6F13EC0EF0020ECC6F13EC0EF0A6
:1032A400050E0101776F786B806B700EF66E760EEB
:1032B400F76E000EF86E6A0EE16E030EE26E140EE7
:1032C400006E010E016EF5EC04F06A0E0301CC6F82
:1032D400030ECD6F32EC0CF0090E0301CC6F75ECCC
:1032E4000CF04D0E0501816F010E826F660E836F27
:1032F400000E846F100E856F000E866F44EC01F093
:103304005E0E816F010E826F3F0E836F000E846F1D
:10331400100E856F000E866F44EC01F0010E010162
:10332400766F020E756F02019451000A05E00101E7
:103334008351010A01E002D00001AB930101E1A134
:103344004FD0020191534CE0010E0301CC6F13ECFA
:103354000EF0020ECC6F13EC0EF00101786B806B53
:10336400050E776F840EF66E760EF76E000EF86E0D
:103374007E0EE16E030EE26E110E006E010E016E02
:10338400F5EC04F07E0E0301CC6F030ECD6F32EC2E
:103394000CF0090E0301CC6F75EC0CF04D0E050119
:1033A400816F010E826F660E836F000E846F100EA4
:1033B400856F000E866F44EC01F05E0E816F010E86
:1033C400826F890E836F000E846F100E856F000E5E
:1033D400866F44EC01F0010E0101766F020E756FE9
:1033E4000101DF51000A4CE0010E0301CC6F13EC24
:1033F4000EF0020ECC6F13EC0EF00101786B806BB3
:10340400050E776F950EF66E760EF76E000EF86E5B
:103414008F0EE16E030EE26E110E006E010E016E50
:10342400F5EC04F08F0E0301CC6F030ECD6F32EC7C
:103434000CF0090E0301CC6F75EC0CF04D0E050178
:10344400816F010E826F660E836F000E846F100E03
:10345400856F000E866F44EC01F05E0E816F010EE5
:10346400826F0C0E836F010E846F100E856F000E39
:10347400866F44EC01F0010E0101766F020E756F48
:10348400E251010A4FE1020190534CE0010E0301A5
:10349400CC6F13EC0EF0020ECC6F13EC0EF00101A6
:1034A400786B806B050E776FA60EF66E760EF76E50
:1034B400000EF86EA00EE16E030EE26E170E006EA3
:1034C400010E016EF5EC04F0A00E0301CC6F030EA7
:1034D400CD6F32EC0CF0090E0301CC6F75EC0CF0DF
:1034E4004D0E0501816F010E826F660E836F000E13
:1034F400846F100E856F000E866F44EC01F05E0E33
:10350400816F010E826F1D0E836F010E846F100E8A
:10351400856F000E866F44EC01F0010E0101766F99
:10352400020E756F0001AB51000A2BE1020E01017E
:10353400776F4B6B090E0301CC6F75EC0CF04D0EDD
:103544000501816F010E826F2E0E836F000E846F52
:10355400100E856F000E866F44EC01F05E0E816FD5
:10356400010E826F540E836F000E846F100E856FF0
:10357400000E866F44EC01F0010E0101766F020E1D
:10358400756F01017751050A04E07751060A01E0DD
:103594004CD00301CC6B75EC0CF0000E0101FB194F
:1035A40002E1000EFA1941E0FA517C250301CC6FC7
:1035B4000101FB517D210301CD6F000E01017E212C
:1035C4000301CE6F000E01017F210301CF6F090EAD
:1035D400D06F41EC0DF0BD0EF66E760EF76E000E58
:1035E400F86EB70EE16E030EE26E150E006E010E5C
:1035F400016EF5EC04F0B70ECC6F030ECD6F32EC18
:103604000CF05E0E0501816F010E826F9A0E836FBE
:10361400000E846F100E856F000E866F44EC01F06F
:0C362400010E0101766F020E756F12009E
:103630000101DBA301D01C2A1C50010A20E14D0E20
:103640000501816F010E826FCC0E836F000E846FB7
:10365000100E856F000E866F44EC01F05E0E816FD8
:10366000010E826FDC0E836F000E846F100E856F6B
:10367000000E866F44EC01F0010E0101766F1C50C4
:10368000020A20E14D0E0501816F010E826FEC0EE2
:10369000836F000E846F100E856F000E866F44ECF2
:1036A00001F05E0E816F010E826FFC0E836F000EC3
:1036B000846F100E856F000E866F44EC01F0010ED2
:1036C0000101766F1C50030A02E1640E776F12004D
:1036D000838E010E0101816F010E0301CC6FACECF2
:1036E0000BF000522BE0010E0301CC6FCD6BDFEC31
:1036F0000DF0530E0201B26F340EB36F200EB46F93
:103700004D0EB56F6F0EB66F740EB76F6F0EB86F4C
:10371000720EB96F310EBA6F530EBB6F740EBC6F61
:10372000610EBD6F720EBE6F740EBF6FC06BB20EB6
:103730000301CC6F020ECD6F32EC0CF0020E0301D0
:10374000CC6FACEC0BF000524DE0020E0301CC6FDD
:10375000CD6BDFEC0DF0530E0201C16F340EC26F62
:10376000200EC36F4D0EC46F6F0EC56F740EC66F03
:103770006F0EC76F720EC86F320EC96F530ECA6FCD
:10378000740ECB6F610ECC6F720ECD6F740ECE6F58
:10379000CF6BC10E0301CC6F020ECD6F32EC0CF07B
:1037A0004D0E0501816F010E826F780E836F000E42
:1037B000846F100E856F000E866F44EC01F05E0E74
:1037C000816F010E826F540E836F000E846F100E96
:1037D000856F000E866F44EC01F0010E0101766FDB
:1037E000010E756F0A0E0301CC6FACEC0BF00052AA
:1037F0001FE0010E0101786F010E0301CC6F64EC34
:103800000CF0F00EF66E760EF76E000EF86ED00E1F
:10381000E16E020EE26E150E006E010E016EF5EC09
:1038200004F0D00E0301CC6F020ECD6F32EC0CF021
:103830000B0E0301CC6FACEC0BF000521FE0010E3D
:103840000101806F020E0301CC6F64EC0CF0050ED9
:10385000F66E770EF76E000EF86EE50EE16E020E54
:10386000E26E150E006E010E016EF5EC04F0E50E31
:103870000301CC6F020ECD6F32EC0CF0050E03018C
:10388000CC6FACEC0BF000522FE0010E0301CC6FBB
:103890006FC1CDF3BFEC0CF00101786B706B530E70
:1038A0000201FA6F340EFB6F200EFC6F4D0EFD6FA0
:1038B000310EFE6F200EFF6F530E0301006F700E6E
:1038C000016F650E026F650E036F640E046F200EAC
:1038D000056F550E066F500E076F086BFA0ECC6F12
:1038E000020ECD6F32EC0CF0070E0301CC6FACEC86
:1038F0000BF0005221E00301CC6B6FC1CDF3BFECA4
:103900000CF00101786B010E706F290EF66E770EC8
:10391000F76E000EF86E090EE16E030EE26E110EE8
:10392000006E010E016EF5EC04F0090E0301CC6F80
:10393000030ECD6F32EC0CF0060E0301CC6FACEC35
:103940000BF000522DE071C1CCF3010E0301CD6FDD
:10395000BFEC0CF001014C6B530E03011A6F340ED7
:103960001B6F200E1C6F4D0E1D6F320E1E6F200E32
:103970001F6F530E206F700E216F650E226F650E44
:10398000236F640E246F200E256F550E266F500E88
:10399000276F286B1A0ECC6F030ECD6F32EC0CF034
:1039A000080E0301CC6FACEC0BF0005220E071C1AB
:1039B000CCF30301CD6BBFEC0CF0010E01014C6F99
:1039C000490EF66E770EF76E000EF86E290EE16E58
:1039D000030EE26E110E006E010E016EF5EC04F0A6
:1039E000290E0301CC6F030ECD6F32EC0CF0030EE9
:1039F0000301CC6FACEC0BF0005226E00101849186
:103A0000010E0301CC6F13EC0EF0530E3A6F340E1F
:103A10003B6F200E3C6F4D0E3D6F310E3E6F200E02
:103A20003F6F530E406F740E416F6F0E426F700EFA
:103A3000436F650E446F640E456F466B3A0ECC6F54
:103A4000030ECD6F32EC0CF0040E0301CC6FACEC26
:103A50000BF0005226E001018493020E0301CC6FAB
:103A600013EC0EF0530E476F340E486F200E496F63
:103A70004D0E4A6F320E4B6F200E4C6F530E4D6F32
:103A8000740E4E6F6F0E4F6F700E506F650E516F4C
:103A9000640E526F536B470ECC6F030ECD6F32EC3A
:103AA0000CF001017851010A51E1E0A14FD07051B1
:103AB000000A4CE1010E0301CC6F13EC0EF0020E74
:103AC000CC6F13EC0EF0060E0101776F786B806BF4
:103AD000740EF66E770EF76E000EF86E540EE16EF1
:103AE000030EE26E110E006E010E016EF5EC04F095
:103AF000540E0301CC6F030ECD6F32EC0CF0090EA7
:103B00000301CC6F75EC0CF04D0E0501816F010EB9
:103B1000826F660E836F000E846F100E856F000E2D
:103B2000866F44EC01F05E0E816F010E826F3F0ED6
:103B3000836F000E846F100E856F000E866F44EC4D
:103B400001F0010E0101766F020E756F8051010ABE
:103B500051E1E0A34FD04C51000A4CE1010E0301AA
:103B6000CC6F13EC0EF0020ECC6F13EC0EF0060EC1
:103B70000101776F786B806B850EF66E770EF76EAE
:103B8000000EF86E650EE16E030EE26E110E006E11
:103B9000010E016EF5EC04F0650E0301CC6F030E0F
:103BA000CD6F32EC0CF0090E0301CC6F75EC0CF00C
:103BB0004D0E0501816F010E826F660E836F000E40
:103BC000846F100E856F000E866F44EC01F05E0E60
:103BD000816F010E826F3F0E836F000E846F100E97
:103BE000856F000E866F44EC01F0010E0101766FC7
:103BF000020E756F02019451000A05E00101835124
:103C0000010A01E002D001018493E1A14ED0010E2E
:103C10000301CC6F13EC0EF0020ECC6F13EC0EF020
:103C20000101786B806B060E776F010E656E960E44
:103C3000F66E770EF76E000EF86E760EE16E030EDE
:103C4000E26E110E006E010E016EF5EC04F0760EC0
:103C50000301CC6F030ECD6F32EC0CF0090E0301A3
:103C6000CC6F75EC0CF04D0E0501816F010E826F6B
:103C7000660E836F000E846F100E856F000E866FC8
:103C800044EC01F05E0E816F010E826F890E836F2E
:103C9000000E846F100E856F000E866F44EC01F0ED
:103CA000010E0101766F020E756FE251010A4FE1BC
:103CB000020190534CE0010E0301CC6F13EC0EF0A7
:103CC000020ECC6F13EC0EF0060E0101776F786BCD
:103CD000806BA70EF66E770EF76E000EF86E870EED
:103CE000E16E030EE26E150E006E010E016EF5EC34
:103CF00004F0870E0301CC6F030ECD6F32EC0CF095
:103D0000090E0301CC6F75EC0CF04D0E0501816FAF
:103D1000010E826F660E836F000E846F100E856F2A
:103D2000000E866F44EC01F05E0E816F010E826F13
:103D30001D0E836F010E846F100E856F000E866F4F
:103D400044EC01F0010E0101766F020E756F010166
:103D5000DF51000A4CE0010E0301CC6F13EC0EF0B2
:103D6000020ECC6F13EC0EF0060E0101776F786B2C
:103D7000806BBC0EF66E770EF76E000EF86E9C0E22
:103D8000E16E030EE26E120E006E010E016EF5EC96
:103D900004F09C0E0301CC6F030ECD6F32EC0CF0DF
:103DA000090E0301CC6F75EC0CF04D0E0501816F0F
:103DB000010E826F660E836F000E846F100E856F8A
:103DC000000E866F44EC01F05E0E816F010E826F73
:103DD0000C0E836F010E846F100E856F000E866FC0
:103DE00044EC01F0010E0101766F020E756F8451F3
:103DF000000A2AE1010E776F4B6B090E0301CC6FAD
:103E000075EC0CF04D0E0501816F010E826F2E0EC8
:103E1000836F010E846F100E856F000E866F44EC69
:103E200001F05E0E816F010E826F540E836F000EE3
:103E3000846F100E856F000E866F44EC01F0010E4A
:103E40000101766F010E756F7751050A04E0775115
:103E5000060A01E04CD00301CC6B75EC0CF0000EAF
:103E60000101FB1902E1000EFA1941E0FA517C252B
:103E70000301CC6F0101FB517D210301CD6F000EC9
:103E800001017E210301CE6F000E01017F2103019C
:103E9000CF6F090ED06F41EC0DF0CE0EF66E770E9F
:103EA000F76E000EF86EAE0EE16E030EE26E150EAA
:103EB000006E010E016EF5EC04F0AE0ECC6F030E39
:103EC000CD6F32EC0CF05E0E0501816F010E826F3A
:103ED0009A0E836F000E846F100E856F000E866F32
:103EE00044EC01F0010E0101766F020E756F1200B5
:103EF000020E0201E86F839E0101816BDF51000A0F
:103F000009E1090E0301CC6FACEC0BF00050010A83
:103F100001E0DDD102019651000A05E00101835163
:103F2000010A01E088D0090E0301CC6F75EC0CF09A
:103F30000201E85101017C25006E000E7D21016E19
:103F4000000E7E21026E000E7F21036E00C08CF2F7
:103F500001C08DF202C08EF203C08FF200C0CCF31C
:103F600001C0CDF302C0CEF303C0CFF3010E0301B5
:103F7000D06F41EC0DF08CC2CCF38DC2CDF38EC26C
:103F8000CEF38FC2CFF3050ED06F41EC0DF00101DF
:103F9000706B060E7C25006E000E7D21016E000EFA
:103FA0007E21026E000E7F21036E0201E851002681
:103FB000000E01220222032200C08CF201C08DF209
:103FC00002C08EF203C08FF200C0CCF301C0CDF36B
:103FD00002C0CEF303C0CFF30A0E0301D06F41EC51
:103FE0000DF00201975101017C25006E000E7D212C
:103FF000016E000E7E21026E000E7F21036E020113
:10400000E8510026000E01220222032200C08CF299
:1040100001C08DF202C08EF203C08FF200C0CCF35B
:1040200001C0CDF302C0CEF303C0CFF3030E0301F2
:10403000D06F41EC0DF002019651000AD8B440D186
:1040400001018351020AD8A43BD1090E0301CC6FB0
:1040500075EC0CF00201E85101017C25006E000EA8
:104060007D21016E000E7E21026E000E7F21036E07
:1040700000C08CF201C08DF202C08EF203C08FF23C
:1040800000C0CCF301C0CDF302C0CEF303C0CFF328
:10409000020E0301D06F41EC0DF08CC2CCF38DC247
:1040A000CDF38EC2CEF38FC2CFF3060ED06F41ECAC
:1040B0000DF00101706B060E7C25006E000E7D2157
:1040C000016E000E7E21026E000E7F21036E020142
:1040D000E8510026000E01220222032200C08CF2C9
:1040E00001C08DF202C08EF203C08FF200C0CCF38B
:1040F00001C0CDF302C0CEF303C0CFF30B0E03011A
:10410000D06F41EC0DF00201975101017C25006E4A
:10411000000E7D21016E000E7E21026E000E7F21B9
:10412000036E0201E8510026000E01220222032242
:1041300000C08CF201C08DF202C08EF203C08FF27B
:1041400000C0CCF301C0CDF302C0CEF303C0CFF367
:10415000040E0301D06F41EC0DF00101E9517C2503
:10416000006E000E7D21016E000E7E21026E000E9B
:104170007F21036E0201E8510026000E0122022277
:10418000032200C08CF201C08DF202C08EF203C087
:104190008FF200C0CCF301C0CDF302C0CEF303C058
:1041A000CFF3010E0301D06F41EC0DF00101E95195
:1041B0007C25006E000E7D21016E000E7E21026EB8
:1041C000000E7F21036E0201E8510026000E01223D
:1041D0000222032200C08CF201C08DF202C08EF2D6
:1041E00003C08FF200C0CCF301C0CDF302C0CEF308
:1041F00003C0CFF3050E0301D06F41EC0DF00101B8
:104200004C6BE9517C25006E000E7D21016E000E85
:104210007E21026E000E7F21036E060E0026000E28
:104220000122022203220201E8510026000E01228F
:104230000222032200C08CF201C08DF202C08EF275
:1042400003C08FF200C0CCF301C0CDF302C0CEF3A7
:1042500003C0CFF30A0E0301D06F41EC0DF0020151
:10426000965101017C25006E000E7D21016E000E2D
:104270007E21026E000E7F21036E0201E8510026AE
:10428000000E0122022203220101E9510026000E44
:1042900001220222032200C08CF201C08DF202C072
:1042A0008EF203C08FF200C0CCF301C0CDF302C088
:1042B000CEF303C0CFF3030E0301D06F41EC0DF03A
:1042C000030E0101846F786B806B070E776F01011D
:1042D000E1A125D0000EFB1902E1000EFA191FE042
:1042E0004B51000A1CE1010E4B6FCCEC0BF000C0EF
:1042F00077F0CF0EF66E790EF76E000EF86EB20EF6
:10430000E16E020EE26E160E006E010E016EF5EC0D
:1043100004F0B20ECC6F020ECD6F32EC0CF0010146
:104320004B51010A58E1E1B156D0000EFB1902E1F0
:10433000000EFA1950E077507C25006E000E7D21AA
:10434000016E000E7E21026E000E7F21036E00C002
:104350008CF201C08DF202C08EF203C08FF200C059
:10436000CCF301C0CDF302C0CEF303C0CFF3090EEE
:104370000301D06F41EC0DF001014B6B8CC275F560
:104380008DC276F58EC277F58FC278F5980E05014D
:10439000796F010E7A6F92EC04F0E50EF66E790EED
:1043A000F76E000EF86EC80EE16E020EE26E100E91
:1043B000006E010E016EF5EC04F0C80E0301CC6F27
:1043C000020ECD6F32EC0CF0980E0301CC6F010E93
:0843D000CD6F32EC0CF012007D
:1043D800030E0201E86F839E0101816BDF51000A21
:1043E80003E1655201E146D1656A838E010E816F52
:1043F800090E0301CC6F75EC0CF0010E01017C2550
:104408000301CC6F000E01017D210301CD6F000E69
:1044180001017E210301CE6F000E01017F210301FE
:10442800CF6F0C0ED06F41EC0DF00201E851010185
:104438007C25006E000E7D21016E000E7E21026E2D
:10444800000E7F21036E00C08CF201C08DF202C005
:104458008EF203C08FF200C0CCF301C0CDF302C0CE
:10446800CEF303C0CFF3010E0301D06F41EC0DF082
:104478008CC2CCF38DC2CDF38EC2CEF38FC2CFF3F4
:10448800050ED06F41EC0DF00101706B060E7C2516
:10449800006E000E7D21016E000E7E21026E000E60
:1044A8007F21036E0201E8510026000E012202223C
:1044B800032200C08CF201C08DF202C08EF203C04C
:1044C8008FF200C0CCF301C0CDF302C0CEF303C01D
:1044D800CFF30A0E0301D06F41EC0DF002019551A4
:1044E80001017C25006E000E7D21016E000E7E21EB
:1044F800026E000E7F21036E0201E8510026000EB5
:1045080001220222032200C08CF201C08DF202C0F7
:104518008EF203C08FF200C0CCF301C0CDF302C00D
:10452800CEF303C0CFF3030E0301D06F41EC0DF0BF
:1045380002019451000AD8B494D001018351020AAF
:10454800D8A48FD0E9517C250301CC6F000E01015E
:104558007D210301CD6F000E01017E210301CE6F85
:10456800000E01017F210301CF6F0201E851030111
:10457800CC27000ECD23CE23CF23020ED06F41ECE3
:104588000DF00101E9517C250301CC6F000E0101FA
:104598007D210301CD6F000E01017E210301CE6F45
:1045A800000E01017F210301CF6F0201E8510301D1
:1045B800CC27000ECD23CE23CF23060ED06F41EC9F
:1045C8000DF001014C6BE9517C250301CC6F000E05
:1045D80001017D210301CD6F000E01017E21030140
:1045E800CE6F000E01017F210301CF6F060ECC278D
:1045F800000ECD23CE23CF230201E8510301CC279F
:10460800000ECD23CE23CF230B0ED06F41EC0DF03F
:104618000201945101017C250301CC6F000E0101B8
:104628007D210301CD6F000E01017E210301CE6FB4
:10463800000E01017F210301CF6F0101E951030140
:10464800CC27000ECD23CE23CF230201E85103014E
:10465800CC27000ECD23CE23CF23040ED06F41EC00
:104668000DF0030E0001AB6F0101786B806B4B6B93
:10467800080E776F090E0301CC6FACEC0BF00050FD
:10468800010AD8A429D1090E0301CC6F75EC0CF0EE
:104698000201E85101017C25006E000E7D21016EAA
:1046A800000E7E21026E000E7F21036E00C08CF288
:1046B80001C08DF202C08EF203C08FF200C0CCF3AD
:1046C80001C0CDF302C0CEF303C0CFF3010E030146
:1046D800D06F41EC0DF08CC2CCF38DC2CDF38EC2FD
:1046E800CEF38FC2CFF3050ED06F41EC0DF0010170
:1046F800706B060E7C25006E000E7D21016E000E8B
:104708007E21026E000E7F21036E0201E851002611
:10471800000E01220222032200C08CF201C08DF299
:1047280002C08EF203C08FF200C0CCF301C0CDF3FB
:1047380002C0CEF303C0CFF30A0E0301D06F41ECE1
:104748000DF00201975101017C25006E000E7D21BC
:10475800016E000E7E21026E000E7F21036E0201A3
:10476800E8510026000E01220222032200C08CF22A
:1047780001C08DF202C08EF203C08FF200C0CCF3EC
:1047880001C0CDF302C0CEF303C0CFF3030E030183
:10479800D06F41EC0DF002019651000AD8B494D0C4
:1047A80001018351020AD8A48FD0E9517C25030165
:1047B800CC6F000E01017D210301CD6F000E0101B8
:1047C8007E210301CE6F000E01017F210301CF6F0F
:1047D8000201E8510301CC27000ECD23CE23CF23BD
:1047E800020ED06F41EC0DF00101E9517C25030167
:1047F800CC6F000E01017D210301CD6F000E010178
:104808007E210301CE6F000E01017F210301CF6FCE
:104818000201E8510301CC27000ECD23CE23CF237C
:10482800060ED06F41EC0DF001014C6BE9517C256F
:104838000301CC6F000E01017D210301CD6F000E35
:1048480001017E210301CE6F000E01017F210301CA
:10485800CF6F060ECC27000ECD23CE23CF23020127
:10486800E8510301CC27000ECD23CE23CF230B0E16
:10487800D06F41EC0DF00201975101017C25030135
:10488800CC6F000E01017D210301CD6F000E0101E7
:104898007E210301CE6F000E01017F210301CF6F3E
:1048A8000101E9510301CC27000ECD23CE23CF23EC
:1048B8000201E8510301CC27000ECD23CE23CF23DC
:1048C800040ED06F41EC0DF0030E0101846F786B7C
:1048D800806B4B6B070E776F0101E1A125D0000EAD
:1048E800FB1902E1000EFA191FE04B51000A1CE106
:1048F800010E4B6FCCEC0BF000C077F0060EF66E95
:104908007A0EF76E000EF86EB20EE16E020EE26ECF
:10491800160E006E010E016EF5EC04F0B20ECC6FAF
:10492800020ECD6F32EC0CF001014B51010A58E137
:10493800E1B156D0000EFB1902E1000EFA1950E061
:1049480077507C25006E000E7D21016E000E7E21C1
:10495800026E000E7F21036E00C08CF201C08DF242
:1049680002C08EF203C08FF200C0CCF301C0CDF3B9
:1049780002C0CEF303C0CFF3090E0301D06F41ECA0
:104988000DF001014B6B8CC275F58DC276F58EC2A8
:1049980077F58FC278F5980E0501796F010E7A6F59
:1049A80092EC04F01C0EF66E7A0EF76E000EF86E9E
:1049B800C80EE16E020EE26E100E006E010E016E60
:1049C800F5EC04F0C80E0301CC6F020ECD6F32EC8B
:1049D8000CF0980E0301CC6F010ECD6F32EC0CF089
:0249E8001200BB
:1049EA00F8D1838E010E0101816FDFA103D0020E7F
:1049FA00CE6FE82BDFA304D0010ECE6F030EE86F53
:104A0A00786B806B1FD2020E0301CC6FCD6BDFEC8B
:104A1A000DF0040E01017C250301CC6F000E01018B
:104A2A007D210301CD6F000E01017E210301CE6FAE
:104A3A00000E01017F210301CF6F150ED06F41ECEB
:104A4A000DF00101E82BFED1E0A30BD08051010A41
:104A5A0008E1806B020E0301CC6F13EC0EF001012A
:104A6A00E82B150E0301CC6FACEC0BF0005203E0FF
:104A7A00010E0101806FE6D1010E0301CC6FCD6BEF
:104A8A00DFEC0DF0040E01017C250301CC6F000E52
:104A9A0001017D210301CD6F000E01017E21030179
:104AAA00CE6F000E01017F210301CF6F140ED06F6C
:104ABA0041EC0DF00101E82BE0A10BD07851010A7D
:104ACA0008E1786B010E0301CC6F13EC0EF00101C3
:104ADA00E82B140E0301CC6FACEC0BF0005203E090
:104AEA00010E0101786FAED17CC1E4F17DC1E5F11F
:104AFA007EC1E6F17FC1E7F1010E0301CC6F010E21
:104B0A00CD6FDFEC0DF0040E01017C250301CC6FA3
:104B1A00000E01017D210301CD6F000E01017E21EE
:104B2A000301CE6F000E01017F210301CF6F140E26
:104B3A00D06F41EC0DF00101E82B84D1E0A116D031
:104B4A007851010A13E1786B010E0301CC6F13EC63
:104B5A000EF00101CE51010A03E10B0EE86F01D0FC
:104B6A00E82BE4517C5D006E00C0D0F1140E030105
:104B7A00CC6FACEC0BF0005203E0010E0101786F30
:104B8A0061D17CC1E4F17DC1E5F17EC1E6F17FC16D
:104B9A00E7F1020E0301CC6F010ECD6FDFEC0DF0D1
:104BAA00040E01017C250301CC6F000E01017D2159
:104BBA000301CD6F000E01017E210301CE6F000EAD
:104BCA0001017F210301CF6F150ED06F41EC0DF06B
:104BDA000101E82B37D1E0A310D08051010A0DE181
:104BEA00806B020E0301CC6F13EC0EF00101E82B6F
:104BFA00E4517C5D006E00C0D2F1150E0301CC6F4A
:104C0A00ACEC0BF0005203E0010E0101806F1AD1E7
:104C1A007CC1E4F17DC1E5F17EC1E6F17FC1E7F136
:104C2A00020E0301CC6FCD6BDFEC0DF0040E010117
:104C3A007C250301CC6F000E01017D210301CD6F9C
:104C4A00000E01017E210301CE6F000E01017F21BA
:104C5A000301CF6F150ED06F41EC0DF00101E82B67
:104C6A00F1D0E0A310D08051010A0DE1806B020E51
:104C7A000301CC6F13EC0EF00101E82BE4517C5DCB
:104C8A00006E00C0D1F1150E0301CC6FACEC0BF035
:104C9A00005203E0010E0101806FD4D07CC1E4F11F
:104CAA007DC1E5F17EC1E6F17FC1E7F1010E0301A5
:104CBA00CC6FCD6BDFEC0DF0040E01017C250301F6
:104CCA00CC6F000E01017D210301CD6F000E0101A1
:104CDA007E210301CE6F000E01017F210301CF6FF8
:104CEA00140ED06F41EC0DF00101E82BABD0E0A11E
:104CFA0010D07851010A0DE1786B010E0301CC6FD7
:104D0A0013EC0EF00101E82BE4517C5D006E00C04B
:104D1A00CFF1140E0301CC6FACEC0BF0005203E0A0
:104D2A00010E0101786F8ED0CF0E0301CC6F010EF8
:104D3A00CD6FDCEC05F0CF0ECC6F010ECD6FCEC17E
:104D4A00CEF3EDEC0AF04D0E0501816F010E826F74
:104D5A003D0EF66E7A0EF76E000EF86EB20EE16E2A
:104D6A00020EE26E110E006E010E016EF5EC04F0F9
:104D7A00B20E836F020E846F100E856F000E866F5F
:104D8A0044EC01F05E0E816F010E826F4E0EF66EDC
:104D9A007A0EF76E000EF86EC30EE16E020EE26E28
:104DAA00110E006E010E016EF5EC04F0C30E836F56
:104DBA00020E846F100E856F000E866F44EC01F0B0
:104DCA00020E0101756F010E766F839E816B776B00
:104DDA0039D00101E851000AD8B403D6E851010AD2
:104DEA00D8B411D6E851020AD8B42ED6E851030A2B
:104DFA00D8B442D6E851040AD8B45ED6E851050AB6
:104E0A00D8B472D6E851060AD8B498D6E851070A37
:104E1A00D8B4B7D6E851080AD8B4DDD6E851090A99
:104E2A00D8B4F6D6E8510A0AD8B41BD7E8510B0A07
:104E3A00D8B434D7E8510C0AD8B459D7E8510D0A76
:064E4A00D8B472D712007B
:104E5000020E0201F46FF56B839E0101816B51EC30
:104E60000EF000500201F51938E00101736B51ECAE
:104E70000EF000C0F5F200C0CCF3690ECD6F010E4C
:104E8000CE6F64EC06F05E0E816F010E826F430EF2
:104E90000201B26F6C0EB36F6F0EB46F730EB56F0D
:104EA000650EB66F200EB76F610EB86F660EB96FE4
:104EB000740EBA6F650EBB6F720EBC6FBD6BB20E17
:104EC0000501836F020E846F0B0E856F000E866FD7
:104ED00044EC01F0010E0101766F0101DF51000A7F
:104EE00008E1090E0301CC6FACEC0BF0005201E1BC
:104EF000C2D30301CC6B75EC0CF002019651000A91
:104F000005E001018351010A01E042D10201F4519F
:104F100001017C25006E000E7D21016E000E7E21B8
:104F2000026E000E7F21036E00C08CF201C08DF274
:104F300002C08EF203C08FF200C0CCF301C0CDF3EB
:104F400002C0CEF303C0CFF3010E0301D06F41ECDA
:104F50000DF00101FF51000A11E08CC2CCF38DC2AB
:104F6000CDF38EC2CEF38FC2CFF3070E0301D06F05
:104F700041EC0DF0010E0101706F0FD08CC2CCF32B
:104F80008DC2CDF38EC2CEF38FC2CFF3050E0301D7
:104F9000D06F41EC0DF00101706BFF517C25006E6C
:104FA000000E7D21016E000E7E21026E000E7F211B
:104FB000036E060E0026000E0122022203220201C9
:104FC000F4510026000E01220222032200C08CF2BE
:104FD00001C08DF202C08EF203C08FF200C0CCF38C
:104FE00001C0CDF302C0CEF303C0CFF30A0E03011C
:104FF000D06F41EC0DF00101FF517C25006E000ED9
:105000007D21016E000E7E21026E000E7F21036E57
:105010000201F4510026000E01220222032200C0E8
:105020008CF201C08DF202C08EF203C08FF200C07C
:10503000CCF301C0CDF302C0CEF303C0CFF3050E15
:105040000301D06F41EC0DF00101FE51000A30E088
:105050000201975101017C25006E000E7D21016E39
:10506000000E7E21026E000E7F21036EFE51005E57
:10507000000E015A025A035A0201F4510026000E92
:1050800001220222032200C08CF201C08DF202C074
:105090008EF203C08FF200C0CCF301C0CDF302C08A
:1050A000CEF303C0CFF3070E0301D06F41EC0DF038
:1050B00002019351000A42E0975101017C25006EE4
:1050C000000E7D21016E000E7E21026E000E7F21FA
:1050D000036E0201F4510026000E01220222032277
:1050E00000C08CF201C08DF202C08EF203C08FF2BC
:1050F00000C0CCF301C0CDF302C0CEF303C0CFF3A8
:10510000050E0301D06F41EC0DF0020E02018C255B
:105110000301CC6F000E02018D210301CD6F000E43
:1051200002018E210301CE6F000E02018F210301C7
:10513000CF6F030ED06F41EC0DF02AD002019751D2
:1051400001017C25006E000E7D21016E000E7E2186
:10515000026E000E7F21036E0201F4510026000E44
:1051600001220222032200C08CF201C08DF202C093
:105170008EF203C08FF200C0CCF301C0CDF302C0A9
:10518000CEF303C0CFF3030E0301D06F41EC0DF05B
:1051900002019651000AD8B467D201018351020A74
:1051A000D8A462D20201F45101017C25006E000EE8
:1051B0007D21016E000E7E21026E000E7F21036EA6
:1051C00000C08CF201C08DF202C08EF203C08FF2DB
:1051D00000C0CCF301C0CDF302C0CEF303C0CFF3C7
:1051E000020E0301D06F41EC0DF00101FF51000AE6
:1051F00011E08CC2CCF38DC2CDF38EC2CEF38FC240
:10520000CFF3080E0301D06F41EC0DF0010E010148
:105210004C6F0FD08CC2CCF38DC2CDF38EC2CEF3C7
:105220008FC2CFF3060E0301D06F41EC0DF00101E8
:105230004C6BFF517C25006E000E7D21016E000E2F
:105240007E21026E000E7F21036E060E0026000EE8
:105250000122022203220201F4510026000E012243
:105260000222032200C08CF201C08DF202C08EF235
:1052700003C08FF200C0CCF301C0CDF302C0CEF367
:1052800003C0CFF30B0E0301D06F41EC0DF0010111
:10529000FF517C25006E000E7D21016E000E7E21E7
:1052A000026E000E7F21036E0201F4510026000EF3
:1052B00001220222032200C08CF201C08DF202C042
:1052C0008EF203C08FF200C0CCF301C0CDF302C058
:1052D000CEF303C0CFF3060E0301D06F41EC0DF007
:1052E0000101FE51000A30E00201965101017C25C6
:1052F000006E000E7D21016E000E7E21026E000EFA
:105300007F21036EFE51005E000E015A025A035ABD
:105310000201F4510026000E01220222032200C0E5
:105320008CF201C08DF202C08EF203C08FF200C079
:10533000CCF301C0CDF302C0CEF303C0CFF3080E0F
:105340000301D06F41EC0DF00201965101017C2563
:10535000006E000E7D21016E000E7E21026E000E99
:105360007F21036E0201F4510026000E0122022269
:10537000032200C08CF201C08DF202C08EF203C085
:105380008FF200C0CCF301C0CDF302C0CEF303C056
:10539000CFF3040E0301D06F41EC0DF00101E95190
:1053A0007C25006E000E7D21016E000E7E21026EB6
:1053B000000E7F21036E0201F4510026000E01222F
:1053C0000222032200C08CF201C08DF202C08EF2D4
:1053D00003C08FF200C0CCF301C0CDF302C0CEF306
:1053E00003C0CFF3010E0301D06F41EC0DF00101BA
:1053F000FF51000A11E08CC2CCF38DC2CDF38EC2F6
:10540000CEF38FC2CFF3070E0301D06F41EC0DF046
:10541000010E0101706F0FD08CC2CCF38DC2CDF3A1
:105420008EC2CEF38FC2CFF3050E0301D06F41ECD5
:105430000DF00101706BE9517C25006E000E7D219D
:10544000016E000E7E21026E000E7F21036EFF5161
:105450000026000E012202220322060E0026000E64
:105460000122022203220201F4510026000E012231
:105470000222032200C08CF201C08DF202C08EF223
:1054800003C08FF200C0CCF301C0CDF302C0CEF355
:1054900003C0CFF30A0E0301D06F41EC0DF0010100
:1054A000E9517C25006E000E7D21016E000E7E21EB
:1054B000026E000E7F21036EFF510026000E0122B6
:1054C000022203220201F4510026000E01220222D0
:1054D000032200C08CF201C08DF202C08EF203C024
:1054E0008FF200C0CCF301C0CDF302C0CEF303C0F5
:1054F000CFF3050E0301D06F41EC0DF00101FE5119
:10550000000A36E0E9517C25006E000E7D21016E17
:10551000000E7E21026E000E7F21036E0201975164
:105520000026000E0122022203220101FE51005E2C
:10553000000E015A025A035A0201F4510026000ECD
:1055400001220222032200C08CF201C08DF202C0AF
:105550008EF203C08FF200C0CCF301C0CDF302C0C5
:10556000CEF303C0CFF3070E0301D06F41EC0DF073
:1055700002019351000A48E0975101017C25006E19
:10558000000E7D21016E000E7E21026E000E7F2135
:10559000036EE9510026000E0122022203220201BD
:1055A000F4510026000E01220222032200C08CF2D8
:1055B00001C08DF202C08EF203C08FF200C0CCF3A6
:1055C00001C0CDF302C0CEF303C0CFF3050E03013B
:1055D000D06F41EC0DF0020E02018C250301CC6F5F
:1055E000000E02018D210301CD6F000E02018E21FC
:1055F0000301CE6F000E02018F210301CF6F030E56
:10560000D06F41EC0DF030D00201975101017C25A3
:10561000006E000E7D21016E000E7E21026E000ED6
:105620007F21036EE9510026000E0122022203228F
:105630000201F4510026000E01220222032200C0C2
:105640008CF201C08DF202C08EF203C08FF200C056
:10565000CCF301C0CDF302C0CEF303C0CFF3030EF1
:105660000301D06F41EC0DF0030E0101846F786BE4
:10567000806B040E776F0101E1A125D0000EFB19AC
:1056800002E1000EFA191FE04B51000A1CE1010E65
:105690004B6FCCEC0BF000C077F0970EF66E790EE6
:1056A000F76E000EF86EBE0EE16E020EE26E160E82
:1056B000006E010E016EF5EC04F0BE0ECC6F020E12
:1056C000CD6F32EC0CF001014B51010AD8A4B1D0DE
:1056D000E1B1AFD0000EFB1902E1000EFA19D8B407
:1056E000A8D002019251000A52E1775001017C25B5
:1056F000006E000E7D21016E000E7E21026E000EF6
:105700007F21036E00C08CF201C08DF202C08EF2C8
:1057100003C08FF200C0CCF301C0CDF302C0CEF3C2
:1057200003C0CFF3090E0301D06F41EC0DF001016E
:105730004B6B8CC275F58DC276F58EC277F58FC234
:1057400078F5980E0501796F010E7A6F92EC04F0EE
:10575000AD0EF66E790EF76E000EF86ED40EE16E99
:10576000020EE26E100E006E010E016EF5EC04F0FA
:10577000D40E0301CC6F020ECD6F32EC0CF0980EFC
:105780000301CC6F010ECD6F32EC0CF052D0020150
:10579000925101017C25006E000E7D21016E000EEC
:1057A0007E21026E000E7F21036E00C08CF201C0CC
:1057B0008DF202C08EF203C08FF200C0CCF301C0A4
:1057C000CDF302C0CEF303C0CFF3090E0301D06FB7
:1057D00041EC0DF001014B6B8CC275F58DC276F575
:1057E0008EC277F58FC278F5980E0501796F010E9C
:1057F0007A6F92EC04F0BD0EF66E790EF76E000E25
:10580000F86EE40EE16E020EE26E100E006E010EF6
:10581000016EF5EC04F0E40E0301CC6F020ECD6FC7
:1058200032EC0CF0980E0301CC6F010ECD6F32EC10
:045830000CF0120066
:1058340083B606D001013F51140801E33F2B02D087
:1058440001013F6B140E3F5D03E3010E006E120075
:04585400006A1200D4
:10585800030E0201B26FB36BB46BB56BB66B839E6C
:105868000101816BDB51020A03E1640E776F746BEF
:10587800DF510308836FDF51000AD8B4E6D2090E5E
:105888000301CC6F75EC0CF0838E010E0101816F62
:10589800010E7C250301CC6F000E01017D2103015F
:1058A800CD6F000E01017E210301CE6F000E0101B4
:1058B8007F210301CF6F0C0ED06F41EC0DF0020178
:1058C800B25101017C25006E000E7D21016E000E93
:1058D8007E21026E000E7F21036E00C08CF201C093
:1058E8008DF202C08EF203C08FF200C0CCF301C06B
:1058F800CDF302C0CEF303C0CFF3010E0301D06F86
:1059080041EC0DF00101FD51000A11E08CC2CCF30D
:105918008DC2CDF38EC2CEF38FC2CFF3070E030133
:10592800D06F41EC0DF0010E0101706F0FD08CC2E9
:10593800CCF38DC2CDF38EC2CEF38FC2CFF3050E5A
:105948000301D06F41EC0DF00101706BFD517C2516
:10595800006E000E7D21016E000E7E21026E000E8B
:105968007F21036E060E0026000E0122022203226A
:105978000201B2510026000E01220222032200C0B9
:105988008CF201C08DF202C08EF203C08FF200C00B
:10599800CCF301C0CDF302C0CEF303C0CFF30A0E9F
:1059A8000301D06F41EC0DF00101FD517C25006E23
:1059B800000E7D21016E000E7E21026E000E7F21F9
:1059C800036E0201B2510026000E012202220322B8
:1059D80000C08CF201C08DF202C08EF203C08FF2BB
:1059E80000C0CCF301C0CDF302C0CEF303C0CFF3A7
:1059F800050E0301D06F41EC0DF00101FC51000AC6
:105A080030E00201955101017C25006E000E7D21D8
:105A1800016E000E7E21026E000E7F21036EFC5186
:105A2800005E000E015A025A035A0201B2510026C2
:105A3800000E01220222032200C08CF201C08DF266
:105A480002C08EF203C08FF200C0CCF301C0CDF3C8
:105A580002C0CEF303C0CFF3070E0301D06F41ECB1
