:04000000C2EF36F025
:1000080000C019F001C018F004C017F008C016F0BD
:100018000CC015F0F2A430D00001C62B8186010E69
:10002800C26F01011851FF0A03E1186B176B01D069
:10003800182B5D51FF0A04E15D6B0001EC6B02D0E7
:1000480001015D2B190E0001C65D11E3C66B010E9F
:10005800EE27000EEF23F023F12301011953010EBF
:10006800D8A4000E196F8196010E0001C76FF30E18
:10007800D76ECA0ED66EF294F0A019D001011751AE
:10008800000A03E1172B186B01D0172B050E175D1B
:100098000DE3130E185D09E31851150806E3010E68
:1000A8000001C96F0101176B01D0176BF090F0A226
:1000B8001DD00001EC51000A04E1EC2B01015D6B3D
:1000C80002D00001EC2B0001050EEC5D0EE3130ECF
:1000D80001015D5D08E35D51150805E3010E0001AE
:1000E800C46FEC6B02D00001EC6BF092F2A22FD03F
:1000F8000001C12BC151FF0A01E1C16B030E046E5F
:10010800C1C000F066D808C000F00050010A0EE136
:10011800955305E0965302E0828201D08292705294
:1001280005E0BD5302E0828001D08290030E046E88
:10013800C1C000F04ED808C000F00050000A06E127
:10014800955301E08282705201E08280F29219C0D8
:1001580000F018C001F017C004F016C008F015C070
:040168000CF0110086
:0E016C00ACB202D00000FCD70BC5ADFF1200F4
:10017A000BC5C9FFC7B002D00000FCD7C9CF00F039
:02018A00120061
:10018C00F250026EF29E0500FF6A0150FE6E0050A6
:08019C00FD6E02BEF28E12009E
:1001A400086A096A100E0C6E0134083609360450C8
:1001B400085E0550D8A0053C095ED8B007D00450AD
:1001C40008260550D8B0053C0926D89000360136DB
:0601D4000C2EEAD7120018
:1001DA00086A080E0C6E003408360450085ED8B05F
:0E01EA0002D00826D89000360C2EF5D7120051
:1001F80006C504F007C505F004C502F005C503F0FF
:1002080008C500F009C501F0010E0501085F000EE0
:10021800095B005001100FE004C0E9FF05C0EAFFC8
:1002280002C0E1FF03C0E2FFEECFE6FF024A032A65
:10023800044A052AE5D704C500F005C501F01200F7
:100248000501076B030E075D0AE207510525E16EFC
:10025800000E0621E26E200EE66E072BF3D707513B
:100268000525E16E000E0621E26EE66A07070751D2
:100278000525086F000E0621096F0A0E046E04C5D5
:1002880000F0A7DF08C000F0300E002608C5E1FF27
:1002980009C5E2FF00C0E6FF0A0E046E04C500F0BF
:1002A80098DF00C004F50050000A01E102D00707FA
:0402B800DED712007B
:0A02BC00030E0D6E0D2EFED712008A
:1002C6000501086B050E085D0AE208510625E16E78
:1002D600000E0721E26E200EE66E082BF3D70851BA
:1002E6000625E16E000E0721E26EE66A0807085150
:1002F6000625096F000E07210A6F0A0E046E000E0E
:10030600056E04C500F005C501F049DF08C000F020
:1003160009C001F0300E002609C5E1FF0AC5E2FF5B
:1003260000C0E6FF0A0E046E000E056E04C500F05E
:1003360005C501F034DF00C004F501C005F5000E67
:10034600011802E1000E001801E102D00807CFD71C
:02035600120093
:100358000B6A0A6A096A086A0E6A03340836045086
:10036800085E0550D8A0053C095E0650D8A0063C9A
:100378000A5E0750D8A0073C0B5EE86AD8A0010EB9
:100388000E5E0336070E0C6E0334083609360A363D
:100398000B360E36045003A012D0085E0550D8A0C4
:1003A800053C095E0650D8A0063C0A5E0750D8A056
:1003B800073C0B5EE86AD8A0010E0E5E11D0082635
:1003C8000550D8B0053C09260650D8B0063C0A2688
:1003D8000750D8B0073C0B26E86AD8B0010E0E26A5
:1003E80003360C2ED1D70234083609360A360B36B6
:1003F8000E36045003A012D0085E0550D8A0053C64
:10040800095E0650D8A0063C0A5E0750D8A0073CF3
:100418000B5EE86AD8A0010E0E5E11D008260550C2
:10042800D8B0053C09260650D8B0063C0A26075025
:10043800D8B0073C0B26E86AD8B0010E0E26023663
:10044800070E0C6E0234083609360A360B360E369D
:10045800045002A012D0085E0550D8A0053C095EE1
:100468000650D8A0063C0A5E0750D8A0073C0B5E91
:10047800E86AD8A0010E0E5E11D008260550D8B043
:10048800053C09260650D8B0063C0A260750D8B0C5
:10049800073C0B26E86AD8B0010E0E2602360C2E51
:1004A800D1D70134083609360A360B360E360450D1
:1004B80002A012D0085E0550D8A0053C095E06507F
:1004C800D8A0063C0A5E0750D8A0073C0B5EE86A35
:1004D800D8A0010E0E5E11D008260550D8B0053CF4
:1004E80009260650D8B0063C0A260750D8B0073C63
:1004F8000B26E86AD8B0010E0E260136070E0C6EE0
:100508000134083609360A360B360E36045001A077
:1005180012D0085E0550D8A0053C095E0650D8A048
:10052800063C0A5E0750D8A0073C0B5EE86AD8A0D4
:10053800010E0E5E11D008260550D8B0053C0926DC
:100548000650D8B0063C0A260750D8B0073C0B2600
:10055800E86AD8B0010E0E2601360C2ED1D7003429
:10056800083609360A360B360E36045001A012D06A
:10057800085E0550D8A0053C095E0650D8A0063C88
:100588000A5E0750D8A0073C0B5EE86AD8A0010EA7
:100598000E5E11D008260550D8B0053C0926065035
:1005A800D8B0063C0A260750D8B0073C0B26E86AA4
:1005B800D8B0010E0E260036070E0C6E0034083631
:1005C80009360A360B360E36045000A012D0085EE3
:1005D8000550D8A0053C095E0650D8A0063C0A5E26
:1005E8000750D8A0073C0B5EE86AD8A0010E0E5E43
:1005F80011D008260550D8B0053C09260650D8B0B9
:10060800063C0A260750D8B0073C0B26E86AD8B043
:10061800010E0E2600360C2ED1D700B00ED0045095
:1006280008260550D8B0053C09260650D8B0063C27
:0C0638000A260750D8B0073C0B26120021
:10064400480E0C6E6C0E0D6E0D2EFED70C2EFCD7C4
:040654000000120090
:100658007CC1E1FF7DC1E2FF04C5E6FF7AC100F07D
:080668007BC101F08FDD1200DF
:100670004ED00101436B446BFF0E456F67D0010103
:10068000900E436F010E446FC80E456F5FD001019D
:10069000C20E436F010E446F960E456F57D0010195
:1006A000F40E436F010E446F640E456F4FD001018D
:1006B000260E436F020E446F500E456F47D0010166
:1006C000580E436F020E446F960E456F3FD00101E6
:1006D000580E436F020E446F640E456F37D0010110
:1006E000580E436F020E446F320E456F2FD001013A
:1006F000BC0E436F020E446F640E456F27D001019C
:10070000BC0E436F020E446F320E456F1FD00501C1
:100710000451000AAEE00451010AB1E00451020A9A
:10072000B6E00451030ABBE00451040AC0E00451DE
:10073000050AC5E00451060ACAE00451070ACFE0E1
:0E0740000451080AD4E00451090AD9E012005D
:0C074E00A60E0D6E0D2EFED7000012004E
:10075A00A6A202D00000FCD7A69C04C5A9FF05C525
:10076A00A8FFA69EA684F2CF00F0F29E550EA76EB1
:10077A00AA0EA76EA68200BE02D0F29E01D0F28E09
:04078A00A69412001F
:10078E000401FE6B0A0EFE5D0AE2FE51FC25E16ECF
:10079E00000EFD21E26E300EE66EFE2BF3D7FE51FB
:1007AE00FC25E16E000EFD21E26EE66AFE07000EEC
:1007BE00006EFB1908E10050FA1905E10050F91915
:1007CE0002E1F851000A40E0FE51FC25FF6F000ED9
:1007DE00FD210501006F0A0E046E000E056E066EF9
:1007EE00076EF8C400F0F9C401F0FAC402F0FBC4BD
:1007FE0003F0ABDD08C000F009C001F00AC002F042
:10080E000BC003F0300E0026FFC4E1FF00C5E2FF6F
:10081E0000C0E6FF0401FE070A0E046E000E056E10
:10082E00066E076EF8C400F0F9C401F0FAC402F0C7
:10083E00FBC403F08ADD00C0F8F401C0F9F402C075
:0A084E00FAF403C0FBF4B3D7120064
:100858000B6A0A6A096A00500402F4CF09F0F3CF60
:1008680008F001500502F4CF0BF0F3CF0AF0005066
:100878000502F3500926F4500A22E86A0B220150B7
:100888000402F3500926F4500A22E86A0B2208C031
:1008980000F009C001F00AC002F00BC003F012001A
:1008A8000401FB6BF8C4E9FFF9C4EAFFEECFFAF4E0
:1008B800FA51000A0EE0FAC40BF554DC0401FB2BD4
:1008C800FB51F825E96E000EF921EA6EEECFFAF435
:0408D800EFD7120044
:1008DC000401FB6BF8C4E9FFF9C4EAFFEECFFAF4AC
:1008EC00FA51000A0EE0FAC404F5B0DE0401FB2B49
:1008FC00FB51F825E96E000EF921EA6EEECFFAF401
:04090C00EFD712000F
:10091000A69CF8C4A9FFA69EA680A8CF00F012004E
:0A092000490E0D6E0D2EFED71200D9
:10092A000900F5CFE6FF0006FBE10106F9E1120036
:10093A00010E0501046F16C205F50ADF020E050154
:10094A00046F13C205F504DF030E0501046F15C217
:10095A0005F5FEDE040E0501046F14C205F5F8DE86
:10096A00050E0501046F10C205F5F2DE060E05013B
:10097A00046F1AC205F5ECDE070E0501046F19C2F1
:10098A0005F5E6DE080E0501046F18C205F5E0DE7E
:10099A00090E0501046F17C205F5DADE0A0E050114
:1009AA00046F12C205F5D4DE0B0E0501046F11C2E5
:1009BA0005F5CEDE0C0E0501046F1CC105F5C8DE77
:1009CA0001011C5109080501046F4DDE0D0E0501D8
:1009DA00046F1EC105F5BCDE0E0E0501046F5EC173
:1009EA0005F5B6DE0F0E0501046F0EC205F5B0DE81
:0E09FA00100E0501046F0FC205F5AADE1200F3
:100A08000401F8BF02D0819E01D0818EF8BD02D0CA
:100A1800819C01D0818CF8BB02D0819A01D0818A57
:100A2800F8B902D0819801D08188010146B102D07D
:100A3800848401D0849484823DDC84920401F8B7D4
:100A480002D0819E01D0818EF8B502D0819C01D060
:100A5800818CF8B302D0819A01D0818AF8B102D092
:100A6800819801D08188010146B102D0848401D0E7
:100A7800849484821FDC849246A102D0DFDD01D0F9
:040A880062DE120018
:100A8C00F8C404F505010433049FF9C405F5FAC450
:100A9C0006F524EC01F0010E0401F815016E01506D
:100AAC00010A1DE1030EF9250501046F000E040176
:100ABC00FA210501056F2E0E0401FB6F350EFC6F3C
:100ACC00730EFD6FFE6BFB0E0501066F040E076FB8
:100ADC00040E086F000E096FFCEC00F01DD0030E25
:100AEC000401F9250501046F000E0401FA2105012A
:100AFC00056F730E0401FF6F200E0501006F200EB1
:100B0C00016F026BFF0E066F040E076F040E086F69
:0A0B1C00000E096FFCEC00F012005F
:100B2600F8C404F5F9C405F5050105330433059F3A
:100B3600FAC406F5FBC407F563EC01F0010E0401E7
:100B4600F815016EF9C402F0000E0216000E021826
:100B560002E1010E01181DE1050EFA250501046FDB
:100B6600000E0401FB210501056F2E0E0401FC6F2A
:100B7600350EFD6F730EFE6FFF6BFC0E0501066FE3
:100B8600040E076F040E086F000E096FFCEC00F0F0
:100B96001BD0050E0401FA250501046F000E0401A1
:100BA600FB210501056F730E006F200E016F200EED
:100BB600026F036B000E066F050E076F040E086FBB
:0A0BC600000E096FFCEC00F01200B5
:100BD000140E0201166F140E156F140E136F140EFF
:100BE000146F050E01011C6F040E0501046F40DD3A
:100BF0000A0E0201196F040E1A6F0A0E176F040E07
:100C0000186F0C0E106F116B126B01015E6B0201FD
:0C0C10000E6B0F6B01011E6B90DE1200DA
:100C1C0003014F51010A0AE1010E0001956F030116
:100C2C0050B102D0829801D0828882824F51020A40
:100C3C0008E1010E706E50B102D0829601D082860E
:040C4C008280120090
:100C500003014F6B140E4F5D5CE24FC300F0000EBA
:100C6000016E070E046E000E056EF6DD820E002684
:100C7000010E0122050E0024E96E000E0120EA6E2D
:100C8000EE50000A2FE14FC300F0000E016E070E78
:100C9000046E000E056EE0DD820E0024E96E010E8A
:100CA0000120EA6EEECF01F00150090A1BE14FC3AB
:100CB00000F0000E016E070E046E000E056ECCDD16
:100CC000820E0026010E0122010E0024E96E000EA4
:100CD0000120EA6EEECF50F3EECF51F3EECF52F398
:100CE000EECF53F34FC300F0000E016E070E046EFB
:100CF000000E056EB1DD820E0026010E0122050EEA
:100D00000024E16E000E0120E26E010EE66E4F2B14
:100D1000A1D70001EE510301505D006E00C04FF3FA
:020D20001200BF
:100D22000301506B140E505D41E250C300F0000EFF
:100D3200016E070E046E000E056E8DDD820E00261A
:100D4200010E0122050E0024E96E000E0120EA6E5A
:100D5200EE50000A29E150C300F0000E016E070EAA
:100D6200046E000E056E77DD820E0024E96E010E20
:100D72000120EA6EEECF01F001504F1915E050C389
:100D820000F0000E016E070E046E000E056E63DDAC
:100D9200820E0026010E0122050E0024E16E000ED5
:0E0DA2000120E26E010EE66E502BBCD712004F
:100DB000010E0401F86FACDD00C016F2020EF86FF0
:100DC000A7DD00C013F2030EF86FA2DD00C015F21C
:100DD000040EF86F9DDD00C014F2050EF86F98DD6B
:100DE00000C010F2060EF86F93DD00C01AF2070E75
:100DF000F86F8EDD00C019F2080EF86F89DD00C0B3
:100E000018F2090EF86F84DD00C017F20A0EF86FB1
:100E10007FDD00C011F2000E0201126F11C212F24A
:100E2000116B0B0E0401F86F73DD005002011113FA
:100E3000000E12130C0E0401F86F6ADD00C01CF1E5
:100E4000005009080501046F13DC0D0E0401F86F52
:100E50005FDD00C01EF10E0EF86F5ADD00C05EF1BE
:100E60000F0EF86F55DD00C00EF2100EF86F50DD5A
:060E700000C00FF21200A9
:100E760003014F51010A03E10001956B82920301C0
:0C0E86004F51020A02E1706A82901200D3
:100E920003014F51010A03E1716A010176910301D5
:0E0EA2004F51020A03E1726A010176931200B9
:100EB0000101725103014F1905E10101726B010E2D
:100EC000006E12000101735103014F1905E1010188
:100ED000736B010E006E12000101745103014F1972
:100EE00005E10101746B010E006E1200006A120030
:100EF00003014F51000A04E05051000A01E002D002
:100F0000F28801D0F2984FC396F050C3BDF01200A2
:100F1000040E0501046F010E056FEE0EF66E6D0EE8
:100F2000F76E000EF86E4F0EE16E030EE26E110EBC
:100F3000006E010E016EF9DC4F0E066F030E076F97
:100F4000100E086F000E096FFCEC00F00001ED516F
:100F5000000A64E1F30E0501046F000E056FFF0E39
:100F6000F66E6D0EF76E000EF86E600EE16E030EFB
:100F7000E26E110E006E010E016ED7DC600E066F80
:100F8000030E076F100E086F000E096FFCEC00F0E7
:100F9000010E01011D6F1A51000A1EE1040E050128
:100FA000046F010E056F100EF66E6E0EF76E000EDA
:100FB000F86E710EE16E030EE26E110E006E010E00
:100FC000016EB3DC710E066F030E076F100E086F13
:100FD000000E096FFCEC00F001011A51010A1EE13C
:100FE000040E0501046F010E056F210EF66E6E0EE4
:100FF000F76E000EF86E820EE16E030EE26E110EB9
:10100000006E010E016E91DC820E066F030E076FFB
:10101000100E086F000E096FFCEC00F00001ED519E
:10102000010A29E1F30E0501046F000E056F320E6F
:10103000F66E6E0EF76E000EF86E930EE16E030EF6
:10104000E26E110E006E010E016E6FDC930E066FE4
:10105000030E076F100E086F000E096FFCEC00F016
:10106000010E01011D6F16C2F8F40A0E0401F96F9A
:10107000010EFA6F0BDD0001ED51020A29E1F30EBA
:101080000501046F000E056F430EF66E6E0EF76ECF
:10109000000EF86EA40EE16E030EE26E110E006EED
:1010A000010E016E42DCA40E066F030E076F100ED8
:1010B000086F000E096FFCEC00F0010E01011D6FBE
:1010C00013C2F8F40A0E0401F96F010EFA6FDEDCA8
:1010D0000001ED51030A29E1F30E0501046F000E32
:1010E000056F540EF66E6E0EF76E000EF86EB50EAE
:1010F000E16E030EE26E110E006E010E016E15DC44
:10110000B50E066F030E076F100E086F000E096F05
:10111000FCEC00F0010E01011D6F15C2F8F40A0E7F
:101120000401F96F010EFA6FB1DC0001ED51040A00
:101130002AE1F30E0501046F000E056F650EF66ED1
:101140006E0EF76E000EF86EC60EE16E030EE26EC6
:10115000110E006E010E016E95EC04F0C60E066FC6
:10116000030E076F100E086F000E096FFCEC00F005
:10117000010E01011D6F14C2F8F40A0E0401F96F8B
:10118000010EFA6F83DC0001ED51050A2AE1F30E2E
:101190000501046F000E056F760EF66E6E0EF76E8B
:1011A000000EF86ED70EE16E030EE26E110E006EA9
:1011B000010E016E95EC04F0D70E066F030E076F5B
:1011C000100E086F000E096FFCEC00F0010E01011B
:1011D0001D6F1AC2F8F40A0E0401F96F010EFA6FBE
:1011E00055DC0001ED51060A2AE1F30E0501046FFA
:1011F000000E056F870EF66E6E0EF76E000EF86E1F
:10120000E80EE16E030EE26E110E006E010E016E2D
:1012100095EC04F0E80E066F030E076F100E086FD2
:10122000000E096FFCEC00F0010E01011D6F19C2E8
:10123000F8F40A0E0401F96F010EFA6F27DC0001C1
:10124000ED51070A2BE1F30E0501046F000E056F47
:10125000980EF66E6E0EF76E000EF86EF90EE16ED9
:10126000030EE26E110E006E010E016E95EC04F09D
:10127000F90E066F030E076F100E086F000E096F50
:10128000FCEC00F0010E01011D6F18C2F8F40A0E0B
:101290000401F96F010EFA6F46EC05F00001ED5103
:1012A000080A2BE1F30E0501046F000E056FA90E6D
:1012B000F66E6E0EF76E000EF86E0A0EE16E040EFC
:1012C000E26E110E006E010E016E95EC04F00A0E36
:1012D000066F040E076F100E086F000E096FFCEC0E
:1012E00000F0010E01011D6F17C2F8F40A0E04018F
:1012F000F96F010EFA6F46EC05F00001ED51090A95
:101300002EE1F30E0501046F000E056FBA0EF66EA6
:101310006E0EF76E000EF86E1B0EE16E040EE26E9E
:10132000110E006E010E016E95EC04F01B0E066F9F
:10133000040E076F100E086F000E096FFCEC00F032
:10134000010E01011D6F1CC104F50A0E0501056F98
:10135000010E066F24EC01F0200E01010D6F00015B
:10136000ED510A0A2BE1F30E0501046F000E056F23
:10137000CB0EF66E6E0EF76E000EF86E2C0EE16E52
:10138000040EE26E110E006E010E016E95EC04F07B
:101390002C0E066F040E076F100E086F000E096FFB
:1013A000FCEC00F0010E01011D6F10C2F8F40A0EF2
:1013B0000401F96F010EFA6F46EC05F00001ED51E2
:1013C0000B0A2DE1F30E0501046F000E056FDC0E14
:1013D000F66E6E0EF76E000EF86E3D0EE16E040EA8
:1013E000E26E110E006E010E016E95EC04F03D0EE2
:1013F000066F040E076F100E086F000E096FFCECED
:1014000000F0010E01011D6F11C2F8F412C2F9F4CF
:10141000080E0401FA6F010EFB6F93EC05F000015A
:10142000ED510C0A22E1F30E0501046F000E056F69
:10143000ED0EF66E6E0EF76E000EF86E4E0EE16E4D
:10144000040EE26E110E006E010E016E95EC04F0BA
:101450004E0E066F040E076F100E086F000E096F18
:10146000FCEC00F0010E01011D6F0001ED510D0AB1
:1014700069E1F30E0501046F000E056FFE0EF66EB6
:101480006E0EF76E000EF86E5F0EE16E040EE26EE9
:10149000110E006E010E016E95EC04F05F0E066FEA
:1014A000040E076F100E086F000E096FFCEC00F0C1
:1014B000010E01011D6F02010E51000A21E10A0E09
:1014C0000501046F010E056F4E0E0401706F6F0E63
:1014D000716F200E726F200E736F200E746F200ECE
:1014E000756F200E766F776B700E0501066F040E18
:1014F000076F070E086F000E096FFCEC00F022D09A
:1015000005010A0E046F010E056F590E0401786F74
:10151000650E796F730E7A6F200E7B6F200E7C6FD5
:10152000200E7D6F200E7E6F200E7F6F806B780EF9
:101530000501066F040E076F080E086F000E096F95
:10154000FCEC00F00001ED510E0A69E1F30E05011B
:10155000046F000E056F200EF66E6F0EF76E000E14
:10156000F86E810EE16E040EE26E110E006E010E39
:10157000016E95EC04F0810E066F040E076F100EDD
:10158000086F000E096FFCEC00F0010E01011D6FE9
:1015900002010F51000A21E10A0E0501046F010E3C
:1015A000056F4E0E0401926F6F0E936F200E946FB5
:1015B000200E956F200E966F200E976F200E986F5D
:1015C000996B920E0501066F040E076F070E086FE8
:1015D000000E096FFCEC00F022D005010A0E046F2A
:1015E000010E056F590E04019A6F650E9B6F730E05
:1015F0009C6F200E9D6F200E9E6F200E9F6F200E01
:10160000A06F200EA16FA26B9A0E0501066F040E4B
:10161000076F080E086F000E096FFCEC00F0000168
:10162000ED510F0A68E1F30E0501046F000E056F1E
:10163000420EF66E6F0EF76E000EF86EA30EE16EA0
:10164000040EE26E110E006E010E016E95EC04F0B8
:10165000A30E066F040E076F100E086F000E096FC1
:10166000FCEC00F0010E01011D6F5E51000A21E14A
:101670000A0E0501046F010E056F4E0E0401B46FD2
:101680006F0EB56F200EB66F200EB76F200EB86FBD
:10169000200EB96F200EBA6FBB6BB40E0501066F3A
:1016A000040E076F070E086F000E096FFCEC00F0C8
:1016B00022D005010A0E046F010E056F590E0401B8
:1016C000BC6F650EBD6F730EBE6F200EBF6F200E18
:1016D000C06F200EC16F200EC26F200EC36FC46B8F
:1016E000BC0E0501066F040E076F080E086F000E92
:1016F000096FFCEC00F00001ED51100A2BE1F30E34
:101700000501046F000E056F640EF66E6F0EF76E26
:10171000000EF86EC50EE16E040EE26E110E006E44
:10172000010E016E95EC04F0C50E066F040E076FF6
:10173000100E086F000E096FFCEC00F0010E0101A5
:101740001D6F1EC1F8F40A0E0401F96F010EFA6F45
:1017500046EC05F00001ED51110A22E1F30E0501FE
:10176000046F000E056F750EF66E6F0EF76E000EAD
:10177000F86ED60EE16E040EE26E110E006E010ED2
:10178000016E95EC04F0D60E066F040E076F100E76
:10179000086F000E096FFCEC00F0010E01011D6FD7
:1017A0000001ED51120A22E1F30E0501046F000E53
:1017B000056F860EF66E6F0EF76E000EF86EE70E72
:1017C000E16E040EE26E110E006E010E016E95ECDC
:1017D00004F0E70E066F040E076F100E086F000E80
:1017E000096FFCEC00F0010E01011D6F650E000198
:0417F000F26F120082
:1017F400EEC0F8F4EFC0F9F4F0C0FAF4F1C0FBF471
:10180400510E0401FC6F030EFD6FC7EC03F0510E83
:10181400F86F030EF96F6EEC04F03A0E03015C6F7F
:10182400200E5D6F5E6B5C0E0401F86F030EF96FA2
:1018340054EC04F04FC3F8F450C3F9F454EC04F03E
:101844000A0E05010B6FB6EC00F00D0E05010B6FCF
:06185400B6EC00F01200EA
:10185A00010E03014F25016E000E5021026E01C0D8
:10186A00E9FF02C0EAFF100EEE24006E01C0E1FF9C
:10187A0002C0E2FF00C0E6FF030E4F25016E000E14
:10188A005021026E01C0E9FF02C0EAFF100EEE24E9
:10189A00006E01C0E1FF02C0E2FF00C0E6FF040ED5
:1018AA004F25E16E000E5021E26E040EE66E060E22
:1018BA004F25E16E000E5021E26E040EE66E080E10
:1018CA004F25E16E000E5021E26E040EE66E0A0EFE
:1018DA004F25E16E000E5021E26E040EE66E050EF3
:1018EA004F25E16E000E5021E26E0A0EE66E090ED9
:1018FA004F25E16E000E5021E26E0A0EE66E070ECB
:10190A004F25E16E000E5021E26E0A0EE66E0B0EB6
:10191A004F25E16E000E5021E26E0A0EE66E1200AD
:10192A00C26AC00EC212C18CC18E4FC300F000360B
:10193A00009000360090003600900050C212C2801B
:10194A0090EC04F0C284C2A401D0FDD7C4CF01F048
:0E195A00006AC3500012000E0112C29012006B
:10196800010146914FC3F8F404EC05F046811200DA
:10197800010E03014F25E96E000E5021EA6EEECFED
:1019880016F24FC3E9FF50C3EAFFEECF15F25151EB
:10199800020AD8A485D0030E4F25E96E000E502107
:1019A800EA6EEECF13F2020E4F25E96E000E5021BB
:1019B800EA6EEECF14F2040E4F25E96E000E5021A8
:1019C800EA6E080E4F25D96E000E5021DA6EDE50F1
:1019D800EE24036E046A000E042203C000F004C063
:1019E80001F001320032019E01BC018E00C01AF2E2
:1019F800050E4F25E96E000E5021EA6E090E4F259F
:101A0800D96E000E5021DA6EDE50EE24036E046AA1
:101A1800000E042203C000F004C001F001320032BD
:101A2800019E01BC018E00C019F2060E4F25E96E19
:101A3800000E5021EA6E0A0E4F25D96E000E502175
:101A4800DA6EDE50EE24036E046A000E042203C030
:101A580000F004C001F001320032019E01BC018E89
:101A680000C018F2070E4F25E96E000E5021EA6EED
:101A78000B0E4F25D96E000E5021DA6EDE50EE2483
:101A8800036E046A000E042203C000F004C001F0D3
:101A980001320032019E01BC018E00C017F224D031
:101AA8000201136B146B040E03014F25E96E000E3F
:101AB8005021EA6EEECF1AF2050E4F25E96E000EA0
:101AC8005021EA6EEECF19F2060E4F25E96E000E90
:101AD8005021EA6EEECF18F2070E4F25E96E000E80
:0E1AE8005021EA6EEECF17F29DEC04F01200D2
:101AF6000301546B140E545D72E254C300F0000EE1
:101B0600016E070E046E000E056E2CEC04F0820EBC
:101B16000026010E0122050E0024E96E000E0120AA
:101B2600EA6EEE50010A59E154C300F0000E016E50
:101B3600070E046E000E056E2CEC04F0820E0024D7
:101B4600E16E010E0120E26E53C3E6FF54C300F0BE
:101B5600000E016E070E046E000E056E2CEC04F0EE
:101B6600820E0026010E0122010E0024E16E000EF7
:101B76000120E26E4FC3E6FF50C3E6FF51C3E6FF06
:101B860052C3E6FF54C300F0000E016E070E046E4A
:101B9600000E056E2CEC04F0820E0026010E0122CA
:101BA600050E0024E16E000E0120E26EE66A54C3C3
:101BB60000F0000E016E070E046E000E056E2CEC92
:101BC60004F0820E0026010E0122060E0024E16EAC
:101BD600000E0120E26EE66A02D0542B8BD712006B
:101BE60083A203D083A401D003D0010E006E12009D
:041BF600006A12006F
:101BFA00010E01011B6F71A317D01B6B196B650EC8
:101C0A000001F26FED51000A0FE10101636B1A51F5
:101C1A00000A03E1C80E0001F26F01011A51010A1C
:101C2A0003E1C90E0001F26F0001ED51000A16E14D
:101C3A00010171A108D01A51000805E21A0788ECBF
:101C4A0007F0660EF26F010171A508D0010E1A5D48
:101C5A0005E21A2B88EC07F0660EF26F0001ED51CF
:101C6A00010A18E1010171A109D002011651000807
:101C7A0005E2160788EC07F0660EF26F010171A5FE
:101C8A0009D0FF0E0201165D05E2162B88EC07F05B
:101C9A00660EF26F0001ED51020A18E1010171A10D
:101CAA0009D002011351000805E2130788EC07F076
:101CBA00660EF26F010171A509D0FF0E0201135DD4
:101CCA0005E2132B88EC07F0660EF26F0001ED5166
:101CDA00030A18E1010171A109D002011551000896
:101CEA0005E2150788EC07F0660EF26F010171A58F
:101CFA0009D0FF0E0201155D05E2152B88EC07F0ED
:101D0A00660EF26F0001ED51040A18E1010171A19A
:101D1A0009D002011451000805E2140788EC07F003
:101D2A00660EF26F010171A509D0FF0E0201145D62
:101D3A0005E2142B88EC07F0660EF26F0001ED51F4
:101D4A00050A18E1010171A109D002011A5100081E
:101D5A0005E21A0788EC07F0660EF26F010171A519
:101D6A0009D0FF0E02011A5D05E21A2B88EC07F072
:101D7A00660EF26F0001ED51060A18E1010171A128
:101D8A0009D002011951000805E2190788EC07F089
:101D9A00660EF26F010171A509D0FF0E0201195DED
:101DAA0005E2192B88EC07F0660EF26F0001ED517F
:101DBA00070A18E1010171A109D0020118510008AE
:101DCA0005E2180788EC07F0660EF26F010171A5AB
:101DDA0009D0FF0E0201185D05E2182B88EC07F006
:101DEA00660EF26F0001ED51080A18E1010171A1B6
:101DFA0009D002011751000805E2170788EC07F01D
:101E0A00660EF26F010171A509D0FF0E0201175D7E
:101E1A0005E2172B88EC07F0660EF26F0001ED5110
:101E2A00090A16E1010171A108D01C51000805E256
:101E3A001C0788EC07F0660EF26F010171A508D045
:101E4A00090E1C5D05E21C2B88EC07F0660EF26F8A
:101E5A000001ED510A0A18E1010171A109D002013C
:101E6A001051000805E2100788EC07F0660EF26FC1
:101E7A00010171A509D0FF0E0201105D05E2102BC8
:101E8A0088EC07F0660EF26F0001ED510B0A24E1AF
:101E9A00010171A111D0000E006E02011251005C05
:101EAA0002E11151000808E2010E115F000E125BF7
:101EBA0088EC07F0660EF26F010171A50DD0FD0ED8
:101ECA000201125D02E1E80E115D06E2114B122BCE
:101EDA0088EC07F0660EF26F0001ED510C0A47E13B
:101EEA00F26BF30E0501046F000E056F6E0EF66EAF
:101EFA00740EF76E000EF86E350EE16E020EE26E8B
:101F0A00110E006E010E016E95EC04F0350E066F8F
:101F1A00020E076F100E086F000E096FFCEC00F03E
:101F2A00040E046F010E056F7F0EF66E740EF76EC7
:101F3A00000EF86E460EE16E020EE26E110E006E93
:101F4A00010E016E95EC04F0460E066F020E076F45
:101F5A00100E086F000E096FFCEC00F001011B6BFC
:101F6A00196B010E1D6FE8EC05F09DEC04F0000101
:101F7A00ED510D0A18E1010171A109D002010E51BA
:101F8A00000805E20E0788EC07F0660EF26F010101
:101F9A0071A509D0010E02010E5D05E20E2B88EC37
:101FAA0007F0660EF26F0001ED510E0A18E1010109
:101FBA0071A109D002010F51000805E20F0788EC50
:101FCA0007F0660EF26F010171A509D0010E020138
:101FDA000F5D05E20F2B88EC07F0660EF26F000129
:101FEA00ED510F0A16E1010171A108D05E510008F6
:101FFA0005E25E0788EC07F0660EF26F010171A533
:10200A0008D0010E5E5D05E25E2B88EC07F0660ED5
:10201A00F26F0001ED51100A1FE1010171A10CD00C
:10202A001E51000809E21E071E51090A01E11E6B32
:10203A0088EC07F0660EF26F010171A50DD0FF0E54
:10204A001E5D0AE21E2B1E51010A02E10A0E1E6FD4
:10205A0088EC07F0660EF26F0001ED51110A43E1B8
:10206A00670EF26FF30E0501046F000E056F900EF6
:10207A00F66E740EF76E000EF86E570EE16E020ED3
:10208A00E26E110E006E010E016E95EC04F0570E11
:10209A00066F020E076F100E086F000E096FFCEC38
:1020AA0000F0040E046F010E056FA10EF66E740E99
:1020BA00F76E000EF86E680EE16E020EE26E110EF9
:1020CA00006E010E016E95EC04F0680E066F020EAA
:1020DA00076F100E086F000E096FFCEC00F001018B
:1020EA001B6B010E1D6F0001ED51120A44E1F26BE8
:1020FA00F30E0501046F000E056FB20EF66E740E34
:10210A00F76E000EF86E790EE16E020EE26E110E97
:10211A00006E010E016E95EC04F0790E066F020E48
:10212A00076F100E086F000E096FFCEC00F0040E2A
:10213A00046F010E056FC30EF66E740EF76E000E75
:10214A00F86E8A0EE16E020EE26E110E006E010E3C
:10215A00016E95EC04F08A0E066F020E076F100EE0
:10216A00086F000E096FFCEC00F001011B6B010EF9
:08217A001D6FD8EC06F0120005
:102182000201366B376B386B050E03014F6F95EC0E
:102192000CF000C036F201C037F200C002F001C0FC
:1021A20003F003320232039E03320232039E000E18
:1021B200006E0350005C02E10250A00812E236C237
:1021C20001F037C202F002320132029E02320132C3
:1021D200029E000E025C02E1B90E015C02E2020103
:1021E200388536C201F037C202F002320132029E55
:1021F20002320132029E000E006E0250005C02E1C9
:102202000150640812E236C201F037C202F0023213
:102212000132029E02320132029E000E025C02E193
:10222200A00E015C02E20201388336C201F037C21D
:1022320002F002320132029E02320132029E000E8E
:10224200025C02E1320E015C02E20201388102010B
:102252003851000A1BE10001C551000A08E10101E1
:10226200586B0001C56B0201356B0101576B000110
:10227200C551010A0BE1050EC35D08E30101586B6C
:102282000001C56B0201356B0101576B0201385128
:10229200000A24E00001C551010A20E10101585160
:1022A200000A1CE1030E3F25016E000E4021026E62
:1022B200000E4121036E000E4221046E0001F15115
:1022C200041808E1F051031805E1EF51021802E188
:1022D200EE51011803E1010E0101586F020138515C
:1022E200000A0AE00001C551010A06E10101585144
:1022F200000A02E10201356B02013851000A0FE0C7
:102302000001C551010A0BE101015851010A07E11F
:102312000201385101015703F3CF35F2576B020125
:102322003851000A11E00001C551000A0DE138C21E
:1023320035F2010EC56FEEC03FF1EFC040F1F0C0C3
:1023420041F1F1C042F1C36B01015851010A0DE1A3
:102352000A0E046EC6C000F0EDEC00F008C000F0FA
:102362000050000A02E1010E576F35C200F0120060
:10237200010171A10AD00001ED51000A03E1120E20
:10238200ED6F01D0ED07640EF26F010171A509D066
:102392000001ED51120A02E1ED6B01D0ED2B640E4A
:1023A200F26F010171A303D0660E0001F26F1200F9
:1023B2000201356B83B601D0358183B801D03583F4
:0623C20035C200F012001C
:0A23C8009DEC04F00001F26B12001E
:1023D20010D0800E0201356F1AD0C00E356F17D0A3
:1023E200940E356F14D0D40E356F11D0800E356F28
:1023F2000ED002013551010AECE03551020AEDE03E
:102402003551030AEDE03551040AEDE0EFD7360508
:10241200006E3551002600C035F200C0F8F404EC1D
:1024220005F046910201396B39513725E96E000EEC
:102432003821EA6EEE520DE039513725E96E000E71
:102442003821EA6EEECF4FF3B4EC0CF00201392BD7
:08245200EBD7010146811200E5
:10245A00969296949398939A939C939E849284943A
:10246A00819E819C819A819822EC03F022EC03F0F0
:10247A0022EC03F0818A818884825EEC01F08492E6
:10248A0022EC03F084825EEC01F0849222EC03F0E9
:10249A0084825EEC01F0849222EC03F081988482BB
:1024AA005EEC01F0849222EC03F084825EEC01F08F
:1024BA008492819A818E84825EEC01F0849222EC6D
:1024CA0003F0819E818884825EEC01F08492819877
:1024DA0084825EEC01F0849222EC03F084825EEC4A
:1024EA0001F08492818884825EEC01F0849222EC6D
:1024FA0003F0819884825EEC01F08492818E818C53
:10250A00818A818884825EEC01F0849222EC03F055
:06251A00010146811200E0
:102520006C0E01017A6F010E7B6F0B0E7C6F050E36
:102530007D6FFF0E7E6FFF0E7F6F000E806F000EAF
:10254000816FFF0E6D6FFF0E6E6F000E6F6F000ECE
:10255000706FFF0E5F6FFF0E606F000E616F000EF9
:10256000626FAC8A900EAB6E948E949C9EAA03D040
:08257000AECF00F0FBD7120012
:10257800E2D1010175A103D0020E2E6F632B75A362
:1025880004D0010E2E6F030E636F0ED2020E0301EC
:102598004F6F506B0EEC06F0020E0001EE250301A2
:1025A8004F6F000E0001EF210301506F000E000174
:1025B800F0210301516F000E0001F1210301526F58
:1025C800150E536F7BEC0DF00101632BEDD176A353
:1025D80008D0156B020E03014F6F3BEC07F00101A9
:1025E800632B150E03014F6F58EC07F0005203E000
:1025F800010E0101156FD8D1010E03014F6F506B09
:102608000EEC06F0020E0001EE2503014F6F000EDE
:102618000001EF210301506F000E0001F0210301BA
:10262800516F000E0001F1210301526F140E536F18
:102638007BEC0DF00101632B76A108D0166B010E1F
:1026480003014F6F3BEC07F00101632B140E0301EC
:102658004F6F58EC07F0005203E0010E0101166FAE
:10266800A3D1EEC03BF1EFC03CF1F0C03DF1F1C0A9
:102678003EF1010E03014F6F010E506F0EEC06F094
:10268800020E0001EE2503014F6F000E0001EF213D
:102698000301506F000E0001F0210301516F000E7D
:1026A8000001F1210301526F140E536F7BEC0DF002
:1026B8000101632B79D176A114D0166B010E0301A9
:1026C8004F6F3BEC07F001012E51010A03E10B0E9D
:1026D800636F01D0632B3B510001EE5D006E00C0BB
:1026E80030F1140E03014F6F58EC07F0005203E06D
:1026F800010E0101166F58D1EEC03BF1EFC03CF15D
:10270800F0C03DF1F1C03EF1020E03014F6F010E22
:10271800506F0EEC06F0020E0001EE2503014F6F1C
:10272800000E0001EF210301506F000E0001F0219F
:102738000301516F000E0001F1210301526F150EC4
:10274800536F7BEC0DF00101632B2ED176A30ED0D5
:10275800156B020E03014F6F3BEC07F00101632B71
:102768003B510001EE5D006E00C032F1150E030111
:102778004F6F58EC07F0005203E0010E0101166F8D
:1027880013D1EEC03BF1EFC03CF1F0C03DF1F1C018
:102798003EF1020E03014F6F506B0EEC06F0020E75
:1027A8000001EE2503014F6F000E0001EF21030128
:1027B800506F000E0001F0210301516F000E00015F
:1027C800F1210301526F150E536F7BEC0DF00101DF
:1027D800632BEAD076A30ED0156B020E03014F6F60
:1027E8003BEC07F00101632B3B510001EE5D006EED
:1027F80000C031F1150E03014F6F58EC07F000527D
:1028080003E0010E0101166FCFD0EEC03BF1EFC01F
:102818003CF1F0C03DF1F1C03EF1010E03014F6FF4
:10282800506B0EEC06F0020E0001EE2503014F6F0F
:10283800000E0001EF210301506F000E0001F0218E
:102848000301516F000E0001F1210301526F140EB4
:10285800536F7BEC0DF00101632BA6D076A10ED04F
:10286800166B010E03014F6F3BEC07F00101632B60
:102878003B510001EE5D006E00C02FF1140E030104
:102888004F6F58EC07F0005203E0010E0101166F7C
:102898008BD02F0E03014F6F010E506F2DEC0CF0F3
:1028A8002F0E4F6F010E506F2EC151F3BCEC0CF080
:1028B800F30E0501046F000E056F790EF66E750EA6
:1028C800F76E000EF86E350EE16E020EE26E110E16
:1028D800006E010E016E95EC04F0350E066F020EC7
:1028E800076F100E086F000E096FFCEC00F0040E65
:1028F800046F010E056F8A0EF66E750EF76E000EE8
:10290800F86E460EE16E020EE26E110E006E010EBA
:10291800016E95EC04F0460E066F020E076F100E5E
:10292800086F000E096FFCEC00F0010E01011D6F2D
:102938000001F26B39D001016351000AD8B419D6ED
:102948006351010AD8B422D66351020AD8B43FD6DB
:102958006351030AD8B450D66351040AD8B46CD66C
:102968006351050AD8B47DD66351060AD8B4A3D6F4
:102978006351070AD8B4C0D66351080AD8B4E6D65A
:102988006351090AD8B4FDD663510A0AD8B422D7CC
:1029980063510B0AD8B439D763510C0AD8B45ED73F
:0A29A80063510D0AD8B475D7120070
:1029B200030E02016B6F829401017551000A03E15B
:1029C2006F5201E142D16F6A8284090E03014F6F97
:1029D20091EC06F0010E0001EE2503014F6F000E8F
:1029E2000001EF210301506F000E0001F0210301ED
:1029F200516F000E0001F1210301526F0C0E536F53
:102A02007BEC0DF002016B510001EE25006E000E11
:102A1200EF21016E000EF021026E000EF121036E15
:102A220000C01FF101C020F102C021F103C022F158
:102A320000C04FF301C050F302C051F303C052F380
:102A4200010E0301536F7BEC0DF01FC14FF320C148
:102A520050F321C151F322C152F3050E536F7BECA7
:102A62000DF00001976B020EEE25006E000EEF21B5
:102A7200016E000EF021026E000EF121036E0201C2
:102A82006B510026000E01220222032200C01FF118
:102A920001C020F102C021F103C022F100C04FF3B6
:102AA20001C050F302C051F303C052F30A0E0301F6
:102AB200536F7BEC0DF0020116510001EE25006E02
:102AC200000EEF21016E000EF021026E000EF121C8
:102AD200036E02016B510026000E01220222032224
:102AE20000C01FF101C020F102C021F103C022F198
:102AF20000C04FF301C050F302C051F303C052F3C0
:102B0200030E0301536F7BEC0DF002011351000A17
:102B1200D8B491D000019A51020AD8A48CD00201F3
:102B220010510001EE2503014F6F000E0001EF214D
:102B32000301506F000E0001F0210301516F000EDE
:102B42000001F1210301526F02016B5103014F2772
:102B5200000E502351235223020E536F7BEC0DF0D3
:102B6200020110510001EE2503014F6F000E00011A
:102B7200EF210301506F000E0001F0210301516F9C
:102B8200000E0001F1210301526F02016B5103019A
:102B92004F27000E502351235223060E536F7BEC16
:102BA2000DF00001986B020110510001EE250301A6
:102BB2004F6F000E0001EF210301506F000E000164
:102BC200F0210301516F000E0001F1210301526F48
:102BD200020E4F27000E50235123522302016B5144
:102BE20003014F27000E5023512352230B0E536F24
:102BF2007BEC0DF0020113510001EE2503014F6F32
:102C0200000E0001EF210301506F000E0001F021C0
:102C12000301516F000E0001F1210301526F020105
:102C22006B5103014F27000E502351235223040EF0
:102C3200536F7BEC0DF0030E0001C06F0101166BA8
:102C4200156B0001BE6B080EF26F090E03014F6F88
:102C520058EC07F00050010AD8A428D1090E03014C
:102C62004F6F91EC06F002016B510001EE25006EF0
:102C7200000EEF21016E000EF021026E000EF12116
:102C8200036E00C01FF101C020F102C021F103C098
:102C920022F100C04FF301C050F302C051F303C050
:102CA20052F3010E0301536F7BEC0DF01FC14FF382
:102CB20020C150F321C151F322C152F3050E536FCB
:102CC2007BEC0DF00001976B020EEE25006E000EFC
:102CD200EF21016E000EF021026E000EF121036E53
:102CE20002016B510026000E01220222032200C0C3
:102CF2001FF101C020F102C021F103C022F100C086
:102D02004FF301C050F302C051F303C052F30A0E55
:102D12000301536F7BEC0DF0020115510001EE250A
:102D2200006E000EEF21016E000EF021026E000E09
:102D3200F121036E02016B510026000E01220222D4
:102D4200032200C01FF101C020F102C021F103C023
:102D520022F100C04FF301C050F302C051F303C08F
:102D620052F3030E0301536F7BEC0DF00201145179
:102D7200000AD8B491D000019A51020AD8A48CD08A
:102D8200020110510001EE2503014F6F000E0001F8
:102D9200EF210301506F000E0001F0210301516F7A
:102DA200000E0001F1210301526F02016B51030178
:102DB2004F27000E502351235223020E536F7BECF8
:102DC2000DF0020110510001EE2503014F6F000EBC
:102DD2000001EF210301506F000E0001F0210301F9
:102DE200516F000E0001F1210301526F02016B517C
:102DF20003014F27000E502351235223060E536F17
:102E02007BEC0DF00001986B020110510001EE25E0
:102E120003014F6F000E0001EF210301506F000EFE
:102E22000001F0210301516F000E0001F1210301A5
:102E3200526F020E4F27000E5023512352230201DC
:102E42006B5103014F27000E5023512352230B0EC7
:102E5200536F7BEC0DF0020115510001EE250301C9
:102E62004F6F000E0001EF210301506F000E0001B1
:102E7200F0210301516F000E0001F1210301526F95
:102E820002016B5103014F27000E5023512352239D
:102E9200040E536F7BEC0DF0030E0001996F0101DC
:102EA200166B156B0001BE6B070EF26F010177A165
:102EB20027D0000E0201121902E1000E111920E0C2
:102EC2000001BE51000A1CE1010EBE6F28EC06F0A3
:102ED20000C0BFF00B0EF66E750EF76E000EF86EA8
:102EE200350EE16E020EE26E160E006E010E016EDE
:102EF20095EC04F0350E4F6F020E506FFAEC0BF0AA
:102F02000001BE51010A5BE1010177B158D0000E08
:102F12000201121902E1000E111951E00001BF5124
:102F2200EE25006E000EEF21016E000EF021026E02
:102F3200000EF121036E00C01FF101C020F102C09A
:102F420021F103C022F100C04FF301C050F302C0CF
:102F520051F303C052F3090E0301536F7BEC0DF0E2
:102F62000001BE6B1FC1F8F420C1F9F421C1FAF4CB
:102F720022C1FBF4230E0401FC6F010EFD6FC7ECAE
:102F820003F0210EF66E750EF76E000EF86E4B0E04
:102F9200E16E020EE26E100E006E010E016E95ECF5
:102FA20004F04B0E03014F6F020E506FFAEC0BF060
:102FB200230E03014F6F010E506FFAEC0BF012005B
:102FC2000201356B0001C9B103D00201359102D073
:102FD200020135810001C4B103D00201359302D050
:102FE200020135830001C96BC46B83B602D0D8805D
:102FF20001D0D890020135B103D002E2359101D05F
:10300200358183B802D0D88001D0D89035B303D0AF
:0E30120002E2359301D0358335C200F0120082
:10302000020E02016B6F829401017551000A09E1E1
:10303000090E03014F6F58EC07F00050010A01E040
:10304000CCD3090E03014F6F91EC06F0020114512D
:10305000000A05E000019A51010A01E045D1020190
:103060006B510001EE25006E000EEF21016E000E87
:10307000F021026E000EF121036E00C01FF101C0AD
:1030800020F102C021F103C022F100C04FF301C0C2
:1030900050F302C051F303C052F3010E0301536F0A
:1030A0007BEC0DF002011851000A11E01FC14FF333
:1030B00020C150F321C151F322C152F3070E030185
:1030C000536F7BEC0DF0010E0001976F0FD01FC105
:1030D0004FF320C150F321C151F322C152F3050E29
:1030E0000301536F7BEC0DF00001976B0201185147
:1030F0000001EE25006E000EEF21016E000EF021A2
:10310000026E000EF121036E020E0026000E012257
:103110000222032202016B510026000E012202222C
:10312000032200C01FF101C020F102C021F103C041
:1031300022F100C04FF301C050F302C051F303C0AD
:1031400052F30A0E0301536F7BEC0DF0020118518C
:103150000001EE25006E000EEF21016E000EF02141
:10316000026E000EF121036E02016B510026000E6B
:1031700001220222032200C01FF101C020F102C07F
:1031800021F103C022F100C04FF301C050F302C08F
:1031900051F303C052F3050E0301536F7BEC0DF0A6
:1031A00002011751000A2FE015510001EE25006EB3
:1031B000000EEF21016E000EF021026E000EF121D3
:1031C000036E02011751005E000E015A025A035AA3
:1031D0006B510026000E01220222032200C01FF1C3
:1031E00001C020F102C021F103C022F100C04FF361
:1031F00001C050F302C051F303C052F3070E0301A4
:10320000536F7BEC0DF001015E51000A43E00201B7
:1032100015510001EE25006E000EEF21016E000E2B
:10322000F021026E000EF121036E02016B510026A7
:10323000000E01220222032200C01FF101C020F172
:1032400002C021F103C022F100C04FF301C050F3CE
:1032500002C051F303C052F3050E0301536F7BEC20
:103260000DF0030E01011F2503014F6F000E010138
:1032700020210301506F000E010121210301516F34
:10328000000E010122210301526F030E536F7BECEC
:103290000DF02AD0020115510001EE25006E000E3E
:1032A000EF21016E000EF021026E000EF121036E7F
:1032B00002016B510026000E01220222032200C0EF
:1032C0001FF101C020F102C021F103C022F100C0B2
:1032D0004FF301C050F302C051F303C052F3030E89
:1032E0000301536F7BEC0DF002011451000AD8B4B6
:1032F0006BD2020E00019A6F02016B510001EE25A4
:10330000006E000EEF21016E000EF021026E000E25
:10331000F121036E00C01FF101C020F102C021F1B4
:1033200003C022F100C04FF301C050F302C051F3BB
:1033300003C052F3020E0301536F7BEC0DF0020148
:103340001851000A11E01FC14FF320C150F321C1F1
:1033500051F322C152F3080E0301536F7BEC0DF0C1
:10336000010E0001986F0FD01FC14FF320C150F321
:1033700021C151F322C152F3060E0301536F7BECBE
:103380000DF00001986B020118510001EE25006E4E
:10339000000EEF21016E000EF021026E000EF121F1
:1033A000036E020E0026000E0122022203220201F9
:1033B0006B510026000E01220222032200C01FF1E1
:1033C00001C020F102C021F103C022F100C04FF37F
:1033D00001C050F302C051F303C052F30B0E0301BE
:1033E000536F7BEC0DF0020118510001EE25006EC9
:1033F000000EEF21016E000EF021026E000EF12191
:10340000036E02016B510026000E012202220322EC
:1034100000C01FF101C020F102C021F103C022F160
:1034200000C04FF301C050F302C051F303C052F388
:10343000060E0301536F7BEC0DF002011751000AD9
:103440002FE014510001EE25006E000EEF21016EF9
:10345000000EF021026E000EF121036E02011751E1
:10346000005E000E015A025A035A6B510026000EEC
:1034700001220222032200C01FF101C020F102C07C
:1034800021F103C022F100C04FF301C050F302C08C
:1034900051F303C052F3080E0301536F7BEC0DF0A0
:1034A000020114510001EE25006E000EEF21016EA5
:1034B000000EF021026E000EF121036E02016B512D
:1034C0000026000E01220222032200C01FF101C0CB
:1034D00020F102C021F103C022F100C04FF301C06E
:1034E00050F302C051F303C052F3040E0301536FB3
:1034F0007BEC0DF0020110510001EE25006E000E74
:10350000EF21016E000EF021026E000EF121036E1C
:1035100002016B510026000E01220222032200C08C
:103520001FF101C020F102C021F103C022F100C04F
:103530004FF301C050F302C051F303C052F3010E28
:103540000301536F7BEC0DF002011851000A11E0EA
:103550001FC14FF320C150F321C151F322C152F3D7
:10356000070E0301536F7BEC0DF0010E0001976F06
:103570000FD01FC14FF320C150F321C151F322C11D
:1035800052F3050E0301536F7BEC0DF00001976BB6
:10359000020110510001EE25006E000EEF21016EB8
:1035A000000EF021026E000EF121036E020118518F
:1035B0000026000E012202220322020E0026000E27
:1035C0000122022203226B510026000E0122022258
:1035D000032200C01FF101C020F102C021F103C08D
:1035E00022F100C04FF301C050F302C051F303C0F9
:1035F00052F30A0E0301536F7BEC0DF002011051E0
:103600000001EE25006E000EEF21016E000EF0218C
:10361000026E000EF121036E020118510026000E09
:103620000122022203226B510026000E01220222F7
:10363000032200C01FF101C020F102C021F103C02C
:1036400022F100C04FF301C050F302C051F303C098
:1036500052F3050E0301536F7BEC0DF0020117517D
:10366000000A35E010510001EE25006E000EEF213A
:10367000016E000EF021026E000EF121036E0201B8
:1036800015510026000E0122022203221751005E6E
:10369000000E015A025A035A6B510026000E0122F5
:1036A0000222032200C01FF101C020F102C021F15B
:1036B00003C022F100C04FF301C050F302C051F328
:1036C00003C052F3070E0301536F7BEC0DF00101B1
:1036D0005E51000A49E0020115510001EE25006E1D
:1036E000000EEF21016E000EF021026E000EF1219E
:1036F000036E020110510026000E01220222032255
:103700006B510026000E01220222032200C01FF18D
:1037100001C020F102C021F103C022F100C04FF32B
:1037200001C050F302C051F303C052F3050E030170
:10373000536F7BEC0DF0030E01011F2503014F6F4A
:10374000000E010120210301506F000E0101212113
:103750000301516F000E010122210301526F030E7C
:10376000536F7BEC0DF030D0020115510001EE25B6
:10377000006E000EEF21016E000EF021026E000EB1
:10378000F121036E020110510026000E01220222D7
:1037900003226B510026000E01220222032200C0E8
:1037A0001FF101C020F102C021F103C022F100C0CD
:1037B0004FF301C050F302C051F303C052F3030EA4
:1037C0000301536F7BEC0DF0030E0001996F0101B3
:1037D000166B156B040E0001F26F010177A127D063
:1037E000000E0201121902E1000E111920E0000181
:1037F000BE51000A1CE1010EBE6F28EC06F000C0AD
:10380000BFF0D40EF66E740EF76E000EF86E350E25
:10381000E16E020EE26E160E006E010E016E95EC68
:1038200004F0350E4F6F020E506FFAEC0BF00001F2
:10383000BE51010AD8A4B3D0010177B1B0D0000EB7
:103840000201121902E1000E1119D8B4A8D0010129
:103850001E51000A52E10001BF51EE25006E000E1C
:10386000EF21016E000EF021026E000EF121036EB9
:1038700000C01FF101C020F102C021F103C022F1FC
:1038800000C04FF301C050F302C051F303C052F324
:10389000090E0301536F7BEC0DF00001BE6B1FC1DD
:1038A000F8F420C1F9F421C1FAF422C1FBF4230E8B
:1038B0000401FC6F010EFD6FC7EC03F0EA0EF66E1B
:1038C000740EF76E000EF86E4B0EE16E020EE26E95
:1038D000100E006E010E016E95EC04F04B0E03010C
:1038E0004F6F020E506FFAEC0BF0230E03014F6F77
:1038F000010E506FFAEC0BF052D001011E51000185
:10390000EE25006E000EEF21016E000EF021026E1A
:10391000000EF121036E00C01FF101C020F102C0B2
:1039200021F103C022F100C04FF301C050F302C0E7
:1039300051F303C052F3090E0301536F7BEC0DF0FA
:103940000001BE6B1FC1F8F420C1F9F421C1FAF4E3
:1039500022C1FBF4230E0401FC6F010EFD6FC7ECC6
:1039600003F0FA0EF66E740EF76E000EF86E5B0E34
:10397000E16E020EE26E100E006E010E016E95EC0D
:1039800004F05B0E03014F6F020E506FFAEC0BF068
:10399000230E03014F6F010E506FFAEC0BF0120073
:1039A0008284010E03014F6F58EC07F000524BE088
:1039B000010E03014F6F506B0EEC06F0530E020127
:1039C000356F370E366F200E376F4D0E386F6F0E16
:1039D000396F740E3A6F6F0E3B6F720E3C6F310E83
:1039E0003D6F530E3E6F740E3F6F610E406F720E4F
:1039F000416F740E426F436B350E03014F6F020E21
:103A0000506FFAEC0BF0F30E0501046F000E056F1A
:103A10009B0E066F000E076F100E086F000E096FE9
:103A2000FCEC00F0040E046F010E056FAC0E066F87
:103A3000000E076F100E086F000E096FFCEC00F00F
:103A4000010E01011D6F020E03014F6F58EC07F0CC
:103A500000522BE0020E03014F6F506B0EEC06F08C
:103A6000530E0201446F370E456F200E466F4D0E08
:103A7000476F6F0E486F740E496F6F0E4A6F720E6C
:103A80004B6F320E4C6F530E4D6F740E4E6F610EB6
:103A90004F6F720E506F740E516F526B440E0301D4
:103AA0004F6F020E506FFAEC0BF00A0E03014F6FCE
:103AB00058EC07F000521FE0010E0101166F010ED5
:103AC00003014F6F49EC07F0BF0EF66E730EF76EF1
:103AD000000EF86E530EE16E020EE26E150E006ED1
:103AE000010E016E95EC04F0530E03014F6F020EB0
:103AF000506FFAEC0BF00B0E03014F6F58EC07F010
:103B000000521FE0010E0101156F020E03014F6FFD
:103B100049EC07F0D40EF66E730EF76E000EF86ED9
:103B2000680EE16E020EE26E150E006E010E016E61
:103B300095EC04F0680E03014F6F020E506FFAEC23
:103B40000BF0050E03014F6F58EC07F000522EE00A
:103B5000010E03014F6FBDC050F378EC07F0000178
:103B6000976B530E02017D6F370E7E6F200E7F6FB5
:103B70004D0E806F310E816F200E826F530E836F5A
:103B8000700E846F650E856F650E866F640E876F8D
:103B9000200E886F550E896F500E8A6F8B6B7D0ECD
:103BA00003014F6F020E506FFAEC0BF0060E03018B
:103BB0004F6F58EC07F000522EE096C04FF3010E05
:103BC0000301506F78EC07F00001986B530E02016F
:103BD0008C6F370E8D6F200E8E6F4D0E8F6F320EE5
:103BE000906F200E916F530E926F700E936F650E53
:103BF000946F650E956F640E966F200E976F550E3D
:103C0000986F500E996F9A6B8C0E03014F6F020ED6
:103C1000506FFAEC0BF0030E03014F6F58EC07F0F6
:103C2000005208E101011651010A03E176A101D019
:103C300001D02AD0000199A127D09991010E03014A
:103C40004F6F3BEC07F0530E02019B6F370E9C6FDA
:103C5000200E9D6F4D0E9E6F310E9F6F200EA06F38
:103C6000530EA16F740EA26F6F0EA36F700EA46F30
:103C7000650EA56F640EA66FA76B9B0E03014F6FB9
:103C8000020E506FFAEC0BF0040E03014F6F58EC6C
:103C900007F0005208E101011551010A03E176A382
:103CA00001D001D02AD0000199A327D09993020E08
:103CB00003014F6F3BEC07F0530E0201A86F370E64
:103CC000A96F200EAA6F4D0EAB6F320EAC6F200E97
:103CD000AD6F530EAE6F740EAF6F6F0EB06F700E90
:103CE000B16F650EB26F640EB36FB46BA80E0301B3
:103CF0004F6F020E506FFAEC0BF002011351000AE5
:103D000005E000019A51010A01E002D000019993F7
:103D1000010177A14DD0010E03014F6F3BEC07F07D
:103D2000020E4F6F3BEC07F00101166B156B060E90
:103D30000001F26F010E6F6E210EF66E740EF76EBB
:103D4000000EF86EB50EE16E020EE26E110E006E00
:103D5000010E016E95EC04F0B50E03014F6F020EDB
:103D6000506FFAEC0BF0090E03014F6F91EC06F067
:103D7000F30E0501046F000E056F4D0E066F000E69
:103D8000076F100E086F000E096FFCEC00F0040EB8
:103D9000046F010E056F1A0E066F000E076F100EEE
:103DA000086F000E096FFCEC00F0010E01011D6FA1
:103DB0007551000A4BE0010E03014F6F3BEC07F019
:103DC000020E4F6F3BEC07F0060E0001F26F01018F
:103DD000166B156B320EF66E740EF76E000EF86EE3
:103DE000C60EE16E020EE26E120E006E010E016E44
:103DF00095EC04F0C60E03014F6F020E506FFAEC03
:103E00000BF0090E03014F6F91EC06F0F30E050164
:103E1000046F000E056F4D0E066F000E076F100E3B
:103E2000086F000E096FFCEC00F0040E046F010E29
:103E3000056F3C0E066F000E076F100E086F000E28
:103E4000096FFCEC00F0010E01011D6F7851010AB1
:103E50004EE102010F534BE0010E03014F6F3BECAB
:103E600007F0020E4F6F3BEC07F0060E0001F26FF9
:103E70000101166B156B440EF66E740EF76E000E94
:103E8000F86ED80EE16E020EE26E150E006E010E97
:103E9000016E95EC04F0D80E03014F6F020E506FC7
:103EA000FAEC0BF0090E03014F6F91EC06F0F30EE4
:103EB0000501046F000E056F4D0E066F000E076FB3
:103EC000100E086F000E096FFCEC00F0040E046F7A
:103ED000010E056F2B0E066F000E076F100E086F98
:103EE000000E096FFCEC00F0010E01011D6F0001D6
:103EF0009951000A28E1010EF26FBE6B090E030111
:103F00004F6F91EC06F0F30E0501046F000E056F84
:103F1000730E066F000E076F100E086F000E096F0C
:103F2000FCEC00F0040E046F010E056FAC0E066F82
:103F3000000E076F100E086F000E096FFCEC00F00A
:103F4000010E01011D6F0001F251050A04E0F2515A
:103F5000060A01E04CD003014F6B91EC06F0000E15
:103F60000201121902E1000E111941E01151000184
:103F7000EE2503014F6F020112510001EF210301F1
:103F8000506F000E0001F0210301516F000E00017F
:103F9000F1210301526F090E536F7BEC0DF0590EA6
:103FA000F66E740EF76E000EF86EED0EE16E020EF8
:103FB000E26E150E006E010E016E95EC04F0ED0E32
:103FC0004F6F020E506FFAEC0BF0040E0501046FF8
:103FD000010E056F840E066F000E076F100E086F3E
:103FE000000E096FFCEC00F0010E01011D6F1200C4
:103FF000020E02016B6F829401017551000A09E102
:10400000090E03014F6F58EC07F00050010A01E060
:10401000DCD102011451000A05E000019A51010AA5
:1040200001E088D0090E03014F6F91EC06F0020108
:104030006B510001EE25006E000EEF21016E000EA7
:10404000F021026E000EF121036E00C01FF101C0CD
:1040500020F102C021F103C022F100C04FF301C0E2
:1040600050F302C051F303C052F3010E0301536F2A
:104070007BEC0DF01FC14FF320C150F321C151F370
:1040800022C152F3050E536F7BEC0DF00001976BCC
:10409000020EEE25006E000EEF21016E000EF021E3
:1040A000026E000EF121036E02016B510026000E1C
:1040B00001220222032200C01FF101C020F102C030
:1040C00021F103C022F100C04FF301C050F302C040
:1040D00051F303C052F30A0E0301536F7BEC0DF052
:1040E000020115510001EE25006E000EEF21016E58
:1040F000000EF021026E000EF121036E02016B51E1
:104100000026000E01220222032200C01FF101C07E
:1041100020F102C021F103C022F100C04FF301C021
:1041200050F302C051F303C052F3030E0301536F67
:104130007BEC0DF002011451000AD8B43DD100010E
:104140009A51020AD8A438D1090E03014F6F91EC9D
:1041500006F002016B510001EE25006E000EEF210A
:10416000016E000EF021026E000EF121036E00C000
:104170001FF101C020F102C021F103C022F100C0F3
:104180004FF301C050F302C051F303C052F3020ECB
:104190000301536F7BEC0DF01FC14FF320C150F3AF
:1041A00021C151F322C152F3060E536F7BEC0DF087
:1041B0000001976B020EEE25006E000EEF21016EDE
:1041C000000EF021026E000EF121036E02016B5110
:1041D0000026000E01220222032200C01FF101C0AE
:1041E00020F102C021F103C022F100C04FF301C051
:1041F00050F302C051F303C052F30B0E0301536F8F
:104200007BEC0DF0020115510001EE25006E000E51
:10421000EF21016E000EF021026E000EF121036EFF
:1042200002016B510026000E01220222032200C06F
:104230001FF101C020F102C021F103C022F100C032
:104240004FF301C050F302C051F303C052F3040E08
:104250000301536F7BEC0DF0020110510001EE25BC
:10426000006E000EEF21016E000EF021026E000EB6
:10427000F121036E02016B510026000E0122022281
:10428000032200C01FF101C020F102C021F103C0D0
:1042900022F100C04FF301C050F302C051F303C03C
:1042A00052F3010E0301536F7BEC0DF0020110512C
:1042B0000001EE25006E000EEF21016E000EF021D0
:1042C000026E000EF121036E02016B510026000EFA
:1042D00001220222032200C01FF101C020F102C00E
:1042E00021F103C022F100C04FF301C050F302C01E
:1042F00051F303C052F3050E0301536F7BEC0DF035
:104300000001986B020110510001EE25006E000EB5
:10431000EF21016E000EF021026E000EF121036EFE
:10432000020E0026000E01220222032202016B511E
:104330000026000E01220222032200C01FF101C04C
:1043400020F102C021F103C022F100C04FF301C0EF
:1043500050F302C051F303C052F30A0E0301536F2E
:104360007BEC0DF0020114510001EE25006E000EF1
:10437000EF21016E000EF021026E000EF121036E9E
:1043800002016B510026000E01220222032200C00E
:104390001FF101C020F102C021F103C022F100C0D1
:1043A0004FF301C050F302C051F303C052F3030EA8
:1043B0000301536F7BEC0DF0030E0001996F0101B7
:1043C000166B156B070E0001F26F010177A127D064
:1043D000000E0201121902E1000E111920E0000185
:1043E000BE51000A1CE1010EBE6F28EC06F000C0B1
:1043F000BFF0420EF66E750EF76E000EF86E350EBB
:10440000E16E020EE26E160E006E010E016E95EC6C
:1044100004F0350E4F6F020E506FFAEC0BF00001F6
:10442000BE51010A5BE1010177B158D0000E0201D3
:10443000121902E1000E111951E00001BF51EE25E1
:10444000006E000EEF21016E000EF021026E000ED4
:10445000F121036E00C01FF101C020F102C021F163
:1044600003C022F100C04FF301C050F302C051F36A
:1044700003C052F3090E0301536F7BEC0DF00001F2
:10448000BE6B1FC1F8F420C1F9F421C1FAF422C1B6
:10449000FBF4230E0401FC6F010EFD6FC7EC03F06B
:1044A000580EF66E750EF76E000EF86E4B0EE16E3E
:1044B000020EE26E100E006E010E016E95EC04F01D
:1044C0004B0E03014F6F020E506FFAEC0BF0230EF0
:0E44D00003014F6F010E506FFAEC0BF012005B
:1044DE008284010E03014F6F58EC07F000524DE03D
:1044EE00010E03014F6F010E506F0EEC06F0530ECE
:1044FE000201356F330E366F200E376F4D0E386F4B
:10450E006F0E396F740E3A6F6F0E3B6F720E3C6FFB
:10451E00310E3D6F530E3E6F740E3F6F610E406F46
:10452E00720E416F740E426F436B350E03014F6F67
:10453E00020E506FFAEC0BF0839EF30E0501046F22
:10454E00000E056FCA0E066F000E076F100E086F75
:10455E00000E096FFCEC00F0040E046F010E056FE7
:10456E00AC0E066F000E076F100E086F000E096F6F
:10457E00FCEC00F0010E01011D6F020E03014F6FE6
:10458E0058EC07F000522DE0020E03014F6F010EA2
:10459E00506F0EEC06F0530E0201446F330E456F52
:1045AE00200E466F4D0E476F6F0E486F740E496F9B
:1045BE006F0E4A6F720E4B6F320E4C6F530E4D6F65
:1045CE00740E4E6F610E4F6F720E506F740E516FF0
:1045DE00526B440E03014F6F020E506FFAEC0BF04C
:1045EE00839E050E03014F6F58EC07F0005230E02A
:1045FE00010E03014F6FBDC050F378EC07F00101BF
:10460E00166B0001976B530E0201536F330E546FEE
:10461E00200E556F4D0E566F6F0E576F740E586FEE
:10462E006F0E596F720E5A6F310E5B6F200E5C6FEC
:10463E00460E5D6F610E5E6F730E5F6F740E606F70
:10464E00616B530E03014F6F020E506FFAEC0BF0BD
:10465E00070E03014F6F58EC07F000522EE00301D6
:10466E004F6BBDC050F378EC07F0010E0001976F51
:10467E00530E0201626F330E636F200E646F4D0E88
:10468E00656F6F0E666F740E676F6F0E686F720ECA
:10469E00696F310E6A6F200E6B6F530E6C6F6C0E5E
:1046AE006D6F6F0E6E6F770E6F6F706B620E030114
:1046BE004F6F020E506FFAEC0BF0060E03014F6FA8
:1046CE0058EC07F0005230E096C04FF3010E030194
:1046DE00506F78EC07F00101156B0001986B530ECB
:1046EE000201716F330E726F200E736F4D0E746F69
:1046FE006F0E756F740E766F6F0E776F720E786F1A
:10470E00320E796F200E7A6F460E7B6F610E7C6FC4
:10471E00730E7D6F740E7E6F7F6B710E03014F6F84
:10472E00020E506FFAEC0BF0080E03014F6F58ECAF
:10473E0007F000522EE096C04FF30301506B78EC59
:10474E0007F0010E0001986F530E0201806F330EB9
:10475E00816F200E826F4D0E836F6F0E846F740EFD
:10476E00856F6F0E866F720E876F320E886F200EFA
:10477E00896F530E8A6F6C0E8B6F6F0E8C6F770E68
:10478E008D6F8E6B800E03014F6F020E506FFAEC21
:10479E000BF00A0E03014F6F58EC07F000521FE0AA
:1047AE00010E0101166F010E03014F6F49EC07F068
:1047BE00F10EF66E6F0EF76E000EF86E8F0EE16E46
:1047CE00020EE26E160E006E010E016E95EC04F0F6
:1047DE008F0E03014F6F020E506FFAEC0BF00B0EA3
:1047EE0003014F6F58EC07F000521FE0010E01015C
:1047FE00156F020E03014F6F49EC07F0070EF66EB0
:10480E00700EF76E000EF86EA50EE16E020EE26EE1
:10481E00160E006E010E016E95EC04F0A50E03014E
:10482E004F6F020E506FFAEC0BF0030E03014F6F39
:10483E0058EC07F000522CE00001C091010E03016C
:10484E004F6F3BEC07F0530E0201BB6F330EBC6F84
:10485E00200EBD6F4D0EBE6F6F0EBF6F740EC06F0C
:10486E006F0EC16F720EC26F310EC36F200EC46F0A
:10487E00530EC56F740EC66F6F0EC76F700EC86F76
:10488E00C96BBB0E03014F6F020E506FFAEC0BF0AB
:10489E00040E03014F6F58EC07F000522CE000019C
:1048AE00C093020E03014F6F3BEC07F0530E020153
:1048BE00CA6F330ECB6F200ECC6F4D0ECD6F6F0EB9
:1048CE00CE6F740ECF6F6F0ED06F720ED16F320E21
:1048DE00D26F200ED36F530ED46F740ED56F6F0E32
:1048EE00D66F700ED76FD86BCA0E03014F6F020EC4
:1048FE00506FFAEC0BF00C0E03014F6F58EC07F0F3
:10490E00005201E0838E01011651010A51E176A198
:10491E004FD000019751000A4BE1010E03014F6F7A
:10492E003BEC07F0020E4F6F3BEC07F0050E00015B
:10493E00F26F0101166B156B3B0EF66E700EF76E75
:10494E00000EF86ED90EE16E020EE26E140E006EBF
:10495E00010E016E95EC04F0D90E03014F6F020E9D
:10496E00506FFAEC0BF0090E03014F6F91EC06F04D
:10497E00F30E0501046F000E056F4D0E066F000E4F
:10498E00076F100E086F000E096FFCEC00F0040E9E
:10499E00046F010E056F5E0E066F000E076F100E90
:1049AE00086F000E096FFCEC00F0010E01011D6F87
:1049BE0001011551010A51E176A34FD00001985122
:1049CE00000A4BE1010E03014F6F3BEC07F0020EA4
:1049DE004F6F3BEC07F0050E0001F26F0101166BF5
:1049EE00156B4F0EF66E700EF76E000EF86EED0E26
:1049FE00E16E020EE26E140E006E010E016E95EC6B
:104A0E0004F0ED0E03014F6F020E506FFAEC0BF037
:104A1E00090E03014F6F91EC06F0F30E0501046FC2
:104A2E00000E056F4D0E066F000E076F100E086F0D
:104A3E00000E096FFCEC00F0040E046F010E056F02
:104A4E005E0E066F000E076F100E086F000E096FD8
:104A5E00FCEC00F0010E01011D6F02011351000A62
:104A6E0005E000019A51010A01E002D00001C09355
:104A7E00010177A14ED002010E534BE0010E03014E
:104A8E004F6F3BEC07F0020E4F6F3BEC07F001014E
:104A9E00166B156B050E0001F26F630EF66E700E3F
:104AAE00F76E000EF86E010EE16E030EE26E110E41
:104ABE00006E010E016E95EC04F0010E03014F6FB6
:104ACE00030E506FFAEC0BF0090E03014F6F91ECD1
:104ADE0006F0F30E0501046F000E056F4D0E066F06
:104AEE00000E076F100E086F000E096FFCEC00F041
:104AFE00040E046F010E056F1A0E066F000E076F7F
:104B0E00100E086F000E096FFCEC00F0010E010193
:104B1E001D6F01017551000A4BE0010E03014F6F2D
:104B2E003BEC07F0020E4F6F3BEC07F00101166BEA
:104B3E00156B050E0001F26F740EF66E700EF76EA9
:104B4E00000EF86E120EE16E030EE26E110E006E86
:104B5E00010E016E95EC04F0120E03014F6F030E61
:104B6E00506FFAEC0BF0090E03014F6F91EC06F04B
:104B7E00F30E0501046F000E056F4D0E066F000E4D
:104B8E00076F100E086F000E096FFCEC00F0040E9C
:104B9E00046F010E056F3C0E066F000E076F100EB0
:104BAE00086F000E096FFCEC00F0010E01011D6F85
:104BBE007851010A4EE102010F534BE0010E030141
:104BCE004F6F3BEC07F0020E4F6F3BEC07F001010D
:104BDE00166B156B050E0001F26F850EF66E700EDC
:104BEE00F76E000EF86E230EE16E030EE26E170ED8
:104BFE00006E010E016E95EC04F0230E03014F6F53
:104C0E00030E506FFAEC0BF0090E03014F6F91EC8F
:104C1E0006F0F30E0501046F000E056F4D0E066FC4
:104C2E00000E076F100E086F000E096FFCEC00F0FF
:104C3E00040E046F010E056F2B0E066F000E076F2C
:104C4E00100E086F000E096FFCEC00F0010E010152
:104C5E001D6F0001C051000A28E1020EF26FBE6BFB
:104C6E00090E03014F6F91EC06F0F30E0501046F70
:104C7E00000E056FDB0E066F000E076F100E086F2D
:104C8E00000E096FFCEC00F0040E046F010E056FB0
:104C9E00AC0E066F000E076F100E086F000E096F38
:104CAE00FCEC00F0010E01011D6F0001F251050A2E
:104CBE0004E0F251060A01E04CD003014F6B91EC77
:104CCE0006F0000E0201121902E1000E111941E068
:104CDE0011510001EE2503014F6F02011251000127
:104CEE00EF210301506F000E0001F0210301516FFF
:104CFE00000E0001F1210301526F090E536F7BEC80
:104D0E000DF09C0EF66E700EF76E000EF86E3A0EEB
:104D1E00E16E030EE26E150E006E010E016E95EC45
:104D2E0004F03A0E4F6F030E506FFAEC0BF0040EB8
:104D3E000501046F010E056F840E066F000E076FDE
:104D4E00100E086F000E096FFCEC00F0010E010151
:044D5E001D6F1200B3
:104D62007DD2010175A103D0632B020E646F75A37E
:104D720004D0030E636F010E646FC9D2020E0301E9
:104D82004F6F506B0EEC06F0020E0001EE25030190
:104D92004F6F000E0001EF210301506F000E000162
:104DA200F0210301516F000E0001F1210301526F46
:104DB200150E536F7BEC0DF00101632BA8D276A385
:104DC20008D0156B020E03014F6F3BEC07F0010197
:104DD200632B150E03014F6F58EC07F0005203E0EE
:104DE200010E0101156F93D2010E03014F6F506B3B
:104DF2000EEC06F0020E0001EE2503014F6F000ECD
:104E02000001EF210301506F000E0001F0210301A8
:104E1200516F000E0001F1210301526F140E536F06
:104E22007BEC0DF00101632B76A108D0166B010E0D
:104E320003014F6F3BEC07F00101632B140E0301DA
:104E42004F6F58EC07F0005203E0010E0101166F9C
:104E52005ED201017551000A19E0EEC059F1EFC0AE
:104E62005AF1F0C05BF1F1C05CF1010E03014F6F2A
:104E7200010E506F0EEC06F04F6BBDC050F378EC94
:104E820007F0010E0001976F0101632B40D27551AB
:104E9200000A12E0632BEEC047F1EFC048F1F0C008
:104EA20049F1F1C04AF1010E03014F6FBDC050F349
:104EB20078EC07F00001976B2AD201017551000AC4
:104EC20012E0632BEEC069F1EFC06AF1F0C06BF142
:104ED200F1C06CF103014F6BBDC050F378EC07F0E9
:104EE200010E0001976F13D201017551000A24E0EF
:104EF2006451020A02E1632B02D0110E636FEEC00D
:104F020065F1EFC066F1F0C067F1F1C068F1010E22
:104F120003014F6F3BEC07F001015951655D006ED3
:104F220000C04CF15951475D006E00C04FF169510C
:104F3200655D006E00C050F1EAD17551000A19E0BA
:104F4200EEC059F1EFC05AF1F0C05BF1F1C05CF173
:104F5200020E03014F6F010E506F0EEC06F096C069
:104F62004FF3506B78EC07F0010E0001986F0101CE
:104F7200632BCDD17551000A12E0632BEEC047F1CD
:104F8200EFC048F1F0C049F1F1C04AF196C04FF3C9
:104F9200010E0301506F78EC07F00001986BB7D156
:104FA20001017551000A12E0632BEEC069F1EFC0F6
:104FB2006AF1F0C06BF1F1C06CF196C04FF30301DE
:104FC200506B78EC07F0010E0001986FA0D101013F
:104FD2007551000A1EE0632BEEC065F1EFC066F169
:104FE200F0C067F1F1C068F1020E03014F6F3BECB4
:104FF20007F001015951655D006E00C04EF1595133
:10500200475D006E00C053F16951655D006E00C0DE
:1050120054F17DD17551000A18E0EEC059F1EFC08C
:105022005AF1F0C05BF1F1C05CF1020E03014F6F67
:10503200506B0EEC06F096C04FF3506B78EC07F015
:10504200010E0001986F0101632B61D17551000AB5
:1050520012E0632BEEC047F1EFC048F1F0C049F116
:10506200F1C04AF196C04FF3010E0301506F78EC84
:1050720007F00001986B4BD101017551000A12E053
:10508200632BEEC069F1EFC06AF1F0C06BF1F1C0C1
:105092006CF196C04FF30301506B78EC07F0010EF0
:1050A2000001986F34D101017551000A1EE0632B93
:1050B200EEC065F1EFC066F1F0C067F1F1C068F1D2
:1050C200020E03014F6F3BEC07F001015951655D80
:1050D200006E00C04DF15951475D006E00C055F1A0
:1050E2006951655D006E00C056F111D17551000A1B
:1050F20018E0EEC059F1EFC05AF1F0C05BF1F1C017
:105102005CF1010E03014F6F506B0EEC06F04F6B1A
:10511200BDC050F378EC07F0010E0001976F01015A
:10512200632BF5D07551000A12E0632BEEC047F1F4
:10513200EFC048F1F0C049F1F1C04AF1010E03019C
:105142004F6FBDC050F378EC07F00001976BDFD0D2
:1051520001017551000A12E0632BEEC069F1EFC044
:105162006AF1F0C06BF1F1C06CF103014F6BBDC08D
:1051720050F378EC07F0010E0001976FC8D00101DF
:105182007551000A1EE0632BEEC065F1EFC066F1B7
:10519200F0C067F1F1C068F1010E03014F6F3BEC03
:1051A20007F001015951655D006E00C04BF1595184
:1051B200475D006E00C051F16951655D006E00C02F
:1051C20052F1A5D04B0E03014F6F010E506F64C117
:1051D20051F3BCEC0CF0F30E0501046F000E056FE9
:1051E2009B0EF66E750EF76E000EF86E350EE16EC2
:1051F200020EE26E110E006E010E016E95EC04F0CD
:10520200350E066F020E076F100E086F000E096F43
:10521200FCEC00F0040E046F010E056FAC0EF66E8E
:10522200750EF76E000EF86E460EE16E020EE26E1D
:10523200110E006E010E016E95EC04F0460E066F23
:10524200020E076F100E086F000E096FFCEC00F0E3
:10525200010E01011D6F0001F26B59D00101635172
:10526200000AD8B47ED56351010AD8B487D56351F8
:10527200020AD8B4A4D56351030AD8B4B5D5635190
:10528200040AD8B4D1D56351050AD8B4E2D5635122
:10529200060AD8B4FCD56351070AD8B40ED66351B6
:1052A200080AD8B421D66351090AD8B446D6635144
:1052B2000A0AD8B45FD663510B0AD8B471D66351C7
:1052C2000C0AD8B484D663510D0AD8B4A3D663515C
:1052D2000E0AD8B4BBD663510F0AD8B4CDD66351E7
:1052E200100AD8B4E0D66351110AD8B4FFD663517C
:1052F200120AD8B417D76351130AD8B429D7635105
:10530200140AD8B43CD76351150AD8B45BD712003B
:10531200828472C104F5F30E0501056F000E066F5B
:1053220024EC01F073C104F5040E056F010E066F43
:1053320024EC01F0010E01011D6F010E03014F6FFC
:1053420058EC07F000524BE0010E03014F6F506B17
:105352000EEC06F0530E0201356F340E366F200E3E
:10536200376F4D0E386F6F0E396F740E3A6F6F0EC6
:105372003B6F720E3C6F310E3D6F530E3E6F740EDB
:105382003F6F610E406F720E416F740E426F436B3E
:10539200350E03014F6F020E506FFAEC0BF0F30E55
:1053A2000501046F000E056F9B0E066F000E076F5E
:1053B200100E086F000E096FFCEC00F0040E046F73
:1053C200010E056FAC0E066F000E076F100E086F10
:1053D200000E096FFCEC00F0010E01011D6F020EC0
:1053E20003014F6F58EC07F000522BE0020E03014D
:1053F2004F6F506B0EEC06F0530E0201446F340EE9
:10540200456F200E466F4D0E476F6F0E486F740E3C
:10541200496F6F0E4A6F720E4B6F320E4C6F530E06
:105422004D6F740E4E6F610E4F6F720E506F740E91
:10543200516F526B440E03014F6F020E506FFAEC24
:105442000BF00A0E03014F6F58EC07F000521FE0F9
:10545200010E0101166F010E03014F6F49EC07F0B7
:10546200CF0EF66E700EF76E000EF86E530EE16EF2
:10547200020EE26E150E006E010E016E95EC04F046
:10548200530E03014F6F020E506FFAEC0BF00B0E2E
:1054920003014F6F58EC07F000521FE0010E0101AB
:1054A200156F020E03014F6F49EC07F0E40EF66E22
:1054B200700EF76E000EF86E680EE16E020EE26E6E
:1054C200150E006E010E016E95EC04F0680E0301DC
:1054D2004F6F020E506FFAEC0BF0050E03014F6F87
:1054E20058EC07F0005230E0010E03014F6FBDC0CF
:1054F20050F378EC07F00101166B0001976B530E25
:1055020002017D6F340E7E6F200E7F6F4D0E806F15
:10551200310E816F200E826F530E836F700E846F77
:10552200650E856F650E866F640E876F200E886F1D
:10553200550E896F500E8A6F8B6B7D0E03014F6F74
:10554200020E506FFAEC0BF0070E03014F6F58EC8E
:1055520007F0005222E003014F6BBDC050F378EC1C
:1055620007F00101156B010E0001976F080EF66E30
:10557200710EF76E000EF86E8C0EE16E020EE26E88
:10558200110E006E010E016E95EC04F08C0E0301FB
:105592004F6F020E506FFAEC0BF0060E03014F6FC5
:1055A20058EC07F000522EE096C04FF3010E0301B3
:1055B200506F78EC07F00001986B530E02019D6F5B
:1055C200340E9E6F200E9F6F4D0EA06F320EA16F94
:1055D200200EA26F530EA36F700EA46F650EA56FFF
:1055E200650EA66F640EA76F200EA86F550EA96FE9
:1055F200500EAA6FAB6B9D0E03014F6F020E506FE0
:10560200FAEC0BF0080E03014F6F58EC07F0005252
:1056120020E096C04FF30301506B78EC07F0010EC7
:105622000001986F280EF66E710EF76E000EF86E7E
:10563200AC0EE16E020EE26E110E006E010E016EF4
:1056420095EC04F0AC0E03014F6F020E506FFAECB2
:105652000BF0030E03014F6F58EC07F0005228E0E5
:1056620000019991010E03014F6F3BEC07F0530EBD
:105672000201BD6F340EBE6F200EBF6F4D0EC06FA4
:10568200310EC16F200EC26F530EC36F740EC46F02
:105692006F0EC56F700EC66F650EC76F640EC86F52
:1056A200C96BBD0E03014F6F020E506FFAEC0BF087
:1056B200040E03014F6F58EC07F0005228E000017E
:1056C2009993020E03014F6F3BEC07F0530E020158
:1056D200CA6F340ECB6F200ECC6F4D0ECD6F320ED3
:1056E200CE6F200ECF6F530ED06F740ED16F6F0E30
:1056F200D26F700ED36F650ED46F640ED56FD66BFA
:10570200CA0E03014F6F020E506FFAEC0BF001014B
:105712001651010A51E176A14FD000019751000ABA
:105722004BE1010E03014F6F3BEC07F0020E4F6F8E
:105732003BEC07F0060E0001F26F0101166B156BD0
:10574200530EF66E710EF76E000EF86ED70EE16E06
:10575200020EE26E110E006E010E016E95EC04F067
:10576200D70E03014F6F020E506FFAEC0BF0090EC9
:1057720003014F6F91EC06F0F30E0501046F000E6A
:10578200056F4D0E066F000E076F100E086F000EAC
:10579200096FFCEC00F0040E046F010E056F5E0E43
:1057A200066F000E076F100E086F000E096FFCECFB
:1057B20000F0010E01011D6F01011551010A51E1B5
:1057C20076A34FD000019851000A4BE1010E03016C
:1057D2004F6F3BEC07F0020E4F6F3BEC07F0060EEB
:1057E2000001F26F0101166B156B640EF66E710EFD
:1057F200F76E000EF86EE80EE16E020EE26E110E0A
:10580200006E010E016E95EC04F0E80E03014F6F7D
:10581200020E506FFAEC0BF0090E03014F6F91EC80
:1058220006F0F30E0501046F000E056F4D0E066FB4
:10583200000E076F100E086F000E096FFCEC00F0EF
:10584200040E046F010E056F5E0E066F000E076FE9
:10585200100E086F000E096FFCEC00F0010E010142
:105862001D6F02011351000A05E000019A51010A5D
:1058720001E002D000019993010177A14DD0010E00
:1058820003014F6F3BEC07F0020E4F6F3BEC07F04A
:105892000101166B156B060E0001F26F010E6F6EA1
:1058A200750EF66E710EF76E000EF86EF90EE16E61
:1058B200020EE26E110E006E010E016E95EC04F006
:1058C200F90E03014F6F020E506FFAEC0BF0090E46
:1058D20003014F6F91EC06F0F30E0501046F000E09
:1058E200056F4D0E066F000E076F100E086F000E4B
:1058F200096FFCEC00F0040E046F010E056F1A0E26
:10590200066F000E076F100E086F000E096FFCEC99
:1059120000F0010E01011D6F7851010A4EE10201F2
:105922000F534BE0010E03014F6F3BEC07F0020EE9
:105932004F6F3BEC07F0060E0001F26F0101166B90
:10594200156B860EF66E710EF76E000EF86E0A0E6D
:10595200E16E030EE26E150E006E010E016E95EC05
:1059620004F00A0E03014F6F030E506FFAEC0BF0B6
:10597200090E03014F6F91EC06F0F30E0501046F5F
:10598200000E056F4D0E066F000E076F100E086FAA
:10599200000E096FFCEC00F0040E046F010E056F9F
:1059A2002B0E066F000E076F100E086F000E096FA8
:1059B200FCEC00F0010E01011D6F01017551000A9E
:1059C2004BE0010E03014F6F3BEC07F0020E4F6FED
:1059D2003BEC07F0060E0001F26F0101166B156B2E
:1059E2009B0EF66E710EF76E000EF86E1F0EE16ED4
:1059F200030EE26E120E006E010E016E95EC04F0C3
:105A02001F0E03014F6F030E506FFAEC0BF0090EDD
:105A120003014F6F91EC06F0F30E0501046F000EC7
:105A2200056F4D0E066F000E076F100E086F000E09
:105A3200096FFCEC00F0040E046F010E056F3C0EC2
:105A4200066F000E076F100E086F000E096FFCEC58
:105A520000F0010E01011D6F00019951000A28E1B9
:105A6200010EF26FBE6B090E03014F6F91EC06F04F
:105A7200F30E0501046F000E056F730E066F000E24
