:0400000006EF33F0E4
:020006001200E6
:1000080000C019F001C018F004C017F008C016F0BD
:100018000CC015F0F2A42ED00001912B8186010EA0
:100028008D6FD151FF0A03E1D16BD66B01D0D12B73
:100038000101EC51FF0A04E1EC6B0001D76B02D01F
:100048000101EC2B190E0001915D0FE3916B010E7C
:10005800D227000ED323D423D5235052010ED8A47F
:10006800000E506E8196010E8F6FF30ED76ECA0E7A
:10007800D66EF294F0A017D00001D651000A03E121
:10008800D62BD16B01D0D62B050ED65D0BE3130E04
:10009800D15D07E3D151150804E3010E936FD66BC8
:1000A80001D0D66BF090F0A21DD00001D751000A04
:1000B80004E1D72B0101EC6B02D00001D72B000122
:1000C800050ED75D0EE3130E0101EC5D08E3EC515C
:1000D800150805E3010E0001946FD76B02D00001EB
:1000E800D76BF092F2A22FD00001D82BD851FF0A7B
:1000F80001E1D86B030E046ED8C000F0EFD808C039
:1001080000F00050010A0EE1CD5305E0535202E021
:10011800828201D08292CE5305E0515202E0828061
:1001280001D08290030E046ED8C000F0D7D808C062
:1001380000F00050000A06E1CD5301E08282CE5360
:1001480001E08280F29219C000F018C001F017C0D7
:0C01580004F016C008F015C00CF01100F7
:0E016400ACB202D00000FCD7EFC4ADFF120019
:10017200EFC4C9FFC7B002D00000FCD7C9CF00F05E
:02018200120069
:10018400086A096A100E0C6E0134083609360450E8
:10019400085E0550D8A0053C095ED8B007D00450CD
:1001A40008260550D8B0053C0926D89000360136FB
:0601B4000C2EEAD7120038
:1001BA00F250026EF29E0500FF6A0150FE6E005078
:0801CA00FD6E02BEF28E120070
:1001D200A6A202D00000FCD7A69CEDC4A9FFEEC4E3
:1001E200A8FFA69EA684F2CF00F0F29E550EA76E3F
:1001F200AA0EA76EA68200BE02D0F29E01D0F28E97
:04020200A6941200AC
:100206004ED001011E6B1F6BFF0E206F67D00101E0
:10021600900E1E6F010E1F6FC80E206F5FD001017A
:10022600C20E1E6F010E1F6F960E206F57D0010172
:10023600F40E1E6F010E1F6F640E206F4FD001016A
:10024600260E1E6F020E1F6F500E206F47D0010143
:10025600580E1E6F020E1F6F960E206F3FD00101C3
:10026600580E1E6F020E1F6F640E206F37D00101ED
:10027600580E1E6F020E1F6F320E206F2FD0010117
:10028600BC0E1E6F020E1F6F640E206F27D0010179
:10029600BC0E1E6F020E1F6F320E206F1FD00401A0
:1002A600ED51000AAEE0ED51010AB1E0ED51020A4E
:1002B600B6E0ED51030ABBE0ED51040AC0E0ED5192
:1002C600050AC5E0ED51060ACAE0ED51070ACFE07E
:0E02D600ED51080AD4E0ED51090AD9E01200FA
:1002E400086A080E0C6E003408360450085ED8B054
:0E02F40002D00826D89000360C2EF5D7120046
:10030200480E0C6E6C0E0D6E0D2EFED70C2EFCD709
:0403120000001200D5
:10031600E8C404F0E9C405F0E6C402F0E7C403F05B
:10032600EAC400F0EBC401F0010E0401EA5F000E1E
:10033600EB5B005001100FE004C0E9FF05C0EAFFC7
:1003460002C0E1FF03C0E2FFEECFE6FF024A032A46
:10035600044A052AE5D7E6C400F0E7C401F0120016
:0A036600030E0D6E0D2EFED71200DF
:0C037000A60E0D6E0D2EFED70000120030
:10037C000401E96B030EE95D0AE2E951E725E16E40
:10038C00000EE821E26E200EE66EE92BF3D7E95160
:10039C00E725E16E000EE821E26EE66AE907E95115
:1003AC00E725EA6F000EE821EB6F0A0E046EE6C437
:1003BC0000F092DF08C000F0300E0026EAC4E1FF26
:1003CC00EBC4E2FF00C0E6FF0A0E046EE6C400F0C8
:1003DC0083DF00C0E6F40050000A01E102D0E90717
:0403EC00DED7120046
:1003F000BCC1E1FFBDC1E2FFE6C4E6FFBAC100F047
:08040000BBC101F0DADE1200BD
:100408000B6A0A6A096A086A0E6A033408360450D5
:10041800085E0550D8A0053C095E0650D8A0063CE9
:100428000A5E0750D8A0073C0B5EE86AD8A0010E08
:100438000E5E0336070E0C6E0334083609360A368C
:100448000B360E36045003A012D0085E0550D8A013
:10045800053C095E0650D8A0063C0A5E0750D8A0A5
:10046800073C0B5EE86AD8A0010E0E5E11D0082684
:100478000550D8B0053C09260650D8B0063C0A26D7
:100488000750D8B0073C0B26E86AD8B0010E0E26F4
:1004980003360C2ED1D70234083609360A360B3605
:1004A8000E36045003A012D0085E0550D8A0053CB3
:1004B800095E0650D8A0063C0A5E0750D8A0073C43
:1004C8000B5EE86AD8A0010E0E5E11D00826055012
:1004D800D8B0053C09260650D8B0063C0A26075075
:1004E800D8B0073C0B26E86AD8B0010E0E260236B3
:1004F800070E0C6E0234083609360A360B360E36ED
:10050800045002A012D0085E0550D8A0053C095E30
:100518000650D8A0063C0A5E0750D8A0073C0B5EE0
:10052800E86AD8A0010E0E5E11D008260550D8B092
:10053800053C09260650D8B0063C0A260750D8B014
:10054800073C0B26E86AD8B0010E0E2602360C2EA0
:10055800D1D70134083609360A360B360E36045020
:1005680002A012D0085E0550D8A0053C095E0650CE
:10057800D8A0063C0A5E0750D8A0073C0B5EE86A84
:10058800D8A0010E0E5E11D008260550D8B0053C43
:1005980009260650D8B0063C0A260750D8B0073CB2
:1005A8000B26E86AD8B0010E0E260136070E0C6E2F
:1005B8000134083609360A360B360E36045001A0C7
:1005C80012D0085E0550D8A0053C095E0650D8A098
:1005D800063C0A5E0750D8A0073C0B5EE86AD8A024
:1005E800010E0E5E11D008260550D8B0053C09262C
:1005F8000650D8B0063C0A260750D8B0073C0B2650
:10060800E86AD8B0010E0E2601360C2ED1D7003478
:10061800083609360A360B360E36045001A012D0B9
:10062800085E0550D8A0053C095E0650D8A0063CD7
:100638000A5E0750D8A0073C0B5EE86AD8A0010EF6
:100648000E5E11D008260550D8B0053C0926065084
:10065800D8B0063C0A260750D8B0073C0B26E86AF3
:10066800D8B0010E0E260036070E0C6E0034083680
:1006780009360A360B360E36045000A012D0085E32
:100688000550D8A0053C095E0650D8A0063C0A5E75
:100698000750D8A0073C0B5EE86AD8A0010E0E5E92
:1006A80011D008260550D8B0053C09260650D8B008
:1006B800063C0A260750D8B0073C0B26E86AD8B093
:1006C800010E0E2600360C2ED1D700B00ED00450E5
:1006D80008260550D8B0053C09260650D8B0063C77
:0C06E8000A260750D8B0073C0B26120071
:1006F400010E0401ED6FD9C1EEF469DD020E0401AF
:10070400ED6FD7C1EEF463DD030E0401ED6FD8C1C4
:10071400EEF45DDD040E0401ED6FF7C1EEF457DD78
:10072400050E0401ED6FF8C1EEF451DD060E04016F
:10073400ED6FF5C1EEF44BDD070E0401ED6FF6C16C
:10074400EEF445DD080E0401ED6FF9C1EEF43FDD72
:10075400090E0401ED6FFCC1EEF439DD0A0E04014B
:10076400ED6FFBC1EEF433DD0B0E0401ED6FFAC146
:10077400EEF42DDD0C0E0401ED6FD9C0EEF427DD8F
:100784000001D95109080401ED6F3BDD0D0E040190
:10079400ED6FF3C1EEF41BDD0E0E0401ED6FF1C13C
:1007A400EEF415DD0F0E0401ED6FF2C1EEF40FDD72
:0E07B400100E0401ED6FF4C1EEF409DD120029
:1007C2000401EA6B050EEA5D0AE2EA51E825E16EF0
:1007D200000EE921E26E200EE66EEA2BF3D7EA5113
:1007E200E825E16E000EE921E26EE66AEA07EA51C7
:1007F200E825EB6F000EE921EC6F0A0E046E000E85
:10080200056EE6C400F0E7C401F0BBDC08C000F0EE
:1008120009C001F0300E0026EBC4E1FFECC4E2FF98
:1008220000C0E6FF0A0E046E000E056EE6C400F07C
:10083200E7C401F0A6DC00C0E6F401C0E7F4000E54
:10084200011802E1000E001801E102D0EA07CFD739
:02085200120092
:100854000B6A0A6A096A00500402F4CF09F0F3CF64
:1008640008F001500502F4CF0BF0F3CF0AF000506A
:100874000502F3500926F4500A22E86A0B220150BB
:100884000402F3500926F4500A22E86A0B2208C035
:1008940000F009C001F00AC002F00BC003F012001E
:0A08A400490E0D6E0D2EFED7120056
:1008AE000401DD6BDAC4E9FFDBC4EAFFEECFDCF452
:1008BE00DC51000A0EE0DCC4E6F493DD0401DD2B0E
:1008CE00DD51DA25E96E000EDB21EA6EEECFDCF4A7
:0408DE00EFD712003E
:1008E2000401DD6BDAC4E9FFDBC4EAFFEECFDCF41E
:1008F200DC51000A0EE0DCC4EFF433DC0401DD2B32
:10090200DD51DA25E96E000EDB21EA6EEECFDCF472
:04091200EFD7120009
:10091600A69CDAC4A9FFA69EA680A8CF00F0120066
:100926000401E06B0A0EE05D0AE2E051DE25E16EAD
:10093600000EDF21E26E300EE66EE02BF3D7E051BB
:10094600DE25E16E000EDF21E26EE66AE007000EAC
:10095600006EDD1908E10050DC1905E10050DB19D5
:1009660002E1DA51000A3EE0E051DE25E16F000EB9
:10097600DF21E26F0A0E046E000E056E066E076E2C
:10098600DAC400F0DBC401F0DCC402F0DDC403F01D
:1009960038DD08C000F009C001F00AC002F00BC043
:1009A60003F0300E0026E1C4E1FFE2C4E2FF00C01E
:1009B600E6FFE0070A0E046E000E056E066E076E71
:1009C600DAC400F0DBC401F0DCC402F0DDC403F0DD
:1009D60018DD00C0DAF401C0DBF402C0DCF403C0A9
:0609E600DDF4B5D712009C
:1009EC000401DABF02D0819E01D0818EDABD02D023
:1009FC00819C01D0818CDABB02D0819A01D0818A92
:100A0C00DAB902D0819801D081880101BEB102D03F
:100A1C00848401D084948482A0DC84920401DAB7AB
:100A2C0002D0819E01D0818EDAB502D0819C01D09A
:100A3C00818CDAB302D0819A01D0818ADAB102D0EA
:100A4C00819801D081880101BEB102D0848401D08B
:100A5C008494848282DC8492BEA102D04CDC01D0CE
:040A6C0081DC120017
:100A70000900F5CFE6FF0006FBE10106F9E11200EF
:100A8000DAC4E6F40401E633E69FDBC4E7F4DCC431
:100A9000E8F474DC010EDA15016E0150010A17E169
:100AA000030EDB25E66F000EDC21E76F2E0EDD6FF7
:100AB000350EDE6F730EDF6FE06BDD0EE86F040E38
:100AC000E96F040EEA6F000EEB6F25DC16D0030E03
:100AD000DB25E66F000EDC21E76F730EE16F200E61
:100AE000E26F200EE36FE46BE10EE86F040EE96F36
:0C0AF000040EEA6F000EEB6F0EDC12002B
:100AFC00DAC4E6F4DBC4E7F40401E733E633E79F3A
:100B0C00DCC4E8F4DDC4E9F456DE010EDA15016E3E
:100B1C00DBC402F0000E0216000E021802E1010EF8
:100B2C00011818E1050EDC25E66F000EDD21E76FDC
:100B3C002E0EDE6F350EDF6F730EE06FE16BDE0E87
:100B4C00E86F040EE96F040EEA6F000EEB6F8BEC8E
:100B5C0001F017D0050EDC25E66F000EDD21E76FE6
:100B6C00730EE26F200EE36F200EE46FE56BE20E66
:100B7C00E86F040EE96F040EEA6F000EEB6F8BEC5E
:040B8C0001F0120062
:100B9000010E0401DA25E96E000EDB21EA6EEECFCC
:100BA000D9F1030EDA25E96E000EDB21EA6EEECFF5
:100BB000D7F1DAC4E9FFDBC4EAFFEECFD8F1020EC9
:100BC000DA25E96E000EDB21EA6EEECFF7F1040EB6
:100BD000DA25E96E000EDB21EA6E080EDA25D96E01
:100BE000000EDB21DA6EDE50EE24036E046A000E86
:100BF000042203C000F004C001F001320032019E63
:100C000001BC018E00C0F5F1050EDA25E96E000E7B
:100C1000DB21EA6E090EDA25D96E000EDB21DA6ED1
:100C2000DE50EE24036E046A000E042203C000F0BE
:100C300004C001F001320032019E01BC018E00C0EF
:100C4000F6F1060EDA25E96E000EDB21EA6E0A0ED9
:100C5000DA25D96E000EDB21DA6EDE50EE24036E4B
:100C6000046A000E042203C000F004C001F0013247
:100C70000032019E01BC018E00C0F9F1070EDA2599
:100C8000E96E000EDB21EA6E0B0EDA25D96E000E3E
:100C9000DB21DA6EDE50EE24036E046A000E0422BD
:100CA00003C000F004C001F001320032019E01BC1B
:0A0CB000018E00C0FCF11EDD1200F1
:100CBA0003013151010A03E10001CD6B8292030164
:0E0CCA003151020A03E10001CE6B829012004C
:100CD800140E0101D96F140ED86F140ED76F140EAD
:100CE800F76F050E0001D96F040E0401ED6F03ECD8
:100CF80001F00A0E0101F66F040EF56F0A0EFC6F83
:100D0800040EF96F0C0EF86FFA6BFB6BF16BF26B5C
:080D1800F46BF36BEBDC12003D
:100D2000C26AC00EC212C18CC18E31C300F000363F
:100D3000009000360090003600900050C212C28031
:100D4000B1DDC284C2A401D0FDD7C4CF01F0006AD6
:0C0D5000C3500012000E0112C2901200ED
:100D5C000301316B140E315D5CE231C300F0000E07
:100D6C00016E070E046E000E056E6EDD260E00265B
:100D7C00010E0122050E0024E96E000E0120EA6E20
:100D8C00EE50000A2FE131C300F0000E016E070E89
:100D9C00046E000E056E58DD260E0024E96E010E61
:100DAC000120EA6EEECF01F00150090A1BE131C3BC
:100DBC0000F0000E016E070E046E000E056E44DD91
:100DCC00260E0026010E0122010E0024E96E000EF3
:100DDC000120EA6EEECF32F3EECF33F3EECF34F3E5
:100DEC00EECF35F331C300F0000E016E070E046E2A
:100DFC00000E056E29DD260E0026010E0122050EC1
:100E0C000024E16E000E0120E26E010EE66E312B25
:100E1C00A1D70001D2510301325D006E00C031F345
:020E2C001200B2
:100E2E0003013151010A0AE1010E0001CD6F0301E8
:100E3E0032B102D0829801D0828882823151020A68
:100E4E000AE1010E0001CE6F030132B102D082968B
:080E5E0001D08286828012009F
:100E660003013151010A04E10001BA6B0101D3917A
:100E760003013151020A04E10001BB6B0101D39366
:020E8600120058
:100E880003013151000A04E03251000A01E002D0A6
:100E9800F28801D0F29831C353F032C351F01200F6
:100EA800DA0E0401E66F000EE76F780EF66E660E36
:100EB800F76E000EF86E310EE16E030EE26E110E43
:100EC800006E010E016ED0DD310EE86F030EE96F82
:100ED800100EEA6F000EEB6F8BEC01F00001D051A1
:100EE800000A60E1FC0E0401E66F000EE76F890E50
:100EF800F66E660EF76E000EF86E420EE16E030E89
:100F0800E26E110E006E010E016EAEDD420EE86F4C
:100F1800030EE96F100EEA6F000EEB6F8BEC01F019
:100F2800010E546E4E50000A1DE1DA0EE66F000EF7
:100F3800E76F9A0EF66E660EF76E000EF86E530E99
:100F4800E16E030EE26E110E006E010E016E8CDD75
:100F5800530EE86F030EE96F100EEA6F000EEB6F89
:100F68008BEC01F04E50010A1DE1DA0EE66F000E1F
:100F7800E76FAB0EF66E660EF76E000EF86E640E37
:100F8800E16E030EE26E110E006E010E016E6CDD55
:100F9800640EE86F030EE96F100EEA6F000EEB6F38
:100FA8008BEC01F00001D051010A27E1FC0E04018D
:100FB800E66F000EE76FBC0EF66E660EF76E000E5B
:100FC800F86E750EE16E030EE26E110E006E010EE4
:100FD800016E4ADD750EE86F030EE96F100EEA6FB9
:100FE800000EEB6F8BEC01F0010E546ED9C1DAF4F0
:100FF800E00EDB6F000EDC6F3FDD0001D051020A0E
:1010080027E1FC0E0401E66F000EE76FCD0EF66EC9
:10101800660EF76E000EF86E860EE16E030EE26E37
:10102800110E006E010E016E1FDD860EE86F030EB5
:10103800E96F100EEA6F000EEB6F8BEC01F0010EFA
:10104800546ED7C1DAF4E00EDB6F000EDC6F14DDEE
:101058000001D051030A27E1FC0E0401E66F000EDF
:10106800E76FDE0EF66E660EF76E000EF86E970EE0
:10107800E16E030EE26E110E006E010E016EF4DCDD
:10108800970EE86F030EE96F100EEA6F000EEB6F14
:101098008BEC01F0010E546ED8C1DAF4E00EDB6F70
:1010A800000EDC6FE9DC0001D051040A27E1FC0ED8
:1010B8000401E66F000EE76FEF0EF66E660EF76E30
:1010C800000EF86EA80EE16E030EE26E110E006EB1
:1010D800010E016EC9DCA80EE86F030EE96F100E51
:1010E800EA6F000EEB6F8BEC01F0010E546EF7C146
:1010F800DAF4E00EDB6F000EDC6FBEDC0001D051CD
:10110800050A27E1FC0E0401E66F000EE76F000EEA
:10111800F66E670EF76E000EF86EB90EE16E030EEE
:10112800E26E110E006E010E016E9EDCB90EE86FC4
:10113800030EE96F100EEA6F000EEB6F8BEC01F0F7
:10114800010E546EF5C1DAF4E00EDB6F000EDC6FB1
:1011580093DC0001D051060A27E1FC0E0401E66F7A
:10116800000EE76F110EF66E670EF76E000EF86E42
:10117800CA0EE16E030EE26E110E006E010E016ED4
:1011880073DCCA0EE86F030EE96F100EEA6F000EEB
:10119800EB6F8BEC01F0010E546EF6C1DAF4E00E41
:1011A800DB6F000EDC6F68DC0001D051070A27E115
:1011B800FC0E0401E66F000EE76F220EF66E670E56
:1011C800F76E000EF86EDB0EE16E030EE26E110E86
:1011D800006E010E016E48DCDB0EE86F030EE96F4E
:1011E800100EEA6F000EEB6F8BEC01F0010E546EDF
:1011F800F9C1DAF4E00EDB6F000EDC6F3DDC0001B4
:10120800D051080A27E1FC0E0401E66F000EE76FD3
:10121800330EF66E670EF76E000EF86EEC0EE16E8A
:10122800030EE26E110E006E010E016E1DDCEC0E57
:10123800E86F030EE96F100EEA6F000EEB6F8BEC90
:1012480001F0010E546EFCC1DAF4E00EDB6F000E03
:10125800DC6F12DC0001D051090A2CE1FC0E0401FC
:10126800E66F000EE76F440EF66E670EF76E000E1F
:10127800F86EFD0EE16E030EE26E110E006E010EA9
:10128800016E38EC05F0FD0EE86F030EE96F100EE5
:10129800EA6F000EEB6F8BEC01F0010E546ED9C0B3
:1012A800E6F4E00EE76F000EE86FBEEC01F0200EEA
:1012B8000001E36FD0510A0A29E1FC0E0401E66F30
:1012C800000EE76F550EF66E670EF76E000EF86E9D
:1012D8000E0EE16E040EE26E110E006E010E016E2E
:1012E80038EC05F00E0EE86F040EE96F100EEA6F89
:1012F800000EEB6F8BEC01F0010E546EF8C1DAF4BE
:10130800E00EDB6F000EDC6F40EC05F00001D05101
:101318000B0A2BE1FC0E0401E66F000EE76F660E68
:10132800F66E670EF76E000EF86E1F0EE16E040E75
:10133800E26E110E006E010E016E38EC05F01F0E04
:10134800E86F040EE96F100EEA6F000EEB6F8BEC7E
:1013580001F0010E546EFAC1DAF4FBC1DBF4DE0EC3
:10136800DC6F000EDD6F7EEC05F00001D0510C0A39
:1013780021E1FC0E0401E66F000EE76F770EF66EB2
:10138800670EF76E000EF86E300EE16E040EE26E18
:10139800110E006E010E016E38EC05F0300EE86F8C
:1013A800040EE96F100EEA6F000EEB6F8BEC01F084
:1013B800010E546E0001D0510D0A64E1FC0E0401C7
:1013C800E66F000EE76F880EF66E670EF76E000E7A
:1013D800F86E410EE16E040EE26E110E006E010E03
:1013E800016E38EC05F0410EE86F040EE96F100E3F
:1013F800EA6F000EEB6F8BEC01F0010E546E0101E9
:10140800F251000A1FE1E00E0401E66F000EE76FDB
:101418004E0E526F6F0E536F200E546F200E556F85
:10142800200E566F200E576F200E586F596B520EB4
:10143800E86F040EE96F070EEA6F000EEB6F8BEC96
:1014480001F020D00401E00EE66F000EE76F590EA0
:101458005A6F650E5B6F730E5C6F200E5D6F200E0A
:101468005E6F200E5F6F200E606F200E616F626BE3
:101478005A0EE86F040EE96F080EEA6F000EEB6F64
:101488008BEC01F00001D0510E0A64E1FC0E04015E
:10149800E66F000EE76FAA0EF66E670EF76E000E87
:1014A800F86E630EE16E040EE26E110E006E010E10
:1014B800016E38EC05F0630EE86F040EE96F100E4C
:1014C800EA6F000EEB6F8BEC01F0010E546E010118
:1014D800F451000A1FE1E00E0401E66F000EE76F09
:1014E8004E0E746F6F0E756F200E766F200E776F2D
:1014F800200E786F200E796F200E7A6F7B6B740E3A
:10150800E86F040EE96F070EEA6F000EEB6F8BECC5
:1015180001F020D00401E00EE66F000EE76F590ECF
:101528007C6F650E7D6F730E7E6F200E7F6F200EB1
:10153800806F200E816F200E826F200E836F846B68
:101548007C0EE86F040EE96F080EEA6F000EEB6F71
:101558008BEC01F00001D0510F0A64E1FC0E04018C
:10156800E66F000EE76FCC0EF66E670EF76E000E94
:10157800F86E850EE16E040EE26E110E006E010E1D
:10158800016E38EC05F0850EE86F040EE96F100E59
:10159800EA6F000EEB6F8BEC01F0010E546E010147
:1015A800F151000A1FE1E00E0401E66F000EE76F3B
:1015B8004E0E966F6F0E976F200E986F200E996FD4
:1015C800200E9A6F200E9B6F200E9C6F9D6B960EBF
:1015D800E86F040EE96F070EEA6F000EEB6F8BECF5
:1015E80001F020D00401E00EE66F000EE76F590EFF
:1015F8009E6F650E9F6F730EA06F200EA16F200E59
:10160800A26F200EA36F200EA46F200EA56FA66BED
:101618009E0EE86F040EE96F080EEA6F000EEB6F7E
:101628008BEC01F00001D051100A29E1FC0E0401F5
:10163800E66F000EE76FEE0EF66E670EF76E000EA1
:10164800F86EA70EE16E040EE26E110E006E010E2A
:10165800016E38EC05F0A70EE86F040EE96F100E66
:10166800EA6F000EEB6F8BEC01F0010E546EF3C1C4
:10167800DAF4E00EDB6F000EDC6F40EC05F00001E1
:10168800D051110A21E1FC0E0401E66F000EE76F4C
:10169800FF0EF66E670EF76E000EF86EB80EE16E6E
:1016A800040EE26E110E006E010E016E38EC05F0AC
:1016B800B80EE86F040EE96F100EEA6F000EEB6FBC
:1016C8008BEC01F0010E546E0001D051120A21E199
:1016D800FC0E0401E66F000EE76F100EF66E680E42
:1016E800F76E000EF86EC90EE16E040EE26E110E72
:1016F800006E010E016E38EC05F0C90EE86F040E9D
:10170800E96F100EEA6F000EEB6F8BEC01F0010E23
:0A171800546E650E0001CF6F120041
:10172200010E0401DA6F8BEC04F000C0D9F1020E55
:10173200DA6F8BEC04F000C0D7F1030EDA6F8BEC9A
:1017420004F000C0D8F1040EDA6F8BEC04F000C094
:10175200F7F1050EDA6F8BEC04F000C0F8F1060E1B
:10176200DA6F8BEC04F000C0F5F1070EDA6F8BEC48
:1017720004F000C0F6F1080EDA6F8BEC04F000C042
:10178200F9F1090EDA6F8BEC04F000C0FCF10A0EDD
:10179200DA6F8BEC04F000C0FAF1000E0101FB6F6E
:1017A200FAC1FBF1FA6B0B0E0401DA6F8BEC04F059
:1017B20000500101FA13000EFB130C0E0401DA6F44
:1017C2008BEC04F000C0D9F000500908ED6F03EC77
:1017D20001F00D0E0401DA6F8BEC04F000C0F3F19E
:1017E2000E0EDA6F8BEC04F000C0F1F10F0EDA6F1F
:1017F2008BEC04F000C0F2F1100EDA6F8BEC04F007
:0618020000C0F4F1120029
:101808000301366B140E365D72E236C300F0000E2B
:10181800016E070E046E000E056E2AEC04F0260E0B
:101828000026010E0122050E0024E96E000E01209B
:10183800EA6EEE50010A59E136C300F0000E016E5F
:10184800070E046E000E056E2AEC04F0260E002426
:10185800E16E010E0120E26E35C3E6FF36C300F0EB
:10186800000E016E070E046E000E056E2AEC04F0E1
:10187800260E0026010E0122010E0024E16E000E44
:101888000120E26E31C3E6FF32C3E6FF33C3E6FF51
:1018980034C3E6FF36C300F0000E016E070E046E77
:1018A800000E056E2AEC04F0260E0026010E012219
:1018B800050E0024E16E000E0120E26EE66A36C3D2
:1018C80000F0000E016E070E046E000E056E2AEC85
:1018D80004F0260E0026010E0122060E0024E16EF9
:1018E800000E0120E26EE66A02D0362B8BD712007A
:1018F800010E03013125016E000E3221026E01C076
:10190800E9FF02C0EAFF100EEE24006E01C0E1FFFD
:1019180002C0E2FF00C0E6FF030E3125016E000E93
:101928003221026E01C0E9FF02C0EAFF100EEE2468
:10193800006E01C0E1FF02C0E2FF00C0E6FF31C354
:10194800E9FF32C3EAFFEECF00F031C3E1FF32C353
:10195800E2FF100E0024E66E020E3125016E000E25
:101968003221026E01C0E9FF02C0EAFF100EEE2428
:10197800006E01C0E1FF02C0E2FF00C0E6FF040EF6
:101988003125E16E000E3221E26E040EE66E060E7F
:101998003125E16E000E3221E26E040EE66E080E6D
:1019A8003125E16E000E3221E26E040EE66E0A0E5B
:1019B8003125E16E000E3221E26E040EE66E050E50
:1019C8003125E16E000E3221E26E0A0EE66E090E36
:1019D8003125E16E000E3221E26E0A0EE66E070E28
:1019E8003125E16E000E3221E26E0A0EE66E0B0E14
:1019F8003125E16E000E3221E26E0A0EE66E31C329
:0C1A0800DAF432C3DBF4C8EC05F0120085
:101A14000301326B140E325D44E232C300F0000E57
:101A2400016E070E046E000E056E2AEC04F0260EFD
:101A34000026010E0122050E0024E96E000E01208D
:101A4400EA6EEE50000A2BE132C300F0000E016E84
:101A5400070E046E000E056E2AEC04F0260E002418
:101A6400E96E010E0120EA6EEECF01F0015031194A
:101A740016E032C300F0000E016E070E046E000E75
:101A8400056E2AEC04F0260E0026010E0122050E36
:101A94000024E16E000E0120E26E010EE66E322B90
:041AA400B9D712009C
:101AA800D2C0DAF4D3C0DBF4D4C0DCF4D5C0DDF4A2
:101AB800330E0401DE6F030EDF6F93EC04F0330E78
:101AC800DA6F030EDB6F57EC04F03A0E03013E6F3A
:101AD800200E3F6F406B3E0E0401DA6F030EDB6F82
:101AE80071EC04F031C3DAF432C3DBF471EC04F0C6
:101AF8000A0EEF6FB2EC00F00D0E0401EF6FB2ECBE
:041B080000F01200D7
:101B0C000101BE9131C3DAF4F6EC04F0BE8112008F
:101B1C000101CF510301311905E10101CF6B010E18
:101B2C00006E12000101D0510301311905E10101D0
:101B3C00D06B010E006E12000101D151030131195D
:101B4C0005E10101D16B010E006E1200006A12005A
:101B5C0083A203D083A401D003D0010E006E120027
:041B6C00006A1200F9
:101B70008284010E0301316F326B17EC07F0020E05
:101B8000316F326B17EC07F00101D2A10ED08294B5
:101B9000010E0301316F5DEC06F0020E0301316F9F
:0C1BA0005DEC06F0010E0001CF6F12009A
:101BAC000201186B196B1A6B050E0301316F90EC67
:101BBC0006F000C018F201C019F200C002F001C01A
:101BCC0003F003320232039E03320232039E000EF4
:101BDC00006E0350005C02E10250A00812E218C231
:101BEC0001F019C202F002320132029E02320132BD
:101BFC00029E000E025C02E1B90E015C02E20201DF
:101C0C001A8518C201F019C202F002320132029E8A
:101C1C0002320132029E000E006E0250005C02E1A4
:101C2C000150640812E218C201F019C202F002322B
:101C3C000132029E02320132029E000E025C02E16F
:101C4C00A00E015C02E202011A8318C201F019C253
:101C5C0002F002320132029E02320132029E000E6A
:101C6C00025C02E1320E015C02E202011A81020105
:101C7C001A51000A1BE100019051000A08E1010110
:101C8C00DB6B0001906B0201176B0101DA6B000139
:101C9C009051010A0BE1050E8E5D08E30101DB6B2F
:101CAC000001906B0201176B0101DA6B02011A51F2
:101CBC00000A24E000019051010A20E10101DB51EE
:101CCC00000A1CE1030EED25016E000EEE21026EE2
:101CDC00000EEF21036E000EF021046E0001D551B1
:101CEC00041808E1D451031805E1D351021802E19C
:101CFC00D251011803E1010E0101DB6F02011A51EF
:101D0C00000A0AE000019051010A06E10101DB51D1
:101D1C00000A02E10201176B02011A51000A0FE0DE
:101D2C0000019051010A0BE10101DB51010A07E1AD
:101D3C0002011A510101DA03F3CF17F2DA6B020137
:101D4C001A51000A11E000019051000A0DE11AC26B
:101D5C0017F2010E906FD2C0EDF1D3C0EEF1D4C0EA
:101D6C00EFF1D5C0F0F18E6B0101DB51010A0DE1F1
:101D7C000A0E046E91C000F072EC01F008C000F085
:101D8C000050000A02E1010EDA6F17C200F01200D7
:101D9C008284010E0301316FBBDE00524BE0010E59
:101DAC000301316F010E326F17EC07F0530E020175
:101DBC00176F380E186F200E196F4D0E1A6F6F0EAD
:101DCC001B6F740E1C6F6F0E1D6F720E1E6F310E1B
:101DDC001F6F530E206F740E216F610E226F720EE7
:101DEC00236F740E246F256B170E0301316F020ED7
:101DFC00326F54DE839EFC0E0401E66F000EE76F1B
:101E0C000D0EE86F010EE96F100EEA6F000EEB6F0E
:101E1C008BEC01F0DA0EE66F000EE76FEB0EE86F5D
:101E2C00000EE96F100EEA6F000EEB6F8BEC01F0F9
:101E3C00010E546E020E0301316F6ADE00522CE06B
:101E4C00020E0301316F010E326F17EC07F0530EC7
:101E5C000201266F380E276F200E286F4D0E296F4A
:101E6C006F0E2A6F740E2B6F6F0E2C6F720E2D6F00
:101E7C00320E2E6F530E2F6F740E306F610E316F4A
:101E8C00720E326F740E336F346B260E0301316F8A
:101E9C00020E326F03DE839E0A0E0301316F38DEB1
:101EAC0000521DE0010E556E010E0301316F33EC33
:101EBC0007F06E0EF66E6B0EF76E000EF86E350EAA
:101ECC00E16E020EE26E160E006E010E016E38EC23
:101EDC0005F0350E0301316F020E326FDFDD0B0E94
:101EEC000301316F15DE00521DE0010E566E020E1D
:101EFC000301316F33EC07F0840EF66E6B0EF76E48
:101F0C00000EF86E4B0EE16E020EE26E160E006EB7
:101F1C00010E016E38EC05F04B0E0301316F020E11
:101F2C00326FBCDD050E0301316FF2DD00522CE087
:101F3C00010E0301316F51C032F344EC07F0526AC9
:101F4C00530E0201616F380E626F200E636F4D0EDF
:101F5C00646F6F0E656F740E666F6F0E676F720E27
:101F6C00686F310E696F200E6A6F460E6B6F610ED3
:101F7C006C6F730E6D6F740E6E6F6F6B610E030171
:101F8C00316F020E326F8ADD060E0301316FC0DD38
:101F9C0000522DE053C031F3010E0301326F44ECBB
:101FAC0007F000018A6B530E0201706F380E716FCF
:101FBC00200E726F4D0E736F6F0E746F740E756F03
:101FCC006F0E766F720E776F320E786F200E796F00
:101FDC00460E7A6F610E7B6F730E7C6F740E7D6F85
:101FEC007E6B700E0301316F020E326F57DD030EE4
:101FFC000301316F8DDD005208E15550010A04E1F7
:10200C000101D3A101D001D02DD000018BA12AD088
:10201C008B91010E0301316F5DEC06F0530E020142
:10202C007F6F380E806F200E816F4D0E826F6F0E9A
:10203C00836F740E846F6F0E856F720E866F310E08
:10204C00876F200E886F530E896F740E8A6F6F0E18
:10205C008B6F700E8C6F8D6B7F0E0301316F020EC8
:10206C00326F1CDD040E0301316F52DD005208E1AA
:10207C005650010A04E10101D3A301D001D02DD0A7
:10208C0000018BA32AD08B93020E0301316F5DEC00
:10209C0006F0530E02018E6F380E8F6F200E906F6C
:1020AC004D0E916F6F0E926F740E936F6F0E946F47
:1020BC00720E956F320E966F200E976F530E986FAF
:1020CC00740E996F6F0E9A6F700E9B6F9C6B8E0EC9
:1020DC000301316F020E326FE1DC0C0E0301316F24
:1020EC0017DD005201E0838E0101D751000A05E093
:1020FC0000018C51010A01E002D000018B93010117
:10210C00D4A14AD0F25348E0010E0301316F5DECCB
:10211C0006F0020E0301316F5DEC06F0556A566A4B
:10212C00050E0001CF6FD60EF66E6B0EF76E000E1D
:10213C00F86E9D0EE16E020EE26E110E006E010E37
:10214C00016E38EC05F09D0E0301316F020E326FFB
:10215C00A5DC090E0301316F57DCFC0E0401E66FA0
:10216C00000EE76F570EE86F000EE96F100EEA6F66
:10217C00000EEB6F8BEC01F0DA0EE66F000EE76FE2
:10218C00680EE86F000EE96F100EEA6F000EEB6F31
:10219C008BEC01F0010E546E0101D251000A48E0A3
:1021AC00010E0301316F5DEC06F0020E0301316F7D
:1021BC005DEC06F0050E0001CF6F556A566AE70E0E
:1021CC00F66E6B0EF76E000EF86EAE0EE16E020E32
:1021DC00E26E1A0E006E010E016E38EC05F0AE0EBA
:1021EC000301316F020E326F59DC090E0301316F9E
:1021FC000BDCFC0E0401E66F000EE76F570EE86F68
:10220C00000EE96F100EEA6F000EEB6F8BEC01F015
:10221C00DA0EE66F000EE76F790EE86F000EE96FCD
:10222C00100EEA6F000EEB6F8BEC01F0010E546E8A
:10223C000101D551010A4BE1F45349E0010E0301B0
:10224C00316F5DEC06F0020E0301316F5DEC06F0B0
:10225C00050E0001CF6F556A566A010EF66E6C0EB4
:10226C00F76E000EF86EC80EE16E020EE26E150EE1
:10227C00006E010E016E38EC05F0C80E0301316FD3
:10228C00020E326F0BDC090E0301316F0AEC0DF0FC
:10229C00FC0E0401E66F000EE76F570EE86F000EA0
:1022AC00E96F100EEA6F000EEB6F8BEC01F0DA0E9B
:1022BC00E66F000EE76F2B0EE86F000EE96F100E45
:1022CC00EA6F000EEB6F8BEC01F0010E546E000107
:1022DC008B51000A27E1020ECF6F3C6A090E0301F5
:1022EC00316F0AEC0DF0FC0E0401E66F000EE76F87
:1022FC003D0EE86F000EE96F100EEA6F000EEB6FEB
:10230C008BEC01F0DA0EE66F000EE76FEB0EE86F68
:10231C00000EE96F100EEA6F000EEB6F8BEC01F004
:10232C00010E546E0001CF51050A04E0CF51060A8C
:10233C0001E04BD00301316B0AEC0DF0000E0101F2
:10234C00FB1902E1000EFA1940E0FA510001D22506
:10235C000301316F0101FB510001D3210301326FE5
:10236C00000E0001D4210301336F000E0001D521B2
:10237C000301346F090E356F04EC0CF0160EF66E7B
:10238C006C0EF76E000EF86EDD0EE16E020EE26E54
:10239C00150E006E010E016E38EC05F0DD0E316F7E
:1023AC00020E326F54EC0DF0DA0E0401E66F000EE3
:1023BC00E76F1A0EE86F000EE96F100EEA6F000E51
:0C23CC00EB6F8BEC01F0010E546E120060
:1023D8000201176B83B601D0178183B801D0178328
:0623E80017C200F0120014
:1023EE000101CEA10AD00001D051000A03E1120E64
:1023FE00D06F01D0D007640ECF6F0101CEA509D0EA
:10240E000001D051120A02E1D06B01D0D02B640E24
:10241E00CF6F0101CEA303D0660E0001CF6F120065
:10242E0010D0800E0201176F1AD0C00E176F17D082
:10243E00940E176F14D0D40E176F11D0800E176F25
:10244E000ED002011751010AECE01751020AEDE01D
:10245E001751030AEDE01751040AEDE0EFD7180506
:10246E00006E1751002600C017F200C0DAF4F6EC29
:10247E0004F0BE9102011B6B1B511925E96E000E73
:10248E001A21EA6EEE520DE01B511925E96E000E6F
:10249E001A21EA6EEECF31F386EC0DF002011B2B02
:0824AE00EBD70101BE81120011
:1024B600969296949398939A939C939E84928494DE
:1024C600819E819C819A819881EC01F081EC01F0DA
:1024D60081EC01F0818A81888482B3EC01F08492D8
:1024E60081EC01F08482B3EC01F0849281EC01F07E
:1024F6008482B3EC01F0849281EC01F081988482AD
:10250600B3EC01F0849281EC01F08482B3EC01F02B
:102516008492819A818E8482B3EC01F0849281EC5C
:1025260001F0819E81888482B3EC01F084928198C7
:102536008482B3EC01F0849281EC01F08482B3ECE6
:1025460001F0849281888482B3EC01F0849281EC5C
:1025560001F081988482B3EC01F08492818E818CA3
:10256600818A81888482B3EC01F0849281EC01F047
:062576000101BE8112000C
:10257C00640E0101BA6F010EBB6FEF0EBC6F040E3F
:10258C00BD6FFF0EB66FFF0EB76F000EB86F000E6B
:10259C00B96FFF0EB26FFF0EB36F000EB46F000E6B
:1025AC00B56FFF0ECA6FFF0ECB6F000ECC6F000E17
:1025BC00CD6FAC8A900EAB6E948E949C9EAA03D079
:0825CC00AECF00F0FBD71200B6
:1025D400010E4F6E0101CEA316D04F6A506A650EEC
:1025E4000001CF6FD051000A0EE10101216B4E5062
:1025F400000A03E1C80E0001CF6F4E50010A03E147
:102604000001C90ECF6F0001D051000A16E101018B
:10261400CEA108D04E50000805E24E0654EC07F057
:10262400660ECF6F0101CEA508D0010E4E5C05E207
:102634004E2A54EC07F0660ECF6F0001D051010A08
:1026440016E10101CEA108D0D951000805E2D9074D
:1026540054EC07F0660ECF6F0101CEA508D0FF0E33
:10266400D95D05E2D92B54EC07F0660ECF6F00015B
:10267400D051020A16E10101CEA108D0D7510008B9
:1026840005E2D70754EC07F0660ECF6F0101CEA523
:1026940008D0FF0ED75D05E2D72B54EC07F0660E89
:1026A400CF6F0001D051030A16E10101CEA108D079
:1026B400D851000805E2D80754EC07F0660ECF6F36
:1026C4000101CEA508D0FF0ED85D05E2D82B54EC4D
:1026D40007F0660ECF6F0001D051040A16E1010124
:1026E400CEA108D0F751000805E2F70754EC07F033
:1026F400660ECF6F0101CEA508D0FF0EF75D05E28F
:10270400F72B54EC07F0660ECF6F0001D051050A89
:1027140016E10101CEA108D0F551000805E2F50744
:1027240054EC07F0660ECF6F0101CEA508D0FF0E62
:10273400F55D05E2F52B54EC07F0660ECF6F000152
:10274400D051060A16E10101CEA108D0F6510008C5
:1027540005E2F60754EC07F0660ECF6F0101CEA533
:1027640008D0FF0EF65D05E2F62B54EC07F0660E7A
:10277400CF6F0001D051070A16E10101CEA108D0A4
:10278400F951000805E2F90754EC07F0660ECF6F23
:102794000101CEA508D0FF0EF95D05E2F92B54EC3A
:1027A40007F0660ECF6F0001D051080A16E101014F
:1027B400CEA108D0FC51000805E2FC0754EC07F058
:1027C400660ECF6F0101CEA508D0FF0EFC5D05E2B9
:1027D400FC2B54EC07F0660ECF6F0001D051090AB0
:1027E40018E10101CEA109D00001D951000805E288
:1027F400D90754EC07F0660ECF6F0101CEA509D0BE
:10280400090E0001D95D05E2D92B54EC07F0660EE0
:10281400CF6F0001D0510A0A16E10101CEA108D000
:10282400F851000805E2F80754EC07F0660ECF6F84
:102834000101CEA508D0FF0EF85D05E2F82B54EC9B
:1028440007F0660ECF6F0001D0510B0A22E101019F
:10285400CEA110D0000E006EFB51005C02E1FA51D3
:10286400000808E2010EFA5F000EFB5B54EC07F06F
:10287400660ECF6F0101CEA50CD0FD0EFB5D02E10B
:10288400E80EFA5D06E2FA4BFB2B54EC07F0660EF9
:10289400CF6F0001D0510C0A46E1CF6BFC0E04014E
:1028A400E66F000EE76FF80EF66E6C0EF76E000E14
:1028B400F86E170EE16E020EE26E110E006E010E3E
:1028C400016E38EC05F0170EE86F020EE96F100E7A
:1028D400EA6F000EEB6F8BEC01F0DA0EE66F000E80
:1028E400E76F090EF66E6D0EF76E000EF86E280E89
:1028F400E16E020EE26E110E006E010E016E38ECF6
:1029040005F0280EE86F020EE96F100EEA6F000E54
:10291400EB6F8BEC01F04F6A506A010E546E6CEC55
:1029240006F07AEC03F00001D0510D0A16E1010122
:10293400CEA108D0F251000805E2F20754EC07F0EA
:10294400660ECF6F0101CEA508D0010EF25D05E23F
:10295400F22B54EC07F0660ECF6F0001D0510E0A33
:1029640016E10101CEA108D0F451000805E2F407F4
:1029740054EC07F0660ECF6F0101CEA508D0010E0E
:10298400F45D05E2F42B54EC07F0660ECF6F000102
:10299400D0510F0A16E10101CEA108D0F15100086F
:1029A40005E2F10754EC07F0660ECF6F0101CEA5E6
:1029B40008D0010EF15D05E2F12B54EC07F0660E30
:1029C400CF6F0001D051100A1FE10101CEA10CD03C
:1029D400F351000809E2F307F351090A01E1F36B2B
:1029E40054EC07F0660ECF6F0101CEA50DD0FF0E9B
:1029F400F35D0AE2F32BF351010A02E10A0EF36FCD
:102A040054EC07F0660ECF6F0001D051110A42E179
:102A1400670ECF6FFC0E0401E66F000EE76F1A0E0F
:102A2400F66E6D0EF76E000EF86E390EE16E020E44
:102A3400E26E110E006E010E016E38EC05F0390ED7
:102A4400E86F020EE96F100EEA6F000EEB6F8BEC6D
:102A540001F0DA0EE66F000EE76F2B0EF66E6D0EC8
:102A6400F76E000EF86E4A0EE16E020EE26E110E63
:102A7400006E010E016E38EC05F04A0EE86F020E8E
:102A8400E96F100EEA6F000EEB6F8BEC01F04F6AEA
:102A9400010E546E0001D051120A43E1CF6BFC0EBB
:102AA4000401E66F000EE76F3C0EF66E6D0EF76ED6
:102AB400000EF86E5B0EE16E020EE26E110E006EF9
:102AC400010E016E38EC05F05B0EE86F020EE96F43
:102AD400100EEA6F000EEB6F8BEC01F0DA0EE66F6E
:102AE400000EE76F4D0EF66E6D0EF76E000EF86E6B
:102AF4006C0EE16E020EE26E110E006E010E016E9E
:102B040038EC05F06C0EE86F020EE96F100EEA6FF8
:102B1400000EEB6F8BEC01F04F6A010E546E91ECDA
:042B24000BF01200A0
:102B28008284CFC1E6F4FC0E0401E76F000EE86F63
:102B3800BEEC01F0D0C1E6F4DA0EE76F000EE86FE4
:102B4800BEEC01F0010E546E010E0301316F8EECE4
:102B58000DF000524AE0010E0301316F326B17ECA1
:102B680007F0530E0201176F340E186F200E196FFD
:102B78004D0E1A6F6F0E1B6F740E1C6F6F0E1D6F4C
:102B8800720E1E6F310E1F6F530E206F740E216F61
:102B9800610E226F720E236F740E246F256B170E51
:102BA8000301316F020E326F54EC0DF0FC0E04017C
:102BB800E66F000EE76F950EE86F000EE96F100ED6
:102BC800EA6F000EEB6F8BEC01F0DA0EE66F000E89
:102BD800E76FEB0EE86F000EE96F100EEA6F000E5C
:102BE800EB6F8BEC01F0010E546E020E0301316F96
:102BF8008EEC0DF000522BE0020E0301316F326BA8
:102C080017EC07F0530E0201266F340E276F200EC3
:102C1800286F4D0E296F6F0E2A6F740E2B6F6F0E73
:102C28002C6F720E2D6F320E2E6F530E2F6F740E87
:102C3800306F610E316F720E326F740E336F346BFA
:102C4800260E0301316F020E326F54EC0DF00A0E9E
:102C58000301316F8EEC0DF000521EE0010E556E2F
:102C6800010E0301316F33EC07F0590EF66E690E51
:102C7800F76E000EF86E350EE16E020EE26E150E5E
:102C8800006E010E016E38EC05F0350E0301316F50
:102C9800020E326F54EC0DF00B0E0301316F8EEC07
:102CA8000DF000521EE0010E566E020E0301316F48
:102CB80033EC07F06E0EF66E690EF76E000EF86EC6
:102CC8004A0EE16E020EE26E150E006E010E016EE6
:102CD80038EC05F04A0E0301316F020E326F54ECE6
:102CE8000DF0050E0301316F8EEC0DF000522EE051
:102CF800010E0301316F51C032F344EC07F0556AFD
:102D0800526A530E02015F6F340E606F200E616FBE
:102D18004D0E626F310E636F200E646F530E656F38
:102D2800700E666F650E676F650E686F640E696F6B
:102D3800200E6A6F550E6B6F500E6C6F6D6B5F0EC9
:102D48000301316F020E326F54EC0DF0070E0301D0
:102D5800316F8EEC0DF000521FE00301316B51C052
:102D680032F344EC07F0566A010E526E920EF66E7C
:102D7800690EF76E000EF86E6E0EE16E020EE26ED0
:102D8800110E006E010E016E38EC05F06E0E316FFB
:102D9800020E326F54EC0DF0060E0301316F8EEC0B
:102DA8000DF000522EE053C031F3010E0301326FD3
:102DB80044EC07F000018A6B530E02017F6F340E5A
:102DC800806F200E816F4D0E826F320E836F200E42
:102DD800846F530E856F700E866F650E876F650E54
:102DE800886F640E896F200E8A6F550E8B6F500E98
:102DF8008C6F8D6B7F0E0301316F020E326F54ECB6
:102E08000DF0080E0301316F8EEC0DF0005220E03A
:102E180053C031F30301326B44EC07F0010E00019B
:102E28008A6FB20EF66E690EF76E000EF86E8E0E91
:102E3800E16E020EE26E110E006E010E016E38ECAC
:102E480005F08E0E0301316F020E326F54EC0DF057
:102E5800030E0301316F8EEC0DF0005228E00001E3
:102E6800B891010E0301316F5DEC06F0530E0201BB
:102E78009F6F340EA06F200EA16F4D0EA26F310E02
:102E8800A36F200EA46F530EA56F740EA66F6F0E5E
:102E9800A76F700EA86F650EA96F640EAA6FAB6B53
:102EA8009F0E0301316F020E326F54EC0DF0040EC9
:102EB8000301316F8EEC0DF0005228E00001B89349
:102EC800020E0301316F5DEC06F0530E0201AC6F88
:102ED800340EAD6F200EAE6F4D0EAF6F320EB06F69
:102EE800200EB16F530EB26F740EB36F6F0EB46FC6
:102EF800700EB56F650EB66F640EB76FB86BAC0E1B
:102F08000301316F020E326F54EC0DF05550010A77
:102F180050E10101D3A14DD05250000A4AE1010EFF
:102F28000301316F5DEC06F0020E0301316F5DECB9
:102F380006F0060E0001CF6F556A566ADD0EF66E72
:102F4800690EF76E000EF86EB90EE16E020EE26EB3
:102F5800110E006E010E016E38EC05F0B90E03017A
:102F6800316F020E326F54EC0DF0090E0301316F10
:102F78000AEC0DF0FC0E0401E66F000EE76F570E29
:102F8800E86F000EE96F100EEA6F000EEB6F8BEC26
:102F980001F0DA0EE66F000EE76FA60EE86F000E7E
:102FA800E96F100EEA6F000EEB6F8BEC01F0010E6B
:102FB800546E5650010A51E10101D3A34ED00001CD
:102FC8008A51000A4AE1010E0301316F5DEC06F0F7
:102FD800020E0301316F5DEC06F0060E0001CF6FA3
:102FE800556A566AEE0EF66E690EF76E000EF86EAA
:102FF800CA0EE16E020EE26E110E006E010E016E37
:1030080038EC05F0CA0E0301316F020E326F54EC32
:103018000DF0090E0301316F0AEC0DF0FC0E0401EE
:10302800E66F000EE76F570EE86F000EE96F100E9F
:10303800EA6F000EEB6F8BEC01F0DA0EE66F000E14
:10304800E76FA60EE86F000EE96F100EEA6F000E2C
:10305800EB6F8BEC01F0010E546E0101D751000AA1
:1030680005E000018C51010A01E002D00001B8938B
:103078000101D4A14CD0010E0301316F5DEC06F0C3
:10308800020E0301316F5DEC06F0556A566A060EB2
:103098000001CF6F010EB76FFF0EF66E690EF76E67
:1030A800000EF86EDB0EE16E020EE26E110E006E7F
:1030B800010E016E38EC05F0DB0E0301316F020ED4
:1030C800326F54EC0DF0090E0301316F0AEC0DF06C
:1030D800FC0E0401E66F000EE76F570EE86F000E56
:1030E800E96F100EEA6F000EEB6F8BEC01F0DA0E51
:1030F800E66F000EE76F680EE86F000EE96F100EBE
:10310800EA6F000EEB6F8BEC01F0010E546E0101BB
:10311800D551010A4CE1F4534AE0010E0301316F25
:103128005DEC06F0020E0301316F5DEC06F0060E51
:103138000001CF6F556A566A100EF66E6A0EF76E6A
:10314800000EF86EEC0EE16E020EE26E150E006EC9
:10315800010E016E38EC05F0EC0E0301316F020E22
:10316800326F54EC0DF0090E0301316F0AEC0DF0CB
:10317800FC0E0401E66F000EE76F570EE86F000EB5
:10318800E96F100EEA6F000EEB6F8BEC01F0DA0EB0
:10319800E66F000EE76F2B0EE86F000EE96F100E5A
:1031A800EA6F000EEB6F8BEC01F0010E546E01011B
:1031B800D251000A4AE0010E0301316F5DEC06F0BE
:1031C800020E0301316F5DEC06F0060E0001CF6FB1
:1031D800556A566A250EF66E6A0EF76E000EF86E80
:1031E800010EE16E030EE26E120E006E010E016E0C
:1031F80038EC05F0010E0301316F030E326F54EC09
:103208000DF0090E0301316F0AEC0DF0FC0E0401FC
:10321800E66F000EE76F570EE86F000EE96F100EAD
:10322800EA6F000EEB6F8BEC01F0DA0EE66F000E22
:10323800E76F790EE86F000EE96F100EEA6F000E67
:10324800EB6F8BEC01F0010E546E0001B851000ACF
:1032580027E1010ECF6F3C6A090E0301316F0AECBA
:103268000DF0FC0E0401E66F000EE76FBC0EE86F70
:10327800000EE96F100EEA6F000EEB6F8BEC01F099
:10328800DA0EE66F000EE76FEB0EE86F000EE96FDF
:10329800100EEA6F000EEB6F8BEC01F0010E546E0E
:1032A8000001CF51050A04E0CF51060A01E04BD0D6
:1032B8000301316B0AEC0DF0000E0101FB1902E16C
:1032C800000EFA1940E0FA510001D2250301316FCE
:1032D8000101FB510001D3210301326F000E0001EF
:1032E800D4210301336F000E0001D5210301346F8F
:1032F800090E356F04EC0CF0370EF66E6A0EF76E99
:10330800000EF86E130EE16E030EE26E150E006EDF
:10331800010E016E38EC05F0130E316F030E326F9B
:1033280054EC0DF0DA0E0401E66F000EE76F1A0E8A
:10333800E86F000EE96F100EEA6F000EEB6F8BEC72
:0833480001F0010E546E1200A9
:103350000201176B000193B103D00201179102D053
:1033600002011781000194B103D00201179302D02A
:10337000020117830001936B946B83B602D0D8804F
:1033800001D0D890020117B103D002E2179101D009
:10339000178183B802D0D88001D0D89017B303D05A
:0E33A00002E2179301D0178317C200F012004B
:1033AE00020E02014D6F82940101D251000A09E111
:1033BE00090E0301316F8EEC0DF00050010A01E091
:1033CE00CBD3090E0301316F0AEC0DF00101F75159
:1033DE00000A05E000018C51010A01E043D102010F
:1033EE004D510001D225006E000ED321016E000E4C
:1033FE00D421026E000ED521036E00C022F101C051
:10340E0023F102C024F103C025F100C031F301C045
:10341E0032F302C033F303C034F3010E0301356FF0
:10342E0004EC0CF00101F951000A10E022C131F355
:10343E0023C132F324C133F325C134F3070E030144
:10344E00356F04EC0CF0010E526E0ED0030122C14A
:10345E0031F323C132F324C133F325C134F3050E06
:10346E00356F04EC0CF0526A0101F9510001D225BE
:10347E00006E000ED321016E000ED421026E000EDE
:10348E00D521036E020E0026000E01220222032217
:10349E0002014D510026000E01220222032200C01D
:1034AE0022F101C023F102C024F103C025F100C0B6
:1034BE0031F301C032F302C033F303C034F30A0E0A
:1034CE000301356F04EC0CF00101F9510001D22516
:1034DE00006E000ED321016E000ED421026E000E7E
:1034EE00D521036E02014D510026000E012202224B
:1034FE00032200C022F101C023F102C024F103C057
:10350E0025F100C031F301C032F302C033F303C022
:10351E0034F3050E0301356F04EC0CF00101FC5180
:10352E00000A30E0D8510001D225006E000ED321E2
:10353E00016E000ED421026E000ED521036E010124
:10354E00FC51005E000E015A025A035A02014D51FF
:10355E000026000E01220222032200C022F101C029
:10356E0023F102C024F103C025F100C031F301C0E4
:10357E0032F302C033F303C034F3070E0301356F89
:10358E0004EC0CF00101F151000A42E0D8510001A7
:10359E00D225006E000ED321016E000ED421026ED4
:1035AE00000ED521036E02014D510026000E0122A0
:1035BE000222032200C022F101C023F102C024F135
:1035CE0003C025F100C031F301C032F302C033F362
:1035DE0003C034F3050E0301356F04EC0CF0030E3B
:1035EE00010122250301316F000E01012321030188
:1035FE00326F000E010124210301336F000E010111
:10360E0025210301346F030E356F04EC0CF02AD024
:10361E000101D8510001D225006E000ED321016E9A
:10362E00000ED421026E000ED521036E02014D5103
:10363E000026000E01220222032200C022F101C048
:10364E0023F102C024F103C025F100C031F301C003
:10365E0032F302C033F303C034F3030E0301356FAC
:10366E0004EC0CF00101F751000AD8B46ED2020E30
:10367E0000018C6F02014D510001D225006E000E2B
:10368E00D321016E000ED421026E000ED521036EE1
:10369E0000C022F101C023F102C024F103C025F1C4
:1036AE0000C031F301C032F302C033F303C034F370
:1036BE00020E0301356F04EC0CF00101F951000A02
:1036CE0011E022C131F323C132F324C133F325C1FA
:1036DE0034F3080E0301356F04EC0CF0010E0001FB
:1036EE008A6F0FD022C131F323C132F324C133F3D9
:1036FE0025C134F3060E0301356F04EC0CF0000106
:10370E008A6B0101F9510001D225006E000ED32102
:10371E00016E000ED421026E000ED521036E020E34
:10372E000026000E01220222032202014D51002624
:10373E00000E01220222032200C022F101C023F159
:10374E0002C024F103C025F100C031F301C032F3F1
:10375E0002C033F303C034F30B0E0301356F04ECD8
:10376E000CF00101F9510001D225006E000ED3219B
:10377E00016E000ED421026E000ED521036E0201E1
:10378E004D510026000E01220222032200C022F11A
:10379E0001C023F102C024F103C025F100C031F3B2
:1037AE0001C032F302C033F303C034F3060E03013B
:1037BE00356F04EC0CF00101FC51000A30E0F751BA
:1037CE000001D225006E000ED321016E000ED42111
:1037DE00026E000ED521036E0101FC51005E000E3B
:1037EE00015A025A035A02014D510026000E0122BF
:1037FE000222032200C022F101C023F102C024F1F3
:10380E0003C025F100C031F301C032F302C033F31F
:10381E0003C034F3080E0301356F04EC0CF0010104
:10382E00F7510001D225006E000ED321016E000E5D
:10383E00D421026E000ED521036E02014D510026D9
:10384E00000E01220222032200C022F101C023F148
:10385E0002C024F103C025F100C031F301C032F3E0
:10386E0002C033F303C034F3040E0301356F04ECCE
:10387E000CF00101F8510001D225006E000ED3218B
:10388E00016E000ED421026E000ED521036E0201D0
:10389E004D510026000E01220222032200C022F109
:1038AE0001C023F102C024F103C025F100C031F3A1
:1038BE0001C032F302C033F303C034F3010E03012F
:1038CE00356F04EC0CF00101F951000A10E022C131
:1038DE0031F323C132F324C133F325C134F3070E80
:1038EE000301356F04EC0CF0010E526E0ED0030185
:1038FE0022C131F323C132F324C133F325C134F392
:10390E00050E356F04EC0CF0526A0101F8510001FE
:10391E00D225006E000ED321016E000ED421026E50
:10392E00000ED521036E0101F9510026000E012271
:10393E0002220322020E0026000E01220222032280
:10394E0002014D510026000E01220222032200C068
:10395E0022F101C023F102C024F103C025F100C001
:10396E0031F301C032F302C033F303C034F30A0E55
:10397E000301356F04EC0CF00101F8510001D22562
:10398E00006E000ED321016E000ED421026E000EC9
:10399E00D521036E0101F9510026000E01220222EB
:1039AE00032202014D510026000E012202220322A3
:1039BE0000C022F101C023F102C024F103C025F1A1
:1039CE0000C031F301C032F302C033F303C034F34D
:1039DE00050E0301356F04EC0CF00101FC51000AD9
:1039EE0036E0F8510001D225006E000ED321016E93
:1039FE00000ED421026E000ED521036E0101D851A6
:103A0E000026000E012202220322FC51005E000E4F
:103A1E00015A025A035A02014D510026000E01228C
:103A2E000222032200C022F101C023F102C024F1C0
:103A3E0003C025F100C031F301C032F302C033F3ED
:103A4E0003C034F3070E0301356F04EC0CF00101D3
:103A5E00F151000A49E0D8510001D225006E000E46
:103A6E00D321016E000ED421026E000ED521036EFD
:103A7E000101F8510026000E01220222032202014A
:103A8E004D510026000E01220222032200C022F117
:103A9E0001C023F102C024F103C025F100C031F3AF
:103AAE0001C032F302C033F303C034F3050E030139
:103ABE00356F04EC0CF0030E010122250301316F6A
:103ACE00000E010123210301326F000E010124219A
:103ADE000301336F000E010125210301346F030E24
:103AEE00356F04EC0CF031D00101D8510001D22514
:103AFE00006E000ED321016E000ED421026E000E58
:103B0E00D521036E0101F8510026000E012202227A
:103B1E00032202014D510026000E01220222032231
:103B2E0000C022F101C023F102C024F103C025F12F
:103B3E0000C031F301C032F302C033F303C034F3DB
:103B4E00030E0301356F04EC0CF0030E0001B86F89
:103B5E00556A566A040ECF6F0101D4A125D0000E0E
:103B6E00FB1902E1000EFA191FE03C50000A1CE19D
:103B7E00010E3C6EAEEC06F000C0B9F05E0EF66EB5
:103B8E006D0EF76E000EF86E170EE16E020EE26EFF
:103B9E00160E006E010E016E38EC05F0170E316F29
:103BAE00020E326F54EC0DF03C50010AD8A4AFD087
:103BBE000101D4B1ACD0000EFB1902E1000EFA19CE
:103BCE00D8B4A5D0F351000A51E10001B951D22564
:103BDE00006E000ED321016E000ED421026E000E77
:103BEE00D521036E00C022F101C023F102C024F1E1
:103BFE0003C025F100C031F301C032F302C033F32C
:103C0E0003C034F3090E0301356F04EC0CF03C6A6B
:103C1E0022C1DAF423C1DBF424C1DCF425C1DDF4C6
:103C2E00BF0E0401DE6F010EDF6F93EC04F0740E15
:103C3E00F66E6D0EF76E000EF86E2D0EE16E020E24
:103C4E00E26E100E006E010E016E38EC05F02D0EB8
:103C5E000301316F020E326F54EC0DF0BF0E0301F3
:103C6E00316F010E326F54EC0DF051D00101F35152
:103C7E000001D225006E000ED321016E000ED4215C
:103C8E00026E000ED521036E00C022F101C023F199
:103C9E0002C024F103C025F100C031F301C032F39C
:103CAE0002C033F303C034F3090E0301356F04EC85
:103CBE000CF03C6A22C1DAF423C1DBF424C1DCF43B
:103CCE0025C1DDF4BF0E0401DE6F010EDF6F93EC34
:103CDE0004F0840EF66E6D0EF76E000EF86E3D0E4D
:103CEE00E16E020EE26E100E006E010E016E38ECE9
:103CFE0005F03D0E0301316F020E326F54EC0DF0E4
:103D0E00BF0E0301316F010E326F54EC0DF0120035
:103D1E00020E02014D6F82940101D251000A09E197
:103D2E00090E0301316F8EEC0DF00050010A01E017
:103D3E00DAD10101F751000A05E000018C51010AA8
:103D4E0001E088D0090E0301316F0AEC0DF002017B
:103D5E004D510001D225006E000ED321016E000ED2
:103D6E00D421026E000ED521036E00C022F101C0D7
:103D7E0023F102C024F103C025F100C031F301C0CC
:103D8E0032F302C033F303C034F3010E0301356F77
:103D9E0004EC0CF022C131F323C132F324C133F30E
:103DAE0025C134F3050E356F04EC0CF0526A020E89
:103DBE000001D225006E000ED321016E000ED4211B
:103DCE00026E000ED521036E02014D510026000E2B
:103DDE0001220222032200C022F101C023F102C0FF
:103DEE0024F103C025F100C031F301C032F302C04B
:103DFE0033F303C034F30A0E0301356F04EC0CF0F9
:103E0E000101D8510001D225006E000ED321016EA2
:103E1E00000ED421026E000ED521036E02014D510B
:103E2E000026000E01220222032200C022F101C050
:103E3E0023F102C024F103C025F100C031F301C00B
:103E4E0032F302C033F303C034F3030E0301356FB4
:103E5E0004EC0CF00101F751000AD8B43DD1000179
:103E6E008C51020AD8A438D1090E0301316F0AEC25
:103E7E000DF002014D510001D225006E000ED3212E
:103E8E00016E000ED421026E000ED521036E00C00D
:103E9E0022F101C023F102C024F103C025F100C0BC
:103EAE0031F301C032F302C033F303C034F3020E18
:103EBE000301356F04EC0CF022C131F323C132F350
:103ECE0024C133F325C134F3060E356F04EC0CF028
:103EDE00526A020E0001D225006E000ED321016E31
:103EEE00000ED421026E000ED521036E02014D513B
:103EFE000026000E01220222032200C022F101C080
:103F0E0023F102C024F103C025F100C031F301C03A
:103F1E0032F302C033F303C034F30B0E0301356FDB
:103F2E0004EC0CF00101D8510001D225006E000EF8
:103F3E00D321016E000ED421026E000ED521036E28
:103F4E0002014D510026000E01220222032200C062
:103F5E0022F101C023F102C024F103C025F100C0FB
:103F6E0031F301C032F302C033F303C034F3040E55
:103F7E000301356F04EC0CF00101F8510001D2255C
:103F8E00006E000ED321016E000ED421026E000EC3
:103F9E00D521036E02014D510026000E0122022290
:103FAE00032200C022F101C023F102C024F103C09C
:103FBE0025F100C031F301C032F302C033F303C068
:103FCE0034F3010E0301356F04EC0CF00101F851CE
:103FDE000001D225006E000ED321016E000ED421F9
:103FEE00026E000ED521036E02014D510026000E09
:103FFE0001220222032200C022F101C023F102C0DD
:10400E0024F103C025F100C031F301C032F302C028
:10401E0033F303C034F3050E0301356F04EC0CF0DB
:10402E0000018A6B0101F8510001D225006E000ECD
:10403E00D321016E000ED421026E000ED521036E27
:10404E00020E0026000E01220222032202014D5111
:10405E000026000E01220222032200C022F101C01E
:10406E0023F102C024F103C025F100C031F301C0D9
:10407E0032F302C033F303C034F30A0E0301356F7B
:10408E0004EC0CF00101F7510001D225006E000E78
:10409E00D321016E000ED421026E000ED521036EC7
:1040AE0002014D510026000E01220222032200C001
:1040BE0022F101C023F102C024F103C025F100C09A
:1040CE0031F301C032F302C033F303C034F3030EF5
:1040DE000301356F04EC0CF0030E0001B86F556A46
:1040EE00566A070ECF6F0101D4A125D0000EFB1921
:1040FE0002E1000EFA191FE03C50000A1CE1010E0D
:10410E003C6EAEEC06F000C0B9F0950EF66E6D0E7C
:10411E00F76E000EF86E170EE16E020EE26E160EC0
:10412E00006E010E016E38EC05F0170E316F020EA7
:10413E00326F54EC0DF03C50010A59E10101D4B13B
:10414E0056D0000EFB1902E1000EFA1950E00001E4
:10415E00B951D225006E000ED321016E000ED4216E
:10416E00026E000ED521036E00C022F101C023F1B4
:10417E0002C024F103C025F100C031F301C032F3B7
:10418E0002C033F303C034F3090E0301356F04ECA0
:10419E000CF03C6A22C1DAF423C1DBF424C1DCF456
:1041AE0025C1DDF4BF0E0401DE6F010EDF6F93EC4F
:1041BE0004F0AB0EF66E6D0EF76E000EF86E2D0E51
:1041CE00E16E020EE26E100E006E010E016E38EC04
:1041DE0005F02D0E0301316F020E326F54EC0DF00F
:1041EE00BF0E0301316F010E326F54EC0DF0120051
:1041FE00C0D1020E0301316F326B17EC07F0020EC5
:10420E000001D2250301316F000E0001D3210301FD
:10421E00326F000E0001D4210301336F000E000136
:10422E00D5210301346F150E356F04EC0CF001012E
:10423E00212BD3D1D3A308D0566A020E0301316FBE
:10424E005DEC06F00101212B150E0301316F8EEC92
:10425E000DF0005202E0010E566EBFD1010E0301A9
:10426E00316F326B17EC07F0020E0001D2250301FD
:10427E00316F000E0001D3210301326F000E0001D9
:10428E00D4210301336F000E0001D5210301346FD9
:10429E00140E356F04EC0CF00101212BD3A108D0C4
:1042AE00556A010E0301316F5DEC06F00101212B01
:1042BE00140E0301316F8EEC0DF0005202E0010E70
:1042CE00556E8BD1D2C0E8F1D3C0E9F1D4C0EAF17A
:1042DE00D5C0EBF1010E0301316F010E326F17ECF9
:1042EE0007F0020E0001D2250301316F000E00010E
:1042FE00D3210301326F000E0001D4210301336F6D
:10430E00000E0001D5210301346F140E356F04EC3D
:10431E000CF00101212B61D1D3A10ED0556A010EF3
:10432E000301316F5DEC06F00101212BE851000114
:10433E00D25D006E00C0DDF1140E0301316F8EEC04
:10434E000DF0005202E0010E556E47D1D2C0E8F1D9
:10435E00D3C0E9F1D4C0EAF1D5C0EBF1020E0301EE
:10436E00316F010E326F17EC07F0020E0001D225ED
:10437E000301316F000E0001D3210301326F000ED5
:10438E000001D4210301336F000E0001D52103017A
:10439E00346F150E356F04EC0CF00101212B1DD17D
:1043AE00D3A30ED0566A020E0301316F5DEC06F0F8
:1043BE000101212BE8510001D25D006E00C0DFF13A
:1043CE00150E0301316F8EEC0DF0005202E0010E5E
:1043DE00556E03D1D2C0E8F1D3C0E9F1D4C0EAF1F1
:1043EE00D5C0EBF1020E0301316F326B17EC07F003
:1043FE00020E0001D2250301316F000E0001D32100
:10440E000301326F000E0001D4210301336F000E41
:10441E000001D5210301346F150E356F04EC0CF03D
:10442E000101212BDAD0D3A30ED0566A020E03015E
:10443E00316F5DEC06F00101212BE8510001D25DD8
:10444E00006E00C0DEF1150E0301316F8EEC0DF023
:10445E00005202E0010E556EC0D0D2C0E8F1D3C0BA
:10446E00E9F1D4C0EAF1D5C0EBF1010E0301316FD1
:10447E00326B17EC07F0020E0001D2250301316FEB
:10448E00000E0001D3210301326F000E0001D42172
:10449E000301336F000E0001D5210301346F140E9A
:1044AE00356F04EC0CF00101212B97D0D3A10ED067
:1044BE00556A010E0301316F5DEC06F00101212BEF
:1044CE00E8510001D25D006E00C0DCF1140E030154
:1044DE00316F8EEC0DF0005202E0010E556E7DD064
:1044EE00DC0E0301316F010E326F7CEC0CF0FC0E12
:1044FE000401E66F000EE76F030EF66E6E0EF76E9A
:10450E00000EF86E170EE16E020EE26E110E006EC8
:10451E00010E016E38EC05F0170EE86F020EE96F12
:10452E00100EEA6F000EEB6F8BEC01F0DA0EE66FF9
:10453E00000EE76F140EF66E6E0EF76E000EF86E2E
:10454E00280EE16E020EE26E110E006E010E016E6D
:10455E0038EC05F0280EE86F020EE96F100EEA6FC8
:10456E00000EEB6F8BEC01F0010E546E0001CF6B61
:10457E0034D001012151000AD8B43BD62151010A91
:10458E00D8B458D62151020AD8B468D62151030A9C
:10459E00D8B484D62151040AD8B494D62151050A30
:1045AE00D8B4BAD62151060AD8B4D0D62151070AAA
:1045BE00D8B4F6D62151080AD8B40CD72151090A1D
:1045CE00D8B431D721510A0AD8B447D721510B0A92
:0C45DE00D8B46CD721510C0A83E0120005
:1045EA008284010E0301316F8EEC0DF000524CE013
:1045FA00010E0301316F010E326F17EC07F0530EF3
:10460A000201176F330E186F200E196F4D0E1A6FB5
:10461A006F0E1B6F740E1C6F6F0E1D6F720E1E6F66
:10462A00310E1F6F530E206F740E216F610E226FB1
:10463A00720E236F740E246F256B170E0301316FF0
:10464A00020E326F54EC0DF0839EFC0E0401E66FED
:10465A00000EE76F0D0EE86F010EE96F100EEA6F9C
:10466A00000EEB6F8BEC01F0DA0EE66F000EE76FCF
:10467A00EB0EE86F000EE96F100EEA6F000EEB6F9B
:10468A008BEC01F0010E546E020E0301316F8EECB9
:10469A000DF000522DE0020E0301316F010E326F50
:1046AA0017EC07F0530E0201266F330E276F200E08
:1046BA00286F4D0E296F6F0E2A6F740E2B6F6F0EB7
:1046CA002C6F720E2D6F320E2E6F530E2F6F740ECB
:1046DA00306F610E316F720E326F740E336F346B3E
:1046EA00260E0301316F020E326F54EC0DF0839ED9
:1046FA00050E0301316F8EEC0DF000522EE0010E13
:10470A000301316F51C032F344EC07F0556A526A23
:10471A00530E0201356F330E366F200E376F4D0E72
:10472A00386F6F0E396F740E3A6F6F0E3B6F720EE1
:10473A003C6F310E3D6F200E3E6F460E3F6F610E8D
:10474A00406F730E416F740E426F436B350E030157
:10475A00316F020E326F54EC0DF0070E0301316F08
:10476A008EEC0DF000522DE00301316B51C032F393
:10477A0044EC07F0010E526E530E0201446F330EE1
:10478A00456F200E466F4D0E476F6F0E486F740EC1
:10479A00496F6F0E4A6F720E4B6F310E4C6F200EBF
:1047AA004D6F530E4E6F6C0E4F6F6F0E506F770E2C
:1047BA00516F526B440E0301316F020E326F54EC8B
:1047CA000DF0060E0301316F8EEC0DF000522FE052
:1047DA0053C031F3010E0301326F44EC07F0566AFD
:1047EA0000018A6B530E0201536F330E546F200E71
:1047FA00556F4D0E566F6F0E576F740E586F6F0EC2
:10480A00596F720E5A6F320E5B6F200E5C6F460E36
:10481A005D6F610E5E6F730E5F6F740E606F616B1A
:10482A00530E0301316F020E326F54EC0DF0080E75
:10483A000301316F8EEC0DF000522EE053C031F3BC
:10484A000301326B44EC07F0010E00018A6F530E2C
:10485A000201626F330E636F200E646F4D0E656F37
:10486A006F0E666F740E676F6F0E686F720E696FE8
:10487A00320E6A6F200E6B6F530E6C6F6C0E6D6F7B
:10488A006F0E6E6F770E6F6F706B620E0301316F72
:10489A00020E326F54EC0DF00A0E0301316F8EECEA
:1048AA000DF000521EE0010E556E010E0301316F2C
:1048BA0033EC07F07B0EF66E680EF76E000EF86E9C
:1048CA00710EE16E020EE26E160E006E010E016EA0
:1048DA0038EC05F0710E0301316F020E326F54ECA1
:1048EA000DF00B0E0301316F8EEC0DF000521EE03D
:1048FA00010E566E020E0301316F33EC07F0910E72
:10490A00F66E680EF76E000EF86E870EE16E020EF6
:10491A00E26E160E006E010E016E38EC05F0870E7F
:10492A000301316F020E326F54EC0DF0030E0301D6
:10493A00316F8EEC0DF000522CE000018B91010ECC
:10494A000301316F5DEC06F0530E02019D6F330EC9
:10495A009E6F200E9F6F4D0EA06F6F0EA16F740E8B
:10496A00A26F6F0EA36F720EA46F310EA56F200E89
:10497A00A66F530EA76F740EA86F6F0EA96F700EF5
:10498A00AA6FAB6B9D0E0301316F020E326F54ECAE
:10499A000DF0040E0301316F8EEC0DF000522CE085
:1049AA0000018B93020E0301316F5DEC06F0530E8A
:1049BA000201AC6F330EAD6F200EAE6F4D0EAF6FAE
:1049CA006F0EB06F740EB16F6F0EB26F720EB36F5F
:1049DA00320EB46F200EB56F530EB66F740EB76FEA
:1049EA006F0EB86F700EB96FBA6BAC0E0301316FF0
:1049FA00020E326F54EC0DF00C0E0301316F8EEC87
:104A0A000DF0005201E0838E5550010A50E1010178
:104A1A00D3A14DD05250000A4AE1010E0301316F71
:104A2A005DEC06F0020E0301316F5DEC06F0050E37
:104A3A000001CF6F556A566AC50EF66E680EF76E9C
:104A4A00000EF86EBB0EE16E020EE26E140E006EE0
:104A5A00010E016E38EC05F0BB0E0301316F020E38
:104A6A00326F54EC0DF0090E0301316F0AEC0DF0B0
:104A7A00FC0E0401E66F000EE76F570EE86F000E9A
:104A8A00E96F100EEA6F000EEB6F8BEC01F0DA0E95
:104A9A00E66F000EE76FA60EE86F000EE96F100EC4
:104AAA00EA6F000EEB6F8BEC01F0010E546E56505C
:104ABA00010A51E10101D3A34ED000018A51000A33
:104ACA004AE1010E0301316F5DEC06F0020E0301AB
:104ADA00316F5DEC06F0050E0001CF6F556A566A1C
:104AEA00D90EF66E680EF76E000EF86ECF0EE16EF6
:104AFA00020EE26E140E006E010E016E38EC05F025
:104B0A00CF0E0301316F020E326F54EC0DF0090E15
:104B1A000301316F0AEC0DF0FC0E0401E66F000E82
:104B2A00E76F570EE86F000EE96F100EEA6F000E7E
:104B3A00EB6F8BEC01F0DA0EE66F000EE76FA60E54
:104B4A00E86F000EE96F100EEA6F000EEB6F8BEC48
:104B5A0001F0010E546E0101D751000A05E000016F
:104B6A008C51010A01E002D000018B930101D4A10A
:104B7A004CD0F2534AE0010E0301316F5DEC06F0AE
:104B8A00020E0301316F5DEC06F0556A566A050E96
:104B9A000001CF6FED0EF66E680EF76E000EF86E1E
:104BAA00E30EE16E020EE26E110E006E010E016E50
:104BBA0038EC05F0E30E0301316F020E326F54EC4C
:104BCA000DF0090E0301316F0AEC0DF0FC0E040121
:104BDA00E66F000EE76F570EE86F000EE96F100ED2
:104BEA00EA6F000EEB6F8BEC01F0DA0EE66F000E47
:104BFA00E76F680EE86F000EE96F100EEA6F000E9D
:104C0A00EB6F8BEC01F0010E546E0101D251000AD8
:104C1A004AE0010E0301316F5DEC06F0020E03015A
:104C2A00316F5DEC06F0556A566A050E0001CF6FCA
:104C3A00FE0EF66E680EF76E000EF86EF40EE16E5A
:104C4A00020EE26E110E006E010E016E38EC05F0D6
:104C5A00F40E0301316F020E326F54EC0DF0090E9F
:104C6A000301316F0AEC0DF0FC0E0401E66F000E31
:104C7A00E76F570EE86F000EE96F100EEA6F000E2D
:104C8A00EB6F8BEC01F0DA0EE66F000EE76F790E30
:104C9A00E86F000EE96F100EEA6F000EEB6F8BECF7
:104CAA0001F0010E546E0101D551010A4CE1F45391
:104CBA004AE0010E0301316F5DEC06F0020E0301BA
:104CCA00316F5DEC06F0556A566A050E0001CF6F2A
:104CDA000F0EF66E690EF76E000EF86E050EE16E97
:104CEA00030EE26E170E006E010E016E38EC05F02F
:104CFA00050E0301316F030E326F54EC0DF0090EED
:104D0A000301316F0AEC0DF0FC0E0401E66F000E90
:104D1A00E76F570EE86F000EE96F100EEA6F000E8C
:104D2A00EB6F8BEC01F0DA0EE66F000EE76F2B0EDD
:104D3A00E86F000EE96F100EEA6F000EEB6F8BEC56
:104D4A0001F0010E546E00018B51000A27E1020E98
:104D5A00CF6F3C6A090E0301316F0AEC0DF0FC0EAD
:104D6A000401E66F000EE76F3D0EE86F000EE96F73
:104D7A00100EEA6F000EEB6F8BEC01F0DA0EE66FA5
:104D8A00000EE76FEB0EE86F000EE96F100EEA6F88
:104D9A00000EEB6F8BEC01F0010E546E0001CF5147
:104DAA00050A04E0CF51060A01E04BD00301316B3A
:104DBA000AEC0DF0000E0101FB1902E1000EFA19CE
:104DCA0040E0FA510001D2250301316F0101FB5184
:104DDA000001D3210301326F000E0001D421030127
:104DEA00336F000E0001D5210301346F090E356FB0
:104DFA0004EC0CF0260EF66E690EF76E000EF86ED5
:104E0A001C0EE16E030EE26E150E006E010E016EAF
:104E1A0038EC05F01C0E316F030E326F54EC0DF0B6
:104E2A00DA0E0401E66F000EE76F1A0EE86F000E45
:104E3A00E96F100EEA6F000EEB6F8BEC01F0010EBA
:044E4A00546E120090
:0A4E4E007AEC03F00001CF6B1200B4
:104E5800030E02014D6F82940101D251000A04E150
:104E68000001B75301E141D10001B76B8284090EFB
:104E78000301316F0AEC0DF0010E0001D225030188
:104E8800316F000E0001D3210301326F000E0001C3
:104E9800D4210301336F000E0001D5210301346FC3
:104EA8000C0E356F04EC0CF002014D510001D225B7
:104EB800006E000ED321016E000ED421026E000E8A
:104EC800D521036E00C022F101C023F102C024F1F4
:104ED80003C025F100C031F301C032F302C033F33F
:104EE80003C034F3010E0301356F04EC0CF022C14A
:104EF80031F323C132F324C133F325C134F3050E52
:104F0800356F04EC0CF0526A020E0001D225006ED7
:104F1800000ED321016E000ED421026E000ED521A1
:104F2800036E02014D510026000E012202220322C7
:104F380000C022F101C023F102C024F103C025F111
:104F480000C031F301C032F302C033F303C034F3BD
:104F58000A0E0301356F04EC0CF00101D951000170
:104F6800D225006E000ED321016E000ED421026EF0
:104F7800000ED521036E02014D510026000E0122BC
:104F88000222032200C022F101C023F102C024F151
:104F980003C025F100C031F301C032F302C033F37E
:104FA80003C034F3030E0301356F04EC0CF0010168
:104FB800D751000AD8B491D000018C51020AD8A464
:104FC8008CD00101F8510001D2250301316F000E88
:104FD8000001D3210301326F000E0001D421030127
:104FE800336F000E0001D5210301346F02014D51CA
:104FF80003013127000E322333233423020E356F89
:1050080004EC0CF00101F8510001D2250301316FC5
:10501800000E0001D3210301326F000E0001D421DC
:105028000301336F000E0001D5210301346F020123
:105038004D5103013127000E322333233423060E4A
:10504800356F04EC0CF000018A6B0101F851000186
:10505800D2250301316F000E0001D3210301326F05
:10506800000E0001D4210301336F000E0001D52189
:105078000301346F020E3127000E32233323342309
:1050880002014D5103013127000E3223332334230B
:105098000B0E356F04EC0CF00101D7510001D2253D
:1050A8000301316F000E0001D3210301326F000E9E
:1050B8000001D4210301336F000E0001D521030143
:1050C800346F02014D5103013127000E322333237F
:1050D8003423040E356F04EC0CF0030E00018B6FC3
:1050E800556A566A3C6A080ECF6F090E0301316F84
:1050F8008EEC0DF00050010AD8A426D1090E030148
:10510800316F0AEC0DF002014D510001D225006EFD
:10511800000ED321016E000ED421026E000ED5219F
:10512800036E00C022F101C023F102C024F103C0C4
:1051380025F100C031F301C032F302C033F303C0DC
:1051480034F3010E0301356F04EC0CF022C131F386
:1051580023C132F324C133F325C134F3050E356F6F
:1051680004EC0CF0526A020E0001D225006E000E0B
:10517800D321016E000ED421026E000ED521036EDC
:1051880002014D510026000E01220222032200C016
:1051980022F101C023F102C024F103C025F100C0AF
:1051A80031F301C032F302C033F303C034F30A0E03
:1051B8000301356F04EC0CF00101D8510001D22530
:1051C800006E000ED321016E000ED421026E000E77
:1051D800D521036E02014D510026000E0122022244
:1051E800032200C022F101C023F102C024F103C050
:1051F80025F100C031F301C032F302C033F303C01C
:1052080034F3030E0301356F04EC0CF00101F75180
:10521800000AD8B491D000018C51020AD8A48CD0CD
:105228000101F8510001D2250301316F000E000180
:10523800D3210301326F000E0001D4210301336F23
:10524800000E0001D5210301346F02014D51030105
:105258003127000E322333233423020E356F04EC3A
:105268000CF00101F8510001D2250301316F000E45
:105278000001D3210301326F000E0001D421030184
:10528800336F000E0001D5210301346F02014D5127
:1052980003013127000E322333233423060E356FE2
:1052A80004EC0CF000018A6B0101F8510001D225D1
:1052B8000301316F000E0001D3210301326F000E8C
:1052C8000001D4210301336F000E0001D521030131
:1052D800346F020E3127000E3223332334230201A8
:1052E8004D5103013127000E3223332334230B0E93
:1052F800356F04EC0CF00101D8510001D2250301EF
:10530800316F000E0001D3210301326F000E00013E
:10531800D4210301336F000E0001D5210301346F3E
:1053280002014D5103013127000E32233323342368
:10533800040E356F04EC0CF0030E0001B86F556ACB
:10534800566A3C6A070ECF6F0101D4A125D0000E22
:10535800FB1902E1000EFA191FE03C50000A1CE19B
:10536800010E3C6EAEEC06F000C0B9F0CC0EF66E45
:105378006D0EF76E000EF86E170EE16E020EE26EFD
:10538800160E006E010E016E38EC05F0170E316F27
:10539800020E326F54EC0DF03C50010A59E1010144
:1053A800D4B156D0000EFB1902E1000EFA1950E0F4
:1053B8000001B951D225006E000ED321016E000EF6
:1053C800D421026E000ED521036E00C022F101C067
:1053D80023F102C024F103C025F100C031F301C05C
:1053E80032F302C033F303C034F3090E0301356FFF
:1053F80004EC0CF03C6A22C1DAF423C1DBF424C1CA
:10540800DCF425C1DDF4BF0E0401DE6F010EDF6F91
:1054180093EC04F0E20EF66E6D0EF76E000EF86E69
:105428002D0EE16E020EE26E100E006E010E016E80
:1054380038EC05F02D0E0301316F020E326F54EC7B
:105448000DF0BF0E0301316F010E326F54EC0DF0F9
:02545800120040
:10545A008284010E0301316F8EEC0DF000524AE096
:10546A00010E0301316F326B17EC07F0530E020184
:10547A00176F370E186F200E196F4D0E1A6F6F0EB9
:10548A001B6F740E1C6F6F0E1D6F720E1E6F310E26
:10549A001F6F530E206F740E216F610E226F720EF2
:1054AA00236F740E246F256B170E0301316F020EE2
:1054BA00326F54EC0DF0FC0E0401E66F000EE76F3C
:1054CA00950EE86F000EE96F100EEA6F000EEB6F93
:1054DA008BEC01F0DA0EE66F000EE76FEB0EE86F69
:1054EA00000EE96F100EEA6F000EEB6F8BEC01F005
:1054FA00010E546E020E0301316F8EEC0DF0005254
:10550A002BE0020E0301316F326B17EC07F0530EDA
:10551A000201266F370E276F200E286F4D0E296F56
:10552A006F0E2A6F740E2B6F6F0E2C6F720E2D6F0B
:10553A00320E2E6F530E2F6F740E306F610E316F55
:10554A00720E326F740E336F346B260E0301316F95
:10555A00020E326F54EC0DF00A0E0301316F8EEC1D
:10556A000DF000521EE0010E556E010E0301316F5F
:10557A0033EC07F0490EF66E6C0EF76E000EF86EFD
:10558A00350EE16E020EE26E150E006E010E016E10
:10559A0038EC05F0350E0301316F020E326F54EC10
:1055AA000DF00B0E0301316F8EEC0DF000521EE070
:1055BA00010E566E020E0301316F33EC07F05E0ED8
:1055CA00F66E6C0EF76E000EF86E4A0EE16E020E63
:1055DA00E26E150E006E010E016E38EC05F04A0EF1
:1055EA000301316F020E326F54EC0DF0050E030108
:1055FA00316F8EEC0DF000522DE0010E0301316F78
:10560A0051C032F344EC07F0526A530E02015F6F45
:10561A00370E606F200E616F4D0E626F310E636F31
:10562A00200E646F530E656F700E666F650E676F9E
:10563A00650E686F640E696F200E6A6F550E6B6F88
:10564A00500E6C6F6D6B5F0E0301316F020E326F7D
:10565A0054EC0DF0060E0301316F8EEC0DF0005282
:10566A002EE053C031F3010E0301326F44EC07F010
:10567A0000018A6B530E02016E6F370E6F6F200E98
:10568A00706F4D0E716F320E726F200E736F530E64
:10569A00746F700E756F650E766F650E776F640E98
:1056AA00786F200E796F550E7A6F500E7B6F7C6B78
:1056BA006E0E0301316F020E326F54EC0DF0030EC1
:1056CA000301316F8EEC0DF0005208E15550010ACA
:1056DA0004E10101D3A101D001D02AD00001B8A16F
:1056EA0027D0B891010E0301316F5DEC06F0530E1D
:1056FA0002017D6F370E7E6F200E7F6F4D0E806F19
:10570A00310E816F200E826F530E836F740E846F79
:10571A006F0E856F700E866F650E876F640E886FC9
:10572A00896B7D0E0301316F020E326F54EC0DF05E
:10573A00040E0301316F8EEC0DF0005208E1565051
:10574A00010A04E10101D3A301D001D02AD000014A
:10575A00B8A327D0B893020E0301316F5DEC06F0AF
:10576A00530E02018A6F370E8B6F200E8C6F4D0E0F
:10577A008D6F320E8E6F200E8F6F530E906F740ED8
:10578A00916F6F0E926F700E936F650E946F640E29
:10579A00956F966B8A0E0301316F020E326F54ECCD
:1057AA000DF00101D751000A05E000018C51010AF0
:1057BA0001E002D00001B8930101D4A14CD0010E3E
:1057CA000301316F5DEC06F0020E0301316F5DECEF
:1057DA0006F0556A566A060E0001CF6F010EB76FC2
:1057EA00AB0EF66E6C0EF76E000EF86E970EE16E4B
:1057FA00020EE26E110E006E010E016E38EC05F01B
:10580A00970E0301316F020E326F54EC0DF0090E40
:10581A000301316F0AEC0DF0FC0E0401E66F000E75
:10582A00E76F570EE86F000EE96F100EEA6F000E71
:10583A00EB6F8BEC01F0DA0EE66F000EE76F680E85
:10584A00E86F000EE96F100EEA6F000EEB6F8BEC3B
:10585A0001F0010E546E0101D251000A4AE0010E14
:10586A000301316F5DEC06F0020E0301316F5DEC4E
:10587A0006F0060E0001CF6F556A566ABC0EF66E28
:10588A006C0EF76E000EF86EA80EE16E020EE26E56
:10589A00120E006E010E016E38EC05F0A80E03011F
:1058AA00316F020E326F54EC0DF0090E0301316FA5
:1058BA000AEC0DF0FC0E0401E66F000EE76F570EBE
:1058CA00E86F000EE96F100EEA6F000EEB6F8BECBB
:1058DA0001F0DA0EE66F000EE76F790EE86F000E40
:1058EA00E96F100EEA6F000EEB6F8BEC01F0010E00
:1058FA00546E0101D551010A4CE1F4534AE0010EFC
:10590A000301316F5DEC06F0020E0301316F5DECAD
:10591A0006F0060E0001CF6F556A566ACE0EF66E75
:10592A006C0EF76E000EF86EBA0EE16E020EE26EA3
:10593A00150E006E010E016E38EC05F0BA0E030169
:10594A00316F020E326F54EC0DF0090E0301316F04
:10595A000AEC0DF0FC0E0401E66F000EE76F570E1D
:10596A00E86F000EE96F100EEA6F000EEB6F8BEC1A
:10597A0001F0DA0EE66F000EE76F2B0EE86F000EED
:10598A00E96F100EEA6F000EEB6F8BEC01F0010E5F
:10599A00546E0001B851000A27E1010ECF6F3C6A2C
:1059AA00090E0301316F0AEC0DF0FC0E0401E66FDB
:1059BA00000EE76FBC0EE86F000EE96F100EEA6F7B
:1059CA00000EEB6F8BEC01F0DA0EE66F000EE76F5C
:1059DA00EB0EE86F000EE96F100EEA6F000EEB6F28
:1059EA008BEC01F0010E546E0001CF51050A04E060
:1059FA00CF51060A01E04BD00301316B0AEC0DF0DE
:105A0A00000E0101FB1902E1000EFA1940E0FA51F9
:105A1A000001D2250301316F0101FB510001D3219D
:105A2A000301326F000E0001D4210301336F000E0F
:105A3A000001D5210301346F090E356F04EC0CF017
:105A4A00E30EF66E6C0EF76E000EF86ECF0EE16E78
:105A5A00020EE26E150E006E010E016E38EC05F0B4
